{
  "contractName": "Delivery",
  "abi": [
    {
      "inputs": [],
      "stateMutability": "nonpayable",
      "type": "constructor"
    },
    {
      "anonymous": false,
      "inputs": [
        {
          "indexed": true,
          "internalType": "uint256",
          "name": "contract_idx",
          "type": "uint256"
        },
        {
          "indexed": true,
          "internalType": "uint256",
          "name": "transact_idx",
          "type": "uint256"
        }
      ],
      "name": "AdvancePaid",
      "type": "event"
    },
    {
      "anonymous": false,
      "inputs": [
        {
          "indexed": true,
          "internalType": "uint256",
          "name": "contract_idx",
          "type": "uint256"
        },
        {
          "indexed": true,
          "internalType": "uint256",
          "name": "artifact_idx",
          "type": "uint256"
        }
      ],
      "name": "ArtifactAdded",
      "type": "event"
    },
    {
      "anonymous": false,
      "inputs": [
        {
          "indexed": true,
          "internalType": "uint256",
          "name": "contract_idx",
          "type": "uint256"
        }
      ],
      "name": "ContractAdded",
      "type": "event"
    },
    {
      "anonymous": false,
      "inputs": [
        {
          "indexed": true,
          "internalType": "uint256",
          "name": "contract_idx",
          "type": "uint256"
        }
      ],
      "name": "ContractUpdated",
      "type": "event"
    },
    {
      "anonymous": false,
      "inputs": [
        {
          "indexed": true,
          "internalType": "uint256",
          "name": "contract_idx",
          "type": "uint256"
        },
        {
          "indexed": true,
          "internalType": "uint256",
          "name": "party_idx",
          "type": "uint256"
        }
      ],
      "name": "PartyAdded",
      "type": "event"
    },
    {
      "anonymous": false,
      "inputs": [
        {
          "indexed": true,
          "internalType": "uint256",
          "name": "contract_idx",
          "type": "uint256"
        },
        {
          "indexed": true,
          "internalType": "uint256",
          "name": "settle_idx",
          "type": "uint256"
        }
      ],
      "name": "ResidualPaid",
      "type": "event"
    },
    {
      "anonymous": false,
      "inputs": [
        {
          "indexed": true,
          "internalType": "uint256",
          "name": "contract_idx",
          "type": "uint256"
        },
        {
          "indexed": true,
          "internalType": "uint256",
          "name": "settle_idx",
          "type": "uint256"
        }
      ],
      "name": "SettlementAdded",
      "type": "event"
    },
    {
      "anonymous": false,
      "inputs": [
        {
          "indexed": true,
          "internalType": "uint256",
          "name": "contract_idx",
          "type": "uint256"
        },
        {
          "indexed": true,
          "internalType": "uint256",
          "name": "settle_idx",
          "type": "uint256"
        }
      ],
      "name": "SettlementPosted",
      "type": "event"
    },
    {
      "anonymous": false,
      "inputs": [
        {
          "indexed": true,
          "internalType": "uint256",
          "name": "contract_idx",
          "type": "uint256"
        },
        {
          "indexed": true,
          "internalType": "uint256",
          "name": "transact_idx",
          "type": "uint256"
        }
      ],
      "name": "TransactionAdded",
      "type": "event"
    },
    {
      "inputs": [],
      "name": "owner",
      "outputs": [
        {
          "internalType": "address",
          "name": "",
          "type": "address"
        }
      ],
      "stateMutability": "view",
      "type": "function",
      "constant": true
    },
    {
      "inputs": [],
      "name": "getContractCount",
      "outputs": [
        {
          "internalType": "uint256",
          "name": "",
          "type": "uint256"
        }
      ],
      "stateMutability": "view",
      "type": "function",
      "constant": true
    },
    {
      "inputs": [
        {
          "internalType": "uint256",
          "name": "contract_idx",
          "type": "uint256"
        }
      ],
      "name": "getContract",
      "outputs": [
        {
          "components": [
            {
              "internalType": "string",
              "name": "extended_data",
              "type": "string"
            },
            {
              "internalType": "string",
              "name": "contract_name",
              "type": "string"
            },
            {
              "internalType": "string",
              "name": "contract_type",
              "type": "string"
            },
            {
              "internalType": "string",
              "name": "funding_instr",
              "type": "string"
            },
            {
              "internalType": "uint256",
              "name": "service_fee_pct",
              "type": "uint256"
            },
            {
              "internalType": "uint256",
              "name": "service_fee_amt",
              "type": "uint256"
            },
            {
              "internalType": "uint256",
              "name": "advance_pct",
              "type": "uint256"
            },
            {
              "internalType": "uint256",
              "name": "late_fee_pct",
              "type": "uint256"
            },
            {
              "internalType": "string",
              "name": "transact_logic",
              "type": "string"
            },
            {
              "internalType": "bool",
              "name": "is_active",
              "type": "bool"
            }
          ],
          "internalType": "struct Delivery.Contract",
          "name": "",
          "type": "tuple"
        }
      ],
      "stateMutability": "view",
      "type": "function",
      "constant": true
    },
    {
      "inputs": [
        {
          "components": [
            {
              "internalType": "string",
              "name": "extended_data",
              "type": "string"
            },
            {
              "internalType": "string",
              "name": "contract_name",
              "type": "string"
            },
            {
              "internalType": "string",
              "name": "contract_type",
              "type": "string"
            },
            {
              "internalType": "string",
              "name": "funding_instr",
              "type": "string"
            },
            {
              "internalType": "uint256",
              "name": "service_fee_pct",
              "type": "uint256"
            },
            {
              "internalType": "uint256",
              "name": "service_fee_amt",
              "type": "uint256"
            },
            {
              "internalType": "uint256",
              "name": "advance_pct",
              "type": "uint256"
            },
            {
              "internalType": "uint256",
              "name": "late_fee_pct",
              "type": "uint256"
            },
            {
              "internalType": "string",
              "name": "transact_logic",
              "type": "string"
            },
            {
              "internalType": "bool",
              "name": "is_active",
              "type": "bool"
            }
          ],
          "internalType": "struct Delivery.Contract",
          "name": "contract_",
          "type": "tuple"
        }
      ],
      "name": "addContract",
      "outputs": [],
      "stateMutability": "nonpayable",
      "type": "function"
    },
    {
      "inputs": [
        {
          "internalType": "uint256",
          "name": "contract_idx",
          "type": "uint256"
        },
        {
          "components": [
            {
              "internalType": "string",
              "name": "extended_data",
              "type": "string"
            },
            {
              "internalType": "string",
              "name": "contract_name",
              "type": "string"
            },
            {
              "internalType": "string",
              "name": "contract_type",
              "type": "string"
            },
            {
              "internalType": "string",
              "name": "funding_instr",
              "type": "string"
            },
            {
              "internalType": "uint256",
              "name": "service_fee_pct",
              "type": "uint256"
            },
            {
              "internalType": "uint256",
              "name": "service_fee_amt",
              "type": "uint256"
            },
            {
              "internalType": "uint256",
              "name": "advance_pct",
              "type": "uint256"
            },
            {
              "internalType": "uint256",
              "name": "late_fee_pct",
              "type": "uint256"
            },
            {
              "internalType": "string",
              "name": "transact_logic",
              "type": "string"
            },
            {
              "internalType": "bool",
              "name": "is_active",
              "type": "bool"
            }
          ],
          "internalType": "struct Delivery.Contract",
          "name": "contract_",
          "type": "tuple"
        }
      ],
      "name": "updateContract",
      "outputs": [],
      "stateMutability": "nonpayable",
      "type": "function"
    },
    {
      "inputs": [
        {
          "internalType": "uint256",
          "name": "contract_idx",
          "type": "uint256"
        }
      ],
      "name": "getParties",
      "outputs": [
        {
          "components": [
            {
              "internalType": "string",
              "name": "party_code",
              "type": "string"
            },
            {
              "internalType": "address",
              "name": "party_address",
              "type": "address"
            },
            {
              "internalType": "string",
              "name": "party_type",
              "type": "string"
            }
          ],
          "internalType": "struct Delivery.Party[]",
          "name": "",
          "type": "tuple[]"
        }
      ],
      "stateMutability": "view",
      "type": "function",
      "constant": true
    },
    {
      "inputs": [
        {
          "internalType": "uint256",
          "name": "contract_idx",
          "type": "uint256"
        },
        {
          "components": [
            {
              "internalType": "string",
              "name": "party_code",
              "type": "string"
            },
            {
              "internalType": "address",
              "name": "party_address",
              "type": "address"
            },
            {
              "internalType": "string",
              "name": "party_type",
              "type": "string"
            }
          ],
          "internalType": "struct Delivery.Party",
          "name": "party_code",
          "type": "tuple"
        }
      ],
      "name": "addParty",
      "outputs": [],
      "stateMutability": "nonpayable",
      "type": "function"
    },
    {
      "inputs": [
        {
          "internalType": "uint256",
          "name": "contract_idx",
          "type": "uint256"
        }
      ],
      "name": "deleteParties",
      "outputs": [],
      "stateMutability": "nonpayable",
      "type": "function"
    },
    {
      "inputs": [
        {
          "internalType": "uint256",
          "name": "contract_idx",
          "type": "uint256"
        }
      ],
      "name": "getArtifacts",
      "outputs": [
        {
          "components": [
            {
              "internalType": "string",
              "name": "artifact_id",
              "type": "string"
            },
            {
              "internalType": "string",
              "name": "extended_data",
              "type": "string"
            },
            {
              "internalType": "uint256",
              "name": "added_dt",
              "type": "uint256"
            },
            {
              "internalType": "string",
              "name": "doc_title",
              "type": "string"
            },
            {
              "internalType": "string",
              "name": "doc_type",
              "type": "string"
            }
          ],
          "internalType": "struct Delivery.Artifact[]",
          "name": "",
          "type": "tuple[]"
        }
      ],
      "stateMutability": "view",
      "type": "function",
      "constant": true
    },
    {
      "inputs": [
        {
          "internalType": "uint256",
          "name": "contract_idx",
          "type": "uint256"
        },
        {
          "internalType": "string",
          "name": "artifact_id",
          "type": "string"
        },
        {
          "internalType": "string",
          "name": "doc_title",
          "type": "string"
        },
        {
          "internalType": "string",
          "name": "doc_type",
          "type": "string"
        },
        {
          "internalType": "uint256",
          "name": "added_dt",
          "type": "uint256"
        }
      ],
      "name": "addArtifact",
      "outputs": [],
      "stateMutability": "nonpayable",
      "type": "function"
    },
    {
      "inputs": [
        {
          "internalType": "uint256",
          "name": "contract_idx",
          "type": "uint256"
        }
      ],
      "name": "deleteArtifacts",
      "outputs": [],
      "stateMutability": "nonpayable",
      "type": "function"
    },
    {
      "inputs": [
        {
          "internalType": "uint256",
          "name": "contract_idx",
          "type": "uint256"
        }
      ],
      "name": "getSettlements",
      "outputs": [
        {
          "components": [
            {
              "internalType": "string",
              "name": "extended_data",
              "type": "string"
            },
            {
              "internalType": "uint256",
              "name": "settle_due_dt",
              "type": "uint256"
            },
            {
              "internalType": "uint256",
              "name": "transact_min_dt",
              "type": "uint256"
            },
            {
              "internalType": "uint256",
              "name": "transact_max_dt",
              "type": "uint256"
            },
            {
              "internalType": "uint256",
              "name": "transact_count",
              "type": "uint256"
            },
            {
              "internalType": "uint256",
              "name": "settle_pay_dt",
              "type": "uint256"
            },
            {
              "internalType": "uint256",
              "name": "settle_exp_amt",
              "type": "uint256"
            },
            {
              "internalType": "uint256",
              "name": "settle_pay_amt",
              "type": "uint256"
            },
            {
              "internalType": "string",
              "name": "settle_confirm",
              "type": "string"
            },
            {
              "internalType": "uint256",
              "name": "dispute_amt",
              "type": "uint256"
            },
            {
              "internalType": "string",
              "name": "dispute_reason",
              "type": "string"
            },
            {
              "internalType": "uint256",
              "name": "days_late",
              "type": "uint256"
            },
            {
              "internalType": "uint256",
              "name": "late_fee_amt",
              "type": "uint256"
            },
            {
              "internalType": "uint256",
              "name": "residual_pay_dt",
              "type": "uint256"
            },
            {
              "internalType": "uint256",
              "name": "residual_pay_amt",
              "type": "uint256"
            },
            {
              "internalType": "string",
              "name": "residual_confirm",
              "type": "string"
            },
            {
              "internalType": "uint256",
              "name": "residual_exp_amt",
              "type": "uint256"
            },
            {
              "internalType": "uint256",
              "name": "residual_calc_amt",
              "type": "uint256"
            }
          ],
          "internalType": "struct Delivery.Settlement[]",
          "name": "",
          "type": "tuple[]"
        }
      ],
      "stateMutability": "view",
      "type": "function",
      "constant": true
    },
    {
      "inputs": [
        {
          "internalType": "uint256",
          "name": "contract_idx",
          "type": "uint256"
        },
        {
          "internalType": "string",
          "name": "extended_data",
          "type": "string"
        },
        {
          "internalType": "uint256",
          "name": "settle_due_dt",
          "type": "uint256"
        },
        {
          "internalType": "uint256",
          "name": "transact_min_dt",
          "type": "uint256"
        },
        {
          "internalType": "uint256",
          "name": "transact_max_dt",
          "type": "uint256"
        }
      ],
      "name": "addSettlement",
      "outputs": [],
      "stateMutability": "nonpayable",
      "type": "function"
    },
    {
      "inputs": [
        {
          "internalType": "uint256",
          "name": "contract_idx",
          "type": "uint256"
        }
      ],
      "name": "deleteSettlements",
      "outputs": [],
      "stateMutability": "nonpayable",
      "type": "function"
    },
    {
      "inputs": [
        {
          "internalType": "uint256",
          "name": "contract_idx",
          "type": "uint256"
        }
      ],
      "name": "getTransactions",
      "outputs": [
        {
          "components": [
            {
              "internalType": "string",
              "name": "extended_data",
              "type": "string"
            },
            {
              "internalType": "uint256",
              "name": "transact_dt",
              "type": "uint256"
            },
            {
              "internalType": "uint256",
              "name": "transact_amt",
              "type": "uint256"
            },
            {
              "internalType": "uint256",
              "name": "advance_amt",
              "type": "uint256"
            },
            {
              "internalType": "string",
              "name": "transact_data",
              "type": "string"
            },
            {
              "internalType": "uint256",
              "name": "advance_pay_dt",
              "type": "uint256"
            },
            {
              "internalType": "uint256",
              "name": "advance_pay_amt",
              "type": "uint256"
            },
            {
              "internalType": "string",
              "name": "advance_confirm",
              "type": "string"
            }
          ],
          "internalType": "struct Delivery.Transaction[]",
          "name": "",
          "type": "tuple[]"
        }
      ],
      "stateMutability": "view",
      "type": "function",
      "constant": true
    },
    {
      "inputs": [
        {
          "internalType": "uint256",
          "name": "contract_idx",
          "type": "uint256"
        },
        {
          "internalType": "string",
          "name": "extended_data",
          "type": "string"
        },
        {
          "internalType": "uint256",
          "name": "transact_dt",
          "type": "uint256"
        },
        {
          "internalType": "uint256",
          "name": "transact_amt",
          "type": "uint256"
        },
        {
          "internalType": "string",
          "name": "transact_data",
          "type": "string"
        }
      ],
      "name": "addTransaction",
      "outputs": [],
      "stateMutability": "nonpayable",
      "type": "function"
    },
    {
      "inputs": [
        {
          "internalType": "uint256",
          "name": "contract_idx",
          "type": "uint256"
        }
      ],
      "name": "deleteTransactions",
      "outputs": [],
      "stateMutability": "nonpayable",
      "type": "function"
    },
    {
      "inputs": [
        {
          "internalType": "uint256",
          "name": "contract_idx",
          "type": "uint256"
        },
        {
          "internalType": "uint256",
          "name": "transact_idx",
          "type": "uint256"
        },
        {
          "internalType": "uint256",
          "name": "advance_pay_dt",
          "type": "uint256"
        },
        {
          "internalType": "uint256",
          "name": "advance_pay_amt",
          "type": "uint256"
        },
        {
          "internalType": "string",
          "name": "advance_confirm",
          "type": "string"
        }
      ],
      "name": "payAdvance",
      "outputs": [],
      "stateMutability": "nonpayable",
      "type": "function"
    },
    {
      "inputs": [
        {
          "internalType": "uint256",
          "name": "contract_idx",
          "type": "uint256"
        },
        {
          "internalType": "uint256",
          "name": "settle_idx",
          "type": "uint256"
        },
        {
          "internalType": "uint256",
          "name": "settle_pay_dt",
          "type": "uint256"
        },
        {
          "internalType": "uint256",
          "name": "settle_pay_amt",
          "type": "uint256"
        },
        {
          "internalType": "string",
          "name": "settle_confirm",
          "type": "string"
        },
        {
          "internalType": "string",
          "name": "dispute_reason",
          "type": "string"
        }
      ],
      "name": "postSettlement",
      "outputs": [],
      "stateMutability": "nonpayable",
      "type": "function"
    },
    {
      "inputs": [
        {
          "internalType": "uint256",
          "name": "contract_idx",
          "type": "uint256"
        },
        {
          "internalType": "uint256",
          "name": "settle_idx",
          "type": "uint256"
        },
        {
          "internalType": "uint256",
          "name": "residual_pay_dt",
          "type": "uint256"
        },
        {
          "internalType": "uint256",
          "name": "residual_pay_amt",
          "type": "uint256"
        },
        {
          "internalType": "string",
          "name": "residual_confirm",
          "type": "string"
        }
      ],
      "name": "payResidual",
      "outputs": [],
      "stateMutability": "nonpayable",
      "type": "function"
    }
  ],
  "bytecode": "0x608060405234801561001057600080fd5b50600080546001600160a01b03191633179055613602806100326000396000f3fe608060405234801561001057600080fd5b506004361061012c5760003560e01c806375483e46116100ad578063d311341211610071578063d311341214610291578063eff23566146102b1578063f06e992d146102c4578063f633db93146102d7578063fcf45c0f146102ea5761012c565b806375483e461461022e5780638da5cb5b146102415780639399869d14610256578063a2a789291461026b578063bf2860321461027e5761012c565b80635b1ffac3116100f45780635b1ffac3146101c25780635b4e97e7146101d5578063610df22e146101e857806364da0a33146101fb5780636ebc8c861461020e5761012c565b806311ef56de146101315780633cbfb1b514610146578063447fe2891461015957806346f920fd146101825780635742177c146101a2575b600080fd5b61014461013f366004612bfd565b6102fd565b005b610144610154366004612c15565b61034a565b61016c610167366004612bfd565b61047d565b604051610179919061309e565b60405180910390f35b610195610190366004612bfd565b61062b565b6040516101799190613127565b6101b56101b0366004612bfd565b610967565b6040516101799190613271565b6101446101d0366004612eef565b610bb7565b6101446101e3366004612bfd565b611261565b6101446101f6366004612e9a565b6112c3565b610144610209366004612dce565b611407565b61022161021c366004612bfd565b6114f8565b60405161017991906133c6565b61014461023c366004612e9a565b611854565b610249611998565b6040516101799190612fc6565b61025e6119a7565b60405161017991906134a9565b610144610279366004612d29565b6119ad565b61014461028c366004612d89565b611b6a565b6102a461029f366004612bfd565b611cc2565b6040516101799190612fda565b6101446102bf366004612bc2565b611f7b565b6101446102d2366004612cab565b6120dc565b6101446102e5366004612bfd565b61252c565b6101446102f8366004612bfd565b61256d565b6000546001600160a01b031633146103305760405162461bcd60e51b815260040161032790613369565b60405180910390fd5b6000818152600460205260408120610347916125cf565b50565b6000546001600160a01b031633146103745760405162461bcd60e51b815260040161032790613369565b61037c6125f0565b604080820183905285825260608201859052608082018490526000878152600460209081529181208054600181018255908252908290208351805185946005909402909201926103d19284929091019061261f565b5060208281015180516103ea926001850192019061261f565b50604082015160028201556060820151805161041091600384019160209091019061261f565b506080820151805161042c91600484019160209091019061261f565b50505060008681526004602052604090205461044a90600190613533565b60405187907faf68d5a9ee2703c2a87bcdde7cf74ba8104700f3783a93f0d78e8f93c0c1f1c390600090a3505050505050565b606060056000838152602001908152602001600020805480602002602001604051908101604052809291908181526020016000905b8282101561061f57838290600052602060002090600302016040518060600160405290816000820180546104e59061354a565b80601f01602080910402602001604051908101604052809291908181526020018280546105119061354a565b801561055e5780601f106105335761010080835404028352916020019161055e565b820191906000526020600020905b81548152906001019060200180831161054157829003601f168201915b505050918352505060018201546001600160a01b0316602082015260028201805460409092019161058e9061354a565b80601f01602080910402602001604051908101604052809291908181526020018280546105ba9061354a565b80156106075780601f106105dc57610100808354040283529160200191610607565b820191906000526020600020905b8154815290600101906020018083116105ea57829003601f168201915b505050505081525050815260200190600101906104b2565b5050505090505b919050565b606060026000838152602001908152602001600020805480602002602001604051908101604052809291908181526020016000905b8282101561061f5783829060005260206000209060120201604051806102400160405290816000820180546106949061354a565b80601f01602080910402602001604051908101604052809291908181526020018280546106c09061354a565b801561070d5780601f106106e25761010080835404028352916020019161070d565b820191906000526020600020905b8154815290600101906020018083116106f057829003601f168201915b505050505081526020016001820154815260200160028201548152602001600382015481526020016004820154815260200160058201548152602001600682015481526020016007820154815260200160088201805461076c9061354a565b80601f01602080910402602001604051908101604052809291908181526020018280546107989061354a565b80156107e55780601f106107ba576101008083540402835291602001916107e5565b820191906000526020600020905b8154815290600101906020018083116107c857829003601f168201915b5050505050815260200160098201548152602001600a820180546108089061354a565b80601f01602080910402602001604051908101604052809291908181526020018280546108349061354a565b80156108815780601f1061085657610100808354040283529160200191610881565b820191906000526020600020905b81548152906001019060200180831161086457829003601f168201915b50505050508152602001600b8201548152602001600c8201548152602001600d8201548152602001600e8201548152602001600f820180546108c29061354a565b80601f01602080910402602001604051908101604052809291908181526020018280546108ee9061354a565b801561093b5780601f106109105761010080835404028352916020019161093b565b820191906000526020600020905b81548152906001019060200180831161091e57829003601f168201915b505050505081526020016010820154815260200160118201548152505081526020019060010190610660565b606060036000838152602001908152602001600020805480602002602001604051908101604052809291908181526020016000905b8282101561061f5783829060005260206000209060080201604051806101000160405290816000820180546109d09061354a565b80601f01602080910402602001604051908101604052809291908181526020018280546109fc9061354a565b8015610a495780601f10610a1e57610100808354040283529160200191610a49565b820191906000526020600020905b815481529060010190602001808311610a2c57829003601f168201915b50505050508152602001600182015481526020016002820154815260200160038201548152602001600482018054610a809061354a565b80601f0160208091040260200160405190810160405280929190818152602001828054610aac9061354a565b8015610af95780601f10610ace57610100808354040283529160200191610af9565b820191906000526020600020905b815481529060010190602001808311610adc57829003601f168201915b505050505081526020016005820154815260200160068201548152602001600782018054610b269061354a565b80601f0160208091040260200160405190810160405280929190818152602001828054610b529061354a565b8015610b9f5780601f10610b7457610100808354040283529160200191610b9f565b820191906000526020600020905b815481529060010190602001808311610b8257829003601f168201915b5050505050815250508152602001906001019061099c565b6000546001600160a01b03163314610be15760405162461bcd60e51b815260040161032790613369565b6000868152600260205260409020805485919087908110610c1257634e487b7160e01b600052603260045260246000fd5b90600052602060002090601202016005018190555082600260008881526020019081526020016000208681548110610c5a57634e487b7160e01b600052603260045260246000fd5b90600052602060002090601202016007018190555081600260008881526020019081526020016000208681548110610ca257634e487b7160e01b600052603260045260246000fd5b90600052602060002090601202016008019080519060200190610cc692919061261f565b506000868152600260205260409020805486908110610cf557634e487b7160e01b600052603260045260246000fd5b906000526020600020906012020160010154841115610efc576018603c80600260008a81526020019081526020016000208881548110610d4557634e487b7160e01b600052603260045260246000fd5b90600052602060002090601202016001015487610d629190613533565b610d6c91906134f4565b610d7691906134f4565b610d8091906134f4565b6000878152600260205260409020805487908110610dae57634e487b7160e01b600052603260045260246000fd5b9060005260206000209060120201600b0181905550633b9aca00600260008881526020019081526020016000208681548110610dfa57634e487b7160e01b600052603260045260246000fd5b90600052602060002090601202016006015461016d60018981548110610e3057634e487b7160e01b600052603260045260246000fd5b90600052602060002090600a020160070154620186a0610e509190613514565b610e5a91906134f4565b6000898152600260205260409020805489908110610e8857634e487b7160e01b600052603260045260246000fd5b9060005260206000209060120201600b0154610ea49190613514565b610eae9190613514565b610eb891906134f4565b6000878152600260205260409020805487908110610ee657634e487b7160e01b600052603260045260246000fd5b9060005260206000209060120201600c01819055505b6000868152600260205260409020805486908110610f2a57634e487b7160e01b600052603260045260246000fd5b90600052602060002090601202016010015483101561102a576000868152600260205260409020805486908110610f7157634e487b7160e01b600052603260045260246000fd5b90600052602060002090601202016010015483610f8e9190613533565b6000878152600260205260409020805487908110610fbc57634e487b7160e01b600052603260045260246000fd5b9060005260206000209060120201600901819055508060026000888152602001908152602001600020868154811061100457634e487b7160e01b600052603260045260246000fd5b9060005260206000209060120201600a01908051906020019061102892919061261f565b505b600086815260026020526040812080548790811061105857634e487b7160e01b600052603260045260246000fd5b90600052602060002090601202016009015460026000898152602001908152602001600020878154811061109c57634e487b7160e01b600052603260045260246000fd5b9060005260206000209060120201600c0154600260008a815260200190815260200160002088815481106110e057634e487b7160e01b600052603260045260246000fd5b9060005260206000209060120201601001546110fc9190613533565b6111069190613533565b111561122c57600086815260026020526040902080548690811061113a57634e487b7160e01b600052603260045260246000fd5b90600052602060002090601202016009015460026000888152602001908152602001600020868154811061117e57634e487b7160e01b600052603260045260246000fd5b9060005260206000209060120201600c01546002600089815260200190815260200160002087815481106111c257634e487b7160e01b600052603260045260246000fd5b9060005260206000209060120201601001546111de9190613533565b6111e89190613533565b600087815260026020526040902080548790811061121657634e487b7160e01b600052603260045260246000fd5b9060005260206000209060120201601101819055505b604051859087907fdb8dfacbe40a34c0dff0b240c96463a24f726a750217da7fc2d367a967e815b090600090a3505050505050565b6000546001600160a01b0316331461128b5760405162461bcd60e51b815260040161032790613369565b60015481106112ac5760405162461bcd60e51b815260040161032790613339565b6000818152600260205260408120610347916126a3565b6000546001600160a01b031633146112ed5760405162461bcd60e51b815260040161032790613369565b600085815260026020526040902080548491908690811061131e57634e487b7160e01b600052603260045260246000fd5b9060005260206000209060120201600d01819055508160026000878152602001908152602001600020858154811061136657634e487b7160e01b600052603260045260246000fd5b9060005260206000209060120201600e0181905550806002600087815260200190815260200160002085815481106113ae57634e487b7160e01b600052603260045260246000fd5b9060005260206000209060120201600f0190805190602001906113d292919061261f565b50604051849086907f7929c954daef6a710aa03e6698979bdefbfec7b56dbf98ee261ba830b60f444b90600090a35050505050565b6000546001600160a01b031633146114315760405162461bcd60e51b815260040161032790613369565b600082815260056020908152604082208054600181018255908352918190208351805185946003029092019261146c9284929091019061261f565b506020828101516001830180546001600160a01b0319166001600160a01b03909216919091179055604083015180516114ab926002850192019061261f565b5050506000828152600560205260409020546114c990600190613533565b60405183907f642c3281795357c858cbc5aa817d7c83329d1b88854c78de9c24a37cf89703d790600090a35050565b6115006126c4565b6001828154811061152157634e487b7160e01b600052603260045260246000fd5b90600052602060002090600a02016040518061014001604052908160008201805461154b9061354a565b80601f01602080910402602001604051908101604052809291908181526020018280546115779061354a565b80156115c45780601f10611599576101008083540402835291602001916115c4565b820191906000526020600020905b8154815290600101906020018083116115a757829003601f168201915b505050505081526020016001820180546115dd9061354a565b80601f01602080910402602001604051908101604052809291908181526020018280546116099061354a565b80156116565780601f1061162b57610100808354040283529160200191611656565b820191906000526020600020905b81548152906001019060200180831161163957829003601f168201915b5050505050815260200160028201805461166f9061354a565b80601f016020809104026020016040519081016040528092919081815260200182805461169b9061354a565b80156116e85780601f106116bd576101008083540402835291602001916116e8565b820191906000526020600020905b8154815290600101906020018083116116cb57829003601f168201915b505050505081526020016003820180546117019061354a565b80601f016020809104026020016040519081016040528092919081815260200182805461172d9061354a565b801561177a5780601f1061174f5761010080835404028352916020019161177a565b820191906000526020600020905b81548152906001019060200180831161175d57829003601f168201915b50505050508152602001600482015481526020016005820154815260200160068201548152602001600782015481526020016008820180546117bb9061354a565b80601f01602080910402602001604051908101604052809291908181526020018280546117e79061354a565b80156118345780601f1061180957610100808354040283529160200191611834565b820191906000526020600020905b81548152906001019060200180831161181757829003601f168201915b50505091835250506009919091015460ff16151560209091015292915050565b6000546001600160a01b0316331461187e5760405162461bcd60e51b815260040161032790613369565b60008581526003602052604090208054849190869081106118af57634e487b7160e01b600052603260045260246000fd5b906000526020600020906008020160050181905550816003600087815260200190815260200160002085815481106118f757634e487b7160e01b600052603260045260246000fd5b9060005260206000209060080201600601819055508060036000878152602001908152602001600020858154811061193f57634e487b7160e01b600052603260045260246000fd5b9060005260206000209060080201600701908051906020019061196392919061261f565b50604051849086907f16e8ade13d35dae069c2f8331054adb6e19dc017359fb7320f0525b14610abe390600090a35050505050565b6000546001600160a01b031681565b60015490565b6000546001600160a01b031633146119d75760405162461bcd60e51b815260040161032790613369565b6119df612719565b6020808201859052604080830185905260608301849052868352600088815260028352908120805460018101825590825290829020835180518594601290940290920192611a329284929091019061261f565b50602082810151600183015560408301516002830155606083015160038301556080830151600483015560a0830151600583015560c0830151600683015560e083015160078301556101008301518051611a92926008850192019061261f565b5061012082015160098201556101408201518051611aba91600a84019160209091019061261f565b50610160820151600b820155610180820151600c8201556101a0820151600d8201556101c0820151600e8201556101e08201518051611b0391600f84019160209091019061261f565b50610200820151601082015561022090910151601190910155600086815260026020526040902054611b3790600190613533565b60405187907f619d28e2ba9cff33c9f9ae92d173352dcd8538835181c81cc2499e2e05b4c5e490600090a3505050505050565b6000546001600160a01b03163314611b945760405162461bcd60e51b815260040161032790613369565b8060018381548110611bb657634e487b7160e01b600052603260045260246000fd5b90600052602060002090600a02016000820151816000019080519060200190611be092919061261f565b506020828101518051611bf9926001850192019061261f565b5060408201518051611c1591600284019160209091019061261f565b5060608201518051611c3191600384019160209091019061261f565b506080820151600482015560a0820151600582015560c0820151600682015560e082015160078201556101008201518051611c7691600884019160209091019061261f565b5061012091909101516009909101805460ff191691151591909117905560405182907f1d9fa56a87ca45734eb083fa91790c0e4ca990f9e3587510a93bd2a6405da10090600090a25050565b606060046000838152602001908152602001600020805480602002602001604051908101604052809291908181526020016000905b8282101561061f57838290600052602060002090600502016040518060a0016040529081600082018054611d2a9061354a565b80601f0160208091040260200160405190810160405280929190818152602001828054611d569061354a565b8015611da35780601f10611d7857610100808354040283529160200191611da3565b820191906000526020600020905b815481529060010190602001808311611d8657829003601f168201915b50505050508152602001600182018054611dbc9061354a565b80601f0160208091040260200160405190810160405280929190818152602001828054611de89061354a565b8015611e355780601f10611e0a57610100808354040283529160200191611e35565b820191906000526020600020905b815481529060010190602001808311611e1857829003601f168201915b5050505050815260200160028201548152602001600382018054611e589061354a565b80601f0160208091040260200160405190810160405280929190818152602001828054611e849061354a565b8015611ed15780601f10611ea657610100808354040283529160200191611ed1565b820191906000526020600020905b815481529060010190602001808311611eb457829003601f168201915b50505050508152602001600482018054611eea9061354a565b80601f0160208091040260200160405190810160405280929190818152602001828054611f169061354a565b8015611f635780601f10611f3857610100808354040283529160200191611f63565b820191906000526020600020905b815481529060010190602001808311611f4657829003601f168201915b50505050508152505081526020019060010190611cf7565b6000546001600160a01b03163314611fa55760405162461bcd60e51b815260040161032790613369565b600180548082018255600091909152815180518392600a027fb10e2d527612073b26eecdfd717e6a320cf44b4afac2b0732d9fcbe2b7fa0cf60191611fef9183916020019061261f565b506020828101518051612008926001850192019061261f565b506040820151805161202491600284019160209091019061261f565b506060820151805161204091600384019160209091019061261f565b506080820151600482015560a0820151600582015560c0820151600682015560e08201516007820155610100820151805161208591600884019160209091019061261f565b5061012091909101516009909101805460ff1916911515919091179055600180546120b09190613533565b6040517fac210b01e42cafdce02d0cd5dc41f3fe6a7245262f52a1cdf2a2eea60dada94090600090a250565b6000546001600160a01b031633146121065760405162461bcd60e51b815260040161032790613369565b61210e6127a4565b84815260208101849052604081018390526080810182905260005b60008781526002602052604090205481101561233857600087815260026020526040902080548290811061216d57634e487b7160e01b600052603260045260246000fd5b90600052602060002090601202016002015485101580156121cc575060008781526002602052604090208054829081106121b757634e487b7160e01b600052603260045260246000fd5b90600052602060002090601202016003015485105b156123265760008781526002602052604090208054829081106121ff57634e487b7160e01b600052603260045260246000fd5b60009182526020822060046012909202010180549161221d83613585565b9091555050604080830151600089815260026020529190912080548390811061225657634e487b7160e01b600052603260045260246000fd5b9060005260206000209060120201600601600082825461227691906134dc565b92505081905550612710600188815481106122a157634e487b7160e01b600052603260045260246000fd5b90600052602060002090600a020160060154856122be9190613514565b6122c891906134f4565b6122d29085613533565b600088815260026020526040902080548390811061230057634e487b7160e01b600052603260045260246000fd5b9060005260206000209060120201601001600082825461232091906134dc565b90915550505b8061233081613585565b915050612129565b5060006001878154811061235c57634e487b7160e01b600052603260045260246000fd5b90600052602060002090600a0201600501546127108560018a8154811061239357634e487b7160e01b600052603260045260246000fd5b90600052602060002090600a0201600401546123af9190613514565b6123b991906134f4565b6123c391906134dc565b90506000612710600189815481106123eb57634e487b7160e01b600052603260045260246000fd5b90600052602060002090600a020160060154866124089190613514565b61241291906134f4565b905081811061242f576124258282613533565b6060840152612437565b600060608401525b60008881526003602090815260408220805460018101825590835291819020855180518794600802909201926124729284929091019061261f565b5060208281015160018301556040830151600283015560608301516003830155608083015180516124a9926004850192019061261f565b5060a0820151600582015560c0820151600682015560e082015180516124d991600784019160209091019061261f565b5050506000888152600360205260409020546124f790600190613533565b60405189907f3e8e23c97d0d7bdf58a8c0b86dd5f225d5bf51de564f91e7b100bfb6c335994090600090a35050505050505050565b6000546001600160a01b031633146125565760405162461bcd60e51b815260040161032790613369565b6000818152600560205260408120610347916127e9565b6000546001600160a01b031633146125975760405162461bcd60e51b815260040161032790613369565b60015481106125b85760405162461bcd60e51b815260040161032790613339565b60008181526003602052604081206103479161280a565b5080546000825560050290600052602060002090810190610347919061282b565b6040518060a0016040528060608152602001606081526020016000815260200160608152602001606081525090565b82805461262b9061354a565b90600052602060002090601f01602090048101928261264d5760008555612693565b82601f1061266657805160ff1916838001178555612693565b82800160010185558215612693579182015b82811115612693578251825591602001919060010190612678565b5061269f92915061287c565b5090565b50805460008255601202906000526020600020908101906103479190612891565b6040518061014001604052806060815260200160608152602001606081526020016060815260200160008152602001600081526020016000815260200160008152602001606081526020016000151581525090565b6040518061024001604052806060815260200160008152602001600081526020016000815260200160008152602001600081526020016000815260200160008152602001606081526020016000815260200160608152602001600081526020016000815260200160008152602001600081526020016060815260200160008152602001600081525090565b60405180610100016040528060608152602001600081526020016000815260200160008152602001606081526020016000815260200160008152602001606081525090565b5080546000825560030290600052602060002090810190610347919061294c565b50805460008255600802906000526020600020908101906103479190612989565b8082111561269f57600061283f82826129ee565b61284d6001830160006129ee565b600282016000905560038201600061286591906129ee565b6128736004830160006129ee565b5060050161282b565b5b8082111561269f576000815560010161287d565b8082111561269f5760006128a582826129ee565b60018201600090556002820160009055600382016000905560048201600090556005820160009055600682016000905560078201600090556008820160006128ed91906129ee565b6009820160009055600a8201600061290591906129ee565b600b820160009055600c820160009055600d820160009055600e820160009055600f8201600061293591906129ee565b506000601082018190556011820155601201612891565b8082111561269f57600061296082826129ee565b6001820180546001600160a01b03191690556129806002830160006129ee565b5060030161294c565b8082111561269f57600061299d82826129ee565b6001820160009055600282016000905560038201600090556004820160006129c591906129ee565b600582016000905560068201600090556007820160006129e591906129ee565b50600801612989565b5080546129fa9061354a565b6000825580601f10612a0c5750610347565b601f016020900490600052602060002090810190610347919061287c565b8035801515811461062657600080fd5b600082601f830112612a4a578081fd5b813567ffffffffffffffff811115612a6457612a646135b6565b612a77601f8201601f19166020016134b2565b818152846020838601011115612a8b578283fd5b816020850160208301379081016020019190915292915050565b6000610140808385031215612ab8578182fd5b612ac1816134b2565b915050813567ffffffffffffffff80821115612adc57600080fd5b612ae885838601612a3a565b83526020840135915080821115612afe57600080fd5b612b0a85838601612a3a565b60208401526040840135915080821115612b2357600080fd5b612b2f85838601612a3a565b60408401526060840135915080821115612b4857600080fd5b612b5485838601612a3a565b60608401526080840135608084015260a084013560a084015260c084013560c084015260e084013560e084015261010091508184013581811115612b9757600080fd5b612ba386828701612a3a565b83850152505050610120612bb8818401612a2a565b9082015292915050565b600060208284031215612bd3578081fd5b813567ffffffffffffffff811115612be9578182fd5b612bf584828501612aa5565b949350505050565b600060208284031215612c0e578081fd5b5035919050565b600080600080600060a08688031215612c2c578081fd5b85359450602086013567ffffffffffffffff80821115612c4a578283fd5b612c5689838a01612a3a565b95506040880135915080821115612c6b578283fd5b612c7789838a01612a3a565b94506060880135915080821115612c8c578283fd5b50612c9988828901612a3a565b95989497509295608001359392505050565b600080600080600060a08688031215612cc2578081fd5b85359450602086013567ffffffffffffffff80821115612ce0578283fd5b612cec89838a01612a3a565b955060408801359450606088013593506080880135915080821115612d0f578283fd5b50612d1c88828901612a3a565b9150509295509295909350565b600080600080600060a08688031215612d40578081fd5b85359450602086013567ffffffffffffffff811115612d5d578182fd5b612d6988828901612a3a565b959895975050505060408401359360608101359360809091013592509050565b60008060408385031215612d9b578182fd5b82359150602083013567ffffffffffffffff811115612db8578182fd5b612dc485828601612aa5565b9150509250929050565b60008060408385031215612de0578182fd5b82359150602083013567ffffffffffffffff80821115612dfe578283fd5b9084019060608287031215612e11578283fd5b604051606081018181108382111715612e2c57612e2c6135b6565b604052823582811115612e3d578485fd5b612e4988828601612a3a565b82525060208301356001600160a01b0381168114612e65578485fd5b6020820152604083013582811115612e7b578485fd5b612e8788828601612a3a565b6040830152508093505050509250929050565b600080600080600060a08688031215612eb1578081fd5b85359450602086013593506040860135925060608601359150608086013567ffffffffffffffff811115612ee3578182fd5b612d1c88828901612a3a565b60008060008060008060c08789031215612f07578081fd5b86359550602087013594506040870135935060608701359250608087013567ffffffffffffffff80821115612f3a578283fd5b612f468a838b01612a3a565b935060a0890135915080821115612f5b578283fd5b50612f6889828a01612a3a565b9150509295509295509295565b15159052565b60008151808452815b81811015612fa057602081850181015186830182015201612f84565b81811115612fb15782602083870101525b50601f01601f19169290920160200192915050565b6001600160a01b0391909116815260200190565b60208082528251828201819052600091906040908185019080840286018301878501865b8381101561309057603f19898403018552815160a0815181865261302482870182612f7b565b915050888201518582038a87015261303c8282612f7b565b91505087820151888601526060808301518683038288015261305e8382612f7b565b925050506080808301519250858203818701525061307c8183612f7b565b968901969450505090860190600101612ffe565b509098975050505050505050565b60208082528251828201819052600091906040908185019080840286018301878501865b8381101561309057603f198984030185528151606081518186526130e882870182612f7b565b838b01516001600160a01b0316878c0152928901518684038a88015292915061311390508183612f7b565b9689019694505050908601906001016130c2565b60208082528251828201819052600091906040908185019080840286018301878501865b8381101561309057603f198984030185528151610240815181865261317282870182612f7b565b838b0151878c0152898401518a880152606080850151908801526080808501519088015260a0808501519088015260c0808501519088015260e0808501519088015261010080850151888303828a015291935091506131d18382612f7b565b9250505061012080830151818701525061014080830151868303828801526131f98382612f7b565b610160858101519089015261018080860151908901526101a080860151908901526101c080860151908901526101e080860151898303828b0152919450925090506132448382612f7b565b6102008581015190890152610220948501519490970193909352505050938601939086019060010161314b565b60208082528251828201819052600091906040908185019080840286018301878501865b8381101561309057603f19898403018552815161010081518186526132bc82870182612f7b565b915050888201518986015287820151888601526060808301518187015250608080830151868303828801526132f18382612f7b565b9250505060a080830151818701525060c080830151818701525060e080830151925085820381870152506133258183612f7b565b968901969450505090860190600101613295565b602080825260169082015275092dcecc2d8d2c840c6dedce8e4c2c6e840d2dcc8caf60531b604082015260600190565b60208082526039908201527f4163636573732064656e6965642c206f6e6c7920636f6e7472616374206f776e60408201527f65722063616e2063616c6c20746869732066756e6374696f6e00000000000000606082015260800190565b60006020825282516101408060208501526133e5610160850183612f7b565b91506020850151601f19808685030160408701526134038483612f7b565b935060408701519150808685030160608701526134208483612f7b565b9350606087015191508086850301608087015261343d8483612f7b565b9350608087015160a087015260a087015160c087015260c087015160e087015260e087015191506101008281880152808801519250506101208187860301818801526134898584612f7b565b9450808801519250505061349f82860182612f75565b5090949350505050565b90815260200190565b60405181810167ffffffffffffffff811182821017156134d4576134d46135b6565b604052919050565b600082198211156134ef576134ef6135a0565b500190565b60008261350f57634e487b7160e01b81526012600452602481fd5b500490565b600081600019048311821515161561352e5761352e6135a0565b500290565b600082821015613545576135456135a0565b500390565b60028104600182168061355e57607f821691505b6020821081141561357f57634e487b7160e01b600052602260045260246000fd5b50919050565b6000600019821415613599576135996135a0565b5060010190565b634e487b7160e01b600052601160045260246000fd5b634e487b7160e01b600052604160045260246000fdfea2646970667358221220c0307aded99d365bfdb4cb88ade55cb437175be4029b727ca53d34d0fc1f213164736f6c63430008000033",
  "immutableReferences": {},
  "source": "// SPDX-License-Identifier: MIT\npragma solidity ^0.8.0;\n\ncontract Delivery {\n\n    address public owner;\n    \n    Contract[] contracts;                                   // [contract_idx]\n    mapping (uint => Settlement[]) private settlements;     // contract_idx => settlement[]\n    mapping (uint => Transaction[]) private transactions;   // contract_idx => transaction[]\n    mapping (uint => Artifact[]) private artifacts;         // contract_idx => artifact_list[]\n    mapping (uint => Party[]) private parties;              // contract_idx => party[]\n\n    // every field ending in _dt is a unix timestamp\n    // every field ending in _amt is an integer representing a float with 2 decimals\n    // every field ending in _pct is an integer represending a float value with 4 decimals \n    // every field ending in _confirm is a string returned from the fiat payment provider\n\n    struct Contract {\n        string extended_data;           // json extended data\n        string contract_name;           // description for display purposes\n        string contract_type;           // the type of contract, e.g. ticketing, construction\n        string funding_instr;           // buyer funding instructions\n        uint service_fee_pct;           // service fee can include a pct + flat rate amt\n        uint service_fee_amt;           // flat rate amt\n        uint advance_pct;               // amount of money that will be advanced to seller for every transaction\n        uint late_fee_pct;              // an APR, daily rate calculated as late_fee_pct / 365\n        string transact_logic;          // jsonlogic formula for calculating transaction amount\n        bool is_active;                 // instead of deleting, clear this flag to False\n    }    \n\n    struct Settlement {\n        string extended_data;           // json extended data\n        uint settle_due_dt;             // date the payment is due \n        uint transact_min_dt;           // min date the transaction is made \n        uint transact_max_dt;           // max date the transaction is made \n        uint transact_count; \n        uint settle_pay_dt;\n        uint settle_exp_amt;            // expected amount of settlement\n        uint settle_pay_amt;            // actual amount paid from the buyer\n        string settle_confirm;\n        uint dispute_amt;               // if expected  < actual, assume there was a dispute\n        string dispute_reason;\n        uint days_late; \n        uint late_fee_amt;              // amount of the late fee, will be taken out of the residual\n        uint residual_pay_dt;\n        uint residual_pay_amt;          // will equal residual_calc_amt after payment intitiated\n        string residual_confirm;\n        uint residual_exp_amt;          // expected amount of the residual\n        uint residual_calc_amt;         // what the actual residual will be (exp - late_fee - dispute)\n    }\n\n    struct Transaction {\n        string extended_data;           // json extended data\n        uint transact_dt;               \n        uint transact_amt;              // calculated value of a transaction of transaction\n        uint advance_amt;               // advance_amt * advance_pct - service_fee_amt\n        string transact_data;           // data regarding transaction for jsonlogic    \n        uint advance_pay_dt;            // paymet of advance\n        uint advance_pay_amt;           // will equal advance amt after payment initiated\n        string advance_confirm;\n    }\n\n    struct Artifact {\n        string artifact_id;             // external identifier\n        string extended_data;           // json extended data\n        uint added_dt;                  // date artifact was added\n        string doc_title;               // name of documents\n        string doc_type;                // document type\n    }\n\n    struct Party {\n        string party_code;              // code associated with a party\n        address party_address;          // wallet address\n        string party_type;              // the type of party associated with contract\n    }\n\n    event ContractAdded(uint indexed contract_idx);\n    event ContractUpdated(uint indexed contract_idx);\n    event PartyAdded(uint indexed contract_idx, uint indexed party_idx);\n    event TransactionAdded(uint indexed contract_idx, uint indexed transact_idx);\n    event ArtifactAdded(uint indexed contract_idx, uint indexed artifact_idx);\n    event SettlementAdded(uint indexed contract_idx, uint indexed settle_idx);\n    event AdvancePaid(uint indexed contract_idx, uint indexed transact_idx);\n    event SettlementPosted(uint indexed contract_idx, uint indexed settle_idx);\n    event ResidualPaid(uint indexed contract_idx, uint indexed settle_idx);\n\n    constructor() {\n        owner = msg.sender;\n    }\n\n    modifier onlyOwner() {\n        require(msg.sender == owner, \"Access denied, only contract owner can call this function\");\n        _;\n    }\n\n    function getContractCount() public view returns (uint) {\n        return contracts.length;\n    }\n\n    function getContract(uint contract_idx) public view returns (Contract memory) {\n        return contracts[contract_idx];\n    }\n\n    function addContract (Contract memory contract_) public onlyOwner {\n        contracts.push(contract_);\n        emit ContractAdded(contracts.length - 1);\n    }\n\n    function updateContract (uint contract_idx, Contract memory contract_) public onlyOwner {\n        contracts[contract_idx] = contract_;\n        emit ContractUpdated(contract_idx);\n    }\n\n    function getParties(uint contract_idx) public view returns (Party[] memory) {\n        return parties[contract_idx];\n    }\n\n    function addParty(uint contract_idx, Party memory party_code) public onlyOwner {\n        parties[contract_idx].push(party_code);\n        emit PartyAdded(contract_idx, parties[contract_idx].length - 1);\n    }\n\n    function deleteParties(uint contract_idx) public onlyOwner {\n        delete parties[contract_idx];\n    }\n\n    function getArtifacts (uint contract_idx) public view returns (Artifact[] memory) {\n        return artifacts[contract_idx];\n    }\n\n    function addArtifact (uint contract_idx, string memory artifact_id, string memory doc_title, string memory doc_type, uint added_dt) public onlyOwner {\n        Artifact memory artifact;\n        artifact.added_dt = added_dt;\n        artifact.artifact_id = artifact_id;\n        artifact.doc_title = doc_title;\n        artifact.doc_type = doc_type; \n        artifacts[contract_idx].push(artifact);\n        emit ArtifactAdded(contract_idx, artifacts[contract_idx].length - 1);\n    }\n\n    function deleteArtifacts(uint contract_idx) public onlyOwner {\n        delete artifacts[contract_idx];\n    }\n\n    function getSettlements(uint contract_idx) public view returns (Settlement[] memory) {\n        return settlements[contract_idx];\n    }\n\n    function addSettlement(uint contract_idx, string memory extended_data, uint settle_due_dt, uint transact_min_dt, uint transact_max_dt) public onlyOwner {\n        Settlement memory settlement;\n        settlement.settle_due_dt = settle_due_dt;\n        settlement.transact_min_dt = transact_min_dt;\n        settlement.transact_max_dt = transact_max_dt;\n        settlement.extended_data = extended_data;\n        settlements[contract_idx].push(settlement);\n        emit SettlementAdded(contract_idx, settlements[contract_idx].length - 1);\n    }\n\n    function deleteSettlements(uint contract_idx) public onlyOwner {\n        require (contract_idx < contracts.length, \"Invalid contract index\");\n        delete settlements[contract_idx];\n    }\n\n    function getTransactions(uint contract_idx) public view returns (Transaction[] memory) {\n        return transactions[contract_idx];\n    }\n\n    function addTransaction(uint contract_idx, string memory extended_data, uint transact_dt, uint transact_amt, string memory transact_data) public onlyOwner {\n\n        Transaction memory transact;\n        transact.extended_data = extended_data;\n        transact.transact_dt = transact_dt;\n        transact.transact_amt = transact_amt;\n        transact.transact_data = transact_data;\n\n        for (uint i = 0; i < settlements[contract_idx].length; i++) {\n            if (transact_dt >= settlements[contract_idx][i].transact_min_dt && transact_dt < settlements[contract_idx][i].transact_max_dt) {\n                settlements[contract_idx][i].transact_count++;\n                settlements[contract_idx][i].settle_exp_amt += transact.transact_amt;\n                settlements[contract_idx][i].residual_exp_amt += transact_amt - (transact_amt * contracts[contract_idx].advance_pct / 10000);\n            }\n        }\n\n        uint service_fee = (contracts[contract_idx].service_fee_pct * transact_amt / 10000) + contracts[contract_idx].service_fee_amt;\n        uint advance_amt_calculated = (transact_amt * contracts[contract_idx].advance_pct / 10000);\n    \n        // case where the service fee > advance amt\n        if (advance_amt_calculated >= service_fee) {\n            transact.advance_amt = advance_amt_calculated - service_fee;\n        }    else {\n                transact.advance_amt = 0;\n        }\n    \n        transactions[contract_idx].push(transact);\n        emit TransactionAdded(contract_idx, transactions[contract_idx].length - 1);\n    }\n\n    function deleteTransactions(uint contract_idx) public onlyOwner {\n        require (contract_idx < contracts.length, \"Invalid contract index\");\n        delete transactions[contract_idx];\n    }\n\n    function payAdvance(uint contract_idx, uint transact_idx, uint advance_pay_dt, uint advance_pay_amt, string memory advance_confirm) public onlyOwner {\n        transactions[contract_idx][transact_idx].advance_pay_dt = advance_pay_dt;\n        transactions[contract_idx][transact_idx].advance_pay_amt = advance_pay_amt;\n        transactions[contract_idx][transact_idx].advance_confirm = advance_confirm;\n        emit AdvancePaid(contract_idx, transact_idx);\n    }\n\n    function postSettlement(uint contract_idx, uint settle_idx, uint settle_pay_dt, uint settle_pay_amt, string memory settle_confirm, string memory dispute_reason) public onlyOwner {\n        settlements[contract_idx][settle_idx].settle_pay_dt = settle_pay_dt;\n        settlements[contract_idx][settle_idx].settle_pay_amt = settle_pay_amt;\n        settlements[contract_idx][settle_idx].settle_confirm = settle_confirm;\n\n        if (settle_pay_dt > settlements[contract_idx][settle_idx].settle_due_dt) {\n            settlements[contract_idx][settle_idx].days_late = (settle_pay_dt - settlements[contract_idx][settle_idx].settle_due_dt) / 60 / 60 / 24;\n            settlements[contract_idx][settle_idx].late_fee_amt = (settlements[contract_idx][settle_idx].days_late * \n                ((contracts[contract_idx].late_fee_pct * 100000) / 365) * settlements[contract_idx][settle_idx].settle_exp_amt) / 1000000000;\n        }\n\n        if (settle_pay_amt < settlements[contract_idx][settle_idx].residual_exp_amt) {\n            settlements[contract_idx][settle_idx].dispute_amt = settle_pay_amt - settlements[contract_idx][settle_idx].residual_exp_amt;\n            settlements[contract_idx][settle_idx].dispute_reason = dispute_reason;\n        } \n        \n        if ((settlements[contract_idx][settle_idx].residual_exp_amt - settlements[contract_idx][settle_idx].late_fee_amt - settlements[contract_idx][settle_idx].dispute_amt) > 0) {\n            settlements[contract_idx][settle_idx].residual_calc_amt = settlements[contract_idx][settle_idx].residual_exp_amt - settlements[contract_idx][settle_idx].late_fee_amt -\n                settlements[contract_idx][settle_idx].dispute_amt;\n        } \n        emit SettlementPosted(contract_idx, settle_idx);\n    }\n\n    function payResidual(uint contract_idx, uint settle_idx, uint residual_pay_dt, uint residual_pay_amt, string memory residual_confirm) public onlyOwner {\n        settlements[contract_idx][settle_idx].residual_pay_dt = residual_pay_dt;\n        settlements[contract_idx][settle_idx].residual_pay_amt = residual_pay_amt;\n        settlements[contract_idx][settle_idx].residual_confirm = residual_confirm;\n        emit ResidualPaid(contract_idx, settle_idx);\n    }\n}",
  "sourcePath": "/Users/davidnichamoff/Projects/FIZIT_DEV/truffle/contracts/Delivery.sol",
  "compiler": {
    "name": "solc",
    "version": "0.8.0+commit.c7dfd78e.Emscripten.clang"
  },
  "schemaVersion": "3.4.16",
  "updatedAt": "2024-06-19T14:11:32.302Z",
  "networkType": "ethereum",
  "devdoc": {
    "kind": "dev",
    "methods": {},
    "version": 1
  },
  "userdoc": {
    "kind": "user",
    "methods": {},
    "version": 1
  }
}