{
  "contractName": "Delivery",
  "abi": [
    {
      "inputs": [],
      "stateMutability": "nonpayable",
      "type": "constructor"
    },
    {
      "anonymous": false,
      "inputs": [
        {
          "indexed": true,
          "internalType": "uint256",
          "name": "contract_idx",
          "type": "uint256"
        },
        {
          "indexed": false,
          "internalType": "string",
          "name": "eventType",
          "type": "string"
        },
        {
          "indexed": false,
          "internalType": "string",
          "name": "details",
          "type": "string"
        }
      ],
      "name": "ContractEvent",
      "type": "event"
    },
    {
      "inputs": [],
      "name": "owner",
      "outputs": [
        {
          "internalType": "address",
          "name": "",
          "type": "address"
        }
      ],
      "stateMutability": "view",
      "type": "function",
      "constant": true
    },
    {
      "inputs": [],
      "name": "getContractCount",
      "outputs": [
        {
          "internalType": "uint256",
          "name": "",
          "type": "uint256"
        }
      ],
      "stateMutability": "view",
      "type": "function",
      "constant": true
    },
    {
      "inputs": [
        {
          "internalType": "uint256",
          "name": "contract_idx",
          "type": "uint256"
        }
      ],
      "name": "getContract",
      "outputs": [
        {
          "components": [
            {
              "internalType": "string",
              "name": "extended_data",
              "type": "string"
            },
            {
              "internalType": "string",
              "name": "contract_name",
              "type": "string"
            },
            {
              "internalType": "string",
              "name": "contract_type",
              "type": "string"
            },
            {
              "internalType": "string",
              "name": "funding_instr",
              "type": "string"
            },
            {
              "internalType": "uint256",
              "name": "service_fee_pct",
              "type": "uint256"
            },
            {
              "internalType": "uint256",
              "name": "service_fee_max",
              "type": "uint256"
            },
            {
              "internalType": "uint256",
              "name": "service_fee_amt",
              "type": "uint256"
            },
            {
              "internalType": "uint256",
              "name": "advance_pct",
              "type": "uint256"
            },
            {
              "internalType": "uint256",
              "name": "late_fee_pct",
              "type": "uint256"
            },
            {
              "internalType": "string",
              "name": "transact_logic",
              "type": "string"
            },
            {
              "internalType": "string",
              "name": "notes",
              "type": "string"
            },
            {
              "internalType": "bool",
              "name": "is_active",
              "type": "bool"
            },
            {
              "internalType": "bool",
              "name": "is_quote",
              "type": "bool"
            }
          ],
          "internalType": "struct Delivery.Contract",
          "name": "",
          "type": "tuple"
        }
      ],
      "stateMutability": "view",
      "type": "function",
      "constant": true
    },
    {
      "inputs": [
        {
          "components": [
            {
              "internalType": "string",
              "name": "extended_data",
              "type": "string"
            },
            {
              "internalType": "string",
              "name": "contract_name",
              "type": "string"
            },
            {
              "internalType": "string",
              "name": "contract_type",
              "type": "string"
            },
            {
              "internalType": "string",
              "name": "funding_instr",
              "type": "string"
            },
            {
              "internalType": "uint256",
              "name": "service_fee_pct",
              "type": "uint256"
            },
            {
              "internalType": "uint256",
              "name": "service_fee_max",
              "type": "uint256"
            },
            {
              "internalType": "uint256",
              "name": "service_fee_amt",
              "type": "uint256"
            },
            {
              "internalType": "uint256",
              "name": "advance_pct",
              "type": "uint256"
            },
            {
              "internalType": "uint256",
              "name": "late_fee_pct",
              "type": "uint256"
            },
            {
              "internalType": "string",
              "name": "transact_logic",
              "type": "string"
            },
            {
              "internalType": "string",
              "name": "notes",
              "type": "string"
            },
            {
              "internalType": "bool",
              "name": "is_active",
              "type": "bool"
            },
            {
              "internalType": "bool",
              "name": "is_quote",
              "type": "bool"
            }
          ],
          "internalType": "struct Delivery.Contract",
          "name": "contract_",
          "type": "tuple"
        }
      ],
      "name": "addContract",
      "outputs": [],
      "stateMutability": "nonpayable",
      "type": "function"
    },
    {
      "inputs": [
        {
          "internalType": "uint256",
          "name": "contract_idx",
          "type": "uint256"
        },
        {
          "components": [
            {
              "internalType": "string",
              "name": "extended_data",
              "type": "string"
            },
            {
              "internalType": "string",
              "name": "contract_name",
              "type": "string"
            },
            {
              "internalType": "string",
              "name": "contract_type",
              "type": "string"
            },
            {
              "internalType": "string",
              "name": "funding_instr",
              "type": "string"
            },
            {
              "internalType": "uint256",
              "name": "service_fee_pct",
              "type": "uint256"
            },
            {
              "internalType": "uint256",
              "name": "service_fee_max",
              "type": "uint256"
            },
            {
              "internalType": "uint256",
              "name": "service_fee_amt",
              "type": "uint256"
            },
            {
              "internalType": "uint256",
              "name": "advance_pct",
              "type": "uint256"
            },
            {
              "internalType": "uint256",
              "name": "late_fee_pct",
              "type": "uint256"
            },
            {
              "internalType": "string",
              "name": "transact_logic",
              "type": "string"
            },
            {
              "internalType": "string",
              "name": "notes",
              "type": "string"
            },
            {
              "internalType": "bool",
              "name": "is_active",
              "type": "bool"
            },
            {
              "internalType": "bool",
              "name": "is_quote",
              "type": "bool"
            }
          ],
          "internalType": "struct Delivery.Contract",
          "name": "contract_",
          "type": "tuple"
        }
      ],
      "name": "updateContract",
      "outputs": [],
      "stateMutability": "nonpayable",
      "type": "function"
    },
    {
      "inputs": [
        {
          "internalType": "uint256",
          "name": "contract_idx",
          "type": "uint256"
        }
      ],
      "name": "deleteContract",
      "outputs": [],
      "stateMutability": "nonpayable",
      "type": "function"
    },
    {
      "inputs": [
        {
          "internalType": "uint256",
          "name": "contract_idx",
          "type": "uint256"
        }
      ],
      "name": "getParties",
      "outputs": [
        {
          "components": [
            {
              "internalType": "string",
              "name": "party_code",
              "type": "string"
            },
            {
              "internalType": "address",
              "name": "party_address",
              "type": "address"
            },
            {
              "internalType": "string",
              "name": "party_type",
              "type": "string"
            }
          ],
          "internalType": "struct Delivery.Party[]",
          "name": "",
          "type": "tuple[]"
        }
      ],
      "stateMutability": "view",
      "type": "function",
      "constant": true
    },
    {
      "inputs": [
        {
          "internalType": "uint256",
          "name": "contract_idx",
          "type": "uint256"
        },
        {
          "components": [
            {
              "internalType": "string",
              "name": "party_code",
              "type": "string"
            },
            {
              "internalType": "address",
              "name": "party_address",
              "type": "address"
            },
            {
              "internalType": "string",
              "name": "party_type",
              "type": "string"
            }
          ],
          "internalType": "struct Delivery.Party",
          "name": "party",
          "type": "tuple"
        }
      ],
      "name": "addParty",
      "outputs": [],
      "stateMutability": "nonpayable",
      "type": "function"
    },
    {
      "inputs": [
        {
          "internalType": "uint256",
          "name": "contract_idx",
          "type": "uint256"
        },
        {
          "internalType": "uint256",
          "name": "party_idx",
          "type": "uint256"
        }
      ],
      "name": "deleteParty",
      "outputs": [],
      "stateMutability": "nonpayable",
      "type": "function"
    },
    {
      "inputs": [
        {
          "internalType": "uint256",
          "name": "contract_idx",
          "type": "uint256"
        }
      ],
      "name": "deleteParties",
      "outputs": [],
      "stateMutability": "nonpayable",
      "type": "function"
    },
    {
      "inputs": [
        {
          "internalType": "uint256",
          "name": "contract_idx",
          "type": "uint256"
        }
      ],
      "name": "getArtifacts",
      "outputs": [
        {
          "components": [
            {
              "internalType": "string",
              "name": "artifact_id",
              "type": "string"
            },
            {
              "internalType": "string",
              "name": "extended_data",
              "type": "string"
            },
            {
              "internalType": "uint256",
              "name": "added_dt",
              "type": "uint256"
            },
            {
              "internalType": "string",
              "name": "doc_title",
              "type": "string"
            },
            {
              "internalType": "string",
              "name": "doc_type",
              "type": "string"
            }
          ],
          "internalType": "struct Delivery.Artifact[]",
          "name": "",
          "type": "tuple[]"
        }
      ],
      "stateMutability": "view",
      "type": "function",
      "constant": true
    },
    {
      "inputs": [
        {
          "internalType": "uint256",
          "name": "contract_idx",
          "type": "uint256"
        },
        {
          "internalType": "string",
          "name": "artifact_id",
          "type": "string"
        },
        {
          "internalType": "string",
          "name": "doc_title",
          "type": "string"
        },
        {
          "internalType": "string",
          "name": "doc_type",
          "type": "string"
        },
        {
          "internalType": "uint256",
          "name": "added_dt",
          "type": "uint256"
        }
      ],
      "name": "addArtifact",
      "outputs": [],
      "stateMutability": "nonpayable",
      "type": "function"
    },
    {
      "inputs": [
        {
          "internalType": "uint256",
          "name": "contract_idx",
          "type": "uint256"
        },
        {
          "internalType": "uint256",
          "name": "artifact_idx",
          "type": "uint256"
        }
      ],
      "name": "deleteArtifact",
      "outputs": [],
      "stateMutability": "nonpayable",
      "type": "function"
    },
    {
      "inputs": [
        {
          "internalType": "uint256",
          "name": "contract_idx",
          "type": "uint256"
        }
      ],
      "name": "deleteArtifacts",
      "outputs": [],
      "stateMutability": "nonpayable",
      "type": "function"
    },
    {
      "inputs": [
        {
          "internalType": "uint256",
          "name": "contract_idx",
          "type": "uint256"
        }
      ],
      "name": "getSettlements",
      "outputs": [
        {
          "components": [
            {
              "internalType": "string",
              "name": "extended_data",
              "type": "string"
            },
            {
              "internalType": "uint256",
              "name": "settle_due_dt",
              "type": "uint256"
            },
            {
              "internalType": "uint256",
              "name": "transact_min_dt",
              "type": "uint256"
            },
            {
              "internalType": "uint256",
              "name": "transact_max_dt",
              "type": "uint256"
            },
            {
              "internalType": "uint256",
              "name": "transact_count",
              "type": "uint256"
            },
            {
              "internalType": "uint256",
              "name": "settle_pay_dt",
              "type": "uint256"
            },
            {
              "internalType": "uint256",
              "name": "settle_exp_amt",
              "type": "uint256"
            },
            {
              "internalType": "uint256",
              "name": "settle_pay_amt",
              "type": "uint256"
            },
            {
              "internalType": "string",
              "name": "settle_confirm",
              "type": "string"
            },
            {
              "internalType": "uint256",
              "name": "dispute_amt",
              "type": "uint256"
            },
            {
              "internalType": "string",
              "name": "dispute_reason",
              "type": "string"
            },
            {
              "internalType": "uint256",
              "name": "days_late",
              "type": "uint256"
            },
            {
              "internalType": "uint256",
              "name": "late_fee_amt",
              "type": "uint256"
            },
            {
              "internalType": "uint256",
              "name": "residual_pay_dt",
              "type": "uint256"
            },
            {
              "internalType": "uint256",
              "name": "residual_pay_amt",
              "type": "uint256"
            },
            {
              "internalType": "string",
              "name": "residual_confirm",
              "type": "string"
            },
            {
              "internalType": "uint256",
              "name": "residual_exp_amt",
              "type": "uint256"
            },
            {
              "internalType": "uint256",
              "name": "residual_calc_amt",
              "type": "uint256"
            }
          ],
          "internalType": "struct Delivery.Settlement[]",
          "name": "",
          "type": "tuple[]"
        }
      ],
      "stateMutability": "view",
      "type": "function",
      "constant": true
    },
    {
      "inputs": [
        {
          "internalType": "uint256",
          "name": "contract_idx",
          "type": "uint256"
        },
        {
          "internalType": "string",
          "name": "extended_data",
          "type": "string"
        },
        {
          "internalType": "uint256",
          "name": "settle_due_dt",
          "type": "uint256"
        },
        {
          "internalType": "uint256",
          "name": "transact_min_dt",
          "type": "uint256"
        },
        {
          "internalType": "uint256",
          "name": "transact_max_dt",
          "type": "uint256"
        }
      ],
      "name": "addSettlement",
      "outputs": [],
      "stateMutability": "nonpayable",
      "type": "function"
    },
    {
      "inputs": [
        {
          "internalType": "uint256",
          "name": "contract_idx",
          "type": "uint256"
        }
      ],
      "name": "deleteSettlements",
      "outputs": [],
      "stateMutability": "nonpayable",
      "type": "function"
    },
    {
      "inputs": [
        {
          "internalType": "uint256",
          "name": "contract_idx",
          "type": "uint256"
        }
      ],
      "name": "getTransactions",
      "outputs": [
        {
          "components": [
            {
              "internalType": "string",
              "name": "extended_data",
              "type": "string"
            },
            {
              "internalType": "uint256",
              "name": "transact_dt",
              "type": "uint256"
            },
            {
              "internalType": "int256",
              "name": "transact_amt",
              "type": "int256"
            },
            {
              "internalType": "uint256",
              "name": "advance_amt",
              "type": "uint256"
            },
            {
              "internalType": "string",
              "name": "transact_data",
              "type": "string"
            },
            {
              "internalType": "uint256",
              "name": "advance_pay_dt",
              "type": "uint256"
            },
            {
              "internalType": "uint256",
              "name": "advance_pay_amt",
              "type": "uint256"
            },
            {
              "internalType": "string",
              "name": "advance_confirm",
              "type": "string"
            }
          ],
          "internalType": "struct Delivery.Transaction[]",
          "name": "",
          "type": "tuple[]"
        }
      ],
      "stateMutability": "view",
      "type": "function",
      "constant": true
    },
    {
      "inputs": [
        {
          "internalType": "uint256",
          "name": "contract_idx",
          "type": "uint256"
        },
        {
          "internalType": "string",
          "name": "extended_data",
          "type": "string"
        },
        {
          "internalType": "uint256",
          "name": "transact_dt",
          "type": "uint256"
        },
        {
          "internalType": "int256",
          "name": "transact_amt",
          "type": "int256"
        },
        {
          "internalType": "string",
          "name": "transact_data",
          "type": "string"
        }
      ],
      "name": "addTransaction",
      "outputs": [],
      "stateMutability": "nonpayable",
      "type": "function"
    },
    {
      "inputs": [
        {
          "internalType": "uint256",
          "name": "contract_idx",
          "type": "uint256"
        }
      ],
      "name": "deleteTransactions",
      "outputs": [],
      "stateMutability": "nonpayable",
      "type": "function"
    },
    {
      "inputs": [
        {
          "internalType": "uint256",
          "name": "contract_idx",
          "type": "uint256"
        },
        {
          "internalType": "uint256",
          "name": "transact_idx",
          "type": "uint256"
        },
        {
          "internalType": "uint256",
          "name": "advance_pay_dt",
          "type": "uint256"
        },
        {
          "internalType": "uint256",
          "name": "advance_pay_amt",
          "type": "uint256"
        },
        {
          "internalType": "string",
          "name": "advance_confirm",
          "type": "string"
        }
      ],
      "name": "payAdvance",
      "outputs": [],
      "stateMutability": "nonpayable",
      "type": "function"
    },
    {
      "inputs": [
        {
          "internalType": "uint256",
          "name": "contract_idx",
          "type": "uint256"
        },
        {
          "internalType": "uint256",
          "name": "settle_idx",
          "type": "uint256"
        },
        {
          "internalType": "uint256",
          "name": "settle_pay_dt",
          "type": "uint256"
        },
        {
          "internalType": "uint256",
          "name": "settle_pay_amt",
          "type": "uint256"
        },
        {
          "internalType": "string",
          "name": "settle_confirm",
          "type": "string"
        },
        {
          "internalType": "string",
          "name": "dispute_reason",
          "type": "string"
        }
      ],
      "name": "postSettlement",
      "outputs": [],
      "stateMutability": "nonpayable",
      "type": "function"
    },
    {
      "inputs": [
        {
          "internalType": "uint256",
          "name": "contract_idx",
          "type": "uint256"
        },
        {
          "internalType": "uint256",
          "name": "settle_idx",
          "type": "uint256"
        },
        {
          "internalType": "uint256",
          "name": "residual_pay_dt",
          "type": "uint256"
        },
        {
          "internalType": "uint256",
          "name": "residual_pay_amt",
          "type": "uint256"
        },
        {
          "internalType": "string",
          "name": "residual_confirm",
          "type": "string"
        }
      ],
      "name": "payResidual",
      "outputs": [],
      "stateMutability": "nonpayable",
      "type": "function"
    }
  ],
  "bytecode": "0x608060405234801561001057600080fd5b50600080546001600160a01b03191633179055615353806100326000396000f3fe608060405234801561001057600080fd5b506004361061014d5760003560e01c8063656c716e116100c35780639399869d1161007c5780639399869d146102d6578063a2a78929146102eb578063c35ee046146102fe578063d311341214610311578063f633db9314610331578063fcf45c0f146103445761014d565b8063656c716e146102555780636893d336146102685780636e449c2b1461027b5780636ebc8c861461028e57806375483e46146102ae5780638da5cb5b146102c15761014d565b806346f920fd1161011557806346f920fd146101c95780635742177c146101e95780635b1ffac3146102095780635b4e97e71461021c578063610df22e1461022f57806364da0a33146102425761014d565b806311ef56de1461015257806336d56a601461016757806338ad4fa71461017a5780633cbfb1b51461018d578063447fe289146101a0575b600080fd5b6101656101603660046142c1565b610357565b005b61016561017536600461455e565b6103e9565b61016561018836600461436f565b610660565b61016561019b3660046142d9565b6108e6565b6101b36101ae3660046142c1565b610a1a565b6040516101c091906147c4565b60405180910390f35b6101dc6101d73660046142c1565b610be0565b6040516101c0919061484d565b6101fc6101f73660046142c1565b610f34565b6040516101c09190614997565b6101656102173660046145d4565b61119c565b61016561022a3660046142c1565b611898565b61016561023d36600461457f565b611916565b610165610250366004614492565b611a72565b610165610263366004614286565b611b5a565b6101656102763660046142c1565b611cf1565b61016561028936600461455e565b61208a565b6102a161029c3660046142c1565b6122bd565b6040516101c0919061504a565b6101656102bc36600461457f565b6126e6565b6102c9612833565b6040516101c091906146ec565b6102de612842565b6040516101c0919061516f565b6101656102f93660046143ed565b612848565b61016561030c36600461444d565b6129fa565b61032461031f3660046142c1565b613450565b6040516101c09190614700565b61016561033f3660046142c1565b613721565b6101656103523660046142c1565b61379f565b6000546001600160a01b0316331461038a5760405162461bcd60e51b815260040161038190614c21565b60405180910390fd5b60015481106103ab5760405162461bcd60e51b815260040161038190614ad7565b60008181526004602052604081206103c291613bb8565b806000805160206152fe8339815191526040516103de90614e6d565b60405180910390a250565b6000546001600160a01b031633146104135760405162461bcd60e51b815260040161038190614c21565b60015482106104345760405162461bcd60e51b815260040161038190614ad7565b60008281526004602052604090205481106104615760405162461bcd60e51b815260040161038190614bbb565b805b60008381526004602052604090205461047e9060019061521e565b8110156105aa57600083815260046020526040902061049e8260016151a2565b815481106104bc57634e487b7160e01b600052603260045260246000fd5b90600052602060002090600502016004600085815260200190815260200160002082815481106104fc57634e487b7160e01b600052603260045260246000fd5b9060005260206000209060050201600082018160000190805461051e90615261565b610529929190613bdc565b50600182018160010190805461053e90615261565b610549929190613bdc565b5060028201548160020155600382018160030190805461056890615261565b610573929190613bdc565b50600482018160040190805461058890615261565b610593929190613bdc565b5090505080806105a29061529c565b915050610463565b5060008281526004602052604090208054806105d657634e487b7160e01b600052603160045260246000fd5b600082815260208120600019909201916005830201906105f68282613c67565b610604600183016000613c67565b600282016000905560038201600061061c9190613c67565b61062a600483016000613c67565b50509055816000805160206152fe8339815191526106478361381d565b6040516106549190614d36565b60405180910390a25050565b6000546001600160a01b0316331461068a5760405162461bcd60e51b815260040161038190614c21565b60015485106106ab5760405162461bcd60e51b815260040161038190614ad7565b6106b3613ca3565b8481526020810184905260408101839052608081018290526000805b6000888152600260205260409020548110156107a757600088815260026020526040812080548390811061071357634e487b7160e01b600052603260045260246000fd5b906000526020600020906012020190508060020154871015801561073a5750806003015487105b15610794576004810180549060006107518361529c565b919050555061078f8160018b8154811061077b57634e487b7160e01b600052603260045260246000fd5b90600052602060002090600c020188613963565b600192505b508061079f8161529c565b9150506106cf565b5080156108b8576107e682600189815481106107d357634e487b7160e01b600052603260045260246000fd5b90600052602060002090600c0201613a69565b600087815260036020908152604082208054600181018255908352918190208451805186946008029092019261082192849290910190613ce8565b5060208281015160018301556040830151600283015560608301516003830155608083015180516108589260048501920190613ce8565b5060a0820151600582015560c0820151600682015560e08201518051610888916007840191602090910190613ce8565b505082516040518992506000805160206152fe833981519152916108ab91614a5f565b60405180910390a26108dd565b866000805160206152fe8339815191526040516108d490614feb565b60405180910390a25b50505050505050565b6000546001600160a01b031633146109105760405162461bcd60e51b815260040161038190614c21565b60015485106109315760405162461bcd60e51b815260040161038190614ad7565b610939613d5c565b6040808201839052858252606082018590526080820184905260008781526004602090815291812080546001810182559082529082902083518051859460059094029092019261098e92849290910190613ce8565b5060208281015180516109a79260018501920190613ce8565b5060408201516002820155606082015180516109cd916003840191602090910190613ce8565b50608082015180516109e9916004840191602090910190613ce8565b505050856000805160206152fe83398151915285604051610a0a9190614fb4565b60405180910390a2505050505050565b6001546060908210610a3e5760405162461bcd60e51b815260040161038190614ad7565b600082815260056020908152604080832080548251818502810185019093528083529193909284015b82821015610bd45783829060005260206000209060030201604051806060016040529081600082018054610a9a90615261565b80601f0160208091040260200160405190810160405280929190818152602001828054610ac690615261565b8015610b135780601f10610ae857610100808354040283529160200191610b13565b820191906000526020600020905b815481529060010190602001808311610af657829003601f168201915b505050918352505060018201546001600160a01b03166020820152600282018054604090920191610b4390615261565b80601f0160208091040260200160405190810160405280929190818152602001828054610b6f90615261565b8015610bbc5780601f10610b9157610100808354040283529160200191610bbc565b820191906000526020600020905b815481529060010190602001808311610b9f57829003601f168201915b50505050508152505081526020019060010190610a67565b5050505090505b919050565b6001546060908210610c045760405162461bcd60e51b815260040161038190614ad7565b600082815260026020908152604080832080548251818502810185019093528083529193909284015b82821015610bd4578382906000526020600020906012020160405180610240016040529081600082018054610c6190615261565b80601f0160208091040260200160405190810160405280929190818152602001828054610c8d90615261565b8015610cda5780601f10610caf57610100808354040283529160200191610cda565b820191906000526020600020905b815481529060010190602001808311610cbd57829003601f168201915b5050505050815260200160018201548152602001600282015481526020016003820154815260200160048201548152602001600582015481526020016006820154815260200160078201548152602001600882018054610d3990615261565b80601f0160208091040260200160405190810160405280929190818152602001828054610d6590615261565b8015610db25780601f10610d8757610100808354040283529160200191610db2565b820191906000526020600020905b815481529060010190602001808311610d9557829003601f168201915b5050505050815260200160098201548152602001600a82018054610dd590615261565b80601f0160208091040260200160405190810160405280929190818152602001828054610e0190615261565b8015610e4e5780601f10610e2357610100808354040283529160200191610e4e565b820191906000526020600020905b815481529060010190602001808311610e3157829003601f168201915b50505050508152602001600b8201548152602001600c8201548152602001600d8201548152602001600e8201548152602001600f82018054610e8f90615261565b80601f0160208091040260200160405190810160405280929190818152602001828054610ebb90615261565b8015610f085780601f10610edd57610100808354040283529160200191610f08565b820191906000526020600020905b815481529060010190602001808311610eeb57829003601f168201915b505050505081526020016010820154815260200160118201548152505081526020019060010190610c2d565b6001546060908210610f585760405162461bcd60e51b815260040161038190614ad7565b600082815260036020908152604080832080548251818502810185019093528083529193909284015b82821015610bd4578382906000526020600020906008020160405180610100016040529081600082018054610fb590615261565b80601f0160208091040260200160405190810160405280929190818152602001828054610fe190615261565b801561102e5780601f106110035761010080835404028352916020019161102e565b820191906000526020600020905b81548152906001019060200180831161101157829003601f168201915b5050505050815260200160018201548152602001600282015481526020016003820154815260200160048201805461106590615261565b80601f016020809104026020016040519081016040528092919081815260200182805461109190615261565b80156110de5780601f106110b3576101008083540402835291602001916110de565b820191906000526020600020905b8154815290600101906020018083116110c157829003601f168201915b50505050508152602001600582015481526020016006820154815260200160078201805461110b90615261565b80601f016020809104026020016040519081016040528092919081815260200182805461113790615261565b80156111845780601f1061115957610100808354040283529160200191611184565b820191906000526020600020905b81548152906001019060200180831161116757829003601f168201915b50505050508152505081526020019060010190610f81565b6000546001600160a01b031633146111c65760405162461bcd60e51b815260040161038190614c21565b60015486106111e75760405162461bcd60e51b815260040161038190614ad7565b600086815260026020526040902080548591908790811061121857634e487b7160e01b600052603260045260246000fd5b9060005260206000209060120201600501819055508260026000888152602001908152602001600020868154811061126057634e487b7160e01b600052603260045260246000fd5b906000526020600020906012020160070181905550816002600088815260200190815260200160002086815481106112a857634e487b7160e01b600052603260045260246000fd5b906000526020600020906012020160080190805190602001906112cc929190613ce8565b5060008681526002602052604090208054869081106112fb57634e487b7160e01b600052603260045260246000fd5b906000526020600020906012020160010154841115611502576018603c80600260008a8152602001908152602001600020888154811061134b57634e487b7160e01b600052603260045260246000fd5b90600052602060002090601202016001015487611368919061521e565b61137291906151df565b61137c91906151df565b61138691906151df565b60008781526002602052604090208054879081106113b457634e487b7160e01b600052603260045260246000fd5b9060005260206000209060120201600b0181905550633b9aca0060026000888152602001908152602001600020868154811061140057634e487b7160e01b600052603260045260246000fd5b90600052602060002090601202016006015461016d6001898154811061143657634e487b7160e01b600052603260045260246000fd5b90600052602060002090600c020160080154620186a061145691906151ff565b61146091906151df565b600089815260026020526040902080548990811061148e57634e487b7160e01b600052603260045260246000fd5b9060005260206000209060120201600b01546114aa91906151ff565b6114b491906151ff565b6114be91906151df565b60008781526002602052604090208054879081106114ec57634e487b7160e01b600052603260045260246000fd5b9060005260206000209060120201600c01819055505b600086815260026020526040902080548690811061153057634e487b7160e01b600052603260045260246000fd5b90600052602060002090601202016010015483101561163257600086815260026020526040902080548491908790811061157a57634e487b7160e01b600052603260045260246000fd5b906000526020600020906012020160100154611596919061521e565b60008781526002602052604090208054879081106115c457634e487b7160e01b600052603260045260246000fd5b9060005260206000209060120201600901819055508060026000888152602001908152602001600020868154811061160c57634e487b7160e01b600052603260045260246000fd5b9060005260206000209060120201600a019080519060200190611630929190613ce8565b505b600086815260026020526040812080548790811061166057634e487b7160e01b600052603260045260246000fd5b9060005260206000209060120201600901546002600089815260200190815260200160002087815481106116a457634e487b7160e01b600052603260045260246000fd5b9060005260206000209060120201600c0154600260008a815260200190815260200160002088815481106116e857634e487b7160e01b600052603260045260246000fd5b906000526020600020906012020160100154611704919061521e565b61170e919061521e565b111561183857600086815260026020526040902080548690811061174257634e487b7160e01b600052603260045260246000fd5b90600052602060002090601202016009015460026000888152602001908152602001600020868154811061178657634e487b7160e01b600052603260045260246000fd5b9060005260206000209060120201600c01546002600089815260200190815260200160002087815481106117ca57634e487b7160e01b600052603260045260246000fd5b9060005260206000209060120201601001546117e6919061521e565b6117f0919061521e565b600087815260026020526040902080548790811061181e57634e487b7160e01b600052603260045260246000fd5b90600052602060002090601202016011018190555061187c565b600086815260026020526040812080548790811061186657634e487b7160e01b600052603260045260246000fd5b9060005260206000209060120201601101819055505b856000805160206152fe833981519152604051610a0a90614db8565b6000546001600160a01b031633146118c25760405162461bcd60e51b815260040161038190614c21565b60015481106118e35760405162461bcd60e51b815260040161038190614ad7565b60008181526002602052604081206118fa91613d8b565b806000805160206152fe8339815191526040516103de90614f40565b6000546001600160a01b031633146119405760405162461bcd60e51b815260040161038190614c21565b60015485106119615760405162461bcd60e51b815260040161038190614ad7565b600085815260026020526040902080548491908690811061199257634e487b7160e01b600052603260045260246000fd5b9060005260206000209060120201600d0181905550816002600087815260200190815260200160002085815481106119da57634e487b7160e01b600052603260045260246000fd5b9060005260206000209060120201600e018190555080600260008781526020019081526020016000208581548110611a2257634e487b7160e01b600052603260045260246000fd5b9060005260206000209060120201600f019080519060200190611a46929190613ce8565b50846000805160206152fe833981519152604051611a6390614c7e565b60405180910390a25050505050565b6000546001600160a01b03163314611a9c5760405162461bcd60e51b815260040161038190614c21565b6001548210611abd5760405162461bcd60e51b815260040161038190614ad7565b6000828152600560209081526040822080546001810182559083529181902083518051859460030290920192611af892849290910190613ce8565b506020828101516001830180546001600160a01b0319166001600160a01b0390921691909117905560408301518051611b379260028501920190613ce8565b505081516040518492506000805160206152fe8339815191529161065491614f0c565b6000546001600160a01b03163314611b845760405162461bcd60e51b815260040161038190614c21565b600180548082018255600091909152815180518392600c027fb10e2d527612073b26eecdfd717e6a320cf44b4afac2b0732d9fcbe2b7fa0cf60191611bce91839160200190613ce8565b506020828101518051611be79260018501920190613ce8565b5060408201518051611c03916002840191602090910190613ce8565b5060608201518051611c1f916003840191602090910190613ce8565b506080820151600482015560a0820151600582015560c0820151600682015560e0820151600782015561010082015160088201556101208201518051611c6f916009840191602090910190613ce8565b506101408201518051611c8c91600a840191602090910190613ce8565b50610160820151600b90910180546101809093015115156101000261ff001992151560ff19909416939093179190911691909117905560018054611cd0919061521e565b6000805160206152fe83398151915282602001516040516103de9190614aa0565b6000546001600160a01b03163314611d1b5760405162461bcd60e51b815260040161038190614c21565b6001548110611d3c5760405162461bcd60e51b815260040161038190614ad7565b60008181526002602052604090205415611d685760405162461bcd60e51b815260040161038190614d6f565b60008181526003602052604090205415611d945760405162461bcd60e51b815260040161038190614cec565b60008181526004602052604090205415611dc05760405162461bcd60e51b815260040161038190614e26565b60008181526005602052604090205415611dec5760405162461bcd60e51b815260040161038190614b07565b805b60018054611dfc919061521e565b811015611fa5576001611e0f82826151a2565b81548110611e2d57634e487b7160e01b600052603260045260246000fd5b90600052602060002090600c020160018281548110611e5c57634e487b7160e01b600052603260045260246000fd5b90600052602060002090600c02016000820181600001908054611e7e90615261565b611e89929190613bdc565b506001820181600101908054611e9e90615261565b611ea9929190613bdc565b506002820181600201908054611ebe90615261565b611ec9929190613bdc565b506003820181600301908054611ede90615261565b611ee9929190613bdc565b5060048201548160040155600582015481600501556006820154816006015560078201548160070155600882015481600801556009820181600901908054611f3090615261565b611f3b929190613bdc565b50600a820181600a01908054611f5090615261565b611f5b929190613bdc565b50600b918201805491909201805460ff191660ff928316151517808255925461ff001990931661010093849004909216151590920217905580611f9d8161529c565b915050611dee565b506001805480611fc557634e487b7160e01b600052603160045260246000fd5b60008281526020812060001990920191600c83020190611fe58282613c67565b611ff3600183016000613c67565b612001600283016000613c67565b61200f600383016000613c67565b600482016000905560058201600090556006820160009055600782016000905560088201600090556009820160006120479190613c67565b612055600a83016000613c67565b50600b01805461ffff191690559055806000805160206152fe83398151915261207d8261381d565b6040516103de9190614f7b565b6000546001600160a01b031633146120b45760405162461bcd60e51b815260040161038190614c21565b60015482106120d55760405162461bcd60e51b815260040161038190614ad7565b60008281526005602052604090205481106121025760405162461bcd60e51b815260040161038190614ea6565b805b60008381526005602052604090205461211f9060019061521e565b81101561222757600083815260056020526040902061213f8260016151a2565b8154811061215d57634e487b7160e01b600052603260045260246000fd5b906000526020600020906003020160056000858152602001908152602001600020828154811061219d57634e487b7160e01b600052603260045260246000fd5b906000526020600020906003020160008201816000019080546121bf90615261565b6121ca929190613bdc565b5060018281015490820180546001600160a01b0319166001600160a01b03909216919091179055600280830180549183019161220590615261565b612210929190613bdc565b50905050808061221f9061529c565b915050612104565b50600082815260056020526040902080548061225357634e487b7160e01b600052603160045260246000fd5b600082815260208120600019909201916003830201906122738282613c67565b6001820180546001600160a01b0319169055612293600283016000613c67565b50509055816000805160206152fe8339815191526122b08361381d565b6040516106549190614beb565b6122c5613dac565b60015482106122e65760405162461bcd60e51b815260040161038190614ad7565b6001828154811061230757634e487b7160e01b600052603260045260246000fd5b90600052602060002090600c0201604051806101a001604052908160008201805461233190615261565b80601f016020809104026020016040519081016040528092919081815260200182805461235d90615261565b80156123aa5780601f1061237f576101008083540402835291602001916123aa565b820191906000526020600020905b81548152906001019060200180831161238d57829003601f168201915b505050505081526020016001820180546123c390615261565b80601f01602080910402602001604051908101604052809291908181526020018280546123ef90615261565b801561243c5780601f106124115761010080835404028352916020019161243c565b820191906000526020600020905b81548152906001019060200180831161241f57829003601f168201915b5050505050815260200160028201805461245590615261565b80601f016020809104026020016040519081016040528092919081815260200182805461248190615261565b80156124ce5780601f106124a3576101008083540402835291602001916124ce565b820191906000526020600020905b8154815290600101906020018083116124b157829003601f168201915b505050505081526020016003820180546124e790615261565b80601f016020809104026020016040519081016040528092919081815260200182805461251390615261565b80156125605780601f1061253557610100808354040283529160200191612560565b820191906000526020600020905b81548152906001019060200180831161254357829003601f168201915b5050505050815260200160048201548152602001600582015481526020016006820154815260200160078201548152602001600882015481526020016009820180546125ab90615261565b80601f01602080910402602001604051908101604052809291908181526020018280546125d790615261565b80156126245780601f106125f957610100808354040283529160200191612624565b820191906000526020600020905b81548152906001019060200180831161260757829003601f168201915b50505050508152602001600a8201805461263d90615261565b80601f016020809104026020016040519081016040528092919081815260200182805461266990615261565b80156126b65780601f1061268b576101008083540402835291602001916126b6565b820191906000526020600020905b81548152906001019060200180831161269957829003601f168201915b5050509183525050600b919091015460ff8082161515602084015261010090910416151560409091015292915050565b6000546001600160a01b031633146127105760405162461bcd60e51b815260040161038190614c21565b60015485106127315760405162461bcd60e51b815260040161038190614ad7565b600085815260036020526040902080548491908690811061276257634e487b7160e01b600052603260045260246000fd5b906000526020600020906008020160050181905550816003600087815260200190815260200160002085815481106127aa57634e487b7160e01b600052603260045260246000fd5b906000526020600020906008020160060181905550806003600087815260200190815260200160002085815481106127f257634e487b7160e01b600052603260045260246000fd5b90600052602060002090600802016007019080519060200190612816929190613ce8565b50846000805160206152fe833981519152604051611a6390614b88565b6000546001600160a01b031681565b60015490565b6000546001600160a01b031633146128725760405162461bcd60e51b815260040161038190614c21565b60015485106128935760405162461bcd60e51b815260040161038190614ad7565b61289b613e18565b60208082018590526040808301859052606083018490528683526000888152600283529081208054600181018255908252908290208351805185946012909402909201926128ee92849290910190613ce8565b50602082810151600183015560408301516002830155606083015160038301556080830151600483015560a0830151600583015560c0830151600683015560e08301516007830155610100830151805161294e9260088501920190613ce8565b506101208201516009820155610140820151805161297691600a840191602090910190613ce8565b50610160820151600b820155610180820151600c8201556101a0820151600d8201556101c0820151600e8201556101e082015180516129bf91600f840191602090910190613ce8565b50610200820151816010015561022082015181601101555050856000805160206152fe8339815191528260000151604051610a0a9190614ed3565b6000546001600160a01b03163314612a245760405162461bcd60e51b815260040161038190614c21565b6001548210612a455760405162461bcd60e51b815260040161038190614ad7565b612b34826040518060400160405280600d81526020016c657874656e6465645f6461746160981b81525060018581548110612a9057634e487b7160e01b600052603260045260246000fd5b90600052602060002090600c02016000018054612aac90615261565b80601f0160208091040260200160405190810160405280929190818152602001828054612ad890615261565b8015612b255780601f10612afa57610100808354040283529160200191612b25565b820191906000526020600020905b815481529060010190602001808311612b0857829003601f168201915b50505050508460000151613b07565b612c23826040518060400160405280600d81526020016c636f6e74726163745f6e616d6560981b81525060018581548110612b7f57634e487b7160e01b600052603260045260246000fd5b90600052602060002090600c02016001018054612b9b90615261565b80601f0160208091040260200160405190810160405280929190818152602001828054612bc790615261565b8015612c145780601f10612be957610100808354040283529160200191612c14565b820191906000526020600020905b815481529060010190602001808311612bf757829003601f168201915b50505050508460200151613b07565b612d12826040518060400160405280600d81526020016c636f6e74726163745f7479706560981b81525060018581548110612c6e57634e487b7160e01b600052603260045260246000fd5b90600052602060002090600c02016002018054612c8a90615261565b80601f0160208091040260200160405190810160405280929190818152602001828054612cb690615261565b8015612d035780601f10612cd857610100808354040283529160200191612d03565b820191906000526020600020905b815481529060010190602001808311612ce657829003601f168201915b50505050508460400151613b07565b612e01826040518060400160405280600d81526020016c333ab73234b733afb4b739ba3960991b81525060018581548110612d5d57634e487b7160e01b600052603260045260246000fd5b90600052602060002090600c02016003018054612d7990615261565b80601f0160208091040260200160405190810160405280929190818152602001828054612da590615261565b8015612df25780601f10612dc757610100808354040283529160200191612df2565b820191906000526020600020905b815481529060010190602001808311612dd557829003601f168201915b50505050508460600151613b07565b612e7a826040518060400160405280600f81526020016e1cd95c9d9a58d957d9995957dc18dd608a1b815250612e6860018681548110612e5157634e487b7160e01b600052603260045260246000fd5b90600052602060002090600c02016004015461381d565b612e75856080015161381d565b613b07565b612eee826040518060400160405280600f81526020016e0e6cae4ecd2c6cabecccacabedac2f608b1b815250612ee160018681548110612eca57634e487b7160e01b600052603260045260246000fd5b90600052602060002090600c02016005015461381d565b612e758560a0015161381d565b612f62826040518060400160405280600f81526020016e1cd95c9d9a58d957d9995957d85b5d608a1b815250612f5560018681548110612f3e57634e487b7160e01b600052603260045260246000fd5b90600052602060002090600c02016006015461381d565b612e758560c0015161381d565b612fd2826040518060400160405280600b81526020016a18591d985b98d957dc18dd60aa1b815250612fc560018681548110612fae57634e487b7160e01b600052603260045260246000fd5b90600052602060002090600c02016007015461381d565b612e758560e0015161381d565b613044826040518060400160405280600c81526020016b1b185d1957d9995957dc18dd60a21b8152506130366001868154811061301f57634e487b7160e01b600052603260045260246000fd5b90600052602060002090600c02016008015461381d565b612e7585610100015161381d565b613135826040518060400160405280600e81526020016d7472616e736163745f6c6f67696360901b8152506001858154811061309057634e487b7160e01b600052603260045260246000fd5b90600052602060002090600c020160090180546130ac90615261565b80601f01602080910402602001604051908101604052809291908181526020018280546130d890615261565b80156131255780601f106130fa57610100808354040283529160200191613125565b820191906000526020600020905b81548152906001019060200180831161310857829003601f168201915b5050505050846101200151613b07565b61321d82604051806040016040528060058152602001646e6f74657360d81b8152506001858154811061317857634e487b7160e01b600052603260045260246000fd5b90600052602060002090600c0201600a01805461319490615261565b80601f01602080910402602001604051908101604052809291908181526020018280546131c090615261565b801561320d5780601f106131e25761010080835404028352916020019161320d565b820191906000526020600020905b8154815290600101906020018083116131f057829003601f168201915b5050505050846101400151613b07565b613291826040518060400160405280600981526020016869735f61637469766560b81b8152506132836001868154811061326757634e487b7160e01b600052603260045260246000fd5b60009182526020909120600b600c90920201015460ff16613b6a565b612e75856101600151613b6a565b61330c826040518060400160405280600881526020016769735f71756f746560c01b8152506132fe600186815481106132da57634e487b7160e01b600052603260045260246000fd5b90600052602060002090600c0201600b0160019054906101000a900460ff16613b6a565b612e75856101800151613b6a565b806001838154811061332e57634e487b7160e01b600052603260045260246000fd5b90600052602060002090600c02016000820151816000019080519060200190613358929190613ce8565b5060208281015180516133719260018501920190613ce8565b506040820151805161338d916002840191602090910190613ce8565b50606082015180516133a9916003840191602090910190613ce8565b506080820151600482015560a0820151600582015560c0820151600682015560e08201516007820155610100820151600882015561012082015180516133f9916009840191602090910190613ce8565b50610140820151805161341691600a840191602090910190613ce8565b50610160820151600b90910180546101809093015115156101000261ff001992151560ff1990941693909317919091169190911790555050565b60015460609082106134745760405162461bcd60e51b815260040161038190614ad7565b600082815260046020908152604080832080548251818502810185019093528083529193909284015b82821015610bd457838290600052602060002090600502016040518060a00160405290816000820180546134d090615261565b80601f01602080910402602001604051908101604052809291908181526020018280546134fc90615261565b80156135495780601f1061351e57610100808354040283529160200191613549565b820191906000526020600020905b81548152906001019060200180831161352c57829003601f168201915b5050505050815260200160018201805461356290615261565b80601f016020809104026020016040519081016040528092919081815260200182805461358e90615261565b80156135db5780601f106135b0576101008083540402835291602001916135db565b820191906000526020600020905b8154815290600101906020018083116135be57829003601f168201915b50505050508152602001600282015481526020016003820180546135fe90615261565b80601f016020809104026020016040519081016040528092919081815260200182805461362a90615261565b80156136775780601f1061364c57610100808354040283529160200191613677565b820191906000526020600020905b81548152906001019060200180831161365a57829003601f168201915b5050505050815260200160048201805461369090615261565b80601f01602080910402602001604051908101604052809291908181526020018280546136bc90615261565b80156137095780601f106136de57610100808354040283529160200191613709565b820191906000526020600020905b8154815290600101906020018083116136ec57829003601f168201915b5050505050815250508152602001906001019061349d565b6000546001600160a01b0316331461374b5760405162461bcd60e51b815260040161038190614c21565b600154811061376c5760405162461bcd60e51b815260040161038190614ad7565b600081815260056020526040812061378391613ea3565b806000805160206152fe8339815191526040516103de90614def565b6000546001600160a01b031633146137c95760405162461bcd60e51b815260040161038190614c21565b60015481106137ea5760405162461bcd60e51b815260040161038190614ad7565b600081815260036020526040812061380191613ec4565b806000805160206152fe8339815191526040516103de90614b4c565b60608161384257506040805180820190915260018152600360fc1b6020820152610bdb565b8160005b811561386c57806138568161529c565b91506138659050600a836151df565b9150613846565b60008167ffffffffffffffff81111561389557634e487b7160e01b600052604160045260246000fd5b6040519080825280601f01601f1916602001820160405280156138bf576020820181803683370190505b509050815b851561395a576138d560018261521e565b905060006138e4600a886151df565b6138ef90600a6151ff565b6138f9908861521e565b6139049060306151ba565b905060008160f81b90508084848151811061392f57634e487b7160e01b600052603260045260246000fd5b60200101906001600160f81b031916908160001a905350613951600a896151df565b975050506138c4565b50949350505050565b6000811215613a05576000613977826152b7565b9050808460060154106139a35780846006016000828254613998919061521e565b909155506139ab9050565b600060068501555b60006127108460070154836139c091906151ff565b6139ca91906151df565b9050808560100154106139f657808560100160008282546139eb919061521e565b909155506139fe9050565b600060108601555b5050613a64565b600081905080846006016000828254613a1e91906151a2565b9091555050600783015461271090613a36908261521e565b613a4090836151ff565b613a4a91906151df565b846010016000828254613a5d91906151a2565b9091555050505b505050565b600082604001511315613afb5760008260400151905060008260060154612710838560040154613a9991906151ff565b613aa391906151df565b613aad91906151a2565b90506000612710846007015484613ac491906151ff565b613ace91906151df565b9050818110613aeb57613ae1828261521e565b6060860152613af3565b600060608601525b505050613b03565b600060608301525b5050565b8080519060200120828051906020012014613b6457836000805160206152fe833981519152848484604051602001613b419392919061468c565b60408051601f1981840301815290829052613b5b91614cb3565b60405180910390a25b50505050565b606081613b94576040518060400160405280600581526020016466616c736560d81b815250613bb2565b604051806040016040528060048152602001637472756560e01b8152505b92915050565b5080546000825560050290600052602060002090810190613bd99190613ee5565b50565b828054613be890615261565b90600052602060002090601f016020900481019282613c0a5760008555613c57565b82601f10613c1b5780548555613c57565b82800160010185558215613c5757600052602060002091601f016020900482015b82811115613c57578254825591600101919060010190613c3c565b50613c63929150613f36565b5090565b508054613c7390615261565b6000825580601f10613c855750613bd9565b601f016020900490600052602060002090810190613bd99190613f36565b60405180610100016040528060608152602001600081526020016000815260200160008152602001606081526020016000815260200160008152602001606081525090565b828054613cf490615261565b90600052602060002090601f016020900481019282613d165760008555613c57565b82601f10613d2f57805160ff1916838001178555613c57565b82800160010185558215613c57579182015b82811115613c57578251825591602001919060010190613d41565b6040518060a0016040528060608152602001606081526020016000815260200160608152602001606081525090565b5080546000825560120290600052602060002090810190613bd99190613f4b565b604051806101a0016040528060608152602001606081526020016060815260200160608152602001600081526020016000815260200160008152602001600081526020016000815260200160608152602001606081526020016000151581526020016000151581525090565b6040518061024001604052806060815260200160008152602001600081526020016000815260200160008152602001600081526020016000815260200160008152602001606081526020016000815260200160608152602001600081526020016000815260200160008152602001600081526020016060815260200160008152602001600081525090565b5080546000825560030290600052602060002090810190613bd99190614006565b5080546000825560080290600052602060002090810190613bd99190614043565b80821115613c63576000613ef98282613c67565b613f07600183016000613c67565b6002820160009055600382016000613f1f9190613c67565b613f2d600483016000613c67565b50600501613ee5565b5b80821115613c635760008155600101613f37565b80821115613c63576000613f5f8282613c67565b6001820160009055600282016000905560038201600090556004820160009055600582016000905560068201600090556007820160009055600882016000613fa79190613c67565b6009820160009055600a82016000613fbf9190613c67565b600b820160009055600c820160009055600d820160009055600e820160009055600f82016000613fef9190613c67565b506000601082018190556011820155601201613f4b565b80821115613c6357600061401a8282613c67565b6001820180546001600160a01b031916905561403a600283016000613c67565b50600301614006565b80821115613c635760006140578282613c67565b60018201600090556002820160009055600382016000905560048201600061407f9190613c67565b6005820160009055600682016000905560078201600061409f9190613c67565b50600801614043565b80358015158114610bdb57600080fd5b600082601f8301126140c8578081fd5b813567ffffffffffffffff8111156140e2576140e26152e7565b6140f5601f8201601f1916602001615178565b818152846020838601011115614109578283fd5b816020850160208301379081016020019190915292915050565b60006101a0808385031215614136578182fd5b61413f81615178565b915050813567ffffffffffffffff8082111561415a57600080fd5b614166858386016140b8565b8352602084013591508082111561417c57600080fd5b614188858386016140b8565b602084015260408401359150808211156141a157600080fd5b6141ad858386016140b8565b604084015260608401359150808211156141c657600080fd5b6141d2858386016140b8565b60608401526080840135608084015260a084013560a084015260c084013560c084015260e084013560e0840152610100915081840135828401526101209150818401358181111561422257600080fd5b61422e868287016140b8565b83850152506101409150818401358181111561424957600080fd5b614255868287016140b8565b8385015250505061016061426a8184016140a8565b9082015261018061427c8382016140a8565b9082015292915050565b600060208284031215614297578081fd5b813567ffffffffffffffff8111156142ad578182fd5b6142b984828501614123565b949350505050565b6000602082840312156142d2578081fd5b5035919050565b600080600080600060a086880312156142f0578081fd5b85359450602086013567ffffffffffffffff8082111561430e578283fd5b61431a89838a016140b8565b9550604088013591508082111561432f578283fd5b61433b89838a016140b8565b94506060880135915080821115614350578283fd5b5061435d888289016140b8565b95989497509295608001359392505050565b600080600080600060a08688031215614386578081fd5b85359450602086013567ffffffffffffffff808211156143a4578283fd5b6143b089838a016140b8565b9550604088013594506060880135935060808801359150808211156143d3578283fd5b506143e0888289016140b8565b9150509295509295909350565b600080600080600060a08688031215614404578081fd5b85359450602086013567ffffffffffffffff811115614421578182fd5b61442d888289016140b8565b959895975050505060408401359360608101359360809091013592509050565b6000806040838503121561445f578182fd5b82359150602083013567ffffffffffffffff81111561447c578182fd5b61448885828601614123565b9150509250929050565b600080604083850312156144a4578182fd5b82359150602083013567ffffffffffffffff808211156144c2578283fd5b90840190606082870312156144d5578283fd5b6040516060810181811083821117156144f0576144f06152e7565b604052823582811115614501578485fd5b61450d888286016140b8565b82525060208301356001600160a01b0381168114614529578485fd5b602082015260408301358281111561453f578485fd5b61454b888286016140b8565b6040830152508093505050509250929050565b60008060408385031215614570578182fd5b50508035926020909101359150565b600080600080600060a08688031215614596578081fd5b85359450602086013593506040860135925060608601359150608086013567ffffffffffffffff8111156145c8578182fd5b6143e0888289016140b8565b60008060008060008060c087890312156145ec578384fd5b86359550602087013594506040870135935060608701359250608087013567ffffffffffffffff8082111561461f578283fd5b61462b8a838b016140b8565b935060a0890135915080821115614640578283fd5b5061464d89828a016140b8565b9150509295509295509295565b15159052565b60008151808452614678816020860160208601615235565b601f01601f19169290920160200192915050565b6000845161469e818460208901615235565b601d60f91b90830190815284516146bc816001840160208901615235565b61169f60f11b6001929091019182015283516146df816003840160208801615235565b0160030195945050505050565b6001600160a01b0391909116815260200190565b60208082528251828201819052600091906040908185019080840286018301878501865b838110156147b657603f19898403018552815160a0815181865261474a82870182614660565b915050888201518582038a8701526147628282614660565b9150508782015188860152606080830151868303828801526147848382614660565b92505050608080830151925085820381870152506147a28183614660565b968901969450505090860190600101614724565b509098975050505050505050565b60208082528251828201819052600091906040908185019080840286018301878501865b838110156147b657603f1989840301855281516060815181865261480e82870182614660565b838b01516001600160a01b0316878c0152928901518684038a88015292915061483990508183614660565b9689019694505050908601906001016147e8565b60208082528251828201819052600091906040908185019080840286018301878501865b838110156147b657603f198984030185528151610240815181865261489882870182614660565b838b0151878c0152898401518a880152606080850151908801526080808501519088015260a0808501519088015260c0808501519088015260e0808501519088015261010080850151888303828a015291935091506148f78382614660565b92505050610120808301518187015250610140808301518683038288015261491f8382614660565b610160858101519089015261018080860151908901526101a080860151908901526101c080860151908901526101e080860151898303828b01529194509250905061496a8382614660565b61020085810151908901526102209485015194909701939093525050509386019390860190600101614871565b60208082528251828201819052600091906040908185019080840286018301878501865b838110156147b657603f19898403018552815161010081518186526149e282870182614660565b91505088820151898601528782015188860152606080830151818701525060808083015186830382880152614a178382614660565b9250505060a080830151818701525060c080830151818701525060e08083015192508582038187015250614a4b8183614660565b9689019694505050908601906001016149bb565b600060408252601060408301526f151c985b9cd858dd1a5bdb905919195960821b606083015260806020830152614a996080830184614660565b9392505050565b600060408252600d60408301526c10dbdb9d1c9858dd1059191959609a1b606083015260806020830152614a996080830184614660565b602080825260169082015275092dcecc2d8d2c840c6dedce8e4c2c6e840d2dcc8caf60531b604082015260600190565b60208082526025908201527f43616e6e6f742064656c65746520636f6e74726163743a207061727469657320604082015264195e1a5cdd60da1b606082015260800190565b604080825260139082015272151c985b9cd858dd1a5bdb9cd1195b195d1959606a1b606082015260806020820181905260009082015260a00190565b6040808252600a9082015269506179416476616e636560b01b606082015260806020820181905260009082015260a00190565b602080825260169082015275092dcecc2d8d2c840c2e4e8d2ccc2c6e840d2dcc8caf60531b604082015260600190565b600060408252600c60408301526b14185c9d1e51195b195d195960a21b606083015260806020830152614a996080830184614660565b60208082526039908201527f4163636573732064656e6965642c206f6e6c7920636f6e7472616374206f776e60408201527f65722063616e2063616c6c20746869732066756e6374696f6e00000000000000606082015260800190565b6040808252600c908201526b14995cda591d585b14185a5960a21b606082015260806020820181905260009082015260a00190565b600060408252600f60408301526e10dbdb9d1c9858dd155c19185d1959608a1b606083015260806020830152614a996080830184614660565b6020808252602a908201527f43616e6e6f742064656c65746520636f6e74726163743a207472616e736163746040820152691a5bdb9cc8195e1a5cdd60b21b606082015260800190565b600060408252600f60408301526e105c9d1a599858dd11195b195d1959608a1b606083015260806020830152614a996080830184614660565b60208082526029908201527f43616e6e6f742064656c65746520636f6e74726163743a20736574746c656d656040820152681b9d1cc8195e1a5cdd60ba1b606082015260800190565b6040808252600e908201526d141bdcdd14d95d1d1b195b595b9d60921b606082015260806020820181905260009082015260a00190565b6040808252600e908201526d14185c9d1a595cd1195b195d195960921b606082015260806020820181905260009082015260a00190565b60208082526027908201527f43616e6e6f742064656c65746520636f6e74726163743a2061727469666163746040820152661cc8195e1a5cdd60ca1b606082015260800190565b60408082526010908201526f105c9d1a599858dd1cd1195b195d195960821b606082015260806020820181905260009082015260a00190565b602080825260139082015272092dcecc2d8d2c840e0c2e4e8f240d2dcc8caf606b1b604082015260600190565b600060408252600f60408301526e14d95d1d1b195b595b9d1059191959608a1b606083015260806020830152614a996080830184614660565b600060408252600a60408301526914185c9d1e505919195960b21b606083015260806020830152614a996080830184614660565b60408082526012908201527114d95d1d1b195b595b9d1cd1195b195d195960721b606082015260806020820181905260009082015260a00190565b600060408252600f60408301526e10dbdb9d1c9858dd11195b195d1959608a1b606083015260806020830152614a996080830184614660565b600060408252600d60408301526c105c9d1a599858dd1059191959609a1b606083015260806020830152614a996080830184614660565b60408082526010908201526f2a3930b739b0b1ba34b7b722b93937b960811b6060820152608060208201819052601a908201527f4e6f2076616c696420736574746c656d656e7420706572696f6400000000000060a082015260c00190565b60006020825282516101a08060208501526150696101c0850183614660565b91506020850151601f19808685030160408701526150878483614660565b935060408701519150808685030160608701526150a48483614660565b935060608701519150808685030160808701526150c18483614660565b9350608087015160a087015260a087015160c087015260c087015160e087015260e0870151915061010082818801528088015192505061012082818801528088015192505061014081878603018188015261511c8584614660565b94508088015192505061016081878603018188015261513b8584614660565b945080880151925050506101806151548187018361465a565b86015190506151658583018261465a565b5090949350505050565b90815260200190565b60405181810167ffffffffffffffff8111828210171561519a5761519a6152e7565b604052919050565b600082198211156151b5576151b56152d1565b500190565b600060ff821660ff84168060ff038211156151d7576151d76152d1565b019392505050565b6000826151fa57634e487b7160e01b81526012600452602481fd5b500490565b6000816000190483118215151615615219576152196152d1565b500290565b600082821015615230576152306152d1565b500390565b60005b83811015615250578181015183820152602001615238565b83811115613b645750506000910152565b60028104600182168061527557607f821691505b6020821081141561529657634e487b7160e01b600052602260045260246000fd5b50919050565b60006000198214156152b0576152b06152d1565b5060010190565b6000600160ff1b8214156152cd576152cd6152d1565b0390565b634e487b7160e01b600052601160045260246000fd5b634e487b7160e01b600052604160045260246000fdfe345796c5f37ac4d00f0bd7eebb6ba729df51ddd74dafb2db6bf0c4a4a354577aa264697066735822122088799cb14f25449515871c39be8a806ec8ab6d29f0ece5bed922862f1d0ed32164736f6c63430008000033",
  "immutableReferences": {},
  "source": "// SPDX-License-Identifier: MIT\npragma solidity ^0.8.0;\n\ncontract Delivery {\n\n    address public owner;\n\n    Contract[] contracts;                                   // [contract_idx]\n    mapping (uint => Settlement[]) private settlements;     // contract_idx => settlement[]\n    mapping (uint => Transaction[]) private transactions;   // contract_idx => transaction[]\n    mapping (uint => Artifact[]) private artifacts;         // contract_idx => artifact_list[]\n    mapping (uint => Party[]) private parties;              // contract_idx => party[]\n\n    // every field ending in _dt is a unix timestamp\n    // every field ending in _amt is an integer representing a float with 2 decimals\n    // every field ending in _pct is an integer represending a float value with 4 decimals \n    // every field ending in _confirm is a string returned from the fiat payment provider\n\n    struct Contract {\n        string extended_data;           // json extended data\n        string contract_name;           // description for display purposes\n        string contract_type;           // the type of contract, e.g. ticketing, construction\n        string funding_instr;           // buyer funding instructions\n        uint service_fee_pct;           // service fee pct <= service_fee_max\n        uint service_fee_max;           // maximum fee that can be charged if the rate is variable\n        uint service_fee_amt;           // flat rate amt if not percentage based\n        uint advance_pct;               // amount of money that will be advanced to seller for every transaction\n        uint late_fee_pct;              // an APR, daily rate calculated as late_fee_pct / 365\n        string transact_logic;          // jsonlogic formula for calculating transaction amount\n        string notes;                   // contract notes, can be used for additonal data requests\n        bool is_active;                 // instead of deleting, clear this flag to False\n        bool is_quote;                  // true if still in the quote stage\n    }\n\n    struct Settlement {\n        string extended_data;           // json extended data\n        uint settle_due_dt;             // date the payment is due \n        uint transact_min_dt;           // min date the transaction is made \n        uint transact_max_dt;           // max date the transaction is made \n        uint transact_count;            // number of transactions in this current settlement period \n        uint settle_pay_dt;             // when the settlement was paid\n        uint settle_exp_amt;            // expected amount of settlement 0\n        uint settle_pay_amt;            // actual amount paid from the buyer\n        string settle_confirm;          // confirmation from payment source\n        uint dispute_amt;               // if expected  < actual, assume there was a dispute\n        string dispute_reason;          // if dispute_amt > 0, what was the reason (if provided)\n        uint days_late;                 // number of days late the payment was made\n        uint late_fee_amt;              // amount of the late fee, will be taken out of the residual\n        uint residual_pay_dt;           // date and time the residual was paid\n        uint residual_pay_amt;          // will equal residual_calc_amt after payment intitiated\n        string residual_confirm;        // residual confirmation from the payment source\n        uint residual_exp_amt;          // expected amount of the residual\n        uint residual_calc_amt;         // what the actual residual will be (exp - late_fee - dispute)\n    }\n\n    struct Transaction {\n        string extended_data;           // json extended data\n        uint transact_dt;               // date and time of the transaction\n        int transact_amt;               // calculated value of a transaction, negative if an adjustment\n        uint advance_amt;               // advance_amt * advance_pct - service_fee_amt\n        string transact_data;           // data regarding transaction for jsonlogic    \n        uint advance_pay_dt;            // payment of advance\n        uint advance_pay_amt;           // will equal advance amt after payment initiated\n        string advance_confirm;         // payment confirmation of the advance from payment source\n    }\n\n    struct Artifact {\n        string artifact_id;             // external identifier\n        string extended_data;           // json extended data\n        uint added_dt;                  // date artifact was added\n        string doc_title;               // name of documents\n        string doc_type;                // document type\n    }\n\n    struct Party {\n        string party_code;              // code associated with a party\n        address party_address;          // wallet address\n        string party_type;              // the type of party associated with contract\n    }\n\n    event ContractEvent(uint indexed contract_idx, string eventType, string details);\n\n    constructor() {\n        owner = msg.sender;\n    }\n\n    modifier onlyOwner() {\n        require(msg.sender == owner, \"Access denied, only contract owner can call this function\");\n        _;\n    }\n\n    function getContractCount() public view returns (uint) {\n        return contracts.length;\n    }\n\n    function getContract(uint contract_idx) public view returns (Contract memory) {\n        require(contract_idx < contracts.length, \"Invalid contract index\");\n        return contracts[contract_idx];\n    }\n\n    function addContract (Contract memory contract_) public onlyOwner {\n        contracts.push(contract_);\n        emit ContractEvent(contracts.length - 1, \"ContractAdded\", contract_.contract_name);\n    }\n\n    function logContractChange(uint contract_idx, string memory field, string memory old_value, string memory new_value) private {\n        if (keccak256(bytes(old_value)) != keccak256(bytes(new_value))) {\n            emit ContractEvent(contract_idx, \"ContractUpdated\", string(abi.encodePacked(field, \":\", old_value, \"->\", new_value)));\n        }\n    }\n\n    function updateContract (uint contract_idx, Contract memory contract_) public onlyOwner {\n        require(contract_idx < contracts.length, \"Invalid contract index\");\n        logContractChange(contract_idx, \"extended_data\", contracts[contract_idx].extended_data, contract_.extended_data);\n        logContractChange(contract_idx, \"contract_name\", contracts[contract_idx].contract_name, contract_.contract_name);\n        logContractChange(contract_idx, \"contract_type\", contracts[contract_idx].contract_type, contract_.contract_type);\n        logContractChange(contract_idx, \"funding_instr\", contracts[contract_idx].funding_instr, contract_.funding_instr);\n        logContractChange(contract_idx, \"service_fee_pct\", uintToString(contracts[contract_idx].service_fee_pct), uintToString(contract_.service_fee_pct));\n        logContractChange(contract_idx, \"service_fee_max\", uintToString(contracts[contract_idx].service_fee_max), uintToString(contract_.service_fee_max));\n        logContractChange(contract_idx, \"service_fee_amt\", uintToString(contracts[contract_idx].service_fee_amt), uintToString(contract_.service_fee_amt));\n        logContractChange(contract_idx, \"advance_pct\", uintToString(contracts[contract_idx].advance_pct), uintToString(contract_.advance_pct));\n        logContractChange(contract_idx, \"late_fee_pct\", uintToString(contracts[contract_idx].late_fee_pct), uintToString(contract_.late_fee_pct));\n        logContractChange(contract_idx, \"transact_logic\", contracts[contract_idx].transact_logic, contract_.transact_logic);\n        logContractChange(contract_idx, \"notes\", contracts[contract_idx].notes, contract_.notes);\n        logContractChange(contract_idx, \"is_active\", boolToString(contracts[contract_idx].is_active), boolToString(contract_.is_active));\n        logContractChange(contract_idx, \"is_quote\", boolToString(contracts[contract_idx].is_quote), boolToString(contract_.is_quote));\n        contracts[contract_idx] = contract_;\n    }\n\n    function deleteContract(uint contract_idx) public onlyOwner {\n        require(contract_idx < contracts.length, \"Invalid contract index\");\n        require(settlements[contract_idx].length == 0, \"Cannot delete contract: settlements exist\");\n        require(transactions[contract_idx].length == 0, \"Cannot delete contract: transactions exist\");\n        require(artifacts[contract_idx].length == 0, \"Cannot delete contract: artifacts exist\");\n        require(parties[contract_idx].length == 0, \"Cannot delete contract: parties exist\");\n\n        for (uint i = contract_idx; i < contracts.length - 1; i++) {\n            contracts[i] = contracts[i + 1];\n        }\n\n        contracts.pop();\n        emit ContractEvent(contract_idx, \"ContractDeleted\", uintToString(contract_idx));\n    }\n\n    function getParties(uint contract_idx) public view returns (Party[] memory) {\n        require(contract_idx < contracts.length, \"Invalid contract index\");\n        return parties[contract_idx];\n    }\n\n    function addParty(uint contract_idx, Party memory party) public onlyOwner {\n        require(contract_idx < contracts.length, \"Invalid contract index\");\n        parties[contract_idx].push(party);\n        emit ContractEvent(contract_idx, \"PartyAdded\", party.party_code);\n    }\n\n    function deleteParty(uint contract_idx, uint party_idx) public onlyOwner {\n        require(contract_idx < contracts.length, \"Invalid contract index\");\n        require(party_idx < parties[contract_idx].length, \"Invalid party index\");\n\n        for (uint i = party_idx; i < parties[contract_idx].length - 1; i++) {\n            parties[contract_idx][i] = parties[contract_idx][i + 1];\n        }\n\n        parties[contract_idx].pop();\n\n        emit ContractEvent(contract_idx, \"PartyDeleted\", uintToString(party_idx));\n    }\n\n    function deleteParties(uint contract_idx) public onlyOwner {\n        require(contract_idx < contracts.length, \"Invalid contract index\");\n        delete parties[contract_idx];\n        emit ContractEvent(contract_idx, \"PartiesDeleted\", \"\");\n    }\n\n    function getArtifacts(uint contract_idx) public view returns (Artifact[] memory) {\n        require(contract_idx < contracts.length, \"Invalid contract index\");\n        return artifacts[contract_idx];\n    }\n\n    function addArtifact(uint contract_idx, string memory artifact_id, string memory doc_title, string memory doc_type, uint added_dt) public onlyOwner {\n        require(contract_idx < contracts.length, \"Invalid contract index\");\n        Artifact memory artifact;\n        artifact.added_dt = added_dt;\n        artifact.artifact_id = artifact_id;\n        artifact.doc_title = doc_title;\n        artifact.doc_type = doc_type; \n        artifacts[contract_idx].push(artifact);\n        emit ContractEvent(contract_idx, \"ArtifactAdded\", doc_title);\n    }\n\n    function deleteArtifact(uint contract_idx, uint artifact_idx) public onlyOwner {\n        require(contract_idx < contracts.length, \"Invalid contract index\");\n        require(artifact_idx < artifacts[contract_idx].length, \"Invalid artifact index\");\n\n        for (uint i = artifact_idx; i < artifacts[contract_idx].length - 1; i++) {\n            artifacts[contract_idx][i] = artifacts[contract_idx][i + 1];\n        }\n\n        artifacts[contract_idx].pop();\n\n        emit ContractEvent(contract_idx, \"ArtifactDeleted\", uintToString(artifact_idx));\n    }\n\n    function deleteArtifacts(uint contract_idx) public onlyOwner {\n        require(contract_idx < contracts.length, \"Invalid contract index\");\n        delete artifacts[contract_idx];\n        emit ContractEvent(contract_idx, \"ArtifactsDeleted\", \"\");\n    }\n\n    function getSettlements(uint contract_idx) public view returns (Settlement[] memory) {\n        require(contract_idx < contracts.length, \"Invalid contract index\");\n        return settlements[contract_idx];\n    }\n\n    function addSettlement(uint contract_idx, string memory extended_data, uint settle_due_dt, uint transact_min_dt, uint transact_max_dt) public onlyOwner {\n        require(contract_idx < contracts.length, \"Invalid contract index\");\n        Settlement memory settlement;\n        settlement.settle_due_dt = settle_due_dt;\n        settlement.transact_min_dt = transact_min_dt;\n        settlement.transact_max_dt = transact_max_dt;\n        settlement.extended_data = extended_data;\n        settlements[contract_idx].push(settlement);\n        emit ContractEvent(contract_idx, \"SettlementAdded\", settlement.extended_data);\n    }\n\n    function deleteSettlements(uint contract_idx) public onlyOwner {\n        require(contract_idx < contracts.length, \"Invalid contract index\");\n        delete settlements[contract_idx];\n        emit ContractEvent(contract_idx, \"SettlementsDeleted\", \"\");\n    }\n\n    function getTransactions(uint contract_idx) public view returns (Transaction[] memory) {\n        require(contract_idx < contracts.length, \"Invalid contract index\");\n        return transactions[contract_idx];\n    }\n\n    function addTransaction(uint contract_idx, string memory extended_data, uint transact_dt, int transact_amt, string memory transact_data) public onlyOwner {\n        require(contract_idx < contracts.length, \"Invalid contract index\");\n\n        Transaction memory transact;\n        transact.extended_data = extended_data;\n        transact.transact_dt = transact_dt;\n        transact.transact_amt = transact_amt;\n        transact.transact_data = transact_data;\n\n        bool settle_found = false;\n\n        for (uint i = 0; i < settlements[contract_idx].length; i++) {\n            Settlement storage settlement = settlements[contract_idx][i];\n            if (transact_dt >= settlement.transact_min_dt && transact_dt < settlement.transact_max_dt) {\n                settlement.transact_count++;\n                updateSettlementAmounts(settlement, contracts[contract_idx], transact_amt);\n                settle_found = true;\n            }\n        }\n\n        if (settle_found) {\n            calculateAdvanceAmount(transact, contracts[contract_idx]);\n            transactions[contract_idx].push(transact);\n            emit ContractEvent(contract_idx, \"TransactionAdded\", transact.extended_data);\n        } else {\n            emit ContractEvent(contract_idx, \"TransactionError\", \"No valid settlement period\");\n        }\n    }\n\n    function updateSettlementAmounts(Settlement storage settlement, Contract storage contract_, int transact_amt) internal {\n        if (transact_amt < 0) {\n            uint abs_transact_amt = uint(-transact_amt);\n        \n            // Ensure settle_exp_amt doesn't go below 0\n            if (settlement.settle_exp_amt >= abs_transact_amt) {\n                settlement.settle_exp_amt -= abs_transact_amt;\n            } else {\n                settlement.settle_exp_amt = 0;\n            }\n        \n            // Ensure residual_exp_amt doesn't go below 0\n            uint adjustment = abs_transact_amt * contract_.advance_pct / 10000;\n            if (settlement.residual_exp_amt >= adjustment) {\n                settlement.residual_exp_amt -= adjustment;\n            } else {\n                settlement.residual_exp_amt = 0;\n            }\n        } else {\n            uint uint_transact_amt = uint(transact_amt);\n            settlement.settle_exp_amt += uint_transact_amt;\n            settlement.residual_exp_amt += uint_transact_amt * (10000 - contract_.advance_pct) / 10000;\n        }\n    }\n\n    function calculateAdvanceAmount(Transaction memory transact, Contract storage contract_) internal view {\n        if (transact.transact_amt > 0) {\n            uint uint_transact_amt = uint(transact.transact_amt);\n            uint service_fee = (contract_.service_fee_pct * uint_transact_amt / 10000) + contract_.service_fee_amt;\n            uint advance_amt_calculated = (uint_transact_amt * contract_.advance_pct / 10000);\n\n            if (advance_amt_calculated >= service_fee) {\n                transact.advance_amt = advance_amt_calculated - service_fee;\n            } else {\n                transact.advance_amt = 0;\n            }\n        } else {\n            transact.advance_amt = 0;\n        }\n    }\n\n    function deleteTransactions(uint contract_idx) public onlyOwner {\n        require(contract_idx < contracts.length, \"Invalid contract index\");\n        delete transactions[contract_idx];\n        emit ContractEvent(contract_idx, \"TransactionsDeleted\", \"\");\n    }\n\n    function payAdvance(uint contract_idx, uint transact_idx, uint advance_pay_dt, uint advance_pay_amt, string memory advance_confirm) public onlyOwner {\n        require(contract_idx < contracts.length, \"Invalid contract index\");\n        transactions[contract_idx][transact_idx].advance_pay_dt = advance_pay_dt;\n        transactions[contract_idx][transact_idx].advance_pay_amt = advance_pay_amt;\n        transactions[contract_idx][transact_idx].advance_confirm = advance_confirm;\n        emit ContractEvent(contract_idx, \"PayAdvance\", \"\");\n    }\n\n    function postSettlement(uint contract_idx, uint settle_idx, uint settle_pay_dt, uint settle_pay_amt, string memory settle_confirm, string memory dispute_reason) public onlyOwner {\n        require(contract_idx < contracts.length, \"Invalid contract index\");\n        settlements[contract_idx][settle_idx].settle_pay_dt = settle_pay_dt;\n        settlements[contract_idx][settle_idx].settle_pay_amt = settle_pay_amt;\n        settlements[contract_idx][settle_idx].settle_confirm = settle_confirm;\n\n        if (settle_pay_dt > settlements[contract_idx][settle_idx].settle_due_dt) {\n            settlements[contract_idx][settle_idx].days_late = (settle_pay_dt - settlements[contract_idx][settle_idx].settle_due_dt) / 60 / 60 / 24;\n            settlements[contract_idx][settle_idx].late_fee_amt = (settlements[contract_idx][settle_idx].days_late * \n                ((contracts[contract_idx].late_fee_pct * 100000) / 365) * settlements[contract_idx][settle_idx].settle_exp_amt) / 1000000000;\n        }\n\n        if (settle_pay_amt < settlements[contract_idx][settle_idx].residual_exp_amt) {\n            settlements[contract_idx][settle_idx].dispute_amt = settlements[contract_idx][settle_idx].residual_exp_amt - settle_pay_amt;\n            settlements[contract_idx][settle_idx].dispute_reason = dispute_reason;\n        } \n\n        if ((settlements[contract_idx][settle_idx].residual_exp_amt - settlements[contract_idx][settle_idx].late_fee_amt - settlements[contract_idx][settle_idx].dispute_amt) > 0) {\n            settlements[contract_idx][settle_idx].residual_calc_amt = settlements[contract_idx][settle_idx].residual_exp_amt - settlements[contract_idx][settle_idx].late_fee_amt -\n                settlements[contract_idx][settle_idx].dispute_amt;\n        } else {\n            settlements[contract_idx][settle_idx].residual_calc_amt = 0;\n        }\n\n        emit ContractEvent(contract_idx, \"PostSettlement\", \"\");\n    }\n\n    function payResidual(uint contract_idx, uint settle_idx, uint residual_pay_dt, uint residual_pay_amt, string memory residual_confirm) public onlyOwner {\n        require(contract_idx < contracts.length, \"Invalid contract index\");\n        settlements[contract_idx][settle_idx].residual_pay_dt = residual_pay_dt;\n        settlements[contract_idx][settle_idx].residual_pay_amt = residual_pay_amt;\n        settlements[contract_idx][settle_idx].residual_confirm = residual_confirm;\n        emit ContractEvent(contract_idx, \"ResidualPaid\", \"\");\n    }\n\n    function uintToString(uint v) internal pure returns (string memory) {\n        if (v == 0) {\n            return \"0\";\n        }\n        uint j = v;\n        uint len;\n        while (j != 0) {\n            len++;\n            j /= 10;\n        }\n        bytes memory bstr = new bytes(len);\n        uint k = len;\n        while (v != 0) {\n            k = k - 1;\n            uint8 temp = (48 + uint8(v - v / 10 * 10));\n            bytes1 b1 = bytes1(temp);\n            bstr[k] = b1;\n            v /= 10;\n        }\n        return string(bstr);\n    }\n\n    function boolToString(bool v) internal pure returns (string memory) {\n        return v ? \"true\" : \"false\";\n    }\n}",
  "sourcePath": "/Users/davidnichamoff/Projects/FIZIT_DEV/truffle/contracts/Delivery.sol",
  "compiler": {
    "name": "solc",
    "version": "0.8.0+commit.c7dfd78e.Emscripten.clang"
  },
  "schemaVersion": "3.4.16",
  "updatedAt": "2024-08-03T13:04:36.764Z",
  "networkType": "ethereum",
  "devdoc": {
    "kind": "dev",
    "methods": {},
    "version": 1
  },
  "userdoc": {
    "kind": "user",
    "methods": {},
    "version": 1
  }
}