{
  "contractName": "Delivery",
  "abi": [
    {
      "anonymous": false,
      "inputs": [
        {
          "indexed": true,
          "internalType": "uint256",
          "name": "contract_idx",
          "type": "uint256"
        },
        {
          "indexed": false,
          "internalType": "string",
          "name": "eventType",
          "type": "string"
        },
        {
          "indexed": false,
          "internalType": "string",
          "name": "details",
          "type": "string"
        }
      ],
      "name": "ContractEvent",
      "type": "event"
    },
    {
      "inputs": [],
      "name": "owner",
      "outputs": [
        {
          "internalType": "address",
          "name": "",
          "type": "address"
        }
      ],
      "stateMutability": "view",
      "type": "function",
      "constant": true
    },
    {
      "inputs": [],
      "name": "getContractCount",
      "outputs": [
        {
          "internalType": "uint256",
          "name": "",
          "type": "uint256"
        }
      ],
      "stateMutability": "view",
      "type": "function",
      "constant": true
    },
    {
      "inputs": [
        {
          "internalType": "uint256",
          "name": "contract_idx",
          "type": "uint256"
        }
      ],
      "name": "getContract",
      "outputs": [
        {
          "components": [
            {
              "internalType": "string",
              "name": "extended_data",
              "type": "string"
            },
            {
              "internalType": "string",
              "name": "contract_name",
              "type": "string"
            },
            {
              "internalType": "string",
              "name": "contract_type",
              "type": "string"
            },
            {
              "internalType": "string",
              "name": "funding_instr",
              "type": "string"
            },
            {
              "internalType": "uint256",
              "name": "service_fee_pct",
              "type": "uint256"
            },
            {
              "internalType": "uint256",
              "name": "service_fee_max",
              "type": "uint256"
            },
            {
              "internalType": "int256",
              "name": "service_fee_amt",
              "type": "int256"
            },
            {
              "internalType": "uint256",
              "name": "advance_pct",
              "type": "uint256"
            },
            {
              "internalType": "uint256",
              "name": "late_fee_pct",
              "type": "uint256"
            },
            {
              "internalType": "string",
              "name": "transact_logic",
              "type": "string"
            },
            {
              "internalType": "int256",
              "name": "min_threshold",
              "type": "int256"
            },
            {
              "internalType": "int256",
              "name": "max_threshold",
              "type": "int256"
            },
            {
              "internalType": "string",
              "name": "notes",
              "type": "string"
            },
            {
              "internalType": "bool",
              "name": "is_active",
              "type": "bool"
            },
            {
              "internalType": "bool",
              "name": "is_quote",
              "type": "bool"
            }
          ],
          "internalType": "struct Delivery.Contract",
          "name": "",
          "type": "tuple"
        }
      ],
      "stateMutability": "view",
      "type": "function",
      "constant": true
    },
    {
      "inputs": [
        {
          "components": [
            {
              "internalType": "string",
              "name": "extended_data",
              "type": "string"
            },
            {
              "internalType": "string",
              "name": "contract_name",
              "type": "string"
            },
            {
              "internalType": "string",
              "name": "contract_type",
              "type": "string"
            },
            {
              "internalType": "string",
              "name": "funding_instr",
              "type": "string"
            },
            {
              "internalType": "uint256",
              "name": "service_fee_pct",
              "type": "uint256"
            },
            {
              "internalType": "uint256",
              "name": "service_fee_max",
              "type": "uint256"
            },
            {
              "internalType": "int256",
              "name": "service_fee_amt",
              "type": "int256"
            },
            {
              "internalType": "uint256",
              "name": "advance_pct",
              "type": "uint256"
            },
            {
              "internalType": "uint256",
              "name": "late_fee_pct",
              "type": "uint256"
            },
            {
              "internalType": "string",
              "name": "transact_logic",
              "type": "string"
            },
            {
              "internalType": "int256",
              "name": "min_threshold",
              "type": "int256"
            },
            {
              "internalType": "int256",
              "name": "max_threshold",
              "type": "int256"
            },
            {
              "internalType": "string",
              "name": "notes",
              "type": "string"
            },
            {
              "internalType": "bool",
              "name": "is_active",
              "type": "bool"
            },
            {
              "internalType": "bool",
              "name": "is_quote",
              "type": "bool"
            }
          ],
          "internalType": "struct Delivery.Contract",
          "name": "contract_",
          "type": "tuple"
        }
      ],
      "name": "addContract",
      "outputs": [],
      "stateMutability": "nonpayable",
      "type": "function"
    },
    {
      "inputs": [
        {
          "internalType": "uint256",
          "name": "contract_idx",
          "type": "uint256"
        },
        {
          "components": [
            {
              "internalType": "string",
              "name": "extended_data",
              "type": "string"
            },
            {
              "internalType": "string",
              "name": "contract_name",
              "type": "string"
            },
            {
              "internalType": "string",
              "name": "contract_type",
              "type": "string"
            },
            {
              "internalType": "string",
              "name": "funding_instr",
              "type": "string"
            },
            {
              "internalType": "uint256",
              "name": "service_fee_pct",
              "type": "uint256"
            },
            {
              "internalType": "uint256",
              "name": "service_fee_max",
              "type": "uint256"
            },
            {
              "internalType": "int256",
              "name": "service_fee_amt",
              "type": "int256"
            },
            {
              "internalType": "uint256",
              "name": "advance_pct",
              "type": "uint256"
            },
            {
              "internalType": "uint256",
              "name": "late_fee_pct",
              "type": "uint256"
            },
            {
              "internalType": "string",
              "name": "transact_logic",
              "type": "string"
            },
            {
              "internalType": "int256",
              "name": "min_threshold",
              "type": "int256"
            },
            {
              "internalType": "int256",
              "name": "max_threshold",
              "type": "int256"
            },
            {
              "internalType": "string",
              "name": "notes",
              "type": "string"
            },
            {
              "internalType": "bool",
              "name": "is_active",
              "type": "bool"
            },
            {
              "internalType": "bool",
              "name": "is_quote",
              "type": "bool"
            }
          ],
          "internalType": "struct Delivery.Contract",
          "name": "contract_",
          "type": "tuple"
        }
      ],
      "name": "updateContract",
      "outputs": [],
      "stateMutability": "nonpayable",
      "type": "function"
    },
    {
      "inputs": [
        {
          "internalType": "uint256",
          "name": "contract_idx",
          "type": "uint256"
        }
      ],
      "name": "deleteContract",
      "outputs": [],
      "stateMutability": "nonpayable",
      "type": "function"
    },
    {
      "inputs": [
        {
          "internalType": "uint256",
          "name": "contract_idx",
          "type": "uint256"
        }
      ],
      "name": "getParties",
      "outputs": [
        {
          "components": [
            {
              "internalType": "string",
              "name": "party_code",
              "type": "string"
            },
            {
              "internalType": "address",
              "name": "party_address",
              "type": "address"
            },
            {
              "internalType": "string",
              "name": "party_type",
              "type": "string"
            }
          ],
          "internalType": "struct Delivery.Party[]",
          "name": "",
          "type": "tuple[]"
        }
      ],
      "stateMutability": "view",
      "type": "function",
      "constant": true
    },
    {
      "inputs": [
        {
          "internalType": "uint256",
          "name": "contract_idx",
          "type": "uint256"
        },
        {
          "components": [
            {
              "internalType": "string",
              "name": "party_code",
              "type": "string"
            },
            {
              "internalType": "address",
              "name": "party_address",
              "type": "address"
            },
            {
              "internalType": "string",
              "name": "party_type",
              "type": "string"
            }
          ],
          "internalType": "struct Delivery.Party",
          "name": "party",
          "type": "tuple"
        }
      ],
      "name": "addParty",
      "outputs": [],
      "stateMutability": "nonpayable",
      "type": "function"
    },
    {
      "inputs": [
        {
          "internalType": "uint256",
          "name": "contract_idx",
          "type": "uint256"
        },
        {
          "internalType": "uint256",
          "name": "party_idx",
          "type": "uint256"
        }
      ],
      "name": "deleteParty",
      "outputs": [],
      "stateMutability": "nonpayable",
      "type": "function"
    },
    {
      "inputs": [
        {
          "internalType": "uint256",
          "name": "contract_idx",
          "type": "uint256"
        }
      ],
      "name": "deleteParties",
      "outputs": [],
      "stateMutability": "nonpayable",
      "type": "function"
    },
    {
      "inputs": [
        {
          "internalType": "uint256",
          "name": "contract_idx",
          "type": "uint256"
        }
      ],
      "name": "getArtifacts",
      "outputs": [
        {
          "components": [
            {
              "internalType": "string",
              "name": "doc_title",
              "type": "string"
            },
            {
              "internalType": "string",
              "name": "doc_type",
              "type": "string"
            },
            {
              "internalType": "uint256",
              "name": "added_dt",
              "type": "uint256"
            },
            {
              "internalType": "string",
              "name": "s3_bucket",
              "type": "string"
            },
            {
              "internalType": "string",
              "name": "s3_object_key",
              "type": "string"
            },
            {
              "internalType": "string",
              "name": "s3_version_id",
              "type": "string"
            }
          ],
          "internalType": "struct Delivery.Artifact[]",
          "name": "",
          "type": "tuple[]"
        }
      ],
      "stateMutability": "view",
      "type": "function",
      "constant": true
    },
    {
      "inputs": [
        {
          "internalType": "uint256",
          "name": "contract_idx",
          "type": "uint256"
        },
        {
          "internalType": "string",
          "name": "doc_title",
          "type": "string"
        },
        {
          "internalType": "string",
          "name": "doc_type",
          "type": "string"
        },
        {
          "internalType": "uint256",
          "name": "added_dt",
          "type": "uint256"
        },
        {
          "internalType": "string",
          "name": "s3_bucket",
          "type": "string"
        },
        {
          "internalType": "string",
          "name": "s3_object_key",
          "type": "string"
        },
        {
          "internalType": "string",
          "name": "s3_version_id",
          "type": "string"
        }
      ],
      "name": "addArtifact",
      "outputs": [],
      "stateMutability": "nonpayable",
      "type": "function"
    },
    {
      "inputs": [
        {
          "internalType": "uint256",
          "name": "contract_idx",
          "type": "uint256"
        },
        {
          "internalType": "uint256",
          "name": "artifact_idx",
          "type": "uint256"
        }
      ],
      "name": "deleteArtifact",
      "outputs": [],
      "stateMutability": "nonpayable",
      "type": "function"
    },
    {
      "inputs": [
        {
          "internalType": "uint256",
          "name": "contract_idx",
          "type": "uint256"
        }
      ],
      "name": "deleteArtifacts",
      "outputs": [],
      "stateMutability": "nonpayable",
      "type": "function"
    },
    {
      "inputs": [
        {
          "internalType": "uint256",
          "name": "contract_idx",
          "type": "uint256"
        }
      ],
      "name": "getSettlements",
      "outputs": [
        {
          "components": [
            {
              "internalType": "string",
              "name": "extended_data",
              "type": "string"
            },
            {
              "internalType": "uint256",
              "name": "settle_due_dt",
              "type": "uint256"
            },
            {
              "internalType": "uint256",
              "name": "transact_min_dt",
              "type": "uint256"
            },
            {
              "internalType": "uint256",
              "name": "transact_max_dt",
              "type": "uint256"
            },
            {
              "internalType": "uint256",
              "name": "transact_count",
              "type": "uint256"
            },
            {
              "internalType": "int256",
              "name": "advance_amt",
              "type": "int256"
            },
            {
              "internalType": "int256",
              "name": "advance_amt_gross",
              "type": "int256"
            },
            {
              "internalType": "uint256",
              "name": "settle_pay_dt",
              "type": "uint256"
            },
            {
              "internalType": "int256",
              "name": "settle_exp_amt",
              "type": "int256"
            },
            {
              "internalType": "int256",
              "name": "settle_pay_amt",
              "type": "int256"
            },
            {
              "internalType": "string",
              "name": "settle_confirm",
              "type": "string"
            },
            {
              "internalType": "int256",
              "name": "dispute_amt",
              "type": "int256"
            },
            {
              "internalType": "string",
              "name": "dispute_reason",
              "type": "string"
            },
            {
              "internalType": "uint256",
              "name": "days_late",
              "type": "uint256"
            },
            {
              "internalType": "int256",
              "name": "late_fee_amt",
              "type": "int256"
            },
            {
              "internalType": "uint256",
              "name": "residual_pay_dt",
              "type": "uint256"
            },
            {
              "internalType": "int256",
              "name": "residual_pay_amt",
              "type": "int256"
            },
            {
              "internalType": "string",
              "name": "residual_confirm",
              "type": "string"
            },
            {
              "internalType": "int256",
              "name": "residual_exp_amt",
              "type": "int256"
            },
            {
              "internalType": "int256",
              "name": "residual_calc_amt",
              "type": "int256"
            }
          ],
          "internalType": "struct Delivery.Settlement[]",
          "name": "",
          "type": "tuple[]"
        }
      ],
      "stateMutability": "view",
      "type": "function",
      "constant": true
    },
    {
      "inputs": [
        {
          "internalType": "uint256",
          "name": "contract_idx",
          "type": "uint256"
        },
        {
          "internalType": "string",
          "name": "extended_data",
          "type": "string"
        },
        {
          "internalType": "uint256",
          "name": "settle_due_dt",
          "type": "uint256"
        },
        {
          "internalType": "uint256",
          "name": "transact_min_dt",
          "type": "uint256"
        },
        {
          "internalType": "uint256",
          "name": "transact_max_dt",
          "type": "uint256"
        }
      ],
      "name": "addSettlement",
      "outputs": [],
      "stateMutability": "nonpayable",
      "type": "function"
    },
    {
      "inputs": [
        {
          "internalType": "uint256",
          "name": "contract_idx",
          "type": "uint256"
        }
      ],
      "name": "deleteSettlements",
      "outputs": [],
      "stateMutability": "nonpayable",
      "type": "function"
    },
    {
      "inputs": [
        {
          "internalType": "uint256",
          "name": "contract_idx",
          "type": "uint256"
        }
      ],
      "name": "getTransactions",
      "outputs": [
        {
          "components": [
            {
              "internalType": "string",
              "name": "extended_data",
              "type": "string"
            },
            {
              "internalType": "uint256",
              "name": "transact_dt",
              "type": "uint256"
            },
            {
              "internalType": "int256",
              "name": "transact_amt",
              "type": "int256"
            },
            {
              "internalType": "int256",
              "name": "service_fee_amt",
              "type": "int256"
            },
            {
              "internalType": "int256",
              "name": "advance_amt",
              "type": "int256"
            },
            {
              "internalType": "string",
              "name": "transact_data",
              "type": "string"
            },
            {
              "internalType": "uint256",
              "name": "advance_pay_dt",
              "type": "uint256"
            },
            {
              "internalType": "uint256",
              "name": "advance_pay_amt",
              "type": "uint256"
            },
            {
              "internalType": "string",
              "name": "advance_confirm",
              "type": "string"
            }
          ],
          "internalType": "struct Delivery.Transaction[]",
          "name": "",
          "type": "tuple[]"
        }
      ],
      "stateMutability": "view",
      "type": "function",
      "constant": true
    },
    {
      "inputs": [
        {
          "internalType": "uint256",
          "name": "contract_idx",
          "type": "uint256"
        }
      ],
      "name": "deleteTransactions",
      "outputs": [],
      "stateMutability": "nonpayable",
      "type": "function"
    },
    {
      "inputs": [
        {
          "internalType": "uint256",
          "name": "contract_idx",
          "type": "uint256"
        },
        {
          "internalType": "string",
          "name": "extended_data",
          "type": "string"
        },
        {
          "internalType": "uint256",
          "name": "transact_dt",
          "type": "uint256"
        },
        {
          "internalType": "int256",
          "name": "transact_amt",
          "type": "int256"
        },
        {
          "internalType": "string",
          "name": "transact_data",
          "type": "string"
        }
      ],
      "name": "addTransaction",
      "outputs": [],
      "stateMutability": "nonpayable",
      "type": "function"
    },
    {
      "inputs": [
        {
          "internalType": "uint256",
          "name": "contract_idx",
          "type": "uint256"
        },
        {
          "internalType": "uint256",
          "name": "transact_idx",
          "type": "uint256"
        },
        {
          "internalType": "uint256",
          "name": "advance_pay_dt",
          "type": "uint256"
        },
        {
          "internalType": "uint256",
          "name": "advance_pay_amt",
          "type": "uint256"
        },
        {
          "internalType": "string",
          "name": "advance_confirm",
          "type": "string"
        }
      ],
      "name": "payAdvance",
      "outputs": [],
      "stateMutability": "nonpayable",
      "type": "function"
    },
    {
      "inputs": [
        {
          "internalType": "uint256",
          "name": "contract_idx",
          "type": "uint256"
        },
        {
          "internalType": "uint256",
          "name": "settle_idx",
          "type": "uint256"
        },
        {
          "internalType": "uint256",
          "name": "settle_pay_dt",
          "type": "uint256"
        },
        {
          "internalType": "int256",
          "name": "settle_pay_amt",
          "type": "int256"
        },
        {
          "internalType": "string",
          "name": "settle_confirm",
          "type": "string"
        },
        {
          "internalType": "string",
          "name": "dispute_reason",
          "type": "string"
        }
      ],
      "name": "postSettlement",
      "outputs": [],
      "stateMutability": "nonpayable",
      "type": "function"
    },
    {
      "inputs": [
        {
          "internalType": "uint256",
          "name": "contract_idx",
          "type": "uint256"
        },
        {
          "internalType": "uint256",
          "name": "settle_idx",
          "type": "uint256"
        },
        {
          "internalType": "uint256",
          "name": "residual_pay_dt",
          "type": "uint256"
        },
        {
          "internalType": "int256",
          "name": "residual_pay_amt",
          "type": "int256"
        },
        {
          "internalType": "string",
          "name": "residual_confirm",
          "type": "string"
        }
      ],
      "name": "payResidual",
      "outputs": [],
      "stateMutability": "nonpayable",
      "type": "function"
    },
    {
      "inputs": [
        {
          "components": [
            {
              "internalType": "string",
              "name": "extended_data",
              "type": "string"
            },
            {
              "internalType": "string",
              "name": "contract_name",
              "type": "string"
            },
            {
              "internalType": "string",
              "name": "contract_type",
              "type": "string"
            },
            {
              "internalType": "string",
              "name": "funding_instr",
              "type": "string"
            },
            {
              "internalType": "uint256",
              "name": "service_fee_pct",
              "type": "uint256"
            },
            {
              "internalType": "uint256",
              "name": "service_fee_max",
              "type": "uint256"
            },
            {
              "internalType": "int256",
              "name": "service_fee_amt",
              "type": "int256"
            },
            {
              "internalType": "uint256",
              "name": "advance_pct",
              "type": "uint256"
            },
            {
              "internalType": "uint256",
              "name": "late_fee_pct",
              "type": "uint256"
            },
            {
              "internalType": "string",
              "name": "transact_logic",
              "type": "string"
            },
            {
              "internalType": "int256",
              "name": "min_threshold",
              "type": "int256"
            },
            {
              "internalType": "int256",
              "name": "max_threshold",
              "type": "int256"
            },
            {
              "internalType": "string",
              "name": "notes",
              "type": "string"
            },
            {
              "internalType": "bool",
              "name": "is_active",
              "type": "bool"
            },
            {
              "internalType": "bool",
              "name": "is_quote",
              "type": "bool"
            }
          ],
          "internalType": "struct Delivery.Contract",
          "name": "contract_",
          "type": "tuple"
        }
      ],
      "name": "importContract",
      "outputs": [],
      "stateMutability": "nonpayable",
      "type": "function"
    },
    {
      "inputs": [
        {
          "internalType": "uint256",
          "name": "contract_idx",
          "type": "uint256"
        },
        {
          "components": [
            {
              "internalType": "string",
              "name": "party_code",
              "type": "string"
            },
            {
              "internalType": "address",
              "name": "party_address",
              "type": "address"
            },
            {
              "internalType": "string",
              "name": "party_type",
              "type": "string"
            }
          ],
          "internalType": "struct Delivery.Party",
          "name": "party",
          "type": "tuple"
        }
      ],
      "name": "importParty",
      "outputs": [],
      "stateMutability": "nonpayable",
      "type": "function"
    },
    {
      "inputs": [
        {
          "internalType": "uint256",
          "name": "contract_idx",
          "type": "uint256"
        },
        {
          "components": [
            {
              "internalType": "string",
              "name": "extended_data",
              "type": "string"
            },
            {
              "internalType": "uint256",
              "name": "settle_due_dt",
              "type": "uint256"
            },
            {
              "internalType": "uint256",
              "name": "transact_min_dt",
              "type": "uint256"
            },
            {
              "internalType": "uint256",
              "name": "transact_max_dt",
              "type": "uint256"
            },
            {
              "internalType": "uint256",
              "name": "transact_count",
              "type": "uint256"
            },
            {
              "internalType": "int256",
              "name": "advance_amt",
              "type": "int256"
            },
            {
              "internalType": "int256",
              "name": "advance_amt_gross",
              "type": "int256"
            },
            {
              "internalType": "uint256",
              "name": "settle_pay_dt",
              "type": "uint256"
            },
            {
              "internalType": "int256",
              "name": "settle_exp_amt",
              "type": "int256"
            },
            {
              "internalType": "int256",
              "name": "settle_pay_amt",
              "type": "int256"
            },
            {
              "internalType": "string",
              "name": "settle_confirm",
              "type": "string"
            },
            {
              "internalType": "int256",
              "name": "dispute_amt",
              "type": "int256"
            },
            {
              "internalType": "string",
              "name": "dispute_reason",
              "type": "string"
            },
            {
              "internalType": "uint256",
              "name": "days_late",
              "type": "uint256"
            },
            {
              "internalType": "int256",
              "name": "late_fee_amt",
              "type": "int256"
            },
            {
              "internalType": "uint256",
              "name": "residual_pay_dt",
              "type": "uint256"
            },
            {
              "internalType": "int256",
              "name": "residual_pay_amt",
              "type": "int256"
            },
            {
              "internalType": "string",
              "name": "residual_confirm",
              "type": "string"
            },
            {
              "internalType": "int256",
              "name": "residual_exp_amt",
              "type": "int256"
            },
            {
              "internalType": "int256",
              "name": "residual_calc_amt",
              "type": "int256"
            }
          ],
          "internalType": "struct Delivery.Settlement",
          "name": "settlement",
          "type": "tuple"
        }
      ],
      "name": "importSettlement",
      "outputs": [],
      "stateMutability": "nonpayable",
      "type": "function"
    },
    {
      "inputs": [
        {
          "internalType": "uint256",
          "name": "contract_idx",
          "type": "uint256"
        },
        {
          "components": [
            {
              "internalType": "string",
              "name": "extended_data",
              "type": "string"
            },
            {
              "internalType": "uint256",
              "name": "transact_dt",
              "type": "uint256"
            },
            {
              "internalType": "int256",
              "name": "transact_amt",
              "type": "int256"
            },
            {
              "internalType": "int256",
              "name": "service_fee_amt",
              "type": "int256"
            },
            {
              "internalType": "int256",
              "name": "advance_amt",
              "type": "int256"
            },
            {
              "internalType": "string",
              "name": "transact_data",
              "type": "string"
            },
            {
              "internalType": "uint256",
              "name": "advance_pay_dt",
              "type": "uint256"
            },
            {
              "internalType": "uint256",
              "name": "advance_pay_amt",
              "type": "uint256"
            },
            {
              "internalType": "string",
              "name": "advance_confirm",
              "type": "string"
            }
          ],
          "internalType": "struct Delivery.Transaction",
          "name": "transaction",
          "type": "tuple"
        }
      ],
      "name": "importTransaction",
      "outputs": [],
      "stateMutability": "nonpayable",
      "type": "function"
    },
    {
      "inputs": [
        {
          "internalType": "uint256",
          "name": "contract_idx",
          "type": "uint256"
        },
        {
          "components": [
            {
              "internalType": "string",
              "name": "doc_title",
              "type": "string"
            },
            {
              "internalType": "string",
              "name": "doc_type",
              "type": "string"
            },
            {
              "internalType": "uint256",
              "name": "added_dt",
              "type": "uint256"
            },
            {
              "internalType": "string",
              "name": "s3_bucket",
              "type": "string"
            },
            {
              "internalType": "string",
              "name": "s3_object_key",
              "type": "string"
            },
            {
              "internalType": "string",
              "name": "s3_version_id",
              "type": "string"
            }
          ],
          "internalType": "struct Delivery.Artifact",
          "name": "artifact",
          "type": "tuple"
        }
      ],
      "name": "importArtifact",
      "outputs": [],
      "stateMutability": "nonpayable",
      "type": "function"
    }
  ],
  "bytecode": "0x608060405234801561001057600080fd5b50615aa380620000216000396000f3fe608060405234801561001057600080fd5b50600436106101c45760003560e01c806388398db9116100f9578063afb1881011610097578063d404aaa711610071578063d404aaa7146103e1578063d5b327f7146103f4578063f633db9314610407578063fcf45c0f1461041a576101c4565b8063afb188101461039b578063c6bbcc90146103ae578063d3113412146103c1576101c4565b80639399869d116100d35780639399869d1461034d578063a2a7892914610362578063a399529514610375578063a50965dc14610388576101c4565b806388398db9146103125780638aea2c5e146103255780638da5cb5b14610338576101c4565b80635b4e97e7116101665780636e449c2b116101405780636e449c2b146102b95780636e72ae88146102cc5780636ebc8c86146102df57806375483e46146102ff576101c4565b80635b4e97e71461028057806364da0a33146102935780636893d336146102a6576101c4565b8063447fe289116101a2578063447fe2891461020457806346f920fd1461022d5780635742177c1461024d5780635a4e93511461026d576101c4565b806311ef56de146101c957806336d56a60146101de57806338ad4fa7146101f1575b600080fd5b6101dc6101d7366004614612565b61042d565b005b6101dc6101ec366004614c98565b610495565b6101dc6101ff366004614708565b610710565b610217610212366004614612565b610a76565b6040516102249190614f17565b60405180910390f35b61024061023b366004614612565b610c3c565b6040516102249190614fa0565b61026061025b366004614612565b610fa4565b6040516102249190615100565b6101dc61027b366004614b9a565b611216565b6101dc61028e366004614612565b6112eb565b6101dc6102a1366004614934565b61133f565b6101dc6102b4366004614612565b6113fd565b6101dc6102c7366004614c98565b611489565b6101dc6102da366004614934565b611692565b6102f26102ed366004614612565b61172d565b6040516102249190615643565b6101dc61030d366004614cb9565b611b6a565b6101dc610320366004614cb9565b611c9c565b6101dc610333366004614d0d565b611dbf565b6103406124b6565b6040516102249190614e24565b6103556124c5565b6040516102249190615785565b6101dc610370366004614785565b6124cb565b6101dc6103833660046147e4565b612669565b6101dc6103963660046148f0565b61273c565b6101dc6103a93660046145d8565b61317e565b6101dc6103bc36600461462a565b613301565b6103d46103cf366004614612565b613435565b6040516102249190614e38565b6101dc6103ef3660046149ff565b613798565b6101dc6104023660046145d8565b6138f8565b6101dc610415366004614612565b613a4f565b6101dc610428366004614612565b613aa3565b60015481106104575760405162461bcd60e51b815260040161044e9061524c565b60405180910390fd5b600081815260046020526040812061046e91613ea4565b80600080516020615a4e83398151915260405161048a90615466565b60405180910390a250565b60015482106104b65760405162461bcd60e51b815260040161044e9061524c565b60008281526004602052604090205481106104e35760405162461bcd60e51b815260040161044e906152eb565b805b60008381526004602052604090205461050090600190615958565b81101561064c5760008381526004602052604090206105208260016157f8565b8154811061053e57634e487b7160e01b600052603260045260246000fd5b906000526020600020906006020160046000858152602001908152602001600020828154811061057e57634e487b7160e01b600052603260045260246000fd5b906000526020600020906006020160008201816000019080546105a09061599b565b6105ab929190613ec8565b5060018201816001019080546105c09061599b565b6105cb929190613ec8565b506002820154816002015560038201816003019080546105ea9061599b565b6105f5929190613ec8565b50600482018160040190805461060a9061599b565b610615929190613ec8565b50600582018160050190805461062a9061599b565b610635929190613ec8565b509050508080610644906159d6565b9150506104e5565b50600082815260046020526040902080548061067857634e487b7160e01b600052603160045260246000fd5b600082815260208120600019909201916006830201906106988282613f53565b6106a6600183016000613f53565b60028201600090556003820160006106be9190613f53565b6106cc600483016000613f53565b6106da600583016000613f53565b5050905581600080516020615a4e8339815191526106f783613af7565b60405161070491906153bf565b60405180910390a25050565b60015485106107315760405162461bcd60e51b815260040161044e9061524c565b610739613f8f565b848152602081018490526040810183905260a081018290526000808080805b60008b8152600260205260409020548110156109615760008b815260026020526040812080548390811061079c57634e487b7160e01b600052603260045260246000fd5b9060005260206000209060140201905080600201548a101580156107c3575080600301548a105b1561094e5760008913156108bc5760018c815481106107f257634e487b7160e01b600052603260045260246000fd5b90600052602060002090600e0201600601546127108a60018f8154811061082957634e487b7160e01b600052603260045260246000fd5b90600052602060002090600e02016004015461084591906158fa565b61084f9190615863565b61085991906157b7565b925061271060018d8154811061087f57634e487b7160e01b600052603260045260246000fd5b90600052602060002090600e0201600701548a61089c91906158fa565b6108a69190615863565b93508284126108bc576108b98385615919565b94505b888160080160008282546108d091906157b7565b92505081905550848160050160008282546108eb91906157b7565b925050819055508381600601600082825461090691906157b7565b90915550506006810154600882015461091f9190615919565b6012820155600481018054906000610936836159d6565b90915550506080870185905260608701839052600195505b5080610959816159d6565b915050610758565b508315610a455760008a81526003602090815260408220805460018101825590835291819020875180518994600902909201926109a392849290910190613fdb565b50602082810151600183015560408301516002830155606083015160038301556080830151600483015560a083015180516109e49260058501920190613fdb565b5060c0820151600682015560e082015160078201556101008201518051610a15916008840191602090910190613fdb565b505085516040518c9250600080516020615a4e83398151915291610a38916151d4565b60405180910390a2610a6a565b89600080516020615a4e833981519152604051610a61906155e4565b60405180910390a25b50505050505050505050565b6001546060908210610a9a5760405162461bcd60e51b815260040161044e9061524c565b600082815260056020908152604080832080548251818502810185019093528083529193909284015b82821015610c305783829060005260206000209060030201604051806060016040529081600082018054610af69061599b565b80601f0160208091040260200160405190810160405280929190818152602001828054610b229061599b565b8015610b6f5780601f10610b4457610100808354040283529160200191610b6f565b820191906000526020600020905b815481529060010190602001808311610b5257829003601f168201915b505050918352505060018201546001600160a01b03166020820152600282018054604090920191610b9f9061599b565b80601f0160208091040260200160405190810160405280929190818152602001828054610bcb9061599b565b8015610c185780601f10610bed57610100808354040283529160200191610c18565b820191906000526020600020905b815481529060010190602001808311610bfb57829003601f168201915b50505050508152505081526020019060010190610ac3565b5050505090505b919050565b6001546060908210610c605760405162461bcd60e51b815260040161044e9061524c565b600082815260026020908152604080832080548251818502810185019093528083529193909284015b82821015610c30578382906000526020600020906014020160405180610280016040529081600082018054610cbd9061599b565b80601f0160208091040260200160405190810160405280929190818152602001828054610ce99061599b565b8015610d365780601f10610d0b57610100808354040283529160200191610d36565b820191906000526020600020905b815481529060010190602001808311610d1957829003601f168201915b50505050508152602001600182015481526020016002820154815260200160038201548152602001600482015481526020016005820154815260200160068201548152602001600782015481526020016008820154815260200160098201548152602001600a82018054610da99061599b565b80601f0160208091040260200160405190810160405280929190818152602001828054610dd59061599b565b8015610e225780601f10610df757610100808354040283529160200191610e22565b820191906000526020600020905b815481529060010190602001808311610e0557829003601f168201915b50505050508152602001600b8201548152602001600c82018054610e459061599b565b80601f0160208091040260200160405190810160405280929190818152602001828054610e719061599b565b8015610ebe5780601f10610e9357610100808354040283529160200191610ebe565b820191906000526020600020905b815481529060010190602001808311610ea157829003601f168201915b50505050508152602001600d8201548152602001600e8201548152602001600f820154815260200160108201548152602001601182018054610eff9061599b565b80601f0160208091040260200160405190810160405280929190818152602001828054610f2b9061599b565b8015610f785780601f10610f4d57610100808354040283529160200191610f78565b820191906000526020600020905b815481529060010190602001808311610f5b57829003601f168201915b505050505081526020016012820154815260200160138201548152505081526020019060010190610c89565b6001546060908210610fc85760405162461bcd60e51b815260040161044e9061524c565b600082815260036020908152604080832080548251818502810185019093528083529193909284015b82821015610c305783829060005260206000209060090201604051806101200160405290816000820180546110259061599b565b80601f01602080910402602001604051908101604052809291908181526020018280546110519061599b565b801561109e5780601f106110735761010080835404028352916020019161109e565b820191906000526020600020905b81548152906001019060200180831161108157829003601f168201915b50505050508152602001600182015481526020016002820154815260200160038201548152602001600482015481526020016005820180546110df9061599b565b80601f016020809104026020016040519081016040528092919081815260200182805461110b9061599b565b80156111585780601f1061112d57610100808354040283529160200191611158565b820191906000526020600020905b81548152906001019060200180831161113b57829003601f168201915b5050505050815260200160068201548152602001600782015481526020016008820180546111859061599b565b80601f01602080910402602001604051908101604052809291908181526020018280546111b19061599b565b80156111fe5780601f106111d3576101008083540402835291602001916111fe565b820191906000526020600020905b8154815290600101906020018083116111e157829003601f168201915b50505050508152505081526020019060010190610ff1565b60015482106112375760405162461bcd60e51b815260040161044e9061524c565b600082815260036020908152604082208054600181018255908352918190208351805185946009029092019261127292849290910190613fdb565b50602082810151600183015560408301516002830155606083015160038301556080830151600483015560a083015180516112b39260058501920190613fdb565b5060c0820151600682015560e0820151600782015561010082015180516112e4916008840191602090910190613fdb565b5050505050565b600154811061130c5760405162461bcd60e51b815260040161044e9061524c565b60008181526002602052604081206113239161404f565b80600080516020615a4e83398151915260405161048a90615539565b60015482106113605760405162461bcd60e51b815260040161044e9061524c565b600082815260056020908152604082208054600181018255908352918190208351805185946003029092019261139b92849290910190613fdb565b506020828101516001830180546001600160a01b0319166001600160a01b03909216919091179055604083015180516113da9260028501920190613fdb565b50508151604051849250600080516020615a4e8339815191529161070491615505565b600154811061141e5760405162461bcd60e51b815260040161044e9061524c565b60006001828154811061144157634e487b7160e01b600052603260045260246000fd5b60009182526020909120600e90910201600d01805460ff191691151591909117905580600080516020615a4e83398151915261147c82613af7565b60405161048a9190615574565b60015482106114aa5760405162461bcd60e51b815260040161044e9061524c565b60008281526005602052604090205481106114d75760405162461bcd60e51b815260040161044e9061549f565b805b6000838152600560205260409020546114f490600190615958565b8110156115fc5760008381526005602052604090206115148260016157f8565b8154811061153257634e487b7160e01b600052603260045260246000fd5b906000526020600020906003020160056000858152602001908152602001600020828154811061157257634e487b7160e01b600052603260045260246000fd5b906000526020600020906003020160008201816000019080546115949061599b565b61159f929190613ec8565b5060018281015490820180546001600160a01b0319166001600160a01b0390921691909117905560028083018054918301916115da9061599b565b6115e5929190613ec8565b5090505080806115f4906159d6565b9150506114d9565b50600082815260056020526040902080548061162857634e487b7160e01b600052603160045260246000fd5b600082815260208120600019909201916003830201906116488282613f53565b6001820180546001600160a01b0319169055611668600283016000613f53565b5050905581600080516020615a4e83398151915261168583613af7565b604051610704919061531b565b60015482106116b35760405162461bcd60e51b815260040161044e9061524c565b60008281526005602090815260408220805460018101825590835291819020835180518594600302909201926116ee92849290910190613fdb565b506020828101516001830180546001600160a01b0319166001600160a01b03909216919091179055604083015180516112e49260028501920190613fdb565b611735614070565b60015482106117565760405162461bcd60e51b815260040161044e9061524c565b6001828154811061177757634e487b7160e01b600052603260045260246000fd5b90600052602060002090600e0201604051806101e00160405290816000820180546117a19061599b565b80601f01602080910402602001604051908101604052809291908181526020018280546117cd9061599b565b801561181a5780601f106117ef5761010080835404028352916020019161181a565b820191906000526020600020905b8154815290600101906020018083116117fd57829003601f168201915b505050505081526020016001820180546118339061599b565b80601f016020809104026020016040519081016040528092919081815260200182805461185f9061599b565b80156118ac5780601f10611881576101008083540402835291602001916118ac565b820191906000526020600020905b81548152906001019060200180831161188f57829003601f168201915b505050505081526020016002820180546118c59061599b565b80601f01602080910402602001604051908101604052809291908181526020018280546118f19061599b565b801561193e5780601f106119135761010080835404028352916020019161193e565b820191906000526020600020905b81548152906001019060200180831161192157829003601f168201915b505050505081526020016003820180546119579061599b565b80601f01602080910402602001604051908101604052809291908181526020018280546119839061599b565b80156119d05780601f106119a5576101008083540402835291602001916119d0565b820191906000526020600020905b8154815290600101906020018083116119b357829003601f168201915b505050505081526020016004820154815260200160058201548152602001600682015481526020016007820154815260200160088201548152602001600982018054611a1b9061599b565b80601f0160208091040260200160405190810160405280929190818152602001828054611a479061599b565b8015611a945780601f10611a6957610100808354040283529160200191611a94565b820191906000526020600020905b815481529060010190602001808311611a7757829003601f168201915b50505050508152602001600a8201548152602001600b8201548152602001600c82018054611ac19061599b565b80601f0160208091040260200160405190810160405280929190818152602001828054611aed9061599b565b8015611b3a5780601f10611b0f57610100808354040283529160200191611b3a565b820191906000526020600020905b815481529060010190602001808311611b1d57829003601f168201915b5050509183525050600d919091015460ff8082161515602084015261010090910416151560409091015292915050565b6001548510611b8b5760405162461bcd60e51b815260040161044e9061524c565b6000858152600360205260409020805484919086908110611bbc57634e487b7160e01b600052603260045260246000fd5b90600052602060002090600902016006018190555081600360008781526020019081526020016000208581548110611c0457634e487b7160e01b600052603260045260246000fd5b90600052602060002090600902016007018190555080600360008781526020019081526020016000208581548110611c4c57634e487b7160e01b600052603260045260246000fd5b90600052602060002090600902016008019080519060200190611c70929190613fdb565b5084600080516020615a4e833981519152604051611c8d906152b8565b60405180910390a25050505050565b6001548510611cbd5760405162461bcd60e51b815260040161044e9061524c565b6000858152600260205260409020805484919086908110611cee57634e487b7160e01b600052603260045260246000fd5b9060005260206000209060140201600f018190555081600260008781526020019081526020016000208581548110611d3657634e487b7160e01b600052603260045260246000fd5b90600052602060002090601402016010018190555080600260008781526020019081526020016000208581548110611d7e57634e487b7160e01b600052603260045260246000fd5b90600052602060002090601402016011019080519060200190611da2929190613fdb565b5084600080516020615a4e833981519152604051611c8d90615351565b6001548610611de05760405162461bcd60e51b815260040161044e9061524c565b6000868152600260205260409020805485919087908110611e1157634e487b7160e01b600052603260045260246000fd5b90600052602060002090601402016007018190555082600260008881526020019081526020016000208681548110611e5957634e487b7160e01b600052603260045260246000fd5b90600052602060002090601402016009018190555081600260008881526020019081526020016000208681548110611ea157634e487b7160e01b600052603260045260246000fd5b9060005260206000209060140201600a019080519060200190611ec5929190613fdb565b506000868152600260205260409020805486908110611ef457634e487b7160e01b600052603260045260246000fd5b906000526020600020906014020160010154841115612110576018603c80600260008a81526020019081526020016000208881548110611f4457634e487b7160e01b600052603260045260246000fd5b90600052602060002090601402016001015487611f619190615958565b611f6b9190615863565b611f759190615863565b611f7f9190615863565b6000878152600260205260409020805487908110611fad57634e487b7160e01b600052603260045260246000fd5b9060005260206000209060140201600d01819055506000600260008881526020019081526020016000208681548110611ff657634e487b7160e01b600052603260045260246000fd5b9060005260206000209060140201600d0154905060006001888154811061202d57634e487b7160e01b600052603260045260246000fd5b90600052602060002090600e02016008015490506000600260008a8152602001908152602001600020888154811061207557634e487b7160e01b600052603260045260246000fd5b9060005260206000209060140201600801549050633b9aca008161016d84620186a06120a19190615877565b6120ab9190615835565b6120b59086615877565b6120bf9190615877565b6120c99190615835565b60008a815260026020526040902080548a9081106120f757634e487b7160e01b600052603260045260246000fd5b9060005260206000209060140201600e01819055505050505b600086815260026020526040902080548690811061213e57634e487b7160e01b600052603260045260246000fd5b90600052602060002090601402016008015483121561224057600086815260026020526040902080548491908790811061218857634e487b7160e01b600052603260045260246000fd5b9060005260206000209060140201600801546121a49190615919565b60008781526002602052604090208054879081106121d257634e487b7160e01b600052603260045260246000fd5b9060005260206000209060140201600b01819055508060026000888152602001908152602001600020868154811061221a57634e487b7160e01b600052603260045260246000fd5b9060005260206000209060140201600c01908051906020019061223e929190613fdb565b505b600086815260026020526040812080548790811061226e57634e487b7160e01b600052603260045260246000fd5b9060005260206000209060140201600b01546002600089815260200190815260200160002087815481106122b257634e487b7160e01b600052603260045260246000fd5b9060005260206000209060140201600e0154600260008a815260200190815260200160002088815481106122f657634e487b7160e01b600052603260045260246000fd5b9060005260206000209060140201601201546123129190615919565b61231c9190615919565b131561244657600086815260026020526040902080548690811061235057634e487b7160e01b600052603260045260246000fd5b9060005260206000209060140201600b015460026000888152602001908152602001600020868154811061239457634e487b7160e01b600052603260045260246000fd5b9060005260206000209060140201600e01546002600089815260200190815260200160002087815481106123d857634e487b7160e01b600052603260045260246000fd5b9060005260206000209060140201601201546123f49190615919565b6123fe9190615919565b600087815260026020526040902080548790811061242c57634e487b7160e01b600052603260045260246000fd5b90600052602060002090601402016013018190555061248a565b600086815260026020526040812080548790811061247457634e487b7160e01b600052603260045260246000fd5b9060005260206000209060140201601301819055505b85600080516020615a4e8339815191526040516124a6906153f8565b60405180910390a2505050505050565b6000546001600160a01b031681565b60015490565b60015485106124ec5760405162461bcd60e51b815260040161044e9061524c565b6124f46140ea565b602080820185905260408083018590526060830184905286835260008881526002835290812080546001810182559082529082902083518051859460149094029092019261254792849290910190613fdb565b50602082810151600183015560408301516002830155606083015160038301556080830151600483015560a0830151600583015560c0830151600683015560e083015160078301556101008301516008830155610120830151600983015561014083015180516125bd92600a8501920190613fdb565b50610160820151600b82015561018082015180516125e591600c840191602090910190613fdb565b506101a0820151600d8201556101c0820151600e8201556101e0820151600f8201556102008201516010820155610220820151805161262e916011840191602090910190613fdb565b5061024082015181601201556102608201518160130155505085600080516020615a4e83398151915282600001516040516124a691906154cc565b600154821061268a5760405162461bcd60e51b815260040161044e9061524c565b60008281526004602090815260408220805460018101825590835291819020835180518594600602909201926126c592849290910190613fdb565b5060208281015180516126de9260018501920190613fdb565b506040820151600282015560608201518051612704916003840191602090910190613fdb565b5060808201518051612720916004840191602090910190613fdb565b5060a082015180516112e4916005840191602090910190613fdb565b600154821061275d5760405162461bcd60e51b815260040161044e9061524c565b61284c826040518060400160405280600d81526020016c657874656e6465645f6461746160981b815250600185815481106127a857634e487b7160e01b600052603260045260246000fd5b90600052602060002090600e020160000180546127c49061599b565b80601f01602080910402602001604051908101604052809291908181526020018280546127f09061599b565b801561283d5780601f106128125761010080835404028352916020019161283d565b820191906000526020600020905b81548152906001019060200180831161282057829003601f168201915b50505050508460000151613c3c565b61293b826040518060400160405280600d81526020016c636f6e74726163745f6e616d6560981b8152506001858154811061289757634e487b7160e01b600052603260045260246000fd5b90600052602060002090600e020160010180546128b39061599b565b80601f01602080910402602001604051908101604052809291908181526020018280546128df9061599b565b801561292c5780601f106129015761010080835404028352916020019161292c565b820191906000526020600020905b81548152906001019060200180831161290f57829003601f168201915b50505050508460200151613c3c565b612a2a826040518060400160405280600d81526020016c636f6e74726163745f7479706560981b8152506001858154811061298657634e487b7160e01b600052603260045260246000fd5b90600052602060002090600e020160020180546129a29061599b565b80601f01602080910402602001604051908101604052809291908181526020018280546129ce9061599b565b8015612a1b5780601f106129f057610100808354040283529160200191612a1b565b820191906000526020600020905b8154815290600101906020018083116129fe57829003601f168201915b50505050508460400151613c3c565b612b19826040518060400160405280600d81526020016c333ab73234b733afb4b739ba3960991b81525060018581548110612a7557634e487b7160e01b600052603260045260246000fd5b90600052602060002090600e02016003018054612a919061599b565b80601f0160208091040260200160405190810160405280929190818152602001828054612abd9061599b565b8015612b0a5780601f10612adf57610100808354040283529160200191612b0a565b820191906000526020600020905b815481529060010190602001808311612aed57829003601f168201915b50505050508460600151613c3c565b612b92826040518060400160405280600f81526020016e1cd95c9d9a58d957d9995957dc18dd608a1b815250612b8060018681548110612b6957634e487b7160e01b600052603260045260246000fd5b90600052602060002090600e020160040154613af7565b612b8d8560800151613af7565b613c3c565b612c06826040518060400160405280600f81526020016e0e6cae4ecd2c6cabecccacabedac2f608b1b815250612bf960018681548110612be257634e487b7160e01b600052603260045260246000fd5b90600052602060002090600e020160050154613af7565b612b8d8560a00151613af7565b612c7a826040518060400160405280600f81526020016e1cd95c9d9a58d957d9995957d85b5d608a1b815250612c6d60018681548110612c5657634e487b7160e01b600052603260045260246000fd5b90600052602060002090600e020160060154613c9f565b612b8d8560c00151613c9f565b612cea826040518060400160405280600b81526020016a18591d985b98d957dc18dd60aa1b815250612cdd60018681548110612cc657634e487b7160e01b600052603260045260246000fd5b90600052602060002090600e020160070154613af7565b612b8d8560e00151613af7565b612d5c826040518060400160405280600c81526020016b1b185d1957d9995957dc18dd60a21b815250612d4e60018681548110612d3757634e487b7160e01b600052603260045260246000fd5b90600052602060002090600e020160080154613af7565b612b8d856101000151613af7565b612e4d826040518060400160405280600e81526020016d7472616e736163745f6c6f67696360901b81525060018581548110612da857634e487b7160e01b600052603260045260246000fd5b90600052602060002090600e02016009018054612dc49061599b565b80601f0160208091040260200160405190810160405280929190818152602001828054612df09061599b565b8015612e3d5780601f10612e1257610100808354040283529160200191612e3d565b820191906000526020600020905b815481529060010190602001808311612e2057829003601f168201915b5050505050846101200151613c3c565b612f3582604051806040016040528060058152602001646e6f74657360d81b81525060018581548110612e9057634e487b7160e01b600052603260045260246000fd5b90600052602060002090600e0201600c018054612eac9061599b565b80601f0160208091040260200160405190810160405280929190818152602001828054612ed89061599b565b8015612f255780601f10612efa57610100808354040283529160200191612f25565b820191906000526020600020905b815481529060010190602001808311612f0857829003601f168201915b5050505050846101800151613c3c565b612fa9826040518060400160405280600981526020016869735f61637469766560b81b815250612f9b60018681548110612f7f57634e487b7160e01b600052603260045260246000fd5b60009182526020909120600d600e90920201015460ff16613e56565b612b8d856101a00151613e56565b613024826040518060400160405280600881526020016769735f71756f746560c01b81525061301660018681548110612ff257634e487b7160e01b600052603260045260246000fd5b90600052602060002090600e0201600d0160019054906101000a900460ff16613e56565b612b8d856101c00151613e56565b806001838154811061304657634e487b7160e01b600052603260045260246000fd5b90600052602060002090600e02016000820151816000019080519060200190613070929190613fdb565b5060208281015180516130899260018501920190613fdb565b50604082015180516130a5916002840191602090910190613fdb565b50606082015180516130c1916003840191602090910190613fdb565b506080820151600482015560a0820151600582015560c0820151600682015560e0820151600782015561010082015160088201556101208201518051613111916009840191602090910190613fdb565b50610140820151600a820155610160820151600b820155610180820151805161314491600c840191602090910190613fdb565b506101a0820151600d90910180546101c09093015115156101000261ff001992151560ff1990941693909317919091169190911790555050565b600180548082018255600091909152815180518392600e027fb10e2d527612073b26eecdfd717e6a320cf44b4afac2b0732d9fcbe2b7fa0cf601916131c891839160200190613fdb565b5060208281015180516131e19260018501920190613fdb565b50604082015180516131fd916002840191602090910190613fdb565b5060608201518051613219916003840191602090910190613fdb565b506080820151600482015560a0820151600582015560c0820151600682015560e0820151600782015561010082015160088201556101208201518051613269916009840191602090910190613fdb565b50610140820151600a820155610160820151600b820155610180820151805161329c91600c840191602090910190613fdb565b506101a0820151600d90910180546101c09093015115156101000261ff001992151560ff199094169390931791909116919091179055600180546132e09190615958565b600080516020615a4e833981519152826020015160405161048a9190615215565b60015487106133225760405162461bcd60e51b815260040161044e9061524c565b61332a614183565b86815260208082018790526040808301879052606083018690526080830185905260a0830184905260008a81526004835290812080546001810182559082529082902083518051859460069094029092019261338b92849290910190613fdb565b5060208281015180516133a49260018501920190613fdb565b5060408201516002820155606082015180516133ca916003840191602090910190613fdb565b50608082015180516133e6916004840191602090910190613fdb565b5060a08201518051613402916005840191602090910190613fdb565b50505087600080516020615a4e8339815191528860405161342391906155ad565b60405180910390a25050505050505050565b60015460609082106134595760405162461bcd60e51b815260040161044e9061524c565b600082815260046020908152604080832080548251818502810185019093528083529193909284015b82821015610c3057838290600052602060002090600602016040518060c00160405290816000820180546134b59061599b565b80601f01602080910402602001604051908101604052809291908181526020018280546134e19061599b565b801561352e5780601f106135035761010080835404028352916020019161352e565b820191906000526020600020905b81548152906001019060200180831161351157829003601f168201915b505050505081526020016001820180546135479061599b565b80601f01602080910402602001604051908101604052809291908181526020018280546135739061599b565b80156135c05780601f10613595576101008083540402835291602001916135c0565b820191906000526020600020905b8154815290600101906020018083116135a357829003601f168201915b50505050508152602001600282015481526020016003820180546135e39061599b565b80601f016020809104026020016040519081016040528092919081815260200182805461360f9061599b565b801561365c5780601f106136315761010080835404028352916020019161365c565b820191906000526020600020905b81548152906001019060200180831161363f57829003601f168201915b505050505081526020016004820180546136759061599b565b80601f01602080910402602001604051908101604052809291908181526020018280546136a19061599b565b80156136ee5780601f106136c3576101008083540402835291602001916136ee565b820191906000526020600020905b8154815290600101906020018083116136d157829003601f168201915b505050505081526020016005820180546137079061599b565b80601f01602080910402602001604051908101604052809291908181526020018280546137339061599b565b80156137805780601f1061375557610100808354040283529160200191613780565b820191906000526020600020905b81548152906001019060200180831161376357829003601f168201915b50505050508152505081526020019060010190613482565b60015482106137b95760405162461bcd60e51b815260040161044e9061524c565b60008281526002602090815260408220805460018101825590835291819020835180518594601402909201926137f492849290910190613fdb565b50602082810151600183015560408301516002830155606083015160038301556080830151600483015560a0830151600583015560c0830151600683015560e0830151600783015561010083015160088301556101208301516009830155610140830151805161386a92600a8501920190613fdb565b50610160820151600b820155610180820151805161389291600c840191602090910190613fdb565b506101a0820151600d8201556101c0820151600e8201556101e0820151600f820155610200820151601082015561022082015180516138db916011840191602090910190613fdb565b506102408201518160120155610260820151816013015550505050565b600180548082018255600091909152815180518392600e027fb10e2d527612073b26eecdfd717e6a320cf44b4afac2b0732d9fcbe2b7fa0cf6019161394291839160200190613fdb565b50602082810151805161395b9260018501920190613fdb565b5060408201518051613977916002840191602090910190613fdb565b5060608201518051613993916003840191602090910190613fdb565b506080820151600482015560a0820151600582015560c0820151600682015560e08201516007820155610100820151600882015561012082015180516139e3916009840191602090910190613fdb565b50610140820151600a820155610160820151600b8201556101808201518051613a1691600c840191602090910190613fdb565b506101a0820151600d90910180546101c09093015115156101000261ff001992151560ff19909416939093179190911691909117905550565b6001548110613a705760405162461bcd60e51b815260040161044e9061524c565b6000818152600560205260408120613a87916141b9565b80600080516020615a4e83398151915260405161048a9061542f565b6001548110613ac45760405162461bcd60e51b815260040161044e9061524c565b6000818152600360205260408120613adb916141da565b80600080516020615a4e83398151915260405161048a9061527c565b606081613b1c57506040805180820190915260018152600360fc1b6020820152610c37565b8160005b8115613b465780613b30816159d6565b9150613b3f9050600a83615863565b9150613b20565b6000816001600160401b03811115613b6e57634e487b7160e01b600052604160045260246000fd5b6040519080825280601f01601f191660200182016040528015613b98576020820181803683370190505b509050815b8515613c3357613bae600182615958565b90506000613bbd600a88615863565b613bc890600a6158fa565b613bd29088615958565b613bdd906030615810565b905060008160f81b905080848481518110613c0857634e487b7160e01b600052603260045260246000fd5b60200101906001600160f81b031916908160001a905350613c2a600a89615863565b97505050613b9d565b50949350505050565b8080519060200120828051906020012014613c995783600080516020615a4e833981519152848484604051602001613c7693929190614dc4565b60408051601f1981840301815290829052613c9091615386565b60405180910390a25b50505050565b606081613cc457506040805180820190915260018152600360fc1b6020820152610c37565b60008083129080848315613ceb57613cdb816159f1565b905082613ce7816159d6565b9350505b8091505b8115613d155782613cff816159d6565b9350613d0e9050600a83615863565b9150613cef565b6000836001600160401b03811115613d3d57634e487b7160e01b600052604160045260246000fd5b6040519080825280601f01601f191660200182016040528015613d67576020820181803683370190505b5091925082919050835b8315613e0757613d82600182615958565b90506000613d91600a86615863565b613d9c90600a6158fa565b613da69086615958565b613db1906030615810565b905060008160f81b905080848481518110613ddc57634e487b7160e01b600052603260045260246000fd5b60200101906001600160f81b031916908160001a905350613dfe600a87615863565b95505050613d71565b8515613e4b57602d60f81b82600081518110613e3357634e487b7160e01b600052603260045260246000fd5b60200101906001600160f81b031916908160001a9053505b509695505050505050565b606081613e80576040518060400160405280600581526020016466616c736560d81b815250613e9e565b604051806040016040528060048152602001637472756560e01b8152505b92915050565b5080546000825560060290600052602060002090810190613ec591906141fb565b50565b828054613ed49061599b565b90600052602060002090601f016020900481019282613ef65760008555613f43565b82601f10613f075780548555613f43565b82800160010185558215613f4357600052602060002091601f016020900482015b82811115613f43578254825591600101919060010190613f28565b50613f4f92915061425a565b5090565b508054613f5f9061599b565b6000825580601f10613f715750613ec5565b601f016020900490600052602060002090810190613ec5919061425a565b6040518061012001604052806060815260200160008152602001600081526020016000815260200160008152602001606081526020016000815260200160008152602001606081525090565b828054613fe79061599b565b90600052602060002090601f0160209004810192826140095760008555613f43565b82601f1061402257805160ff1916838001178555613f43565b82800160010185558215613f43579182015b82811115613f43578251825591602001919060010190614034565b5080546000825560140290600052602060002090810190613ec5919061426f565b604051806101e00160405280606081526020016060815260200160608152602001606081526020016000815260200160008152602001600081526020016000815260200160008152602001606081526020016000815260200160008152602001606081526020016000151581526020016000151581525090565b60405180610280016040528060608152602001600081526020016000815260200160008152602001600081526020016000815260200160008152602001600081526020016000815260200160008152602001606081526020016000815260200160608152602001600081526020016000815260200160008152602001600081526020016060815260200160008152602001600081525090565b6040518060c001604052806060815260200160608152602001600081526020016060815260200160608152602001606081525090565b5080546000825560030290600052602060002090810190613ec5919061433a565b5080546000825560090290600052602060002090810190613ec59190614377565b80821115613f4f57600061420f8282613f53565b61421d600183016000613f53565b60028201600090556003820160006142359190613f53565b614243600483016000613f53565b614251600583016000613f53565b506006016141fb565b5b80821115613f4f576000815560010161425b565b80821115613f4f5760006142838282613f53565b600182016000905560028201600090556003820160009055600482016000905560058201600090556006820160009055600782016000905560088201600090556009820160009055600a820160006142db9190613f53565b600b820160009055600c820160006142f39190613f53565b600d820160009055600e820160009055600f82016000905560108201600090556011820160006143239190613f53565b50600060128201819055601382015560140161426f565b80821115613f4f57600061434e8282613f53565b6001820180546001600160a01b031916905561436e600283016000613f53565b5060030161433a565b80821115613f4f57600061438b8282613f53565b60018201600090556002820160009055600382016000905560048201600090556005820160006143bb9190613f53565b600682016000905560078201600090556008820160006143db9190613f53565b50600901614377565b80358015158114610c3757600080fd5b600082601f830112614404578081fd5b81356001600160401b0381111561441d5761441d615a37565b614430601f8201601f191660200161578e565b818152846020838601011115614444578283fd5b816020850160208301379081016020019190915292915050565b60006101e0808385031215614471578182fd5b61447a8161578e565b91505081356001600160401b038082111561449457600080fd5b6144a0858386016143f4565b835260208401359150808211156144b657600080fd5b6144c2858386016143f4565b602084015260408401359150808211156144db57600080fd5b6144e7858386016143f4565b6040840152606084013591508082111561450057600080fd5b61450c858386016143f4565b60608401526080840135608084015260a084013560a084015260c084013560c084015260e084013560e0840152610100915081840135828401526101209150818401358181111561455c57600080fd5b614568868287016143f4565b92840192909252610140848101359084015261016080850135908401526101809150818401358181111561459b57600080fd5b6145a7868287016143f4565b838501525050506101a06145bc8184016143e4565b908201526101c06145ce8382016143e4565b9082015292915050565b6000602082840312156145e9578081fd5b81356001600160401b038111156145fe578182fd5b61460a8482850161445e565b949350505050565b600060208284031215614623578081fd5b5035919050565b600080600080600080600060e0888a031215614644578283fd5b8735965060208801356001600160401b0380821115614661578485fd5b61466d8b838c016143f4565b975060408a0135915080821115614682578485fd5b61468e8b838c016143f4565b965060608a0135955060808a01359150808211156146aa578485fd5b6146b68b838c016143f4565b945060a08a01359150808211156146cb578384fd5b6146d78b838c016143f4565b935060c08a01359150808211156146ec578283fd5b506146f98a828b016143f4565b91505092959891949750929550565b600080600080600060a0868803121561471f578283fd5b8535945060208601356001600160401b038082111561473c578485fd5b61474889838a016143f4565b95506040880135945060608801359350608088013591508082111561476b578283fd5b50614778888289016143f4565b9150509295509295909350565b600080600080600060a0868803121561479c578283fd5b8535945060208601356001600160401b038111156147b8578384fd5b6147c4888289016143f4565b959895975050505060408401359360608101359360809091013592509050565b600080604083850312156147f6578182fd5b8235915060208301356001600160401b0380821115614813578283fd5b9084019060c08287031215614826578283fd5b61483060c061578e565b82358281111561483e578485fd5b61484a888286016143f4565b82525060208301358281111561485e578485fd5b61486a888286016143f4565b6020830152506040830135604082015260608301358281111561488b578485fd5b614897888286016143f4565b6060830152506080830135828111156148ae578485fd5b6148ba888286016143f4565b60808301525060a0830135828111156148d1578485fd5b6148dd888286016143f4565b60a0830152508093505050509250929050565b60008060408385031215614902578182fd5b8235915060208301356001600160401b0381111561491e578182fd5b61492a8582860161445e565b9150509250929050565b60008060408385031215614946578182fd5b8235915060208301356001600160401b0380821115614963578283fd5b9084019060608287031215614976578283fd5b60405160608101818110838211171561499157614991615a37565b6040528235828111156149a2578485fd5b6149ae888286016143f4565b82525060208301356001600160a01b03811681146149ca578485fd5b60208201526040830135828111156149e0578485fd5b6149ec888286016143f4565b6040830152508093505050509250929050565b60008060408385031215614a11578182fd5b8235915060208301356001600160401b0380821115614a2e578283fd5b8185019150610280808388031215614a44578384fd5b614a4d8161578e565b9050823582811115614a5d578485fd5b614a69888286016143f4565b8252506020830135602082015260408301356040820152606083013560608201526080830135608082015260a083013560a082015260c083013560c082015260e083013560e08201526101008084013581830152506101208084013581830152506101408084013583811115614add578586fd5b614ae9898287016143f4565b8284015250506101608084013581830152506101808084013583811115614b0e578586fd5b614b1a898287016143f4565b91830191909152506101a083810135908201526101c080840135908201526101e0808401359082015261020080840135908201526102208084013583811115614b61578586fd5b614b6d898287016143f4565b82840152505061024091508183013582820152610260915081830135828201528093505050509250929050565b60008060408385031215614bac578182fd5b8235915060208301356001600160401b0380821115614bc9578283fd5b8185019150610120808388031215614bdf578384fd5b614be88161578e565b9050823582811115614bf8578485fd5b614c04888286016143f4565b8252506020830135602082015260408301356040820152606083013560608201526080830135608082015260a083013582811115614c40578485fd5b614c4c888286016143f4565b60a08301525060c083013560c082015260e083013560e08201526101008084013583811115614c79578586fd5b614c85898287016143f4565b8284015250508093505050509250929050565b60008060408385031215614caa578182fd5b50508035926020909101359150565b600080600080600060a08688031215614cd0578283fd5b8535945060208601359350604086013592506060860135915060808601356001600160401b03811115614d01578182fd5b614778888289016143f4565b60008060008060008060c08789031215614d25578384fd5b8635955060208701359450604087013593506060870135925060808701356001600160401b0380821115614d57578384fd5b614d638a838b016143f4565b935060a0890135915080821115614d78578283fd5b50614d8589828a016143f4565b9150509295509295509295565b15159052565b60008151808452614db081602086016020860161596f565b601f01601f19169290920160200192915050565b60008451614dd681846020890161596f565b601d60f91b9083019081528451614df481600184016020890161596f565b61169f60f11b600192909101918201528351614e1781600384016020880161596f565b0160030195945050505050565b6001600160a01b0391909116815260200190565b60208082528251828201819052600091906040908185019080840286018301878501865b83811015614f0957603f19898403018552815160c08151818652614e8282870182614d98565b915050888201518582038a870152614e9a8282614d98565b915050878201518886015260608083015186830382880152614ebc8382614d98565b9250505060808083015186830382880152614ed78382614d98565b9250505060a08083015192508582038187015250614ef58183614d98565b968901969450505090860190600101614e5c565b509098975050505050505050565b60208082528251828201819052600091906040908185019080840286018301878501865b83811015614f0957603f19898403018552815160608151818652614f6182870182614d98565b838b01516001600160a01b0316878c0152928901518684038a880152929150614f8c90508183614d98565b968901969450505090860190600101614f3b565b60208082528251828201819052600091906040908185019080840286018301878501865b83811015614f0957603f1989840301855281516102808151818652614feb82870182614d98565b838b0151878c0152898401518a880152606080850151908801526080808501519088015260a0808501519088015260c0808501519088015260e080850151908801526101008085015190880152610120808501519088015261014080850151888303828a015291935091506150608382614d98565b9250505061016080830151818701525061018080830151868303828801526150888382614d98565b6101a085810151908901526101c080860151908901526101e08086015190890152610200808601519089015261022080860151898303828b0152919450925090506150d38382614d98565b61024085810151908901526102609485015194909701939093525050509386019390860190600101614fc4565b60208082528251828201819052600091906040908185019080840286018301878501865b83811015614f0957603f198984030185528151610120815181865261514b82870182614d98565b915050888201518986015287820151888601526060808301518187015250608080830151818701525060a0808301518683038288015261518b8382614d98565b9250505060c080830151818701525060e080830151818701525061010080830151925085820381870152506151c08183614d98565b968901969450505090860190600101615124565b600060408252601060408301526f151c985b9cd858dd1a5bdb905919195960821b60608301526080602083015261520e6080830184614d98565b9392505050565b600060408252600d60408301526c10dbdb9d1c9858dd1059191959609a1b60608301526080602083015261520e6080830184614d98565b602080825260169082015275092dcecc2d8d2c840c6dedce8e4c2c6e840d2dcc8caf60531b604082015260600190565b604080825260139082015272151c985b9cd858dd1a5bdb9cd1195b195d1959606a1b606082015260806020820181905260009082015260a00190565b6040808252600a9082015269506179416476616e636560b01b606082015260806020820181905260009082015260a00190565b602080825260169082015275092dcecc2d8d2c840c2e4e8d2ccc2c6e840d2dcc8caf60531b604082015260600190565b600060408252600c60408301526b14185c9d1e51195b195d195960a21b60608301526080602083015261520e6080830184614d98565b6040808252600c908201526b14995cda591d585b14185a5960a21b606082015260806020820181905260009082015260a00190565b600060408252600f60408301526e10dbdb9d1c9858dd155c19185d1959608a1b60608301526080602083015261520e6080830184614d98565b600060408252600f60408301526e105c9d1a599858dd11195b195d1959608a1b60608301526080602083015261520e6080830184614d98565b6040808252600e908201526d141bdcdd14d95d1d1b195b595b9d60921b606082015260806020820181905260009082015260a00190565b6040808252600e908201526d14185c9d1a595cd1195b195d195960921b606082015260806020820181905260009082015260a00190565b60408082526010908201526f105c9d1a599858dd1cd1195b195d195960821b606082015260806020820181905260009082015260a00190565b602080825260139082015272092dcecc2d8d2c840e0c2e4e8f240d2dcc8caf606b1b604082015260600190565b600060408252600f60408301526e14d95d1d1b195b595b9d1059191959608a1b60608301526080602083015261520e6080830184614d98565b600060408252600a60408301526914185c9d1e505919195960b21b60608301526080602083015261520e6080830184614d98565b60408082526012908201527114d95d1d1b195b595b9d1cd1195b195d195960721b606082015260806020820181905260009082015260a00190565b600060408252600f60408301526e10dbdb9d1c9858dd11195b195d1959608a1b60608301526080602083015261520e6080830184614d98565b600060408252600d60408301526c105c9d1a599858dd1059191959609a1b60608301526080602083015261520e6080830184614d98565b60408082526010908201526f2a3930b739b0b1ba34b7b722b93937b960811b6060820152608060208201819052601a908201527f4e6f2076616c696420736574746c656d656e7420706572696f6400000000000060a082015260c00190565b60006020825282516101e0806020850152615662610200850183614d98565b91506020850151601f19808685030160408701526156808483614d98565b9350604087015191508086850301606087015261569d8483614d98565b935060608701519150808685030160808701526156ba8483614d98565b9350608087015160a087015260a087015160c087015260c087015160e087015260e087015191506101008281880152808801519250506101208281880152808801519250506101408187860301818801526157158584614d98565b90880151610160888101919091528801516101808089019190915288015187820383016101a0808a019190915291955092506157518584614d98565b945080880151925050506101c061576a81870183614d92565b860151905061577b85830182614d92565b5090949350505050565b90815260200190565b6040518181016001600160401b03811182821017156157af576157af615a37565b604052919050565b600080821280156001600160ff1b03849003851316156157d9576157d9615a0b565b600160ff1b83900384128116156157f2576157f2615a0b565b50500190565b6000821982111561580b5761580b615a0b565b500190565b600060ff821660ff84168060ff0382111561582d5761582d615a0b565b019392505050565b60008261584457615844615a21565b600160ff1b82146000198414161561585e5761585e615a0b565b500590565b60008261587257615872615a21565b500490565b60006001600160ff1b038184138284138082168684048611161561589d5761589d615a0b565b600160ff1b848712828116878305891216156158bb576158bb615a0b565b8587129250878205871284841616156158d6576158d6615a0b565b878505871281841616156158ec576158ec615a0b565b505050929093029392505050565b600081600019048311821515161561591457615914615a0b565b500290565b60008083128015600160ff1b85018412161561593757615937615a0b565b6001600160ff1b038401831381161561595257615952615a0b565b50500390565b60008282101561596a5761596a615a0b565b500390565b60005b8381101561598a578181015183820152602001615972565b83811115613c995750506000910152565b6002810460018216806159af57607f821691505b602082108114156159d057634e487b7160e01b600052602260045260246000fd5b50919050565b60006000198214156159ea576159ea615a0b565b5060010190565b6000600160ff1b821415615a0757615a07615a0b565b0390565b634e487b7160e01b600052601160045260246000fd5b634e487b7160e01b600052601260045260246000fd5b634e487b7160e01b600052604160045260246000fdfe345796c5f37ac4d00f0bd7eebb6ba729df51ddd74dafb2db6bf0c4a4a354577aa2646970667358221220d3ebef8f985f880c08d81a69bf14345185ac468c93be5a4d68bae92efd5a50cc64736f6c63430008000033",
  "immutableReferences": {},
  "source": "// SPDX-License-Identifier: MIT\npragma solidity ^0.8.0;\n\ncontract Delivery {\n\n    address public owner;\n\n    Contract[] contracts;                                   // [contract_idx]\n    mapping (uint => Settlement[]) private settlements;     // contract_idx => settlement[]\n    mapping (uint => Transaction[]) private transactions;   // contract_idx => transaction[]\n    mapping (uint => Artifact[]) private artifacts;         // contract_idx => artifact_list[]\n    mapping (uint => Party[]) private parties;              // contract_idx => party[]\n\n    // every field ending in _dt is a unix timestamp\n    // every field ending in _amt is an integer representing a float with 2 decimals\n    // every field ending in _pct is an integer represending a float value with 4 decimals \n    // every field ending in _confirm is a string returned from the fiat payment provider\n\n    struct Contract {\n        string extended_data;           // json extended data\n        string contract_name;           // description for display purposes\n        string contract_type;           // the type of contract, e.g. ticketing, construction\n        string funding_instr;           // buyer funding instructions\n        uint service_fee_pct;           // service fee pct <= service_fee_max\n        uint service_fee_max;           // maximum fee that can be charged if the rate is variable\n        int service_fee_amt;            // flat rate amt if not percentage based\n        uint advance_pct;               // amount of money that will be advanced to seller for every transaction\n        uint late_fee_pct;              // an APR, daily rate calculated as late_fee_pct / 365\n        string transact_logic;          // jsonlogic formula for calculating transaction amount\n        int min_threshold;              // minimum expected amount for a deliverable (could be negative)\n        int max_threshold;              // maximum expected amount for a deliverable\n        string notes;                   // contract notes, can be used for additonal data requests\n        bool is_active;                 // instead of deleting, clear this flag to False\n        bool is_quote;                  // true if still in the quote stage\n    }\n\n    struct Settlement {\n        string extended_data;           // json extended data\n        uint settle_due_dt;             // date the payment is due \n        uint transact_min_dt;           // min date the transaction is made \n        uint transact_max_dt;           // max date the transaction is made \n        uint transact_count;            // number of transactions in this current settlement period \n        int advance_amt;                // the dollar amount that was advanced in this period (net amt)\n        int advance_amt_gross;          // the dollar amount that was advanced in this period less fees\n        uint settle_pay_dt;             // when the settlement was paid\n        int settle_exp_amt;             // expected amount of settlement 0\n        int settle_pay_amt;             // actual amount paid from the buyer\n        string settle_confirm;          // confirmation from payment source\n        int dispute_amt;                // if expected < actual, assume there was a dispute\n        string dispute_reason;          // if dispute_amt > 0, what was the reason (if provided)\n        uint days_late;                 // number of days late the payment was made\n        int late_fee_amt;               // amount of the late fee, will be taken out of the residual\n        uint residual_pay_dt;           // date and time the residual was paid\n        int residual_pay_amt;           // will equal residual_calc_amt after payment intitiated\n        string residual_confirm;        // residual confirmation from the payment source\n        int residual_exp_amt;           // expected amount of the residual\n        int residual_calc_amt;          // what the actual residual will be (exp - late_fee - dispute)\n    }\n\n    struct Transaction {\n        string extended_data;           // json extended data\n        uint transact_dt;               // date and time of the transaction\n        int transact_amt;               // calculated value of a transaction, negative if an adjustment\n        int service_fee_amt;            // calculated fee for a transaction\n        int advance_amt;                // advance_amt * advance_pct - service_fee_amt\n        string transact_data;           // data regarding transaction for jsonlogic    \n        uint advance_pay_dt;            // payment of advance\n        uint advance_pay_amt;           // will equal advance amt after payment initiated\n        string advance_confirm;         // payment confirmation of the advance from payment source\n    }\n\n    struct Artifact {\n        string doc_title;               // Document title\n        string doc_type;                // Document type (e.g., \"application/pdf\")\n        uint added_dt;                  // Timestamp of when the artifact was added\n        string s3_bucket;               // S3 bucket name\n        string s3_object_key;           // S3 object key (full path to the document)\n        string s3_version_id;           // S3 version ID for versioned objects\n    }\n\n    struct Party {\n        string party_code;              // code associated with a party\n        address party_address;          // wallet address\n        string party_type;              // the type of party associated with contract\n    }\n\n    event ContractEvent(uint indexed contract_idx, string eventType, string details);\n\n    function getContractCount() public view returns (uint) {\n        return contracts.length;\n    }\n\n    function getContract(uint contract_idx) public view returns (Contract memory) {\n        require(contract_idx < contracts.length, \"Invalid contract index\");\n        return contracts[contract_idx];\n    }\n\n    function addContract (Contract memory contract_) public {\n        contracts.push(contract_);\n        emit ContractEvent(contracts.length - 1, \"ContractAdded\", contract_.contract_name);\n    }\n\n    function logContractChange(uint contract_idx, string memory field, string memory old_value, string memory new_value) private {\n        if (keccak256(bytes(old_value)) != keccak256(bytes(new_value))) {\n            emit ContractEvent(contract_idx, \"ContractUpdated\", string(abi.encodePacked(field, \":\", old_value, \"->\", new_value)));\n        }\n    }\n\n    function updateContract (uint contract_idx, Contract memory contract_) public {\n        require(contract_idx < contracts.length, \"Invalid contract index\");\n        logContractChange(contract_idx, \"extended_data\", contracts[contract_idx].extended_data, contract_.extended_data);\n        logContractChange(contract_idx, \"contract_name\", contracts[contract_idx].contract_name, contract_.contract_name);\n        logContractChange(contract_idx, \"contract_type\", contracts[contract_idx].contract_type, contract_.contract_type);\n        logContractChange(contract_idx, \"funding_instr\", contracts[contract_idx].funding_instr, contract_.funding_instr);\n        logContractChange(contract_idx, \"service_fee_pct\", uintToString(contracts[contract_idx].service_fee_pct), uintToString(contract_.service_fee_pct));\n        logContractChange(contract_idx, \"service_fee_max\", uintToString(contracts[contract_idx].service_fee_max), uintToString(contract_.service_fee_max));\n        logContractChange(contract_idx, \"service_fee_amt\", intToString(contracts[contract_idx].service_fee_amt), intToString(contract_.service_fee_amt));\n        logContractChange(contract_idx, \"advance_pct\", uintToString(contracts[contract_idx].advance_pct), uintToString(contract_.advance_pct));\n        logContractChange(contract_idx, \"late_fee_pct\", uintToString(contracts[contract_idx].late_fee_pct), uintToString(contract_.late_fee_pct));\n        logContractChange(contract_idx, \"transact_logic\", contracts[contract_idx].transact_logic, contract_.transact_logic);\n        logContractChange(contract_idx, \"notes\", contracts[contract_idx].notes, contract_.notes);\n        logContractChange(contract_idx, \"is_active\", boolToString(contracts[contract_idx].is_active), boolToString(contract_.is_active));\n        logContractChange(contract_idx, \"is_quote\", boolToString(contracts[contract_idx].is_quote), boolToString(contract_.is_quote));\n        contracts[contract_idx] = contract_;\n    }\n\n    // Mark a contract as inactive \n    function deleteContract(uint contract_idx) public {\n        require(contract_idx < contracts.length, \"Invalid contract index\");\n        contracts[contract_idx].is_active = false;\n        emit ContractEvent(contract_idx, \"ContractDeleted\", uintToString(contract_idx));\n    }\n\n    function getParties(uint contract_idx) public view returns (Party[] memory) {\n        require(contract_idx < contracts.length, \"Invalid contract index\");\n        return parties[contract_idx];\n    }\n\n    function addParty(uint contract_idx, Party memory party) public {\n        require(contract_idx < contracts.length, \"Invalid contract index\");\n        parties[contract_idx].push(party);\n        emit ContractEvent(contract_idx, \"PartyAdded\", party.party_code);\n    }\n\n    function deleteParty(uint contract_idx, uint party_idx) public {\n        require(contract_idx < contracts.length, \"Invalid contract index\");\n        require(party_idx < parties[contract_idx].length, \"Invalid party index\");\n\n        for (uint i = party_idx; i < parties[contract_idx].length - 1; i++) {\n            parties[contract_idx][i] = parties[contract_idx][i + 1];\n        }\n\n        parties[contract_idx].pop();\n\n        emit ContractEvent(contract_idx, \"PartyDeleted\", uintToString(party_idx));\n    }\n\n    function deleteParties(uint contract_idx) public {\n        require(contract_idx < contracts.length, \"Invalid contract index\");\n        delete parties[contract_idx];\n        emit ContractEvent(contract_idx, \"PartiesDeleted\", \"\");\n    }\n\n    function getArtifacts(uint contract_idx) public view returns (Artifact[] memory) {\n        require(contract_idx < contracts.length, \"Invalid contract index\");\n        return artifacts[contract_idx];\n    }\n\n    // Update addArtifact function:\n    function addArtifact(uint contract_idx, string memory doc_title, string memory doc_type, uint added_dt,\n        string memory s3_bucket, string memory s3_object_key, string memory s3_version_id) public {\n        require(contract_idx < contracts.length, \"Invalid contract index\");\n        Artifact memory artifact;\n        artifact.doc_title = doc_title;\n        artifact.doc_type = doc_type;\n        artifact.added_dt = added_dt;\n        artifact.s3_bucket = s3_bucket;\n        artifact.s3_object_key = s3_object_key;\n        artifact.s3_version_id = s3_version_id;\n        artifacts[contract_idx].push(artifact);\n        emit ContractEvent(contract_idx, \"ArtifactAdded\", doc_title);\n    }\n\n    function deleteArtifact(uint contract_idx, uint artifact_idx) public {\n        require(contract_idx < contracts.length, \"Invalid contract index\");\n        require(artifact_idx < artifacts[contract_idx].length, \"Invalid artifact index\");\n\n        for (uint i = artifact_idx; i < artifacts[contract_idx].length - 1; i++) {\n            artifacts[contract_idx][i] = artifacts[contract_idx][i + 1];\n        }\n\n        artifacts[contract_idx].pop();\n\n        emit ContractEvent(contract_idx, \"ArtifactDeleted\", uintToString(artifact_idx));\n    }\n\n    function deleteArtifacts(uint contract_idx) public {\n        require(contract_idx < contracts.length, \"Invalid contract index\");\n        delete artifacts[contract_idx];\n        emit ContractEvent(contract_idx, \"ArtifactsDeleted\", \"\");\n    }\n\n    function getSettlements(uint contract_idx) public view returns (Settlement[] memory) {\n        require(contract_idx < contracts.length, \"Invalid contract index\");\n        return settlements[contract_idx];\n    }\n\n    function addSettlement(uint contract_idx, string memory extended_data, uint settle_due_dt, uint transact_min_dt, uint transact_max_dt) public {\n        require(contract_idx < contracts.length, \"Invalid contract index\");\n        Settlement memory settlement;\n        settlement.settle_due_dt = settle_due_dt;\n        settlement.transact_min_dt = transact_min_dt;\n        settlement.transact_max_dt = transact_max_dt;\n        settlement.extended_data = extended_data;\n        settlements[contract_idx].push(settlement);\n        emit ContractEvent(contract_idx, \"SettlementAdded\", settlement.extended_data);\n    }\n\n    function deleteSettlements(uint contract_idx) public {\n        require(contract_idx < contracts.length, \"Invalid contract index\");\n        delete settlements[contract_idx];\n        emit ContractEvent(contract_idx, \"SettlementsDeleted\", \"\");\n    }\n\n    function getTransactions(uint contract_idx) public view returns (Transaction[] memory) {\n        require(contract_idx < contracts.length, \"Invalid contract index\");\n        return transactions[contract_idx];\n    }\n\n    function deleteTransactions(uint contract_idx) public {\n        require(contract_idx < contracts.length, \"Invalid contract index\");\n        delete transactions[contract_idx];\n        emit ContractEvent(contract_idx, \"TransactionsDeleted\", \"\");\n    }\n\n    function addTransaction(uint contract_idx, string memory extended_data, uint transact_dt, int transact_amt, string memory transact_data) public {\n        require(contract_idx < contracts.length, \"Invalid contract index\");\n\n        Transaction memory transact;\n        transact.extended_data = extended_data;\n        transact.transact_dt = transact_dt;\n        transact.transact_amt = transact_amt;\n        transact.transact_data = transact_data;\n\n        bool settle_found = false;\n        int transact_advance_amt = 0;\n        int transact_advance_amt_gross = 0;\n        int service_fee_amt = 0;\n\n        for (uint i = 0; i < settlements[contract_idx].length; i++) {\n            Settlement storage settlement = settlements[contract_idx][i];\n            // minimum date is inclusive, maximum date is exclusive\n            if (transact_dt >= settlement.transact_min_dt && transact_dt < settlement.transact_max_dt) {\n                if (transact_amt > 0) {\n                    service_fee_amt = int((contracts[contract_idx].service_fee_pct * uint(transact_amt)) / 10000) + int(contracts[contract_idx].service_fee_amt);\n                    transact_advance_amt_gross = int((uint(transact_amt) * contracts[contract_idx].advance_pct) / 10000);\n\n                    // Determine the final advance amount after subtracting the service fee\n                    if (transact_advance_amt_gross >= service_fee_amt) {\n                        transact_advance_amt = transact_advance_amt_gross - service_fee_amt;\n                    }\n                }\n\n                settlement.settle_exp_amt += transact_amt;\n                settlement.advance_amt += transact_advance_amt;\n                settlement.advance_amt_gross += transact_advance_amt_gross;\n                settlement.residual_exp_amt = settlement.settle_exp_amt - settlement.advance_amt_gross;\n                settlement.transact_count++;\n                transact.advance_amt = transact_advance_amt;\n                transact.service_fee_amt = service_fee_amt;\n                settle_found = true;\n            }\n        }\n\n        if (settle_found) {\n            transactions[contract_idx].push(transact);\n            emit ContractEvent(contract_idx, \"TransactionAdded\", transact.extended_data);\n        } else {\n            emit ContractEvent(contract_idx, \"TransactionError\", \"No valid settlement period\");\n        }\n    }\n\n    function payAdvance(uint contract_idx, uint transact_idx, uint advance_pay_dt, uint advance_pay_amt, string memory advance_confirm) public {\n        require(contract_idx < contracts.length, \"Invalid contract index\");\n        transactions[contract_idx][transact_idx].advance_pay_dt = advance_pay_dt;\n        transactions[contract_idx][transact_idx].advance_pay_amt = advance_pay_amt;\n        transactions[contract_idx][transact_idx].advance_confirm = advance_confirm;\n        emit ContractEvent(contract_idx, \"PayAdvance\", \"\");\n    }\n\n    function postSettlement(uint contract_idx, uint settle_idx, uint settle_pay_dt, int settle_pay_amt, string memory settle_confirm, string memory dispute_reason) public {\n        require(contract_idx < contracts.length, \"Invalid contract index\");\n        settlements[contract_idx][settle_idx].settle_pay_dt = settle_pay_dt;\n        settlements[contract_idx][settle_idx].settle_pay_amt = settle_pay_amt;\n        settlements[contract_idx][settle_idx].settle_confirm = settle_confirm;\n\n        if (settle_pay_dt > settlements[contract_idx][settle_idx].settle_due_dt) {\n            settlements[contract_idx][settle_idx].days_late = (settle_pay_dt - settlements[contract_idx][settle_idx].settle_due_dt) / 60 / 60 / 24;\n\n            // Convert necessary values to int to match types and avoid errors\n            int days_late = int(settlements[contract_idx][settle_idx].days_late);\n            int late_fee_pct = int(contracts[contract_idx].late_fee_pct);\n            int settle_exp_amt = settlements[contract_idx][settle_idx].settle_exp_amt;\n\n            settlements[contract_idx][settle_idx].late_fee_amt = (days_late * ((late_fee_pct * 100000) / 365) * settle_exp_amt) / 1000000000;\n        }\n\n        if (settle_pay_amt < settlements[contract_idx][settle_idx].settle_exp_amt) {\n            settlements[contract_idx][settle_idx].dispute_amt = settlements[contract_idx][settle_idx].settle_exp_amt - settle_pay_amt;\n            settlements[contract_idx][settle_idx].dispute_reason = dispute_reason;\n        } \n\n        if ((settlements[contract_idx][settle_idx].residual_exp_amt - settlements[contract_idx][settle_idx].late_fee_amt - settlements[contract_idx][settle_idx].dispute_amt) > 0) {\n            settlements[contract_idx][settle_idx].residual_calc_amt = settlements[contract_idx][settle_idx].residual_exp_amt - settlements[contract_idx][settle_idx].late_fee_amt -\n                settlements[contract_idx][settle_idx].dispute_amt;\n        } else {\n            settlements[contract_idx][settle_idx].residual_calc_amt = 0;\n        }\n\n        emit ContractEvent(contract_idx, \"PostSettlement\", \"\");\n    }\n\n    function payResidual(uint contract_idx, uint settle_idx, uint residual_pay_dt, int residual_pay_amt, string memory residual_confirm) public {\n        require(contract_idx < contracts.length, \"Invalid contract index\");\n        settlements[contract_idx][settle_idx].residual_pay_dt = residual_pay_dt;\n        settlements[contract_idx][settle_idx].residual_pay_amt = residual_pay_amt;\n        settlements[contract_idx][settle_idx].residual_confirm = residual_confirm;\n        emit ContractEvent(contract_idx, \"ResidualPaid\", \"\");\n    }\n\n    function importContract(Contract memory contract_) public {\n        contracts.push(contract_);\n    }\n\n    function importParty(uint contract_idx, Party memory party) public {\n        require(contract_idx < contracts.length, \"Invalid contract index\");\n        parties[contract_idx].push(party);\n    }\n\n    function importSettlement(uint contract_idx, Settlement memory settlement) public {\n        require(contract_idx < contracts.length, \"Invalid contract index\");\n        settlements[contract_idx].push(settlement);\n    }\n\n    function importTransaction(uint contract_idx, Transaction memory transaction) public {\n        require(contract_idx < contracts.length, \"Invalid contract index\");\n        transactions[contract_idx].push(transaction);\n    }\n\n    function importArtifact(uint contract_idx, Artifact memory artifact) public {\n        require(contract_idx < contracts.length, \"Invalid contract index\");\n        artifacts[contract_idx].push(artifact);\n    }\n\n    function uintToString(uint v) internal pure returns (string memory) {\n        if (v == 0) {\n            return \"0\";\n        }\n        uint j = v;\n        uint len;\n        while (j != 0) {\n            len++;\n            j /= 10;\n        }\n        bytes memory bstr = new bytes(len);\n        uint k = len;\n        while (v != 0) {\n            k = k - 1;\n            uint8 temp = (48 + uint8(v - v / 10 * 10));\n            bytes1 b1 = bytes1(temp);\n            bstr[k] = b1;\n            v /= 10;\n        }\n        return string(bstr);\n    }\n\n   function intToString(int v) internal pure returns (string memory) {\n        if (v == 0) {\n            return \"0\";\n        }\n\n        bool negative = v < 0;\n        uint len = 0;\n        uint i;\n        int temp = v;\n\n        if (negative) {\n            temp = -temp;\n            len++;\n        }\n\n        i = uint(temp);\n\n        while (i != 0) {\n            len++;\n            i /= 10;\n        }\n\n        bytes memory bstr = new bytes(len);\n        uint k = len;\n        i = uint(temp);\n\n        while (i != 0) {\n            k = k - 1;\n            uint8 tempDigit = (48 + uint8(i - i / 10 * 10));\n            bytes1 b1 = bytes1(tempDigit);\n            bstr[k] = b1;\n            i /= 10;\n        }\n\n        if (negative) {\n            bstr[0] = '-';\n        }\n\n        return string(bstr);\n    } \n\n    function boolToString(bool v) internal pure returns (string memory) {\n        return v ? \"true\" : \"false\";\n    }\n}",
  "sourcePath": "/Users/davidnichamoff/Projects/FIZIT_DEV/truffle/contracts/Delivery.sol",
  "compiler": {
    "name": "solc",
    "version": "0.8.0+commit.c7dfd78e.Emscripten.clang"
  },
  "schemaVersion": "3.4.16",
  "updatedAt": "2024-10-22T15:41:36.995Z",
  "networkType": "ethereum",
  "devdoc": {
    "kind": "dev",
    "methods": {},
    "version": 1
  },
  "userdoc": {
    "kind": "user",
    "methods": {},
    "version": 1
  }
}