{
  "contractName": "Delivery",
  "abi": [
    {
      "anonymous": false,
      "inputs": [
        {
          "indexed": true,
          "internalType": "uint256",
          "name": "contract_idx",
          "type": "uint256"
        },
        {
          "indexed": false,
          "internalType": "string",
          "name": "eventType",
          "type": "string"
        },
        {
          "indexed": false,
          "internalType": "string",
          "name": "details",
          "type": "string"
        }
      ],
      "name": "ContractEvent",
      "type": "event"
    },
    {
      "inputs": [],
      "name": "owner",
      "outputs": [
        {
          "internalType": "address",
          "name": "",
          "type": "address"
        }
      ],
      "stateMutability": "view",
      "type": "function"
    },
    {
      "inputs": [],
      "name": "getContractCount",
      "outputs": [
        {
          "internalType": "uint256",
          "name": "",
          "type": "uint256"
        }
      ],
      "stateMutability": "view",
      "type": "function"
    },
    {
      "inputs": [
        {
          "internalType": "uint256",
          "name": "contract_idx",
          "type": "uint256"
        }
      ],
      "name": "getContract",
      "outputs": [
        {
          "components": [
            {
              "internalType": "string",
              "name": "extended_data",
              "type": "string"
            },
            {
              "internalType": "string",
              "name": "contract_name",
              "type": "string"
            },
            {
              "internalType": "string",
              "name": "contract_type",
              "type": "string"
            },
            {
              "internalType": "string",
              "name": "funding_instr",
              "type": "string"
            },
            {
              "internalType": "uint256",
              "name": "service_fee_pct",
              "type": "uint256"
            },
            {
              "internalType": "uint256",
              "name": "service_fee_max",
              "type": "uint256"
            },
            {
              "internalType": "int256",
              "name": "service_fee_amt",
              "type": "int256"
            },
            {
              "internalType": "uint256",
              "name": "advance_pct",
              "type": "uint256"
            },
            {
              "internalType": "uint256",
              "name": "late_fee_pct",
              "type": "uint256"
            },
            {
              "internalType": "string",
              "name": "transact_logic",
              "type": "string"
            },
            {
              "internalType": "int256",
              "name": "min_threshold",
              "type": "int256"
            },
            {
              "internalType": "int256",
              "name": "max_threshold",
              "type": "int256"
            },
            {
              "internalType": "string",
              "name": "notes",
              "type": "string"
            },
            {
              "internalType": "bool",
              "name": "is_active",
              "type": "bool"
            },
            {
              "internalType": "bool",
              "name": "is_quote",
              "type": "bool"
            }
          ],
          "internalType": "struct Delivery.Contract",
          "name": "",
          "type": "tuple"
        }
      ],
      "stateMutability": "view",
      "type": "function"
    },
    {
      "inputs": [
        {
          "components": [
            {
              "internalType": "string",
              "name": "extended_data",
              "type": "string"
            },
            {
              "internalType": "string",
              "name": "contract_name",
              "type": "string"
            },
            {
              "internalType": "string",
              "name": "contract_type",
              "type": "string"
            },
            {
              "internalType": "string",
              "name": "funding_instr",
              "type": "string"
            },
            {
              "internalType": "uint256",
              "name": "service_fee_pct",
              "type": "uint256"
            },
            {
              "internalType": "uint256",
              "name": "service_fee_max",
              "type": "uint256"
            },
            {
              "internalType": "int256",
              "name": "service_fee_amt",
              "type": "int256"
            },
            {
              "internalType": "uint256",
              "name": "advance_pct",
              "type": "uint256"
            },
            {
              "internalType": "uint256",
              "name": "late_fee_pct",
              "type": "uint256"
            },
            {
              "internalType": "string",
              "name": "transact_logic",
              "type": "string"
            },
            {
              "internalType": "int256",
              "name": "min_threshold",
              "type": "int256"
            },
            {
              "internalType": "int256",
              "name": "max_threshold",
              "type": "int256"
            },
            {
              "internalType": "string",
              "name": "notes",
              "type": "string"
            },
            {
              "internalType": "bool",
              "name": "is_active",
              "type": "bool"
            },
            {
              "internalType": "bool",
              "name": "is_quote",
              "type": "bool"
            }
          ],
          "internalType": "struct Delivery.Contract",
          "name": "contract_",
          "type": "tuple"
        }
      ],
      "name": "addContract",
      "outputs": [],
      "stateMutability": "nonpayable",
      "type": "function"
    },
    {
      "inputs": [
        {
          "internalType": "uint256",
          "name": "contract_idx",
          "type": "uint256"
        },
        {
          "components": [
            {
              "internalType": "string",
              "name": "extended_data",
              "type": "string"
            },
            {
              "internalType": "string",
              "name": "contract_name",
              "type": "string"
            },
            {
              "internalType": "string",
              "name": "contract_type",
              "type": "string"
            },
            {
              "internalType": "string",
              "name": "funding_instr",
              "type": "string"
            },
            {
              "internalType": "uint256",
              "name": "service_fee_pct",
              "type": "uint256"
            },
            {
              "internalType": "uint256",
              "name": "service_fee_max",
              "type": "uint256"
            },
            {
              "internalType": "int256",
              "name": "service_fee_amt",
              "type": "int256"
            },
            {
              "internalType": "uint256",
              "name": "advance_pct",
              "type": "uint256"
            },
            {
              "internalType": "uint256",
              "name": "late_fee_pct",
              "type": "uint256"
            },
            {
              "internalType": "string",
              "name": "transact_logic",
              "type": "string"
            },
            {
              "internalType": "int256",
              "name": "min_threshold",
              "type": "int256"
            },
            {
              "internalType": "int256",
              "name": "max_threshold",
              "type": "int256"
            },
            {
              "internalType": "string",
              "name": "notes",
              "type": "string"
            },
            {
              "internalType": "bool",
              "name": "is_active",
              "type": "bool"
            },
            {
              "internalType": "bool",
              "name": "is_quote",
              "type": "bool"
            }
          ],
          "internalType": "struct Delivery.Contract",
          "name": "contract_",
          "type": "tuple"
        }
      ],
      "name": "updateContract",
      "outputs": [],
      "stateMutability": "nonpayable",
      "type": "function"
    },
    {
      "inputs": [
        {
          "internalType": "uint256",
          "name": "contract_idx",
          "type": "uint256"
        }
      ],
      "name": "deleteContract",
      "outputs": [],
      "stateMutability": "nonpayable",
      "type": "function"
    },
    {
      "inputs": [
        {
          "internalType": "uint256",
          "name": "contract_idx",
          "type": "uint256"
        }
      ],
      "name": "getParties",
      "outputs": [
        {
          "components": [
            {
              "internalType": "string",
              "name": "party_code",
              "type": "string"
            },
            {
              "internalType": "address",
              "name": "party_addr",
              "type": "address"
            },
            {
              "internalType": "string",
              "name": "party_type",
              "type": "string"
            }
          ],
          "internalType": "struct Delivery.Party[]",
          "name": "",
          "type": "tuple[]"
        }
      ],
      "stateMutability": "view",
      "type": "function"
    },
    {
      "inputs": [
        {
          "internalType": "uint256",
          "name": "contract_idx",
          "type": "uint256"
        },
        {
          "components": [
            {
              "internalType": "string",
              "name": "party_code",
              "type": "string"
            },
            {
              "internalType": "address",
              "name": "party_addr",
              "type": "address"
            },
            {
              "internalType": "string",
              "name": "party_type",
              "type": "string"
            }
          ],
          "internalType": "struct Delivery.Party",
          "name": "party",
          "type": "tuple"
        }
      ],
      "name": "addParty",
      "outputs": [],
      "stateMutability": "nonpayable",
      "type": "function"
    },
    {
      "inputs": [
        {
          "internalType": "uint256",
          "name": "contract_idx",
          "type": "uint256"
        },
        {
          "internalType": "uint256",
          "name": "party_idx",
          "type": "uint256"
        }
      ],
      "name": "deleteParty",
      "outputs": [],
      "stateMutability": "nonpayable",
      "type": "function"
    },
    {
      "inputs": [
        {
          "internalType": "uint256",
          "name": "contract_idx",
          "type": "uint256"
        }
      ],
      "name": "deleteParties",
      "outputs": [],
      "stateMutability": "nonpayable",
      "type": "function"
    },
    {
      "inputs": [
        {
          "internalType": "uint256",
          "name": "contract_idx",
          "type": "uint256"
        }
      ],
      "name": "getArtifacts",
      "outputs": [
        {
          "components": [
            {
              "internalType": "string",
              "name": "doc_title",
              "type": "string"
            },
            {
              "internalType": "string",
              "name": "doc_type",
              "type": "string"
            },
            {
              "internalType": "uint256",
              "name": "added_dt",
              "type": "uint256"
            },
            {
              "internalType": "string",
              "name": "s3_bucket",
              "type": "string"
            },
            {
              "internalType": "string",
              "name": "s3_object_key",
              "type": "string"
            },
            {
              "internalType": "string",
              "name": "s3_version_id",
              "type": "string"
            }
          ],
          "internalType": "struct Delivery.Artifact[]",
          "name": "",
          "type": "tuple[]"
        }
      ],
      "stateMutability": "view",
      "type": "function"
    },
    {
      "inputs": [
        {
          "internalType": "uint256",
          "name": "contract_idx",
          "type": "uint256"
        },
        {
          "internalType": "string",
          "name": "doc_title",
          "type": "string"
        },
        {
          "internalType": "string",
          "name": "doc_type",
          "type": "string"
        },
        {
          "internalType": "uint256",
          "name": "added_dt",
          "type": "uint256"
        },
        {
          "internalType": "string",
          "name": "s3_bucket",
          "type": "string"
        },
        {
          "internalType": "string",
          "name": "s3_object_key",
          "type": "string"
        },
        {
          "internalType": "string",
          "name": "s3_version_id",
          "type": "string"
        }
      ],
      "name": "addArtifact",
      "outputs": [],
      "stateMutability": "nonpayable",
      "type": "function"
    },
    {
      "inputs": [
        {
          "internalType": "uint256",
          "name": "contract_idx",
          "type": "uint256"
        },
        {
          "internalType": "uint256",
          "name": "artifact_idx",
          "type": "uint256"
        }
      ],
      "name": "deleteArtifact",
      "outputs": [],
      "stateMutability": "nonpayable",
      "type": "function"
    },
    {
      "inputs": [
        {
          "internalType": "uint256",
          "name": "contract_idx",
          "type": "uint256"
        }
      ],
      "name": "deleteArtifacts",
      "outputs": [],
      "stateMutability": "nonpayable",
      "type": "function"
    },
    {
      "inputs": [
        {
          "internalType": "uint256",
          "name": "contract_idx",
          "type": "uint256"
        }
      ],
      "name": "getSettlements",
      "outputs": [
        {
          "components": [
            {
              "internalType": "string",
              "name": "extended_data",
              "type": "string"
            },
            {
              "internalType": "uint256",
              "name": "settle_due_dt",
              "type": "uint256"
            },
            {
              "internalType": "uint256",
              "name": "transact_min_dt",
              "type": "uint256"
            },
            {
              "internalType": "uint256",
              "name": "transact_max_dt",
              "type": "uint256"
            },
            {
              "internalType": "uint256",
              "name": "transact_count",
              "type": "uint256"
            },
            {
              "internalType": "int256",
              "name": "advance_amt",
              "type": "int256"
            },
            {
              "internalType": "int256",
              "name": "advance_amt_gross",
              "type": "int256"
            },
            {
              "internalType": "uint256",
              "name": "settle_pay_dt",
              "type": "uint256"
            },
            {
              "internalType": "int256",
              "name": "settle_exp_amt",
              "type": "int256"
            },
            {
              "internalType": "int256",
              "name": "settle_pay_amt",
              "type": "int256"
            },
            {
              "internalType": "int256",
              "name": "dispute_amt",
              "type": "int256"
            },
            {
              "internalType": "string",
              "name": "dispute_reason",
              "type": "string"
            },
            {
              "internalType": "uint256",
              "name": "days_late",
              "type": "uint256"
            },
            {
              "internalType": "int256",
              "name": "late_fee_amt",
              "type": "int256"
            },
            {
              "internalType": "uint256",
              "name": "residual_pay_dt",
              "type": "uint256"
            },
            {
              "internalType": "int256",
              "name": "residual_pay_amt",
              "type": "int256"
            },
            {
              "internalType": "int256",
              "name": "residual_exp_amt",
              "type": "int256"
            },
            {
              "internalType": "int256",
              "name": "residual_calc_amt",
              "type": "int256"
            }
          ],
          "internalType": "struct Delivery.Settlement[]",
          "name": "",
          "type": "tuple[]"
        }
      ],
      "stateMutability": "view",
      "type": "function"
    },
    {
      "inputs": [
        {
          "internalType": "uint256",
          "name": "contract_idx",
          "type": "uint256"
        },
        {
          "internalType": "string",
          "name": "extended_data",
          "type": "string"
        },
        {
          "internalType": "uint256",
          "name": "settle_due_dt",
          "type": "uint256"
        },
        {
          "internalType": "uint256",
          "name": "transact_min_dt",
          "type": "uint256"
        },
        {
          "internalType": "uint256",
          "name": "transact_max_dt",
          "type": "uint256"
        }
      ],
      "name": "addSettlement",
      "outputs": [],
      "stateMutability": "nonpayable",
      "type": "function"
    },
    {
      "inputs": [
        {
          "internalType": "uint256",
          "name": "contract_idx",
          "type": "uint256"
        }
      ],
      "name": "deleteSettlements",
      "outputs": [],
      "stateMutability": "nonpayable",
      "type": "function"
    },
    {
      "inputs": [
        {
          "internalType": "uint256",
          "name": "contract_idx",
          "type": "uint256"
        }
      ],
      "name": "getTransactions",
      "outputs": [
        {
          "components": [
            {
              "internalType": "string",
              "name": "extended_data",
              "type": "string"
            },
            {
              "internalType": "uint256",
              "name": "transact_dt",
              "type": "uint256"
            },
            {
              "internalType": "int256",
              "name": "transact_amt",
              "type": "int256"
            },
            {
              "internalType": "int256",
              "name": "service_fee_amt",
              "type": "int256"
            },
            {
              "internalType": "int256",
              "name": "advance_amt",
              "type": "int256"
            },
            {
              "internalType": "string",
              "name": "transact_data",
              "type": "string"
            },
            {
              "internalType": "uint256",
              "name": "advance_pay_dt",
              "type": "uint256"
            },
            {
              "internalType": "uint256",
              "name": "advance_pay_amt",
              "type": "uint256"
            }
          ],
          "internalType": "struct Delivery.Transaction[]",
          "name": "",
          "type": "tuple[]"
        }
      ],
      "stateMutability": "view",
      "type": "function"
    },
    {
      "inputs": [
        {
          "internalType": "uint256",
          "name": "contract_idx",
          "type": "uint256"
        }
      ],
      "name": "deleteTransactions",
      "outputs": [],
      "stateMutability": "nonpayable",
      "type": "function"
    },
    {
      "inputs": [
        {
          "internalType": "uint256",
          "name": "contract_idx",
          "type": "uint256"
        },
        {
          "internalType": "string",
          "name": "extended_data",
          "type": "string"
        },
        {
          "internalType": "uint256",
          "name": "transact_dt",
          "type": "uint256"
        },
        {
          "internalType": "int256",
          "name": "transact_amt",
          "type": "int256"
        },
        {
          "internalType": "string",
          "name": "transact_data",
          "type": "string"
        }
      ],
      "name": "addTransaction",
      "outputs": [],
      "stateMutability": "nonpayable",
      "type": "function"
    },
    {
      "inputs": [
        {
          "internalType": "uint256",
          "name": "contract_idx",
          "type": "uint256"
        },
        {
          "internalType": "uint256",
          "name": "transact_idx",
          "type": "uint256"
        },
        {
          "internalType": "uint256",
          "name": "advance_pay_dt",
          "type": "uint256"
        },
        {
          "internalType": "uint256",
          "name": "advance_pay_amt",
          "type": "uint256"
        }
      ],
      "name": "payAdvance",
      "outputs": [],
      "stateMutability": "nonpayable",
      "type": "function"
    },
    {
      "inputs": [
        {
          "internalType": "uint256",
          "name": "contract_idx",
          "type": "uint256"
        },
        {
          "internalType": "uint256",
          "name": "settle_idx",
          "type": "uint256"
        },
        {
          "internalType": "uint256",
          "name": "settle_pay_dt",
          "type": "uint256"
        },
        {
          "internalType": "int256",
          "name": "settle_pay_amt",
          "type": "int256"
        },
        {
          "internalType": "string",
          "name": "dispute_reason",
          "type": "string"
        }
      ],
      "name": "postSettlement",
      "outputs": [],
      "stateMutability": "nonpayable",
      "type": "function"
    },
    {
      "inputs": [
        {
          "internalType": "uint256",
          "name": "contract_idx",
          "type": "uint256"
        },
        {
          "internalType": "uint256",
          "name": "settle_idx",
          "type": "uint256"
        },
        {
          "internalType": "uint256",
          "name": "residual_pay_dt",
          "type": "uint256"
        },
        {
          "internalType": "int256",
          "name": "residual_pay_amt",
          "type": "int256"
        }
      ],
      "name": "payResidual",
      "outputs": [],
      "stateMutability": "nonpayable",
      "type": "function"
    },
    {
      "inputs": [
        {
          "components": [
            {
              "internalType": "string",
              "name": "extended_data",
              "type": "string"
            },
            {
              "internalType": "string",
              "name": "contract_name",
              "type": "string"
            },
            {
              "internalType": "string",
              "name": "contract_type",
              "type": "string"
            },
            {
              "internalType": "string",
              "name": "funding_instr",
              "type": "string"
            },
            {
              "internalType": "uint256",
              "name": "service_fee_pct",
              "type": "uint256"
            },
            {
              "internalType": "uint256",
              "name": "service_fee_max",
              "type": "uint256"
            },
            {
              "internalType": "int256",
              "name": "service_fee_amt",
              "type": "int256"
            },
            {
              "internalType": "uint256",
              "name": "advance_pct",
              "type": "uint256"
            },
            {
              "internalType": "uint256",
              "name": "late_fee_pct",
              "type": "uint256"
            },
            {
              "internalType": "string",
              "name": "transact_logic",
              "type": "string"
            },
            {
              "internalType": "int256",
              "name": "min_threshold",
              "type": "int256"
            },
            {
              "internalType": "int256",
              "name": "max_threshold",
              "type": "int256"
            },
            {
              "internalType": "string",
              "name": "notes",
              "type": "string"
            },
            {
              "internalType": "bool",
              "name": "is_active",
              "type": "bool"
            },
            {
              "internalType": "bool",
              "name": "is_quote",
              "type": "bool"
            }
          ],
          "internalType": "struct Delivery.Contract",
          "name": "contract_",
          "type": "tuple"
        }
      ],
      "name": "importContract",
      "outputs": [],
      "stateMutability": "nonpayable",
      "type": "function"
    },
    {
      "inputs": [
        {
          "internalType": "uint256",
          "name": "contract_idx",
          "type": "uint256"
        },
        {
          "components": [
            {
              "internalType": "string",
              "name": "party_code",
              "type": "string"
            },
            {
              "internalType": "address",
              "name": "party_addr",
              "type": "address"
            },
            {
              "internalType": "string",
              "name": "party_type",
              "type": "string"
            }
          ],
          "internalType": "struct Delivery.Party",
          "name": "party",
          "type": "tuple"
        }
      ],
      "name": "importParty",
      "outputs": [],
      "stateMutability": "nonpayable",
      "type": "function"
    },
    {
      "inputs": [
        {
          "internalType": "uint256",
          "name": "contract_idx",
          "type": "uint256"
        },
        {
          "components": [
            {
              "internalType": "string",
              "name": "extended_data",
              "type": "string"
            },
            {
              "internalType": "uint256",
              "name": "settle_due_dt",
              "type": "uint256"
            },
            {
              "internalType": "uint256",
              "name": "transact_min_dt",
              "type": "uint256"
            },
            {
              "internalType": "uint256",
              "name": "transact_max_dt",
              "type": "uint256"
            },
            {
              "internalType": "uint256",
              "name": "transact_count",
              "type": "uint256"
            },
            {
              "internalType": "int256",
              "name": "advance_amt",
              "type": "int256"
            },
            {
              "internalType": "int256",
              "name": "advance_amt_gross",
              "type": "int256"
            },
            {
              "internalType": "uint256",
              "name": "settle_pay_dt",
              "type": "uint256"
            },
            {
              "internalType": "int256",
              "name": "settle_exp_amt",
              "type": "int256"
            },
            {
              "internalType": "int256",
              "name": "settle_pay_amt",
              "type": "int256"
            },
            {
              "internalType": "int256",
              "name": "dispute_amt",
              "type": "int256"
            },
            {
              "internalType": "string",
              "name": "dispute_reason",
              "type": "string"
            },
            {
              "internalType": "uint256",
              "name": "days_late",
              "type": "uint256"
            },
            {
              "internalType": "int256",
              "name": "late_fee_amt",
              "type": "int256"
            },
            {
              "internalType": "uint256",
              "name": "residual_pay_dt",
              "type": "uint256"
            },
            {
              "internalType": "int256",
              "name": "residual_pay_amt",
              "type": "int256"
            },
            {
              "internalType": "int256",
              "name": "residual_exp_amt",
              "type": "int256"
            },
            {
              "internalType": "int256",
              "name": "residual_calc_amt",
              "type": "int256"
            }
          ],
          "internalType": "struct Delivery.Settlement",
          "name": "settlement",
          "type": "tuple"
        }
      ],
      "name": "importSettlement",
      "outputs": [],
      "stateMutability": "nonpayable",
      "type": "function"
    },
    {
      "inputs": [
        {
          "internalType": "uint256",
          "name": "contract_idx",
          "type": "uint256"
        },
        {
          "components": [
            {
              "internalType": "string",
              "name": "extended_data",
              "type": "string"
            },
            {
              "internalType": "uint256",
              "name": "transact_dt",
              "type": "uint256"
            },
            {
              "internalType": "int256",
              "name": "transact_amt",
              "type": "int256"
            },
            {
              "internalType": "int256",
              "name": "service_fee_amt",
              "type": "int256"
            },
            {
              "internalType": "int256",
              "name": "advance_amt",
              "type": "int256"
            },
            {
              "internalType": "string",
              "name": "transact_data",
              "type": "string"
            },
            {
              "internalType": "uint256",
              "name": "advance_pay_dt",
              "type": "uint256"
            },
            {
              "internalType": "uint256",
              "name": "advance_pay_amt",
              "type": "uint256"
            }
          ],
          "internalType": "struct Delivery.Transaction",
          "name": "transaction",
          "type": "tuple"
        }
      ],
      "name": "importTransaction",
      "outputs": [],
      "stateMutability": "nonpayable",
      "type": "function"
    },
    {
      "inputs": [
        {
          "internalType": "uint256",
          "name": "contract_idx",
          "type": "uint256"
        },
        {
          "components": [
            {
              "internalType": "string",
              "name": "doc_title",
              "type": "string"
            },
            {
              "internalType": "string",
              "name": "doc_type",
              "type": "string"
            },
            {
              "internalType": "uint256",
              "name": "added_dt",
              "type": "uint256"
            },
            {
              "internalType": "string",
              "name": "s3_bucket",
              "type": "string"
            },
            {
              "internalType": "string",
              "name": "s3_object_key",
              "type": "string"
            },
            {
              "internalType": "string",
              "name": "s3_version_id",
              "type": "string"
            }
          ],
          "internalType": "struct Delivery.Artifact",
          "name": "artifact",
          "type": "tuple"
        }
      ],
      "name": "importArtifact",
      "outputs": [],
      "stateMutability": "nonpayable",
      "type": "function"
    }
  ],
  "bytecode": "0x608060405234801561001057600080fd5b506155eb80620000216000396000f3fe608060405234801561001057600080fd5b50600436106101c45760003560e01c806372d14260116100f9578063afb1881011610097578063d311341211610071578063d3113412146103d4578063d5b327f7146103f4578063f633db9314610407578063fcf45c0f1461041a576101c4565b8063afb188101461039b578063bcac5bca146103ae578063c6bbcc90146103c1576101c4565b8063a2a78929116100d3578063a2a789291461034f578063a360b3fb14610362578063a399529514610375578063a50965dc14610388576101c4565b806372d14260146103125780638da5cb5b146103255780639399869d1461033a576101c4565b80635742177c116101665780636893d336116101405780636893d336146102b95780636e449c2b146102cc5780636e72ae88146102df5780636ebc8c86146102f2576101c4565b80635742177c146102735780635b4e97e71461029357806364da0a33146102a6576101c4565b806336d56a60116101a257806336d56a601461020457806338ad4fa714610217578063447fe2891461022a57806346f920fd14610253576101c4565b806311ef56de146101c957806326196460146101de5780632cd819e0146101f1575b600080fd5b6101dc6101d7366004614279565b61042d565b005b6101dc6101ec366004614666565b610495565b6101dc6101ff3660046148af565b6105bb565b6101dc61021236600461488e565b610694565b6101dc61022536600461436f565b61090f565b61023d610238366004614279565b610c62565b60405161024a9190614ab9565b60405180910390f35b610266610261366004614279565b610e28565b60405161024a9190614b42565b610286610281366004614279565b61106c565b60405161024a9190614c66565b6101dc6102a1366004614279565b61124c565b6101dc6102b436600461459b565b6112a0565b6101dc6102c7366004614279565b61135e565b6101dc6102da36600461488e565b6113ea565b6101dc6102ed36600461459b565b6115f3565b610305610300366004614279565b611695565b60405161024a919061518b565b6101dc6103203660046148e0565b611ad2565b61032d612174565b60405161024a91906149c6565b610342612183565b60405161024a91906152cd565b6101dc61035d3660046143ec565b612189565b6101dc6103703660046147b5565b612301565b6101dc61038336600461444b565b6123b9565b6101dc610396366004614557565b61248c565b6101dc6103a936600461423f565b612ece565b6101dc6103bc3660046148af565b613051565b6101dc6103cf366004614291565b61311c565b6103e76103e2366004614279565b613250565b60405161024a91906149da565b6101dc61040236600461423f565b6135b3565b6101dc610415366004614279565b61370a565b6101dc610428366004614279565b61375e565b60015481106104575760405162461bcd60e51b815260040161044e90614d94565b60405180910390fd5b600081815260046020526040812061046e91613b56565b8060008051602061559683398151915260405161048a90614fae565b60405180910390a250565b60015482106104b65760405162461bcd60e51b815260040161044e90614d94565b60008281526002602090815260408220805460018101825590835291819020835180518594601202909201926104f192849290910190613b7a565b50602082810151600183015560408301516002830155606083015160038301556080830151600483015560a0830151600583015560c0830151600683015560e0830151600783015561010083015160088301556101208301516009830155610140830151600a830155610160830151805161057292600b8501920190613b7a565b5061018082015181600c01556101a082015181600d01556101c082015181600e01556101e082015181600f01556102008201518160100155610220820151816011015550505050565b60015484106105dc5760405162461bcd60e51b815260040161044e90614d94565b600084815260026020526040902080548391908590811061060d57634e487b7160e01b600052603260045260246000fd5b9060005260206000209060120201600e01819055508060026000868152602001908152602001600020848154811061065557634e487b7160e01b600052603260045260246000fd5b9060005260206000209060120201600f01819055508360008051602061559683398151915260405161068690614e99565b60405180910390a250505050565b60015482106106b55760405162461bcd60e51b815260040161044e90614d94565b60008281526004602052604090205481106106e25760405162461bcd60e51b815260040161044e90614e33565b805b6000838152600460205260409020546106ff906001906154a0565b81101561084b57600083815260046020526040902061071f826001615340565b8154811061073d57634e487b7160e01b600052603260045260246000fd5b906000526020600020906006020160046000858152602001908152602001600020828154811061077d57634e487b7160e01b600052603260045260246000fd5b9060005260206000209060060201600082018160000190805461079f906154e3565b6107aa929190613bfe565b5060018201816001019080546107bf906154e3565b6107ca929190613bfe565b506002820154816002015560038201816003019080546107e9906154e3565b6107f4929190613bfe565b506004820181600401908054610809906154e3565b610814929190613bfe565b506005820181600501908054610829906154e3565b610834929190613bfe565b5090505080806108439061551e565b9150506106e4565b50600082815260046020526040902080548061087757634e487b7160e01b600052603160045260246000fd5b600082815260208120600019909201916006830201906108978282613c79565b6108a5600183016000613c79565b60028201600090556003820160006108bd9190613c79565b6108cb600483016000613c79565b6108d9600583016000613c79565b50509055816000805160206155968339815191526108f6836137b2565b6040516109039190614f07565b60405180910390a25050565b60015485106109305760405162461bcd60e51b815260040161044e90614d94565b610938613cb5565b848152602081018490526040810183905260a081018290526000808080805b60008b815260026020526040902054811015610b605760008b815260026020526040812080548390811061099b57634e487b7160e01b600052603260045260246000fd5b9060005260206000209060120201905080600201548a101580156109c2575080600301548a105b15610b4d576000891315610abb5760018c815481106109f157634e487b7160e01b600052603260045260246000fd5b90600052602060002090600e0201600601546127108a60018f81548110610a2857634e487b7160e01b600052603260045260246000fd5b90600052602060002090600e020160040154610a449190615442565b610a4e91906153ab565b610a5891906152ff565b925061271060018d81548110610a7e57634e487b7160e01b600052603260045260246000fd5b90600052602060002090600e0201600701548a610a9b9190615442565b610aa591906153ab565b9350828412610abb57610ab88385615461565b94505b88816008016000828254610acf91906152ff565b9250508190555084816005016000828254610aea91906152ff565b9250508190555083816006016000828254610b0591906152ff565b909155505060068101546008820154610b1e9190615461565b6010820155600481018054906000610b358361551e565b90915550506080870185905260608701839052600195505b5080610b588161551e565b915050610957565b508315610c315760008a8152600360209081526040822080546001810182559083529181902087518051899460080290920192610ba292849290910190613b7a565b50602082810151600183015560408301516002830155606083015160038301556080830151600483015560a08301518051610be39260058501920190613b7a565b5060c0820151816006015560e08201518160070155505089600080516020615596833981519152610c1787602001516137b2565b604051610c249190614d1c565b60405180910390a2610c56565b89600080516020615596833981519152604051610c4d9061512c565b60405180910390a25b50505050505050505050565b6001546060908210610c865760405162461bcd60e51b815260040161044e90614d94565b600082815260056020908152604080832080548251818502810185019093528083529193909284015b82821015610e1c5783829060005260206000209060030201604051806060016040529081600082018054610ce2906154e3565b80601f0160208091040260200160405190810160405280929190818152602001828054610d0e906154e3565b8015610d5b5780601f10610d3057610100808354040283529160200191610d5b565b820191906000526020600020905b815481529060010190602001808311610d3e57829003601f168201915b505050918352505060018201546001600160a01b03166020820152600282018054604090920191610d8b906154e3565b80601f0160208091040260200160405190810160405280929190818152602001828054610db7906154e3565b8015610e045780601f10610dd957610100808354040283529160200191610e04565b820191906000526020600020905b815481529060010190602001808311610de757829003601f168201915b50505050508152505081526020019060010190610caf565b5050505090505b919050565b6001546060908210610e4c5760405162461bcd60e51b815260040161044e90614d94565b600082815260026020908152604080832080548251818502810185019093528083529193909284015b82821015610e1c578382906000526020600020906012020160405180610240016040529081600082018054610ea9906154e3565b80601f0160208091040260200160405190810160405280929190818152602001828054610ed5906154e3565b8015610f225780601f10610ef757610100808354040283529160200191610f22565b820191906000526020600020905b815481529060010190602001808311610f0557829003601f168201915b50505050508152602001600182015481526020016002820154815260200160038201548152602001600482015481526020016005820154815260200160068201548152602001600782015481526020016008820154815260200160098201548152602001600a8201548152602001600b82018054610f9f906154e3565b80601f0160208091040260200160405190810160405280929190818152602001828054610fcb906154e3565b80156110185780601f10610fed57610100808354040283529160200191611018565b820191906000526020600020905b815481529060010190602001808311610ffb57829003601f168201915b50505050508152602001600c8201548152602001600d8201548152602001600e8201548152602001600f82015481526020016010820154815260200160118201548152505081526020019060010190610e75565b60015460609082106110905760405162461bcd60e51b815260040161044e90614d94565b600082815260036020908152604080832080548251818502810185019093528083529193909284015b82821015610e1c5783829060005260206000209060080201604051806101000160405290816000820180546110ed906154e3565b80601f0160208091040260200160405190810160405280929190818152602001828054611119906154e3565b80156111665780601f1061113b57610100808354040283529160200191611166565b820191906000526020600020905b81548152906001019060200180831161114957829003601f168201915b50505050508152602001600182015481526020016002820154815260200160038201548152602001600482015481526020016005820180546111a7906154e3565b80601f01602080910402602001604051908101604052809291908181526020018280546111d3906154e3565b80156112205780601f106111f557610100808354040283529160200191611220565b820191906000526020600020905b81548152906001019060200180831161120357829003601f168201915b5050505050815260200160068201548152602001600782015481525050815260200190600101906110b9565b600154811061126d5760405162461bcd60e51b815260040161044e90614d94565b600081815260026020526040812061128491613cfa565b8060008051602061559683398151915260405161048a90615081565b60015482106112c15760405162461bcd60e51b815260040161044e90614d94565b60008281526005602090815260408220805460018101825590835291819020835180518594600302909201926112fc92849290910190613b7a565b506020828101516001830180546001600160a01b0319166001600160a01b039092169190911790556040830151805161133b9260028501920190613b7a565b50508151604051849250600080516020615596833981519152916109039161504d565b600154811061137f5760405162461bcd60e51b815260040161044e90614d94565b6000600182815481106113a257634e487b7160e01b600052603260045260246000fd5b60009182526020909120600e90910201600d01805460ff1916911515919091179055806000805160206155968339815191526113dd826137b2565b60405161048a91906150bc565b600154821061140b5760405162461bcd60e51b815260040161044e90614d94565b60008281526005602052604090205481106114385760405162461bcd60e51b815260040161044e90614fe7565b805b600083815260056020526040902054611455906001906154a0565b81101561155d576000838152600560205260409020611475826001615340565b8154811061149357634e487b7160e01b600052603260045260246000fd5b90600052602060002090600302016005600085815260200190815260200160002082815481106114d357634e487b7160e01b600052603260045260246000fd5b906000526020600020906003020160008201816000019080546114f5906154e3565b611500929190613bfe565b5060018281015490820180546001600160a01b0319166001600160a01b03909216919091179055600280830180549183019161153b906154e3565b611546929190613bfe565b5090505080806115559061551e565b91505061143a565b50600082815260056020526040902080548061158957634e487b7160e01b600052603160045260246000fd5b600082815260208120600019909201916003830201906115a98282613c79565b6001820180546001600160a01b03191690556115c9600283016000613c79565b50509055816000805160206155968339815191526115e6836137b2565b6040516109039190614e63565b60015482106116145760405162461bcd60e51b815260040161044e90614d94565b600082815260056020908152604082208054600181018255908352918190208351805185946003029092019261164f92849290910190613b7a565b506020828101516001830180546001600160a01b0319166001600160a01b039092169190911790556040830151805161168e9260028501920190613b7a565b5050505050565b61169d613d1b565b60015482106116be5760405162461bcd60e51b815260040161044e90614d94565b600182815481106116df57634e487b7160e01b600052603260045260246000fd5b90600052602060002090600e0201604051806101e0016040529081600082018054611709906154e3565b80601f0160208091040260200160405190810160405280929190818152602001828054611735906154e3565b80156117825780601f1061175757610100808354040283529160200191611782565b820191906000526020600020905b81548152906001019060200180831161176557829003601f168201915b5050505050815260200160018201805461179b906154e3565b80601f01602080910402602001604051908101604052809291908181526020018280546117c7906154e3565b80156118145780601f106117e957610100808354040283529160200191611814565b820191906000526020600020905b8154815290600101906020018083116117f757829003601f168201915b5050505050815260200160028201805461182d906154e3565b80601f0160208091040260200160405190810160405280929190818152602001828054611859906154e3565b80156118a65780601f1061187b576101008083540402835291602001916118a6565b820191906000526020600020905b81548152906001019060200180831161188957829003601f168201915b505050505081526020016003820180546118bf906154e3565b80601f01602080910402602001604051908101604052809291908181526020018280546118eb906154e3565b80156119385780601f1061190d57610100808354040283529160200191611938565b820191906000526020600020905b81548152906001019060200180831161191b57829003601f168201915b505050505081526020016004820154815260200160058201548152602001600682015481526020016007820154815260200160088201548152602001600982018054611983906154e3565b80601f01602080910402602001604051908101604052809291908181526020018280546119af906154e3565b80156119fc5780601f106119d1576101008083540402835291602001916119fc565b820191906000526020600020905b8154815290600101906020018083116119df57829003601f168201915b50505050508152602001600a8201548152602001600b8201548152602001600c82018054611a29906154e3565b80601f0160208091040260200160405190810160405280929190818152602001828054611a55906154e3565b8015611aa25780601f10611a7757610100808354040283529160200191611aa2565b820191906000526020600020905b815481529060010190602001808311611a8557829003601f168201915b5050509183525050600d919091015460ff8082161515602084015261010090910416151560409091015292915050565b6001548510611af35760405162461bcd60e51b815260040161044e90614d94565b6000858152600260205260409020805484919086908110611b2457634e487b7160e01b600052603260045260246000fd5b90600052602060002090601202016007018190555081600260008781526020019081526020016000208581548110611b6c57634e487b7160e01b600052603260045260246000fd5b906000526020600020906012020160090181905550600260008681526020019081526020016000208481548110611bb357634e487b7160e01b600052603260045260246000fd5b906000526020600020906012020160010154831115611dcf576018603c80600260008981526020019081526020016000208781548110611c0357634e487b7160e01b600052603260045260246000fd5b90600052602060002090601202016001015486611c2091906154a0565b611c2a91906153ab565b611c3491906153ab565b611c3e91906153ab565b6000868152600260205260409020805486908110611c6c57634e487b7160e01b600052603260045260246000fd5b9060005260206000209060120201600c01819055506000600260008781526020019081526020016000208581548110611cb557634e487b7160e01b600052603260045260246000fd5b9060005260206000209060120201600c01549050600060018781548110611cec57634e487b7160e01b600052603260045260246000fd5b90600052602060002090600e02016008015490506000600260008981526020019081526020016000208781548110611d3457634e487b7160e01b600052603260045260246000fd5b9060005260206000209060120201600801549050633b9aca008161016d84620186a0611d6091906153bf565b611d6a919061537d565b611d7490866153bf565b611d7e91906153bf565b611d88919061537d565b6000898152600260205260409020805489908110611db657634e487b7160e01b600052603260045260246000fd5b9060005260206000209060120201600d01819055505050505b6000858152600260205260409020805485908110611dfd57634e487b7160e01b600052603260045260246000fd5b906000526020600020906012020160080154821215611eff576000858152600260205260409020805483919086908110611e4757634e487b7160e01b600052603260045260246000fd5b906000526020600020906012020160080154611e639190615461565b6000868152600260205260409020805486908110611e9157634e487b7160e01b600052603260045260246000fd5b9060005260206000209060120201600a018190555080600260008781526020019081526020016000208581548110611ed957634e487b7160e01b600052603260045260246000fd5b9060005260206000209060120201600b019080519060200190611efd929190613b7a565b505b6000858152600260205260408120805486908110611f2d57634e487b7160e01b600052603260045260246000fd5b9060005260206000209060120201600a0154600260008881526020019081526020016000208681548110611f7157634e487b7160e01b600052603260045260246000fd5b9060005260206000209060120201600d0154600260008981526020019081526020016000208781548110611fb557634e487b7160e01b600052603260045260246000fd5b906000526020600020906012020160100154611fd19190615461565b611fdb9190615461565b131561210557600085815260026020526040902080548590811061200f57634e487b7160e01b600052603260045260246000fd5b9060005260206000209060120201600a015460026000878152602001908152602001600020858154811061205357634e487b7160e01b600052603260045260246000fd5b9060005260206000209060120201600d015460026000888152602001908152602001600020868154811061209757634e487b7160e01b600052603260045260246000fd5b9060005260206000209060120201601001546120b39190615461565b6120bd9190615461565b60008681526002602052604090208054869081106120eb57634e487b7160e01b600052603260045260246000fd5b906000526020600020906012020160110181905550612149565b600085815260026020526040812080548690811061213357634e487b7160e01b600052603260045260246000fd5b9060005260206000209060120201601101819055505b8460008051602061559683398151915260405161216590614f40565b60405180910390a25050505050565b6000546001600160a01b031681565b60015490565b60015485106121aa5760405162461bcd60e51b815260040161044e90614d94565b6121b2613d95565b602080820185905260408083018590526060830184905286835260008881526002835290812080546001810182559082529082902083518051859460129094029092019261220592849290910190613b7a565b50602082810151600183015560408301516002830155606083015160038301556080830151600483015560a0830151600583015560c0830151600683015560e0830151600783015561010083015160088301556101208301516009830155610140830151600a830155610160830151805161228692600b8501920190613b7a565b5061018082015181600c01556101a082015181600d01556101c082015181600e01556101e082015181600f0155610200820151816010015561022082015181601101555050856000805160206155968339815191526122e4866137b2565b6040516122f19190615014565b60405180910390a2505050505050565b60015482106123225760405162461bcd60e51b815260040161044e90614d94565b600082815260036020908152604082208054600181018255908352918190208351805185946008029092019261235d92849290910190613b7a565b50602082810151600183015560408301516002830155606083015160038301556080830151600483015560a0830151805161239e9260058501920190613b7a565b5060c0820151816006015560e0820151816007015550505050565b60015482106123da5760405162461bcd60e51b815260040161044e90614d94565b600082815260046020908152604082208054600181018255908352918190208351805185946006029092019261241592849290910190613b7a565b50602082810151805161242e9260018501920190613b7a565b506040820151600282015560608201518051612454916003840191602090910190613b7a565b5060808201518051612470916004840191602090910190613b7a565b5060a0820151805161168e916005840191602090910190613b7a565b60015482106124ad5760405162461bcd60e51b815260040161044e90614d94565b61259c826040518060400160405280600d81526020016c657874656e6465645f6461746160981b815250600185815481106124f857634e487b7160e01b600052603260045260246000fd5b90600052602060002090600e02016000018054612514906154e3565b80601f0160208091040260200160405190810160405280929190818152602001828054612540906154e3565b801561258d5780601f106125625761010080835404028352916020019161258d565b820191906000526020600020905b81548152906001019060200180831161257057829003601f168201915b505050505084600001516138f7565b61268b826040518060400160405280600d81526020016c636f6e74726163745f6e616d6560981b815250600185815481106125e757634e487b7160e01b600052603260045260246000fd5b90600052602060002090600e02016001018054612603906154e3565b80601f016020809104026020016040519081016040528092919081815260200182805461262f906154e3565b801561267c5780601f106126515761010080835404028352916020019161267c565b820191906000526020600020905b81548152906001019060200180831161265f57829003601f168201915b505050505084602001516138f7565b61277a826040518060400160405280600d81526020016c636f6e74726163745f7479706560981b815250600185815481106126d657634e487b7160e01b600052603260045260246000fd5b90600052602060002090600e020160020180546126f2906154e3565b80601f016020809104026020016040519081016040528092919081815260200182805461271e906154e3565b801561276b5780601f106127405761010080835404028352916020019161276b565b820191906000526020600020905b81548152906001019060200180831161274e57829003601f168201915b505050505084604001516138f7565b612869826040518060400160405280600d81526020016c333ab73234b733afb4b739ba3960991b815250600185815481106127c557634e487b7160e01b600052603260045260246000fd5b90600052602060002090600e020160030180546127e1906154e3565b80601f016020809104026020016040519081016040528092919081815260200182805461280d906154e3565b801561285a5780601f1061282f5761010080835404028352916020019161285a565b820191906000526020600020905b81548152906001019060200180831161283d57829003601f168201915b505050505084606001516138f7565b6128e2826040518060400160405280600f81526020016e1cd95c9d9a58d957d9995957dc18dd608a1b8152506128d0600186815481106128b957634e487b7160e01b600052603260045260246000fd5b90600052602060002090600e0201600401546137b2565b6128dd85608001516137b2565b6138f7565b612956826040518060400160405280600f81526020016e0e6cae4ecd2c6cabecccacabedac2f608b1b8152506129496001868154811061293257634e487b7160e01b600052603260045260246000fd5b90600052602060002090600e0201600501546137b2565b6128dd8560a001516137b2565b6129ca826040518060400160405280600f81526020016e1cd95c9d9a58d957d9995957d85b5d608a1b8152506129bd600186815481106129a657634e487b7160e01b600052603260045260246000fd5b90600052602060002090600e020160060154613951565b6128dd8560c00151613951565b612a3a826040518060400160405280600b81526020016a18591d985b98d957dc18dd60aa1b815250612a2d60018681548110612a1657634e487b7160e01b600052603260045260246000fd5b90600052602060002090600e0201600701546137b2565b6128dd8560e001516137b2565b612aac826040518060400160405280600c81526020016b1b185d1957d9995957dc18dd60a21b815250612a9e60018681548110612a8757634e487b7160e01b600052603260045260246000fd5b90600052602060002090600e0201600801546137b2565b6128dd8561010001516137b2565b612b9d826040518060400160405280600e81526020016d7472616e736163745f6c6f67696360901b81525060018581548110612af857634e487b7160e01b600052603260045260246000fd5b90600052602060002090600e02016009018054612b14906154e3565b80601f0160208091040260200160405190810160405280929190818152602001828054612b40906154e3565b8015612b8d5780601f10612b6257610100808354040283529160200191612b8d565b820191906000526020600020905b815481529060010190602001808311612b7057829003601f168201915b50505050508461012001516138f7565b612c8582604051806040016040528060058152602001646e6f74657360d81b81525060018581548110612be057634e487b7160e01b600052603260045260246000fd5b90600052602060002090600e0201600c018054612bfc906154e3565b80601f0160208091040260200160405190810160405280929190818152602001828054612c28906154e3565b8015612c755780601f10612c4a57610100808354040283529160200191612c75565b820191906000526020600020905b815481529060010190602001808311612c5857829003601f168201915b50505050508461018001516138f7565b612cf9826040518060400160405280600981526020016869735f61637469766560b81b815250612ceb60018681548110612ccf57634e487b7160e01b600052603260045260246000fd5b60009182526020909120600d600e90920201015460ff16613b08565b6128dd856101a00151613b08565b612d74826040518060400160405280600881526020016769735f71756f746560c01b815250612d6660018681548110612d4257634e487b7160e01b600052603260045260246000fd5b90600052602060002090600e0201600d0160019054906101000a900460ff16613b08565b6128dd856101c00151613b08565b8060018381548110612d9657634e487b7160e01b600052603260045260246000fd5b90600052602060002090600e02016000820151816000019080519060200190612dc0929190613b7a565b506020828101518051612dd99260018501920190613b7a565b5060408201518051612df5916002840191602090910190613b7a565b5060608201518051612e11916003840191602090910190613b7a565b506080820151600482015560a0820151600582015560c0820151600682015560e0820151600782015561010082015160088201556101208201518051612e61916009840191602090910190613b7a565b50610140820151600a820155610160820151600b8201556101808201518051612e9491600c840191602090910190613b7a565b506101a0820151600d90910180546101c09093015115156101000261ff001992151560ff1990941693909317919091169190911790555050565b600180548082018255600091909152815180518392600e027fb10e2d527612073b26eecdfd717e6a320cf44b4afac2b0732d9fcbe2b7fa0cf60191612f1891839160200190613b7a565b506020828101518051612f319260018501920190613b7a565b5060408201518051612f4d916002840191602090910190613b7a565b5060608201518051612f69916003840191602090910190613b7a565b506080820151600482015560a0820151600582015560c0820151600682015560e0820151600782015561010082015160088201556101208201518051612fb9916009840191602090910190613b7a565b50610140820151600a820155610160820151600b8201556101808201518051612fec91600c840191602090910190613b7a565b506101a0820151600d90910180546101c09093015115156101000261ff001992151560ff1990941693909317919091169190911790556001805461303091906154a0565b600080516020615596833981519152826020015160405161048a9190614d5d565b60015484106130725760405162461bcd60e51b815260040161044e90614d94565b60008481526003602052604090208054839190859081106130a357634e487b7160e01b600052603260045260246000fd5b906000526020600020906008020160060181905550806003600086815260200190815260200160002084815481106130eb57634e487b7160e01b600052603260045260246000fd5b9060005260206000209060080201600701819055508360008051602061559683398151915260405161068690614e00565b600154871061313d5760405162461bcd60e51b815260040161044e90614d94565b613145613e20565b86815260208082018790526040808301879052606083018690526080830185905260a0830184905260008a8152600483529081208054600181018255908252908290208351805185946006909402909201926131a692849290910190613b7a565b5060208281015180516131bf9260018501920190613b7a565b5060408201516002820155606082015180516131e5916003840191602090910190613b7a565b5060808201518051613201916004840191602090910190613b7a565b5060a0820151805161321d916005840191602090910190613b7a565b505050876000805160206155968339815191528860405161323e91906150f5565b60405180910390a25050505050505050565b60015460609082106132745760405162461bcd60e51b815260040161044e90614d94565b600082815260046020908152604080832080548251818502810185019093528083529193909284015b82821015610e1c57838290600052602060002090600602016040518060c00160405290816000820180546132d0906154e3565b80601f01602080910402602001604051908101604052809291908181526020018280546132fc906154e3565b80156133495780601f1061331e57610100808354040283529160200191613349565b820191906000526020600020905b81548152906001019060200180831161332c57829003601f168201915b50505050508152602001600182018054613362906154e3565b80601f016020809104026020016040519081016040528092919081815260200182805461338e906154e3565b80156133db5780601f106133b0576101008083540402835291602001916133db565b820191906000526020600020905b8154815290600101906020018083116133be57829003601f168201915b50505050508152602001600282015481526020016003820180546133fe906154e3565b80601f016020809104026020016040519081016040528092919081815260200182805461342a906154e3565b80156134775780601f1061344c57610100808354040283529160200191613477565b820191906000526020600020905b81548152906001019060200180831161345a57829003601f168201915b50505050508152602001600482018054613490906154e3565b80601f01602080910402602001604051908101604052809291908181526020018280546134bc906154e3565b80156135095780601f106134de57610100808354040283529160200191613509565b820191906000526020600020905b8154815290600101906020018083116134ec57829003601f168201915b50505050508152602001600582018054613522906154e3565b80601f016020809104026020016040519081016040528092919081815260200182805461354e906154e3565b801561359b5780601f106135705761010080835404028352916020019161359b565b820191906000526020600020905b81548152906001019060200180831161357e57829003601f168201915b5050505050815250508152602001906001019061329d565b600180548082018255600091909152815180518392600e027fb10e2d527612073b26eecdfd717e6a320cf44b4afac2b0732d9fcbe2b7fa0cf601916135fd91839160200190613b7a565b5060208281015180516136169260018501920190613b7a565b5060408201518051613632916002840191602090910190613b7a565b506060820151805161364e916003840191602090910190613b7a565b506080820151600482015560a0820151600582015560c0820151600682015560e082015160078201556101008201516008820155610120820151805161369e916009840191602090910190613b7a565b50610140820151600a820155610160820151600b82015561018082015180516136d191600c840191602090910190613b7a565b506101a0820151600d90910180546101c09093015115156101000261ff001992151560ff19909416939093179190911691909117905550565b600154811061372b5760405162461bcd60e51b815260040161044e90614d94565b600081815260056020526040812061374291613e56565b8060008051602061559683398151915260405161048a90614f77565b600154811061377f5760405162461bcd60e51b815260040161044e90614d94565b600081815260036020526040812061379691613e77565b8060008051602061559683398151915260405161048a90614dc4565b6060816137d757506040805180820190915260018152600360fc1b6020820152610e23565b8160005b811561380157806137eb8161551e565b91506137fa9050600a836153ab565b91506137db565b6000816001600160401b0381111561382957634e487b7160e01b600052604160045260246000fd5b6040519080825280601f01601f191660200182016040528015613853576020820181803683370190505b509050815b85156138ee576138696001826154a0565b90506000613878600a886153ab565b61388390600a615442565b61388d90886154a0565b613898906030615358565b905060008160f81b9050808484815181106138c357634e487b7160e01b600052603260045260246000fd5b60200101906001600160f81b031916908160001a9053506138e5600a896153ab565b97505050613858565b50949350505050565b808051906020012082805190602001201461394b578360008051602061559683398151915284848460405160200161393193929190614966565b60408051601f198184030181529082905261068691614ece565b50505050565b60608161397657506040805180820190915260018152600360fc1b6020820152610e23565b6000808312908084831561399d5761398d81615539565b9050826139998161551e565b9350505b8091505b81156139c757826139b18161551e565b93506139c09050600a836153ab565b91506139a1565b6000836001600160401b038111156139ef57634e487b7160e01b600052604160045260246000fd5b6040519080825280601f01601f191660200182016040528015613a19576020820181803683370190505b5091925082919050835b8315613ab957613a346001826154a0565b90506000613a43600a866153ab565b613a4e90600a615442565b613a5890866154a0565b613a63906030615358565b905060008160f81b905080848481518110613a8e57634e487b7160e01b600052603260045260246000fd5b60200101906001600160f81b031916908160001a905350613ab0600a876153ab565b95505050613a23565b8515613afd57602d60f81b82600081518110613ae557634e487b7160e01b600052603260045260246000fd5b60200101906001600160f81b031916908160001a9053505b509695505050505050565b606081613b32576040518060400160405280600581526020016466616c736560d81b815250613b50565b604051806040016040528060048152602001637472756560e01b8152505b92915050565b5080546000825560060290600052602060002090810190613b779190613e98565b50565b828054613b86906154e3565b90600052602060002090601f016020900481019282613ba85760008555613bee565b82601f10613bc157805160ff1916838001178555613bee565b82800160010185558215613bee579182015b82811115613bee578251825591602001919060010190613bd3565b50613bfa929150613ef7565b5090565b828054613c0a906154e3565b90600052602060002090601f016020900481019282613c2c5760008555613bee565b82601f10613c3d5780548555613bee565b82800160010185558215613bee57600052602060002091601f016020900482015b82811115613bee578254825591600101919060010190613c5e565b508054613c85906154e3565b6000825580601f10613c975750613b77565b601f016020900490600052602060002090810190613b779190613ef7565b60405180610100016040528060608152602001600081526020016000815260200160008152602001600081526020016060815260200160008152602001600081525090565b5080546000825560120290600052602060002090810190613b779190613f0c565b604051806101e00160405280606081526020016060815260200160608152602001606081526020016000815260200160008152602001600081526020016000815260200160008152602001606081526020016000815260200160008152602001606081526020016000151581526020016000151581525090565b6040518061024001604052806060815260200160008152602001600081526020016000815260200160008152602001600081526020016000815260200160008152602001600081526020016000815260200160008152602001606081526020016000815260200160008152602001600081526020016000815260200160008152602001600081525090565b6040518060c001604052806060815260200160608152602001600081526020016060815260200160608152602001606081525090565b5080546000825560030290600052602060002090810190613b779190613fb3565b5080546000825560080290600052602060002090810190613b779190613ff0565b80821115613bfa576000613eac8282613c79565b613eba600183016000613c79565b6002820160009055600382016000613ed29190613c79565b613ee0600483016000613c79565b613eee600583016000613c79565b50600601613e98565b5b80821115613bfa5760008155600101613ef8565b80821115613bfa576000613f208282613c79565b600182016000905560028201600090556003820160009055600482016000905560058201600090556006820160009055600782016000905560088201600090556009820160009055600a820160009055600b82016000613f809190613c79565b506000600c8201819055600d8201819055600e8201819055600f8201819055601082018190556011820155601201613f0c565b80821115613bfa576000613fc78282613c79565b6001820180546001600160a01b0319169055613fe7600283016000613c79565b50600301613fb3565b80821115613bfa5760006140048282613c79565b60018201600090556002820160009055600382016000905560048201600090556005820160006140349190613c79565b506000600682018190556007820155600801613ff0565b80358015158114610e2357600080fd5b600082601f83011261406b578081fd5b81356001600160401b038111156140845761408461557f565b614097601f8201601f19166020016152d6565b8181528460208386010111156140ab578283fd5b816020850160208301379081016020019190915292915050565b60006101e08083850312156140d8578182fd5b6140e1816152d6565b91505081356001600160401b03808211156140fb57600080fd5b6141078583860161405b565b8352602084013591508082111561411d57600080fd5b6141298583860161405b565b6020840152604084013591508082111561414257600080fd5b61414e8583860161405b565b6040840152606084013591508082111561416757600080fd5b6141738583860161405b565b60608401526080840135608084015260a084013560a084015260c084013560c084015260e084013560e084015261010091508184013582840152610120915081840135818111156141c357600080fd5b6141cf8682870161405b565b92840192909252610140848101359084015261016080850135908401526101809150818401358181111561420257600080fd5b61420e8682870161405b565b838501525050506101a061422381840161404b565b908201526101c061423583820161404b565b9082015292915050565b600060208284031215614250578081fd5b81356001600160401b03811115614265578182fd5b614271848285016140c5565b949350505050565b60006020828403121561428a578081fd5b5035919050565b600080600080600080600060e0888a0312156142ab578283fd5b8735965060208801356001600160401b03808211156142c8578485fd5b6142d48b838c0161405b565b975060408a01359150808211156142e9578485fd5b6142f58b838c0161405b565b965060608a0135955060808a0135915080821115614311578485fd5b61431d8b838c0161405b565b945060a08a0135915080821115614332578384fd5b61433e8b838c0161405b565b935060c08a0135915080821115614353578283fd5b506143608a828b0161405b565b91505092959891949750929550565b600080600080600060a08688031215614386578081fd5b8535945060208601356001600160401b03808211156143a3578283fd5b6143af89838a0161405b565b9550604088013594506060880135935060808801359150808211156143d2578283fd5b506143df8882890161405b565b9150509295509295909350565b600080600080600060a08688031215614403578283fd5b8535945060208601356001600160401b0381111561441f578384fd5b61442b8882890161405b565b959895975050505060408401359360608101359360809091013592509050565b6000806040838503121561445d578182fd5b8235915060208301356001600160401b038082111561447a578283fd5b9084019060c0828703121561448d578283fd5b61449760c06152d6565b8235828111156144a5578485fd5b6144b18882860161405b565b8252506020830135828111156144c5578485fd5b6144d18882860161405b565b602083015250604083013560408201526060830135828111156144f2578485fd5b6144fe8882860161405b565b606083015250608083013582811115614515578485fd5b6145218882860161405b565b60808301525060a083013582811115614538578485fd5b6145448882860161405b565b60a0830152508093505050509250929050565b60008060408385031215614569578182fd5b8235915060208301356001600160401b03811115614585578182fd5b614591858286016140c5565b9150509250929050565b600080604083850312156145ad578182fd5b8235915060208301356001600160401b03808211156145ca578283fd5b90840190606082870312156145dd578283fd5b6040516060810181811083821117156145f8576145f861557f565b604052823582811115614609578485fd5b6146158882860161405b565b82525060208301356001600160a01b0381168114614631578485fd5b6020820152604083013582811115614647578485fd5b6146538882860161405b565b6040830152508093505050509250929050565b60008060408385031215614678578182fd5b8235915060208301356001600160401b0380821115614695578283fd5b81850191506102408083880312156146ab578384fd5b6146b4816152d6565b90508235828111156146c4578485fd5b6146d08882860161405b565b8252506020830135602082015260408301356040820152606083013560608201526080830135608082015260a083013560a082015260c083013560c082015260e083013560e08201526101008084013581830152506101208084013581830152506101408084013581830152506101608084013583811115614750578586fd5b61475c8982870161405b565b918301919091525061018083810135908201526101a080840135908201526101c080840135908201526101e080840135908201526102008084013590820152610220928301359281019290925250919491935090915050565b600080604083850312156147c7578182fd5b8235915060208301356001600160401b03808211156147e4578283fd5b81850191506101008083880312156147fa578384fd5b614803816152d6565b9050823582811115614813578485fd5b61481f8882860161405b565b8252506020830135602082015260408301356040820152606083013560608201526080830135608082015260a08301358281111561485b578485fd5b6148678882860161405b565b60a08301525060c083013560c082015260e083013560e08201528093505050509250929050565b600080604083850312156148a0578182fd5b50508035926020909101359150565b600080600080608085870312156148c4578182fd5b5050823594602084013594506040840135936060013592509050565b600080600080600060a086880312156148f7578283fd5b8535945060208601359350604086013592506060860135915060808601356001600160401b03811115614928578182fd5b6143df8882890161405b565b15159052565b600081518084526149528160208601602086016154b7565b601f01601f19169290920160200192915050565b600084516149788184602089016154b7565b601d60f91b90830190815284516149968160018401602089016154b7565b61169f60f11b6001929091019182015283516149b98160038401602088016154b7565b0160030195945050505050565b6001600160a01b0391909116815260200190565b60208082528251828201819052600091906040908185019080840286018301878501865b83811015614aab57603f19898403018552815160c08151818652614a248287018261493a565b915050888201518582038a870152614a3c828261493a565b915050878201518886015260608083015186830382880152614a5e838261493a565b9250505060808083015186830382880152614a79838261493a565b9250505060a08083015192508582038187015250614a97818361493a565b9689019694505050908601906001016149fe565b509098975050505050505050565b60208082528251828201819052600091906040908185019080840286018301878501865b83811015614aab57603f19898403018552815160608151818652614b038287018261493a565b838b01516001600160a01b0316878c0152928901518684038a880152929150614b2e9050818361493a565b968901969450505090860190600101614add565b60208082528251828201819052600091906040908185019080840286018301878501865b83811015614aab57603f1989840301855281516102408151818652614b8d8287018261493a565b838b0151878c0152898401518a880152606080850151908801526080808501519088015260a0808501519088015260c0808501519088015260e0808501519088015261010080850151908801526101208085015190880152610140808501519088015261016080850151888303828a01529193509150614c0d838261493a565b61018085810151908901526101a080860151908901526101c080860151908901526101e0808601519089015261020080860151908901526102209485015194909701939093525050509386019390860190600101614b66565b60208082528251828201819052600091906040908185019080840286018301878501865b83811015614aab57603f1989840301855281516101008151818652614cb18287018261493a565b915050888201518986015287820151888601526060808301518187015250608080830151818701525060a08083015186830382880152614cf1838261493a565b60c0858101519089015260e09485015194909701939093525050509386019390860190600101614c8a565b600060408252601060408301526f151c985b9cd858dd1a5bdb905919195960821b606083015260806020830152614d56608083018461493a565b9392505050565b600060408252600d60408301526c10dbdb9d1c9858dd1059191959609a1b606083015260806020830152614d56608083018461493a565b602080825260169082015275092dcecc2d8d2c840c6dedce8e4c2c6e840d2dcc8caf60531b604082015260600190565b604080825260139082015272151c985b9cd858dd1a5bdb9cd1195b195d1959606a1b606082015260806020820181905260009082015260a00190565b6040808252600a9082015269506179416476616e636560b01b606082015260806020820181905260009082015260a00190565b602080825260169082015275092dcecc2d8d2c840c2e4e8d2ccc2c6e840d2dcc8caf60531b604082015260600190565b600060408252600c60408301526b14185c9d1e51195b195d195960a21b606083015260806020830152614d56608083018461493a565b6040808252600c908201526b14995cda591d585b14185a5960a21b606082015260806020820181905260009082015260a00190565b600060408252600f60408301526e10dbdb9d1c9858dd155c19185d1959608a1b606083015260806020830152614d56608083018461493a565b600060408252600f60408301526e105c9d1a599858dd11195b195d1959608a1b606083015260806020830152614d56608083018461493a565b6040808252600e908201526d141bdcdd14d95d1d1b195b595b9d60921b606082015260806020820181905260009082015260a00190565b6040808252600e908201526d14185c9d1a595cd1195b195d195960921b606082015260806020820181905260009082015260a00190565b60408082526010908201526f105c9d1a599858dd1cd1195b195d195960821b606082015260806020820181905260009082015260a00190565b602080825260139082015272092dcecc2d8d2c840e0c2e4e8f240d2dcc8caf606b1b604082015260600190565b600060408252600f60408301526e14d95d1d1b195b595b9d1059191959608a1b606083015260806020830152614d56608083018461493a565b600060408252600a60408301526914185c9d1e505919195960b21b606083015260806020830152614d56608083018461493a565b60408082526012908201527114d95d1d1b195b595b9d1cd1195b195d195960721b606082015260806020820181905260009082015260a00190565b600060408252600f60408301526e10dbdb9d1c9858dd11195b195d1959608a1b606083015260806020830152614d56608083018461493a565b600060408252600d60408301526c105c9d1a599858dd1059191959609a1b606083015260806020830152614d56608083018461493a565b60408082526010908201526f2a3930b739b0b1ba34b7b722b93937b960811b6060820152608060208201819052601a908201527f4e6f2076616c696420736574746c656d656e7420706572696f6400000000000060a082015260c00190565b60006020825282516101e08060208501526151aa61020085018361493a565b91506020850151601f19808685030160408701526151c8848361493a565b935060408701519150808685030160608701526151e5848361493a565b93506060870151915080868503016080870152615202848361493a565b9350608087015160a087015260a087015160c087015260c087015160e087015260e0870151915061010082818801528088015192505061012082818801528088015192505061014081878603018188015261525d858461493a565b90880151610160888101919091528801516101808089019190915288015187820383016101a0808a01919091529195509250615299858461493a565b945080880151925050506101c06152b281870183614934565b86015190506152c385830182614934565b5090949350505050565b90815260200190565b6040518181016001600160401b03811182821017156152f7576152f761557f565b604052919050565b600080821280156001600160ff1b038490038513161561532157615321615553565b600160ff1b839003841281161561533a5761533a615553565b50500190565b6000821982111561535357615353615553565b500190565b600060ff821660ff84168060ff0382111561537557615375615553565b019392505050565b60008261538c5761538c615569565b600160ff1b8214600019841416156153a6576153a6615553565b500590565b6000826153ba576153ba615569565b500490565b60006001600160ff1b03818413828413808216868404861116156153e5576153e5615553565b600160ff1b8487128281168783058912161561540357615403615553565b85871292508782058712848416161561541e5761541e615553565b8785058712818416161561543457615434615553565b505050929093029392505050565b600081600019048311821515161561545c5761545c615553565b500290565b60008083128015600160ff1b85018412161561547f5761547f615553565b6001600160ff1b038401831381161561549a5761549a615553565b50500390565b6000828210156154b2576154b2615553565b500390565b60005b838110156154d25781810151838201526020016154ba565b8381111561394b5750506000910152565b6002810460018216806154f757607f821691505b6020821081141561551857634e487b7160e01b600052602260045260246000fd5b50919050565b600060001982141561553257615532615553565b5060010190565b6000600160ff1b82141561554f5761554f615553565b0390565b634e487b7160e01b600052601160045260246000fd5b634e487b7160e01b600052601260045260246000fd5b634e487b7160e01b600052604160045260246000fdfe345796c5f37ac4d00f0bd7eebb6ba729df51ddd74dafb2db6bf0c4a4a354577aa264697066735822122060d1256bde8bf60e1ad9a21db7cbc2503925fc29d93e740038e17fa46bad403764736f6c63430008000033",
  "immutableReferences": {},
  "source": "// SPDX-License-Identifier: MIT\npragma solidity ^0.8.0;\n\ncontract Delivery {\n\n    address public owner;\n\n    Contract[] contracts;                                   // [contract_idx]\n    mapping (uint => Settlement[]) private settlements;     // contract_idx => settlement[]\n    mapping (uint => Transaction[]) private transactions;   // contract_idx => transaction[]\n    mapping (uint => Artifact[]) private artifacts;         // contract_idx => artifact_list[]\n    mapping (uint => Party[]) private parties;              // contract_idx => party[]\n\n    // every field ending in _dt is a unix timestamp\n    // every field ending in _amt is an integer representing a float with 2 decimals\n    // every field ending in _pct is an integer represending a float value with 4 decimals \n\n    struct Contract {\n        string extended_data;           // json extended data\n        string contract_name;           // description for display purposes\n        string contract_type;           // the type of contract, e.g. ticketing, construction\n        string funding_instr;           // buyer funding instructions\n        uint service_fee_pct;           // service fee pct <= service_fee_max\n        uint service_fee_max;           // maximum fee that can be charged if the rate is variable\n        int service_fee_amt;            // flat rate amt if not percentage based\n        uint advance_pct;               // amount of money that will be advanced to seller for every transaction\n        uint late_fee_pct;              // an APR, daily rate calculated as late_fee_pct / 365\n        string transact_logic;          // jsonlogic formula for calculating transaction amount\n        int min_threshold;              // minimum expected amount for a deliverable (could be negative)\n        int max_threshold;              // maximum expected amount for a deliverable\n        string notes;                   // contract notes, can be used for additonal data requests\n        bool is_active;                 // instead of deleting, clear this flag to False\n        bool is_quote;                  // true if still in the quote stage\n    }\n\n    struct Settlement {\n        string extended_data;           // json extended data\n        uint settle_due_dt;             // date the payment is due \n        uint transact_min_dt;           // min date the transaction is made \n        uint transact_max_dt;           // max date the transaction is made \n        uint transact_count;            // number of transactions in this current settlement period \n        int advance_amt;                // the dollar amount that was advanced in this period (net amt)\n        int advance_amt_gross;          // the dollar amount that was advanced in this period less fees\n        uint settle_pay_dt;             // when the settlement was paid\n        int settle_exp_amt;             // expected amount of settlement 0\n        int settle_pay_amt;             // actual amount paid from the buyer\n        int dispute_amt;                // if expected < actual, assume there was a dispute\n        string dispute_reason;          // if dispute_amt > 0, what was the reason (if provided)\n        uint days_late;                 // number of days late the payment was made\n        int late_fee_amt;               // amount of the late fee, will be taken out of the residual\n        uint residual_pay_dt;           // date and time the residual was paid\n        int residual_pay_amt;           // will equal residual_calc_amt after payment intitiated\n        int residual_exp_amt;           // expected amount of the residual\n        int residual_calc_amt;          // what the actual residual will be (exp - late_fee - dispute)\n    }\n\n    struct Transaction {\n        string extended_data;           // json extended data\n        uint transact_dt;               // date and time of the transaction\n        int transact_amt;               // calculated value of a transaction, negative if an adjustment\n        int service_fee_amt;            // calculated fee for a transaction\n        int advance_amt;                // advance_amt * advance_pct - service_fee_amt\n        string transact_data;           // data regarding transaction for jsonlogic    \n        uint advance_pay_dt;            // payment of advance\n        uint advance_pay_amt;           // will equal advance amt after payment initiated\n    }\n\n    struct Artifact {\n        string doc_title;               // Document title\n        string doc_type;                // Document type (e.g., \"application/pdf\")\n        uint added_dt;                  // Timestamp of when the artifact was added\n        string s3_bucket;               // S3 bucket name\n        string s3_object_key;           // S3 object key (full path to the document)\n        string s3_version_id;           // S3 version ID for versioned objects\n    }\n\n    struct Party {\n        string party_code;              // code associated with a party\n        address party_addr;             // wallet address\n        string party_type;              // the type of party associated with contract\n    }\n\n    event ContractEvent(uint indexed contract_idx, string eventType, string details);\n\n    function getContractCount() public view returns (uint) {\n        return contracts.length;\n    }\n\n    function getContract(uint contract_idx) public view returns (Contract memory) {\n        require(contract_idx < contracts.length, \"Invalid contract index\");\n        return contracts[contract_idx];\n    }\n\n    function addContract (Contract memory contract_) public {\n        contracts.push(contract_);\n        emit ContractEvent(contracts.length - 1, \"ContractAdded\", contract_.contract_name);\n    }\n\n    function logContractChange(uint contract_idx, string memory field, string memory old_value, string memory new_value) private {\n        if (keccak256(bytes(old_value)) != keccak256(bytes(new_value))) {\n            emit ContractEvent(contract_idx, \"ContractUpdated\", string(abi.encodePacked(field, \":\", old_value, \"->\", new_value)));\n        }\n    }\n\n    function updateContract (uint contract_idx, Contract memory contract_) public {\n        require(contract_idx < contracts.length, \"Invalid contract index\");\n        logContractChange(contract_idx, \"extended_data\", contracts[contract_idx].extended_data, contract_.extended_data);\n        logContractChange(contract_idx, \"contract_name\", contracts[contract_idx].contract_name, contract_.contract_name);\n        logContractChange(contract_idx, \"contract_type\", contracts[contract_idx].contract_type, contract_.contract_type);\n        logContractChange(contract_idx, \"funding_instr\", contracts[contract_idx].funding_instr, contract_.funding_instr);\n        logContractChange(contract_idx, \"service_fee_pct\", uintToString(contracts[contract_idx].service_fee_pct), uintToString(contract_.service_fee_pct));\n        logContractChange(contract_idx, \"service_fee_max\", uintToString(contracts[contract_idx].service_fee_max), uintToString(contract_.service_fee_max));\n        logContractChange(contract_idx, \"service_fee_amt\", intToString(contracts[contract_idx].service_fee_amt), intToString(contract_.service_fee_amt));\n        logContractChange(contract_idx, \"advance_pct\", uintToString(contracts[contract_idx].advance_pct), uintToString(contract_.advance_pct));\n        logContractChange(contract_idx, \"late_fee_pct\", uintToString(contracts[contract_idx].late_fee_pct), uintToString(contract_.late_fee_pct));\n        logContractChange(contract_idx, \"transact_logic\", contracts[contract_idx].transact_logic, contract_.transact_logic);\n        logContractChange(contract_idx, \"notes\", contracts[contract_idx].notes, contract_.notes);\n        logContractChange(contract_idx, \"is_active\", boolToString(contracts[contract_idx].is_active), boolToString(contract_.is_active));\n        logContractChange(contract_idx, \"is_quote\", boolToString(contracts[contract_idx].is_quote), boolToString(contract_.is_quote));\n        contracts[contract_idx] = contract_;\n    }\n\n    // Mark a contract as inactive \n    function deleteContract(uint contract_idx) public {\n        require(contract_idx < contracts.length, \"Invalid contract index\");\n        contracts[contract_idx].is_active = false;\n        emit ContractEvent(contract_idx, \"ContractDeleted\", uintToString(contract_idx));\n    }\n\n    function getParties(uint contract_idx) public view returns (Party[] memory) {\n        require(contract_idx < contracts.length, \"Invalid contract index\");\n        return parties[contract_idx];\n    }\n\n    function addParty(uint contract_idx, Party memory party) public {\n        require(contract_idx < contracts.length, \"Invalid contract index\");\n        parties[contract_idx].push(party);\n        emit ContractEvent(contract_idx, \"PartyAdded\", party.party_code);\n    }\n\n    function deleteParty(uint contract_idx, uint party_idx) public {\n        require(contract_idx < contracts.length, \"Invalid contract index\");\n        require(party_idx < parties[contract_idx].length, \"Invalid party index\");\n\n        for (uint i = party_idx; i < parties[contract_idx].length - 1; i++) {\n            parties[contract_idx][i] = parties[contract_idx][i + 1];\n        }\n\n        parties[contract_idx].pop();\n\n        emit ContractEvent(contract_idx, \"PartyDeleted\", uintToString(party_idx));\n    }\n\n    function deleteParties(uint contract_idx) public {\n        require(contract_idx < contracts.length, \"Invalid contract index\");\n        delete parties[contract_idx];\n        emit ContractEvent(contract_idx, \"PartiesDeleted\", \"\");\n    }\n\n    function getArtifacts(uint contract_idx) public view returns (Artifact[] memory) {\n        require(contract_idx < contracts.length, \"Invalid contract index\");\n        return artifacts[contract_idx];\n    }\n\n    // Update addArtifact function:\n    function addArtifact(uint contract_idx, string memory doc_title, string memory doc_type, uint added_dt,\n        string memory s3_bucket, string memory s3_object_key, string memory s3_version_id) public {\n        require(contract_idx < contracts.length, \"Invalid contract index\");\n        Artifact memory artifact;\n        artifact.doc_title = doc_title;\n        artifact.doc_type = doc_type;\n        artifact.added_dt = added_dt;\n        artifact.s3_bucket = s3_bucket;\n        artifact.s3_object_key = s3_object_key;\n        artifact.s3_version_id = s3_version_id;\n        artifacts[contract_idx].push(artifact);\n        emit ContractEvent(contract_idx, \"ArtifactAdded\", doc_title);\n    }\n\n    function deleteArtifact(uint contract_idx, uint artifact_idx) public {\n        require(contract_idx < contracts.length, \"Invalid contract index\");\n        require(artifact_idx < artifacts[contract_idx].length, \"Invalid artifact index\");\n\n        for (uint i = artifact_idx; i < artifacts[contract_idx].length - 1; i++) {\n            artifacts[contract_idx][i] = artifacts[contract_idx][i + 1];\n        }\n\n        artifacts[contract_idx].pop();\n\n        emit ContractEvent(contract_idx, \"ArtifactDeleted\", uintToString(artifact_idx));\n    }\n\n    function deleteArtifacts(uint contract_idx) public {\n        require(contract_idx < contracts.length, \"Invalid contract index\");\n        delete artifacts[contract_idx];\n        emit ContractEvent(contract_idx, \"ArtifactsDeleted\", \"\");\n    }\n\n    function getSettlements(uint contract_idx) public view returns (Settlement[] memory) {\n        require(contract_idx < contracts.length, \"Invalid contract index\");\n        return settlements[contract_idx];\n    }\n\n    function addSettlement(uint contract_idx, string memory extended_data, uint settle_due_dt, uint transact_min_dt, uint transact_max_dt) public {\n        require(contract_idx < contracts.length, \"Invalid contract index\");\n        Settlement memory settlement;\n        settlement.settle_due_dt = settle_due_dt;\n        settlement.transact_min_dt = transact_min_dt;\n        settlement.transact_max_dt = transact_max_dt;\n        settlement.extended_data = extended_data;\n        settlements[contract_idx].push(settlement);\n        emit ContractEvent(contract_idx, \"SettlementAdded\", uintToString(settle_due_dt));\n    }\n\n    function deleteSettlements(uint contract_idx) public {\n        require(contract_idx < contracts.length, \"Invalid contract index\");\n        delete settlements[contract_idx];\n        emit ContractEvent(contract_idx, \"SettlementsDeleted\", \"\");\n    }\n\n    function getTransactions(uint contract_idx) public view returns (Transaction[] memory) {\n        require(contract_idx < contracts.length, \"Invalid contract index\");\n        return transactions[contract_idx];\n    }\n\n    function deleteTransactions(uint contract_idx) public {\n        require(contract_idx < contracts.length, \"Invalid contract index\");\n        delete transactions[contract_idx];\n        emit ContractEvent(contract_idx, \"TransactionsDeleted\", \"\");\n    }\n\n    function addTransaction(uint contract_idx, string memory extended_data, uint transact_dt, int transact_amt, string memory transact_data) public {\n        require(contract_idx < contracts.length, \"Invalid contract index\");\n\n        Transaction memory transact;\n        transact.extended_data = extended_data;\n        transact.transact_dt = transact_dt;\n        transact.transact_amt = transact_amt;\n        transact.transact_data = transact_data;\n\n        bool settle_found = false;\n        int transact_advance_amt = 0;\n        int transact_advance_amt_gross = 0;\n        int service_fee_amt = 0;\n\n        for (uint i = 0; i < settlements[contract_idx].length; i++) {\n            Settlement storage settlement = settlements[contract_idx][i];\n            // minimum date is inclusive, maximum date is exclusive\n            if (transact_dt >= settlement.transact_min_dt && transact_dt < settlement.transact_max_dt) {\n                if (transact_amt > 0) {\n                    service_fee_amt = int((contracts[contract_idx].service_fee_pct * uint(transact_amt)) / 10000) + int(contracts[contract_idx].service_fee_amt);\n                    transact_advance_amt_gross = int((uint(transact_amt) * contracts[contract_idx].advance_pct) / 10000);\n\n                    // Determine the final advance amount after subtracting the service fee\n                    if (transact_advance_amt_gross >= service_fee_amt) {\n                        transact_advance_amt = transact_advance_amt_gross - service_fee_amt;\n                    }\n                }\n\n                settlement.settle_exp_amt += transact_amt;\n                settlement.advance_amt += transact_advance_amt;\n                settlement.advance_amt_gross += transact_advance_amt_gross;\n                settlement.residual_exp_amt = settlement.settle_exp_amt - settlement.advance_amt_gross;\n                settlement.transact_count++;\n                transact.advance_amt = transact_advance_amt;\n                transact.service_fee_amt = service_fee_amt;\n                settle_found = true;\n            }\n        }\n\n        if (settle_found) {\n            transactions[contract_idx].push(transact);\n            emit ContractEvent(contract_idx, \"TransactionAdded\", uintToString(transact.transact_dt));\n        } else {\n            emit ContractEvent(contract_idx, \"TransactionError\", \"No valid settlement period\");\n        }\n    }\n\n    function payAdvance(uint contract_idx, uint transact_idx, uint advance_pay_dt, uint advance_pay_amt) public {\n        require(contract_idx < contracts.length, \"Invalid contract index\");\n        transactions[contract_idx][transact_idx].advance_pay_dt = advance_pay_dt;\n        transactions[contract_idx][transact_idx].advance_pay_amt = advance_pay_amt;\n        emit ContractEvent(contract_idx, \"PayAdvance\", \"\");\n    }\n\n    function postSettlement(uint contract_idx, uint settle_idx, uint settle_pay_dt, int settle_pay_amt, string memory dispute_reason) public {\n        require(contract_idx < contracts.length, \"Invalid contract index\");\n        settlements[contract_idx][settle_idx].settle_pay_dt = settle_pay_dt;\n        settlements[contract_idx][settle_idx].settle_pay_amt = settle_pay_amt;\n\n        if (settle_pay_dt > settlements[contract_idx][settle_idx].settle_due_dt) {\n            settlements[contract_idx][settle_idx].days_late = (settle_pay_dt - settlements[contract_idx][settle_idx].settle_due_dt) / 60 / 60 / 24;\n\n            // Convert necessary values to int to match types and avoid errors\n            int days_late = int(settlements[contract_idx][settle_idx].days_late);\n            int late_fee_pct = int(contracts[contract_idx].late_fee_pct);\n            int settle_exp_amt = settlements[contract_idx][settle_idx].settle_exp_amt;\n\n            settlements[contract_idx][settle_idx].late_fee_amt = (days_late * ((late_fee_pct * 100000) / 365) * settle_exp_amt) / 1000000000;\n        }\n\n        if (settle_pay_amt < settlements[contract_idx][settle_idx].settle_exp_amt) {\n            settlements[contract_idx][settle_idx].dispute_amt = settlements[contract_idx][settle_idx].settle_exp_amt - settle_pay_amt;\n            settlements[contract_idx][settle_idx].dispute_reason = dispute_reason;\n        } \n\n        if ((settlements[contract_idx][settle_idx].residual_exp_amt - settlements[contract_idx][settle_idx].late_fee_amt - settlements[contract_idx][settle_idx].dispute_amt) > 0) {\n            settlements[contract_idx][settle_idx].residual_calc_amt = settlements[contract_idx][settle_idx].residual_exp_amt - settlements[contract_idx][settle_idx].late_fee_amt -\n                settlements[contract_idx][settle_idx].dispute_amt;\n        } else {\n            settlements[contract_idx][settle_idx].residual_calc_amt = 0;\n        }\n\n        emit ContractEvent(contract_idx, \"PostSettlement\", \"\");\n    }\n\n    function payResidual(uint contract_idx, uint settle_idx, uint residual_pay_dt, int residual_pay_amt) public {\n        require(contract_idx < contracts.length, \"Invalid contract index\");\n        settlements[contract_idx][settle_idx].residual_pay_dt = residual_pay_dt;\n        settlements[contract_idx][settle_idx].residual_pay_amt = residual_pay_amt;\n        emit ContractEvent(contract_idx, \"ResidualPaid\", \"\");\n    }\n\n    function importContract(Contract memory contract_) public {\n        contracts.push(contract_);\n    }\n\n    function importParty(uint contract_idx, Party memory party) public {\n        require(contract_idx < contracts.length, \"Invalid contract index\");\n        parties[contract_idx].push(party);\n    }\n\n    function importSettlement(uint contract_idx, Settlement memory settlement) public {\n        require(contract_idx < contracts.length, \"Invalid contract index\");\n        settlements[contract_idx].push(settlement);\n    }\n\n    function importTransaction(uint contract_idx, Transaction memory transaction) public {\n        require(contract_idx < contracts.length, \"Invalid contract index\");\n        transactions[contract_idx].push(transaction);\n    }\n\n    function importArtifact(uint contract_idx, Artifact memory artifact) public {\n        require(contract_idx < contracts.length, \"Invalid contract index\");\n        artifacts[contract_idx].push(artifact);\n    }\n\n    function uintToString(uint v) internal pure returns (string memory) {\n        if (v == 0) {\n            return \"0\";\n        }\n        uint j = v;\n        uint len;\n        while (j != 0) {\n            len++;\n            j /= 10;\n        }\n        bytes memory bstr = new bytes(len);\n        uint k = len;\n        while (v != 0) {\n            k = k - 1;\n            uint8 temp = (48 + uint8(v - v / 10 * 10));\n            bytes1 b1 = bytes1(temp);\n            bstr[k] = b1;\n            v /= 10;\n        }\n        return string(bstr);\n    }\n\n   function intToString(int v) internal pure returns (string memory) {\n        if (v == 0) {\n            return \"0\";\n        }\n\n        bool negative = v < 0;\n        uint len = 0;\n        uint i;\n        int temp = v;\n\n        if (negative) {\n            temp = -temp;\n            len++;\n        }\n\n        i = uint(temp);\n\n        while (i != 0) {\n            len++;\n            i /= 10;\n        }\n\n        bytes memory bstr = new bytes(len);\n        uint k = len;\n        i = uint(temp);\n\n        while (i != 0) {\n            k = k - 1;\n            uint8 tempDigit = (48 + uint8(i - i / 10 * 10));\n            bytes1 b1 = bytes1(tempDigit);\n            bstr[k] = b1;\n            i /= 10;\n        }\n\n        if (negative) {\n            bstr[0] = '-';\n        }\n\n        return string(bstr);\n    } \n\n    function boolToString(bool v) internal pure returns (string memory) {\n        return v ? \"true\" : \"false\";\n    }\n}",
  "sourcePath": "/Users/davidnichamoff/Projects/FIZIT_DEV/truffle/contracts/Delivery.sol",
  "compiler": {
    "name": "solc",
    "version": "0.8.0+commit.c7dfd78e.Emscripten.clang"
  },
  "schemaVersion": "3.4.16",
  "updatedAt": "2024-11-22T15:23:24.813Z",
  "devdoc": {
    "kind": "dev",
    "methods": {},
    "version": 1
  },
  "userdoc": {
    "kind": "user",
    "methods": {},
    "version": 1
  }
}