{
  "contractName": "Delivery",
  "abi": [
    {
      "inputs": [],
      "stateMutability": "nonpayable",
      "type": "constructor"
    },
    {
      "anonymous": false,
      "inputs": [
        {
          "indexed": true,
          "internalType": "uint256",
          "name": "contract_idx",
          "type": "uint256"
        },
        {
          "indexed": true,
          "internalType": "uint256",
          "name": "transact_idx",
          "type": "uint256"
        }
      ],
      "name": "AdvancePaid",
      "type": "event"
    },
    {
      "anonymous": false,
      "inputs": [
        {
          "indexed": true,
          "internalType": "uint256",
          "name": "contract_idx",
          "type": "uint256"
        },
        {
          "indexed": true,
          "internalType": "uint256",
          "name": "artifact_idx",
          "type": "uint256"
        }
      ],
      "name": "ArtifactAdded",
      "type": "event"
    },
    {
      "anonymous": false,
      "inputs": [
        {
          "indexed": true,
          "internalType": "uint256",
          "name": "contract_idx",
          "type": "uint256"
        }
      ],
      "name": "ContractAdded",
      "type": "event"
    },
    {
      "anonymous": false,
      "inputs": [
        {
          "indexed": true,
          "internalType": "uint256",
          "name": "contract_idx",
          "type": "uint256"
        }
      ],
      "name": "ContractUpdated",
      "type": "event"
    },
    {
      "anonymous": false,
      "inputs": [
        {
          "indexed": true,
          "internalType": "uint256",
          "name": "contract_idx",
          "type": "uint256"
        },
        {
          "indexed": true,
          "internalType": "uint256",
          "name": "settle_idx",
          "type": "uint256"
        }
      ],
      "name": "ResidualPaid",
      "type": "event"
    },
    {
      "anonymous": false,
      "inputs": [
        {
          "indexed": true,
          "internalType": "uint256",
          "name": "contract_idx",
          "type": "uint256"
        },
        {
          "indexed": true,
          "internalType": "uint256",
          "name": "settle_idx",
          "type": "uint256"
        }
      ],
      "name": "SettlementAdded",
      "type": "event"
    },
    {
      "anonymous": false,
      "inputs": [
        {
          "indexed": true,
          "internalType": "uint256",
          "name": "contract_idx",
          "type": "uint256"
        },
        {
          "indexed": true,
          "internalType": "uint256",
          "name": "settle_idx",
          "type": "uint256"
        }
      ],
      "name": "SettlementPosted",
      "type": "event"
    },
    {
      "anonymous": false,
      "inputs": [
        {
          "indexed": true,
          "internalType": "uint256",
          "name": "contract_idx",
          "type": "uint256"
        },
        {
          "indexed": true,
          "internalType": "uint256",
          "name": "transact_idx",
          "type": "uint256"
        }
      ],
      "name": "TransactionAdded",
      "type": "event"
    },
    {
      "inputs": [],
      "name": "owner",
      "outputs": [
        {
          "internalType": "address",
          "name": "",
          "type": "address"
        }
      ],
      "stateMutability": "view",
      "type": "function",
      "constant": true
    },
    {
      "inputs": [],
      "name": "getContractCount",
      "outputs": [
        {
          "internalType": "uint256",
          "name": "",
          "type": "uint256"
        }
      ],
      "stateMutability": "view",
      "type": "function",
      "constant": true
    },
    {
      "inputs": [
        {
          "internalType": "uint256",
          "name": "contract_idx",
          "type": "uint256"
        }
      ],
      "name": "getContract",
      "outputs": [
        {
          "components": [
            {
              "internalType": "string",
              "name": "ext_id",
              "type": "string"
            },
            {
              "internalType": "string",
              "name": "contract_name",
              "type": "string"
            },
            {
              "internalType": "string",
              "name": "payment_instr",
              "type": "string"
            },
            {
              "internalType": "string",
              "name": "funding_instr",
              "type": "string"
            },
            {
              "internalType": "uint256",
              "name": "service_fee_pct",
              "type": "uint256"
            },
            {
              "internalType": "uint256",
              "name": "service_fee_amt",
              "type": "uint256"
            },
            {
              "internalType": "uint256",
              "name": "advance_pct",
              "type": "uint256"
            },
            {
              "internalType": "uint256",
              "name": "late_fee_pct",
              "type": "uint256"
            },
            {
              "internalType": "string",
              "name": "transact_logic",
              "type": "string"
            },
            {
              "internalType": "bool",
              "name": "is_active",
              "type": "bool"
            }
          ],
          "internalType": "struct Delivery.Contract",
          "name": "",
          "type": "tuple"
        }
      ],
      "stateMutability": "view",
      "type": "function",
      "constant": true
    },
    {
      "inputs": [
        {
          "components": [
            {
              "internalType": "string",
              "name": "ext_id",
              "type": "string"
            },
            {
              "internalType": "string",
              "name": "contract_name",
              "type": "string"
            },
            {
              "internalType": "string",
              "name": "payment_instr",
              "type": "string"
            },
            {
              "internalType": "string",
              "name": "funding_instr",
              "type": "string"
            },
            {
              "internalType": "uint256",
              "name": "service_fee_pct",
              "type": "uint256"
            },
            {
              "internalType": "uint256",
              "name": "service_fee_amt",
              "type": "uint256"
            },
            {
              "internalType": "uint256",
              "name": "advance_pct",
              "type": "uint256"
            },
            {
              "internalType": "uint256",
              "name": "late_fee_pct",
              "type": "uint256"
            },
            {
              "internalType": "string",
              "name": "transact_logic",
              "type": "string"
            },
            {
              "internalType": "bool",
              "name": "is_active",
              "type": "bool"
            }
          ],
          "internalType": "struct Delivery.Contract",
          "name": "contract_",
          "type": "tuple"
        }
      ],
      "name": "addContract",
      "outputs": [],
      "stateMutability": "nonpayable",
      "type": "function"
    },
    {
      "inputs": [
        {
          "internalType": "uint256",
          "name": "contract_idx",
          "type": "uint256"
        },
        {
          "components": [
            {
              "internalType": "string",
              "name": "ext_id",
              "type": "string"
            },
            {
              "internalType": "string",
              "name": "contract_name",
              "type": "string"
            },
            {
              "internalType": "string",
              "name": "payment_instr",
              "type": "string"
            },
            {
              "internalType": "string",
              "name": "funding_instr",
              "type": "string"
            },
            {
              "internalType": "uint256",
              "name": "service_fee_pct",
              "type": "uint256"
            },
            {
              "internalType": "uint256",
              "name": "service_fee_amt",
              "type": "uint256"
            },
            {
              "internalType": "uint256",
              "name": "advance_pct",
              "type": "uint256"
            },
            {
              "internalType": "uint256",
              "name": "late_fee_pct",
              "type": "uint256"
            },
            {
              "internalType": "string",
              "name": "transact_logic",
              "type": "string"
            },
            {
              "internalType": "bool",
              "name": "is_active",
              "type": "bool"
            }
          ],
          "internalType": "struct Delivery.Contract",
          "name": "contract_",
          "type": "tuple"
        }
      ],
      "name": "updateContract",
      "outputs": [],
      "stateMutability": "nonpayable",
      "type": "function"
    },
    {
      "inputs": [
        {
          "internalType": "uint256",
          "name": "contract_idx",
          "type": "uint256"
        }
      ],
      "name": "getArtifacts",
      "outputs": [
        {
          "internalType": "string[]",
          "name": "",
          "type": "string[]"
        }
      ],
      "stateMutability": "view",
      "type": "function",
      "constant": true
    },
    {
      "inputs": [
        {
          "internalType": "uint256",
          "name": "contract_idx",
          "type": "uint256"
        },
        {
          "internalType": "string",
          "name": "artifact_id",
          "type": "string"
        }
      ],
      "name": "addArtifact",
      "outputs": [],
      "stateMutability": "nonpayable",
      "type": "function"
    },
    {
      "inputs": [
        {
          "internalType": "uint256",
          "name": "contract_idx",
          "type": "uint256"
        }
      ],
      "name": "deleteArtifacts",
      "outputs": [],
      "stateMutability": "nonpayable",
      "type": "function"
    },
    {
      "inputs": [
        {
          "internalType": "uint256",
          "name": "contract_idx",
          "type": "uint256"
        }
      ],
      "name": "getSettlements",
      "outputs": [
        {
          "components": [
            {
              "internalType": "string",
              "name": "ext_id",
              "type": "string"
            },
            {
              "internalType": "uint256",
              "name": "settle_due_dt",
              "type": "uint256"
            },
            {
              "internalType": "uint256",
              "name": "transact_min_dt",
              "type": "uint256"
            },
            {
              "internalType": "uint256",
              "name": "transact_max_dt",
              "type": "uint256"
            },
            {
              "internalType": "uint256",
              "name": "transact_count",
              "type": "uint256"
            },
            {
              "internalType": "uint256",
              "name": "settle_pay_dt",
              "type": "uint256"
            },
            {
              "internalType": "uint256",
              "name": "settle_exp_amt",
              "type": "uint256"
            },
            {
              "internalType": "uint256",
              "name": "settle_pay_amt",
              "type": "uint256"
            },
            {
              "internalType": "string",
              "name": "settle_confirm",
              "type": "string"
            },
            {
              "internalType": "uint256",
              "name": "dispute_amt",
              "type": "uint256"
            },
            {
              "internalType": "string",
              "name": "dispute_reason",
              "type": "string"
            },
            {
              "internalType": "uint256",
              "name": "days_late",
              "type": "uint256"
            },
            {
              "internalType": "uint256",
              "name": "late_fee_amt",
              "type": "uint256"
            },
            {
              "internalType": "uint256",
              "name": "residual_pay_dt",
              "type": "uint256"
            },
            {
              "internalType": "uint256",
              "name": "residual_pay_amt",
              "type": "uint256"
            },
            {
              "internalType": "string",
              "name": "residual_confirm",
              "type": "string"
            },
            {
              "internalType": "uint256",
              "name": "residual_exp_amt",
              "type": "uint256"
            },
            {
              "internalType": "uint256",
              "name": "residual_calc_amt",
              "type": "uint256"
            }
          ],
          "internalType": "struct Delivery.Settlement[]",
          "name": "",
          "type": "tuple[]"
        }
      ],
      "stateMutability": "view",
      "type": "function",
      "constant": true
    },
    {
      "inputs": [
        {
          "internalType": "uint256",
          "name": "contract_idx",
          "type": "uint256"
        },
        {
          "internalType": "uint256",
          "name": "settle_idx",
          "type": "uint256"
        }
      ],
      "name": "getSettlement",
      "outputs": [
        {
          "components": [
            {
              "internalType": "string",
              "name": "ext_id",
              "type": "string"
            },
            {
              "internalType": "uint256",
              "name": "settle_due_dt",
              "type": "uint256"
            },
            {
              "internalType": "uint256",
              "name": "transact_min_dt",
              "type": "uint256"
            },
            {
              "internalType": "uint256",
              "name": "transact_max_dt",
              "type": "uint256"
            },
            {
              "internalType": "uint256",
              "name": "transact_count",
              "type": "uint256"
            },
            {
              "internalType": "uint256",
              "name": "settle_pay_dt",
              "type": "uint256"
            },
            {
              "internalType": "uint256",
              "name": "settle_exp_amt",
              "type": "uint256"
            },
            {
              "internalType": "uint256",
              "name": "settle_pay_amt",
              "type": "uint256"
            },
            {
              "internalType": "string",
              "name": "settle_confirm",
              "type": "string"
            },
            {
              "internalType": "uint256",
              "name": "dispute_amt",
              "type": "uint256"
            },
            {
              "internalType": "string",
              "name": "dispute_reason",
              "type": "string"
            },
            {
              "internalType": "uint256",
              "name": "days_late",
              "type": "uint256"
            },
            {
              "internalType": "uint256",
              "name": "late_fee_amt",
              "type": "uint256"
            },
            {
              "internalType": "uint256",
              "name": "residual_pay_dt",
              "type": "uint256"
            },
            {
              "internalType": "uint256",
              "name": "residual_pay_amt",
              "type": "uint256"
            },
            {
              "internalType": "string",
              "name": "residual_confirm",
              "type": "string"
            },
            {
              "internalType": "uint256",
              "name": "residual_exp_amt",
              "type": "uint256"
            },
            {
              "internalType": "uint256",
              "name": "residual_calc_amt",
              "type": "uint256"
            }
          ],
          "internalType": "struct Delivery.Settlement",
          "name": "",
          "type": "tuple"
        }
      ],
      "stateMutability": "view",
      "type": "function",
      "constant": true
    },
    {
      "inputs": [
        {
          "internalType": "uint256",
          "name": "contract_idx",
          "type": "uint256"
        },
        {
          "internalType": "string",
          "name": "ext_id",
          "type": "string"
        },
        {
          "internalType": "uint256",
          "name": "settle_due_dt",
          "type": "uint256"
        },
        {
          "internalType": "uint256",
          "name": "transact_min_dt",
          "type": "uint256"
        },
        {
          "internalType": "uint256",
          "name": "transact_max_dt",
          "type": "uint256"
        }
      ],
      "name": "addSettlement",
      "outputs": [],
      "stateMutability": "nonpayable",
      "type": "function"
    },
    {
      "inputs": [
        {
          "internalType": "uint256",
          "name": "contract_idx",
          "type": "uint256"
        }
      ],
      "name": "deleteSettlements",
      "outputs": [],
      "stateMutability": "nonpayable",
      "type": "function"
    },
    {
      "inputs": [
        {
          "internalType": "uint256",
          "name": "contract_idx",
          "type": "uint256"
        }
      ],
      "name": "getTransactions",
      "outputs": [
        {
          "components": [
            {
              "internalType": "string",
              "name": "ext_id",
              "type": "string"
            },
            {
              "internalType": "uint256",
              "name": "transact_dt",
              "type": "uint256"
            },
            {
              "internalType": "uint256",
              "name": "transact_amt",
              "type": "uint256"
            },
            {
              "internalType": "uint256",
              "name": "advance_amt",
              "type": "uint256"
            },
            {
              "internalType": "string",
              "name": "transact_data",
              "type": "string"
            },
            {
              "internalType": "uint256",
              "name": "advance_pay_dt",
              "type": "uint256"
            },
            {
              "internalType": "uint256",
              "name": "advance_pay_amt",
              "type": "uint256"
            },
            {
              "internalType": "string",
              "name": "advance_confirm",
              "type": "string"
            }
          ],
          "internalType": "struct Delivery.Transaction[]",
          "name": "",
          "type": "tuple[]"
        }
      ],
      "stateMutability": "view",
      "type": "function",
      "constant": true
    },
    {
      "inputs": [
        {
          "internalType": "uint256",
          "name": "contract_idx",
          "type": "uint256"
        },
        {
          "internalType": "uint256",
          "name": "transact_idx",
          "type": "uint256"
        }
      ],
      "name": "getTransaction",
      "outputs": [
        {
          "components": [
            {
              "internalType": "string",
              "name": "ext_id",
              "type": "string"
            },
            {
              "internalType": "uint256",
              "name": "transact_dt",
              "type": "uint256"
            },
            {
              "internalType": "uint256",
              "name": "transact_amt",
              "type": "uint256"
            },
            {
              "internalType": "uint256",
              "name": "advance_amt",
              "type": "uint256"
            },
            {
              "internalType": "string",
              "name": "transact_data",
              "type": "string"
            },
            {
              "internalType": "uint256",
              "name": "advance_pay_dt",
              "type": "uint256"
            },
            {
              "internalType": "uint256",
              "name": "advance_pay_amt",
              "type": "uint256"
            },
            {
              "internalType": "string",
              "name": "advance_confirm",
              "type": "string"
            }
          ],
          "internalType": "struct Delivery.Transaction",
          "name": "",
          "type": "tuple"
        }
      ],
      "stateMutability": "view",
      "type": "function",
      "constant": true
    },
    {
      "inputs": [
        {
          "internalType": "uint256",
          "name": "contract_idx",
          "type": "uint256"
        },
        {
          "internalType": "string",
          "name": "ext_id",
          "type": "string"
        },
        {
          "internalType": "uint256",
          "name": "transact_dt",
          "type": "uint256"
        },
        {
          "internalType": "uint256",
          "name": "transact_amt",
          "type": "uint256"
        },
        {
          "internalType": "string",
          "name": "transact_data",
          "type": "string"
        }
      ],
      "name": "addTransaction",
      "outputs": [],
      "stateMutability": "nonpayable",
      "type": "function"
    },
    {
      "inputs": [
        {
          "internalType": "uint256",
          "name": "contract_idx",
          "type": "uint256"
        }
      ],
      "name": "deleteTransactions",
      "outputs": [],
      "stateMutability": "nonpayable",
      "type": "function"
    },
    {
      "inputs": [
        {
          "internalType": "uint256",
          "name": "contract_idx",
          "type": "uint256"
        },
        {
          "internalType": "uint256",
          "name": "transact_idx",
          "type": "uint256"
        },
        {
          "internalType": "uint256",
          "name": "advance_pay_dt",
          "type": "uint256"
        },
        {
          "internalType": "uint256",
          "name": "advance_pay_amt",
          "type": "uint256"
        },
        {
          "internalType": "string",
          "name": "advance_confirm",
          "type": "string"
        }
      ],
      "name": "payAdvance",
      "outputs": [],
      "stateMutability": "nonpayable",
      "type": "function"
    },
    {
      "inputs": [
        {
          "internalType": "uint256",
          "name": "contract_idx",
          "type": "uint256"
        },
        {
          "internalType": "uint256",
          "name": "settle_idx",
          "type": "uint256"
        },
        {
          "internalType": "uint256",
          "name": "settle_pay_dt",
          "type": "uint256"
        },
        {
          "internalType": "uint256",
          "name": "settle_pay_amt",
          "type": "uint256"
        },
        {
          "internalType": "string",
          "name": "settle_confirm",
          "type": "string"
        },
        {
          "internalType": "string",
          "name": "dispute_reason",
          "type": "string"
        }
      ],
      "name": "postSettlement",
      "outputs": [],
      "stateMutability": "nonpayable",
      "type": "function"
    },
    {
      "inputs": [
        {
          "internalType": "uint256",
          "name": "contract_idx",
          "type": "uint256"
        },
        {
          "internalType": "uint256",
          "name": "settle_idx",
          "type": "uint256"
        },
        {
          "internalType": "uint256",
          "name": "residual_pay_dt",
          "type": "uint256"
        },
        {
          "internalType": "uint256",
          "name": "residual_pay_amt",
          "type": "uint256"
        },
        {
          "internalType": "string",
          "name": "residual_confirm",
          "type": "string"
        }
      ],
      "name": "payResidual",
      "outputs": [],
      "stateMutability": "nonpayable",
      "type": "function"
    }
  ],
  "bytecode": "0x608060405234801561001057600080fd5b50600080546001600160a01b031916331790556133a9806100326000396000f3fe608060405234801561001057600080fd5b50600436106101215760003560e01c806375483e46116100ad578063d311341211610071578063d311341214610273578063eff2356614610293578063f06e992d146102a6578063f1e55c47146102b9578063fcf45c0f146102d957610121565b806375483e46146102105780638da5cb5b146102235780639399869d14610238578063a2a789291461024d578063bf2860321461026057610121565b80635b1ffac3116100f45780635b1ffac3146101975780635b4e97e7146101aa578063610df22e146101bd5780636ebc8c86146101d05780637303f6ce146101f057610121565b806311ef56de14610126578063341ae1f91461013b57806346f920fd1461014e5780635742177c14610177575b600080fd5b610139610134366004612b44565b6102ec565b005b610139610149366004612b5c565b610339565b61016161015c366004612b44565b6103e0565b60405161016e919061300d565b60405180910390f35b61018a610185366004612b44565b610728565b60405161016e9190613060565b6101396101a5366004612d30565b610978565b6101396101b8366004612b44565b611022565b6101396101cb366004612cdb565b611084565b6101e36101de366004612b44565b6111c8565b60405161016e9190613140565b6102036101fe366004612cba565b611524565b60405161016e919061323d565b61013961021e366004612cdb565b611764565b61022b6118a8565b60405161016e9190612f99565b6102406118b7565b60405161016e9190613250565b61013961025b366004612c1f565b6118bd565b61013961026e366004612c7f565b611a7a565b610286610281366004612b44565b611bd2565b60405161016e9190612fad565b6101396102a1366004612b09565b611cb3565b6101396102b4366004612ba1565b611e14565b6102cc6102c7366004612cba565b61224c565b60405161016e9190613223565b6101396102e7366004612b44565b612578565b6000546001600160a01b0316331461031f5760405162461bcd60e51b8152600401610316906130e3565b60405180910390fd5b6000818152600460205260408120610336916125da565b50565b6000546001600160a01b031633146103635760405162461bcd60e51b8152600401610316906130e3565b6000828152600460209081526040822080546001810182559083529181902083516103959391909101918401906125f8565b506000828152600460205260409020546103b1906001906132da565b60405183907faf68d5a9ee2703c2a87bcdde7cf74ba8104700f3783a93f0d78e8f93c0c1f1c390600090a35050565b606060026000838152602001908152602001600020805480602002602001604051908101604052809291908181526020016000905b8282101561071c578382906000526020600020906012020160405180610240016040529081600082018054610449906132f1565b80601f0160208091040260200160405190810160405280929190818152602001828054610475906132f1565b80156104c25780601f10610497576101008083540402835291602001916104c2565b820191906000526020600020905b8154815290600101906020018083116104a557829003601f168201915b5050505050815260200160018201548152602001600282015481526020016003820154815260200160048201548152602001600582015481526020016006820154815260200160078201548152602001600882018054610521906132f1565b80601f016020809104026020016040519081016040528092919081815260200182805461054d906132f1565b801561059a5780601f1061056f5761010080835404028352916020019161059a565b820191906000526020600020905b81548152906001019060200180831161057d57829003601f168201915b5050505050815260200160098201548152602001600a820180546105bd906132f1565b80601f01602080910402602001604051908101604052809291908181526020018280546105e9906132f1565b80156106365780601f1061060b57610100808354040283529160200191610636565b820191906000526020600020905b81548152906001019060200180831161061957829003601f168201915b50505050508152602001600b8201548152602001600c8201548152602001600d8201548152602001600e8201548152602001600f82018054610677906132f1565b80601f01602080910402602001604051908101604052809291908181526020018280546106a3906132f1565b80156106f05780601f106106c5576101008083540402835291602001916106f0565b820191906000526020600020905b8154815290600101906020018083116106d357829003601f168201915b505050505081526020016010820154815260200160118201548152505081526020019060010190610415565b5050505090505b919050565b606060036000838152602001908152602001600020805480602002602001604051908101604052809291908181526020016000905b8282101561071c578382906000526020600020906008020160405180610100016040529081600082018054610791906132f1565b80601f01602080910402602001604051908101604052809291908181526020018280546107bd906132f1565b801561080a5780601f106107df5761010080835404028352916020019161080a565b820191906000526020600020905b8154815290600101906020018083116107ed57829003601f168201915b50505050508152602001600182015481526020016002820154815260200160038201548152602001600482018054610841906132f1565b80601f016020809104026020016040519081016040528092919081815260200182805461086d906132f1565b80156108ba5780601f1061088f576101008083540402835291602001916108ba565b820191906000526020600020905b81548152906001019060200180831161089d57829003601f168201915b5050505050815260200160058201548152602001600682015481526020016007820180546108e7906132f1565b80601f0160208091040260200160405190810160405280929190818152602001828054610913906132f1565b80156109605780601f1061093557610100808354040283529160200191610960565b820191906000526020600020905b81548152906001019060200180831161094357829003601f168201915b5050505050815250508152602001906001019061075d565b6000546001600160a01b031633146109a25760405162461bcd60e51b8152600401610316906130e3565b60008681526002602052604090208054859190879081106109d357634e487b7160e01b600052603260045260246000fd5b90600052602060002090601202016005018190555082600260008881526020019081526020016000208681548110610a1b57634e487b7160e01b600052603260045260246000fd5b90600052602060002090601202016007018190555081600260008881526020019081526020016000208681548110610a6357634e487b7160e01b600052603260045260246000fd5b90600052602060002090601202016008019080519060200190610a879291906125f8565b506000868152600260205260409020805486908110610ab657634e487b7160e01b600052603260045260246000fd5b906000526020600020906012020160010154841115610cbd576018603c80600260008a81526020019081526020016000208881548110610b0657634e487b7160e01b600052603260045260246000fd5b90600052602060002090601202016001015487610b2391906132da565b610b2d919061329b565b610b37919061329b565b610b41919061329b565b6000878152600260205260409020805487908110610b6f57634e487b7160e01b600052603260045260246000fd5b9060005260206000209060120201600b0181905550633b9aca00600260008881526020019081526020016000208681548110610bbb57634e487b7160e01b600052603260045260246000fd5b90600052602060002090601202016006015461016d60018981548110610bf157634e487b7160e01b600052603260045260246000fd5b90600052602060002090600a020160070154620186a0610c1191906132bb565b610c1b919061329b565b6000898152600260205260409020805489908110610c4957634e487b7160e01b600052603260045260246000fd5b9060005260206000209060120201600b0154610c6591906132bb565b610c6f91906132bb565b610c79919061329b565b6000878152600260205260409020805487908110610ca757634e487b7160e01b600052603260045260246000fd5b9060005260206000209060120201600c01819055505b6000868152600260205260409020805486908110610ceb57634e487b7160e01b600052603260045260246000fd5b906000526020600020906012020160100154831015610deb576000868152600260205260409020805486908110610d3257634e487b7160e01b600052603260045260246000fd5b90600052602060002090601202016010015483610d4f91906132da565b6000878152600260205260409020805487908110610d7d57634e487b7160e01b600052603260045260246000fd5b90600052602060002090601202016009018190555080600260008881526020019081526020016000208681548110610dc557634e487b7160e01b600052603260045260246000fd5b9060005260206000209060120201600a019080519060200190610de99291906125f8565b505b6000868152600260205260408120805487908110610e1957634e487b7160e01b600052603260045260246000fd5b906000526020600020906012020160090154600260008981526020019081526020016000208781548110610e5d57634e487b7160e01b600052603260045260246000fd5b9060005260206000209060120201600c0154600260008a81526020019081526020016000208881548110610ea157634e487b7160e01b600052603260045260246000fd5b906000526020600020906012020160100154610ebd91906132da565b610ec791906132da565b1115610fed576000868152600260205260409020805486908110610efb57634e487b7160e01b600052603260045260246000fd5b906000526020600020906012020160090154600260008881526020019081526020016000208681548110610f3f57634e487b7160e01b600052603260045260246000fd5b9060005260206000209060120201600c0154600260008981526020019081526020016000208781548110610f8357634e487b7160e01b600052603260045260246000fd5b906000526020600020906012020160100154610f9f91906132da565b610fa991906132da565b6000878152600260205260409020805487908110610fd757634e487b7160e01b600052603260045260246000fd5b9060005260206000209060120201601101819055505b604051859087907fdb8dfacbe40a34c0dff0b240c96463a24f726a750217da7fc2d367a967e815b090600090a3505050505050565b6000546001600160a01b0316331461104c5760405162461bcd60e51b8152600401610316906130e3565b600154811061106d5760405162461bcd60e51b8152600401610316906130b3565b60008181526002602052604081206103369161267c565b6000546001600160a01b031633146110ae5760405162461bcd60e51b8152600401610316906130e3565b60008581526002602052604090208054849190869081106110df57634e487b7160e01b600052603260045260246000fd5b9060005260206000209060120201600d01819055508160026000878152602001908152602001600020858154811061112757634e487b7160e01b600052603260045260246000fd5b9060005260206000209060120201600e01819055508060026000878152602001908152602001600020858154811061116f57634e487b7160e01b600052603260045260246000fd5b9060005260206000209060120201600f0190805190602001906111939291906125f8565b50604051849086907f7929c954daef6a710aa03e6698979bdefbfec7b56dbf98ee261ba830b60f444b90600090a35050505050565b6111d061269d565b600182815481106111f157634e487b7160e01b600052603260045260246000fd5b90600052602060002090600a02016040518061014001604052908160008201805461121b906132f1565b80601f0160208091040260200160405190810160405280929190818152602001828054611247906132f1565b80156112945780601f1061126957610100808354040283529160200191611294565b820191906000526020600020905b81548152906001019060200180831161127757829003601f168201915b505050505081526020016001820180546112ad906132f1565b80601f01602080910402602001604051908101604052809291908181526020018280546112d9906132f1565b80156113265780601f106112fb57610100808354040283529160200191611326565b820191906000526020600020905b81548152906001019060200180831161130957829003601f168201915b5050505050815260200160028201805461133f906132f1565b80601f016020809104026020016040519081016040528092919081815260200182805461136b906132f1565b80156113b85780601f1061138d576101008083540402835291602001916113b8565b820191906000526020600020905b81548152906001019060200180831161139b57829003601f168201915b505050505081526020016003820180546113d1906132f1565b80601f01602080910402602001604051908101604052809291908181526020018280546113fd906132f1565b801561144a5780601f1061141f5761010080835404028352916020019161144a565b820191906000526020600020905b81548152906001019060200180831161142d57829003601f168201915b505050505081526020016004820154815260200160058201548152602001600682015481526020016007820154815260200160088201805461148b906132f1565b80601f01602080910402602001604051908101604052809291908181526020018280546114b7906132f1565b80156115045780601f106114d957610100808354040283529160200191611504565b820191906000526020600020905b8154815290600101906020018083116114e757829003601f168201915b50505091835250506009919091015460ff16151560209091015292915050565b61152c6126f2565b600083815260036020526040902080548390811061155a57634e487b7160e01b600052603260045260246000fd5b906000526020600020906008020160405180610100016040529081600082018054611584906132f1565b80601f01602080910402602001604051908101604052809291908181526020018280546115b0906132f1565b80156115fd5780601f106115d2576101008083540402835291602001916115fd565b820191906000526020600020905b8154815290600101906020018083116115e057829003601f168201915b50505050508152602001600182015481526020016002820154815260200160038201548152602001600482018054611634906132f1565b80601f0160208091040260200160405190810160405280929190818152602001828054611660906132f1565b80156116ad5780601f10611682576101008083540402835291602001916116ad565b820191906000526020600020905b81548152906001019060200180831161169057829003601f168201915b5050505050815260200160058201548152602001600682015481526020016007820180546116da906132f1565b80601f0160208091040260200160405190810160405280929190818152602001828054611706906132f1565b80156117535780601f1061172857610100808354040283529160200191611753565b820191906000526020600020905b81548152906001019060200180831161173657829003601f168201915b505050505081525050905092915050565b6000546001600160a01b0316331461178e5760405162461bcd60e51b8152600401610316906130e3565b60008581526003602052604090208054849190869081106117bf57634e487b7160e01b600052603260045260246000fd5b9060005260206000209060080201600501819055508160036000878152602001908152602001600020858154811061180757634e487b7160e01b600052603260045260246000fd5b9060005260206000209060080201600601819055508060036000878152602001908152602001600020858154811061184f57634e487b7160e01b600052603260045260246000fd5b906000526020600020906008020160070190805190602001906118739291906125f8565b50604051849086907f16e8ade13d35dae069c2f8331054adb6e19dc017359fb7320f0525b14610abe390600090a35050505050565b6000546001600160a01b031681565b60015490565b6000546001600160a01b031633146118e75760405162461bcd60e51b8152600401610316906130e3565b6118ef612737565b6020808201859052604080830185905260608301849052868352600088815260028352908120805460018101825590825290829020835180518594601290940290920192611942928492909101906125f8565b50602082810151600183015560408301516002830155606083015160038301556080830151600483015560a0830151600583015560c0830151600683015560e0830151600783015561010083015180516119a292600885019201906125f8565b50610120820151600982015561014082015180516119ca91600a8401916020909101906125f8565b50610160820151600b820155610180820151600c8201556101a0820151600d8201556101c0820151600e8201556101e08201518051611a1391600f8401916020909101906125f8565b50610200820151601082015561022090910151601190910155600086815260026020526040902054611a47906001906132da565b60405187907f619d28e2ba9cff33c9f9ae92d173352dcd8538835181c81cc2499e2e05b4c5e490600090a3505050505050565b6000546001600160a01b03163314611aa45760405162461bcd60e51b8152600401610316906130e3565b8060018381548110611ac657634e487b7160e01b600052603260045260246000fd5b90600052602060002090600a02016000820151816000019080519060200190611af09291906125f8565b506020828101518051611b0992600185019201906125f8565b5060408201518051611b259160028401916020909101906125f8565b5060608201518051611b419160038401916020909101906125f8565b506080820151600482015560a0820151600582015560c0820151600682015560e082015160078201556101008201518051611b869160088401916020909101906125f8565b5061012091909101516009909101805460ff191691151591909117905560405182907f1d9fa56a87ca45734eb083fa91790c0e4ca990f9e3587510a93bd2a6405da10090600090a25050565b606060046000838152602001908152602001600020805480602002602001604051908101604052809291908181526020016000905b8282101561071c578382906000526020600020018054611c26906132f1565b80601f0160208091040260200160405190810160405280929190818152602001828054611c52906132f1565b8015611c9f5780601f10611c7457610100808354040283529160200191611c9f565b820191906000526020600020905b815481529060010190602001808311611c8257829003601f168201915b505050505081526020019060010190611c07565b6000546001600160a01b03163314611cdd5760405162461bcd60e51b8152600401610316906130e3565b600180548082018255600091909152815180518392600a027fb10e2d527612073b26eecdfd717e6a320cf44b4afac2b0732d9fcbe2b7fa0cf60191611d27918391602001906125f8565b506020828101518051611d4092600185019201906125f8565b5060408201518051611d5c9160028401916020909101906125f8565b5060608201518051611d789160038401916020909101906125f8565b506080820151600482015560a0820151600582015560c0820151600682015560e082015160078201556101008201518051611dbd9160088401916020909101906125f8565b5061012091909101516009909101805460ff191691151591909117905560018054611de891906132da565b6040517fac210b01e42cafdce02d0cd5dc41f3fe6a7245262f52a1cdf2a2eea60dada94090600090a250565b6000546001600160a01b03163314611e3e5760405162461bcd60e51b8152600401610316906130e3565b611e466126f2565b84815260208101849052604081018390526080810182905260005b600087815260026020526040902054811015612070576000878152600260205260409020805482908110611ea557634e487b7160e01b600052603260045260246000fd5b9060005260206000209060120201600201548510158015611f0457506000878152600260205260409020805482908110611eef57634e487b7160e01b600052603260045260246000fd5b90600052602060002090601202016003015485105b1561205e576000878152600260205260409020805482908110611f3757634e487b7160e01b600052603260045260246000fd5b600091825260208220600460129092020101805491611f558361332c565b90915550506040808301516000898152600260205291909120805483908110611f8e57634e487b7160e01b600052603260045260246000fd5b90600052602060002090601202016006016000828254611fae9190613283565b9250508190555061271060018881548110611fd957634e487b7160e01b600052603260045260246000fd5b90600052602060002090600a02016006015485611ff691906132bb565b612000919061329b565b61200a90856132da565b600088815260026020526040902080548390811061203857634e487b7160e01b600052603260045260246000fd5b906000526020600020906012020160100160008282546120589190613283565b90915550505b806120688161332c565b915050611e61565b5060006001878154811061209457634e487b7160e01b600052603260045260246000fd5b90600052602060002090600a0201600501546127108560018a815481106120cb57634e487b7160e01b600052603260045260246000fd5b90600052602060002090600a0201600401546120e791906132bb565b6120f1919061329b565b6120fb9190613283565b9050806127106001898154811061212257634e487b7160e01b600052603260045260246000fd5b90600052602060002090600a0201600601548661213f91906132bb565b612149919061329b565b61215391906132da565b60608301526000878152600360209081526040822080546001810182559083529181902084518051869460080290920192612193928492909101906125f8565b5060208281015160018301556040830151600283015560608301516003830155608083015180516121ca92600485019201906125f8565b5060a0820151600582015560c0820151600682015560e082015180516121fa9160078401916020909101906125f8565b505050600087815260036020526040902054612218906001906132da565b60405188907f3e8e23c97d0d7bdf58a8c0b86dd5f225d5bf51de564f91e7b100bfb6c335994090600090a350505050505050565b612254612737565b600083815260026020526040902080548390811061228257634e487b7160e01b600052603260045260246000fd5b9060005260206000209060120201604051806102400160405290816000820180546122ac906132f1565b80601f01602080910402602001604051908101604052809291908181526020018280546122d8906132f1565b80156123255780601f106122fa57610100808354040283529160200191612325565b820191906000526020600020905b81548152906001019060200180831161230857829003601f168201915b5050505050815260200160018201548152602001600282015481526020016003820154815260200160048201548152602001600582015481526020016006820154815260200160078201548152602001600882018054612384906132f1565b80601f01602080910402602001604051908101604052809291908181526020018280546123b0906132f1565b80156123fd5780601f106123d2576101008083540402835291602001916123fd565b820191906000526020600020905b8154815290600101906020018083116123e057829003601f168201915b5050505050815260200160098201548152602001600a82018054612420906132f1565b80601f016020809104026020016040519081016040528092919081815260200182805461244c906132f1565b80156124995780601f1061246e57610100808354040283529160200191612499565b820191906000526020600020905b81548152906001019060200180831161247c57829003601f168201915b50505050508152602001600b8201548152602001600c8201548152602001600d8201548152602001600e8201548152602001600f820180546124da906132f1565b80601f0160208091040260200160405190810160405280929190818152602001828054612506906132f1565b80156125535780601f1061252857610100808354040283529160200191612553565b820191906000526020600020905b81548152906001019060200180831161253657829003601f168201915b5050505050815260200160108201548152602001601182015481525050905092915050565b6000546001600160a01b031633146125a25760405162461bcd60e51b8152600401610316906130e3565b60015481106125c35760405162461bcd60e51b8152600401610316906130b3565b6000818152600360205260408120610336916127c2565b508054600082559060005260206000209081019061033691906127e3565b828054612604906132f1565b90600052602060002090601f016020900481019282612626576000855561266c565b82601f1061263f57805160ff191683800117855561266c565b8280016001018555821561266c579182015b8281111561266c578251825591602001919060010190612651565b50612678929150612800565b5090565b50805460008255601202906000526020600020908101906103369190612815565b6040518061014001604052806060815260200160608152602001606081526020016060815260200160008152602001600081526020016000815260200160008152602001606081526020016000151581525090565b60405180610100016040528060608152602001600081526020016000815260200160008152602001606081526020016000815260200160008152602001606081525090565b6040518061024001604052806060815260200160008152602001600081526020016000815260200160008152602001600081526020016000815260200160008152602001606081526020016000815260200160608152602001600081526020016000815260200160008152602001600081526020016060815260200160008152602001600081525090565b508054600082556008029060005260206000209081019061033691906128d0565b808211156126785760006127f78282612935565b506001016127e3565b5b808211156126785760008155600101612801565b808211156126785760006128298282612935565b60018201600090556002820160009055600382016000905560048201600090556005820160009055600682016000905560078201600090556008820160006128719190612935565b6009820160009055600a820160006128899190612935565b600b820160009055600c820160009055600d820160009055600e820160009055600f820160006128b99190612935565b506000601082018190556011820155601201612815565b808211156126785760006128e48282612935565b60018201600090556002820160009055600382016000905560048201600061290c9190612935565b6005820160009055600682016000905560078201600061292c9190612935565b506008016128d0565b508054612941906132f1565b6000825580601f106129535750610336565b601f0160209004906000526020600020908101906103369190612800565b8035801515811461072357600080fd5b600082601f830112612991578081fd5b813567ffffffffffffffff8111156129ab576129ab61335d565b6129be601f8201601f1916602001613259565b8181528460208386010111156129d2578283fd5b816020850160208301379081016020019190915292915050565b60006101408083850312156129ff578182fd5b612a0881613259565b915050813567ffffffffffffffff80821115612a2357600080fd5b612a2f85838601612981565b83526020840135915080821115612a4557600080fd5b612a5185838601612981565b60208401526040840135915080821115612a6a57600080fd5b612a7685838601612981565b60408401526060840135915080821115612a8f57600080fd5b612a9b85838601612981565b60608401526080840135608084015260a084013560a084015260c084013560c084015260e084013560e084015261010091508184013581811115612ade57600080fd5b612aea86828701612981565b83850152505050610120612aff818401612971565b9082015292915050565b600060208284031215612b1a578081fd5b813567ffffffffffffffff811115612b30578182fd5b612b3c848285016129ec565b949350505050565b600060208284031215612b55578081fd5b5035919050565b60008060408385031215612b6e578081fd5b82359150602083013567ffffffffffffffff811115612b8b578182fd5b612b9785828601612981565b9150509250929050565b600080600080600060a08688031215612bb8578081fd5b85359450602086013567ffffffffffffffff80821115612bd6578283fd5b612be289838a01612981565b955060408801359450606088013593506080880135915080821115612c05578283fd5b50612c1288828901612981565b9150509295509295909350565b600080600080600060a08688031215612c36578081fd5b85359450602086013567ffffffffffffffff811115612c53578182fd5b612c5f88828901612981565b959895975050505060408401359360608101359360809091013592509050565b60008060408385031215612c91578182fd5b82359150602083013567ffffffffffffffff811115612cae578182fd5b612b97858286016129ec565b60008060408385031215612ccc578182fd5b50508035926020909101359150565b600080600080600060a08688031215612cf2578081fd5b85359450602086013593506040860135925060608601359150608086013567ffffffffffffffff811115612d24578182fd5b612c1288828901612981565b60008060008060008060c08789031215612d48578081fd5b86359550602087013594506040870135935060608701359250608087013567ffffffffffffffff80821115612d7b578283fd5b612d878a838b01612981565b935060a0890135915080821115612d9c578283fd5b50612da989828a01612981565b9150509295509295509295565b15159052565b60008151808452815b81811015612de157602081850181015186830182015201612dc5565b81811115612df25782602083870101525b50601f01601f19169290920160200192915050565b60006102408251818552612e1d82860182612dbc565b9150506020830151602085015260408301516040850152606083015160608501526080830151608085015260a083015160a085015260c083015160c085015260e083015160e08501526101008084015185830382870152612e7e8382612dbc565b925050506101208084015181860152506101408084015185830382870152612ea68382612dbc565b610160868101519088015261018080870151908801526101a080870151908801526101c080870151908801526101e080870151888303828a015291945092509050612ef18382612dbc565b610200868101519088015261022095860151959096019490945250929392505050565b60006101008251818552612f2a82860182612dbc565b91505060208301516020850152604083015160408501526060830151606085015260808301518482036080860152612f628282612dbc565b91505060a083015160a085015260c083015160c085015260e083015184820360e0860152612f908282612dbc565b95945050505050565b6001600160a01b0391909116815260200190565b6000602080830181845280855180835260408601915060408482028701019250838701855b8281101561300057603f19888603018452612fee858351612dbc565b94509285019290850190600101612fd2565b5092979650505050505050565b6000602080830181845280855180835260408601915060408482028701019250838701855b8281101561300057603f1988860301845261304e858351612e07565b94509285019290850190600101613032565b6000602080830181845280855180835260408601915060408482028701019250838701855b8281101561300057603f198886030184526130a1858351612f14565b94509285019290850190600101613085565b602080825260169082015275092dcecc2d8d2c840c6dedce8e4c2c6e840d2dcc8caf60531b604082015260600190565b60208082526039908201527f4163636573732064656e6965642c206f6e6c7920636f6e7472616374206f776e60408201527f65722063616e2063616c6c20746869732066756e6374696f6e00000000000000606082015260800190565b600060208252825161014080602085015261315f610160850183612dbc565b91506020850151601f198086850301604087015261317d8483612dbc565b9350604087015191508086850301606087015261319a8483612dbc565b935060608701519150808685030160808701526131b78483612dbc565b9350608087015160a087015260a087015160c087015260c087015160e087015260e087015191506101008281880152808801519250506101208187860301818801526132038584612dbc565b9450808801519250505061321982860182612db6565b5090949350505050565b6000602082526132366020830184612e07565b9392505050565b6000602082526132366020830184612f14565b90815260200190565b60405181810167ffffffffffffffff8111828210171561327b5761327b61335d565b604052919050565b6000821982111561329657613296613347565b500190565b6000826132b657634e487b7160e01b81526012600452602481fd5b500490565b60008160001904831182151516156132d5576132d5613347565b500290565b6000828210156132ec576132ec613347565b500390565b60028104600182168061330557607f821691505b6020821081141561332657634e487b7160e01b600052602260045260246000fd5b50919050565b600060001982141561334057613340613347565b5060010190565b634e487b7160e01b600052601160045260246000fd5b634e487b7160e01b600052604160045260246000fdfea26469706673582212201c04a42df0f48d421ed9f05c1956bd74990dc6c9bfbb2240fa34253c4d81a72864736f6c63430008000033",
  "immutableReferences": {},
  "source": "// SPDX-License-Identifier: MIT\npragma solidity ^0.8.0;\n\ncontract Delivery {\n\n    address public owner;\n    \n    Contract[] contracts;                                   // [contract_idx]\n    mapping (uint => Settlement[]) private settlements;     // contract_idx => settlement[]\n    mapping (uint => Transaction[]) private transactions;   // contract_idx => transaction[]\n    mapping (uint => string[]) private artifacts;           // contract_idx => artifact_list[]\n\n    // every field ending in _dt is a unix timestamp\n    // every field ending in _amt is an integer representing a float with 2 decimals\n    // every field ending in _pct is an integer represending a float value with 4 decimals \n    // every field ending in _confirm is a string returned from the fiat payment provider\n\n    struct Contract {\n        string ext_id;                  // json with list of external_id(s) for contract\n        string contract_name;           // non-unique, description for display purposes\n        string payment_instr;           // seller payment instructions\n        string funding_instr;           // buyer funding instructions\n        uint service_fee_pct;           // service fee can include a pct + flat rate amt\n        uint service_fee_amt;           \n        uint advance_pct;               // amount of money that will be advanced to seller for every transaction\n        uint late_fee_pct;              // an APR, daily rate calculated as late_fee_pct / 365\n        string transact_logic;          // jsonlogic formula for calculating transaction amount\n        bool is_active;                 // instead of deleting, clear this flag to False\n    }    \n\n    struct Settlement {\n        string ext_id;                  // json with list of external_id(s), e.g. invoice_id\n        uint settle_due_dt;             // date the payment is due (midnight)   \n        uint transact_min_dt;           // min date the transaction is made (midnight)\n        uint transact_max_dt;           // max date the transaction is made (midnight) \n        uint transact_count; \n        uint settle_pay_dt;\n        uint settle_exp_amt;            // expected amount of settlement\n        uint settle_pay_amt;            // actual amount paid from the buyer\n        string settle_confirm;\n        uint dispute_amt;               // if expected  < actual, assume there was a dispute\n        string dispute_reason;\n        uint days_late; \n        uint late_fee_amt;              // amount of the late fee, will be taken out of the residual\n        uint residual_pay_dt;\n        uint residual_pay_amt;          // will equal residual_calc_amt after payment intitiated\n        string residual_confirm;\n        uint residual_exp_amt;          // expected amount of the residual\n        uint residual_calc_amt;         // what the actual residual will be (exp - late_fee - dispute)\n    }\n\n    struct Transaction {\n        string ext_id;                  // json external identifier for transaction\n        uint transact_dt;               \n        uint transact_amt;              // calculated value of a transaction of transaction\n        uint advance_amt;               // advance_amt * advance_pct - service_fee_amt\n        string transact_data;           // data regarding transaction for jsonlogic    \n        uint advance_pay_dt;            // paymet of advance\n        uint advance_pay_amt;           // will equal advance amt after payment initiated\n        string advance_confirm;\n    }\n\n    event ContractAdded(uint indexed contract_idx);\n    event ContractUpdated(uint indexed contract_idx);\n    event TransactionAdded(uint indexed contract_idx, uint indexed transact_idx);\n    event ArtifactAdded(uint indexed contract_idx, uint indexed artifact_idx);\n    event SettlementAdded(uint indexed contract_idx, uint indexed settle_idx);\n    event AdvancePaid(uint indexed contract_idx, uint indexed transact_idx);\n    event SettlementPosted(uint indexed contract_idx, uint indexed settle_idx);\n    event ResidualPaid(uint indexed contract_idx, uint indexed settle_idx);\n\n    constructor() {\n        owner = msg.sender;\n    }\n\n    modifier onlyOwner() {\n        require(msg.sender == owner, \"Access denied, only contract owner can call this function\");\n        _;\n    }\n\n    function getContractCount() public view returns (uint) {\n        return contracts.length;\n    }\n\n    function getContract(uint contract_idx) public view returns (Contract memory) {\n        return contracts[contract_idx];\n    }\n\n    function addContract (Contract memory contract_) public onlyOwner {\n        contracts.push(contract_);\n        emit ContractAdded(contracts.length - 1);\n    }\n\n    function updateContract (uint contract_idx, Contract memory contract_) public onlyOwner {\n        contracts[contract_idx] = contract_;\n        emit ContractUpdated(contract_idx);\n    }\n\n    function getArtifacts (uint contract_idx) public view returns (string[] memory) {\n        return artifacts[contract_idx];\n    }\n\n    function addArtifact (uint contract_idx, string memory artifact_id) public onlyOwner {\n        artifacts[contract_idx].push(artifact_id);\n        emit ArtifactAdded(contract_idx, artifacts[contract_idx].length - 1);\n    }\n\n    function deleteArtifacts(uint contract_idx) public onlyOwner {\n        delete artifacts[contract_idx];\n    }\n\n    function getSettlements(uint contract_idx) public view returns (Settlement[] memory) {\n        return settlements[contract_idx];\n    }\n\n    function getSettlement(uint contract_idx, uint settle_idx) public view returns (Settlement memory) {\n        return settlements[contract_idx][settle_idx];\n    }\n\n    function addSettlement(uint contract_idx, string memory ext_id, uint settle_due_dt, uint transact_min_dt, uint transact_max_dt) public onlyOwner {\n        Settlement memory settlement;\n        settlement.settle_due_dt = settle_due_dt;\n        settlement.transact_min_dt = transact_min_dt;\n        settlement.transact_max_dt = transact_max_dt;\n        settlement.ext_id = ext_id;\n        settlements[contract_idx].push(settlement);\n        emit SettlementAdded(contract_idx, settlements[contract_idx].length - 1);\n    }\n\n    function deleteSettlements(uint contract_idx) public onlyOwner {\n        require (contract_idx < contracts.length, \"Invalid contract index\");\n        delete settlements[contract_idx];\n    }\n\n    function getTransactions(uint contract_idx) public view returns (Transaction[] memory) {\n        return transactions[contract_idx];\n    }\n\n    function getTransaction(uint contract_idx, uint transact_idx) public view returns (Transaction memory) {\n        return transactions[contract_idx][transact_idx];\n    }\n\n    function addTransaction(uint contract_idx, string memory ext_id, uint transact_dt, uint transact_amt, string memory transact_data) public onlyOwner {\n\n        Transaction memory transact;\n        transact.ext_id = ext_id;\n        transact.transact_dt = transact_dt;\n        transact.transact_amt = transact_amt;\n        transact.transact_data = transact_data;\n\n        for (uint i = 0; i < settlements[contract_idx].length; i++) {\n            if (transact_dt >= settlements[contract_idx][i].transact_min_dt && transact_dt < settlements[contract_idx][i].transact_max_dt) {\n                settlements[contract_idx][i].transact_count ++;\n                settlements[contract_idx][i].settle_exp_amt += transact.transact_amt;\n                settlements[contract_idx][i].residual_exp_amt += transact_amt - (transact_amt * contracts[contract_idx].advance_pct / 10000);\n            }\n        }\n\n        uint service_fee = (contracts[contract_idx].service_fee_pct * transact_amt / 10000) + contracts[contract_idx].service_fee_amt;\n        transact.advance_amt = (transact_amt * contracts[contract_idx].advance_pct / 10000) - service_fee;\n        transactions[contract_idx].push(transact);\n        emit TransactionAdded(contract_idx, transactions[contract_idx].length - 1);\n    }\n\n    function deleteTransactions(uint contract_idx) public onlyOwner {\n        require (contract_idx < contracts.length, \"Invalid contract index\");\n        delete transactions[contract_idx];\n    }\n\n    function payAdvance(uint contract_idx, uint transact_idx, uint advance_pay_dt, uint advance_pay_amt, string memory advance_confirm) public onlyOwner {\n        transactions[contract_idx][transact_idx].advance_pay_dt = advance_pay_dt;\n        transactions[contract_idx][transact_idx].advance_pay_amt = advance_pay_amt;\n        transactions[contract_idx][transact_idx].advance_confirm = advance_confirm;\n        emit AdvancePaid(contract_idx, transact_idx);\n    }\n\n    function postSettlement(uint contract_idx, uint settle_idx, uint settle_pay_dt, uint settle_pay_amt, string memory settle_confirm, string memory dispute_reason) public onlyOwner {\n        settlements[contract_idx][settle_idx].settle_pay_dt = settle_pay_dt;\n        settlements[contract_idx][settle_idx].settle_pay_amt = settle_pay_amt;\n        settlements[contract_idx][settle_idx].settle_confirm = settle_confirm;\n\n        if (settle_pay_dt > settlements[contract_idx][settle_idx].settle_due_dt) {\n            settlements[contract_idx][settle_idx].days_late = (settle_pay_dt - settlements[contract_idx][settle_idx].settle_due_dt) / 60 / 60 / 24;\n            settlements[contract_idx][settle_idx].late_fee_amt = (settlements[contract_idx][settle_idx].days_late * \n                ((contracts[contract_idx].late_fee_pct * 100000) / 365) * settlements[contract_idx][settle_idx].settle_exp_amt) / 1000000000;\n        }\n\n        if (settle_pay_amt < settlements[contract_idx][settle_idx].residual_exp_amt) {\n            settlements[contract_idx][settle_idx].dispute_amt = settle_pay_amt - settlements[contract_idx][settle_idx].residual_exp_amt;\n            settlements[contract_idx][settle_idx].dispute_reason = dispute_reason;\n        } \n        \n        if ((settlements[contract_idx][settle_idx].residual_exp_amt - settlements[contract_idx][settle_idx].late_fee_amt - settlements[contract_idx][settle_idx].dispute_amt) > 0) {\n            settlements[contract_idx][settle_idx].residual_calc_amt = settlements[contract_idx][settle_idx].residual_exp_amt - settlements[contract_idx][settle_idx].late_fee_amt -\n                settlements[contract_idx][settle_idx].dispute_amt;\n        } \n        emit SettlementPosted(contract_idx, settle_idx);\n    }\n\n    function payResidual(uint contract_idx, uint settle_idx, uint residual_pay_dt, uint residual_pay_amt, string memory residual_confirm) public onlyOwner {\n        settlements[contract_idx][settle_idx].residual_pay_dt = residual_pay_dt;\n        settlements[contract_idx][settle_idx].residual_pay_amt = residual_pay_amt;\n        settlements[contract_idx][settle_idx].residual_confirm = residual_confirm;\n        emit ResidualPaid(contract_idx, settle_idx);\n    }\n}",
  "sourcePath": "/Users/davidnichamoff/Documents/FIZIT_DEV/truffle/contracts/Delivery.sol",
  "compiler": {
    "name": "solc",
    "version": "0.8.0+commit.c7dfd78e.Emscripten.clang"
  },
  "schemaVersion": "3.4.16",
  "updatedAt": "2024-05-01T18:04:51.127Z",
  "networkType": "ethereum",
  "devdoc": {
    "kind": "dev",
    "methods": {},
    "version": 1
  },
  "userdoc": {
    "kind": "user",
    "methods": {},
    "version": 1
  }
}