{
  "contractName": "Delivery",
  "abi": [
    {
      "anonymous": false,
      "inputs": [
        {
          "indexed": true,
          "internalType": "uint256",
          "name": "contract_idx",
          "type": "uint256"
        },
        {
          "indexed": false,
          "internalType": "string",
          "name": "eventType",
          "type": "string"
        },
        {
          "indexed": false,
          "internalType": "string",
          "name": "details",
          "type": "string"
        }
      ],
      "name": "ContractEvent",
      "type": "event"
    },
    {
      "inputs": [],
      "name": "owner",
      "outputs": [
        {
          "internalType": "address",
          "name": "",
          "type": "address"
        }
      ],
      "stateMutability": "view",
      "type": "function",
      "constant": true
    },
    {
      "inputs": [],
      "name": "getContractCount",
      "outputs": [
        {
          "internalType": "uint256",
          "name": "",
          "type": "uint256"
        }
      ],
      "stateMutability": "view",
      "type": "function",
      "constant": true
    },
    {
      "inputs": [
        {
          "internalType": "uint256",
          "name": "contract_idx",
          "type": "uint256"
        }
      ],
      "name": "getContract",
      "outputs": [
        {
          "components": [
            {
              "internalType": "string",
              "name": "extended_data",
              "type": "string"
            },
            {
              "internalType": "string",
              "name": "contract_name",
              "type": "string"
            },
            {
              "internalType": "string",
              "name": "contract_type",
              "type": "string"
            },
            {
              "internalType": "string",
              "name": "funding_instr",
              "type": "string"
            },
            {
              "internalType": "string",
              "name": "deposit_instr",
              "type": "string"
            },
            {
              "internalType": "uint256",
              "name": "service_fee_pct",
              "type": "uint256"
            },
            {
              "internalType": "uint256",
              "name": "service_fee_max",
              "type": "uint256"
            },
            {
              "internalType": "int256",
              "name": "service_fee_amt",
              "type": "int256"
            },
            {
              "internalType": "uint256",
              "name": "advance_pct",
              "type": "uint256"
            },
            {
              "internalType": "uint256",
              "name": "late_fee_pct",
              "type": "uint256"
            },
            {
              "internalType": "string",
              "name": "transact_logic",
              "type": "string"
            },
            {
              "internalType": "int256",
              "name": "min_threshold",
              "type": "int256"
            },
            {
              "internalType": "int256",
              "name": "max_threshold",
              "type": "int256"
            },
            {
              "internalType": "string",
              "name": "notes",
              "type": "string"
            },
            {
              "internalType": "bool",
              "name": "is_active",
              "type": "bool"
            },
            {
              "internalType": "bool",
              "name": "is_quote",
              "type": "bool"
            }
          ],
          "internalType": "struct Delivery.Contract",
          "name": "",
          "type": "tuple"
        }
      ],
      "stateMutability": "view",
      "type": "function",
      "constant": true
    },
    {
      "inputs": [
        {
          "components": [
            {
              "internalType": "string",
              "name": "extended_data",
              "type": "string"
            },
            {
              "internalType": "string",
              "name": "contract_name",
              "type": "string"
            },
            {
              "internalType": "string",
              "name": "contract_type",
              "type": "string"
            },
            {
              "internalType": "string",
              "name": "funding_instr",
              "type": "string"
            },
            {
              "internalType": "string",
              "name": "deposit_instr",
              "type": "string"
            },
            {
              "internalType": "uint256",
              "name": "service_fee_pct",
              "type": "uint256"
            },
            {
              "internalType": "uint256",
              "name": "service_fee_max",
              "type": "uint256"
            },
            {
              "internalType": "int256",
              "name": "service_fee_amt",
              "type": "int256"
            },
            {
              "internalType": "uint256",
              "name": "advance_pct",
              "type": "uint256"
            },
            {
              "internalType": "uint256",
              "name": "late_fee_pct",
              "type": "uint256"
            },
            {
              "internalType": "string",
              "name": "transact_logic",
              "type": "string"
            },
            {
              "internalType": "int256",
              "name": "min_threshold",
              "type": "int256"
            },
            {
              "internalType": "int256",
              "name": "max_threshold",
              "type": "int256"
            },
            {
              "internalType": "string",
              "name": "notes",
              "type": "string"
            },
            {
              "internalType": "bool",
              "name": "is_active",
              "type": "bool"
            },
            {
              "internalType": "bool",
              "name": "is_quote",
              "type": "bool"
            }
          ],
          "internalType": "struct Delivery.Contract",
          "name": "contract_",
          "type": "tuple"
        }
      ],
      "name": "addContract",
      "outputs": [],
      "stateMutability": "nonpayable",
      "type": "function"
    },
    {
      "inputs": [
        {
          "internalType": "uint256",
          "name": "contract_idx",
          "type": "uint256"
        },
        {
          "components": [
            {
              "internalType": "string",
              "name": "extended_data",
              "type": "string"
            },
            {
              "internalType": "string",
              "name": "contract_name",
              "type": "string"
            },
            {
              "internalType": "string",
              "name": "contract_type",
              "type": "string"
            },
            {
              "internalType": "string",
              "name": "funding_instr",
              "type": "string"
            },
            {
              "internalType": "string",
              "name": "deposit_instr",
              "type": "string"
            },
            {
              "internalType": "uint256",
              "name": "service_fee_pct",
              "type": "uint256"
            },
            {
              "internalType": "uint256",
              "name": "service_fee_max",
              "type": "uint256"
            },
            {
              "internalType": "int256",
              "name": "service_fee_amt",
              "type": "int256"
            },
            {
              "internalType": "uint256",
              "name": "advance_pct",
              "type": "uint256"
            },
            {
              "internalType": "uint256",
              "name": "late_fee_pct",
              "type": "uint256"
            },
            {
              "internalType": "string",
              "name": "transact_logic",
              "type": "string"
            },
            {
              "internalType": "int256",
              "name": "min_threshold",
              "type": "int256"
            },
            {
              "internalType": "int256",
              "name": "max_threshold",
              "type": "int256"
            },
            {
              "internalType": "string",
              "name": "notes",
              "type": "string"
            },
            {
              "internalType": "bool",
              "name": "is_active",
              "type": "bool"
            },
            {
              "internalType": "bool",
              "name": "is_quote",
              "type": "bool"
            }
          ],
          "internalType": "struct Delivery.Contract",
          "name": "contract_",
          "type": "tuple"
        }
      ],
      "name": "updateContract",
      "outputs": [],
      "stateMutability": "nonpayable",
      "type": "function"
    },
    {
      "inputs": [
        {
          "internalType": "uint256",
          "name": "contract_idx",
          "type": "uint256"
        }
      ],
      "name": "deleteContract",
      "outputs": [],
      "stateMutability": "nonpayable",
      "type": "function"
    },
    {
      "inputs": [
        {
          "internalType": "uint256",
          "name": "contract_idx",
          "type": "uint256"
        }
      ],
      "name": "getParties",
      "outputs": [
        {
          "components": [
            {
              "internalType": "string",
              "name": "party_code",
              "type": "string"
            },
            {
              "internalType": "address",
              "name": "party_addr",
              "type": "address"
            },
            {
              "internalType": "string",
              "name": "party_type",
              "type": "string"
            }
          ],
          "internalType": "struct Delivery.Party[]",
          "name": "",
          "type": "tuple[]"
        }
      ],
      "stateMutability": "view",
      "type": "function",
      "constant": true
    },
    {
      "inputs": [
        {
          "internalType": "uint256",
          "name": "contract_idx",
          "type": "uint256"
        },
        {
          "components": [
            {
              "internalType": "string",
              "name": "party_code",
              "type": "string"
            },
            {
              "internalType": "address",
              "name": "party_addr",
              "type": "address"
            },
            {
              "internalType": "string",
              "name": "party_type",
              "type": "string"
            }
          ],
          "internalType": "struct Delivery.Party",
          "name": "party",
          "type": "tuple"
        }
      ],
      "name": "addParty",
      "outputs": [],
      "stateMutability": "nonpayable",
      "type": "function"
    },
    {
      "inputs": [
        {
          "internalType": "uint256",
          "name": "contract_idx",
          "type": "uint256"
        },
        {
          "internalType": "uint256",
          "name": "party_idx",
          "type": "uint256"
        }
      ],
      "name": "deleteParty",
      "outputs": [],
      "stateMutability": "nonpayable",
      "type": "function"
    },
    {
      "inputs": [
        {
          "internalType": "uint256",
          "name": "contract_idx",
          "type": "uint256"
        }
      ],
      "name": "deleteParties",
      "outputs": [],
      "stateMutability": "nonpayable",
      "type": "function"
    },
    {
      "inputs": [
        {
          "internalType": "uint256",
          "name": "contract_idx",
          "type": "uint256"
        }
      ],
      "name": "getArtifacts",
      "outputs": [
        {
          "components": [
            {
              "internalType": "string",
              "name": "doc_title",
              "type": "string"
            },
            {
              "internalType": "string",
              "name": "doc_type",
              "type": "string"
            },
            {
              "internalType": "uint256",
              "name": "added_dt",
              "type": "uint256"
            },
            {
              "internalType": "string",
              "name": "s3_bucket",
              "type": "string"
            },
            {
              "internalType": "string",
              "name": "s3_object_key",
              "type": "string"
            },
            {
              "internalType": "string",
              "name": "s3_version_id",
              "type": "string"
            }
          ],
          "internalType": "struct Delivery.Artifact[]",
          "name": "",
          "type": "tuple[]"
        }
      ],
      "stateMutability": "view",
      "type": "function",
      "constant": true
    },
    {
      "inputs": [
        {
          "internalType": "uint256",
          "name": "contract_idx",
          "type": "uint256"
        },
        {
          "internalType": "string",
          "name": "doc_title",
          "type": "string"
        },
        {
          "internalType": "string",
          "name": "doc_type",
          "type": "string"
        },
        {
          "internalType": "uint256",
          "name": "added_dt",
          "type": "uint256"
        },
        {
          "internalType": "string",
          "name": "s3_bucket",
          "type": "string"
        },
        {
          "internalType": "string",
          "name": "s3_object_key",
          "type": "string"
        },
        {
          "internalType": "string",
          "name": "s3_version_id",
          "type": "string"
        }
      ],
      "name": "addArtifact",
      "outputs": [],
      "stateMutability": "nonpayable",
      "type": "function"
    },
    {
      "inputs": [
        {
          "internalType": "uint256",
          "name": "contract_idx",
          "type": "uint256"
        },
        {
          "internalType": "uint256",
          "name": "artifact_idx",
          "type": "uint256"
        }
      ],
      "name": "deleteArtifact",
      "outputs": [],
      "stateMutability": "nonpayable",
      "type": "function"
    },
    {
      "inputs": [
        {
          "internalType": "uint256",
          "name": "contract_idx",
          "type": "uint256"
        }
      ],
      "name": "deleteArtifacts",
      "outputs": [],
      "stateMutability": "nonpayable",
      "type": "function"
    },
    {
      "inputs": [
        {
          "internalType": "uint256",
          "name": "contract_idx",
          "type": "uint256"
        }
      ],
      "name": "getSettlements",
      "outputs": [
        {
          "components": [
            {
              "internalType": "string",
              "name": "extended_data",
              "type": "string"
            },
            {
              "internalType": "uint256",
              "name": "settle_due_dt",
              "type": "uint256"
            },
            {
              "internalType": "uint256",
              "name": "transact_min_dt",
              "type": "uint256"
            },
            {
              "internalType": "uint256",
              "name": "transact_max_dt",
              "type": "uint256"
            },
            {
              "internalType": "uint256",
              "name": "transact_count",
              "type": "uint256"
            },
            {
              "internalType": "int256",
              "name": "advance_amt",
              "type": "int256"
            },
            {
              "internalType": "int256",
              "name": "advance_amt_gross",
              "type": "int256"
            },
            {
              "internalType": "uint256",
              "name": "settle_pay_dt",
              "type": "uint256"
            },
            {
              "internalType": "int256",
              "name": "settle_exp_amt",
              "type": "int256"
            },
            {
              "internalType": "int256",
              "name": "settle_pay_amt",
              "type": "int256"
            },
            {
              "internalType": "int256",
              "name": "dispute_amt",
              "type": "int256"
            },
            {
              "internalType": "string",
              "name": "dispute_reason",
              "type": "string"
            },
            {
              "internalType": "uint256",
              "name": "days_late",
              "type": "uint256"
            },
            {
              "internalType": "int256",
              "name": "late_fee_amt",
              "type": "int256"
            },
            {
              "internalType": "uint256",
              "name": "residual_pay_dt",
              "type": "uint256"
            },
            {
              "internalType": "int256",
              "name": "residual_pay_amt",
              "type": "int256"
            },
            {
              "internalType": "int256",
              "name": "residual_exp_amt",
              "type": "int256"
            },
            {
              "internalType": "int256",
              "name": "residual_calc_amt",
              "type": "int256"
            }
          ],
          "internalType": "struct Delivery.Settlement[]",
          "name": "",
          "type": "tuple[]"
        }
      ],
      "stateMutability": "view",
      "type": "function",
      "constant": true
    },
    {
      "inputs": [
        {
          "internalType": "uint256",
          "name": "contract_idx",
          "type": "uint256"
        },
        {
          "internalType": "string",
          "name": "extended_data",
          "type": "string"
        },
        {
          "internalType": "uint256",
          "name": "settle_due_dt",
          "type": "uint256"
        },
        {
          "internalType": "uint256",
          "name": "transact_min_dt",
          "type": "uint256"
        },
        {
          "internalType": "uint256",
          "name": "transact_max_dt",
          "type": "uint256"
        }
      ],
      "name": "addSettlement",
      "outputs": [],
      "stateMutability": "nonpayable",
      "type": "function"
    },
    {
      "inputs": [
        {
          "internalType": "uint256",
          "name": "contract_idx",
          "type": "uint256"
        }
      ],
      "name": "deleteSettlements",
      "outputs": [],
      "stateMutability": "nonpayable",
      "type": "function"
    },
    {
      "inputs": [
        {
          "internalType": "uint256",
          "name": "contract_idx",
          "type": "uint256"
        }
      ],
      "name": "getTransactions",
      "outputs": [
        {
          "components": [
            {
              "internalType": "string",
              "name": "extended_data",
              "type": "string"
            },
            {
              "internalType": "uint256",
              "name": "transact_dt",
              "type": "uint256"
            },
            {
              "internalType": "int256",
              "name": "transact_amt",
              "type": "int256"
            },
            {
              "internalType": "int256",
              "name": "service_fee_amt",
              "type": "int256"
            },
            {
              "internalType": "int256",
              "name": "advance_amt",
              "type": "int256"
            },
            {
              "internalType": "string",
              "name": "transact_data",
              "type": "string"
            },
            {
              "internalType": "uint256",
              "name": "advance_pay_dt",
              "type": "uint256"
            },
            {
              "internalType": "uint256",
              "name": "advance_pay_amt",
              "type": "uint256"
            }
          ],
          "internalType": "struct Delivery.Transaction[]",
          "name": "",
          "type": "tuple[]"
        }
      ],
      "stateMutability": "view",
      "type": "function",
      "constant": true
    },
    {
      "inputs": [
        {
          "internalType": "uint256",
          "name": "contract_idx",
          "type": "uint256"
        }
      ],
      "name": "deleteTransactions",
      "outputs": [],
      "stateMutability": "nonpayable",
      "type": "function"
    },
    {
      "inputs": [
        {
          "internalType": "uint256",
          "name": "contract_idx",
          "type": "uint256"
        },
        {
          "internalType": "string",
          "name": "extended_data",
          "type": "string"
        },
        {
          "internalType": "uint256",
          "name": "transact_dt",
          "type": "uint256"
        },
        {
          "internalType": "int256",
          "name": "transact_amt",
          "type": "int256"
        },
        {
          "internalType": "string",
          "name": "transact_data",
          "type": "string"
        }
      ],
      "name": "addTransaction",
      "outputs": [],
      "stateMutability": "nonpayable",
      "type": "function"
    },
    {
      "inputs": [
        {
          "internalType": "uint256",
          "name": "contract_idx",
          "type": "uint256"
        },
        {
          "internalType": "uint256",
          "name": "transact_idx",
          "type": "uint256"
        },
        {
          "internalType": "uint256",
          "name": "advance_pay_dt",
          "type": "uint256"
        },
        {
          "internalType": "uint256",
          "name": "advance_pay_amt",
          "type": "uint256"
        }
      ],
      "name": "payAdvance",
      "outputs": [],
      "stateMutability": "nonpayable",
      "type": "function"
    },
    {
      "inputs": [
        {
          "internalType": "uint256",
          "name": "contract_idx",
          "type": "uint256"
        },
        {
          "internalType": "uint256",
          "name": "settle_idx",
          "type": "uint256"
        },
        {
          "internalType": "uint256",
          "name": "settle_pay_dt",
          "type": "uint256"
        },
        {
          "internalType": "int256",
          "name": "settle_pay_amt",
          "type": "int256"
        },
        {
          "internalType": "string",
          "name": "dispute_reason",
          "type": "string"
        }
      ],
      "name": "postSettlement",
      "outputs": [],
      "stateMutability": "nonpayable",
      "type": "function"
    },
    {
      "inputs": [
        {
          "internalType": "uint256",
          "name": "contract_idx",
          "type": "uint256"
        },
        {
          "internalType": "uint256",
          "name": "settle_idx",
          "type": "uint256"
        },
        {
          "internalType": "uint256",
          "name": "residual_pay_dt",
          "type": "uint256"
        },
        {
          "internalType": "int256",
          "name": "residual_pay_amt",
          "type": "int256"
        }
      ],
      "name": "payResidual",
      "outputs": [],
      "stateMutability": "nonpayable",
      "type": "function"
    },
    {
      "inputs": [
        {
          "components": [
            {
              "internalType": "string",
              "name": "extended_data",
              "type": "string"
            },
            {
              "internalType": "string",
              "name": "contract_name",
              "type": "string"
            },
            {
              "internalType": "string",
              "name": "contract_type",
              "type": "string"
            },
            {
              "internalType": "string",
              "name": "funding_instr",
              "type": "string"
            },
            {
              "internalType": "string",
              "name": "deposit_instr",
              "type": "string"
            },
            {
              "internalType": "uint256",
              "name": "service_fee_pct",
              "type": "uint256"
            },
            {
              "internalType": "uint256",
              "name": "service_fee_max",
              "type": "uint256"
            },
            {
              "internalType": "int256",
              "name": "service_fee_amt",
              "type": "int256"
            },
            {
              "internalType": "uint256",
              "name": "advance_pct",
              "type": "uint256"
            },
            {
              "internalType": "uint256",
              "name": "late_fee_pct",
              "type": "uint256"
            },
            {
              "internalType": "string",
              "name": "transact_logic",
              "type": "string"
            },
            {
              "internalType": "int256",
              "name": "min_threshold",
              "type": "int256"
            },
            {
              "internalType": "int256",
              "name": "max_threshold",
              "type": "int256"
            },
            {
              "internalType": "string",
              "name": "notes",
              "type": "string"
            },
            {
              "internalType": "bool",
              "name": "is_active",
              "type": "bool"
            },
            {
              "internalType": "bool",
              "name": "is_quote",
              "type": "bool"
            }
          ],
          "internalType": "struct Delivery.Contract",
          "name": "contract_",
          "type": "tuple"
        }
      ],
      "name": "importContract",
      "outputs": [],
      "stateMutability": "nonpayable",
      "type": "function"
    },
    {
      "inputs": [
        {
          "internalType": "uint256",
          "name": "contract_idx",
          "type": "uint256"
        },
        {
          "components": [
            {
              "internalType": "string",
              "name": "party_code",
              "type": "string"
            },
            {
              "internalType": "address",
              "name": "party_addr",
              "type": "address"
            },
            {
              "internalType": "string",
              "name": "party_type",
              "type": "string"
            }
          ],
          "internalType": "struct Delivery.Party",
          "name": "party",
          "type": "tuple"
        }
      ],
      "name": "importParty",
      "outputs": [],
      "stateMutability": "nonpayable",
      "type": "function"
    },
    {
      "inputs": [
        {
          "internalType": "uint256",
          "name": "contract_idx",
          "type": "uint256"
        },
        {
          "components": [
            {
              "internalType": "string",
              "name": "extended_data",
              "type": "string"
            },
            {
              "internalType": "uint256",
              "name": "settle_due_dt",
              "type": "uint256"
            },
            {
              "internalType": "uint256",
              "name": "transact_min_dt",
              "type": "uint256"
            },
            {
              "internalType": "uint256",
              "name": "transact_max_dt",
              "type": "uint256"
            },
            {
              "internalType": "uint256",
              "name": "transact_count",
              "type": "uint256"
            },
            {
              "internalType": "int256",
              "name": "advance_amt",
              "type": "int256"
            },
            {
              "internalType": "int256",
              "name": "advance_amt_gross",
              "type": "int256"
            },
            {
              "internalType": "uint256",
              "name": "settle_pay_dt",
              "type": "uint256"
            },
            {
              "internalType": "int256",
              "name": "settle_exp_amt",
              "type": "int256"
            },
            {
              "internalType": "int256",
              "name": "settle_pay_amt",
              "type": "int256"
            },
            {
              "internalType": "int256",
              "name": "dispute_amt",
              "type": "int256"
            },
            {
              "internalType": "string",
              "name": "dispute_reason",
              "type": "string"
            },
            {
              "internalType": "uint256",
              "name": "days_late",
              "type": "uint256"
            },
            {
              "internalType": "int256",
              "name": "late_fee_amt",
              "type": "int256"
            },
            {
              "internalType": "uint256",
              "name": "residual_pay_dt",
              "type": "uint256"
            },
            {
              "internalType": "int256",
              "name": "residual_pay_amt",
              "type": "int256"
            },
            {
              "internalType": "int256",
              "name": "residual_exp_amt",
              "type": "int256"
            },
            {
              "internalType": "int256",
              "name": "residual_calc_amt",
              "type": "int256"
            }
          ],
          "internalType": "struct Delivery.Settlement",
          "name": "settlement",
          "type": "tuple"
        }
      ],
      "name": "importSettlement",
      "outputs": [],
      "stateMutability": "nonpayable",
      "type": "function"
    },
    {
      "inputs": [
        {
          "internalType": "uint256",
          "name": "contract_idx",
          "type": "uint256"
        },
        {
          "components": [
            {
              "internalType": "string",
              "name": "extended_data",
              "type": "string"
            },
            {
              "internalType": "uint256",
              "name": "transact_dt",
              "type": "uint256"
            },
            {
              "internalType": "int256",
              "name": "transact_amt",
              "type": "int256"
            },
            {
              "internalType": "int256",
              "name": "service_fee_amt",
              "type": "int256"
            },
            {
              "internalType": "int256",
              "name": "advance_amt",
              "type": "int256"
            },
            {
              "internalType": "string",
              "name": "transact_data",
              "type": "string"
            },
            {
              "internalType": "uint256",
              "name": "advance_pay_dt",
              "type": "uint256"
            },
            {
              "internalType": "uint256",
              "name": "advance_pay_amt",
              "type": "uint256"
            }
          ],
          "internalType": "struct Delivery.Transaction",
          "name": "transaction",
          "type": "tuple"
        }
      ],
      "name": "importTransaction",
      "outputs": [],
      "stateMutability": "nonpayable",
      "type": "function"
    },
    {
      "inputs": [
        {
          "internalType": "uint256",
          "name": "contract_idx",
          "type": "uint256"
        },
        {
          "components": [
            {
              "internalType": "string",
              "name": "doc_title",
              "type": "string"
            },
            {
              "internalType": "string",
              "name": "doc_type",
              "type": "string"
            },
            {
              "internalType": "uint256",
              "name": "added_dt",
              "type": "uint256"
            },
            {
              "internalType": "string",
              "name": "s3_bucket",
              "type": "string"
            },
            {
              "internalType": "string",
              "name": "s3_object_key",
              "type": "string"
            },
            {
              "internalType": "string",
              "name": "s3_version_id",
              "type": "string"
            }
          ],
          "internalType": "struct Delivery.Artifact",
          "name": "artifact",
          "type": "tuple"
        }
      ],
      "name": "importArtifact",
      "outputs": [],
      "stateMutability": "nonpayable",
      "type": "function"
    }
  ],
  "bytecode": "0x608060405234801561001057600080fd5b5061581180620000216000396000f3fe608060405234801561001057600080fd5b50600436106101c45760003560e01c80636e72ae88116100f9578063a360b3fb11610097578063c6bbcc9011610071578063c6bbcc90146103d4578063d3113412146103e7578063f633db9314610407578063fcf45c0f1461041a576101c4565b8063a360b3fb1461039b578063a3995295146103ae578063bcac5bca146103c1576101c4565b806372d14260116100d357806372d142601461034b5780638da5cb5b1461035e5780639399869d14610373578063a2a7892914610388576101c4565b80636e72ae88146103055780636ebc8c861461031857806370c7855514610338576101c4565b806346f920fd116101665780635f9ebade116101405780635f9ebade146102b957806364da0a33146102cc5780636893d336146102df5780636e449c2b146102f2576101c4565b806346f920fd146102665780635742177c146102865780635b4e97e7146102a6576101c4565b80632cd819e0116101a25780632cd819e01461020457806336d56a601461021757806338ad4fa71461022a578063447fe2891461023d576101c4565b806311ef56de146101c95780631f986a37146101de57806326196460146101f1575b600080fd5b6101dc6101d736600461447d565b61042d565b005b6101dc6101ec366004614443565b610495565b6101dc6101ff36600461486a565b610609565b6101dc610212366004614ab3565b61072f565b6101dc610225366004614a92565b610808565b6101dc610238366004614573565b610a83565b61025061024b36600461447d565b610dd6565b60405161025d9190614cbd565b60405180910390f35b61027961027436600461447d565b610f9c565b60405161025d9190614d46565b61029961029436600461447d565b6111e0565b60405161025d9190614e6a565b6101dc6102b436600461447d565b6113c0565b6101dc6102c7366004614443565b611414565b6101dc6102da36600461479f565b6115b4565b6101dc6102ed36600461447d565b611672565b6101dc610300366004614a92565b6116fe565b6101dc61031336600461479f565b611907565b61032b61032636600461447d565b6119a9565b60405161025d919061538f565b6101dc61034636600461475b565b611e78565b6101dc610359366004614ae4565b6129c7565b610366613069565b60405161025d9190614bca565b61037b613078565b60405161025d91906154f3565b6101dc6103963660046145f0565b61307e565b6101dc6103a93660046149b9565b6131f6565b6101dc6103bc36600461464f565b6132ae565b6101dc6103cf366004614ab3565b613381565b6101dc6103e2366004614495565b61344c565b6103fa6103f536600461447d565b613580565b60405161025d9190614bde565b6101dc61041536600461447d565b6138e3565b6101dc61042836600461447d565b613937565b60015481106104575760405162461bcd60e51b815260040161044e90614f98565b60405180910390fd5b600081815260046020526040812061046e91613d2f565b806000805160206157bc83398151915260405161048a906151b2565b60405180910390a250565b600180548082018255600091909152815180518392600f027fb10e2d527612073b26eecdfd717e6a320cf44b4afac2b0732d9fcbe2b7fa0cf601916104df91839160200190613d53565b5060208281015180516104f89260018501920190613d53565b5060408201518051610514916002840191602090910190613d53565b5060608201518051610530916003840191602090910190613d53565b506080820151805161054c916004840191602090910190613d53565b5060a0820151600582015560c0820151600682015560e0820151600782015561010082015160088201556101208201516009820155610140820151805161059d91600a840191602090910190613d53565b50610160820151600b820155610180820151600c8201556101a082015180516105d091600d840191602090910190613d53565b506101c0820151600e90910180546101e09093015115156101000261ff001992151560ff19909416939093179190911691909117905550565b600154821061062a5760405162461bcd60e51b815260040161044e90614f98565b600082815260026020908152604082208054600181018255908352918190208351805185946012029092019261066592849290910190613d53565b50602082810151600183015560408301516002830155606083015160038301556080830151600483015560a0830151600583015560c0830151600683015560e0830151600783015561010083015160088301556101208301516009830155610140830151600a83015561016083015180516106e692600b8501920190613d53565b5061018082015181600c01556101a082015181600d01556101c082015181600e01556101e082015181600f01556102008201518160100155610220820151816011015550505050565b60015484106107505760405162461bcd60e51b815260040161044e90614f98565b600084815260026020526040902080548391908590811061078157634e487b7160e01b600052603260045260246000fd5b9060005260206000209060120201600e0181905550806002600086815260200190815260200160002084815481106107c957634e487b7160e01b600052603260045260246000fd5b9060005260206000209060120201600f0181905550836000805160206157bc8339815191526040516107fa9061509d565b60405180910390a250505050565b60015482106108295760405162461bcd60e51b815260040161044e90614f98565b60008281526004602052604090205481106108565760405162461bcd60e51b815260040161044e90615037565b805b600083815260046020526040902054610873906001906156c6565b8110156109bf576000838152600460205260409020610893826001615566565b815481106108b157634e487b7160e01b600052603260045260246000fd5b90600052602060002090600602016004600085815260200190815260200160002082815481106108f157634e487b7160e01b600052603260045260246000fd5b9060005260206000209060060201600082018160000190805461091390615709565b61091e929190613dd7565b50600182018160010190805461093390615709565b61093e929190613dd7565b5060028201548160020155600382018160030190805461095d90615709565b610968929190613dd7565b50600482018160040190805461097d90615709565b610988929190613dd7565b50600582018160050190805461099d90615709565b6109a8929190613dd7565b5090505080806109b790615744565b915050610858565b5060008281526004602052604090208054806109eb57634e487b7160e01b600052603160045260246000fd5b60008281526020812060001990920191600683020190610a0b8282613e52565b610a19600183016000613e52565b6002820160009055600382016000610a319190613e52565b610a3f600483016000613e52565b610a4d600583016000613e52565b50509055816000805160206157bc833981519152610a6a8361398b565b604051610a77919061510b565b60405180910390a25050565b6001548510610aa45760405162461bcd60e51b815260040161044e90614f98565b610aac613e8e565b848152602081018490526040810183905260a081018290526000808080805b60008b815260026020526040902054811015610cd45760008b8152600260205260408120805483908110610b0f57634e487b7160e01b600052603260045260246000fd5b9060005260206000209060120201905080600201548a10158015610b36575080600301548a105b15610cc1576000891315610c2f5760018c81548110610b6557634e487b7160e01b600052603260045260246000fd5b90600052602060002090600f0201600701546127108a60018f81548110610b9c57634e487b7160e01b600052603260045260246000fd5b90600052602060002090600f020160050154610bb89190615668565b610bc291906155d1565b610bcc9190615525565b925061271060018d81548110610bf257634e487b7160e01b600052603260045260246000fd5b90600052602060002090600f0201600801548a610c0f9190615668565b610c1991906155d1565b9350828412610c2f57610c2c8385615687565b94505b88816008016000828254610c439190615525565b9250508190555084816005016000828254610c5e9190615525565b9250508190555083816006016000828254610c799190615525565b909155505060068101546008820154610c929190615687565b6010820155600481018054906000610ca983615744565b90915550506080870185905260608701839052600195505b5080610ccc81615744565b915050610acb565b508315610da55760008a8152600360209081526040822080546001810182559083529181902087518051899460080290920192610d1692849290910190613d53565b50602082810151600183015560408301516002830155606083015160038301556080830151600483015560a08301518051610d579260058501920190613d53565b5060c0820151816006015560e082015181600701555050896000805160206157bc833981519152610d8b876020015161398b565b604051610d989190614f20565b60405180910390a2610dca565b896000805160206157bc833981519152604051610dc190615330565b60405180910390a25b50505050505050505050565b6001546060908210610dfa5760405162461bcd60e51b815260040161044e90614f98565b600082815260056020908152604080832080548251818502810185019093528083529193909284015b82821015610f905783829060005260206000209060030201604051806060016040529081600082018054610e5690615709565b80601f0160208091040260200160405190810160405280929190818152602001828054610e8290615709565b8015610ecf5780601f10610ea457610100808354040283529160200191610ecf565b820191906000526020600020905b815481529060010190602001808311610eb257829003601f168201915b505050918352505060018201546001600160a01b03166020820152600282018054604090920191610eff90615709565b80601f0160208091040260200160405190810160405280929190818152602001828054610f2b90615709565b8015610f785780601f10610f4d57610100808354040283529160200191610f78565b820191906000526020600020905b815481529060010190602001808311610f5b57829003601f168201915b50505050508152505081526020019060010190610e23565b5050505090505b919050565b6001546060908210610fc05760405162461bcd60e51b815260040161044e90614f98565b600082815260026020908152604080832080548251818502810185019093528083529193909284015b82821015610f9057838290600052602060002090601202016040518061024001604052908160008201805461101d90615709565b80601f016020809104026020016040519081016040528092919081815260200182805461104990615709565b80156110965780601f1061106b57610100808354040283529160200191611096565b820191906000526020600020905b81548152906001019060200180831161107957829003601f168201915b50505050508152602001600182015481526020016002820154815260200160038201548152602001600482015481526020016005820154815260200160068201548152602001600782015481526020016008820154815260200160098201548152602001600a8201548152602001600b8201805461111390615709565b80601f016020809104026020016040519081016040528092919081815260200182805461113f90615709565b801561118c5780601f106111615761010080835404028352916020019161118c565b820191906000526020600020905b81548152906001019060200180831161116f57829003601f168201915b50505050508152602001600c8201548152602001600d8201548152602001600e8201548152602001600f82015481526020016010820154815260200160118201548152505081526020019060010190610fe9565b60015460609082106112045760405162461bcd60e51b815260040161044e90614f98565b600082815260036020908152604080832080548251818502810185019093528083529193909284015b82821015610f9057838290600052602060002090600802016040518061010001604052908160008201805461126190615709565b80601f016020809104026020016040519081016040528092919081815260200182805461128d90615709565b80156112da5780601f106112af576101008083540402835291602001916112da565b820191906000526020600020905b8154815290600101906020018083116112bd57829003601f168201915b505050505081526020016001820154815260200160028201548152602001600382015481526020016004820154815260200160058201805461131b90615709565b80601f016020809104026020016040519081016040528092919081815260200182805461134790615709565b80156113945780601f1061136957610100808354040283529160200191611394565b820191906000526020600020905b81548152906001019060200180831161137757829003601f168201915b50505050508152602001600682015481526020016007820154815250508152602001906001019061122d565b60015481106113e15760405162461bcd60e51b815260040161044e90614f98565b60008181526002602052604081206113f891613ed3565b806000805160206157bc83398151915260405161048a90615285565b600180548082018255600091909152815180518392600f027fb10e2d527612073b26eecdfd717e6a320cf44b4afac2b0732d9fcbe2b7fa0cf6019161145e91839160200190613d53565b5060208281015180516114779260018501920190613d53565b5060408201518051611493916002840191602090910190613d53565b50606082015180516114af916003840191602090910190613d53565b50608082015180516114cb916004840191602090910190613d53565b5060a0820151600582015560c0820151600682015560e0820151600782015561010082015160088201556101208201516009820155610140820151805161151c91600a840191602090910190613d53565b50610160820151600b820155610180820151600c8201556101a0820151805161154f91600d840191602090910190613d53565b506101c0820151600e90910180546101e09093015115156101000261ff001992151560ff1990941693909317919091169190911790556001805461159391906156c6565b6000805160206157bc833981519152826020015160405161048a9190614f61565b60015482106115d55760405162461bcd60e51b815260040161044e90614f98565b600082815260056020908152604082208054600181018255908352918190208351805185946003029092019261161092849290910190613d53565b506020828101516001830180546001600160a01b0319166001600160a01b039092169190911790556040830151805161164f9260028501920190613d53565b505081516040518492506000805160206157bc83398151915291610a7791615251565b60015481106116935760405162461bcd60e51b815260040161044e90614f98565b6000600182815481106116b657634e487b7160e01b600052603260045260246000fd5b60009182526020909120600f90910201600e01805460ff1916911515919091179055806000805160206157bc8339815191526116f18261398b565b60405161048a91906152c0565b600154821061171f5760405162461bcd60e51b815260040161044e90614f98565b600082815260056020526040902054811061174c5760405162461bcd60e51b815260040161044e906151eb565b805b600083815260056020526040902054611769906001906156c6565b811015611871576000838152600560205260409020611789826001615566565b815481106117a757634e487b7160e01b600052603260045260246000fd5b90600052602060002090600302016005600085815260200190815260200160002082815481106117e757634e487b7160e01b600052603260045260246000fd5b9060005260206000209060030201600082018160000190805461180990615709565b611814929190613dd7565b5060018281015490820180546001600160a01b0319166001600160a01b03909216919091179055600280830180549183019161184f90615709565b61185a929190613dd7565b50905050808061186990615744565b91505061174e565b50600082815260056020526040902080548061189d57634e487b7160e01b600052603160045260246000fd5b600082815260208120600019909201916003830201906118bd8282613e52565b6001820180546001600160a01b03191690556118dd600283016000613e52565b50509055816000805160206157bc8339815191526118fa8361398b565b604051610a779190615067565b60015482106119285760405162461bcd60e51b815260040161044e90614f98565b600082815260056020908152604082208054600181018255908352918190208351805185946003029092019261196392849290910190613d53565b506020828101516001830180546001600160a01b0319166001600160a01b03909216919091179055604083015180516119a29260028501920190613d53565b5050505050565b6119b1613ef4565b60015482106119d25760405162461bcd60e51b815260040161044e90614f98565b600182815481106119f357634e487b7160e01b600052603260045260246000fd5b90600052602060002090600f020160405180610200016040529081600082018054611a1d90615709565b80601f0160208091040260200160405190810160405280929190818152602001828054611a4990615709565b8015611a965780601f10611a6b57610100808354040283529160200191611a96565b820191906000526020600020905b815481529060010190602001808311611a7957829003601f168201915b50505050508152602001600182018054611aaf90615709565b80601f0160208091040260200160405190810160405280929190818152602001828054611adb90615709565b8015611b285780601f10611afd57610100808354040283529160200191611b28565b820191906000526020600020905b815481529060010190602001808311611b0b57829003601f168201915b50505050508152602001600282018054611b4190615709565b80601f0160208091040260200160405190810160405280929190818152602001828054611b6d90615709565b8015611bba5780601f10611b8f57610100808354040283529160200191611bba565b820191906000526020600020905b815481529060010190602001808311611b9d57829003601f168201915b50505050508152602001600382018054611bd390615709565b80601f0160208091040260200160405190810160405280929190818152602001828054611bff90615709565b8015611c4c5780601f10611c2157610100808354040283529160200191611c4c565b820191906000526020600020905b815481529060010190602001808311611c2f57829003601f168201915b50505050508152602001600482018054611c6590615709565b80601f0160208091040260200160405190810160405280929190818152602001828054611c9190615709565b8015611cde5780601f10611cb357610100808354040283529160200191611cde565b820191906000526020600020905b815481529060010190602001808311611cc157829003601f168201915b505050505081526020016005820154815260200160068201548152602001600782015481526020016008820154815260200160098201548152602001600a82018054611d2990615709565b80601f0160208091040260200160405190810160405280929190818152602001828054611d5590615709565b8015611da25780601f10611d7757610100808354040283529160200191611da2565b820191906000526020600020905b815481529060010190602001808311611d8557829003601f168201915b50505050508152602001600b8201548152602001600c8201548152602001600d82018054611dcf90615709565b80601f0160208091040260200160405190810160405280929190818152602001828054611dfb90615709565b8015611e485780601f10611e1d57610100808354040283529160200191611e48565b820191906000526020600020905b815481529060010190602001808311611e2b57829003601f168201915b5050509183525050600e919091015460ff8082161515602084015261010090910416151560409091015292915050565b6001548210611e995760405162461bcd60e51b815260040161044e90614f98565b611f88826040518060400160405280600d81526020016c657874656e6465645f6461746160981b81525060018581548110611ee457634e487b7160e01b600052603260045260246000fd5b90600052602060002090600f02016000018054611f0090615709565b80601f0160208091040260200160405190810160405280929190818152602001828054611f2c90615709565b8015611f795780601f10611f4e57610100808354040283529160200191611f79565b820191906000526020600020905b815481529060010190602001808311611f5c57829003601f168201915b50505050508460000151613ad0565b612077826040518060400160405280600d81526020016c636f6e74726163745f6e616d6560981b81525060018581548110611fd357634e487b7160e01b600052603260045260246000fd5b90600052602060002090600f02016001018054611fef90615709565b80601f016020809104026020016040519081016040528092919081815260200182805461201b90615709565b80156120685780601f1061203d57610100808354040283529160200191612068565b820191906000526020600020905b81548152906001019060200180831161204b57829003601f168201915b50505050508460200151613ad0565b612166826040518060400160405280600d81526020016c636f6e74726163745f7479706560981b815250600185815481106120c257634e487b7160e01b600052603260045260246000fd5b90600052602060002090600f020160020180546120de90615709565b80601f016020809104026020016040519081016040528092919081815260200182805461210a90615709565b80156121575780601f1061212c57610100808354040283529160200191612157565b820191906000526020600020905b81548152906001019060200180831161213a57829003601f168201915b50505050508460400151613ad0565b612255826040518060400160405280600d81526020016c333ab73234b733afb4b739ba3960991b815250600185815481106121b157634e487b7160e01b600052603260045260246000fd5b90600052602060002090600f020160030180546121cd90615709565b80601f01602080910402602001604051908101604052809291908181526020018280546121f990615709565b80156122465780601f1061221b57610100808354040283529160200191612246565b820191906000526020600020905b81548152906001019060200180831161222957829003601f168201915b50505050508460600151613ad0565b612344826040518060400160405280600d81526020016c3232b837b9b4ba2fb4b739ba3960991b815250600185815481106122a057634e487b7160e01b600052603260045260246000fd5b90600052602060002090600f020160040180546122bc90615709565b80601f01602080910402602001604051908101604052809291908181526020018280546122e890615709565b80156123355780601f1061230a57610100808354040283529160200191612335565b820191906000526020600020905b81548152906001019060200180831161231857829003601f168201915b50505050508460800151613ad0565b6123bd826040518060400160405280600f81526020016e1cd95c9d9a58d957d9995957dc18dd608a1b8152506123ab6001868154811061239457634e487b7160e01b600052603260045260246000fd5b90600052602060002090600f02016005015461398b565b6123b88560a0015161398b565b613ad0565b612431826040518060400160405280600f81526020016e0e6cae4ecd2c6cabecccacabedac2f608b1b8152506124246001868154811061240d57634e487b7160e01b600052603260045260246000fd5b90600052602060002090600f02016006015461398b565b6123b88560c0015161398b565b6124a5826040518060400160405280600f81526020016e1cd95c9d9a58d957d9995957d85b5d608a1b8152506124986001868154811061248157634e487b7160e01b600052603260045260246000fd5b90600052602060002090600f020160070154613b2a565b6123b88560e00151613b2a565b612516826040518060400160405280600b81526020016a18591d985b98d957dc18dd60aa1b815250612508600186815481106124f157634e487b7160e01b600052603260045260246000fd5b90600052602060002090600f02016008015461398b565b6123b885610100015161398b565b612588826040518060400160405280600c81526020016b1b185d1957d9995957dc18dd60a21b81525061257a6001868154811061256357634e487b7160e01b600052603260045260246000fd5b90600052602060002090600f02016009015461398b565b6123b885610120015161398b565b612679826040518060400160405280600e81526020016d7472616e736163745f6c6f67696360901b815250600185815481106125d457634e487b7160e01b600052603260045260246000fd5b90600052602060002090600f0201600a0180546125f090615709565b80601f016020809104026020016040519081016040528092919081815260200182805461261c90615709565b80156126695780601f1061263e57610100808354040283529160200191612669565b820191906000526020600020905b81548152906001019060200180831161264c57829003601f168201915b5050505050846101400151613ad0565b61276182604051806040016040528060058152602001646e6f74657360d81b815250600185815481106126bc57634e487b7160e01b600052603260045260246000fd5b90600052602060002090600f0201600d0180546126d890615709565b80601f016020809104026020016040519081016040528092919081815260200182805461270490615709565b80156127515780601f1061272657610100808354040283529160200191612751565b820191906000526020600020905b81548152906001019060200180831161273457829003601f168201915b5050505050846101a00151613ad0565b6127d5826040518060400160405280600981526020016869735f61637469766560b81b8152506127c7600186815481106127ab57634e487b7160e01b600052603260045260246000fd5b60009182526020909120600e600f90920201015460ff16613ce1565b6123b8856101c00151613ce1565b612850826040518060400160405280600881526020016769735f71756f746560c01b8152506128426001868154811061281e57634e487b7160e01b600052603260045260246000fd5b90600052602060002090600f0201600e0160019054906101000a900460ff16613ce1565b6123b8856101e00151613ce1565b806001838154811061287257634e487b7160e01b600052603260045260246000fd5b90600052602060002090600f0201600082015181600001908051906020019061289c929190613d53565b5060208281015180516128b59260018501920190613d53565b50604082015180516128d1916002840191602090910190613d53565b50606082015180516128ed916003840191602090910190613d53565b5060808201518051612909916004840191602090910190613d53565b5060a0820151600582015560c0820151600682015560e0820151600782015561010082015160088201556101208201516009820155610140820151805161295a91600a840191602090910190613d53565b50610160820151600b820155610180820151600c8201556101a0820151805161298d91600d840191602090910190613d53565b506101c0820151600e90910180546101e09093015115156101000261ff001992151560ff1990941693909317919091169190911790555050565b60015485106129e85760405162461bcd60e51b815260040161044e90614f98565b6000858152600260205260409020805484919086908110612a1957634e487b7160e01b600052603260045260246000fd5b90600052602060002090601202016007018190555081600260008781526020019081526020016000208581548110612a6157634e487b7160e01b600052603260045260246000fd5b906000526020600020906012020160090181905550600260008681526020019081526020016000208481548110612aa857634e487b7160e01b600052603260045260246000fd5b906000526020600020906012020160010154831115612cc4576018603c80600260008981526020019081526020016000208781548110612af857634e487b7160e01b600052603260045260246000fd5b90600052602060002090601202016001015486612b1591906156c6565b612b1f91906155d1565b612b2991906155d1565b612b3391906155d1565b6000868152600260205260409020805486908110612b6157634e487b7160e01b600052603260045260246000fd5b9060005260206000209060120201600c01819055506000600260008781526020019081526020016000208581548110612baa57634e487b7160e01b600052603260045260246000fd5b9060005260206000209060120201600c01549050600060018781548110612be157634e487b7160e01b600052603260045260246000fd5b90600052602060002090600f02016009015490506000600260008981526020019081526020016000208781548110612c2957634e487b7160e01b600052603260045260246000fd5b9060005260206000209060120201600801549050633b9aca008161016d84620186a0612c5591906155e5565b612c5f91906155a3565b612c6990866155e5565b612c7391906155e5565b612c7d91906155a3565b6000898152600260205260409020805489908110612cab57634e487b7160e01b600052603260045260246000fd5b9060005260206000209060120201600d01819055505050505b6000858152600260205260409020805485908110612cf257634e487b7160e01b600052603260045260246000fd5b906000526020600020906012020160080154821215612df4576000858152600260205260409020805483919086908110612d3c57634e487b7160e01b600052603260045260246000fd5b906000526020600020906012020160080154612d589190615687565b6000868152600260205260409020805486908110612d8657634e487b7160e01b600052603260045260246000fd5b9060005260206000209060120201600a018190555080600260008781526020019081526020016000208581548110612dce57634e487b7160e01b600052603260045260246000fd5b9060005260206000209060120201600b019080519060200190612df2929190613d53565b505b6000858152600260205260408120805486908110612e2257634e487b7160e01b600052603260045260246000fd5b9060005260206000209060120201600a0154600260008881526020019081526020016000208681548110612e6657634e487b7160e01b600052603260045260246000fd5b9060005260206000209060120201600d0154600260008981526020019081526020016000208781548110612eaa57634e487b7160e01b600052603260045260246000fd5b906000526020600020906012020160100154612ec69190615687565b612ed09190615687565b1315612ffa576000858152600260205260409020805485908110612f0457634e487b7160e01b600052603260045260246000fd5b9060005260206000209060120201600a0154600260008781526020019081526020016000208581548110612f4857634e487b7160e01b600052603260045260246000fd5b9060005260206000209060120201600d0154600260008881526020019081526020016000208681548110612f8c57634e487b7160e01b600052603260045260246000fd5b906000526020600020906012020160100154612fa89190615687565b612fb29190615687565b6000868152600260205260409020805486908110612fe057634e487b7160e01b600052603260045260246000fd5b90600052602060002090601202016011018190555061303e565b600085815260026020526040812080548690811061302857634e487b7160e01b600052603260045260246000fd5b9060005260206000209060120201601101819055505b846000805160206157bc83398151915260405161305a90615144565b60405180910390a25050505050565b6000546001600160a01b031681565b60015490565b600154851061309f5760405162461bcd60e51b815260040161044e90614f98565b6130a7613f75565b60208082018590526040808301859052606083018490528683526000888152600283529081208054600181018255908252908290208351805185946012909402909201926130fa92849290910190613d53565b50602082810151600183015560408301516002830155606083015160038301556080830151600483015560a0830151600583015560c0830151600683015560e0830151600783015561010083015160088301556101208301516009830155610140830151600a830155610160830151805161317b92600b8501920190613d53565b5061018082015181600c01556101a082015181600d01556101c082015181600e01556101e082015181600f0155610200820151816010015561022082015181601101555050856000805160206157bc8339815191526131d98661398b565b6040516131e69190615218565b60405180910390a2505050505050565b60015482106132175760405162461bcd60e51b815260040161044e90614f98565b600082815260036020908152604082208054600181018255908352918190208351805185946008029092019261325292849290910190613d53565b50602082810151600183015560408301516002830155606083015160038301556080830151600483015560a083015180516132939260058501920190613d53565b5060c0820151816006015560e0820151816007015550505050565b60015482106132cf5760405162461bcd60e51b815260040161044e90614f98565b600082815260046020908152604082208054600181018255908352918190208351805185946006029092019261330a92849290910190613d53565b5060208281015180516133239260018501920190613d53565b506040820151600282015560608201518051613349916003840191602090910190613d53565b5060808201518051613365916004840191602090910190613d53565b5060a082015180516119a2916005840191602090910190613d53565b60015484106133a25760405162461bcd60e51b815260040161044e90614f98565b60008481526003602052604090208054839190859081106133d357634e487b7160e01b600052603260045260246000fd5b9060005260206000209060080201600601819055508060036000868152602001908152602001600020848154811061341b57634e487b7160e01b600052603260045260246000fd5b906000526020600020906008020160070181905550836000805160206157bc8339815191526040516107fa90615004565b600154871061346d5760405162461bcd60e51b815260040161044e90614f98565b613475614000565b86815260208082018790526040808301879052606083018690526080830185905260a0830184905260008a8152600483529081208054600181018255908252908290208351805185946006909402909201926134d692849290910190613d53565b5060208281015180516134ef9260018501920190613d53565b506040820151600282015560608201518051613515916003840191602090910190613d53565b5060808201518051613531916004840191602090910190613d53565b5060a0820151805161354d916005840191602090910190613d53565b505050876000805160206157bc8339815191528860405161356e91906152f9565b60405180910390a25050505050505050565b60015460609082106135a45760405162461bcd60e51b815260040161044e90614f98565b600082815260046020908152604080832080548251818502810185019093528083529193909284015b82821015610f9057838290600052602060002090600602016040518060c001604052908160008201805461360090615709565b80601f016020809104026020016040519081016040528092919081815260200182805461362c90615709565b80156136795780601f1061364e57610100808354040283529160200191613679565b820191906000526020600020905b81548152906001019060200180831161365c57829003601f168201915b5050505050815260200160018201805461369290615709565b80601f01602080910402602001604051908101604052809291908181526020018280546136be90615709565b801561370b5780601f106136e05761010080835404028352916020019161370b565b820191906000526020600020905b8154815290600101906020018083116136ee57829003601f168201915b505050505081526020016002820154815260200160038201805461372e90615709565b80601f016020809104026020016040519081016040528092919081815260200182805461375a90615709565b80156137a75780601f1061377c576101008083540402835291602001916137a7565b820191906000526020600020905b81548152906001019060200180831161378a57829003601f168201915b505050505081526020016004820180546137c090615709565b80601f01602080910402602001604051908101604052809291908181526020018280546137ec90615709565b80156138395780601f1061380e57610100808354040283529160200191613839565b820191906000526020600020905b81548152906001019060200180831161381c57829003601f168201915b5050505050815260200160058201805461385290615709565b80601f016020809104026020016040519081016040528092919081815260200182805461387e90615709565b80156138cb5780601f106138a0576101008083540402835291602001916138cb565b820191906000526020600020905b8154815290600101906020018083116138ae57829003601f168201915b505050505081525050815260200190600101906135cd565b60015481106139045760405162461bcd60e51b815260040161044e90614f98565b600081815260056020526040812061391b91614036565b806000805160206157bc83398151915260405161048a9061517b565b60015481106139585760405162461bcd60e51b815260040161044e90614f98565b600081815260036020526040812061396f91614057565b806000805160206157bc83398151915260405161048a90614fc8565b6060816139b057506040805180820190915260018152600360fc1b6020820152610f97565b8160005b81156139da57806139c481615744565b91506139d39050600a836155d1565b91506139b4565b6000816001600160401b03811115613a0257634e487b7160e01b600052604160045260246000fd5b6040519080825280601f01601f191660200182016040528015613a2c576020820181803683370190505b509050815b8515613ac757613a426001826156c6565b90506000613a51600a886155d1565b613a5c90600a615668565b613a6690886156c6565b613a7190603061557e565b905060008160f81b905080848481518110613a9c57634e487b7160e01b600052603260045260246000fd5b60200101906001600160f81b031916908160001a905350613abe600a896155d1565b97505050613a31565b50949350505050565b8080519060200120828051906020012014613b2457836000805160206157bc833981519152848484604051602001613b0a93929190614b6a565b60408051601f19818403018152908290526107fa916150d2565b50505050565b606081613b4f57506040805180820190915260018152600360fc1b6020820152610f97565b60008083129080848315613b7657613b668161575f565b905082613b7281615744565b9350505b8091505b8115613ba05782613b8a81615744565b9350613b999050600a836155d1565b9150613b7a565b6000836001600160401b03811115613bc857634e487b7160e01b600052604160045260246000fd5b6040519080825280601f01601f191660200182016040528015613bf2576020820181803683370190505b5091925082919050835b8315613c9257613c0d6001826156c6565b90506000613c1c600a866155d1565b613c2790600a615668565b613c3190866156c6565b613c3c90603061557e565b905060008160f81b905080848481518110613c6757634e487b7160e01b600052603260045260246000fd5b60200101906001600160f81b031916908160001a905350613c89600a876155d1565b95505050613bfc565b8515613cd657602d60f81b82600081518110613cbe57634e487b7160e01b600052603260045260246000fd5b60200101906001600160f81b031916908160001a9053505b509695505050505050565b606081613d0b576040518060400160405280600581526020016466616c736560d81b815250613d29565b604051806040016040528060048152602001637472756560e01b8152505b92915050565b5080546000825560060290600052602060002090810190613d509190614078565b50565b828054613d5f90615709565b90600052602060002090601f016020900481019282613d815760008555613dc7565b82601f10613d9a57805160ff1916838001178555613dc7565b82800160010185558215613dc7579182015b82811115613dc7578251825591602001919060010190613dac565b50613dd39291506140d7565b5090565b828054613de390615709565b90600052602060002090601f016020900481019282613e055760008555613dc7565b82601f10613e165780548555613dc7565b82800160010185558215613dc757600052602060002091601f016020900482015b82811115613dc7578254825591600101919060010190613e37565b508054613e5e90615709565b6000825580601f10613e705750613d50565b601f016020900490600052602060002090810190613d5091906140d7565b60405180610100016040528060608152602001600081526020016000815260200160008152602001600081526020016060815260200160008152602001600081525090565b5080546000825560120290600052602060002090810190613d5091906140ec565b60405180610200016040528060608152602001606081526020016060815260200160608152602001606081526020016000815260200160008152602001600081526020016000815260200160008152602001606081526020016000815260200160008152602001606081526020016000151581526020016000151581525090565b6040518061024001604052806060815260200160008152602001600081526020016000815260200160008152602001600081526020016000815260200160008152602001600081526020016000815260200160008152602001606081526020016000815260200160008152602001600081526020016000815260200160008152602001600081525090565b6040518060c001604052806060815260200160608152602001600081526020016060815260200160608152602001606081525090565b5080546000825560030290600052602060002090810190613d509190614193565b5080546000825560080290600052602060002090810190613d5091906141d0565b80821115613dd357600061408c8282613e52565b61409a600183016000613e52565b60028201600090556003820160006140b29190613e52565b6140c0600483016000613e52565b6140ce600583016000613e52565b50600601614078565b5b80821115613dd357600081556001016140d8565b80821115613dd35760006141008282613e52565b600182016000905560028201600090556003820160009055600482016000905560058201600090556006820160009055600782016000905560088201600090556009820160009055600a820160009055600b820160006141609190613e52565b506000600c8201819055600d8201819055600e8201819055600f82018190556010820181905560118201556012016140ec565b80821115613dd35760006141a78282613e52565b6001820180546001600160a01b03191690556141c7600283016000613e52565b50600301614193565b80821115613dd35760006141e48282613e52565b60018201600090556002820160009055600382016000905560048201600090556005820160006142149190613e52565b5060006006820181905560078201556008016141d0565b80358015158114610f9757600080fd5b600082601f83011261424b578081fd5b81356001600160401b03811115614264576142646157a5565b614277601f8201601f19166020016154fc565b81815284602083860101111561428b578283fd5b816020850160208301379081016020019190915292915050565b60006102008083850312156142b8578182fd5b6142c1816154fc565b91505081356001600160401b03808211156142db57600080fd5b6142e78583860161423b565b835260208401359150808211156142fd57600080fd5b6143098583860161423b565b6020840152604084013591508082111561432257600080fd5b61432e8583860161423b565b6040840152606084013591508082111561434757600080fd5b6143538583860161423b565b6060840152608084013591508082111561436c57600080fd5b6143788583860161423b565b608084015260a0848101359084015260c0808501359084015260e0808501359084015261010080850135908401526101208085013590840152610140915081840135818111156143c757600080fd5b6143d38682870161423b565b92840192909252610160848101359084015261018080850135908401526101a09150818401358181111561440657600080fd5b6144128682870161423b565b838501525050506101c061442781840161422b565b908201526101e061443983820161422b565b9082015292915050565b600060208284031215614454578081fd5b81356001600160401b03811115614469578182fd5b614475848285016142a5565b949350505050565b60006020828403121561448e578081fd5b5035919050565b600080600080600080600060e0888a0312156144af578283fd5b8735965060208801356001600160401b03808211156144cc578485fd5b6144d88b838c0161423b565b975060408a01359150808211156144ed578485fd5b6144f98b838c0161423b565b965060608a0135955060808a0135915080821115614515578485fd5b6145218b838c0161423b565b945060a08a0135915080821115614536578384fd5b6145428b838c0161423b565b935060c08a0135915080821115614557578283fd5b506145648a828b0161423b565b91505092959891949750929550565b600080600080600060a0868803121561458a578283fd5b8535945060208601356001600160401b03808211156145a7578485fd5b6145b389838a0161423b565b9550604088013594506060880135935060808801359150808211156145d6578283fd5b506145e38882890161423b565b9150509295509295909350565b600080600080600060a08688031215614607578283fd5b8535945060208601356001600160401b03811115614623578384fd5b61462f8882890161423b565b959895975050505060408401359360608101359360809091013592509050565b60008060408385031215614661578182fd5b8235915060208301356001600160401b038082111561467e578283fd5b9084019060c08287031215614691578283fd5b61469b60c06154fc565b8235828111156146a9578485fd5b6146b58882860161423b565b8252506020830135828111156146c9578485fd5b6146d58882860161423b565b602083015250604083013560408201526060830135828111156146f6578485fd5b6147028882860161423b565b606083015250608083013582811115614719578485fd5b6147258882860161423b565b60808301525060a08301358281111561473c578485fd5b6147488882860161423b565b60a0830152508093505050509250929050565b6000806040838503121561476d578182fd5b8235915060208301356001600160401b03811115614789578182fd5b614795858286016142a5565b9150509250929050565b600080604083850312156147b1578182fd5b8235915060208301356001600160401b03808211156147ce578283fd5b90840190606082870312156147e1578283fd5b6040516060810181811083821117156147fc576147fc6157a5565b60405282358281111561480d578485fd5b6148198882860161423b565b82525060208301356001600160a01b0381168114614835578485fd5b602082015260408301358281111561484b578485fd5b6148578882860161423b565b6040830152508093505050509250929050565b6000806040838503121561487c578182fd5b8235915060208301356001600160401b0380821115614899578283fd5b81850191506102408083880312156148af578384fd5b6148b8816154fc565b90508235828111156148c8578485fd5b6148d48882860161423b565b8252506020830135602082015260408301356040820152606083013560608201526080830135608082015260a083013560a082015260c083013560c082015260e083013560e08201526101008084013581830152506101208084013581830152506101408084013581830152506101608084013583811115614954578586fd5b6149608982870161423b565b918301919091525061018083810135908201526101a080840135908201526101c080840135908201526101e080840135908201526102008084013590820152610220928301359281019290925250919491935090915050565b600080604083850312156149cb578182fd5b8235915060208301356001600160401b03808211156149e8578283fd5b81850191506101008083880312156149fe578384fd5b614a07816154fc565b9050823582811115614a17578485fd5b614a238882860161423b565b8252506020830135602082015260408301356040820152606083013560608201526080830135608082015260a083013582811115614a5f578485fd5b614a6b8882860161423b565b60a08301525060c083013560c082015260e083013560e08201528093505050509250929050565b60008060408385031215614aa4578182fd5b50508035926020909101359150565b60008060008060808587031215614ac8578182fd5b5050823594602084013594506040840135936060013592509050565b600080600080600060a08688031215614afb578283fd5b8535945060208601359350604086013592506060860135915060808601356001600160401b03811115614b2c578182fd5b6145e38882890161423b565b15159052565b60008151808452614b568160208601602086016156dd565b601f01601f19169290920160200192915050565b60008451614b7c8184602089016156dd565b601d60f91b9083019081528451614b9a8160018401602089016156dd565b61169f60f11b600192909101918201528351614bbd8160038401602088016156dd565b0160030195945050505050565b6001600160a01b0391909116815260200190565b60208082528251828201819052600091906040908185019080840286018301878501865b83811015614caf57603f19898403018552815160c08151818652614c2882870182614b3e565b915050888201518582038a870152614c408282614b3e565b915050878201518886015260608083015186830382880152614c628382614b3e565b9250505060808083015186830382880152614c7d8382614b3e565b9250505060a08083015192508582038187015250614c9b8183614b3e565b968901969450505090860190600101614c02565b509098975050505050505050565b60208082528251828201819052600091906040908185019080840286018301878501865b83811015614caf57603f19898403018552815160608151818652614d0782870182614b3e565b838b01516001600160a01b0316878c0152928901518684038a880152929150614d3290508183614b3e565b968901969450505090860190600101614ce1565b60208082528251828201819052600091906040908185019080840286018301878501865b83811015614caf57603f1989840301855281516102408151818652614d9182870182614b3e565b838b0151878c0152898401518a880152606080850151908801526080808501519088015260a0808501519088015260c0808501519088015260e0808501519088015261010080850151908801526101208085015190880152610140808501519088015261016080850151888303828a01529193509150614e118382614b3e565b61018085810151908901526101a080860151908901526101c080860151908901526101e0808601519089015261020080860151908901526102209485015194909701939093525050509386019390860190600101614d6a565b60208082528251828201819052600091906040908185019080840286018301878501865b83811015614caf57603f1989840301855281516101008151818652614eb582870182614b3e565b915050888201518986015287820151888601526060808301518187015250608080830151818701525060a08083015186830382880152614ef58382614b3e565b60c0858101519089015260e09485015194909701939093525050509386019390860190600101614e8e565b600060408252601060408301526f151c985b9cd858dd1a5bdb905919195960821b606083015260806020830152614f5a6080830184614b3e565b9392505050565b600060408252600d60408301526c10dbdb9d1c9858dd1059191959609a1b606083015260806020830152614f5a6080830184614b3e565b602080825260169082015275092dcecc2d8d2c840c6dedce8e4c2c6e840d2dcc8caf60531b604082015260600190565b604080825260139082015272151c985b9cd858dd1a5bdb9cd1195b195d1959606a1b606082015260806020820181905260009082015260a00190565b6040808252600a9082015269506179416476616e636560b01b606082015260806020820181905260009082015260a00190565b602080825260169082015275092dcecc2d8d2c840c2e4e8d2ccc2c6e840d2dcc8caf60531b604082015260600190565b600060408252600c60408301526b14185c9d1e51195b195d195960a21b606083015260806020830152614f5a6080830184614b3e565b6040808252600c908201526b14995cda591d585b14185a5960a21b606082015260806020820181905260009082015260a00190565b600060408252600f60408301526e10dbdb9d1c9858dd155c19185d1959608a1b606083015260806020830152614f5a6080830184614b3e565b600060408252600f60408301526e105c9d1a599858dd11195b195d1959608a1b606083015260806020830152614f5a6080830184614b3e565b6040808252600e908201526d141bdcdd14d95d1d1b195b595b9d60921b606082015260806020820181905260009082015260a00190565b6040808252600e908201526d14185c9d1a595cd1195b195d195960921b606082015260806020820181905260009082015260a00190565b60408082526010908201526f105c9d1a599858dd1cd1195b195d195960821b606082015260806020820181905260009082015260a00190565b602080825260139082015272092dcecc2d8d2c840e0c2e4e8f240d2dcc8caf606b1b604082015260600190565b600060408252600f60408301526e14d95d1d1b195b595b9d1059191959608a1b606083015260806020830152614f5a6080830184614b3e565b600060408252600a60408301526914185c9d1e505919195960b21b606083015260806020830152614f5a6080830184614b3e565b60408082526012908201527114d95d1d1b195b595b9d1cd1195b195d195960721b606082015260806020820181905260009082015260a00190565b600060408252600f60408301526e10dbdb9d1c9858dd11195b195d1959608a1b606083015260806020830152614f5a6080830184614b3e565b600060408252600d60408301526c105c9d1a599858dd1059191959609a1b606083015260806020830152614f5a6080830184614b3e565b60408082526010908201526f2a3930b739b0b1ba34b7b722b93937b960811b6060820152608060208201819052601a908201527f4e6f2076616c696420736574746c656d656e7420706572696f6400000000000060a082015260c00190565b60006020825282516102008060208501526153ae610220850183614b3e565b91506020850151601f19808685030160408701526153cc8483614b3e565b935060408701519150808685030160608701526153e98483614b3e565b935060608701519150808685030160808701526154068483614b3e565b935060808701519150808685030160a08701526154238483614b3e565b935060a087015160c087015260c087015160e087015260e087015191506101008281880152808801519250506101208281880152808801519250506101408281880152808801519250506101608187860301818801526154838584614b3e565b90880151610180888101919091528801516101a08089019190915288015187820383016101c0808a019190915291955092506154bf8584614b3e565b945080880151925050506101e06154d881870183614b38565b86015190506154e985830182614b38565b5090949350505050565b90815260200190565b6040518181016001600160401b038111828210171561551d5761551d6157a5565b604052919050565b600080821280156001600160ff1b038490038513161561554757615547615779565b600160ff1b839003841281161561556057615560615779565b50500190565b6000821982111561557957615579615779565b500190565b600060ff821660ff84168060ff0382111561559b5761559b615779565b019392505050565b6000826155b2576155b261578f565b600160ff1b8214600019841416156155cc576155cc615779565b500590565b6000826155e0576155e061578f565b500490565b60006001600160ff1b038184138284138082168684048611161561560b5761560b615779565b600160ff1b8487128281168783058912161561562957615629615779565b85871292508782058712848416161561564457615644615779565b8785058712818416161561565a5761565a615779565b505050929093029392505050565b600081600019048311821515161561568257615682615779565b500290565b60008083128015600160ff1b8501841216156156a5576156a5615779565b6001600160ff1b03840183138116156156c0576156c0615779565b50500390565b6000828210156156d8576156d8615779565b500390565b60005b838110156156f85781810151838201526020016156e0565b83811115613b245750506000910152565b60028104600182168061571d57607f821691505b6020821081141561573e57634e487b7160e01b600052602260045260246000fd5b50919050565b600060001982141561575857615758615779565b5060010190565b6000600160ff1b82141561577557615775615779565b0390565b634e487b7160e01b600052601160045260246000fd5b634e487b7160e01b600052601260045260246000fd5b634e487b7160e01b600052604160045260246000fdfe345796c5f37ac4d00f0bd7eebb6ba729df51ddd74dafb2db6bf0c4a4a354577aa2646970667358221220f13cde0a9e0e86770c3bc74b835181a125889019d8cfb7a8390fb221ab39722364736f6c63430008000033",
  "immutableReferences": {},
  "source": "// SPDX-License-Identifier: MIT\npragma solidity ^0.8.0;\n\ncontract Delivery {\n\n    address public owner;\n\n    Contract[] contracts;                                   // [contract_idx]\n    mapping (uint => Settlement[]) private settlements;     // contract_idx => settlement[]\n    mapping (uint => Transaction[]) private transactions;   // contract_idx => transaction[]\n    mapping (uint => Artifact[]) private artifacts;         // contract_idx => artifact_list[]\n    mapping (uint => Party[]) private parties;              // contract_idx => party[]\n\n    // every field ending in _dt is a unix timestamp\n    // every field ending in _amt is an integer representing a float with 2 decimals\n    // every field ending in _pct is an integer represending a float value with 4 decimals \n\n    struct Contract {\n        string extended_data;           // json extended data\n        string contract_name;           // description for display purposes\n        string contract_type;           // the type of contract, e.g. ticketing, construction\n        string funding_instr;           // funding instructions\n        string deposit_instr;           // deposit instructions\n        uint service_fee_pct;           // service fee pct <= service_fee_max\n        uint service_fee_max;           // maximum fee that can be charged if the rate is variable\n        int service_fee_amt;            // flat rate amt if not percentage based\n        uint advance_pct;               // amount of money that will be advanced to seller for every transaction\n        uint late_fee_pct;              // an APR, daily rate calculated as late_fee_pct / 365\n        string transact_logic;          // jsonlogic formula for calculating transaction amount\n        int min_threshold;              // minimum expected amount for a deliverable (could be negative)\n        int max_threshold;              // maximum expected amount for a deliverable\n        string notes;                   // contract notes, can be used for additonal data requests\n        bool is_active;                 // instead of deleting, clear this flag to False\n        bool is_quote;                  // true if still in the quote stage\n    }\n\n    struct Settlement {\n        string extended_data;           // json extended data\n        uint settle_due_dt;             // date the payment is due \n        uint transact_min_dt;           // min date the transaction is made \n        uint transact_max_dt;           // max date the transaction is made \n        uint transact_count;            // number of transactions in this current settlement period \n        int advance_amt;                // the dollar amount that was advanced in this period (net amt)\n        int advance_amt_gross;          // the dollar amount that was advanced in this period less fees\n        uint settle_pay_dt;             // when the settlement was paid\n        int settle_exp_amt;             // expected amount of settlement 0\n        int settle_pay_amt;             // actual amount paid from the buyer\n        int dispute_amt;                // if expected < actual, assume there was a dispute\n        string dispute_reason;          // if dispute_amt > 0, what was the reason (if provided)\n        uint days_late;                 // number of days late the payment was made\n        int late_fee_amt;               // amount of the late fee, will be taken out of the residual\n        uint residual_pay_dt;           // date and time the residual was paid\n        int residual_pay_amt;           // will equal residual_calc_amt after payment intitiated\n        int residual_exp_amt;           // expected amount of the residual\n        int residual_calc_amt;          // what the actual residual will be (exp - late_fee - dispute)\n    }\n\n    struct Transaction {\n        string extended_data;           // json extended data\n        uint transact_dt;               // date and time of the transaction\n        int transact_amt;               // calculated value of a transaction, negative if an adjustment\n        int service_fee_amt;            // calculated fee for a transaction\n        int advance_amt;                // advance_amt * advance_pct - service_fee_amt\n        string transact_data;           // data regarding transaction for jsonlogic    \n        uint advance_pay_dt;            // payment of advance\n        uint advance_pay_amt;           // will equal advance amt after payment initiated\n    }\n\n    struct Artifact {\n        string doc_title;               // Document title\n        string doc_type;                // Document type (e.g., \"application/pdf\")\n        uint added_dt;                  // Timestamp of when the artifact was added\n        string s3_bucket;               // S3 bucket name\n        string s3_object_key;           // S3 object key (full path to the document)\n        string s3_version_id;           // S3 version ID for versioned objects\n    }\n\n    struct Party {\n        string party_code;              // code associated with a party\n        address party_addr;             // wallet address\n        string party_type;              // the type of party associated with contract\n    }\n\n    event ContractEvent(uint indexed contract_idx, string eventType, string details);\n\n    function getContractCount() public view returns (uint) {\n        return contracts.length;\n    }\n\n    function getContract(uint contract_idx) public view returns (Contract memory) {\n        require(contract_idx < contracts.length, \"Invalid contract index\");\n        return contracts[contract_idx];\n    }\n\n    function addContract (Contract memory contract_) public {\n        contracts.push(contract_);\n        emit ContractEvent(contracts.length - 1, \"ContractAdded\", contract_.contract_name);\n    }\n\n    function logContractChange(uint contract_idx, string memory field, string memory old_value, string memory new_value) private {\n        if (keccak256(bytes(old_value)) != keccak256(bytes(new_value))) {\n            emit ContractEvent(contract_idx, \"ContractUpdated\", string(abi.encodePacked(field, \":\", old_value, \"->\", new_value)));\n        }\n    }\n\n    function updateContract (uint contract_idx, Contract memory contract_) public {\n        require(contract_idx < contracts.length, \"Invalid contract index\");\n        logContractChange(contract_idx, \"extended_data\", contracts[contract_idx].extended_data, contract_.extended_data);\n        logContractChange(contract_idx, \"contract_name\", contracts[contract_idx].contract_name, contract_.contract_name);\n        logContractChange(contract_idx, \"contract_type\", contracts[contract_idx].contract_type, contract_.contract_type);\n        logContractChange(contract_idx, \"funding_instr\", contracts[contract_idx].funding_instr, contract_.funding_instr);\n        logContractChange(contract_idx, \"deposit_instr\", contracts[contract_idx].deposit_instr, contract_.deposit_instr);\n        logContractChange(contract_idx, \"service_fee_pct\", uintToString(contracts[contract_idx].service_fee_pct), uintToString(contract_.service_fee_pct));\n        logContractChange(contract_idx, \"service_fee_max\", uintToString(contracts[contract_idx].service_fee_max), uintToString(contract_.service_fee_max));\n        logContractChange(contract_idx, \"service_fee_amt\", intToString(contracts[contract_idx].service_fee_amt), intToString(contract_.service_fee_amt));\n        logContractChange(contract_idx, \"advance_pct\", uintToString(contracts[contract_idx].advance_pct), uintToString(contract_.advance_pct));\n        logContractChange(contract_idx, \"late_fee_pct\", uintToString(contracts[contract_idx].late_fee_pct), uintToString(contract_.late_fee_pct));\n        logContractChange(contract_idx, \"transact_logic\", contracts[contract_idx].transact_logic, contract_.transact_logic);\n        logContractChange(contract_idx, \"notes\", contracts[contract_idx].notes, contract_.notes);\n        logContractChange(contract_idx, \"is_active\", boolToString(contracts[contract_idx].is_active), boolToString(contract_.is_active));\n        logContractChange(contract_idx, \"is_quote\", boolToString(contracts[contract_idx].is_quote), boolToString(contract_.is_quote));\n        contracts[contract_idx] = contract_;\n    }\n\n    // Mark a contract as inactive \n    function deleteContract(uint contract_idx) public {\n        require(contract_idx < contracts.length, \"Invalid contract index\");\n        contracts[contract_idx].is_active = false;\n        emit ContractEvent(contract_idx, \"ContractDeleted\", uintToString(contract_idx));\n    }\n\n    function getParties(uint contract_idx) public view returns (Party[] memory) {\n        require(contract_idx < contracts.length, \"Invalid contract index\");\n        return parties[contract_idx];\n    }\n\n    function addParty(uint contract_idx, Party memory party) public {\n        require(contract_idx < contracts.length, \"Invalid contract index\");\n        parties[contract_idx].push(party);\n        emit ContractEvent(contract_idx, \"PartyAdded\", party.party_code);\n    }\n\n    function deleteParty(uint contract_idx, uint party_idx) public {\n        require(contract_idx < contracts.length, \"Invalid contract index\");\n        require(party_idx < parties[contract_idx].length, \"Invalid party index\");\n\n        for (uint i = party_idx; i < parties[contract_idx].length - 1; i++) {\n            parties[contract_idx][i] = parties[contract_idx][i + 1];\n        }\n\n        parties[contract_idx].pop();\n\n        emit ContractEvent(contract_idx, \"PartyDeleted\", uintToString(party_idx));\n    }\n\n    function deleteParties(uint contract_idx) public {\n        require(contract_idx < contracts.length, \"Invalid contract index\");\n        delete parties[contract_idx];\n        emit ContractEvent(contract_idx, \"PartiesDeleted\", \"\");\n    }\n\n    function getArtifacts(uint contract_idx) public view returns (Artifact[] memory) {\n        require(contract_idx < contracts.length, \"Invalid contract index\");\n        return artifacts[contract_idx];\n    }\n\n    // Update addArtifact function:\n    function addArtifact(uint contract_idx, string memory doc_title, string memory doc_type, uint added_dt,\n        string memory s3_bucket, string memory s3_object_key, string memory s3_version_id) public {\n        require(contract_idx < contracts.length, \"Invalid contract index\");\n        Artifact memory artifact;\n        artifact.doc_title = doc_title;\n        artifact.doc_type = doc_type;\n        artifact.added_dt = added_dt;\n        artifact.s3_bucket = s3_bucket;\n        artifact.s3_object_key = s3_object_key;\n        artifact.s3_version_id = s3_version_id;\n        artifacts[contract_idx].push(artifact);\n        emit ContractEvent(contract_idx, \"ArtifactAdded\", doc_title);\n    }\n\n    function deleteArtifact(uint contract_idx, uint artifact_idx) public {\n        require(contract_idx < contracts.length, \"Invalid contract index\");\n        require(artifact_idx < artifacts[contract_idx].length, \"Invalid artifact index\");\n\n        for (uint i = artifact_idx; i < artifacts[contract_idx].length - 1; i++) {\n            artifacts[contract_idx][i] = artifacts[contract_idx][i + 1];\n        }\n\n        artifacts[contract_idx].pop();\n\n        emit ContractEvent(contract_idx, \"ArtifactDeleted\", uintToString(artifact_idx));\n    }\n\n    function deleteArtifacts(uint contract_idx) public {\n        require(contract_idx < contracts.length, \"Invalid contract index\");\n        delete artifacts[contract_idx];\n        emit ContractEvent(contract_idx, \"ArtifactsDeleted\", \"\");\n    }\n\n    function getSettlements(uint contract_idx) public view returns (Settlement[] memory) {\n        require(contract_idx < contracts.length, \"Invalid contract index\");\n        return settlements[contract_idx];\n    }\n\n    function addSettlement(uint contract_idx, string memory extended_data, uint settle_due_dt, uint transact_min_dt, uint transact_max_dt) public {\n        require(contract_idx < contracts.length, \"Invalid contract index\");\n        Settlement memory settlement;\n        settlement.settle_due_dt = settle_due_dt;\n        settlement.transact_min_dt = transact_min_dt;\n        settlement.transact_max_dt = transact_max_dt;\n        settlement.extended_data = extended_data;\n        settlements[contract_idx].push(settlement);\n        emit ContractEvent(contract_idx, \"SettlementAdded\", uintToString(settle_due_dt));\n    }\n\n    function deleteSettlements(uint contract_idx) public {\n        require(contract_idx < contracts.length, \"Invalid contract index\");\n        delete settlements[contract_idx];\n        emit ContractEvent(contract_idx, \"SettlementsDeleted\", \"\");\n    }\n\n    function getTransactions(uint contract_idx) public view returns (Transaction[] memory) {\n        require(contract_idx < contracts.length, \"Invalid contract index\");\n        return transactions[contract_idx];\n    }\n\n    function deleteTransactions(uint contract_idx) public {\n        require(contract_idx < contracts.length, \"Invalid contract index\");\n        delete transactions[contract_idx];\n        emit ContractEvent(contract_idx, \"TransactionsDeleted\", \"\");\n    }\n\n    function addTransaction(uint contract_idx, string memory extended_data, uint transact_dt, int transact_amt, string memory transact_data) public {\n        require(contract_idx < contracts.length, \"Invalid contract index\");\n\n        Transaction memory transact;\n        transact.extended_data = extended_data;\n        transact.transact_dt = transact_dt;\n        transact.transact_amt = transact_amt;\n        transact.transact_data = transact_data;\n\n        bool settle_found = false;\n        int transact_advance_amt = 0;\n        int transact_advance_amt_gross = 0;\n        int service_fee_amt = 0;\n\n        for (uint i = 0; i < settlements[contract_idx].length; i++) {\n            Settlement storage settlement = settlements[contract_idx][i];\n            // minimum date is inclusive, maximum date is exclusive\n            if (transact_dt >= settlement.transact_min_dt && transact_dt < settlement.transact_max_dt) {\n                if (transact_amt > 0) {\n                    service_fee_amt = int((contracts[contract_idx].service_fee_pct * uint(transact_amt)) / 10000) + int(contracts[contract_idx].service_fee_amt);\n                    transact_advance_amt_gross = int((uint(transact_amt) * contracts[contract_idx].advance_pct) / 10000);\n\n                    // Determine the final advance amount after subtracting the service fee\n                    if (transact_advance_amt_gross >= service_fee_amt) {\n                        transact_advance_amt = transact_advance_amt_gross - service_fee_amt;\n                    }\n                }\n\n                settlement.settle_exp_amt += transact_amt;\n                settlement.advance_amt += transact_advance_amt;\n                settlement.advance_amt_gross += transact_advance_amt_gross;\n                settlement.residual_exp_amt = settlement.settle_exp_amt - settlement.advance_amt_gross;\n                settlement.transact_count++;\n                transact.advance_amt = transact_advance_amt;\n                transact.service_fee_amt = service_fee_amt;\n                settle_found = true;\n            }\n        }\n\n        if (settle_found) {\n            transactions[contract_idx].push(transact);\n            emit ContractEvent(contract_idx, \"TransactionAdded\", uintToString(transact.transact_dt));\n        } else {\n            emit ContractEvent(contract_idx, \"TransactionError\", \"No valid settlement period\");\n        }\n    }\n\n    function payAdvance(uint contract_idx, uint transact_idx, uint advance_pay_dt, uint advance_pay_amt) public {\n        require(contract_idx < contracts.length, \"Invalid contract index\");\n        transactions[contract_idx][transact_idx].advance_pay_dt = advance_pay_dt;\n        transactions[contract_idx][transact_idx].advance_pay_amt = advance_pay_amt;\n        emit ContractEvent(contract_idx, \"PayAdvance\", \"\");\n    }\n\n    function postSettlement(uint contract_idx, uint settle_idx, uint settle_pay_dt, int settle_pay_amt, string memory dispute_reason) public {\n        require(contract_idx < contracts.length, \"Invalid contract index\");\n        settlements[contract_idx][settle_idx].settle_pay_dt = settle_pay_dt;\n        settlements[contract_idx][settle_idx].settle_pay_amt = settle_pay_amt;\n\n        if (settle_pay_dt > settlements[contract_idx][settle_idx].settle_due_dt) {\n            settlements[contract_idx][settle_idx].days_late = (settle_pay_dt - settlements[contract_idx][settle_idx].settle_due_dt) / 60 / 60 / 24;\n\n            // Convert necessary values to int to match types and avoid errors\n            int days_late = int(settlements[contract_idx][settle_idx].days_late);\n            int late_fee_pct = int(contracts[contract_idx].late_fee_pct);\n            int settle_exp_amt = settlements[contract_idx][settle_idx].settle_exp_amt;\n\n            settlements[contract_idx][settle_idx].late_fee_amt = (days_late * ((late_fee_pct * 100000) / 365) * settle_exp_amt) / 1000000000;\n        }\n\n        if (settle_pay_amt < settlements[contract_idx][settle_idx].settle_exp_amt) {\n            settlements[contract_idx][settle_idx].dispute_amt = settlements[contract_idx][settle_idx].settle_exp_amt - settle_pay_amt;\n            settlements[contract_idx][settle_idx].dispute_reason = dispute_reason;\n        } \n\n        if ((settlements[contract_idx][settle_idx].residual_exp_amt - settlements[contract_idx][settle_idx].late_fee_amt - settlements[contract_idx][settle_idx].dispute_amt) > 0) {\n            settlements[contract_idx][settle_idx].residual_calc_amt = settlements[contract_idx][settle_idx].residual_exp_amt - settlements[contract_idx][settle_idx].late_fee_amt -\n                settlements[contract_idx][settle_idx].dispute_amt;\n        } else {\n            settlements[contract_idx][settle_idx].residual_calc_amt = 0;\n        }\n\n        emit ContractEvent(contract_idx, \"PostSettlement\", \"\");\n    }\n\n    function payResidual(uint contract_idx, uint settle_idx, uint residual_pay_dt, int residual_pay_amt) public {\n        require(contract_idx < contracts.length, \"Invalid contract index\");\n        settlements[contract_idx][settle_idx].residual_pay_dt = residual_pay_dt;\n        settlements[contract_idx][settle_idx].residual_pay_amt = residual_pay_amt;\n        emit ContractEvent(contract_idx, \"ResidualPaid\", \"\");\n    }\n\n    function importContract(Contract memory contract_) public {\n        contracts.push(contract_);\n    }\n\n    function importParty(uint contract_idx, Party memory party) public {\n        require(contract_idx < contracts.length, \"Invalid contract index\");\n        parties[contract_idx].push(party);\n    }\n\n    function importSettlement(uint contract_idx, Settlement memory settlement) public {\n        require(contract_idx < contracts.length, \"Invalid contract index\");\n        settlements[contract_idx].push(settlement);\n    }\n\n    function importTransaction(uint contract_idx, Transaction memory transaction) public {\n        require(contract_idx < contracts.length, \"Invalid contract index\");\n        transactions[contract_idx].push(transaction);\n    }\n\n    function importArtifact(uint contract_idx, Artifact memory artifact) public {\n        require(contract_idx < contracts.length, \"Invalid contract index\");\n        artifacts[contract_idx].push(artifact);\n    }\n\n    function uintToString(uint v) internal pure returns (string memory) {\n        if (v == 0) {\n            return \"0\";\n        }\n        uint j = v;\n        uint len;\n        while (j != 0) {\n            len++;\n            j /= 10;\n        }\n        bytes memory bstr = new bytes(len);\n        uint k = len;\n        while (v != 0) {\n            k = k - 1;\n            uint8 temp = (48 + uint8(v - v / 10 * 10));\n            bytes1 b1 = bytes1(temp);\n            bstr[k] = b1;\n            v /= 10;\n        }\n        return string(bstr);\n    }\n\n   function intToString(int v) internal pure returns (string memory) {\n        if (v == 0) {\n            return \"0\";\n        }\n\n        bool negative = v < 0;\n        uint len = 0;\n        uint i;\n        int temp = v;\n\n        if (negative) {\n            temp = -temp;\n            len++;\n        }\n\n        i = uint(temp);\n\n        while (i != 0) {\n            len++;\n            i /= 10;\n        }\n\n        bytes memory bstr = new bytes(len);\n        uint k = len;\n        i = uint(temp);\n\n        while (i != 0) {\n            k = k - 1;\n            uint8 tempDigit = (48 + uint8(i - i / 10 * 10));\n            bytes1 b1 = bytes1(tempDigit);\n            bstr[k] = b1;\n            i /= 10;\n        }\n\n        if (negative) {\n            bstr[0] = '-';\n        }\n\n        return string(bstr);\n    } \n\n    function boolToString(bool v) internal pure returns (string memory) {\n        return v ? \"true\" : \"false\";\n    }\n}",
  "sourcePath": "/Users/davidnichamoff/Projects/FIZIT_DEV/truffle/contracts/Delivery.sol",
  "compiler": {
    "name": "solc",
    "version": "0.8.0+commit.c7dfd78e.Emscripten.clang"
  },
  "schemaVersion": "3.4.16",
  "updatedAt": "2024-11-27T14:14:41.949Z",
  "networkType": "ethereum",
  "devdoc": {
    "kind": "dev",
    "methods": {},
    "version": 1
  },
  "userdoc": {
    "kind": "user",
    "methods": {},
    "version": 1
  }
}