{
  "contractName": "Delivery",
  "abi": [
    {
      "inputs": [],
      "stateMutability": "nonpayable",
      "type": "constructor"
    },
    {
      "anonymous": false,
      "inputs": [
        {
          "indexed": true,
          "internalType": "uint256",
          "name": "contract_idx",
          "type": "uint256"
        },
        {
          "indexed": false,
          "internalType": "string",
          "name": "eventType",
          "type": "string"
        },
        {
          "indexed": false,
          "internalType": "string",
          "name": "details",
          "type": "string"
        }
      ],
      "name": "ContractEvent",
      "type": "event"
    },
    {
      "inputs": [],
      "name": "owner",
      "outputs": [
        {
          "internalType": "address",
          "name": "",
          "type": "address"
        }
      ],
      "stateMutability": "view",
      "type": "function",
      "constant": true
    },
    {
      "inputs": [],
      "name": "getContractCount",
      "outputs": [
        {
          "internalType": "uint256",
          "name": "",
          "type": "uint256"
        }
      ],
      "stateMutability": "view",
      "type": "function",
      "constant": true
    },
    {
      "inputs": [
        {
          "internalType": "uint256",
          "name": "contract_idx",
          "type": "uint256"
        }
      ],
      "name": "getContract",
      "outputs": [
        {
          "components": [
            {
              "internalType": "string",
              "name": "extended_data",
              "type": "string"
            },
            {
              "internalType": "string",
              "name": "contract_name",
              "type": "string"
            },
            {
              "internalType": "string",
              "name": "contract_type",
              "type": "string"
            },
            {
              "internalType": "string",
              "name": "funding_instr",
              "type": "string"
            },
            {
              "internalType": "uint256",
              "name": "service_fee_pct",
              "type": "uint256"
            },
            {
              "internalType": "uint256",
              "name": "service_fee_max",
              "type": "uint256"
            },
            {
              "internalType": "int256",
              "name": "service_fee_amt",
              "type": "int256"
            },
            {
              "internalType": "uint256",
              "name": "advance_pct",
              "type": "uint256"
            },
            {
              "internalType": "uint256",
              "name": "late_fee_pct",
              "type": "uint256"
            },
            {
              "internalType": "string",
              "name": "transact_logic",
              "type": "string"
            },
            {
              "internalType": "int256",
              "name": "min_threshold",
              "type": "int256"
            },
            {
              "internalType": "int256",
              "name": "max_threshold",
              "type": "int256"
            },
            {
              "internalType": "string",
              "name": "notes",
              "type": "string"
            },
            {
              "internalType": "bool",
              "name": "is_active",
              "type": "bool"
            },
            {
              "internalType": "bool",
              "name": "is_quote",
              "type": "bool"
            }
          ],
          "internalType": "struct Delivery.Contract",
          "name": "",
          "type": "tuple"
        }
      ],
      "stateMutability": "view",
      "type": "function",
      "constant": true
    },
    {
      "inputs": [
        {
          "components": [
            {
              "internalType": "string",
              "name": "extended_data",
              "type": "string"
            },
            {
              "internalType": "string",
              "name": "contract_name",
              "type": "string"
            },
            {
              "internalType": "string",
              "name": "contract_type",
              "type": "string"
            },
            {
              "internalType": "string",
              "name": "funding_instr",
              "type": "string"
            },
            {
              "internalType": "uint256",
              "name": "service_fee_pct",
              "type": "uint256"
            },
            {
              "internalType": "uint256",
              "name": "service_fee_max",
              "type": "uint256"
            },
            {
              "internalType": "int256",
              "name": "service_fee_amt",
              "type": "int256"
            },
            {
              "internalType": "uint256",
              "name": "advance_pct",
              "type": "uint256"
            },
            {
              "internalType": "uint256",
              "name": "late_fee_pct",
              "type": "uint256"
            },
            {
              "internalType": "string",
              "name": "transact_logic",
              "type": "string"
            },
            {
              "internalType": "int256",
              "name": "min_threshold",
              "type": "int256"
            },
            {
              "internalType": "int256",
              "name": "max_threshold",
              "type": "int256"
            },
            {
              "internalType": "string",
              "name": "notes",
              "type": "string"
            },
            {
              "internalType": "bool",
              "name": "is_active",
              "type": "bool"
            },
            {
              "internalType": "bool",
              "name": "is_quote",
              "type": "bool"
            }
          ],
          "internalType": "struct Delivery.Contract",
          "name": "contract_",
          "type": "tuple"
        }
      ],
      "name": "addContract",
      "outputs": [],
      "stateMutability": "nonpayable",
      "type": "function"
    },
    {
      "inputs": [
        {
          "internalType": "uint256",
          "name": "contract_idx",
          "type": "uint256"
        },
        {
          "components": [
            {
              "internalType": "string",
              "name": "extended_data",
              "type": "string"
            },
            {
              "internalType": "string",
              "name": "contract_name",
              "type": "string"
            },
            {
              "internalType": "string",
              "name": "contract_type",
              "type": "string"
            },
            {
              "internalType": "string",
              "name": "funding_instr",
              "type": "string"
            },
            {
              "internalType": "uint256",
              "name": "service_fee_pct",
              "type": "uint256"
            },
            {
              "internalType": "uint256",
              "name": "service_fee_max",
              "type": "uint256"
            },
            {
              "internalType": "int256",
              "name": "service_fee_amt",
              "type": "int256"
            },
            {
              "internalType": "uint256",
              "name": "advance_pct",
              "type": "uint256"
            },
            {
              "internalType": "uint256",
              "name": "late_fee_pct",
              "type": "uint256"
            },
            {
              "internalType": "string",
              "name": "transact_logic",
              "type": "string"
            },
            {
              "internalType": "int256",
              "name": "min_threshold",
              "type": "int256"
            },
            {
              "internalType": "int256",
              "name": "max_threshold",
              "type": "int256"
            },
            {
              "internalType": "string",
              "name": "notes",
              "type": "string"
            },
            {
              "internalType": "bool",
              "name": "is_active",
              "type": "bool"
            },
            {
              "internalType": "bool",
              "name": "is_quote",
              "type": "bool"
            }
          ],
          "internalType": "struct Delivery.Contract",
          "name": "contract_",
          "type": "tuple"
        }
      ],
      "name": "updateContract",
      "outputs": [],
      "stateMutability": "nonpayable",
      "type": "function"
    },
    {
      "inputs": [
        {
          "internalType": "uint256",
          "name": "contract_idx",
          "type": "uint256"
        }
      ],
      "name": "deleteContract",
      "outputs": [],
      "stateMutability": "nonpayable",
      "type": "function"
    },
    {
      "inputs": [
        {
          "internalType": "uint256",
          "name": "contract_idx",
          "type": "uint256"
        }
      ],
      "name": "getParties",
      "outputs": [
        {
          "components": [
            {
              "internalType": "string",
              "name": "party_code",
              "type": "string"
            },
            {
              "internalType": "address",
              "name": "party_address",
              "type": "address"
            },
            {
              "internalType": "string",
              "name": "party_type",
              "type": "string"
            }
          ],
          "internalType": "struct Delivery.Party[]",
          "name": "",
          "type": "tuple[]"
        }
      ],
      "stateMutability": "view",
      "type": "function",
      "constant": true
    },
    {
      "inputs": [
        {
          "internalType": "uint256",
          "name": "contract_idx",
          "type": "uint256"
        },
        {
          "components": [
            {
              "internalType": "string",
              "name": "party_code",
              "type": "string"
            },
            {
              "internalType": "address",
              "name": "party_address",
              "type": "address"
            },
            {
              "internalType": "string",
              "name": "party_type",
              "type": "string"
            }
          ],
          "internalType": "struct Delivery.Party",
          "name": "party",
          "type": "tuple"
        }
      ],
      "name": "addParty",
      "outputs": [],
      "stateMutability": "nonpayable",
      "type": "function"
    },
    {
      "inputs": [
        {
          "internalType": "uint256",
          "name": "contract_idx",
          "type": "uint256"
        },
        {
          "internalType": "uint256",
          "name": "party_idx",
          "type": "uint256"
        }
      ],
      "name": "deleteParty",
      "outputs": [],
      "stateMutability": "nonpayable",
      "type": "function"
    },
    {
      "inputs": [
        {
          "internalType": "uint256",
          "name": "contract_idx",
          "type": "uint256"
        }
      ],
      "name": "deleteParties",
      "outputs": [],
      "stateMutability": "nonpayable",
      "type": "function"
    },
    {
      "inputs": [
        {
          "internalType": "uint256",
          "name": "contract_idx",
          "type": "uint256"
        }
      ],
      "name": "getArtifacts",
      "outputs": [
        {
          "components": [
            {
              "internalType": "string",
              "name": "artifact_id",
              "type": "string"
            },
            {
              "internalType": "string",
              "name": "extended_data",
              "type": "string"
            },
            {
              "internalType": "uint256",
              "name": "added_dt",
              "type": "uint256"
            },
            {
              "internalType": "string",
              "name": "doc_title",
              "type": "string"
            },
            {
              "internalType": "string",
              "name": "doc_type",
              "type": "string"
            }
          ],
          "internalType": "struct Delivery.Artifact[]",
          "name": "",
          "type": "tuple[]"
        }
      ],
      "stateMutability": "view",
      "type": "function",
      "constant": true
    },
    {
      "inputs": [
        {
          "internalType": "uint256",
          "name": "contract_idx",
          "type": "uint256"
        },
        {
          "internalType": "string",
          "name": "artifact_id",
          "type": "string"
        },
        {
          "internalType": "string",
          "name": "doc_title",
          "type": "string"
        },
        {
          "internalType": "string",
          "name": "doc_type",
          "type": "string"
        },
        {
          "internalType": "uint256",
          "name": "added_dt",
          "type": "uint256"
        }
      ],
      "name": "addArtifact",
      "outputs": [],
      "stateMutability": "nonpayable",
      "type": "function"
    },
    {
      "inputs": [
        {
          "internalType": "uint256",
          "name": "contract_idx",
          "type": "uint256"
        },
        {
          "internalType": "uint256",
          "name": "artifact_idx",
          "type": "uint256"
        }
      ],
      "name": "deleteArtifact",
      "outputs": [],
      "stateMutability": "nonpayable",
      "type": "function"
    },
    {
      "inputs": [
        {
          "internalType": "uint256",
          "name": "contract_idx",
          "type": "uint256"
        }
      ],
      "name": "deleteArtifacts",
      "outputs": [],
      "stateMutability": "nonpayable",
      "type": "function"
    },
    {
      "inputs": [
        {
          "internalType": "uint256",
          "name": "contract_idx",
          "type": "uint256"
        }
      ],
      "name": "getSettlements",
      "outputs": [
        {
          "components": [
            {
              "internalType": "string",
              "name": "extended_data",
              "type": "string"
            },
            {
              "internalType": "uint256",
              "name": "settle_due_dt",
              "type": "uint256"
            },
            {
              "internalType": "uint256",
              "name": "transact_min_dt",
              "type": "uint256"
            },
            {
              "internalType": "uint256",
              "name": "transact_max_dt",
              "type": "uint256"
            },
            {
              "internalType": "uint256",
              "name": "transact_count",
              "type": "uint256"
            },
            {
              "internalType": "int256",
              "name": "advance_amt",
              "type": "int256"
            },
            {
              "internalType": "uint256",
              "name": "settle_pay_dt",
              "type": "uint256"
            },
            {
              "internalType": "int256",
              "name": "settle_exp_amt",
              "type": "int256"
            },
            {
              "internalType": "int256",
              "name": "settle_pay_amt",
              "type": "int256"
            },
            {
              "internalType": "string",
              "name": "settle_confirm",
              "type": "string"
            },
            {
              "internalType": "int256",
              "name": "dispute_amt",
              "type": "int256"
            },
            {
              "internalType": "string",
              "name": "dispute_reason",
              "type": "string"
            },
            {
              "internalType": "uint256",
              "name": "days_late",
              "type": "uint256"
            },
            {
              "internalType": "int256",
              "name": "late_fee_amt",
              "type": "int256"
            },
            {
              "internalType": "uint256",
              "name": "residual_pay_dt",
              "type": "uint256"
            },
            {
              "internalType": "int256",
              "name": "residual_pay_amt",
              "type": "int256"
            },
            {
              "internalType": "string",
              "name": "residual_confirm",
              "type": "string"
            },
            {
              "internalType": "int256",
              "name": "residual_exp_amt",
              "type": "int256"
            },
            {
              "internalType": "int256",
              "name": "residual_calc_amt",
              "type": "int256"
            }
          ],
          "internalType": "struct Delivery.Settlement[]",
          "name": "",
          "type": "tuple[]"
        }
      ],
      "stateMutability": "view",
      "type": "function",
      "constant": true
    },
    {
      "inputs": [
        {
          "internalType": "uint256",
          "name": "contract_idx",
          "type": "uint256"
        },
        {
          "internalType": "string",
          "name": "extended_data",
          "type": "string"
        },
        {
          "internalType": "uint256",
          "name": "settle_due_dt",
          "type": "uint256"
        },
        {
          "internalType": "uint256",
          "name": "transact_min_dt",
          "type": "uint256"
        },
        {
          "internalType": "uint256",
          "name": "transact_max_dt",
          "type": "uint256"
        }
      ],
      "name": "addSettlement",
      "outputs": [],
      "stateMutability": "nonpayable",
      "type": "function"
    },
    {
      "inputs": [
        {
          "internalType": "uint256",
          "name": "contract_idx",
          "type": "uint256"
        }
      ],
      "name": "deleteSettlements",
      "outputs": [],
      "stateMutability": "nonpayable",
      "type": "function"
    },
    {
      "inputs": [
        {
          "internalType": "uint256",
          "name": "contract_idx",
          "type": "uint256"
        }
      ],
      "name": "getTransactions",
      "outputs": [
        {
          "components": [
            {
              "internalType": "string",
              "name": "extended_data",
              "type": "string"
            },
            {
              "internalType": "uint256",
              "name": "transact_dt",
              "type": "uint256"
            },
            {
              "internalType": "int256",
              "name": "transact_amt",
              "type": "int256"
            },
            {
              "internalType": "int256",
              "name": "service_fee_amt",
              "type": "int256"
            },
            {
              "internalType": "int256",
              "name": "advance_amt",
              "type": "int256"
            },
            {
              "internalType": "string",
              "name": "transact_data",
              "type": "string"
            },
            {
              "internalType": "uint256",
              "name": "advance_pay_dt",
              "type": "uint256"
            },
            {
              "internalType": "uint256",
              "name": "advance_pay_amt",
              "type": "uint256"
            },
            {
              "internalType": "string",
              "name": "advance_confirm",
              "type": "string"
            }
          ],
          "internalType": "struct Delivery.Transaction[]",
          "name": "",
          "type": "tuple[]"
        }
      ],
      "stateMutability": "view",
      "type": "function",
      "constant": true
    },
    {
      "inputs": [
        {
          "internalType": "uint256",
          "name": "contract_idx",
          "type": "uint256"
        }
      ],
      "name": "deleteTransactions",
      "outputs": [],
      "stateMutability": "nonpayable",
      "type": "function"
    },
    {
      "inputs": [
        {
          "internalType": "uint256",
          "name": "contract_idx",
          "type": "uint256"
        },
        {
          "internalType": "string",
          "name": "extended_data",
          "type": "string"
        },
        {
          "internalType": "uint256",
          "name": "transact_dt",
          "type": "uint256"
        },
        {
          "internalType": "int256",
          "name": "transact_amt",
          "type": "int256"
        },
        {
          "internalType": "string",
          "name": "transact_data",
          "type": "string"
        }
      ],
      "name": "addTransaction",
      "outputs": [],
      "stateMutability": "nonpayable",
      "type": "function"
    },
    {
      "inputs": [
        {
          "internalType": "uint256",
          "name": "contract_idx",
          "type": "uint256"
        },
        {
          "internalType": "uint256",
          "name": "transact_idx",
          "type": "uint256"
        },
        {
          "internalType": "uint256",
          "name": "advance_pay_dt",
          "type": "uint256"
        },
        {
          "internalType": "uint256",
          "name": "advance_pay_amt",
          "type": "uint256"
        },
        {
          "internalType": "string",
          "name": "advance_confirm",
          "type": "string"
        }
      ],
      "name": "payAdvance",
      "outputs": [],
      "stateMutability": "nonpayable",
      "type": "function"
    },
    {
      "inputs": [
        {
          "internalType": "uint256",
          "name": "contract_idx",
          "type": "uint256"
        },
        {
          "internalType": "uint256",
          "name": "settle_idx",
          "type": "uint256"
        },
        {
          "internalType": "uint256",
          "name": "settle_pay_dt",
          "type": "uint256"
        },
        {
          "internalType": "int256",
          "name": "settle_pay_amt",
          "type": "int256"
        },
        {
          "internalType": "string",
          "name": "settle_confirm",
          "type": "string"
        },
        {
          "internalType": "string",
          "name": "dispute_reason",
          "type": "string"
        }
      ],
      "name": "postSettlement",
      "outputs": [],
      "stateMutability": "nonpayable",
      "type": "function"
    },
    {
      "inputs": [
        {
          "internalType": "uint256",
          "name": "contract_idx",
          "type": "uint256"
        },
        {
          "internalType": "uint256",
          "name": "settle_idx",
          "type": "uint256"
        },
        {
          "internalType": "uint256",
          "name": "residual_pay_dt",
          "type": "uint256"
        },
        {
          "internalType": "int256",
          "name": "residual_pay_amt",
          "type": "int256"
        },
        {
          "internalType": "string",
          "name": "residual_confirm",
          "type": "string"
        }
      ],
      "name": "payResidual",
      "outputs": [],
      "stateMutability": "nonpayable",
      "type": "function"
    }
  ],
  "bytecode": "0x608060405234801561001057600080fd5b50600080546001600160a01b03191633179055615287806100326000396000f3fe608060405234801561001057600080fd5b506004361061014d5760003560e01c80636ebc8c86116100c3578063a2a789291161007c578063a2a78929146102d8578063a50965dc146102eb578063afb18810146102fe578063d311341214610311578063f633db9314610331578063fcf45c0f146103445761014d565b80636ebc8c861461025557806375483e461461027557806388398db9146102885780638aea2c5e1461029b5780638da5cb5b146102ae5780639399869d146102c35761014d565b806346f920fd1161011557806346f920fd146101c95780635742177c146101e95780635b4e97e71461020957806364da0a331461021c5780636893d3361461022f5780636e449c2b146102425761014d565b806311ef56de1461015257806336d56a601461016757806338ad4fa71461017a5780633cbfb1b51461018d578063447fe289146101a0575b600080fd5b610165610160366004614196565b610357565b005b61016561017536600461442e565b6103e9565b610165610188366004614243565b610660565b61016561019b3660046141ae565b6109d7565b6101b36101ae366004614196565b610b0b565b6040516101c091906146a9565b60405180910390f35b6101dc6101d7366004614196565b610cd1565b6040516101c09190614732565b6101fc6101f7366004614196565b61102f565b6040516101c09190614887565b610165610217366004614196565b6112a1565b61016561022a366004614363565b61131f565b61016561023d366004614196565b611407565b61016561025036600461442e565b6114bd565b610268610263366004614196565b6116f0565b6040516101c09190614e27565b610165610283366004614528565b611b2d565b61016561029636600461444f565b611c89565b6101656102a93660046144a3565b611dd6565b6102b66124e7565b6040516101c091906145d1565b6102cb6124f6565b6040516101c09190614f69565b6101656102e63660046142c0565b6124fc565b6101656102f936600461431f565b6126b9565b61016561030c36600461415c565b613125565b61032461031f366004614196565b6132d2565b6040516101c091906145e5565b61016561033f366004614196565b6135a3565b610165610352366004614196565b613621565b6000546001600160a01b0316331461038a5760405162461bcd60e51b815260040161038190614ad8565b60405180910390fd5b60015481106103ab5760405162461bcd60e51b8152600401610381906149d3565b60008181526004602052604081206103c291613a4c565b806000805160206152328339815191526040516103de90614c4a565b60405180910390a250565b6000546001600160a01b031633146104135760405162461bcd60e51b815260040161038190614ad8565b60015482106104345760405162461bcd60e51b8152600401610381906149d3565b60008281526004602052604090205481106104615760405162461bcd60e51b815260040161038190614a72565b805b60008381526004602052604090205461047e9060019061513c565b8110156105aa57600083815260046020526040902061049e826001614fdc565b815481106104bc57634e487b7160e01b600052603260045260246000fd5b90600052602060002090600502016004600085815260200190815260200160002082815481106104fc57634e487b7160e01b600052603260045260246000fd5b9060005260206000209060050201600082018160000190805461051e9061517f565b610529929190613a70565b50600182018160010190805461053e9061517f565b610549929190613a70565b506002820154816002015560038201816003019080546105689061517f565b610573929190613a70565b5060048201816004019080546105889061517f565b610593929190613a70565b5090505080806105a2906151ba565b915050610463565b5060008281526004602052604090208054806105d657634e487b7160e01b600052603160045260246000fd5b600082815260208120600019909201916005830201906105f68282613afb565b610604600183016000613afb565b600282016000905560038201600061061c9190613afb565b61062a600483016000613afb565b50509055816000805160206152328339815191526106478361369f565b6040516106549190614ba3565b60405180910390a25050565b6000546001600160a01b0316331461068a5760405162461bcd60e51b815260040161038190614ad8565b60015485106106ab5760405162461bcd60e51b8152600401610381906149d3565b6106b3613b37565b848152602081018490526040810183905260a0810182905260008080805b60008a8152600260205260409020548110156108c35760008a815260026020526040812080548390811061071557634e487b7160e01b600052603260045260246000fd5b906000526020600020906013020190508060020154891015801561073c5750806003015489105b156108b05760008813156108395760018b8154811061076b57634e487b7160e01b600052603260045260246000fd5b90600052602060002090600e0201600601546127108960018e815481106107a257634e487b7160e01b600052603260045260246000fd5b90600052602060002090600e0201600401546107be91906150de565b6107c89190615047565b6107d29190614f9b565b9250600061271060018d815481106107fa57634e487b7160e01b600052603260045260246000fd5b90600052602060002090600e0201600701548a61081791906150de565b6108219190615047565b90508381126108375761083484826150fd565b94505b505b8781600701600082825461084d9190614f9b565b92505081905550838160050160008282546108689190614f9b565b90915550506005810154600782015461088191906150fd565b6011820155600481018054906000610898836151ba565b90915550506080860184905260608601839052600194505b50806108bb816151ba565b9150506106d1565b5082156109a757600089815260036020908152604082208054600181018255908352918190208651805188946009029092019261090592849290910190613b83565b50602082810151600183015560408301516002830155606083015160038301556080830151600483015560a083015180516109469260058501920190613b83565b5060c0820151600682015560e082015160078201556101008201518051610977916008840191602090910190613b83565b505084516040518b92506000805160206152328339815191529161099a9161495b565b60405180910390a26109cc565b886000805160206152328339815191526040516109c390614dc8565b60405180910390a25b505050505050505050565b6000546001600160a01b03163314610a015760405162461bcd60e51b815260040161038190614ad8565b6001548510610a225760405162461bcd60e51b8152600401610381906149d3565b610a2a613bf7565b60408082018390528582526060820185905260808201849052600087815260046020908152918120805460018101825590825290829020835180518594600590940290920192610a7f92849290910190613b83565b506020828101518051610a989260018501920190613b83565b506040820151600282015560608201518051610abe916003840191602090910190613b83565b5060808201518051610ada916004840191602090910190613b83565b5050508560008051602061523283398151915285604051610afb9190614d91565b60405180910390a2505050505050565b6001546060908210610b2f5760405162461bcd60e51b8152600401610381906149d3565b600082815260056020908152604080832080548251818502810185019093528083529193909284015b82821015610cc55783829060005260206000209060030201604051806060016040529081600082018054610b8b9061517f565b80601f0160208091040260200160405190810160405280929190818152602001828054610bb79061517f565b8015610c045780601f10610bd957610100808354040283529160200191610c04565b820191906000526020600020905b815481529060010190602001808311610be757829003601f168201915b505050918352505060018201546001600160a01b03166020820152600282018054604090920191610c349061517f565b80601f0160208091040260200160405190810160405280929190818152602001828054610c609061517f565b8015610cad5780601f10610c8257610100808354040283529160200191610cad565b820191906000526020600020905b815481529060010190602001808311610c9057829003601f168201915b50505050508152505081526020019060010190610b58565b5050505090505b919050565b6001546060908210610cf55760405162461bcd60e51b8152600401610381906149d3565b600082815260026020908152604080832080548251818502810185019093528083529193909284015b82821015610cc5578382906000526020600020906013020160405180610260016040529081600082018054610d529061517f565b80601f0160208091040260200160405190810160405280929190818152602001828054610d7e9061517f565b8015610dcb5780601f10610da057610100808354040283529160200191610dcb565b820191906000526020600020905b815481529060010190602001808311610dae57829003601f168201915b505050505081526020016001820154815260200160028201548152602001600382015481526020016004820154815260200160058201548152602001600682015481526020016007820154815260200160088201548152602001600982018054610e349061517f565b80601f0160208091040260200160405190810160405280929190818152602001828054610e609061517f565b8015610ead5780601f10610e8257610100808354040283529160200191610ead565b820191906000526020600020905b815481529060010190602001808311610e9057829003601f168201915b50505050508152602001600a8201548152602001600b82018054610ed09061517f565b80601f0160208091040260200160405190810160405280929190818152602001828054610efc9061517f565b8015610f495780601f10610f1e57610100808354040283529160200191610f49565b820191906000526020600020905b815481529060010190602001808311610f2c57829003601f168201915b50505050508152602001600c8201548152602001600d8201548152602001600e8201548152602001600f8201548152602001601082018054610f8a9061517f565b80601f0160208091040260200160405190810160405280929190818152602001828054610fb69061517f565b80156110035780601f10610fd857610100808354040283529160200191611003565b820191906000526020600020905b815481529060010190602001808311610fe657829003601f168201915b505050505081526020016011820154815260200160128201548152505081526020019060010190610d1e565b60015460609082106110535760405162461bcd60e51b8152600401610381906149d3565b600082815260036020908152604080832080548251818502810185019093528083529193909284015b82821015610cc55783829060005260206000209060090201604051806101200160405290816000820180546110b09061517f565b80601f01602080910402602001604051908101604052809291908181526020018280546110dc9061517f565b80156111295780601f106110fe57610100808354040283529160200191611129565b820191906000526020600020905b81548152906001019060200180831161110c57829003601f168201915b505050505081526020016001820154815260200160028201548152602001600382015481526020016004820154815260200160058201805461116a9061517f565b80601f01602080910402602001604051908101604052809291908181526020018280546111969061517f565b80156111e35780601f106111b8576101008083540402835291602001916111e3565b820191906000526020600020905b8154815290600101906020018083116111c657829003601f168201915b5050505050815260200160068201548152602001600782015481526020016008820180546112109061517f565b80601f016020809104026020016040519081016040528092919081815260200182805461123c9061517f565b80156112895780601f1061125e57610100808354040283529160200191611289565b820191906000526020600020905b81548152906001019060200180831161126c57829003601f168201915b5050505050815250508152602001906001019061107c565b6000546001600160a01b031633146112cb5760405162461bcd60e51b815260040161038190614ad8565b60015481106112ec5760405162461bcd60e51b8152600401610381906149d3565b600081815260026020526040812061130391613c26565b806000805160206152328339815191526040516103de90614d1d565b6000546001600160a01b031633146113495760405162461bcd60e51b815260040161038190614ad8565b600154821061136a5760405162461bcd60e51b8152600401610381906149d3565b60008281526005602090815260408220805460018101825590835291819020835180518594600302909201926113a592849290910190613b83565b506020828101516001830180546001600160a01b0319166001600160a01b03909216919091179055604083015180516113e49260028501920190613b83565b505081516040518492506000805160206152328339815191529161065491614ce9565b6000546001600160a01b031633146114315760405162461bcd60e51b815260040161038190614ad8565b60015481106114525760405162461bcd60e51b8152600401610381906149d3565b60006001828154811061147557634e487b7160e01b600052603260045260246000fd5b60009182526020909120600e90910201600d01805460ff1916911515919091179055806000805160206152328339815191526114b08261369f565b6040516103de9190614d58565b6000546001600160a01b031633146114e75760405162461bcd60e51b815260040161038190614ad8565b60015482106115085760405162461bcd60e51b8152600401610381906149d3565b60008281526005602052604090205481106115355760405162461bcd60e51b815260040161038190614c83565b805b6000838152600560205260409020546115529060019061513c565b81101561165a576000838152600560205260409020611572826001614fdc565b8154811061159057634e487b7160e01b600052603260045260246000fd5b90600052602060002090600302016005600085815260200190815260200160002082815481106115d057634e487b7160e01b600052603260045260246000fd5b906000526020600020906003020160008201816000019080546115f29061517f565b6115fd929190613a70565b5060018281015490820180546001600160a01b0319166001600160a01b0390921691909117905560028083018054918301916116389061517f565b611643929190613a70565b509050508080611652906151ba565b915050611537565b50600082815260056020526040902080548061168657634e487b7160e01b600052603160045260246000fd5b600082815260208120600019909201916003830201906116a68282613afb565b6001820180546001600160a01b03191690556116c6600283016000613afb565b50509055816000805160206152328339815191526116e38361369f565b6040516106549190614aa2565b6116f8613c47565b60015482106117195760405162461bcd60e51b8152600401610381906149d3565b6001828154811061173a57634e487b7160e01b600052603260045260246000fd5b90600052602060002090600e0201604051806101e00160405290816000820180546117649061517f565b80601f01602080910402602001604051908101604052809291908181526020018280546117909061517f565b80156117dd5780601f106117b2576101008083540402835291602001916117dd565b820191906000526020600020905b8154815290600101906020018083116117c057829003601f168201915b505050505081526020016001820180546117f69061517f565b80601f01602080910402602001604051908101604052809291908181526020018280546118229061517f565b801561186f5780601f106118445761010080835404028352916020019161186f565b820191906000526020600020905b81548152906001019060200180831161185257829003601f168201915b505050505081526020016002820180546118889061517f565b80601f01602080910402602001604051908101604052809291908181526020018280546118b49061517f565b80156119015780601f106118d657610100808354040283529160200191611901565b820191906000526020600020905b8154815290600101906020018083116118e457829003601f168201915b5050505050815260200160038201805461191a9061517f565b80601f01602080910402602001604051908101604052809291908181526020018280546119469061517f565b80156119935780601f1061196857610100808354040283529160200191611993565b820191906000526020600020905b81548152906001019060200180831161197657829003601f168201915b5050505050815260200160048201548152602001600582015481526020016006820154815260200160078201548152602001600882015481526020016009820180546119de9061517f565b80601f0160208091040260200160405190810160405280929190818152602001828054611a0a9061517f565b8015611a575780601f10611a2c57610100808354040283529160200191611a57565b820191906000526020600020905b815481529060010190602001808311611a3a57829003601f168201915b50505050508152602001600a8201548152602001600b8201548152602001600c82018054611a849061517f565b80601f0160208091040260200160405190810160405280929190818152602001828054611ab09061517f565b8015611afd5780601f10611ad257610100808354040283529160200191611afd565b820191906000526020600020905b815481529060010190602001808311611ae057829003601f168201915b5050509183525050600d919091015460ff8082161515602084015261010090910416151560409091015292915050565b6000546001600160a01b03163314611b575760405162461bcd60e51b815260040161038190614ad8565b6001548510611b785760405162461bcd60e51b8152600401610381906149d3565b6000858152600360205260409020805484919086908110611ba957634e487b7160e01b600052603260045260246000fd5b90600052602060002090600902016006018190555081600360008781526020019081526020016000208581548110611bf157634e487b7160e01b600052603260045260246000fd5b90600052602060002090600902016007018190555080600360008781526020019081526020016000208581548110611c3957634e487b7160e01b600052603260045260246000fd5b90600052602060002090600902016008019080519060200190611c5d929190613b83565b5084600080516020615232833981519152604051611c7a90614a3f565b60405180910390a25050505050565b6000546001600160a01b03163314611cb35760405162461bcd60e51b815260040161038190614ad8565b6001548510611cd45760405162461bcd60e51b8152600401610381906149d3565b6000858152600260205260409020805484919086908110611d0557634e487b7160e01b600052603260045260246000fd5b9060005260206000209060130201600e018190555081600260008781526020019081526020016000208581548110611d4d57634e487b7160e01b600052603260045260246000fd5b9060005260206000209060130201600f018190555080600260008781526020019081526020016000208581548110611d9557634e487b7160e01b600052603260045260246000fd5b90600052602060002090601302016010019080519060200190611db9929190613b83565b5084600080516020615232833981519152604051611c7a90614b35565b6000546001600160a01b03163314611e005760405162461bcd60e51b815260040161038190614ad8565b6001548610611e215760405162461bcd60e51b8152600401610381906149d3565b6000868152600260205260409020805485919087908110611e5257634e487b7160e01b600052603260045260246000fd5b90600052602060002090601302016006018190555082600260008881526020019081526020016000208681548110611e9a57634e487b7160e01b600052603260045260246000fd5b90600052602060002090601302016008018190555081600260008881526020019081526020016000208681548110611ee257634e487b7160e01b600052603260045260246000fd5b90600052602060002090601302016009019080519060200190611f06929190613b83565b506000868152600260205260409020805486908110611f3557634e487b7160e01b600052603260045260246000fd5b906000526020600020906013020160010154841115612151576018603c80600260008a81526020019081526020016000208881548110611f8557634e487b7160e01b600052603260045260246000fd5b90600052602060002090601302016001015487611fa2919061513c565b611fac9190615047565b611fb69190615047565b611fc09190615047565b6000878152600260205260409020805487908110611fee57634e487b7160e01b600052603260045260246000fd5b9060005260206000209060130201600c0181905550600060026000888152602001908152602001600020868154811061203757634e487b7160e01b600052603260045260246000fd5b9060005260206000209060130201600c0154905060006001888154811061206e57634e487b7160e01b600052603260045260246000fd5b90600052602060002090600e02016008015490506000600260008a815260200190815260200160002088815481106120b657634e487b7160e01b600052603260045260246000fd5b9060005260206000209060130201600701549050633b9aca008161016d84620186a06120e2919061505b565b6120ec9190615019565b6120f6908661505b565b612100919061505b565b61210a9190615019565b60008a815260026020526040902080548a90811061213857634e487b7160e01b600052603260045260246000fd5b9060005260206000209060130201600d01819055505050505b600086815260026020526040902080548690811061217f57634e487b7160e01b600052603260045260246000fd5b9060005260206000209060130201601101548312156122815760008681526002602052604090208054849190879081106121c957634e487b7160e01b600052603260045260246000fd5b9060005260206000209060130201601101546121e591906150fd565b600087815260026020526040902080548790811061221357634e487b7160e01b600052603260045260246000fd5b9060005260206000209060130201600a01819055508060026000888152602001908152602001600020868154811061225b57634e487b7160e01b600052603260045260246000fd5b9060005260206000209060130201600b01908051906020019061227f929190613b83565b505b60008681526002602052604081208054879081106122af57634e487b7160e01b600052603260045260246000fd5b9060005260206000209060130201600a01546002600089815260200190815260200160002087815481106122f357634e487b7160e01b600052603260045260246000fd5b9060005260206000209060130201600d0154600260008a8152602001908152602001600020888154811061233757634e487b7160e01b600052603260045260246000fd5b90600052602060002090601302016011015461235391906150fd565b61235d91906150fd565b131561248757600086815260026020526040902080548690811061239157634e487b7160e01b600052603260045260246000fd5b9060005260206000209060130201600a01546002600088815260200190815260200160002086815481106123d557634e487b7160e01b600052603260045260246000fd5b9060005260206000209060130201600d015460026000898152602001908152602001600020878154811061241957634e487b7160e01b600052603260045260246000fd5b90600052602060002090601302016011015461243591906150fd565b61243f91906150fd565b600087815260026020526040902080548790811061246d57634e487b7160e01b600052603260045260246000fd5b9060005260206000209060130201601201819055506124cb565b60008681526002602052604081208054879081106124b557634e487b7160e01b600052603260045260246000fd5b9060005260206000209060130201601201819055505b85600080516020615232833981519152604051610afb90614bdc565b6000546001600160a01b031681565b60015490565b6000546001600160a01b031633146125265760405162461bcd60e51b815260040161038190614ad8565b60015485106125475760405162461bcd60e51b8152600401610381906149d3565b61254f613cc1565b60208082018590526040808301859052606083018490528683526000888152600283529081208054600181018255908252908290208351805185946013909402909201926125a292849290910190613b83565b50602082810151600183015560408301516002830155606083015160038301556080830151600483015560a0830151600583015560c0830151600683015560e083015160078301556101008301516008830155610120830151805161260d9260098501920190613b83565b50610140820151600a820155610160820151805161263591600b840191602090910190613b83565b50610180820151600c8201556101a0820151600d8201556101c0820151600e8201556101e0820151600f820155610200820151805161267e916010840191602090910190613b83565b50610220820151816011015561024082015181601201555050856000805160206152328339815191528260000151604051610afb9190614cb0565b6000546001600160a01b031633146126e35760405162461bcd60e51b815260040161038190614ad8565b60015482106127045760405162461bcd60e51b8152600401610381906149d3565b6127f3826040518060400160405280600d81526020016c657874656e6465645f6461746160981b8152506001858154811061274f57634e487b7160e01b600052603260045260246000fd5b90600052602060002090600e0201600001805461276b9061517f565b80601f01602080910402602001604051908101604052809291908181526020018280546127979061517f565b80156127e45780601f106127b9576101008083540402835291602001916127e4565b820191906000526020600020905b8154815290600101906020018083116127c757829003601f168201915b505050505084600001516137e4565b6128e2826040518060400160405280600d81526020016c636f6e74726163745f6e616d6560981b8152506001858154811061283e57634e487b7160e01b600052603260045260246000fd5b90600052602060002090600e0201600101805461285a9061517f565b80601f01602080910402602001604051908101604052809291908181526020018280546128869061517f565b80156128d35780601f106128a8576101008083540402835291602001916128d3565b820191906000526020600020905b8154815290600101906020018083116128b657829003601f168201915b505050505084602001516137e4565b6129d1826040518060400160405280600d81526020016c636f6e74726163745f7479706560981b8152506001858154811061292d57634e487b7160e01b600052603260045260246000fd5b90600052602060002090600e020160020180546129499061517f565b80601f01602080910402602001604051908101604052809291908181526020018280546129759061517f565b80156129c25780601f10612997576101008083540402835291602001916129c2565b820191906000526020600020905b8154815290600101906020018083116129a557829003601f168201915b505050505084604001516137e4565b612ac0826040518060400160405280600d81526020016c333ab73234b733afb4b739ba3960991b81525060018581548110612a1c57634e487b7160e01b600052603260045260246000fd5b90600052602060002090600e02016003018054612a389061517f565b80601f0160208091040260200160405190810160405280929190818152602001828054612a649061517f565b8015612ab15780601f10612a8657610100808354040283529160200191612ab1565b820191906000526020600020905b815481529060010190602001808311612a9457829003601f168201915b505050505084606001516137e4565b612b39826040518060400160405280600f81526020016e1cd95c9d9a58d957d9995957dc18dd608a1b815250612b2760018681548110612b1057634e487b7160e01b600052603260045260246000fd5b90600052602060002090600e02016004015461369f565b612b34856080015161369f565b6137e4565b612bad826040518060400160405280600f81526020016e0e6cae4ecd2c6cabecccacabedac2f608b1b815250612ba060018681548110612b8957634e487b7160e01b600052603260045260246000fd5b90600052602060002090600e02016005015461369f565b612b348560a0015161369f565b612c21826040518060400160405280600f81526020016e1cd95c9d9a58d957d9995957d85b5d608a1b815250612c1460018681548110612bfd57634e487b7160e01b600052603260045260246000fd5b90600052602060002090600e020160060154613847565b612b348560c00151613847565b612c91826040518060400160405280600b81526020016a18591d985b98d957dc18dd60aa1b815250612c8460018681548110612c6d57634e487b7160e01b600052603260045260246000fd5b90600052602060002090600e02016007015461369f565b612b348560e0015161369f565b612d03826040518060400160405280600c81526020016b1b185d1957d9995957dc18dd60a21b815250612cf560018681548110612cde57634e487b7160e01b600052603260045260246000fd5b90600052602060002090600e02016008015461369f565b612b3485610100015161369f565b612df4826040518060400160405280600e81526020016d7472616e736163745f6c6f67696360901b81525060018581548110612d4f57634e487b7160e01b600052603260045260246000fd5b90600052602060002090600e02016009018054612d6b9061517f565b80601f0160208091040260200160405190810160405280929190818152602001828054612d979061517f565b8015612de45780601f10612db957610100808354040283529160200191612de4565b820191906000526020600020905b815481529060010190602001808311612dc757829003601f168201915b50505050508461012001516137e4565b612edc82604051806040016040528060058152602001646e6f74657360d81b81525060018581548110612e3757634e487b7160e01b600052603260045260246000fd5b90600052602060002090600e0201600c018054612e539061517f565b80601f0160208091040260200160405190810160405280929190818152602001828054612e7f9061517f565b8015612ecc5780601f10612ea157610100808354040283529160200191612ecc565b820191906000526020600020905b815481529060010190602001808311612eaf57829003601f168201915b50505050508461018001516137e4565b612f50826040518060400160405280600981526020016869735f61637469766560b81b815250612f4260018681548110612f2657634e487b7160e01b600052603260045260246000fd5b60009182526020909120600d600e90920201015460ff166139fe565b612b34856101a001516139fe565b612fcb826040518060400160405280600881526020016769735f71756f746560c01b815250612fbd60018681548110612f9957634e487b7160e01b600052603260045260246000fd5b90600052602060002090600e0201600d0160019054906101000a900460ff166139fe565b612b34856101c001516139fe565b8060018381548110612fed57634e487b7160e01b600052603260045260246000fd5b90600052602060002090600e02016000820151816000019080519060200190613017929190613b83565b5060208281015180516130309260018501920190613b83565b506040820151805161304c916002840191602090910190613b83565b5060608201518051613068916003840191602090910190613b83565b506080820151600482015560a0820151600582015560c0820151600682015560e08201516007820155610100820151600882015561012082015180516130b8916009840191602090910190613b83565b50610140820151600a820155610160820151600b82015561018082015180516130eb91600c840191602090910190613b83565b506101a0820151600d90910180546101c09093015115156101000261ff001992151560ff1990941693909317919091169190911790555050565b6000546001600160a01b0316331461314f5760405162461bcd60e51b815260040161038190614ad8565b600180548082018255600091909152815180518392600e027fb10e2d527612073b26eecdfd717e6a320cf44b4afac2b0732d9fcbe2b7fa0cf6019161319991839160200190613b83565b5060208281015180516131b29260018501920190613b83565b50604082015180516131ce916002840191602090910190613b83565b50606082015180516131ea916003840191602090910190613b83565b506080820151600482015560a0820151600582015560c0820151600682015560e082015160078201556101008201516008820155610120820151805161323a916009840191602090910190613b83565b50610140820151600a820155610160820151600b820155610180820151805161326d91600c840191602090910190613b83565b506101a0820151600d90910180546101c09093015115156101000261ff001992151560ff199094169390931791909116919091179055600180546132b1919061513c565b60008051602061523283398151915282602001516040516103de919061499c565b60015460609082106132f65760405162461bcd60e51b8152600401610381906149d3565b600082815260046020908152604080832080548251818502810185019093528083529193909284015b82821015610cc557838290600052602060002090600502016040518060a00160405290816000820180546133529061517f565b80601f016020809104026020016040519081016040528092919081815260200182805461337e9061517f565b80156133cb5780601f106133a0576101008083540402835291602001916133cb565b820191906000526020600020905b8154815290600101906020018083116133ae57829003601f168201915b505050505081526020016001820180546133e49061517f565b80601f01602080910402602001604051908101604052809291908181526020018280546134109061517f565b801561345d5780601f106134325761010080835404028352916020019161345d565b820191906000526020600020905b81548152906001019060200180831161344057829003601f168201915b50505050508152602001600282015481526020016003820180546134809061517f565b80601f01602080910402602001604051908101604052809291908181526020018280546134ac9061517f565b80156134f95780601f106134ce576101008083540402835291602001916134f9565b820191906000526020600020905b8154815290600101906020018083116134dc57829003601f168201915b505050505081526020016004820180546135129061517f565b80601f016020809104026020016040519081016040528092919081815260200182805461353e9061517f565b801561358b5780601f106135605761010080835404028352916020019161358b565b820191906000526020600020905b81548152906001019060200180831161356e57829003601f168201915b5050505050815250508152602001906001019061331f565b6000546001600160a01b031633146135cd5760405162461bcd60e51b815260040161038190614ad8565b60015481106135ee5760405162461bcd60e51b8152600401610381906149d3565b600081815260056020526040812061360591613d53565b806000805160206152328339815191526040516103de90614c13565b6000546001600160a01b0316331461364b5760405162461bcd60e51b815260040161038190614ad8565b600154811061366c5760405162461bcd60e51b8152600401610381906149d3565b600081815260036020526040812061368391613d74565b806000805160206152328339815191526040516103de90614a03565b6060816136c457506040805180820190915260018152600360fc1b6020820152610ccc565b8160005b81156136ee57806136d8816151ba565b91506136e79050600a83615047565b91506136c8565b6000816001600160401b0381111561371657634e487b7160e01b600052604160045260246000fd5b6040519080825280601f01601f191660200182016040528015613740576020820181803683370190505b509050815b85156137db5761375660018261513c565b90506000613765600a88615047565b61377090600a6150de565b61377a908861513c565b613785906030614ff4565b905060008160f81b9050808484815181106137b057634e487b7160e01b600052603260045260246000fd5b60200101906001600160f81b031916908160001a9053506137d2600a89615047565b97505050613745565b50949350505050565b8080519060200120828051906020012014613841578360008051602061523283398151915284848460405160200161381e93929190614571565b60408051601f198184030181529082905261383891614b6a565b60405180910390a25b50505050565b60608161386c57506040805180820190915260018152600360fc1b6020820152610ccc565b6000808312908084831561389357613883816151d5565b90508261388f816151ba565b9350505b8091505b81156138bd57826138a7816151ba565b93506138b69050600a83615047565b9150613897565b6000836001600160401b038111156138e557634e487b7160e01b600052604160045260246000fd5b6040519080825280601f01601f19166020018201604052801561390f576020820181803683370190505b5091925082919050835b83156139af5761392a60018261513c565b90506000613939600a86615047565b61394490600a6150de565b61394e908661513c565b613959906030614ff4565b905060008160f81b90508084848151811061398457634e487b7160e01b600052603260045260246000fd5b60200101906001600160f81b031916908160001a9053506139a6600a87615047565b95505050613919565b85156139f357602d60f81b826000815181106139db57634e487b7160e01b600052603260045260246000fd5b60200101906001600160f81b031916908160001a9053505b509695505050505050565b606081613a28576040518060400160405280600581526020016466616c736560d81b815250613a46565b604051806040016040528060048152602001637472756560e01b8152505b92915050565b5080546000825560050290600052602060002090810190613a6d9190613d95565b50565b828054613a7c9061517f565b90600052602060002090601f016020900481019282613a9e5760008555613aeb565b82601f10613aaf5780548555613aeb565b82800160010185558215613aeb57600052602060002091601f016020900482015b82811115613aeb578254825591600101919060010190613ad0565b50613af7929150613de6565b5090565b508054613b079061517f565b6000825580601f10613b195750613a6d565b601f016020900490600052602060002090810190613a6d9190613de6565b6040518061012001604052806060815260200160008152602001600081526020016000815260200160008152602001606081526020016000815260200160008152602001606081525090565b828054613b8f9061517f565b90600052602060002090601f016020900481019282613bb15760008555613aeb565b82601f10613bca57805160ff1916838001178555613aeb565b82800160010185558215613aeb579182015b82811115613aeb578251825591602001919060010190613bdc565b6040518060a0016040528060608152602001606081526020016000815260200160608152602001606081525090565b5080546000825560130290600052602060002090810190613a6d9190613dfb565b604051806101e00160405280606081526020016060815260200160608152602001606081526020016000815260200160008152602001600081526020016000815260200160008152602001606081526020016000815260200160008152602001606081526020016000151581526020016000151581525090565b604051806102600160405280606081526020016000815260200160008152602001600081526020016000815260200160008152602001600081526020016000815260200160008152602001606081526020016000815260200160608152602001600081526020016000815260200160008152602001600081526020016060815260200160008152602001600081525090565b5080546000825560030290600052602060002090810190613a6d9190613ebe565b5080546000825560090290600052602060002090810190613a6d9190613efb565b80821115613af7576000613da98282613afb565b613db7600183016000613afb565b6002820160009055600382016000613dcf9190613afb565b613ddd600483016000613afb565b50600501613d95565b5b80821115613af75760008155600101613de7565b80821115613af7576000613e0f8282613afb565b60018201600090556002820160009055600382016000905560048201600090556005820160009055600682016000905560078201600090556008820160009055600982016000613e5f9190613afb565b600a820160009055600b82016000613e779190613afb565b600c820160009055600d820160009055600e820160009055600f820160009055601082016000613ea79190613afb565b506000601182018190556012820155601301613dfb565b80821115613af7576000613ed28282613afb565b6001820180546001600160a01b0319169055613ef2600283016000613afb565b50600301613ebe565b80821115613af7576000613f0f8282613afb565b6001820160009055600282016000905560038201600090556004820160009055600582016000613f3f9190613afb565b60068201600090556007820160009055600882016000613f5f9190613afb565b50600901613efb565b80358015158114610ccc57600080fd5b600082601f830112613f88578081fd5b81356001600160401b03811115613fa157613fa161521b565b613fb4601f8201601f1916602001614f72565b818152846020838601011115613fc8578283fd5b816020850160208301379081016020019190915292915050565b60006101e0808385031215613ff5578182fd5b613ffe81614f72565b91505081356001600160401b038082111561401857600080fd5b61402485838601613f78565b8352602084013591508082111561403a57600080fd5b61404685838601613f78565b6020840152604084013591508082111561405f57600080fd5b61406b85838601613f78565b6040840152606084013591508082111561408457600080fd5b61409085838601613f78565b60608401526080840135608084015260a084013560a084015260c084013560c084015260e084013560e084015261010091508184013582840152610120915081840135818111156140e057600080fd5b6140ec86828701613f78565b92840192909252610140848101359084015261016080850135908401526101809150818401358181111561411f57600080fd5b61412b86828701613f78565b838501525050506101a0614140818401613f68565b908201526101c0614152838201613f68565b9082015292915050565b60006020828403121561416d578081fd5b81356001600160401b03811115614182578182fd5b61418e84828501613fe2565b949350505050565b6000602082840312156141a7578081fd5b5035919050565b600080600080600060a086880312156141c5578081fd5b8535945060208601356001600160401b03808211156141e2578283fd5b6141ee89838a01613f78565b95506040880135915080821115614203578283fd5b61420f89838a01613f78565b94506060880135915080821115614224578283fd5b5061423188828901613f78565b95989497509295608001359392505050565b600080600080600060a0868803121561425a578081fd5b8535945060208601356001600160401b0380821115614277578283fd5b61428389838a01613f78565b9550604088013594506060880135935060808801359150808211156142a6578283fd5b506142b388828901613f78565b9150509295509295909350565b600080600080600060a086880312156142d7578081fd5b8535945060208601356001600160401b038111156142f3578182fd5b6142ff88828901613f78565b959895975050505060408401359360608101359360809091013592509050565b60008060408385031215614331578182fd5b8235915060208301356001600160401b0381111561434d578182fd5b61435985828601613fe2565b9150509250929050565b60008060408385031215614375578182fd5b8235915060208301356001600160401b0380821115614392578283fd5b90840190606082870312156143a5578283fd5b6040516060810181811083821117156143c0576143c061521b565b6040528235828111156143d1578485fd5b6143dd88828601613f78565b82525060208301356001600160a01b03811681146143f9578485fd5b602082015260408301358281111561440f578485fd5b61441b88828601613f78565b6040830152508093505050509250929050565b60008060408385031215614440578182fd5b50508035926020909101359150565b600080600080600060a08688031215614466578081fd5b8535945060208601359350604086013592506060860135915060808601356001600160401b03811115614497578182fd5b6142b388828901613f78565b60008060008060008060c087890312156144bb578384fd5b8635955060208701359450604087013593506060870135925060808701356001600160401b03808211156144ed578283fd5b6144f98a838b01613f78565b935060a089013591508082111561450e578283fd5b5061451b89828a01613f78565b9150509295509295509295565b600080600080600060a08688031215614466578283fd5b15159052565b6000815180845261455d816020860160208601615153565b601f01601f19169290920160200192915050565b60008451614583818460208901615153565b601d60f91b90830190815284516145a1816001840160208901615153565b61169f60f11b6001929091019182015283516145c4816003840160208801615153565b0160030195945050505050565b6001600160a01b0391909116815260200190565b60208082528251828201819052600091906040908185019080840286018301878501865b8381101561469b57603f19898403018552815160a0815181865261462f82870182614545565b915050888201518582038a8701526146478282614545565b9150508782015188860152606080830151868303828801526146698382614545565b92505050608080830151925085820381870152506146878183614545565b968901969450505090860190600101614609565b509098975050505050505050565b60208082528251828201819052600091906040908185019080840286018301878501865b8381101561469b57603f198984030185528151606081518186526146f382870182614545565b838b01516001600160a01b0316878c0152928901518684038a88015292915061471e90508183614545565b9689019694505050908601906001016146cd565b60208082528251828201819052600091906040908185019080840286018301878501865b8381101561469b57603f198984030185528151610260815181865261477d82870182614545565b838b0151878c0152898401518a880152606080850151908801526080808501519088015260a0808501519088015260c0808501519088015260e08085015190880152610100808501519088015261012080850151888303828a015291935091506147e78382614545565b92505050610140808301518187015250610160808301518683038288015261480f8382614545565b61018085810151908901526101a080860151908901526101c080860151908901526101e0808601519089015261020080860151898303828b01529194509250905061485a8382614545565b61022085810151908901526102409485015194909701939093525050509386019390860190600101614756565b60208082528251828201819052600091906040908185019080840286018301878501865b8381101561469b57603f19898403018552815161012081518186526148d282870182614545565b915050888201518986015287820151888601526060808301518187015250608080830151818701525060a080830151868303828801526149128382614545565b9250505060c080830151818701525060e080830151818701525061010080830151925085820381870152506149478183614545565b9689019694505050908601906001016148ab565b600060408252601060408301526f151c985b9cd858dd1a5bdb905919195960821b6060830152608060208301526149956080830184614545565b9392505050565b600060408252600d60408301526c10dbdb9d1c9858dd1059191959609a1b6060830152608060208301526149956080830184614545565b602080825260169082015275092dcecc2d8d2c840c6dedce8e4c2c6e840d2dcc8caf60531b604082015260600190565b604080825260139082015272151c985b9cd858dd1a5bdb9cd1195b195d1959606a1b606082015260806020820181905260009082015260a00190565b6040808252600a9082015269506179416476616e636560b01b606082015260806020820181905260009082015260a00190565b602080825260169082015275092dcecc2d8d2c840c2e4e8d2ccc2c6e840d2dcc8caf60531b604082015260600190565b600060408252600c60408301526b14185c9d1e51195b195d195960a21b6060830152608060208301526149956080830184614545565b60208082526039908201527f4163636573732064656e6965642c206f6e6c7920636f6e7472616374206f776e60408201527f65722063616e2063616c6c20746869732066756e6374696f6e00000000000000606082015260800190565b6040808252600c908201526b14995cda591d585b14185a5960a21b606082015260806020820181905260009082015260a00190565b600060408252600f60408301526e10dbdb9d1c9858dd155c19185d1959608a1b6060830152608060208301526149956080830184614545565b600060408252600f60408301526e105c9d1a599858dd11195b195d1959608a1b6060830152608060208301526149956080830184614545565b6040808252600e908201526d141bdcdd14d95d1d1b195b595b9d60921b606082015260806020820181905260009082015260a00190565b6040808252600e908201526d14185c9d1a595cd1195b195d195960921b606082015260806020820181905260009082015260a00190565b60408082526010908201526f105c9d1a599858dd1cd1195b195d195960821b606082015260806020820181905260009082015260a00190565b602080825260139082015272092dcecc2d8d2c840e0c2e4e8f240d2dcc8caf606b1b604082015260600190565b600060408252600f60408301526e14d95d1d1b195b595b9d1059191959608a1b6060830152608060208301526149956080830184614545565b600060408252600a60408301526914185c9d1e505919195960b21b6060830152608060208301526149956080830184614545565b60408082526012908201527114d95d1d1b195b595b9d1cd1195b195d195960721b606082015260806020820181905260009082015260a00190565b600060408252600f60408301526e10dbdb9d1c9858dd11195b195d1959608a1b6060830152608060208301526149956080830184614545565b600060408252600d60408301526c105c9d1a599858dd1059191959609a1b6060830152608060208301526149956080830184614545565b60408082526010908201526f2a3930b739b0b1ba34b7b722b93937b960811b6060820152608060208201819052601a908201527f4e6f2076616c696420736574746c656d656e7420706572696f6400000000000060a082015260c00190565b60006020825282516101e0806020850152614e46610200850183614545565b91506020850151601f1980868503016040870152614e648483614545565b93506040870151915080868503016060870152614e818483614545565b93506060870151915080868503016080870152614e9e8483614545565b9350608087015160a087015260a087015160c087015260c087015160e087015260e08701519150610100828188015280880151925050610120828188015280880151925050610140818786030181880152614ef98584614545565b90880151610160888101919091528801516101808089019190915288015187820383016101a0808a01919091529195509250614f358584614545565b945080880151925050506101c0614f4e8187018361453f565b8601519050614f5f8583018261453f565b5090949350505050565b90815260200190565b6040518181016001600160401b0381118282101715614f9357614f9361521b565b604052919050565b600080821280156001600160ff1b0384900385131615614fbd57614fbd6151ef565b600160ff1b8390038412811615614fd657614fd66151ef565b50500190565b60008219821115614fef57614fef6151ef565b500190565b600060ff821660ff84168060ff03821115615011576150116151ef565b019392505050565b60008261502857615028615205565b600160ff1b821460001984141615615042576150426151ef565b500590565b60008261505657615056615205565b500490565b60006001600160ff1b0381841382841380821686840486111615615081576150816151ef565b600160ff1b8487128281168783058912161561509f5761509f6151ef565b8587129250878205871284841616156150ba576150ba6151ef565b878505871281841616156150d0576150d06151ef565b505050929093029392505050565b60008160001904831182151516156150f8576150f86151ef565b500290565b60008083128015600160ff1b85018412161561511b5761511b6151ef565b6001600160ff1b0384018313811615615136576151366151ef565b50500390565b60008282101561514e5761514e6151ef565b500390565b60005b8381101561516e578181015183820152602001615156565b838111156138415750506000910152565b60028104600182168061519357607f821691505b602082108114156151b457634e487b7160e01b600052602260045260246000fd5b50919050565b60006000198214156151ce576151ce6151ef565b5060010190565b6000600160ff1b8214156151eb576151eb6151ef565b0390565b634e487b7160e01b600052601160045260246000fd5b634e487b7160e01b600052601260045260246000fd5b634e487b7160e01b600052604160045260246000fdfe345796c5f37ac4d00f0bd7eebb6ba729df51ddd74dafb2db6bf0c4a4a354577aa26469706673582212201e96323765da0cb6870dba611c2e93eb48eb7b2b6032ebf7df83262c7bd2ef8764736f6c63430008000033",
  "immutableReferences": {},
  "source": "// SPDX-License-Identifier: MIT\npragma solidity ^0.8.0;\n\ncontract Delivery {\n\n    address public owner;\n\n    Contract[] contracts;                                   // [contract_idx]\n    mapping (uint => Settlement[]) private settlements;     // contract_idx => settlement[]\n    mapping (uint => Transaction[]) private transactions;   // contract_idx => transaction[]\n    mapping (uint => Artifact[]) private artifacts;         // contract_idx => artifact_list[]\n    mapping (uint => Party[]) private parties;              // contract_idx => party[]\n\n    // every field ending in _dt is a unix timestamp\n    // every field ending in _amt is an integer representing a float with 2 decimals\n    // every field ending in _pct is an integer represending a float value with 4 decimals \n    // every field ending in _confirm is a string returned from the fiat payment provider\n\n    struct Contract {\n        string extended_data;           // json extended data\n        string contract_name;           // description for display purposes\n        string contract_type;           // the type of contract, e.g. ticketing, construction\n        string funding_instr;           // buyer funding instructions\n        uint service_fee_pct;           // service fee pct <= service_fee_max\n        uint service_fee_max;           // maximum fee that can be charged if the rate is variable\n        int service_fee_amt;            // flat rate amt if not percentage based\n        uint advance_pct;               // amount of money that will be advanced to seller for every transaction\n        uint late_fee_pct;              // an APR, daily rate calculated as late_fee_pct / 365\n        string transact_logic;          // jsonlogic formula for calculating transaction amount\n        int min_threshold;              // minimum expected amount for a deliverable (could be negative)\n        int max_threshold;              // maximum expected amount for a deliverable\n        string notes;                   // contract notes, can be used for additonal data requests\n        bool is_active;                 // instead of deleting, clear this flag to False\n        bool is_quote;                  // true if still in the quote stage\n    }\n\n    struct Settlement {\n        string extended_data;           // json extended data\n        uint settle_due_dt;             // date the payment is due \n        uint transact_min_dt;           // min date the transaction is made \n        uint transact_max_dt;           // max date the transaction is made \n        uint transact_count;            // number of transactions in this current settlement period \n        int advance_amt;                // the dollar amount that was advanced in this period\n        uint settle_pay_dt;             // when the settlement was paid\n        int settle_exp_amt;             // expected amount of settlement 0\n        int settle_pay_amt;             // actual amount paid from the buyer\n        string settle_confirm;          // confirmation from payment source\n        int dispute_amt;                // if expected < actual, assume there was a dispute\n        string dispute_reason;          // if dispute_amt > 0, what was the reason (if provided)\n        uint days_late;                 // number of days late the payment was made\n        int late_fee_amt;               // amount of the late fee, will be taken out of the residual\n        uint residual_pay_dt;           // date and time the residual was paid\n        int residual_pay_amt;           // will equal residual_calc_amt after payment intitiated\n        string residual_confirm;        // residual confirmation from the payment source\n        int residual_exp_amt;           // expected amount of the residual\n        int residual_calc_amt;          // what the actual residual will be (exp - late_fee - dispute)\n    }\n\n    struct Transaction {\n        string extended_data;           // json extended data\n        uint transact_dt;               // date and time of the transaction\n        int transact_amt;               // calculated value of a transaction, negative if an adjustment\n        int service_fee_amt;            // calculated fee for a transaction\n        int advance_amt;                // advance_amt * advance_pct - service_fee_amt\n        string transact_data;           // data regarding transaction for jsonlogic    \n        uint advance_pay_dt;            // payment of advance\n        uint advance_pay_amt;           // will equal advance amt after payment initiated\n        string advance_confirm;         // payment confirmation of the advance from payment source\n    }\n\n    struct Artifact {\n        string artifact_id;             // external identifier\n        string extended_data;           // json extended data\n        uint added_dt;                  // date artifact was added\n        string doc_title;               // name of documents\n        string doc_type;                // document type\n    }\n\n    struct Party {\n        string party_code;              // code associated with a party\n        address party_address;          // wallet address\n        string party_type;              // the type of party associated with contract\n    }\n\n    event ContractEvent(uint indexed contract_idx, string eventType, string details);\n\n    constructor() {\n        owner = msg.sender;\n    }\n\n    modifier onlyOwner() {\n        require(msg.sender == owner, \"Access denied, only contract owner can call this function\");\n        _;\n    }\n\n    function getContractCount() public view returns (uint) {\n        return contracts.length;\n    }\n\n    function getContract(uint contract_idx) public view returns (Contract memory) {\n        require(contract_idx < contracts.length, \"Invalid contract index\");\n        return contracts[contract_idx];\n    }\n\n    function addContract (Contract memory contract_) public onlyOwner {\n        contracts.push(contract_);\n        emit ContractEvent(contracts.length - 1, \"ContractAdded\", contract_.contract_name);\n    }\n\n    function logContractChange(uint contract_idx, string memory field, string memory old_value, string memory new_value) private {\n        if (keccak256(bytes(old_value)) != keccak256(bytes(new_value))) {\n            emit ContractEvent(contract_idx, \"ContractUpdated\", string(abi.encodePacked(field, \":\", old_value, \"->\", new_value)));\n        }\n    }\n\n    function updateContract (uint contract_idx, Contract memory contract_) public onlyOwner {\n        require(contract_idx < contracts.length, \"Invalid contract index\");\n        logContractChange(contract_idx, \"extended_data\", contracts[contract_idx].extended_data, contract_.extended_data);\n        logContractChange(contract_idx, \"contract_name\", contracts[contract_idx].contract_name, contract_.contract_name);\n        logContractChange(contract_idx, \"contract_type\", contracts[contract_idx].contract_type, contract_.contract_type);\n        logContractChange(contract_idx, \"funding_instr\", contracts[contract_idx].funding_instr, contract_.funding_instr);\n        logContractChange(contract_idx, \"service_fee_pct\", uintToString(contracts[contract_idx].service_fee_pct), uintToString(contract_.service_fee_pct));\n        logContractChange(contract_idx, \"service_fee_max\", uintToString(contracts[contract_idx].service_fee_max), uintToString(contract_.service_fee_max));\n        logContractChange(contract_idx, \"service_fee_amt\", intToString(contracts[contract_idx].service_fee_amt), intToString(contract_.service_fee_amt));\n        logContractChange(contract_idx, \"advance_pct\", uintToString(contracts[contract_idx].advance_pct), uintToString(contract_.advance_pct));\n        logContractChange(contract_idx, \"late_fee_pct\", uintToString(contracts[contract_idx].late_fee_pct), uintToString(contract_.late_fee_pct));\n        logContractChange(contract_idx, \"transact_logic\", contracts[contract_idx].transact_logic, contract_.transact_logic);\n        logContractChange(contract_idx, \"notes\", contracts[contract_idx].notes, contract_.notes);\n        logContractChange(contract_idx, \"is_active\", boolToString(contracts[contract_idx].is_active), boolToString(contract_.is_active));\n        logContractChange(contract_idx, \"is_quote\", boolToString(contracts[contract_idx].is_quote), boolToString(contract_.is_quote));\n        contracts[contract_idx] = contract_;\n    }\n\n    // Mark a contract as inactive \n    function deleteContract(uint contract_idx) public onlyOwner {\n        require(contract_idx < contracts.length, \"Invalid contract index\");\n        contracts[contract_idx].is_active = false;\n        emit ContractEvent(contract_idx, \"ContractDeleted\", uintToString(contract_idx));\n    }\n\n    function getParties(uint contract_idx) public view returns (Party[] memory) {\n        require(contract_idx < contracts.length, \"Invalid contract index\");\n        return parties[contract_idx];\n    }\n\n    function addParty(uint contract_idx, Party memory party) public onlyOwner {\n        require(contract_idx < contracts.length, \"Invalid contract index\");\n        parties[contract_idx].push(party);\n        emit ContractEvent(contract_idx, \"PartyAdded\", party.party_code);\n    }\n\n    function deleteParty(uint contract_idx, uint party_idx) public onlyOwner {\n        require(contract_idx < contracts.length, \"Invalid contract index\");\n        require(party_idx < parties[contract_idx].length, \"Invalid party index\");\n\n        for (uint i = party_idx; i < parties[contract_idx].length - 1; i++) {\n            parties[contract_idx][i] = parties[contract_idx][i + 1];\n        }\n\n        parties[contract_idx].pop();\n\n        emit ContractEvent(contract_idx, \"PartyDeleted\", uintToString(party_idx));\n    }\n\n    function deleteParties(uint contract_idx) public onlyOwner {\n        require(contract_idx < contracts.length, \"Invalid contract index\");\n        delete parties[contract_idx];\n        emit ContractEvent(contract_idx, \"PartiesDeleted\", \"\");\n    }\n\n    function getArtifacts(uint contract_idx) public view returns (Artifact[] memory) {\n        require(contract_idx < contracts.length, \"Invalid contract index\");\n        return artifacts[contract_idx];\n    }\n\n    function addArtifact(uint contract_idx, string memory artifact_id, string memory doc_title, string memory doc_type, uint added_dt) public onlyOwner {\n        require(contract_idx < contracts.length, \"Invalid contract index\");\n        Artifact memory artifact;\n        artifact.added_dt = added_dt;\n        artifact.artifact_id = artifact_id;\n        artifact.doc_title = doc_title;\n        artifact.doc_type = doc_type; \n        artifacts[contract_idx].push(artifact);\n        emit ContractEvent(contract_idx, \"ArtifactAdded\", doc_title);\n    }\n\n    function deleteArtifact(uint contract_idx, uint artifact_idx) public onlyOwner {\n        require(contract_idx < contracts.length, \"Invalid contract index\");\n        require(artifact_idx < artifacts[contract_idx].length, \"Invalid artifact index\");\n\n        for (uint i = artifact_idx; i < artifacts[contract_idx].length - 1; i++) {\n            artifacts[contract_idx][i] = artifacts[contract_idx][i + 1];\n        }\n\n        artifacts[contract_idx].pop();\n\n        emit ContractEvent(contract_idx, \"ArtifactDeleted\", uintToString(artifact_idx));\n    }\n\n    function deleteArtifacts(uint contract_idx) public onlyOwner {\n        require(contract_idx < contracts.length, \"Invalid contract index\");\n        delete artifacts[contract_idx];\n        emit ContractEvent(contract_idx, \"ArtifactsDeleted\", \"\");\n    }\n\n    function getSettlements(uint contract_idx) public view returns (Settlement[] memory) {\n        require(contract_idx < contracts.length, \"Invalid contract index\");\n        return settlements[contract_idx];\n    }\n\n    function addSettlement(uint contract_idx, string memory extended_data, uint settle_due_dt, uint transact_min_dt, uint transact_max_dt) public onlyOwner {\n        require(contract_idx < contracts.length, \"Invalid contract index\");\n        Settlement memory settlement;\n        settlement.settle_due_dt = settle_due_dt;\n        settlement.transact_min_dt = transact_min_dt;\n        settlement.transact_max_dt = transact_max_dt;\n        settlement.extended_data = extended_data;\n        settlements[contract_idx].push(settlement);\n        emit ContractEvent(contract_idx, \"SettlementAdded\", settlement.extended_data);\n    }\n\n    function deleteSettlements(uint contract_idx) public onlyOwner {\n        require(contract_idx < contracts.length, \"Invalid contract index\");\n        delete settlements[contract_idx];\n        emit ContractEvent(contract_idx, \"SettlementsDeleted\", \"\");\n    }\n\n    function getTransactions(uint contract_idx) public view returns (Transaction[] memory) {\n        require(contract_idx < contracts.length, \"Invalid contract index\");\n        return transactions[contract_idx];\n    }\n\n    function deleteTransactions(uint contract_idx) public onlyOwner {\n        require(contract_idx < contracts.length, \"Invalid contract index\");\n        delete transactions[contract_idx];\n        emit ContractEvent(contract_idx, \"TransactionsDeleted\", \"\");\n    }\n\n    function addTransaction(uint contract_idx, string memory extended_data, uint transact_dt, int transact_amt, string memory transact_data) public onlyOwner {\n        require(contract_idx < contracts.length, \"Invalid contract index\");\n\n        Transaction memory transact;\n        transact.extended_data = extended_data;\n        transact.transact_dt = transact_dt;\n        transact.transact_amt = transact_amt;\n        transact.transact_data = transact_data;\n\n        bool settle_found = false;\n        int transact_advance_amt = 0;\n        int service_fee_amt = 0;\n\n        for (uint i = 0; i < settlements[contract_idx].length; i++) {\n            Settlement storage settlement = settlements[contract_idx][i];\n            // minimum date is inclusive, maximum date is exclusive\n            if (transact_dt >= settlement.transact_min_dt && transact_dt < settlement.transact_max_dt) {\n\n                if (transact_amt > 0) {\n                    service_fee_amt = int((contracts[contract_idx].service_fee_pct * uint(transact_amt)) / 10000) + int(contracts[contract_idx].service_fee_amt);\n                    int advance_amt_calculated = int((uint(transact_amt) * contracts[contract_idx].advance_pct) / 10000);\n\n                    // Determine the final advance amount after subtracting the service fee\n                    if (advance_amt_calculated >= service_fee_amt) {\n                        transact_advance_amt = advance_amt_calculated - service_fee_amt;\n                    }\n                }\n\n                // Store the advance amount back into the transaction\n                settlement.settle_exp_amt += transact_amt;\n                settlement.advance_amt += transact_advance_amt;\n                settlement.residual_exp_amt = settlement.settle_exp_amt - settlement.advance_amt;\n                settlement.transact_count++;\n                transact.advance_amt = transact_advance_amt;\n                transact.service_fee_amt = service_fee_amt;\n                settle_found = true;\n            }\n        }\n\n        if (settle_found) {\n            transactions[contract_idx].push(transact);\n            emit ContractEvent(contract_idx, \"TransactionAdded\", transact.extended_data);\n        } else {\n            emit ContractEvent(contract_idx, \"TransactionError\", \"No valid settlement period\");\n        }\n    }\n\n    function payAdvance(uint contract_idx, uint transact_idx, uint advance_pay_dt, uint advance_pay_amt, string memory advance_confirm) public onlyOwner {\n        require(contract_idx < contracts.length, \"Invalid contract index\");\n        transactions[contract_idx][transact_idx].advance_pay_dt = advance_pay_dt;\n        transactions[contract_idx][transact_idx].advance_pay_amt = advance_pay_amt;\n        transactions[contract_idx][transact_idx].advance_confirm = advance_confirm;\n        emit ContractEvent(contract_idx, \"PayAdvance\", \"\");\n    }\n\n    function postSettlement(uint contract_idx, uint settle_idx, uint settle_pay_dt, int settle_pay_amt, string memory settle_confirm, string memory dispute_reason) public onlyOwner {\n        require(contract_idx < contracts.length, \"Invalid contract index\");\n        settlements[contract_idx][settle_idx].settle_pay_dt = settle_pay_dt;\n        settlements[contract_idx][settle_idx].settle_pay_amt = settle_pay_amt;\n        settlements[contract_idx][settle_idx].settle_confirm = settle_confirm;\n\n        if (settle_pay_dt > settlements[contract_idx][settle_idx].settle_due_dt) {\n            settlements[contract_idx][settle_idx].days_late = (settle_pay_dt - settlements[contract_idx][settle_idx].settle_due_dt) / 60 / 60 / 24;\n\n            // Convert necessary values to int to match types and avoid errors\n            int days_late = int(settlements[contract_idx][settle_idx].days_late);\n            int late_fee_pct = int(contracts[contract_idx].late_fee_pct);\n            int settle_exp_amt = settlements[contract_idx][settle_idx].settle_exp_amt;\n\n            settlements[contract_idx][settle_idx].late_fee_amt = (days_late * ((late_fee_pct * 100000) / 365) * settle_exp_amt) / 1000000000;\n        }\n\n        if (settle_pay_amt < settlements[contract_idx][settle_idx].residual_exp_amt) {\n            settlements[contract_idx][settle_idx].dispute_amt = settlements[contract_idx][settle_idx].residual_exp_amt - settle_pay_amt;\n            settlements[contract_idx][settle_idx].dispute_reason = dispute_reason;\n        } \n\n        if ((settlements[contract_idx][settle_idx].residual_exp_amt - settlements[contract_idx][settle_idx].late_fee_amt - settlements[contract_idx][settle_idx].dispute_amt) > 0) {\n            settlements[contract_idx][settle_idx].residual_calc_amt = settlements[contract_idx][settle_idx].residual_exp_amt - settlements[contract_idx][settle_idx].late_fee_amt -\n                settlements[contract_idx][settle_idx].dispute_amt;\n        } else {\n            settlements[contract_idx][settle_idx].residual_calc_amt = 0;\n        }\n\n        emit ContractEvent(contract_idx, \"PostSettlement\", \"\");\n    }\n\n    function payResidual(uint contract_idx, uint settle_idx, uint residual_pay_dt, int residual_pay_amt, string memory residual_confirm) public onlyOwner {\n        require(contract_idx < contracts.length, \"Invalid contract index\");\n        settlements[contract_idx][settle_idx].residual_pay_dt = residual_pay_dt;\n        settlements[contract_idx][settle_idx].residual_pay_amt = residual_pay_amt;\n        settlements[contract_idx][settle_idx].residual_confirm = residual_confirm;\n        emit ContractEvent(contract_idx, \"ResidualPaid\", \"\");\n    }\n\n    function uintToString(uint v) internal pure returns (string memory) {\n        if (v == 0) {\n            return \"0\";\n        }\n        uint j = v;\n        uint len;\n        while (j != 0) {\n            len++;\n            j /= 10;\n        }\n        bytes memory bstr = new bytes(len);\n        uint k = len;\n        while (v != 0) {\n            k = k - 1;\n            uint8 temp = (48 + uint8(v - v / 10 * 10));\n            bytes1 b1 = bytes1(temp);\n            bstr[k] = b1;\n            v /= 10;\n        }\n        return string(bstr);\n    }\n\n   function intToString(int v) internal pure returns (string memory) {\n        if (v == 0) {\n            return \"0\";\n        }\n\n        bool negative = v < 0;\n        uint len = 0;\n        uint i;\n        int temp = v;\n\n        if (negative) {\n            temp = -temp;\n            len++;\n        }\n\n        i = uint(temp);\n\n        while (i != 0) {\n            len++;\n            i /= 10;\n        }\n\n        bytes memory bstr = new bytes(len);\n        uint k = len;\n        i = uint(temp);\n\n        while (i != 0) {\n            k = k - 1;\n            uint8 tempDigit = (48 + uint8(i - i / 10 * 10));\n            bytes1 b1 = bytes1(tempDigit);\n            bstr[k] = b1;\n            i /= 10;\n        }\n\n        if (negative) {\n            bstr[0] = '-';\n        }\n\n        return string(bstr);\n    } \n\n    function boolToString(bool v) internal pure returns (string memory) {\n        return v ? \"true\" : \"false\";\n    }\n}",
  "sourcePath": "/Users/davidnichamoff/Projects/FIZIT_DEV/truffle/contracts/Delivery.sol",
  "compiler": {
    "name": "solc",
    "version": "0.8.0+commit.c7dfd78e.Emscripten.clang"
  },
  "schemaVersion": "3.4.16",
  "updatedAt": "2024-08-27T00:05:34.596Z",
  "networkType": "ethereum",
  "devdoc": {
    "kind": "dev",
    "methods": {},
    "version": 1
  },
  "userdoc": {
    "kind": "user",
    "methods": {},
    "version": 1
  }
}