{
  "contractName": "Delivery",
  "abi": [
    {
      "inputs": [],
      "stateMutability": "nonpayable",
      "type": "constructor"
    },
    {
      "anonymous": false,
      "inputs": [
        {
          "indexed": true,
          "internalType": "uint256",
          "name": "contract_idx",
          "type": "uint256"
        },
        {
          "indexed": false,
          "internalType": "string",
          "name": "eventType",
          "type": "string"
        },
        {
          "indexed": false,
          "internalType": "string",
          "name": "details",
          "type": "string"
        }
      ],
      "name": "ContractEvent",
      "type": "event"
    },
    {
      "inputs": [],
      "name": "owner",
      "outputs": [
        {
          "internalType": "address",
          "name": "",
          "type": "address"
        }
      ],
      "stateMutability": "view",
      "type": "function",
      "constant": true
    },
    {
      "inputs": [],
      "name": "getContractCount",
      "outputs": [
        {
          "internalType": "uint256",
          "name": "",
          "type": "uint256"
        }
      ],
      "stateMutability": "view",
      "type": "function",
      "constant": true
    },
    {
      "inputs": [
        {
          "internalType": "uint256",
          "name": "contract_idx",
          "type": "uint256"
        }
      ],
      "name": "getContract",
      "outputs": [
        {
          "components": [
            {
              "internalType": "string",
              "name": "extended_data",
              "type": "string"
            },
            {
              "internalType": "string",
              "name": "contract_name",
              "type": "string"
            },
            {
              "internalType": "string",
              "name": "contract_type",
              "type": "string"
            },
            {
              "internalType": "string",
              "name": "funding_instr",
              "type": "string"
            },
            {
              "internalType": "uint256",
              "name": "service_fee_pct",
              "type": "uint256"
            },
            {
              "internalType": "uint256",
              "name": "service_fee_max",
              "type": "uint256"
            },
            {
              "internalType": "uint256",
              "name": "service_fee_amt",
              "type": "uint256"
            },
            {
              "internalType": "uint256",
              "name": "advance_pct",
              "type": "uint256"
            },
            {
              "internalType": "uint256",
              "name": "late_fee_pct",
              "type": "uint256"
            },
            {
              "internalType": "string",
              "name": "transact_logic",
              "type": "string"
            },
            {
              "internalType": "string",
              "name": "notes",
              "type": "string"
            },
            {
              "internalType": "bool",
              "name": "is_active",
              "type": "bool"
            },
            {
              "internalType": "bool",
              "name": "is_quote",
              "type": "bool"
            }
          ],
          "internalType": "struct Delivery.Contract",
          "name": "",
          "type": "tuple"
        }
      ],
      "stateMutability": "view",
      "type": "function",
      "constant": true
    },
    {
      "inputs": [
        {
          "components": [
            {
              "internalType": "string",
              "name": "extended_data",
              "type": "string"
            },
            {
              "internalType": "string",
              "name": "contract_name",
              "type": "string"
            },
            {
              "internalType": "string",
              "name": "contract_type",
              "type": "string"
            },
            {
              "internalType": "string",
              "name": "funding_instr",
              "type": "string"
            },
            {
              "internalType": "uint256",
              "name": "service_fee_pct",
              "type": "uint256"
            },
            {
              "internalType": "uint256",
              "name": "service_fee_max",
              "type": "uint256"
            },
            {
              "internalType": "uint256",
              "name": "service_fee_amt",
              "type": "uint256"
            },
            {
              "internalType": "uint256",
              "name": "advance_pct",
              "type": "uint256"
            },
            {
              "internalType": "uint256",
              "name": "late_fee_pct",
              "type": "uint256"
            },
            {
              "internalType": "string",
              "name": "transact_logic",
              "type": "string"
            },
            {
              "internalType": "string",
              "name": "notes",
              "type": "string"
            },
            {
              "internalType": "bool",
              "name": "is_active",
              "type": "bool"
            },
            {
              "internalType": "bool",
              "name": "is_quote",
              "type": "bool"
            }
          ],
          "internalType": "struct Delivery.Contract",
          "name": "contract_",
          "type": "tuple"
        }
      ],
      "name": "addContract",
      "outputs": [],
      "stateMutability": "nonpayable",
      "type": "function"
    },
    {
      "inputs": [
        {
          "internalType": "uint256",
          "name": "contract_idx",
          "type": "uint256"
        },
        {
          "components": [
            {
              "internalType": "string",
              "name": "extended_data",
              "type": "string"
            },
            {
              "internalType": "string",
              "name": "contract_name",
              "type": "string"
            },
            {
              "internalType": "string",
              "name": "contract_type",
              "type": "string"
            },
            {
              "internalType": "string",
              "name": "funding_instr",
              "type": "string"
            },
            {
              "internalType": "uint256",
              "name": "service_fee_pct",
              "type": "uint256"
            },
            {
              "internalType": "uint256",
              "name": "service_fee_max",
              "type": "uint256"
            },
            {
              "internalType": "uint256",
              "name": "service_fee_amt",
              "type": "uint256"
            },
            {
              "internalType": "uint256",
              "name": "advance_pct",
              "type": "uint256"
            },
            {
              "internalType": "uint256",
              "name": "late_fee_pct",
              "type": "uint256"
            },
            {
              "internalType": "string",
              "name": "transact_logic",
              "type": "string"
            },
            {
              "internalType": "string",
              "name": "notes",
              "type": "string"
            },
            {
              "internalType": "bool",
              "name": "is_active",
              "type": "bool"
            },
            {
              "internalType": "bool",
              "name": "is_quote",
              "type": "bool"
            }
          ],
          "internalType": "struct Delivery.Contract",
          "name": "contract_",
          "type": "tuple"
        }
      ],
      "name": "updateContract",
      "outputs": [],
      "stateMutability": "nonpayable",
      "type": "function"
    },
    {
      "inputs": [
        {
          "internalType": "uint256",
          "name": "contract_idx",
          "type": "uint256"
        }
      ],
      "name": "getParties",
      "outputs": [
        {
          "components": [
            {
              "internalType": "string",
              "name": "party_code",
              "type": "string"
            },
            {
              "internalType": "address",
              "name": "party_address",
              "type": "address"
            },
            {
              "internalType": "string",
              "name": "party_type",
              "type": "string"
            }
          ],
          "internalType": "struct Delivery.Party[]",
          "name": "",
          "type": "tuple[]"
        }
      ],
      "stateMutability": "view",
      "type": "function",
      "constant": true
    },
    {
      "inputs": [
        {
          "internalType": "uint256",
          "name": "contract_idx",
          "type": "uint256"
        },
        {
          "components": [
            {
              "internalType": "string",
              "name": "party_code",
              "type": "string"
            },
            {
              "internalType": "address",
              "name": "party_address",
              "type": "address"
            },
            {
              "internalType": "string",
              "name": "party_type",
              "type": "string"
            }
          ],
          "internalType": "struct Delivery.Party",
          "name": "party",
          "type": "tuple"
        }
      ],
      "name": "addParty",
      "outputs": [],
      "stateMutability": "nonpayable",
      "type": "function"
    },
    {
      "inputs": [
        {
          "internalType": "uint256",
          "name": "contract_idx",
          "type": "uint256"
        },
        {
          "internalType": "uint256",
          "name": "party_idx",
          "type": "uint256"
        }
      ],
      "name": "deleteParty",
      "outputs": [],
      "stateMutability": "nonpayable",
      "type": "function"
    },
    {
      "inputs": [
        {
          "internalType": "uint256",
          "name": "contract_idx",
          "type": "uint256"
        }
      ],
      "name": "deleteParties",
      "outputs": [],
      "stateMutability": "nonpayable",
      "type": "function"
    },
    {
      "inputs": [
        {
          "internalType": "uint256",
          "name": "contract_idx",
          "type": "uint256"
        }
      ],
      "name": "getArtifacts",
      "outputs": [
        {
          "components": [
            {
              "internalType": "string",
              "name": "artifact_id",
              "type": "string"
            },
            {
              "internalType": "string",
              "name": "extended_data",
              "type": "string"
            },
            {
              "internalType": "uint256",
              "name": "added_dt",
              "type": "uint256"
            },
            {
              "internalType": "string",
              "name": "doc_title",
              "type": "string"
            },
            {
              "internalType": "string",
              "name": "doc_type",
              "type": "string"
            }
          ],
          "internalType": "struct Delivery.Artifact[]",
          "name": "",
          "type": "tuple[]"
        }
      ],
      "stateMutability": "view",
      "type": "function",
      "constant": true
    },
    {
      "inputs": [
        {
          "internalType": "uint256",
          "name": "contract_idx",
          "type": "uint256"
        },
        {
          "internalType": "string",
          "name": "artifact_id",
          "type": "string"
        },
        {
          "internalType": "string",
          "name": "doc_title",
          "type": "string"
        },
        {
          "internalType": "string",
          "name": "doc_type",
          "type": "string"
        },
        {
          "internalType": "uint256",
          "name": "added_dt",
          "type": "uint256"
        }
      ],
      "name": "addArtifact",
      "outputs": [],
      "stateMutability": "nonpayable",
      "type": "function"
    },
    {
      "inputs": [
        {
          "internalType": "uint256",
          "name": "contract_idx",
          "type": "uint256"
        },
        {
          "internalType": "uint256",
          "name": "artifact_idx",
          "type": "uint256"
        }
      ],
      "name": "deleteArtifact",
      "outputs": [],
      "stateMutability": "nonpayable",
      "type": "function"
    },
    {
      "inputs": [
        {
          "internalType": "uint256",
          "name": "contract_idx",
          "type": "uint256"
        }
      ],
      "name": "deleteArtifacts",
      "outputs": [],
      "stateMutability": "nonpayable",
      "type": "function"
    },
    {
      "inputs": [
        {
          "internalType": "uint256",
          "name": "contract_idx",
          "type": "uint256"
        }
      ],
      "name": "getSettlements",
      "outputs": [
        {
          "components": [
            {
              "internalType": "string",
              "name": "extended_data",
              "type": "string"
            },
            {
              "internalType": "uint256",
              "name": "settle_due_dt",
              "type": "uint256"
            },
            {
              "internalType": "uint256",
              "name": "transact_min_dt",
              "type": "uint256"
            },
            {
              "internalType": "uint256",
              "name": "transact_max_dt",
              "type": "uint256"
            },
            {
              "internalType": "uint256",
              "name": "transact_count",
              "type": "uint256"
            },
            {
              "internalType": "uint256",
              "name": "settle_pay_dt",
              "type": "uint256"
            },
            {
              "internalType": "uint256",
              "name": "settle_exp_amt",
              "type": "uint256"
            },
            {
              "internalType": "uint256",
              "name": "settle_pay_amt",
              "type": "uint256"
            },
            {
              "internalType": "string",
              "name": "settle_confirm",
              "type": "string"
            },
            {
              "internalType": "uint256",
              "name": "dispute_amt",
              "type": "uint256"
            },
            {
              "internalType": "string",
              "name": "dispute_reason",
              "type": "string"
            },
            {
              "internalType": "uint256",
              "name": "days_late",
              "type": "uint256"
            },
            {
              "internalType": "uint256",
              "name": "late_fee_amt",
              "type": "uint256"
            },
            {
              "internalType": "uint256",
              "name": "residual_pay_dt",
              "type": "uint256"
            },
            {
              "internalType": "uint256",
              "name": "residual_pay_amt",
              "type": "uint256"
            },
            {
              "internalType": "string",
              "name": "residual_confirm",
              "type": "string"
            },
            {
              "internalType": "uint256",
              "name": "residual_exp_amt",
              "type": "uint256"
            },
            {
              "internalType": "uint256",
              "name": "residual_calc_amt",
              "type": "uint256"
            }
          ],
          "internalType": "struct Delivery.Settlement[]",
          "name": "",
          "type": "tuple[]"
        }
      ],
      "stateMutability": "view",
      "type": "function",
      "constant": true
    },
    {
      "inputs": [
        {
          "internalType": "uint256",
          "name": "contract_idx",
          "type": "uint256"
        },
        {
          "internalType": "string",
          "name": "extended_data",
          "type": "string"
        },
        {
          "internalType": "uint256",
          "name": "settle_due_dt",
          "type": "uint256"
        },
        {
          "internalType": "uint256",
          "name": "transact_min_dt",
          "type": "uint256"
        },
        {
          "internalType": "uint256",
          "name": "transact_max_dt",
          "type": "uint256"
        }
      ],
      "name": "addSettlement",
      "outputs": [],
      "stateMutability": "nonpayable",
      "type": "function"
    },
    {
      "inputs": [
        {
          "internalType": "uint256",
          "name": "contract_idx",
          "type": "uint256"
        }
      ],
      "name": "deleteSettlements",
      "outputs": [],
      "stateMutability": "nonpayable",
      "type": "function"
    },
    {
      "inputs": [
        {
          "internalType": "uint256",
          "name": "contract_idx",
          "type": "uint256"
        }
      ],
      "name": "getTransactions",
      "outputs": [
        {
          "components": [
            {
              "internalType": "string",
              "name": "extended_data",
              "type": "string"
            },
            {
              "internalType": "uint256",
              "name": "transact_dt",
              "type": "uint256"
            },
            {
              "internalType": "int256",
              "name": "transact_amt",
              "type": "int256"
            },
            {
              "internalType": "uint256",
              "name": "advance_amt",
              "type": "uint256"
            },
            {
              "internalType": "string",
              "name": "transact_data",
              "type": "string"
            },
            {
              "internalType": "uint256",
              "name": "advance_pay_dt",
              "type": "uint256"
            },
            {
              "internalType": "uint256",
              "name": "advance_pay_amt",
              "type": "uint256"
            },
            {
              "internalType": "string",
              "name": "advance_confirm",
              "type": "string"
            }
          ],
          "internalType": "struct Delivery.Transaction[]",
          "name": "",
          "type": "tuple[]"
        }
      ],
      "stateMutability": "view",
      "type": "function",
      "constant": true
    },
    {
      "inputs": [
        {
          "internalType": "uint256",
          "name": "contract_idx",
          "type": "uint256"
        },
        {
          "internalType": "string",
          "name": "extended_data",
          "type": "string"
        },
        {
          "internalType": "uint256",
          "name": "transact_dt",
          "type": "uint256"
        },
        {
          "internalType": "int256",
          "name": "transact_amt",
          "type": "int256"
        },
        {
          "internalType": "string",
          "name": "transact_data",
          "type": "string"
        }
      ],
      "name": "addTransaction",
      "outputs": [],
      "stateMutability": "nonpayable",
      "type": "function"
    },
    {
      "inputs": [
        {
          "internalType": "uint256",
          "name": "contract_idx",
          "type": "uint256"
        }
      ],
      "name": "deleteTransactions",
      "outputs": [],
      "stateMutability": "nonpayable",
      "type": "function"
    },
    {
      "inputs": [
        {
          "internalType": "uint256",
          "name": "contract_idx",
          "type": "uint256"
        },
        {
          "internalType": "uint256",
          "name": "transact_idx",
          "type": "uint256"
        },
        {
          "internalType": "uint256",
          "name": "advance_pay_dt",
          "type": "uint256"
        },
        {
          "internalType": "uint256",
          "name": "advance_pay_amt",
          "type": "uint256"
        },
        {
          "internalType": "string",
          "name": "advance_confirm",
          "type": "string"
        }
      ],
      "name": "payAdvance",
      "outputs": [],
      "stateMutability": "nonpayable",
      "type": "function"
    },
    {
      "inputs": [
        {
          "internalType": "uint256",
          "name": "contract_idx",
          "type": "uint256"
        },
        {
          "internalType": "uint256",
          "name": "settle_idx",
          "type": "uint256"
        },
        {
          "internalType": "uint256",
          "name": "settle_pay_dt",
          "type": "uint256"
        },
        {
          "internalType": "uint256",
          "name": "settle_pay_amt",
          "type": "uint256"
        },
        {
          "internalType": "string",
          "name": "settle_confirm",
          "type": "string"
        },
        {
          "internalType": "string",
          "name": "dispute_reason",
          "type": "string"
        }
      ],
      "name": "postSettlement",
      "outputs": [],
      "stateMutability": "nonpayable",
      "type": "function"
    },
    {
      "inputs": [
        {
          "internalType": "uint256",
          "name": "contract_idx",
          "type": "uint256"
        },
        {
          "internalType": "uint256",
          "name": "settle_idx",
          "type": "uint256"
        },
        {
          "internalType": "uint256",
          "name": "residual_pay_dt",
          "type": "uint256"
        },
        {
          "internalType": "uint256",
          "name": "residual_pay_amt",
          "type": "uint256"
        },
        {
          "internalType": "string",
          "name": "residual_confirm",
          "type": "string"
        }
      ],
      "name": "payResidual",
      "outputs": [],
      "stateMutability": "nonpayable",
      "type": "function"
    }
  ],
  "bytecode": "0x608060405234801561001057600080fd5b50600080546001600160a01b03191633179055614e44806100326000396000f3fe608060405234801561001057600080fd5b50600436106101425760003560e01c8063656c716e116100b85780639399869d1161007c5780639399869d146102b8578063a2a78929146102cd578063c35ee046146102e0578063d3113412146102f3578063f633db9314610313578063fcf45c0f1461032657610142565b8063656c716e1461024a5780636e449c2b1461025d5780636ebc8c861461027057806375483e46146102905780638da5cb5b146102a357610142565b806346f920fd1161010a57806346f920fd146101be5780635742177c146101de5780635b1ffac3146101fe5780635b4e97e714610211578063610df22e1461022457806364da0a331461023757610142565b806311ef56de1461014757806336d56a601461015c57806338ad4fa71461016f5780633cbfb1b514610182578063447fe28914610195575b600080fd5b61015a610155366004613f0a565b610339565b005b61015a61016a3660046141a7565b6103cb565b61015a61017d366004613fb8565b610642565b61015a610190366004613f22565b6108c8565b6101a86101a3366004613f0a565b6109fc565b6040516101b5919061440d565b60405180910390f35b6101d16101cc366004613f0a565b610bc2565b6040516101b59190614496565b6101f16101ec366004613f0a565b610f16565b6040516101b591906145e0565b61015a61020c36600461421d565b61117e565b61015a61021f366004613f0a565b61187a565b61015a6102323660046141c8565b6118f8565b61015a6102453660046140db565b611a54565b61015a610258366004613ecf565b611b3c565b61015a61026b3660046141a7565b611cd3565b61028361027e366004613f0a565b611f06565b6040516101b59190614b3b565b61015a61029e3660046141c8565b61232f565b6102ab61247c565b6040516101b59190614335565b6102c061248b565b6040516101b59190614c60565b61015a6102db366004614036565b612491565b61015a6102ee366004614096565b612643565b610306610301366004613f0a565b613099565b6040516101b59190614349565b61015a610321366004613f0a565b61336a565b61015a610334366004613f0a565b6133e8565b6000546001600160a01b0316331461036c5760405162461bcd60e51b815260040161036390614825565b60405180910390fd5b600154811061038d5760405162461bcd60e51b815260040161036390614720565b60008181526004602052604081206103a491613801565b80600080516020614def8339815191526040516103c090614997565b60405180910390a250565b6000546001600160a01b031633146103f55760405162461bcd60e51b815260040161036390614825565b60015482106104165760405162461bcd60e51b815260040161036390614720565b60008281526004602052604090205481106104435760405162461bcd60e51b8152600401610363906147bf565b805b60008381526004602052604090205461046090600190614d0f565b81101561058c576000838152600460205260409020610480826001614c93565b8154811061049e57634e487b7160e01b600052603260045260246000fd5b90600052602060002090600502016004600085815260200190815260200160002082815481106104de57634e487b7160e01b600052603260045260246000fd5b9060005260206000209060050201600082018160000190805461050090614d52565b61050b929190613825565b50600182018160010190805461052090614d52565b61052b929190613825565b5060028201548160020155600382018160030190805461054a90614d52565b610555929190613825565b50600482018160040190805461056a90614d52565b610575929190613825565b50905050808061058490614d8d565b915050610445565b5060008281526004602052604090208054806105b857634e487b7160e01b600052603160045260246000fd5b600082815260208120600019909201916005830201906105d882826138b0565b6105e66001830160006138b0565b60028201600090556003820160006105fe91906138b0565b61060c6004830160006138b0565b5050905581600080516020614def83398151915261062983613466565b60405161063691906148f0565b60405180910390a25050565b6000546001600160a01b0316331461066c5760405162461bcd60e51b815260040161036390614825565b600154851061068d5760405162461bcd60e51b815260040161036390614720565b6106956138ec565b8481526020810184905260408101839052608081018290526000805b6000888152600260205260409020548110156107895760008881526002602052604081208054839081106106f557634e487b7160e01b600052603260045260246000fd5b906000526020600020906012020190508060020154871015801561071c5750806003015487105b156107765760048101805490600061073383614d8d565b91905055506107718160018b8154811061075d57634e487b7160e01b600052603260045260246000fd5b90600052602060002090600c0201886135ac565b600192505b508061078181614d8d565b9150506106b1565b50801561089a576107c882600189815481106107b557634e487b7160e01b600052603260045260246000fd5b90600052602060002090600c02016136b2565b600087815260036020908152604082208054600181018255908352918190208451805186946008029092019261080392849290910190613931565b50602082810151600183015560408301516002830155606083015160038301556080830151805161083a9260048501920190613931565b5060a0820151600582015560c0820151600682015560e0820151805161086a916007840191602090910190613931565b50508251604051899250600080516020614def8339815191529161088d916146a8565b60405180910390a26108bf565b86600080516020614def8339815191526040516108b690614adc565b60405180910390a25b50505050505050565b6000546001600160a01b031633146108f25760405162461bcd60e51b815260040161036390614825565b60015485106109135760405162461bcd60e51b815260040161036390614720565b61091b6139a5565b6040808201839052858252606082018590526080820184905260008781526004602090815291812080546001810182559082529082902083518051859460059094029092019261097092849290910190613931565b5060208281015180516109899260018501920190613931565b5060408201516002820155606082015180516109af916003840191602090910190613931565b50608082015180516109cb916004840191602090910190613931565b50505085600080516020614def833981519152856040516109ec9190614aa5565b60405180910390a2505050505050565b6001546060908210610a205760405162461bcd60e51b815260040161036390614720565b600082815260056020908152604080832080548251818502810185019093528083529193909284015b82821015610bb65783829060005260206000209060030201604051806060016040529081600082018054610a7c90614d52565b80601f0160208091040260200160405190810160405280929190818152602001828054610aa890614d52565b8015610af55780601f10610aca57610100808354040283529160200191610af5565b820191906000526020600020905b815481529060010190602001808311610ad857829003601f168201915b505050918352505060018201546001600160a01b03166020820152600282018054604090920191610b2590614d52565b80601f0160208091040260200160405190810160405280929190818152602001828054610b5190614d52565b8015610b9e5780601f10610b7357610100808354040283529160200191610b9e565b820191906000526020600020905b815481529060010190602001808311610b8157829003601f168201915b50505050508152505081526020019060010190610a49565b5050505090505b919050565b6001546060908210610be65760405162461bcd60e51b815260040161036390614720565b600082815260026020908152604080832080548251818502810185019093528083529193909284015b82821015610bb6578382906000526020600020906012020160405180610240016040529081600082018054610c4390614d52565b80601f0160208091040260200160405190810160405280929190818152602001828054610c6f90614d52565b8015610cbc5780601f10610c9157610100808354040283529160200191610cbc565b820191906000526020600020905b815481529060010190602001808311610c9f57829003601f168201915b5050505050815260200160018201548152602001600282015481526020016003820154815260200160048201548152602001600582015481526020016006820154815260200160078201548152602001600882018054610d1b90614d52565b80601f0160208091040260200160405190810160405280929190818152602001828054610d4790614d52565b8015610d945780601f10610d6957610100808354040283529160200191610d94565b820191906000526020600020905b815481529060010190602001808311610d7757829003601f168201915b5050505050815260200160098201548152602001600a82018054610db790614d52565b80601f0160208091040260200160405190810160405280929190818152602001828054610de390614d52565b8015610e305780601f10610e0557610100808354040283529160200191610e30565b820191906000526020600020905b815481529060010190602001808311610e1357829003601f168201915b50505050508152602001600b8201548152602001600c8201548152602001600d8201548152602001600e8201548152602001600f82018054610e7190614d52565b80601f0160208091040260200160405190810160405280929190818152602001828054610e9d90614d52565b8015610eea5780601f10610ebf57610100808354040283529160200191610eea565b820191906000526020600020905b815481529060010190602001808311610ecd57829003601f168201915b505050505081526020016010820154815260200160118201548152505081526020019060010190610c0f565b6001546060908210610f3a5760405162461bcd60e51b815260040161036390614720565b600082815260036020908152604080832080548251818502810185019093528083529193909284015b82821015610bb6578382906000526020600020906008020160405180610100016040529081600082018054610f9790614d52565b80601f0160208091040260200160405190810160405280929190818152602001828054610fc390614d52565b80156110105780601f10610fe557610100808354040283529160200191611010565b820191906000526020600020905b815481529060010190602001808311610ff357829003601f168201915b5050505050815260200160018201548152602001600282015481526020016003820154815260200160048201805461104790614d52565b80601f016020809104026020016040519081016040528092919081815260200182805461107390614d52565b80156110c05780601f10611095576101008083540402835291602001916110c0565b820191906000526020600020905b8154815290600101906020018083116110a357829003601f168201915b5050505050815260200160058201548152602001600682015481526020016007820180546110ed90614d52565b80601f016020809104026020016040519081016040528092919081815260200182805461111990614d52565b80156111665780601f1061113b57610100808354040283529160200191611166565b820191906000526020600020905b81548152906001019060200180831161114957829003601f168201915b50505050508152505081526020019060010190610f63565b6000546001600160a01b031633146111a85760405162461bcd60e51b815260040161036390614825565b60015486106111c95760405162461bcd60e51b815260040161036390614720565b60008681526002602052604090208054859190879081106111fa57634e487b7160e01b600052603260045260246000fd5b9060005260206000209060120201600501819055508260026000888152602001908152602001600020868154811061124257634e487b7160e01b600052603260045260246000fd5b9060005260206000209060120201600701819055508160026000888152602001908152602001600020868154811061128a57634e487b7160e01b600052603260045260246000fd5b906000526020600020906012020160080190805190602001906112ae929190613931565b5060008681526002602052604090208054869081106112dd57634e487b7160e01b600052603260045260246000fd5b9060005260206000209060120201600101548411156114e4576018603c80600260008a8152602001908152602001600020888154811061132d57634e487b7160e01b600052603260045260246000fd5b9060005260206000209060120201600101548761134a9190614d0f565b6113549190614cd0565b61135e9190614cd0565b6113689190614cd0565b600087815260026020526040902080548790811061139657634e487b7160e01b600052603260045260246000fd5b9060005260206000209060120201600b0181905550633b9aca006002600088815260200190815260200160002086815481106113e257634e487b7160e01b600052603260045260246000fd5b90600052602060002090601202016006015461016d6001898154811061141857634e487b7160e01b600052603260045260246000fd5b90600052602060002090600c020160080154620186a06114389190614cf0565b6114429190614cd0565b600089815260026020526040902080548990811061147057634e487b7160e01b600052603260045260246000fd5b9060005260206000209060120201600b015461148c9190614cf0565b6114969190614cf0565b6114a09190614cd0565b60008781526002602052604090208054879081106114ce57634e487b7160e01b600052603260045260246000fd5b9060005260206000209060120201600c01819055505b600086815260026020526040902080548690811061151257634e487b7160e01b600052603260045260246000fd5b90600052602060002090601202016010015483101561161457600086815260026020526040902080548491908790811061155c57634e487b7160e01b600052603260045260246000fd5b9060005260206000209060120201601001546115789190614d0f565b60008781526002602052604090208054879081106115a657634e487b7160e01b600052603260045260246000fd5b906000526020600020906012020160090181905550806002600088815260200190815260200160002086815481106115ee57634e487b7160e01b600052603260045260246000fd5b9060005260206000209060120201600a019080519060200190611612929190613931565b505b600086815260026020526040812080548790811061164257634e487b7160e01b600052603260045260246000fd5b90600052602060002090601202016009015460026000898152602001908152602001600020878154811061168657634e487b7160e01b600052603260045260246000fd5b9060005260206000209060120201600c0154600260008a815260200190815260200160002088815481106116ca57634e487b7160e01b600052603260045260246000fd5b9060005260206000209060120201601001546116e69190614d0f565b6116f09190614d0f565b111561181a57600086815260026020526040902080548690811061172457634e487b7160e01b600052603260045260246000fd5b90600052602060002090601202016009015460026000888152602001908152602001600020868154811061176857634e487b7160e01b600052603260045260246000fd5b9060005260206000209060120201600c01546002600089815260200190815260200160002087815481106117ac57634e487b7160e01b600052603260045260246000fd5b9060005260206000209060120201601001546117c89190614d0f565b6117d29190614d0f565b600087815260026020526040902080548790811061180057634e487b7160e01b600052603260045260246000fd5b90600052602060002090601202016011018190555061185e565b600086815260026020526040812080548790811061184857634e487b7160e01b600052603260045260246000fd5b9060005260206000209060120201601101819055505b85600080516020614def8339815191526040516109ec90614929565b6000546001600160a01b031633146118a45760405162461bcd60e51b815260040161036390614825565b60015481106118c55760405162461bcd60e51b815260040161036390614720565b60008181526002602052604081206118dc916139d4565b80600080516020614def8339815191526040516103c090614a6a565b6000546001600160a01b031633146119225760405162461bcd60e51b815260040161036390614825565b60015485106119435760405162461bcd60e51b815260040161036390614720565b600085815260026020526040902080548491908690811061197457634e487b7160e01b600052603260045260246000fd5b9060005260206000209060120201600d0181905550816002600087815260200190815260200160002085815481106119bc57634e487b7160e01b600052603260045260246000fd5b9060005260206000209060120201600e018190555080600260008781526020019081526020016000208581548110611a0457634e487b7160e01b600052603260045260246000fd5b9060005260206000209060120201600f019080519060200190611a28929190613931565b5084600080516020614def833981519152604051611a4590614882565b60405180910390a25050505050565b6000546001600160a01b03163314611a7e5760405162461bcd60e51b815260040161036390614825565b6001548210611a9f5760405162461bcd60e51b815260040161036390614720565b6000828152600560209081526040822080546001810182559083529181902083518051859460030290920192611ada92849290910190613931565b506020828101516001830180546001600160a01b0319166001600160a01b0390921691909117905560408301518051611b199260028501920190613931565b50508151604051849250600080516020614def8339815191529161063691614a36565b6000546001600160a01b03163314611b665760405162461bcd60e51b815260040161036390614825565b600180548082018255600091909152815180518392600c027fb10e2d527612073b26eecdfd717e6a320cf44b4afac2b0732d9fcbe2b7fa0cf60191611bb091839160200190613931565b506020828101518051611bc99260018501920190613931565b5060408201518051611be5916002840191602090910190613931565b5060608201518051611c01916003840191602090910190613931565b506080820151600482015560a0820151600582015560c0820151600682015560e0820151600782015561010082015160088201556101208201518051611c51916009840191602090910190613931565b506101408201518051611c6e91600a840191602090910190613931565b50610160820151600b90910180546101809093015115156101000261ff001992151560ff19909416939093179190911691909117905560018054611cb29190614d0f565b600080516020614def83398151915282602001516040516103c091906146e9565b6000546001600160a01b03163314611cfd5760405162461bcd60e51b815260040161036390614825565b6001548210611d1e5760405162461bcd60e51b815260040161036390614720565b6000828152600560205260409020548110611d4b5760405162461bcd60e51b8152600401610363906149d0565b805b600083815260056020526040902054611d6890600190614d0f565b811015611e70576000838152600560205260409020611d88826001614c93565b81548110611da657634e487b7160e01b600052603260045260246000fd5b9060005260206000209060030201600560008581526020019081526020016000208281548110611de657634e487b7160e01b600052603260045260246000fd5b90600052602060002090600302016000820181600001908054611e0890614d52565b611e13929190613825565b5060018281015490820180546001600160a01b0319166001600160a01b039092169190911790556002808301805491830191611e4e90614d52565b611e59929190613825565b509050508080611e6890614d8d565b915050611d4d565b506000828152600560205260409020805480611e9c57634e487b7160e01b600052603160045260246000fd5b60008281526020812060001990920191600383020190611ebc82826138b0565b6001820180546001600160a01b0319169055611edc6002830160006138b0565b5050905581600080516020614def833981519152611ef983613466565b60405161063691906147ef565b611f0e6139f5565b6001548210611f2f5760405162461bcd60e51b815260040161036390614720565b60018281548110611f5057634e487b7160e01b600052603260045260246000fd5b90600052602060002090600c0201604051806101a0016040529081600082018054611f7a90614d52565b80601f0160208091040260200160405190810160405280929190818152602001828054611fa690614d52565b8015611ff35780601f10611fc857610100808354040283529160200191611ff3565b820191906000526020600020905b815481529060010190602001808311611fd657829003601f168201915b5050505050815260200160018201805461200c90614d52565b80601f016020809104026020016040519081016040528092919081815260200182805461203890614d52565b80156120855780601f1061205a57610100808354040283529160200191612085565b820191906000526020600020905b81548152906001019060200180831161206857829003601f168201915b5050505050815260200160028201805461209e90614d52565b80601f01602080910402602001604051908101604052809291908181526020018280546120ca90614d52565b80156121175780601f106120ec57610100808354040283529160200191612117565b820191906000526020600020905b8154815290600101906020018083116120fa57829003601f168201915b5050505050815260200160038201805461213090614d52565b80601f016020809104026020016040519081016040528092919081815260200182805461215c90614d52565b80156121a95780601f1061217e576101008083540402835291602001916121a9565b820191906000526020600020905b81548152906001019060200180831161218c57829003601f168201915b5050505050815260200160048201548152602001600582015481526020016006820154815260200160078201548152602001600882015481526020016009820180546121f490614d52565b80601f016020809104026020016040519081016040528092919081815260200182805461222090614d52565b801561226d5780601f106122425761010080835404028352916020019161226d565b820191906000526020600020905b81548152906001019060200180831161225057829003601f168201915b50505050508152602001600a8201805461228690614d52565b80601f01602080910402602001604051908101604052809291908181526020018280546122b290614d52565b80156122ff5780601f106122d4576101008083540402835291602001916122ff565b820191906000526020600020905b8154815290600101906020018083116122e257829003601f168201915b5050509183525050600b919091015460ff8082161515602084015261010090910416151560409091015292915050565b6000546001600160a01b031633146123595760405162461bcd60e51b815260040161036390614825565b600154851061237a5760405162461bcd60e51b815260040161036390614720565b60008581526003602052604090208054849190869081106123ab57634e487b7160e01b600052603260045260246000fd5b906000526020600020906008020160050181905550816003600087815260200190815260200160002085815481106123f357634e487b7160e01b600052603260045260246000fd5b9060005260206000209060080201600601819055508060036000878152602001908152602001600020858154811061243b57634e487b7160e01b600052603260045260246000fd5b9060005260206000209060080201600701908051906020019061245f929190613931565b5084600080516020614def833981519152604051611a459061478c565b6000546001600160a01b031681565b60015490565b6000546001600160a01b031633146124bb5760405162461bcd60e51b815260040161036390614825565b60015485106124dc5760405162461bcd60e51b815260040161036390614720565b6124e4613a61565b602080820185905260408083018590526060830184905286835260008881526002835290812080546001810182559082529082902083518051859460129094029092019261253792849290910190613931565b50602082810151600183015560408301516002830155606083015160038301556080830151600483015560a0830151600583015560c0830151600683015560e0830151600783015561010083015180516125979260088501920190613931565b50610120820151600982015561014082015180516125bf91600a840191602090910190613931565b50610160820151600b820155610180820151600c8201556101a0820151600d8201556101c0820151600e8201556101e0820151805161260891600f840191602090910190613931565b5061020082015181601001556102208201518160110155505085600080516020614def83398151915282600001516040516109ec91906149fd565b6000546001600160a01b0316331461266d5760405162461bcd60e51b815260040161036390614825565b600154821061268e5760405162461bcd60e51b815260040161036390614720565b61277d826040518060400160405280600d81526020016c657874656e6465645f6461746160981b815250600185815481106126d957634e487b7160e01b600052603260045260246000fd5b90600052602060002090600c020160000180546126f590614d52565b80601f016020809104026020016040519081016040528092919081815260200182805461272190614d52565b801561276e5780601f106127435761010080835404028352916020019161276e565b820191906000526020600020905b81548152906001019060200180831161275157829003601f168201915b50505050508460000151613750565b61286c826040518060400160405280600d81526020016c636f6e74726163745f6e616d6560981b815250600185815481106127c857634e487b7160e01b600052603260045260246000fd5b90600052602060002090600c020160010180546127e490614d52565b80601f016020809104026020016040519081016040528092919081815260200182805461281090614d52565b801561285d5780601f106128325761010080835404028352916020019161285d565b820191906000526020600020905b81548152906001019060200180831161284057829003601f168201915b50505050508460200151613750565b61295b826040518060400160405280600d81526020016c636f6e74726163745f7479706560981b815250600185815481106128b757634e487b7160e01b600052603260045260246000fd5b90600052602060002090600c020160020180546128d390614d52565b80601f01602080910402602001604051908101604052809291908181526020018280546128ff90614d52565b801561294c5780601f106129215761010080835404028352916020019161294c565b820191906000526020600020905b81548152906001019060200180831161292f57829003601f168201915b50505050508460400151613750565b612a4a826040518060400160405280600d81526020016c333ab73234b733afb4b739ba3960991b815250600185815481106129a657634e487b7160e01b600052603260045260246000fd5b90600052602060002090600c020160030180546129c290614d52565b80601f01602080910402602001604051908101604052809291908181526020018280546129ee90614d52565b8015612a3b5780601f10612a1057610100808354040283529160200191612a3b565b820191906000526020600020905b815481529060010190602001808311612a1e57829003601f168201915b50505050508460600151613750565b612ac3826040518060400160405280600f81526020016e1cd95c9d9a58d957d9995957dc18dd608a1b815250612ab160018681548110612a9a57634e487b7160e01b600052603260045260246000fd5b90600052602060002090600c020160040154613466565b612abe8560800151613466565b613750565b612b37826040518060400160405280600f81526020016e0e6cae4ecd2c6cabecccacabedac2f608b1b815250612b2a60018681548110612b1357634e487b7160e01b600052603260045260246000fd5b90600052602060002090600c020160050154613466565b612abe8560a00151613466565b612bab826040518060400160405280600f81526020016e1cd95c9d9a58d957d9995957d85b5d608a1b815250612b9e60018681548110612b8757634e487b7160e01b600052603260045260246000fd5b90600052602060002090600c020160060154613466565b612abe8560c00151613466565b612c1b826040518060400160405280600b81526020016a18591d985b98d957dc18dd60aa1b815250612c0e60018681548110612bf757634e487b7160e01b600052603260045260246000fd5b90600052602060002090600c020160070154613466565b612abe8560e00151613466565b612c8d826040518060400160405280600c81526020016b1b185d1957d9995957dc18dd60a21b815250612c7f60018681548110612c6857634e487b7160e01b600052603260045260246000fd5b90600052602060002090600c020160080154613466565b612abe856101000151613466565b612d7e826040518060400160405280600e81526020016d7472616e736163745f6c6f67696360901b81525060018581548110612cd957634e487b7160e01b600052603260045260246000fd5b90600052602060002090600c02016009018054612cf590614d52565b80601f0160208091040260200160405190810160405280929190818152602001828054612d2190614d52565b8015612d6e5780601f10612d4357610100808354040283529160200191612d6e565b820191906000526020600020905b815481529060010190602001808311612d5157829003601f168201915b5050505050846101200151613750565b612e6682604051806040016040528060058152602001646e6f74657360d81b81525060018581548110612dc157634e487b7160e01b600052603260045260246000fd5b90600052602060002090600c0201600a018054612ddd90614d52565b80601f0160208091040260200160405190810160405280929190818152602001828054612e0990614d52565b8015612e565780601f10612e2b57610100808354040283529160200191612e56565b820191906000526020600020905b815481529060010190602001808311612e3957829003601f168201915b5050505050846101400151613750565b612eda826040518060400160405280600981526020016869735f61637469766560b81b815250612ecc60018681548110612eb057634e487b7160e01b600052603260045260246000fd5b60009182526020909120600b600c90920201015460ff166137b3565b612abe8561016001516137b3565b612f55826040518060400160405280600881526020016769735f71756f746560c01b815250612f4760018681548110612f2357634e487b7160e01b600052603260045260246000fd5b90600052602060002090600c0201600b0160019054906101000a900460ff166137b3565b612abe8561018001516137b3565b8060018381548110612f7757634e487b7160e01b600052603260045260246000fd5b90600052602060002090600c02016000820151816000019080519060200190612fa1929190613931565b506020828101518051612fba9260018501920190613931565b5060408201518051612fd6916002840191602090910190613931565b5060608201518051612ff2916003840191602090910190613931565b506080820151600482015560a0820151600582015560c0820151600682015560e0820151600782015561010082015160088201556101208201518051613042916009840191602090910190613931565b50610140820151805161305f91600a840191602090910190613931565b50610160820151600b90910180546101809093015115156101000261ff001992151560ff1990941693909317919091169190911790555050565b60015460609082106130bd5760405162461bcd60e51b815260040161036390614720565b600082815260046020908152604080832080548251818502810185019093528083529193909284015b82821015610bb657838290600052602060002090600502016040518060a001604052908160008201805461311990614d52565b80601f016020809104026020016040519081016040528092919081815260200182805461314590614d52565b80156131925780601f1061316757610100808354040283529160200191613192565b820191906000526020600020905b81548152906001019060200180831161317557829003601f168201915b505050505081526020016001820180546131ab90614d52565b80601f01602080910402602001604051908101604052809291908181526020018280546131d790614d52565b80156132245780601f106131f957610100808354040283529160200191613224565b820191906000526020600020905b81548152906001019060200180831161320757829003601f168201915b505050505081526020016002820154815260200160038201805461324790614d52565b80601f016020809104026020016040519081016040528092919081815260200182805461327390614d52565b80156132c05780601f10613295576101008083540402835291602001916132c0565b820191906000526020600020905b8154815290600101906020018083116132a357829003601f168201915b505050505081526020016004820180546132d990614d52565b80601f016020809104026020016040519081016040528092919081815260200182805461330590614d52565b80156133525780601f1061332757610100808354040283529160200191613352565b820191906000526020600020905b81548152906001019060200180831161333557829003601f168201915b505050505081525050815260200190600101906130e6565b6000546001600160a01b031633146133945760405162461bcd60e51b815260040161036390614825565b60015481106133b55760405162461bcd60e51b815260040161036390614720565b60008181526005602052604081206133cc91613aec565b80600080516020614def8339815191526040516103c090614960565b6000546001600160a01b031633146134125760405162461bcd60e51b815260040161036390614825565b60015481106134335760405162461bcd60e51b815260040161036390614720565b600081815260036020526040812061344a91613b0d565b80600080516020614def8339815191526040516103c090614750565b60608161348b57506040805180820190915260018152600360fc1b6020820152610bbd565b8160005b81156134b5578061349f81614d8d565b91506134ae9050600a83614cd0565b915061348f565b60008167ffffffffffffffff8111156134de57634e487b7160e01b600052604160045260246000fd5b6040519080825280601f01601f191660200182016040528015613508576020820181803683370190505b509050815b85156135a35761351e600182614d0f565b9050600061352d600a88614cd0565b61353890600a614cf0565b6135429088614d0f565b61354d906030614cab565b905060008160f81b90508084848151811061357857634e487b7160e01b600052603260045260246000fd5b60200101906001600160f81b031916908160001a90535061359a600a89614cd0565b9750505061350d565b50949350505050565b600081121561364e5760006135c082614da8565b9050808460060154106135ec57808460060160008282546135e19190614d0f565b909155506135f49050565b600060068501555b60006127108460070154836136099190614cf0565b6136139190614cd0565b90508085601001541061363f57808560100160008282546136349190614d0f565b909155506136479050565b600060108601555b50506136ad565b6000819050808460060160008282546136679190614c93565b909155505060078301546127109061367f9082614d0f565b6136899083614cf0565b6136939190614cd0565b8460100160008282546136a69190614c93565b9091555050505b505050565b60008260400151131561374457600082604001519050600082600601546127108385600401546136e29190614cf0565b6136ec9190614cd0565b6136f69190614c93565b9050600061271084600701548461370d9190614cf0565b6137179190614cd0565b90508181106137345761372a8282614d0f565b606086015261373c565b600060608601525b50505061374c565b600060608301525b5050565b80805190602001208280519060200120146137ad5783600080516020614def83398151915284848460405160200161378a939291906142d5565b60408051601f19818403018152908290526137a4916148b7565b60405180910390a25b50505050565b6060816137dd576040518060400160405280600581526020016466616c736560d81b8152506137fb565b604051806040016040528060048152602001637472756560e01b8152505b92915050565b50805460008255600502906000526020600020908101906138229190613b2e565b50565b82805461383190614d52565b90600052602060002090601f01602090048101928261385357600085556138a0565b82601f1061386457805485556138a0565b828001600101855582156138a057600052602060002091601f016020900482015b828111156138a0578254825591600101919060010190613885565b506138ac929150613b7f565b5090565b5080546138bc90614d52565b6000825580601f106138ce5750613822565b601f0160209004906000526020600020908101906138229190613b7f565b60405180610100016040528060608152602001600081526020016000815260200160008152602001606081526020016000815260200160008152602001606081525090565b82805461393d90614d52565b90600052602060002090601f01602090048101928261395f57600085556138a0565b82601f1061397857805160ff19168380011785556138a0565b828001600101855582156138a0579182015b828111156138a057825182559160200191906001019061398a565b6040518060a0016040528060608152602001606081526020016000815260200160608152602001606081525090565b50805460008255601202906000526020600020908101906138229190613b94565b604051806101a0016040528060608152602001606081526020016060815260200160608152602001600081526020016000815260200160008152602001600081526020016000815260200160608152602001606081526020016000151581526020016000151581525090565b6040518061024001604052806060815260200160008152602001600081526020016000815260200160008152602001600081526020016000815260200160008152602001606081526020016000815260200160608152602001600081526020016000815260200160008152602001600081526020016060815260200160008152602001600081525090565b50805460008255600302906000526020600020908101906138229190613c4f565b50805460008255600802906000526020600020908101906138229190613c8c565b808211156138ac576000613b4282826138b0565b613b506001830160006138b0565b6002820160009055600382016000613b6891906138b0565b613b766004830160006138b0565b50600501613b2e565b5b808211156138ac5760008155600101613b80565b808211156138ac576000613ba882826138b0565b6001820160009055600282016000905560038201600090556004820160009055600582016000905560068201600090556007820160009055600882016000613bf091906138b0565b6009820160009055600a82016000613c0891906138b0565b600b820160009055600c820160009055600d820160009055600e820160009055600f82016000613c3891906138b0565b506000601082018190556011820155601201613b94565b808211156138ac576000613c6382826138b0565b6001820180546001600160a01b0319169055613c836002830160006138b0565b50600301613c4f565b808211156138ac576000613ca082826138b0565b600182016000905560028201600090556003820160009055600482016000613cc891906138b0565b60058201600090556006820160009055600782016000613ce891906138b0565b50600801613c8c565b80358015158114610bbd57600080fd5b600082601f830112613d11578081fd5b813567ffffffffffffffff811115613d2b57613d2b614dd8565b613d3e601f8201601f1916602001614c69565b818152846020838601011115613d52578283fd5b816020850160208301379081016020019190915292915050565b60006101a0808385031215613d7f578182fd5b613d8881614c69565b915050813567ffffffffffffffff80821115613da357600080fd5b613daf85838601613d01565b83526020840135915080821115613dc557600080fd5b613dd185838601613d01565b60208401526040840135915080821115613dea57600080fd5b613df685838601613d01565b60408401526060840135915080821115613e0f57600080fd5b613e1b85838601613d01565b60608401526080840135608084015260a084013560a084015260c084013560c084015260e084013560e08401526101009150818401358284015261012091508184013581811115613e6b57600080fd5b613e7786828701613d01565b838501525061014091508184013581811115613e9257600080fd5b613e9e86828701613d01565b83850152505050610160613eb3818401613cf1565b90820152610180613ec5838201613cf1565b9082015292915050565b600060208284031215613ee0578081fd5b813567ffffffffffffffff811115613ef6578182fd5b613f0284828501613d6c565b949350505050565b600060208284031215613f1b578081fd5b5035919050565b600080600080600060a08688031215613f39578081fd5b85359450602086013567ffffffffffffffff80821115613f57578283fd5b613f6389838a01613d01565b95506040880135915080821115613f78578283fd5b613f8489838a01613d01565b94506060880135915080821115613f99578283fd5b50613fa688828901613d01565b95989497509295608001359392505050565b600080600080600060a08688031215613fcf578081fd5b85359450602086013567ffffffffffffffff80821115613fed578283fd5b613ff989838a01613d01565b95506040880135945060608801359350608088013591508082111561401c578283fd5b5061402988828901613d01565b9150509295509295909350565b600080600080600060a0868803121561404d578081fd5b85359450602086013567ffffffffffffffff81111561406a578182fd5b61407688828901613d01565b959895975050505060408401359360608101359360809091013592509050565b600080604083850312156140a8578182fd5b82359150602083013567ffffffffffffffff8111156140c5578182fd5b6140d185828601613d6c565b9150509250929050565b600080604083850312156140ed578182fd5b82359150602083013567ffffffffffffffff8082111561410b578283fd5b908401906060828703121561411e578283fd5b60405160608101818110838211171561413957614139614dd8565b60405282358281111561414a578485fd5b61415688828601613d01565b82525060208301356001600160a01b0381168114614172578485fd5b6020820152604083013582811115614188578485fd5b61419488828601613d01565b6040830152508093505050509250929050565b600080604083850312156141b9578182fd5b50508035926020909101359150565b600080600080600060a086880312156141df578081fd5b85359450602086013593506040860135925060608601359150608086013567ffffffffffffffff811115614211578182fd5b61402988828901613d01565b60008060008060008060c08789031215614235578384fd5b86359550602087013594506040870135935060608701359250608087013567ffffffffffffffff80821115614268578283fd5b6142748a838b01613d01565b935060a0890135915080821115614289578283fd5b5061429689828a01613d01565b9150509295509295509295565b15159052565b600081518084526142c1816020860160208601614d26565b601f01601f19169290920160200192915050565b600084516142e7818460208901614d26565b601d60f91b9083019081528451614305816001840160208901614d26565b61169f60f11b600192909101918201528351614328816003840160208801614d26565b0160030195945050505050565b6001600160a01b0391909116815260200190565b60208082528251828201819052600091906040908185019080840286018301878501865b838110156143ff57603f19898403018552815160a08151818652614393828701826142a9565b915050888201518582038a8701526143ab82826142a9565b9150508782015188860152606080830151868303828801526143cd83826142a9565b92505050608080830151925085820381870152506143eb81836142a9565b96890196945050509086019060010161436d565b509098975050505050505050565b60208082528251828201819052600091906040908185019080840286018301878501865b838110156143ff57603f19898403018552815160608151818652614457828701826142a9565b838b01516001600160a01b0316878c0152928901518684038a880152929150614482905081836142a9565b968901969450505090860190600101614431565b60208082528251828201819052600091906040908185019080840286018301878501865b838110156143ff57603f19898403018552815161024081518186526144e1828701826142a9565b838b0151878c0152898401518a880152606080850151908801526080808501519088015260a0808501519088015260c0808501519088015260e0808501519088015261010080850151888303828a0152919350915061454083826142a9565b92505050610120808301518187015250610140808301518683038288015261456883826142a9565b610160858101519089015261018080860151908901526101a080860151908901526101c080860151908901526101e080860151898303828b0152919450925090506145b383826142a9565b610200858101519089015261022094850151949097019390935250505093860193908601906001016144ba565b60208082528251828201819052600091906040908185019080840286018301878501865b838110156143ff57603f198984030185528151610100815181865261462b828701826142a9565b9150508882015189860152878201518886015260608083015181870152506080808301518683038288015261466083826142a9565b9250505060a080830151818701525060c080830151818701525060e0808301519250858203818701525061469481836142a9565b968901969450505090860190600101614604565b600060408252601060408301526f151c985b9cd858dd1a5bdb905919195960821b6060830152608060208301526146e260808301846142a9565b9392505050565b600060408252600d60408301526c10dbdb9d1c9858dd1059191959609a1b6060830152608060208301526146e260808301846142a9565b602080825260169082015275092dcecc2d8d2c840c6dedce8e4c2c6e840d2dcc8caf60531b604082015260600190565b604080825260139082015272151c985b9cd858dd1a5bdb9cd1195b195d1959606a1b606082015260806020820181905260009082015260a00190565b6040808252600a9082015269506179416476616e636560b01b606082015260806020820181905260009082015260a00190565b602080825260169082015275092dcecc2d8d2c840c2e4e8d2ccc2c6e840d2dcc8caf60531b604082015260600190565b600060408252600c60408301526b14185c9d1e51195b195d195960a21b6060830152608060208301526146e260808301846142a9565b60208082526039908201527f4163636573732064656e6965642c206f6e6c7920636f6e7472616374206f776e60408201527f65722063616e2063616c6c20746869732066756e6374696f6e00000000000000606082015260800190565b6040808252600c908201526b14995cda591d585b14185a5960a21b606082015260806020820181905260009082015260a00190565b600060408252600f60408301526e10dbdb9d1c9858dd155c19185d1959608a1b6060830152608060208301526146e260808301846142a9565b600060408252600f60408301526e105c9d1a599858dd11195b195d1959608a1b6060830152608060208301526146e260808301846142a9565b6040808252600e908201526d141bdcdd14d95d1d1b195b595b9d60921b606082015260806020820181905260009082015260a00190565b6040808252600e908201526d14185c9d1a595cd1195b195d195960921b606082015260806020820181905260009082015260a00190565b60408082526010908201526f105c9d1a599858dd1cd1195b195d195960821b606082015260806020820181905260009082015260a00190565b602080825260139082015272092dcecc2d8d2c840e0c2e4e8f240d2dcc8caf606b1b604082015260600190565b600060408252600f60408301526e14d95d1d1b195b595b9d1059191959608a1b6060830152608060208301526146e260808301846142a9565b600060408252600a60408301526914185c9d1e505919195960b21b6060830152608060208301526146e260808301846142a9565b60408082526012908201527114d95d1d1b195b595b9d1cd1195b195d195960721b606082015260806020820181905260009082015260a00190565b600060408252600d60408301526c105c9d1a599858dd1059191959609a1b6060830152608060208301526146e260808301846142a9565b60408082526010908201526f2a3930b739b0b1ba34b7b722b93937b960811b6060820152608060208201819052601a908201527f4e6f2076616c696420736574746c656d656e7420706572696f6400000000000060a082015260c00190565b60006020825282516101a0806020850152614b5a6101c08501836142a9565b91506020850151601f1980868503016040870152614b7884836142a9565b93506040870151915080868503016060870152614b9584836142a9565b93506060870151915080868503016080870152614bb284836142a9565b9350608087015160a087015260a087015160c087015260c087015160e087015260e08701519150610100828188015280880151925050610120828188015280880151925050610140818786030181880152614c0d85846142a9565b945080880151925050610160818786030181880152614c2c85846142a9565b94508088015192505050610180614c45818701836142a3565b8601519050614c56858301826142a3565b5090949350505050565b90815260200190565b60405181810167ffffffffffffffff81118282101715614c8b57614c8b614dd8565b604052919050565b60008219821115614ca657614ca6614dc2565b500190565b600060ff821660ff84168060ff03821115614cc857614cc8614dc2565b019392505050565b600082614ceb57634e487b7160e01b81526012600452602481fd5b500490565b6000816000190483118215151615614d0a57614d0a614dc2565b500290565b600082821015614d2157614d21614dc2565b500390565b60005b83811015614d41578181015183820152602001614d29565b838111156137ad5750506000910152565b600281046001821680614d6657607f821691505b60208210811415614d8757634e487b7160e01b600052602260045260246000fd5b50919050565b6000600019821415614da157614da1614dc2565b5060010190565b6000600160ff1b821415614dbe57614dbe614dc2565b0390565b634e487b7160e01b600052601160045260246000fd5b634e487b7160e01b600052604160045260246000fdfe345796c5f37ac4d00f0bd7eebb6ba729df51ddd74dafb2db6bf0c4a4a354577aa2646970667358221220c4e9f06e7be540f1b27006692d836cb3044426bc5f2bb454dbb21c45256fd1c464736f6c63430008000033",
  "immutableReferences": {},
  "source": "// SPDX-License-Identifier: MIT\npragma solidity ^0.8.0;\n\ncontract Delivery {\n\n    address public owner;\n\n    Contract[] contracts;                                   // [contract_idx]\n    mapping (uint => Settlement[]) private settlements;     // contract_idx => settlement[]\n    mapping (uint => Transaction[]) private transactions;   // contract_idx => transaction[]\n    mapping (uint => Artifact[]) private artifacts;         // contract_idx => artifact_list[]\n    mapping (uint => Party[]) private parties;              // contract_idx => party[]\n\n    // every field ending in _dt is a unix timestamp\n    // every field ending in _amt is an integer representing a float with 2 decimals\n    // every field ending in _pct is an integer represending a float value with 4 decimals \n    // every field ending in _confirm is a string returned from the fiat payment provider\n\n    struct Contract {\n        string extended_data;           // json extended data\n        string contract_name;           // description for display purposes\n        string contract_type;           // the type of contract, e.g. ticketing, construction\n        string funding_instr;           // buyer funding instructions\n        uint service_fee_pct;           // service fee pct <= service_fee_max\n        uint service_fee_max;           // maximum fee that can be charged if the rate is variable\n        uint service_fee_amt;           // flat rate amt if not percentage based\n        uint advance_pct;               // amount of money that will be advanced to seller for every transaction\n        uint late_fee_pct;              // an APR, daily rate calculated as late_fee_pct / 365\n        string transact_logic;          // jsonlogic formula for calculating transaction amount\n        string notes;                   // contract notes, can be used for additonal data requests\n        bool is_active;                 // instead of deleting, clear this flag to False\n        bool is_quote;                  // true if still in the quote stage\n    }\n\n    struct Settlement {\n        string extended_data;           // json extended data\n        uint settle_due_dt;             // date the payment is due \n        uint transact_min_dt;           // min date the transaction is made \n        uint transact_max_dt;           // max date the transaction is made \n        uint transact_count;            // number of transactions in this current settlement period \n        uint settle_pay_dt;             // when the settlement was paid\n        uint settle_exp_amt;            // expected amount of settlement 0\n        uint settle_pay_amt;            // actual amount paid from the buyer\n        string settle_confirm;          // confirmation from payment source\n        uint dispute_amt;               // if expected  < actual, assume there was a dispute\n        string dispute_reason;          // if dispute_amt > 0, what was the reason (if provided)\n        uint days_late;                 // number of days late the payment was made\n        uint late_fee_amt;              // amount of the late fee, will be taken out of the residual\n        uint residual_pay_dt;           // date and time the residual was paid\n        uint residual_pay_amt;          // will equal residual_calc_amt after payment intitiated\n        string residual_confirm;        // residual confirmation from the payment source\n        uint residual_exp_amt;          // expected amount of the residual\n        uint residual_calc_amt;         // what the actual residual will be (exp - late_fee - dispute)\n    }\n\n    struct Transaction {\n        string extended_data;           // json extended data\n        uint transact_dt;               // date and time of the transaction\n        int transact_amt;               // calculated value of a transaction, negative if an adjustment\n        uint advance_amt;               // advance_amt * advance_pct - service_fee_amt\n        string transact_data;           // data regarding transaction for jsonlogic    \n        uint advance_pay_dt;            // payment of advance\n        uint advance_pay_amt;           // will equal advance amt after payment initiated\n        string advance_confirm;         // payment confirmation of the advance from payment source\n    }\n\n    struct Artifact {\n        string artifact_id;             // external identifier\n        string extended_data;           // json extended data\n        uint added_dt;                  // date artifact was added\n        string doc_title;               // name of documents\n        string doc_type;                // document type\n    }\n\n    struct Party {\n        string party_code;              // code associated with a party\n        address party_address;          // wallet address\n        string party_type;              // the type of party associated with contract\n    }\n\n    event ContractEvent(uint indexed contract_idx, string eventType, string details);\n\n    constructor() {\n        owner = msg.sender;\n    }\n\n    modifier onlyOwner() {\n        require(msg.sender == owner, \"Access denied, only contract owner can call this function\");\n        _;\n    }\n\n    function getContractCount() public view returns (uint) {\n        return contracts.length;\n    }\n\n    function getContract(uint contract_idx) public view returns (Contract memory) {\n        require(contract_idx < contracts.length, \"Invalid contract index\");\n        return contracts[contract_idx];\n    }\n\n    function addContract (Contract memory contract_) public onlyOwner {\n        contracts.push(contract_);\n        emit ContractEvent(contracts.length - 1, \"ContractAdded\", contract_.contract_name);\n    }\n\n    function logContractChange(uint contract_idx, string memory field, string memory old_value, string memory new_value) private {\n        if (keccak256(bytes(old_value)) != keccak256(bytes(new_value))) {\n            emit ContractEvent(contract_idx, \"ContractUpdated\", string(abi.encodePacked(field, \":\", old_value, \"->\", new_value)));\n        }\n    }\n\n    function updateContract (uint contract_idx, Contract memory contract_) public onlyOwner {\n        require(contract_idx < contracts.length, \"Invalid contract index\");\n        logContractChange(contract_idx, \"extended_data\", contracts[contract_idx].extended_data, contract_.extended_data);\n        logContractChange(contract_idx, \"contract_name\", contracts[contract_idx].contract_name, contract_.contract_name);\n        logContractChange(contract_idx, \"contract_type\", contracts[contract_idx].contract_type, contract_.contract_type);\n        logContractChange(contract_idx, \"funding_instr\", contracts[contract_idx].funding_instr, contract_.funding_instr);\n        logContractChange(contract_idx, \"service_fee_pct\", uintToString(contracts[contract_idx].service_fee_pct), uintToString(contract_.service_fee_pct));\n        logContractChange(contract_idx, \"service_fee_max\", uintToString(contracts[contract_idx].service_fee_max), uintToString(contract_.service_fee_max));\n        logContractChange(contract_idx, \"service_fee_amt\", uintToString(contracts[contract_idx].service_fee_amt), uintToString(contract_.service_fee_amt));\n        logContractChange(contract_idx, \"advance_pct\", uintToString(contracts[contract_idx].advance_pct), uintToString(contract_.advance_pct));\n        logContractChange(contract_idx, \"late_fee_pct\", uintToString(contracts[contract_idx].late_fee_pct), uintToString(contract_.late_fee_pct));\n        logContractChange(contract_idx, \"transact_logic\", contracts[contract_idx].transact_logic, contract_.transact_logic);\n        logContractChange(contract_idx, \"notes\", contracts[contract_idx].notes, contract_.notes);\n        logContractChange(contract_idx, \"is_active\", boolToString(contracts[contract_idx].is_active), boolToString(contract_.is_active));\n        logContractChange(contract_idx, \"is_quote\", boolToString(contracts[contract_idx].is_quote), boolToString(contract_.is_quote));\n        contracts[contract_idx] = contract_;\n    }\n\n    function getParties(uint contract_idx) public view returns (Party[] memory) {\n        require(contract_idx < contracts.length, \"Invalid contract index\");\n        return parties[contract_idx];\n    }\n\n    function addParty(uint contract_idx, Party memory party) public onlyOwner {\n        require(contract_idx < contracts.length, \"Invalid contract index\");\n        parties[contract_idx].push(party);\n        emit ContractEvent(contract_idx, \"PartyAdded\", party.party_code);\n    }\n\n    function deleteParty(uint contract_idx, uint party_idx) public onlyOwner {\n        require(contract_idx < contracts.length, \"Invalid contract index\");\n        require(party_idx < parties[contract_idx].length, \"Invalid party index\");\n\n        for (uint i = party_idx; i < parties[contract_idx].length - 1; i++) {\n            parties[contract_idx][i] = parties[contract_idx][i + 1];\n        }\n\n        parties[contract_idx].pop();\n\n        emit ContractEvent(contract_idx, \"PartyDeleted\", uintToString(party_idx));\n    }\n\n    function deleteParties(uint contract_idx) public onlyOwner {\n        require(contract_idx < contracts.length, \"Invalid contract index\");\n        delete parties[contract_idx];\n        emit ContractEvent(contract_idx, \"PartiesDeleted\", \"\");\n    }\n\n    function getArtifacts(uint contract_idx) public view returns (Artifact[] memory) {\n        require(contract_idx < contracts.length, \"Invalid contract index\");\n        return artifacts[contract_idx];\n    }\n\n    function addArtifact(uint contract_idx, string memory artifact_id, string memory doc_title, string memory doc_type, uint added_dt) public onlyOwner {\n        require(contract_idx < contracts.length, \"Invalid contract index\");\n        Artifact memory artifact;\n        artifact.added_dt = added_dt;\n        artifact.artifact_id = artifact_id;\n        artifact.doc_title = doc_title;\n        artifact.doc_type = doc_type; \n        artifacts[contract_idx].push(artifact);\n        emit ContractEvent(contract_idx, \"ArtifactAdded\", doc_title);\n    }\n\n    function deleteArtifact(uint contract_idx, uint artifact_idx) public onlyOwner {\n        require(contract_idx < contracts.length, \"Invalid contract index\");\n        require(artifact_idx < artifacts[contract_idx].length, \"Invalid artifact index\");\n\n        for (uint i = artifact_idx; i < artifacts[contract_idx].length - 1; i++) {\n            artifacts[contract_idx][i] = artifacts[contract_idx][i + 1];\n        }\n\n        artifacts[contract_idx].pop();\n\n        emit ContractEvent(contract_idx, \"ArtifactDeleted\", uintToString(artifact_idx));\n    }\n\n    function deleteArtifacts(uint contract_idx) public onlyOwner {\n        require(contract_idx < contracts.length, \"Invalid contract index\");\n        delete artifacts[contract_idx];\n        emit ContractEvent(contract_idx, \"ArtifactsDeleted\", \"\");\n    }\n\n    function getSettlements(uint contract_idx) public view returns (Settlement[] memory) {\n        require(contract_idx < contracts.length, \"Invalid contract index\");\n        return settlements[contract_idx];\n    }\n\n    function addSettlement(uint contract_idx, string memory extended_data, uint settle_due_dt, uint transact_min_dt, uint transact_max_dt) public onlyOwner {\n        require(contract_idx < contracts.length, \"Invalid contract index\");\n        Settlement memory settlement;\n        settlement.settle_due_dt = settle_due_dt;\n        settlement.transact_min_dt = transact_min_dt;\n        settlement.transact_max_dt = transact_max_dt;\n        settlement.extended_data = extended_data;\n        settlements[contract_idx].push(settlement);\n        emit ContractEvent(contract_idx, \"SettlementAdded\", settlement.extended_data);\n    }\n\n    function deleteSettlements(uint contract_idx) public onlyOwner {\n        require(contract_idx < contracts.length, \"Invalid contract index\");\n        delete settlements[contract_idx];\n        emit ContractEvent(contract_idx, \"SettlementsDeleted\", \"\");\n    }\n\n    function getTransactions(uint contract_idx) public view returns (Transaction[] memory) {\n        require(contract_idx < contracts.length, \"Invalid contract index\");\n        return transactions[contract_idx];\n    }\n\n    function addTransaction(uint contract_idx, string memory extended_data, uint transact_dt, int transact_amt, string memory transact_data) public onlyOwner {\n        require(contract_idx < contracts.length, \"Invalid contract index\");\n\n        Transaction memory transact;\n        transact.extended_data = extended_data;\n        transact.transact_dt = transact_dt;\n        transact.transact_amt = transact_amt;\n        transact.transact_data = transact_data;\n\n        bool settle_found = false;\n\n        for (uint i = 0; i < settlements[contract_idx].length; i++) {\n            Settlement storage settlement = settlements[contract_idx][i];\n            if (transact_dt >= settlement.transact_min_dt && transact_dt < settlement.transact_max_dt) {\n                settlement.transact_count++;\n                updateSettlementAmounts(settlement, contracts[contract_idx], transact_amt);\n                settle_found = true;\n            }\n        }\n\n        if (settle_found) {\n            calculateAdvanceAmount(transact, contracts[contract_idx]);\n            transactions[contract_idx].push(transact);\n            emit ContractEvent(contract_idx, \"TransactionAdded\", transact.extended_data);\n        } else {\n            emit ContractEvent(contract_idx, \"TransactionError\", \"No valid settlement period\");\n        }\n    }\n\n    function updateSettlementAmounts(Settlement storage settlement, Contract storage contract_, int transact_amt) internal {\n        if (transact_amt < 0) {\n            uint abs_transact_amt = uint(-transact_amt);\n        \n            // Ensure settle_exp_amt doesn't go below 0\n            if (settlement.settle_exp_amt >= abs_transact_amt) {\n                settlement.settle_exp_amt -= abs_transact_amt;\n            } else {\n                settlement.settle_exp_amt = 0;\n            }\n        \n            // Ensure residual_exp_amt doesn't go below 0\n            uint adjustment = abs_transact_amt * contract_.advance_pct / 10000;\n            if (settlement.residual_exp_amt >= adjustment) {\n                settlement.residual_exp_amt -= adjustment;\n            } else {\n                settlement.residual_exp_amt = 0;\n            }\n        } else {\n            uint uint_transact_amt = uint(transact_amt);\n            settlement.settle_exp_amt += uint_transact_amt;\n            settlement.residual_exp_amt += uint_transact_amt * (10000 - contract_.advance_pct) / 10000;\n        }\n    }\n\n    function calculateAdvanceAmount(Transaction memory transact, Contract storage contract_) internal view {\n        if (transact.transact_amt > 0) {\n            uint uint_transact_amt = uint(transact.transact_amt);\n            uint service_fee = (contract_.service_fee_pct * uint_transact_amt / 10000) + contract_.service_fee_amt;\n            uint advance_amt_calculated = (uint_transact_amt * contract_.advance_pct / 10000);\n\n            if (advance_amt_calculated >= service_fee) {\n                transact.advance_amt = advance_amt_calculated - service_fee;\n            } else {\n                transact.advance_amt = 0;\n            }\n        } else {\n            transact.advance_amt = 0;\n        }\n    }\n\n    function deleteTransactions(uint contract_idx) public onlyOwner {\n        require(contract_idx < contracts.length, \"Invalid contract index\");\n        delete transactions[contract_idx];\n        emit ContractEvent(contract_idx, \"TransactionsDeleted\", \"\");\n    }\n\n    function payAdvance(uint contract_idx, uint transact_idx, uint advance_pay_dt, uint advance_pay_amt, string memory advance_confirm) public onlyOwner {\n        require(contract_idx < contracts.length, \"Invalid contract index\");\n        transactions[contract_idx][transact_idx].advance_pay_dt = advance_pay_dt;\n        transactions[contract_idx][transact_idx].advance_pay_amt = advance_pay_amt;\n        transactions[contract_idx][transact_idx].advance_confirm = advance_confirm;\n        emit ContractEvent(contract_idx, \"PayAdvance\", \"\");\n    }\n\n    function postSettlement(uint contract_idx, uint settle_idx, uint settle_pay_dt, uint settle_pay_amt, string memory settle_confirm, string memory dispute_reason) public onlyOwner {\n        require(contract_idx < contracts.length, \"Invalid contract index\");\n        settlements[contract_idx][settle_idx].settle_pay_dt = settle_pay_dt;\n        settlements[contract_idx][settle_idx].settle_pay_amt = settle_pay_amt;\n        settlements[contract_idx][settle_idx].settle_confirm = settle_confirm;\n\n        if (settle_pay_dt > settlements[contract_idx][settle_idx].settle_due_dt) {\n            settlements[contract_idx][settle_idx].days_late = (settle_pay_dt - settlements[contract_idx][settle_idx].settle_due_dt) / 60 / 60 / 24;\n            settlements[contract_idx][settle_idx].late_fee_amt = (settlements[contract_idx][settle_idx].days_late * \n                ((contracts[contract_idx].late_fee_pct * 100000) / 365) * settlements[contract_idx][settle_idx].settle_exp_amt) / 1000000000;\n        }\n\n        if (settle_pay_amt < settlements[contract_idx][settle_idx].residual_exp_amt) {\n            settlements[contract_idx][settle_idx].dispute_amt = settlements[contract_idx][settle_idx].residual_exp_amt - settle_pay_amt;\n            settlements[contract_idx][settle_idx].dispute_reason = dispute_reason;\n        } \n\n        if ((settlements[contract_idx][settle_idx].residual_exp_amt - settlements[contract_idx][settle_idx].late_fee_amt - settlements[contract_idx][settle_idx].dispute_amt) > 0) {\n            settlements[contract_idx][settle_idx].residual_calc_amt = settlements[contract_idx][settle_idx].residual_exp_amt - settlements[contract_idx][settle_idx].late_fee_amt -\n                settlements[contract_idx][settle_idx].dispute_amt;\n        } else {\n            settlements[contract_idx][settle_idx].residual_calc_amt = 0;\n        }\n\n        emit ContractEvent(contract_idx, \"PostSettlement\", \"\");\n    }\n\n    function payResidual(uint contract_idx, uint settle_idx, uint residual_pay_dt, uint residual_pay_amt, string memory residual_confirm) public onlyOwner {\n        require(contract_idx < contracts.length, \"Invalid contract index\");\n        settlements[contract_idx][settle_idx].residual_pay_dt = residual_pay_dt;\n        settlements[contract_idx][settle_idx].residual_pay_amt = residual_pay_amt;\n        settlements[contract_idx][settle_idx].residual_confirm = residual_confirm;\n        emit ContractEvent(contract_idx, \"ResidualPaid\", \"\");\n    }\n\n    function uintToString(uint v) internal pure returns (string memory) {\n        if (v == 0) {\n            return \"0\";\n        }\n        uint j = v;\n        uint len;\n        while (j != 0) {\n            len++;\n            j /= 10;\n        }\n        bytes memory bstr = new bytes(len);\n        uint k = len;\n        while (v != 0) {\n            k = k - 1;\n            uint8 temp = (48 + uint8(v - v / 10 * 10));\n            bytes1 b1 = bytes1(temp);\n            bstr[k] = b1;\n            v /= 10;\n        }\n        return string(bstr);\n    }\n\n    function boolToString(bool v) internal pure returns (string memory) {\n        return v ? \"true\" : \"false\";\n    }\n}",
  "sourcePath": "/Users/davidnichamoff/Projects/FIZIT_DEV/truffle/contracts/Delivery.sol",
  "compiler": {
    "name": "solc",
    "version": "0.8.0+commit.c7dfd78e.Emscripten.clang"
  },
  "schemaVersion": "3.4.16",
  "updatedAt": "2024-07-08T18:16:00.762Z",
  "networkType": "ethereum",
  "devdoc": {
    "kind": "dev",
    "methods": {},
    "version": 1
  },
  "userdoc": {
    "kind": "user",
    "methods": {},
    "version": 1
  }
}