{
  "contractName": "Delivery",
  "abi": [
    {
      "inputs": [],
      "stateMutability": "nonpayable",
      "type": "constructor"
    },
    {
      "anonymous": false,
      "inputs": [
        {
          "indexed": true,
          "internalType": "uint256",
          "name": "contract_idx",
          "type": "uint256"
        },
        {
          "indexed": false,
          "internalType": "string",
          "name": "eventType",
          "type": "string"
        },
        {
          "indexed": false,
          "internalType": "string",
          "name": "details",
          "type": "string"
        }
      ],
      "name": "ContractEvent",
      "type": "event"
    },
    {
      "inputs": [],
      "name": "owner",
      "outputs": [
        {
          "internalType": "address",
          "name": "",
          "type": "address"
        }
      ],
      "stateMutability": "view",
      "type": "function",
      "constant": true
    },
    {
      "inputs": [],
      "name": "getContractCount",
      "outputs": [
        {
          "internalType": "uint256",
          "name": "",
          "type": "uint256"
        }
      ],
      "stateMutability": "view",
      "type": "function",
      "constant": true
    },
    {
      "inputs": [
        {
          "internalType": "uint256",
          "name": "contract_idx",
          "type": "uint256"
        }
      ],
      "name": "getContract",
      "outputs": [
        {
          "components": [
            {
              "internalType": "string",
              "name": "extended_data",
              "type": "string"
            },
            {
              "internalType": "string",
              "name": "contract_name",
              "type": "string"
            },
            {
              "internalType": "string",
              "name": "contract_type",
              "type": "string"
            },
            {
              "internalType": "string",
              "name": "funding_instr",
              "type": "string"
            },
            {
              "internalType": "uint256",
              "name": "service_fee_pct",
              "type": "uint256"
            },
            {
              "internalType": "uint256",
              "name": "service_fee_max",
              "type": "uint256"
            },
            {
              "internalType": "uint256",
              "name": "service_fee_amt",
              "type": "uint256"
            },
            {
              "internalType": "uint256",
              "name": "advance_pct",
              "type": "uint256"
            },
            {
              "internalType": "uint256",
              "name": "late_fee_pct",
              "type": "uint256"
            },
            {
              "internalType": "string",
              "name": "transact_logic",
              "type": "string"
            },
            {
              "internalType": "int256",
              "name": "min_threshold",
              "type": "int256"
            },
            {
              "internalType": "int256",
              "name": "max_threshold",
              "type": "int256"
            },
            {
              "internalType": "string",
              "name": "notes",
              "type": "string"
            },
            {
              "internalType": "bool",
              "name": "is_active",
              "type": "bool"
            },
            {
              "internalType": "bool",
              "name": "is_quote",
              "type": "bool"
            }
          ],
          "internalType": "struct Delivery.Contract",
          "name": "",
          "type": "tuple"
        }
      ],
      "stateMutability": "view",
      "type": "function",
      "constant": true
    },
    {
      "inputs": [
        {
          "components": [
            {
              "internalType": "string",
              "name": "extended_data",
              "type": "string"
            },
            {
              "internalType": "string",
              "name": "contract_name",
              "type": "string"
            },
            {
              "internalType": "string",
              "name": "contract_type",
              "type": "string"
            },
            {
              "internalType": "string",
              "name": "funding_instr",
              "type": "string"
            },
            {
              "internalType": "uint256",
              "name": "service_fee_pct",
              "type": "uint256"
            },
            {
              "internalType": "uint256",
              "name": "service_fee_max",
              "type": "uint256"
            },
            {
              "internalType": "uint256",
              "name": "service_fee_amt",
              "type": "uint256"
            },
            {
              "internalType": "uint256",
              "name": "advance_pct",
              "type": "uint256"
            },
            {
              "internalType": "uint256",
              "name": "late_fee_pct",
              "type": "uint256"
            },
            {
              "internalType": "string",
              "name": "transact_logic",
              "type": "string"
            },
            {
              "internalType": "int256",
              "name": "min_threshold",
              "type": "int256"
            },
            {
              "internalType": "int256",
              "name": "max_threshold",
              "type": "int256"
            },
            {
              "internalType": "string",
              "name": "notes",
              "type": "string"
            },
            {
              "internalType": "bool",
              "name": "is_active",
              "type": "bool"
            },
            {
              "internalType": "bool",
              "name": "is_quote",
              "type": "bool"
            }
          ],
          "internalType": "struct Delivery.Contract",
          "name": "contract_",
          "type": "tuple"
        }
      ],
      "name": "addContract",
      "outputs": [],
      "stateMutability": "nonpayable",
      "type": "function"
    },
    {
      "inputs": [
        {
          "internalType": "uint256",
          "name": "contract_idx",
          "type": "uint256"
        },
        {
          "components": [
            {
              "internalType": "string",
              "name": "extended_data",
              "type": "string"
            },
            {
              "internalType": "string",
              "name": "contract_name",
              "type": "string"
            },
            {
              "internalType": "string",
              "name": "contract_type",
              "type": "string"
            },
            {
              "internalType": "string",
              "name": "funding_instr",
              "type": "string"
            },
            {
              "internalType": "uint256",
              "name": "service_fee_pct",
              "type": "uint256"
            },
            {
              "internalType": "uint256",
              "name": "service_fee_max",
              "type": "uint256"
            },
            {
              "internalType": "uint256",
              "name": "service_fee_amt",
              "type": "uint256"
            },
            {
              "internalType": "uint256",
              "name": "advance_pct",
              "type": "uint256"
            },
            {
              "internalType": "uint256",
              "name": "late_fee_pct",
              "type": "uint256"
            },
            {
              "internalType": "string",
              "name": "transact_logic",
              "type": "string"
            },
            {
              "internalType": "int256",
              "name": "min_threshold",
              "type": "int256"
            },
            {
              "internalType": "int256",
              "name": "max_threshold",
              "type": "int256"
            },
            {
              "internalType": "string",
              "name": "notes",
              "type": "string"
            },
            {
              "internalType": "bool",
              "name": "is_active",
              "type": "bool"
            },
            {
              "internalType": "bool",
              "name": "is_quote",
              "type": "bool"
            }
          ],
          "internalType": "struct Delivery.Contract",
          "name": "contract_",
          "type": "tuple"
        }
      ],
      "name": "updateContract",
      "outputs": [],
      "stateMutability": "nonpayable",
      "type": "function"
    },
    {
      "inputs": [
        {
          "internalType": "uint256",
          "name": "contract_idx",
          "type": "uint256"
        }
      ],
      "name": "deleteContract",
      "outputs": [],
      "stateMutability": "nonpayable",
      "type": "function"
    },
    {
      "inputs": [
        {
          "internalType": "uint256",
          "name": "contract_idx",
          "type": "uint256"
        }
      ],
      "name": "getParties",
      "outputs": [
        {
          "components": [
            {
              "internalType": "string",
              "name": "party_code",
              "type": "string"
            },
            {
              "internalType": "address",
              "name": "party_address",
              "type": "address"
            },
            {
              "internalType": "string",
              "name": "party_type",
              "type": "string"
            }
          ],
          "internalType": "struct Delivery.Party[]",
          "name": "",
          "type": "tuple[]"
        }
      ],
      "stateMutability": "view",
      "type": "function",
      "constant": true
    },
    {
      "inputs": [
        {
          "internalType": "uint256",
          "name": "contract_idx",
          "type": "uint256"
        },
        {
          "components": [
            {
              "internalType": "string",
              "name": "party_code",
              "type": "string"
            },
            {
              "internalType": "address",
              "name": "party_address",
              "type": "address"
            },
            {
              "internalType": "string",
              "name": "party_type",
              "type": "string"
            }
          ],
          "internalType": "struct Delivery.Party",
          "name": "party",
          "type": "tuple"
        }
      ],
      "name": "addParty",
      "outputs": [],
      "stateMutability": "nonpayable",
      "type": "function"
    },
    {
      "inputs": [
        {
          "internalType": "uint256",
          "name": "contract_idx",
          "type": "uint256"
        },
        {
          "internalType": "uint256",
          "name": "party_idx",
          "type": "uint256"
        }
      ],
      "name": "deleteParty",
      "outputs": [],
      "stateMutability": "nonpayable",
      "type": "function"
    },
    {
      "inputs": [
        {
          "internalType": "uint256",
          "name": "contract_idx",
          "type": "uint256"
        }
      ],
      "name": "deleteParties",
      "outputs": [],
      "stateMutability": "nonpayable",
      "type": "function"
    },
    {
      "inputs": [
        {
          "internalType": "uint256",
          "name": "contract_idx",
          "type": "uint256"
        }
      ],
      "name": "getArtifacts",
      "outputs": [
        {
          "components": [
            {
              "internalType": "string",
              "name": "artifact_id",
              "type": "string"
            },
            {
              "internalType": "string",
              "name": "extended_data",
              "type": "string"
            },
            {
              "internalType": "uint256",
              "name": "added_dt",
              "type": "uint256"
            },
            {
              "internalType": "string",
              "name": "doc_title",
              "type": "string"
            },
            {
              "internalType": "string",
              "name": "doc_type",
              "type": "string"
            }
          ],
          "internalType": "struct Delivery.Artifact[]",
          "name": "",
          "type": "tuple[]"
        }
      ],
      "stateMutability": "view",
      "type": "function",
      "constant": true
    },
    {
      "inputs": [
        {
          "internalType": "uint256",
          "name": "contract_idx",
          "type": "uint256"
        },
        {
          "internalType": "string",
          "name": "artifact_id",
          "type": "string"
        },
        {
          "internalType": "string",
          "name": "doc_title",
          "type": "string"
        },
        {
          "internalType": "string",
          "name": "doc_type",
          "type": "string"
        },
        {
          "internalType": "uint256",
          "name": "added_dt",
          "type": "uint256"
        }
      ],
      "name": "addArtifact",
      "outputs": [],
      "stateMutability": "nonpayable",
      "type": "function"
    },
    {
      "inputs": [
        {
          "internalType": "uint256",
          "name": "contract_idx",
          "type": "uint256"
        },
        {
          "internalType": "uint256",
          "name": "artifact_idx",
          "type": "uint256"
        }
      ],
      "name": "deleteArtifact",
      "outputs": [],
      "stateMutability": "nonpayable",
      "type": "function"
    },
    {
      "inputs": [
        {
          "internalType": "uint256",
          "name": "contract_idx",
          "type": "uint256"
        }
      ],
      "name": "deleteArtifacts",
      "outputs": [],
      "stateMutability": "nonpayable",
      "type": "function"
    },
    {
      "inputs": [
        {
          "internalType": "uint256",
          "name": "contract_idx",
          "type": "uint256"
        }
      ],
      "name": "getSettlements",
      "outputs": [
        {
          "components": [
            {
              "internalType": "string",
              "name": "extended_data",
              "type": "string"
            },
            {
              "internalType": "uint256",
              "name": "settle_due_dt",
              "type": "uint256"
            },
            {
              "internalType": "uint256",
              "name": "transact_min_dt",
              "type": "uint256"
            },
            {
              "internalType": "uint256",
              "name": "transact_max_dt",
              "type": "uint256"
            },
            {
              "internalType": "uint256",
              "name": "transact_count",
              "type": "uint256"
            },
            {
              "internalType": "uint256",
              "name": "settle_pay_dt",
              "type": "uint256"
            },
            {
              "internalType": "uint256",
              "name": "settle_exp_amt",
              "type": "uint256"
            },
            {
              "internalType": "uint256",
              "name": "settle_pay_amt",
              "type": "uint256"
            },
            {
              "internalType": "string",
              "name": "settle_confirm",
              "type": "string"
            },
            {
              "internalType": "uint256",
              "name": "dispute_amt",
              "type": "uint256"
            },
            {
              "internalType": "string",
              "name": "dispute_reason",
              "type": "string"
            },
            {
              "internalType": "uint256",
              "name": "days_late",
              "type": "uint256"
            },
            {
              "internalType": "uint256",
              "name": "late_fee_amt",
              "type": "uint256"
            },
            {
              "internalType": "uint256",
              "name": "residual_pay_dt",
              "type": "uint256"
            },
            {
              "internalType": "uint256",
              "name": "residual_pay_amt",
              "type": "uint256"
            },
            {
              "internalType": "string",
              "name": "residual_confirm",
              "type": "string"
            },
            {
              "internalType": "uint256",
              "name": "residual_exp_amt",
              "type": "uint256"
            },
            {
              "internalType": "uint256",
              "name": "residual_calc_amt",
              "type": "uint256"
            }
          ],
          "internalType": "struct Delivery.Settlement[]",
          "name": "",
          "type": "tuple[]"
        }
      ],
      "stateMutability": "view",
      "type": "function",
      "constant": true
    },
    {
      "inputs": [
        {
          "internalType": "uint256",
          "name": "contract_idx",
          "type": "uint256"
        },
        {
          "internalType": "string",
          "name": "extended_data",
          "type": "string"
        },
        {
          "internalType": "uint256",
          "name": "settle_due_dt",
          "type": "uint256"
        },
        {
          "internalType": "uint256",
          "name": "transact_min_dt",
          "type": "uint256"
        },
        {
          "internalType": "uint256",
          "name": "transact_max_dt",
          "type": "uint256"
        }
      ],
      "name": "addSettlement",
      "outputs": [],
      "stateMutability": "nonpayable",
      "type": "function"
    },
    {
      "inputs": [
        {
          "internalType": "uint256",
          "name": "contract_idx",
          "type": "uint256"
        }
      ],
      "name": "deleteSettlements",
      "outputs": [],
      "stateMutability": "nonpayable",
      "type": "function"
    },
    {
      "inputs": [
        {
          "internalType": "uint256",
          "name": "contract_idx",
          "type": "uint256"
        }
      ],
      "name": "getTransactions",
      "outputs": [
        {
          "components": [
            {
              "internalType": "string",
              "name": "extended_data",
              "type": "string"
            },
            {
              "internalType": "uint256",
              "name": "transact_dt",
              "type": "uint256"
            },
            {
              "internalType": "int256",
              "name": "transact_amt",
              "type": "int256"
            },
            {
              "internalType": "uint256",
              "name": "advance_amt",
              "type": "uint256"
            },
            {
              "internalType": "string",
              "name": "transact_data",
              "type": "string"
            },
            {
              "internalType": "uint256",
              "name": "advance_pay_dt",
              "type": "uint256"
            },
            {
              "internalType": "uint256",
              "name": "advance_pay_amt",
              "type": "uint256"
            },
            {
              "internalType": "string",
              "name": "advance_confirm",
              "type": "string"
            }
          ],
          "internalType": "struct Delivery.Transaction[]",
          "name": "",
          "type": "tuple[]"
        }
      ],
      "stateMutability": "view",
      "type": "function",
      "constant": true
    },
    {
      "inputs": [
        {
          "internalType": "uint256",
          "name": "contract_idx",
          "type": "uint256"
        },
        {
          "internalType": "string",
          "name": "extended_data",
          "type": "string"
        },
        {
          "internalType": "uint256",
          "name": "transact_dt",
          "type": "uint256"
        },
        {
          "internalType": "int256",
          "name": "transact_amt",
          "type": "int256"
        },
        {
          "internalType": "string",
          "name": "transact_data",
          "type": "string"
        }
      ],
      "name": "addTransaction",
      "outputs": [],
      "stateMutability": "nonpayable",
      "type": "function"
    },
    {
      "inputs": [
        {
          "internalType": "uint256",
          "name": "contract_idx",
          "type": "uint256"
        }
      ],
      "name": "deleteTransactions",
      "outputs": [],
      "stateMutability": "nonpayable",
      "type": "function"
    },
    {
      "inputs": [
        {
          "internalType": "uint256",
          "name": "contract_idx",
          "type": "uint256"
        },
        {
          "internalType": "uint256",
          "name": "transact_idx",
          "type": "uint256"
        },
        {
          "internalType": "uint256",
          "name": "advance_pay_dt",
          "type": "uint256"
        },
        {
          "internalType": "uint256",
          "name": "advance_pay_amt",
          "type": "uint256"
        },
        {
          "internalType": "string",
          "name": "advance_confirm",
          "type": "string"
        }
      ],
      "name": "payAdvance",
      "outputs": [],
      "stateMutability": "nonpayable",
      "type": "function"
    },
    {
      "inputs": [
        {
          "internalType": "uint256",
          "name": "contract_idx",
          "type": "uint256"
        },
        {
          "internalType": "uint256",
          "name": "settle_idx",
          "type": "uint256"
        },
        {
          "internalType": "uint256",
          "name": "settle_pay_dt",
          "type": "uint256"
        },
        {
          "internalType": "uint256",
          "name": "settle_pay_amt",
          "type": "uint256"
        },
        {
          "internalType": "string",
          "name": "settle_confirm",
          "type": "string"
        },
        {
          "internalType": "string",
          "name": "dispute_reason",
          "type": "string"
        }
      ],
      "name": "postSettlement",
      "outputs": [],
      "stateMutability": "nonpayable",
      "type": "function"
    },
    {
      "inputs": [
        {
          "internalType": "uint256",
          "name": "contract_idx",
          "type": "uint256"
        },
        {
          "internalType": "uint256",
          "name": "settle_idx",
          "type": "uint256"
        },
        {
          "internalType": "uint256",
          "name": "residual_pay_dt",
          "type": "uint256"
        },
        {
          "internalType": "uint256",
          "name": "residual_pay_amt",
          "type": "uint256"
        },
        {
          "internalType": "string",
          "name": "residual_confirm",
          "type": "string"
        }
      ],
      "name": "payResidual",
      "outputs": [],
      "stateMutability": "nonpayable",
      "type": "function"
    }
  ],
  "bytecode": "0x608060405234801561001057600080fd5b50600080546001600160a01b03191633179055614f77806100326000396000f3fe608060405234801561001057600080fd5b506004361061014d5760003560e01c8063610df22e116100c35780638da5cb5b1161007c5780638da5cb5b146102d45780639399869d146102e9578063a2a78929146102fe578063d311341214610311578063f633db9314610331578063fcf45c0f146103445761014d565b8063610df22e1461025557806364da0a33146102685780636893d3361461027b5780636e449c2b1461028e5780636ebc8c86146102a157806375483e46146102c15761014d565b8063447fe28911610115578063447fe289146101b357806346f920fd146101dc578063480902aa146101fc5780635742177c1461020f5780635b1ffac31461022f5780635b4e97e7146102425761014d565b806311ef56de14610152578063156f2fb81461016757806336d56a601461017a57806338ad4fa71461018d5780633cbfb1b5146101a0575b600080fd5b610165610160366004613fe7565b610357565b005b610165610175366004613fac565b6103e9565b610165610188366004614284565b610596565b61016561019b366004614095565b61080d565b6101656101ae366004613fff565b610a93565b6101c66101c1366004613fe7565b610bc7565b6040516101d391906144ea565b60405180910390f35b6101ef6101ea366004613fe7565b610d8d565b6040516101d39190614573565b61016561020a366004614173565b6110e1565b61022261021d366004613fe7565b611b4d565b6040516101d391906146bd565b61016561023d3660046142fa565b611db5565b610165610250366004613fe7565b6124b1565b6101656102633660046142a5565b61252f565b6101656102763660046141b8565b61268b565b610165610289366004613fe7565b612773565b61016561029c366004614284565b612829565b6102b46102af366004613fe7565b612a5c565b6040516101d39190614c51565b6101656102cf3660046142a5565b612e99565b6102dc612fe6565b6040516101d39190614412565b6102f1612ff5565b6040516101d39190614d93565b61016561030c366004614113565b612ffb565b61032461031f366004613fe7565b6131ad565b6040516101d39190614426565b61016561033f366004613fe7565b61347e565b610165610352366004613fe7565b6134fc565b6000546001600160a01b0316331461038a5760405162461bcd60e51b815260040161038190614902565b60405180910390fd5b60015481106103ab5760405162461bcd60e51b8152600401610381906147fd565b60008181526004602052604081206103c2916138b8565b80600080516020614f228339815191526040516103de90614a74565b60405180910390a250565b6000546001600160a01b031633146104135760405162461bcd60e51b815260040161038190614902565b600180548082018255600091909152815180518392600e027fb10e2d527612073b26eecdfd717e6a320cf44b4afac2b0732d9fcbe2b7fa0cf6019161045d918391602001906138dc565b50602082810151805161047692600185019201906138dc565b50604082015180516104929160028401916020909101906138dc565b50606082015180516104ae9160038401916020909101906138dc565b506080820151600482015560a0820151600582015560c0820151600682015560e08201516007820155610100820151600882015561012082015180516104fe9160098401916020909101906138dc565b50610140820151600a820155610160820151600b820155610180820151805161053191600c8401916020909101906138dc565b506101a0820151600d90910180546101c09093015115156101000261ff001992151560ff199094169390931791909116919091179055600180546105759190614e42565b600080516020614f2283398151915282602001516040516103de91906147c6565b6000546001600160a01b031633146105c05760405162461bcd60e51b815260040161038190614902565b60015482106105e15760405162461bcd60e51b8152600401610381906147fd565b600082815260046020526040902054811061060e5760405162461bcd60e51b81526004016103819061489c565b805b60008381526004602052604090205461062b90600190614e42565b81101561075757600083815260046020526040902061064b826001614dc6565b8154811061066957634e487b7160e01b600052603260045260246000fd5b90600052602060002090600502016004600085815260200190815260200160002082815481106106a957634e487b7160e01b600052603260045260246000fd5b906000526020600020906005020160008201816000019080546106cb90614e85565b6106d6929190613960565b5060018201816001019080546106eb90614e85565b6106f6929190613960565b5060028201548160020155600382018160030190805461071590614e85565b610720929190613960565b50600482018160040190805461073590614e85565b610740929190613960565b50905050808061074f90614ec0565b915050610610565b50600082815260046020526040902080548061078357634e487b7160e01b600052603160045260246000fd5b600082815260208120600019909201916005830201906107a382826139db565b6107b16001830160006139db565b60028201600090556003820160006107c991906139db565b6107d76004830160006139db565b5050905581600080516020614f228339815191526107f48361357a565b60405161080191906149cd565b60405180910390a25050565b6000546001600160a01b031633146108375760405162461bcd60e51b815260040161038190614902565b60015485106108585760405162461bcd60e51b8152600401610381906147fd565b610860613a17565b8481526020810184905260408101839052608081018290526000805b6000888152600260205260409020548110156109545760008881526002602052604081208054839081106108c057634e487b7160e01b600052603260045260246000fd5b90600052602060002090601202019050806002015487101580156108e75750806003015487105b15610941576004810180549060006108fe83614ec0565b919050555061093c8160018b8154811061092857634e487b7160e01b600052603260045260246000fd5b90600052602060002090600e0201886136c0565b600192505b508061094c81614ec0565b91505061087c565b508015610a6557610993826001898154811061098057634e487b7160e01b600052603260045260246000fd5b90600052602060002090600e0201613769565b60008781526003602090815260408220805460018101825590835291819020845180518694600802909201926109ce928492909101906138dc565b506020828101516001830155604083015160028301556060830151600383015560808301518051610a0592600485019201906138dc565b5060a0820151600582015560c0820151600682015560e08201518051610a359160078401916020909101906138dc565b50508251604051899250600080516020614f2283398151915291610a5891614785565b60405180910390a2610a8a565b86600080516020614f22833981519152604051610a8190614bf2565b60405180910390a25b50505050505050565b6000546001600160a01b03163314610abd5760405162461bcd60e51b815260040161038190614902565b6001548510610ade5760405162461bcd60e51b8152600401610381906147fd565b610ae6613a5c565b60408082018390528582526060820185905260808201849052600087815260046020908152918120805460018101825590825290829020835180518594600590940290920192610b3b928492909101906138dc565b506020828101518051610b5492600185019201906138dc565b506040820151600282015560608201518051610b7a9160038401916020909101906138dc565b5060808201518051610b969160048401916020909101906138dc565b50505085600080516020614f2283398151915285604051610bb79190614bbb565b60405180910390a2505050505050565b6001546060908210610beb5760405162461bcd60e51b8152600401610381906147fd565b600082815260056020908152604080832080548251818502810185019093528083529193909284015b82821015610d815783829060005260206000209060030201604051806060016040529081600082018054610c4790614e85565b80601f0160208091040260200160405190810160405280929190818152602001828054610c7390614e85565b8015610cc05780601f10610c9557610100808354040283529160200191610cc0565b820191906000526020600020905b815481529060010190602001808311610ca357829003601f168201915b505050918352505060018201546001600160a01b03166020820152600282018054604090920191610cf090614e85565b80601f0160208091040260200160405190810160405280929190818152602001828054610d1c90614e85565b8015610d695780601f10610d3e57610100808354040283529160200191610d69565b820191906000526020600020905b815481529060010190602001808311610d4c57829003601f168201915b50505050508152505081526020019060010190610c14565b5050505090505b919050565b6001546060908210610db15760405162461bcd60e51b8152600401610381906147fd565b600082815260026020908152604080832080548251818502810185019093528083529193909284015b82821015610d81578382906000526020600020906012020160405180610240016040529081600082018054610e0e90614e85565b80601f0160208091040260200160405190810160405280929190818152602001828054610e3a90614e85565b8015610e875780601f10610e5c57610100808354040283529160200191610e87565b820191906000526020600020905b815481529060010190602001808311610e6a57829003601f168201915b5050505050815260200160018201548152602001600282015481526020016003820154815260200160048201548152602001600582015481526020016006820154815260200160078201548152602001600882018054610ee690614e85565b80601f0160208091040260200160405190810160405280929190818152602001828054610f1290614e85565b8015610f5f5780601f10610f3457610100808354040283529160200191610f5f565b820191906000526020600020905b815481529060010190602001808311610f4257829003601f168201915b5050505050815260200160098201548152602001600a82018054610f8290614e85565b80601f0160208091040260200160405190810160405280929190818152602001828054610fae90614e85565b8015610ffb5780601f10610fd057610100808354040283529160200191610ffb565b820191906000526020600020905b815481529060010190602001808311610fde57829003601f168201915b50505050508152602001600b8201548152602001600c8201548152602001600d8201548152602001600e8201548152602001600f8201805461103c90614e85565b80601f016020809104026020016040519081016040528092919081815260200182805461106890614e85565b80156110b55780601f1061108a576101008083540402835291602001916110b5565b820191906000526020600020905b81548152906001019060200180831161109857829003601f168201915b505050505081526020016010820154815260200160118201548152505081526020019060010190610dda565b6000546001600160a01b0316331461110b5760405162461bcd60e51b815260040161038190614902565b600154821061112c5760405162461bcd60e51b8152600401610381906147fd565b61121b826040518060400160405280600d81526020016c657874656e6465645f6461746160981b8152506001858154811061117757634e487b7160e01b600052603260045260246000fd5b90600052602060002090600e0201600001805461119390614e85565b80601f01602080910402602001604051908101604052809291908181526020018280546111bf90614e85565b801561120c5780601f106111e15761010080835404028352916020019161120c565b820191906000526020600020905b8154815290600101906020018083116111ef57829003601f168201915b50505050508460000151613807565b61130a826040518060400160405280600d81526020016c636f6e74726163745f6e616d6560981b8152506001858154811061126657634e487b7160e01b600052603260045260246000fd5b90600052602060002090600e0201600101805461128290614e85565b80601f01602080910402602001604051908101604052809291908181526020018280546112ae90614e85565b80156112fb5780601f106112d0576101008083540402835291602001916112fb565b820191906000526020600020905b8154815290600101906020018083116112de57829003601f168201915b50505050508460200151613807565b6113f9826040518060400160405280600d81526020016c636f6e74726163745f7479706560981b8152506001858154811061135557634e487b7160e01b600052603260045260246000fd5b90600052602060002090600e0201600201805461137190614e85565b80601f016020809104026020016040519081016040528092919081815260200182805461139d90614e85565b80156113ea5780601f106113bf576101008083540402835291602001916113ea565b820191906000526020600020905b8154815290600101906020018083116113cd57829003601f168201915b50505050508460400151613807565b6114e8826040518060400160405280600d81526020016c333ab73234b733afb4b739ba3960991b8152506001858154811061144457634e487b7160e01b600052603260045260246000fd5b90600052602060002090600e0201600301805461146090614e85565b80601f016020809104026020016040519081016040528092919081815260200182805461148c90614e85565b80156114d95780601f106114ae576101008083540402835291602001916114d9565b820191906000526020600020905b8154815290600101906020018083116114bc57829003601f168201915b50505050508460600151613807565b611561826040518060400160405280600f81526020016e1cd95c9d9a58d957d9995957dc18dd608a1b81525061154f6001868154811061153857634e487b7160e01b600052603260045260246000fd5b90600052602060002090600e02016004015461357a565b61155c856080015161357a565b613807565b6115d5826040518060400160405280600f81526020016e0e6cae4ecd2c6cabecccacabedac2f608b1b8152506115c8600186815481106115b157634e487b7160e01b600052603260045260246000fd5b90600052602060002090600e02016005015461357a565b61155c8560a0015161357a565b611649826040518060400160405280600f81526020016e1cd95c9d9a58d957d9995957d85b5d608a1b81525061163c6001868154811061162557634e487b7160e01b600052603260045260246000fd5b90600052602060002090600e02016006015461357a565b61155c8560c0015161357a565b6116b9826040518060400160405280600b81526020016a18591d985b98d957dc18dd60aa1b8152506116ac6001868154811061169557634e487b7160e01b600052603260045260246000fd5b90600052602060002090600e02016007015461357a565b61155c8560e0015161357a565b61172b826040518060400160405280600c81526020016b1b185d1957d9995957dc18dd60a21b81525061171d6001868154811061170657634e487b7160e01b600052603260045260246000fd5b90600052602060002090600e02016008015461357a565b61155c85610100015161357a565b61181c826040518060400160405280600e81526020016d7472616e736163745f6c6f67696360901b8152506001858154811061177757634e487b7160e01b600052603260045260246000fd5b90600052602060002090600e0201600901805461179390614e85565b80601f01602080910402602001604051908101604052809291908181526020018280546117bf90614e85565b801561180c5780601f106117e15761010080835404028352916020019161180c565b820191906000526020600020905b8154815290600101906020018083116117ef57829003601f168201915b5050505050846101200151613807565b61190482604051806040016040528060058152602001646e6f74657360d81b8152506001858154811061185f57634e487b7160e01b600052603260045260246000fd5b90600052602060002090600e0201600c01805461187b90614e85565b80601f01602080910402602001604051908101604052809291908181526020018280546118a790614e85565b80156118f45780601f106118c9576101008083540402835291602001916118f4565b820191906000526020600020905b8154815290600101906020018083116118d757829003601f168201915b5050505050846101800151613807565b611978826040518060400160405280600981526020016869735f61637469766560b81b81525061196a6001868154811061194e57634e487b7160e01b600052603260045260246000fd5b60009182526020909120600d600e90920201015460ff1661386a565b61155c856101a0015161386a565b6119f3826040518060400160405280600881526020016769735f71756f746560c01b8152506119e5600186815481106119c157634e487b7160e01b600052603260045260246000fd5b90600052602060002090600e0201600d0160019054906101000a900460ff1661386a565b61155c856101c0015161386a565b8060018381548110611a1557634e487b7160e01b600052603260045260246000fd5b90600052602060002090600e02016000820151816000019080519060200190611a3f9291906138dc565b506020828101518051611a5892600185019201906138dc565b5060408201518051611a749160028401916020909101906138dc565b5060608201518051611a909160038401916020909101906138dc565b506080820151600482015560a0820151600582015560c0820151600682015560e0820151600782015561010082015160088201556101208201518051611ae09160098401916020909101906138dc565b50610140820151600a820155610160820151600b8201556101808201518051611b1391600c8401916020909101906138dc565b506101a0820151600d90910180546101c09093015115156101000261ff001992151560ff1990941693909317919091169190911790555050565b6001546060908210611b715760405162461bcd60e51b8152600401610381906147fd565b600082815260036020908152604080832080548251818502810185019093528083529193909284015b82821015610d81578382906000526020600020906008020160405180610100016040529081600082018054611bce90614e85565b80601f0160208091040260200160405190810160405280929190818152602001828054611bfa90614e85565b8015611c475780601f10611c1c57610100808354040283529160200191611c47565b820191906000526020600020905b815481529060010190602001808311611c2a57829003601f168201915b50505050508152602001600182015481526020016002820154815260200160038201548152602001600482018054611c7e90614e85565b80601f0160208091040260200160405190810160405280929190818152602001828054611caa90614e85565b8015611cf75780601f10611ccc57610100808354040283529160200191611cf7565b820191906000526020600020905b815481529060010190602001808311611cda57829003601f168201915b505050505081526020016005820154815260200160068201548152602001600782018054611d2490614e85565b80601f0160208091040260200160405190810160405280929190818152602001828054611d5090614e85565b8015611d9d5780601f10611d7257610100808354040283529160200191611d9d565b820191906000526020600020905b815481529060010190602001808311611d8057829003601f168201915b50505050508152505081526020019060010190611b9a565b6000546001600160a01b03163314611ddf5760405162461bcd60e51b815260040161038190614902565b6001548610611e005760405162461bcd60e51b8152600401610381906147fd565b6000868152600260205260409020805485919087908110611e3157634e487b7160e01b600052603260045260246000fd5b90600052602060002090601202016005018190555082600260008881526020019081526020016000208681548110611e7957634e487b7160e01b600052603260045260246000fd5b90600052602060002090601202016007018190555081600260008881526020019081526020016000208681548110611ec157634e487b7160e01b600052603260045260246000fd5b90600052602060002090601202016008019080519060200190611ee59291906138dc565b506000868152600260205260409020805486908110611f1457634e487b7160e01b600052603260045260246000fd5b90600052602060002090601202016001015484111561211b576018603c80600260008a81526020019081526020016000208881548110611f6457634e487b7160e01b600052603260045260246000fd5b90600052602060002090601202016001015487611f819190614e42565b611f8b9190614e03565b611f959190614e03565b611f9f9190614e03565b6000878152600260205260409020805487908110611fcd57634e487b7160e01b600052603260045260246000fd5b9060005260206000209060120201600b0181905550633b9aca0060026000888152602001908152602001600020868154811061201957634e487b7160e01b600052603260045260246000fd5b90600052602060002090601202016006015461016d6001898154811061204f57634e487b7160e01b600052603260045260246000fd5b90600052602060002090600e020160080154620186a061206f9190614e23565b6120799190614e03565b60008981526002602052604090208054899081106120a757634e487b7160e01b600052603260045260246000fd5b9060005260206000209060120201600b01546120c39190614e23565b6120cd9190614e23565b6120d79190614e03565b600087815260026020526040902080548790811061210557634e487b7160e01b600052603260045260246000fd5b9060005260206000209060120201600c01819055505b600086815260026020526040902080548690811061214957634e487b7160e01b600052603260045260246000fd5b90600052602060002090601202016010015483101561224b57600086815260026020526040902080548491908790811061219357634e487b7160e01b600052603260045260246000fd5b9060005260206000209060120201601001546121af9190614e42565b60008781526002602052604090208054879081106121dd57634e487b7160e01b600052603260045260246000fd5b9060005260206000209060120201600901819055508060026000888152602001908152602001600020868154811061222557634e487b7160e01b600052603260045260246000fd5b9060005260206000209060120201600a0190805190602001906122499291906138dc565b505b600086815260026020526040812080548790811061227957634e487b7160e01b600052603260045260246000fd5b9060005260206000209060120201600901546002600089815260200190815260200160002087815481106122bd57634e487b7160e01b600052603260045260246000fd5b9060005260206000209060120201600c0154600260008a8152602001908152602001600020888154811061230157634e487b7160e01b600052603260045260246000fd5b90600052602060002090601202016010015461231d9190614e42565b6123279190614e42565b111561245157600086815260026020526040902080548690811061235b57634e487b7160e01b600052603260045260246000fd5b90600052602060002090601202016009015460026000888152602001908152602001600020868154811061239f57634e487b7160e01b600052603260045260246000fd5b9060005260206000209060120201600c01546002600089815260200190815260200160002087815481106123e357634e487b7160e01b600052603260045260246000fd5b9060005260206000209060120201601001546123ff9190614e42565b6124099190614e42565b600087815260026020526040902080548790811061243757634e487b7160e01b600052603260045260246000fd5b906000526020600020906012020160110181905550612495565b600086815260026020526040812080548790811061247f57634e487b7160e01b600052603260045260246000fd5b9060005260206000209060120201601101819055505b85600080516020614f22833981519152604051610bb790614a06565b6000546001600160a01b031633146124db5760405162461bcd60e51b815260040161038190614902565b60015481106124fc5760405162461bcd60e51b8152600401610381906147fd565b600081815260026020526040812061251391613a8b565b80600080516020614f228339815191526040516103de90614b47565b6000546001600160a01b031633146125595760405162461bcd60e51b815260040161038190614902565b600154851061257a5760405162461bcd60e51b8152600401610381906147fd565b60008581526002602052604090208054849190869081106125ab57634e487b7160e01b600052603260045260246000fd5b9060005260206000209060120201600d0181905550816002600087815260200190815260200160002085815481106125f357634e487b7160e01b600052603260045260246000fd5b9060005260206000209060120201600e01819055508060026000878152602001908152602001600020858154811061263b57634e487b7160e01b600052603260045260246000fd5b9060005260206000209060120201600f01908051906020019061265f9291906138dc565b5084600080516020614f2283398151915260405161267c9061495f565b60405180910390a25050505050565b6000546001600160a01b031633146126b55760405162461bcd60e51b815260040161038190614902565b60015482106126d65760405162461bcd60e51b8152600401610381906147fd565b6000828152600560209081526040822080546001810182559083529181902083518051859460030290920192612711928492909101906138dc565b506020828101516001830180546001600160a01b0319166001600160a01b039092169190911790556040830151805161275092600285019201906138dc565b50508151604051849250600080516020614f228339815191529161080191614b13565b6000546001600160a01b0316331461279d5760405162461bcd60e51b815260040161038190614902565b60015481106127be5760405162461bcd60e51b8152600401610381906147fd565b6000600182815481106127e157634e487b7160e01b600052603260045260246000fd5b60009182526020909120600e90910201600d01805460ff191691151591909117905580600080516020614f2283398151915261281c8261357a565b6040516103de9190614b82565b6000546001600160a01b031633146128535760405162461bcd60e51b815260040161038190614902565b60015482106128745760405162461bcd60e51b8152600401610381906147fd565b60008281526005602052604090205481106128a15760405162461bcd60e51b815260040161038190614aad565b805b6000838152600560205260409020546128be90600190614e42565b8110156129c65760008381526005602052604090206128de826001614dc6565b815481106128fc57634e487b7160e01b600052603260045260246000fd5b906000526020600020906003020160056000858152602001908152602001600020828154811061293c57634e487b7160e01b600052603260045260246000fd5b9060005260206000209060030201600082018160000190805461295e90614e85565b612969929190613960565b5060018281015490820180546001600160a01b0319166001600160a01b0390921691909117905560028083018054918301916129a490614e85565b6129af929190613960565b5090505080806129be90614ec0565b9150506128a3565b5060008281526005602052604090208054806129f257634e487b7160e01b600052603160045260246000fd5b60008281526020812060001990920191600383020190612a1282826139db565b6001820180546001600160a01b0319169055612a326002830160006139db565b5050905581600080516020614f22833981519152612a4f8361357a565b60405161080191906148cc565b612a64613aac565b6001548210612a855760405162461bcd60e51b8152600401610381906147fd565b60018281548110612aa657634e487b7160e01b600052603260045260246000fd5b90600052602060002090600e0201604051806101e0016040529081600082018054612ad090614e85565b80601f0160208091040260200160405190810160405280929190818152602001828054612afc90614e85565b8015612b495780601f10612b1e57610100808354040283529160200191612b49565b820191906000526020600020905b815481529060010190602001808311612b2c57829003601f168201915b50505050508152602001600182018054612b6290614e85565b80601f0160208091040260200160405190810160405280929190818152602001828054612b8e90614e85565b8015612bdb5780601f10612bb057610100808354040283529160200191612bdb565b820191906000526020600020905b815481529060010190602001808311612bbe57829003601f168201915b50505050508152602001600282018054612bf490614e85565b80601f0160208091040260200160405190810160405280929190818152602001828054612c2090614e85565b8015612c6d5780601f10612c4257610100808354040283529160200191612c6d565b820191906000526020600020905b815481529060010190602001808311612c5057829003601f168201915b50505050508152602001600382018054612c8690614e85565b80601f0160208091040260200160405190810160405280929190818152602001828054612cb290614e85565b8015612cff5780601f10612cd457610100808354040283529160200191612cff565b820191906000526020600020905b815481529060010190602001808311612ce257829003601f168201915b505050505081526020016004820154815260200160058201548152602001600682015481526020016007820154815260200160088201548152602001600982018054612d4a90614e85565b80601f0160208091040260200160405190810160405280929190818152602001828054612d7690614e85565b8015612dc35780601f10612d9857610100808354040283529160200191612dc3565b820191906000526020600020905b815481529060010190602001808311612da657829003601f168201915b50505050508152602001600a8201548152602001600b8201548152602001600c82018054612df090614e85565b80601f0160208091040260200160405190810160405280929190818152602001828054612e1c90614e85565b8015612e695780601f10612e3e57610100808354040283529160200191612e69565b820191906000526020600020905b815481529060010190602001808311612e4c57829003601f168201915b5050509183525050600d919091015460ff8082161515602084015261010090910416151560409091015292915050565b6000546001600160a01b03163314612ec35760405162461bcd60e51b815260040161038190614902565b6001548510612ee45760405162461bcd60e51b8152600401610381906147fd565b6000858152600360205260409020805484919086908110612f1557634e487b7160e01b600052603260045260246000fd5b90600052602060002090600802016005018190555081600360008781526020019081526020016000208581548110612f5d57634e487b7160e01b600052603260045260246000fd5b90600052602060002090600802016006018190555080600360008781526020019081526020016000208581548110612fa557634e487b7160e01b600052603260045260246000fd5b90600052602060002090600802016007019080519060200190612fc99291906138dc565b5084600080516020614f2283398151915260405161267c90614869565b6000546001600160a01b031681565b60015490565b6000546001600160a01b031633146130255760405162461bcd60e51b815260040161038190614902565b60015485106130465760405162461bcd60e51b8152600401610381906147fd565b61304e613b26565b60208082018590526040808301859052606083018490528683526000888152600283529081208054600181018255908252908290208351805185946012909402909201926130a1928492909101906138dc565b50602082810151600183015560408301516002830155606083015160038301556080830151600483015560a0830151600583015560c0830151600683015560e08301516007830155610100830151805161310192600885019201906138dc565b506101208201516009820155610140820151805161312991600a8401916020909101906138dc565b50610160820151600b820155610180820151600c8201556101a0820151600d8201556101c0820151600e8201556101e0820151805161317291600f8401916020909101906138dc565b5061020082015181601001556102208201518160110155505085600080516020614f228339815191528260000151604051610bb79190614ada565b60015460609082106131d15760405162461bcd60e51b8152600401610381906147fd565b600082815260046020908152604080832080548251818502810185019093528083529193909284015b82821015610d8157838290600052602060002090600502016040518060a001604052908160008201805461322d90614e85565b80601f016020809104026020016040519081016040528092919081815260200182805461325990614e85565b80156132a65780601f1061327b576101008083540402835291602001916132a6565b820191906000526020600020905b81548152906001019060200180831161328957829003601f168201915b505050505081526020016001820180546132bf90614e85565b80601f01602080910402602001604051908101604052809291908181526020018280546132eb90614e85565b80156133385780601f1061330d57610100808354040283529160200191613338565b820191906000526020600020905b81548152906001019060200180831161331b57829003601f168201915b505050505081526020016002820154815260200160038201805461335b90614e85565b80601f016020809104026020016040519081016040528092919081815260200182805461338790614e85565b80156133d45780601f106133a9576101008083540402835291602001916133d4565b820191906000526020600020905b8154815290600101906020018083116133b757829003601f168201915b505050505081526020016004820180546133ed90614e85565b80601f016020809104026020016040519081016040528092919081815260200182805461341990614e85565b80156134665780601f1061343b57610100808354040283529160200191613466565b820191906000526020600020905b81548152906001019060200180831161344957829003601f168201915b505050505081525050815260200190600101906131fa565b6000546001600160a01b031633146134a85760405162461bcd60e51b815260040161038190614902565b60015481106134c95760405162461bcd60e51b8152600401610381906147fd565b60008181526005602052604081206134e091613bb1565b80600080516020614f228339815191526040516103de90614a3d565b6000546001600160a01b031633146135265760405162461bcd60e51b815260040161038190614902565b60015481106135475760405162461bcd60e51b8152600401610381906147fd565b600081815260036020526040812061355e91613bd2565b80600080516020614f228339815191526040516103de9061482d565b60608161359f57506040805180820190915260018152600360fc1b6020820152610d88565b8160005b81156135c957806135b381614ec0565b91506135c29050600a83614e03565b91506135a3565b60008167ffffffffffffffff8111156135f257634e487b7160e01b600052604160045260246000fd5b6040519080825280601f01601f19166020018201604052801561361c576020820181803683370190505b509050815b85156136b757613632600182614e42565b90506000613641600a88614e03565b61364c90600a614e23565b6136569088614e42565b613661906030614dde565b905060008160f81b90508084848151811061368c57634e487b7160e01b600052603260045260246000fd5b60200101906001600160f81b031916908160001a9053506136ae600a89614e03565b97505050613621565b50949350505050565b600081121561370e5760006136d482614edb565b90508084600601541061370057808460060160008282546136f59190614e42565b909155506137089050565b600060068501555b5061372e565b6000819050808460060160008282546137279190614dc6565b9091555050505b61271082600701546127106137439190614e42565b84600601546137529190614e23565b61375c9190614e03565b8360100181905550505050565b6000826040015113156137fb57600082604001519050600082600601546127108385600401546137999190614e23565b6137a39190614e03565b6137ad9190614dc6565b905060006127108460070154846137c49190614e23565b6137ce9190614e03565b90508181106137eb576137e18282614e42565b60608601526137f3565b600060608601525b505050613803565b600060608301525b5050565b80805190602001208280519060200120146138645783600080516020614f22833981519152848484604051602001613841939291906143b2565b60408051601f198184030181529082905261385b91614994565b60405180910390a25b50505050565b606081613894576040518060400160405280600581526020016466616c736560d81b8152506138b2565b604051806040016040528060048152602001637472756560e01b8152505b92915050565b50805460008255600502906000526020600020908101906138d99190613bf3565b50565b8280546138e890614e85565b90600052602060002090601f01602090048101928261390a5760008555613950565b82601f1061392357805160ff1916838001178555613950565b82800160010185558215613950579182015b82811115613950578251825591602001919060010190613935565b5061395c929150613c44565b5090565b82805461396c90614e85565b90600052602060002090601f01602090048101928261398e5760008555613950565b82601f1061399f5780548555613950565b8280016001018555821561395057600052602060002091601f016020900482015b828111156139505782548255916001019190600101906139c0565b5080546139e790614e85565b6000825580601f106139f957506138d9565b601f0160209004906000526020600020908101906138d99190613c44565b60405180610100016040528060608152602001600081526020016000815260200160008152602001606081526020016000815260200160008152602001606081525090565b6040518060a0016040528060608152602001606081526020016000815260200160608152602001606081525090565b50805460008255601202906000526020600020908101906138d99190613c59565b604051806101e00160405280606081526020016060815260200160608152602001606081526020016000815260200160008152602001600081526020016000815260200160008152602001606081526020016000815260200160008152602001606081526020016000151581526020016000151581525090565b6040518061024001604052806060815260200160008152602001600081526020016000815260200160008152602001600081526020016000815260200160008152602001606081526020016000815260200160608152602001600081526020016000815260200160008152602001600081526020016060815260200160008152602001600081525090565b50805460008255600302906000526020600020908101906138d99190613d14565b50805460008255600802906000526020600020908101906138d99190613d51565b8082111561395c576000613c0782826139db565b613c156001830160006139db565b6002820160009055600382016000613c2d91906139db565b613c3b6004830160006139db565b50600501613bf3565b5b8082111561395c5760008155600101613c45565b8082111561395c576000613c6d82826139db565b6001820160009055600282016000905560038201600090556004820160009055600582016000905560068201600090556007820160009055600882016000613cb591906139db565b6009820160009055600a82016000613ccd91906139db565b600b820160009055600c820160009055600d820160009055600e820160009055600f82016000613cfd91906139db565b506000601082018190556011820155601201613c59565b8082111561395c576000613d2882826139db565b6001820180546001600160a01b0319169055613d486002830160006139db565b50600301613d14565b8082111561395c576000613d6582826139db565b600182016000905560028201600090556003820160009055600482016000613d8d91906139db565b60058201600090556006820160009055600782016000613dad91906139db565b50600801613d51565b80358015158114610d8857600080fd5b600082601f830112613dd6578081fd5b813567ffffffffffffffff811115613df057613df0614f0b565b613e03601f8201601f1916602001614d9c565b818152846020838601011115613e17578283fd5b816020850160208301379081016020019190915292915050565b60006101e0808385031215613e44578182fd5b613e4d81614d9c565b915050813567ffffffffffffffff80821115613e6857600080fd5b613e7485838601613dc6565b83526020840135915080821115613e8a57600080fd5b613e9685838601613dc6565b60208401526040840135915080821115613eaf57600080fd5b613ebb85838601613dc6565b60408401526060840135915080821115613ed457600080fd5b613ee085838601613dc6565b60608401526080840135608084015260a084013560a084015260c084013560c084015260e084013560e08401526101009150818401358284015261012091508184013581811115613f3057600080fd5b613f3c86828701613dc6565b928401929092526101408481013590840152610160808501359084015261018091508184013581811115613f6f57600080fd5b613f7b86828701613dc6565b838501525050506101a0613f90818401613db6565b908201526101c0613fa2838201613db6565b9082015292915050565b600060208284031215613fbd578081fd5b813567ffffffffffffffff811115613fd3578182fd5b613fdf84828501613e31565b949350505050565b600060208284031215613ff8578081fd5b5035919050565b600080600080600060a08688031215614016578081fd5b85359450602086013567ffffffffffffffff80821115614034578283fd5b61404089838a01613dc6565b95506040880135915080821115614055578283fd5b61406189838a01613dc6565b94506060880135915080821115614076578283fd5b5061408388828901613dc6565b95989497509295608001359392505050565b600080600080600060a086880312156140ac578081fd5b85359450602086013567ffffffffffffffff808211156140ca578283fd5b6140d689838a01613dc6565b9550604088013594506060880135935060808801359150808211156140f9578283fd5b5061410688828901613dc6565b9150509295509295909350565b600080600080600060a0868803121561412a578081fd5b85359450602086013567ffffffffffffffff811115614147578182fd5b61415388828901613dc6565b959895975050505060408401359360608101359360809091013592509050565b60008060408385031215614185578182fd5b82359150602083013567ffffffffffffffff8111156141a2578182fd5b6141ae85828601613e31565b9150509250929050565b600080604083850312156141ca578182fd5b82359150602083013567ffffffffffffffff808211156141e8578283fd5b90840190606082870312156141fb578283fd5b60405160608101818110838211171561421657614216614f0b565b604052823582811115614227578485fd5b61423388828601613dc6565b82525060208301356001600160a01b038116811461424f578485fd5b6020820152604083013582811115614265578485fd5b61427188828601613dc6565b6040830152508093505050509250929050565b60008060408385031215614296578182fd5b50508035926020909101359150565b600080600080600060a086880312156142bc578081fd5b85359450602086013593506040860135925060608601359150608086013567ffffffffffffffff8111156142ee578182fd5b61410688828901613dc6565b60008060008060008060c08789031215614312578384fd5b86359550602087013594506040870135935060608701359250608087013567ffffffffffffffff80821115614345578283fd5b6143518a838b01613dc6565b935060a0890135915080821115614366578283fd5b5061437389828a01613dc6565b9150509295509295509295565b15159052565b6000815180845261439e816020860160208601614e59565b601f01601f19169290920160200192915050565b600084516143c4818460208901614e59565b601d60f91b90830190815284516143e2816001840160208901614e59565b61169f60f11b600192909101918201528351614405816003840160208801614e59565b0160030195945050505050565b6001600160a01b0391909116815260200190565b60208082528251828201819052600091906040908185019080840286018301878501865b838110156144dc57603f19898403018552815160a0815181865261447082870182614386565b915050888201518582038a8701526144888282614386565b9150508782015188860152606080830151868303828801526144aa8382614386565b92505050608080830151925085820381870152506144c88183614386565b96890196945050509086019060010161444a565b509098975050505050505050565b60208082528251828201819052600091906040908185019080840286018301878501865b838110156144dc57603f1989840301855281516060815181865261453482870182614386565b838b01516001600160a01b0316878c0152928901518684038a88015292915061455f90508183614386565b96890196945050509086019060010161450e565b60208082528251828201819052600091906040908185019080840286018301878501865b838110156144dc57603f19898403018552815161024081518186526145be82870182614386565b838b0151878c0152898401518a880152606080850151908801526080808501519088015260a0808501519088015260c0808501519088015260e0808501519088015261010080850151888303828a0152919350915061461d8382614386565b9250505061012080830151818701525061014080830151868303828801526146458382614386565b610160858101519089015261018080860151908901526101a080860151908901526101c080860151908901526101e080860151898303828b0152919450925090506146908382614386565b61020085810151908901526102209485015194909701939093525050509386019390860190600101614597565b60208082528251828201819052600091906040908185019080840286018301878501865b838110156144dc57603f198984030185528151610100815181865261470882870182614386565b9150508882015189860152878201518886015260608083015181870152506080808301518683038288015261473d8382614386565b9250505060a080830151818701525060c080830151818701525060e080830151925085820381870152506147718183614386565b9689019694505050908601906001016146e1565b600060408252601060408301526f151c985b9cd858dd1a5bdb905919195960821b6060830152608060208301526147bf6080830184614386565b9392505050565b600060408252600d60408301526c10dbdb9d1c9858dd1059191959609a1b6060830152608060208301526147bf6080830184614386565b602080825260169082015275092dcecc2d8d2c840c6dedce8e4c2c6e840d2dcc8caf60531b604082015260600190565b604080825260139082015272151c985b9cd858dd1a5bdb9cd1195b195d1959606a1b606082015260806020820181905260009082015260a00190565b6040808252600a9082015269506179416476616e636560b01b606082015260806020820181905260009082015260a00190565b602080825260169082015275092dcecc2d8d2c840c2e4e8d2ccc2c6e840d2dcc8caf60531b604082015260600190565b600060408252600c60408301526b14185c9d1e51195b195d195960a21b6060830152608060208301526147bf6080830184614386565b60208082526039908201527f4163636573732064656e6965642c206f6e6c7920636f6e7472616374206f776e60408201527f65722063616e2063616c6c20746869732066756e6374696f6e00000000000000606082015260800190565b6040808252600c908201526b14995cda591d585b14185a5960a21b606082015260806020820181905260009082015260a00190565b600060408252600f60408301526e10dbdb9d1c9858dd155c19185d1959608a1b6060830152608060208301526147bf6080830184614386565b600060408252600f60408301526e105c9d1a599858dd11195b195d1959608a1b6060830152608060208301526147bf6080830184614386565b6040808252600e908201526d141bdcdd14d95d1d1b195b595b9d60921b606082015260806020820181905260009082015260a00190565b6040808252600e908201526d14185c9d1a595cd1195b195d195960921b606082015260806020820181905260009082015260a00190565b60408082526010908201526f105c9d1a599858dd1cd1195b195d195960821b606082015260806020820181905260009082015260a00190565b602080825260139082015272092dcecc2d8d2c840e0c2e4e8f240d2dcc8caf606b1b604082015260600190565b600060408252600f60408301526e14d95d1d1b195b595b9d1059191959608a1b6060830152608060208301526147bf6080830184614386565b600060408252600a60408301526914185c9d1e505919195960b21b6060830152608060208301526147bf6080830184614386565b60408082526012908201527114d95d1d1b195b595b9d1cd1195b195d195960721b606082015260806020820181905260009082015260a00190565b600060408252600f60408301526e10dbdb9d1c9858dd11195b195d1959608a1b6060830152608060208301526147bf6080830184614386565b600060408252600d60408301526c105c9d1a599858dd1059191959609a1b6060830152608060208301526147bf6080830184614386565b60408082526010908201526f2a3930b739b0b1ba34b7b722b93937b960811b6060820152608060208201819052601a908201527f4e6f2076616c696420736574746c656d656e7420706572696f6400000000000060a082015260c00190565b60006020825282516101e0806020850152614c70610200850183614386565b91506020850151601f1980868503016040870152614c8e8483614386565b93506040870151915080868503016060870152614cab8483614386565b93506060870151915080868503016080870152614cc88483614386565b9350608087015160a087015260a087015160c087015260c087015160e087015260e08701519150610100828188015280880151925050610120828188015280880151925050610140818786030181880152614d238584614386565b90880151610160888101919091528801516101808089019190915288015187820383016101a0808a01919091529195509250614d5f8584614386565b945080880151925050506101c0614d7881870183614380565b8601519050614d8985830182614380565b5090949350505050565b90815260200190565b60405181810167ffffffffffffffff81118282101715614dbe57614dbe614f0b565b604052919050565b60008219821115614dd957614dd9614ef5565b500190565b600060ff821660ff84168060ff03821115614dfb57614dfb614ef5565b019392505050565b600082614e1e57634e487b7160e01b81526012600452602481fd5b500490565b6000816000190483118215151615614e3d57614e3d614ef5565b500290565b600082821015614e5457614e54614ef5565b500390565b60005b83811015614e74578181015183820152602001614e5c565b838111156138645750506000910152565b600281046001821680614e9957607f821691505b60208210811415614eba57634e487b7160e01b600052602260045260246000fd5b50919050565b6000600019821415614ed457614ed4614ef5565b5060010190565b6000600160ff1b821415614ef157614ef1614ef5565b0390565b634e487b7160e01b600052601160045260246000fd5b634e487b7160e01b600052604160045260246000fdfe345796c5f37ac4d00f0bd7eebb6ba729df51ddd74dafb2db6bf0c4a4a354577aa2646970667358221220953514509a9dfe3423845cea2bb6b3dfad52cc95de093d5a4f08945fdae3efa164736f6c63430008000033",
  "immutableReferences": {},
  "source": "// SPDX-License-Identifier: MIT\npragma solidity ^0.8.0;\n\ncontract Delivery {\n\n    address public owner;\n\n    Contract[] contracts;                                   // [contract_idx]\n    mapping (uint => Settlement[]) private settlements;     // contract_idx => settlement[]\n    mapping (uint => Transaction[]) private transactions;   // contract_idx => transaction[]\n    mapping (uint => Artifact[]) private artifacts;         // contract_idx => artifact_list[]\n    mapping (uint => Party[]) private parties;              // contract_idx => party[]\n\n    // every field ending in _dt is a unix timestamp\n    // every field ending in _amt is an integer representing a float with 2 decimals\n    // every field ending in _pct is an integer represending a float value with 4 decimals \n    // every field ending in _confirm is a string returned from the fiat payment provider\n\n    struct Contract {\n        string extended_data;           // json extended data\n        string contract_name;           // description for display purposes\n        string contract_type;           // the type of contract, e.g. ticketing, construction\n        string funding_instr;           // buyer funding instructions\n        uint service_fee_pct;           // service fee pct <= service_fee_max\n        uint service_fee_max;           // maximum fee that can be charged if the rate is variable\n        uint service_fee_amt;           // flat rate amt if not percentage based\n        uint advance_pct;               // amount of money that will be advanced to seller for every transaction\n        uint late_fee_pct;              // an APR, daily rate calculated as late_fee_pct / 365\n        string transact_logic;          // jsonlogic formula for calculating transaction amount\n        int min_threshold;              // minimum expected amount for a deliverable (could be negative)\n        int max_threshold;              // maximum expected amount for a deliverable\n        string notes;                   // contract notes, can be used for additonal data requests\n        bool is_active;                 // instead of deleting, clear this flag to False\n        bool is_quote;                  // true if still in the quote stage\n    }\n\n    struct Settlement {\n        string extended_data;           // json extended data\n        uint settle_due_dt;             // date the payment is due \n        uint transact_min_dt;           // min date the transaction is made \n        uint transact_max_dt;           // max date the transaction is made \n        uint transact_count;            // number of transactions in this current settlement period \n        uint settle_pay_dt;             // when the settlement was paid\n        uint settle_exp_amt;            // expected amount of settlement 0\n        uint settle_pay_amt;            // actual amount paid from the buyer\n        string settle_confirm;          // confirmation from payment source\n        uint dispute_amt;               // if expected  < actual, assume there was a dispute\n        string dispute_reason;          // if dispute_amt > 0, what was the reason (if provided)\n        uint days_late;                 // number of days late the payment was made\n        uint late_fee_amt;              // amount of the late fee, will be taken out of the residual\n        uint residual_pay_dt;           // date and time the residual was paid\n        uint residual_pay_amt;          // will equal residual_calc_amt after payment intitiated\n        string residual_confirm;        // residual confirmation from the payment source\n        uint residual_exp_amt;          // expected amount of the residual\n        uint residual_calc_amt;         // what the actual residual will be (exp - late_fee - dispute)\n    }\n\n    struct Transaction {\n        string extended_data;           // json extended data\n        uint transact_dt;               // date and time of the transaction\n        int transact_amt;               // calculated value of a transaction, negative if an adjustment\n        uint advance_amt;               // advance_amt * advance_pct - service_fee_amt\n        string transact_data;           // data regarding transaction for jsonlogic    \n        uint advance_pay_dt;            // payment of advance\n        uint advance_pay_amt;           // will equal advance amt after payment initiated\n        string advance_confirm;         // payment confirmation of the advance from payment source\n    }\n\n    struct Artifact {\n        string artifact_id;             // external identifier\n        string extended_data;           // json extended data\n        uint added_dt;                  // date artifact was added\n        string doc_title;               // name of documents\n        string doc_type;                // document type\n    }\n\n    struct Party {\n        string party_code;              // code associated with a party\n        address party_address;          // wallet address\n        string party_type;              // the type of party associated with contract\n    }\n\n    event ContractEvent(uint indexed contract_idx, string eventType, string details);\n\n    constructor() {\n        owner = msg.sender;\n    }\n\n    modifier onlyOwner() {\n        require(msg.sender == owner, \"Access denied, only contract owner can call this function\");\n        _;\n    }\n\n    function getContractCount() public view returns (uint) {\n        return contracts.length;\n    }\n\n    function getContract(uint contract_idx) public view returns (Contract memory) {\n        require(contract_idx < contracts.length, \"Invalid contract index\");\n        return contracts[contract_idx];\n    }\n\n    function addContract (Contract memory contract_) public onlyOwner {\n        contracts.push(contract_);\n        emit ContractEvent(contracts.length - 1, \"ContractAdded\", contract_.contract_name);\n    }\n\n    function logContractChange(uint contract_idx, string memory field, string memory old_value, string memory new_value) private {\n        if (keccak256(bytes(old_value)) != keccak256(bytes(new_value))) {\n            emit ContractEvent(contract_idx, \"ContractUpdated\", string(abi.encodePacked(field, \":\", old_value, \"->\", new_value)));\n        }\n    }\n\n    function updateContract (uint contract_idx, Contract memory contract_) public onlyOwner {\n        require(contract_idx < contracts.length, \"Invalid contract index\");\n        logContractChange(contract_idx, \"extended_data\", contracts[contract_idx].extended_data, contract_.extended_data);\n        logContractChange(contract_idx, \"contract_name\", contracts[contract_idx].contract_name, contract_.contract_name);\n        logContractChange(contract_idx, \"contract_type\", contracts[contract_idx].contract_type, contract_.contract_type);\n        logContractChange(contract_idx, \"funding_instr\", contracts[contract_idx].funding_instr, contract_.funding_instr);\n        logContractChange(contract_idx, \"service_fee_pct\", uintToString(contracts[contract_idx].service_fee_pct), uintToString(contract_.service_fee_pct));\n        logContractChange(contract_idx, \"service_fee_max\", uintToString(contracts[contract_idx].service_fee_max), uintToString(contract_.service_fee_max));\n        logContractChange(contract_idx, \"service_fee_amt\", uintToString(contracts[contract_idx].service_fee_amt), uintToString(contract_.service_fee_amt));\n        logContractChange(contract_idx, \"advance_pct\", uintToString(contracts[contract_idx].advance_pct), uintToString(contract_.advance_pct));\n        logContractChange(contract_idx, \"late_fee_pct\", uintToString(contracts[contract_idx].late_fee_pct), uintToString(contract_.late_fee_pct));\n        logContractChange(contract_idx, \"transact_logic\", contracts[contract_idx].transact_logic, contract_.transact_logic);\n        logContractChange(contract_idx, \"notes\", contracts[contract_idx].notes, contract_.notes);\n        logContractChange(contract_idx, \"is_active\", boolToString(contracts[contract_idx].is_active), boolToString(contract_.is_active));\n        logContractChange(contract_idx, \"is_quote\", boolToString(contracts[contract_idx].is_quote), boolToString(contract_.is_quote));\n        contracts[contract_idx] = contract_;\n    }\n\n    // Mark a contract as inactive \n    function deleteContract(uint contract_idx) public onlyOwner {\n        require(contract_idx < contracts.length, \"Invalid contract index\");\n        contracts[contract_idx].is_active = false;\n        emit ContractEvent(contract_idx, \"ContractDeleted\", uintToString(contract_idx));\n    }\n\n    function getParties(uint contract_idx) public view returns (Party[] memory) {\n        require(contract_idx < contracts.length, \"Invalid contract index\");\n        return parties[contract_idx];\n    }\n\n    function addParty(uint contract_idx, Party memory party) public onlyOwner {\n        require(contract_idx < contracts.length, \"Invalid contract index\");\n        parties[contract_idx].push(party);\n        emit ContractEvent(contract_idx, \"PartyAdded\", party.party_code);\n    }\n\n    function deleteParty(uint contract_idx, uint party_idx) public onlyOwner {\n        require(contract_idx < contracts.length, \"Invalid contract index\");\n        require(party_idx < parties[contract_idx].length, \"Invalid party index\");\n\n        for (uint i = party_idx; i < parties[contract_idx].length - 1; i++) {\n            parties[contract_idx][i] = parties[contract_idx][i + 1];\n        }\n\n        parties[contract_idx].pop();\n\n        emit ContractEvent(contract_idx, \"PartyDeleted\", uintToString(party_idx));\n    }\n\n    function deleteParties(uint contract_idx) public onlyOwner {\n        require(contract_idx < contracts.length, \"Invalid contract index\");\n        delete parties[contract_idx];\n        emit ContractEvent(contract_idx, \"PartiesDeleted\", \"\");\n    }\n\n    function getArtifacts(uint contract_idx) public view returns (Artifact[] memory) {\n        require(contract_idx < contracts.length, \"Invalid contract index\");\n        return artifacts[contract_idx];\n    }\n\n    function addArtifact(uint contract_idx, string memory artifact_id, string memory doc_title, string memory doc_type, uint added_dt) public onlyOwner {\n        require(contract_idx < contracts.length, \"Invalid contract index\");\n        Artifact memory artifact;\n        artifact.added_dt = added_dt;\n        artifact.artifact_id = artifact_id;\n        artifact.doc_title = doc_title;\n        artifact.doc_type = doc_type; \n        artifacts[contract_idx].push(artifact);\n        emit ContractEvent(contract_idx, \"ArtifactAdded\", doc_title);\n    }\n\n    function deleteArtifact(uint contract_idx, uint artifact_idx) public onlyOwner {\n        require(contract_idx < contracts.length, \"Invalid contract index\");\n        require(artifact_idx < artifacts[contract_idx].length, \"Invalid artifact index\");\n\n        for (uint i = artifact_idx; i < artifacts[contract_idx].length - 1; i++) {\n            artifacts[contract_idx][i] = artifacts[contract_idx][i + 1];\n        }\n\n        artifacts[contract_idx].pop();\n\n        emit ContractEvent(contract_idx, \"ArtifactDeleted\", uintToString(artifact_idx));\n    }\n\n    function deleteArtifacts(uint contract_idx) public onlyOwner {\n        require(contract_idx < contracts.length, \"Invalid contract index\");\n        delete artifacts[contract_idx];\n        emit ContractEvent(contract_idx, \"ArtifactsDeleted\", \"\");\n    }\n\n    function getSettlements(uint contract_idx) public view returns (Settlement[] memory) {\n        require(contract_idx < contracts.length, \"Invalid contract index\");\n        return settlements[contract_idx];\n    }\n\n    function addSettlement(uint contract_idx, string memory extended_data, uint settle_due_dt, uint transact_min_dt, uint transact_max_dt) public onlyOwner {\n        require(contract_idx < contracts.length, \"Invalid contract index\");\n        Settlement memory settlement;\n        settlement.settle_due_dt = settle_due_dt;\n        settlement.transact_min_dt = transact_min_dt;\n        settlement.transact_max_dt = transact_max_dt;\n        settlement.extended_data = extended_data;\n        settlements[contract_idx].push(settlement);\n        emit ContractEvent(contract_idx, \"SettlementAdded\", settlement.extended_data);\n    }\n\n    function deleteSettlements(uint contract_idx) public onlyOwner {\n        require(contract_idx < contracts.length, \"Invalid contract index\");\n        delete settlements[contract_idx];\n        emit ContractEvent(contract_idx, \"SettlementsDeleted\", \"\");\n    }\n\n    function getTransactions(uint contract_idx) public view returns (Transaction[] memory) {\n        require(contract_idx < contracts.length, \"Invalid contract index\");\n        return transactions[contract_idx];\n    }\n\n    function addTransaction(uint contract_idx, string memory extended_data, uint transact_dt, int transact_amt, string memory transact_data) public onlyOwner {\n        require(contract_idx < contracts.length, \"Invalid contract index\");\n\n        Transaction memory transact;\n        transact.extended_data = extended_data;\n        transact.transact_dt = transact_dt;\n        transact.transact_amt = transact_amt;\n        transact.transact_data = transact_data;\n\n        bool settle_found = false;\n\n        for (uint i = 0; i < settlements[contract_idx].length; i++) {\n            Settlement storage settlement = settlements[contract_idx][i];\n            // minimum date is inclusive, maximum date is exclusive\n            if (transact_dt >= settlement.transact_min_dt && transact_dt < settlement.transact_max_dt) {\n                settlement.transact_count++;\n                updateSettlementAmounts(settlement, contracts[contract_idx], transact_amt);\n                settle_found = true;\n            }\n        }\n\n        if (settle_found) {\n            calculateAdvanceAmount(transact, contracts[contract_idx]);\n            transactions[contract_idx].push(transact);\n            emit ContractEvent(contract_idx, \"TransactionAdded\", transact.extended_data);\n        } else {\n            emit ContractEvent(contract_idx, \"TransactionError\", \"No valid settlement period\");\n        }\n    }\n\n    function updateSettlementAmounts(Settlement storage settlement, Contract storage contract_, int transact_amt) internal {\n        if (transact_amt < 0) {\n            uint abs_transact_amt = uint(-transact_amt);\n        \n            // Ensure settle_exp_amt doesn't go below 0\n            if (settlement.settle_exp_amt >= abs_transact_amt) {\n                settlement.settle_exp_amt -= abs_transact_amt;\n            } else {\n                settlement.settle_exp_amt = 0;\n            }\n        \n            // Recalculate residual_exp_amt based on the updated settle_exp_amt\n        } else {\n            uint uint_transact_amt = uint(transact_amt);\n            settlement.settle_exp_amt += uint_transact_amt;\n        }\n\n        settlement.residual_exp_amt = settlement.settle_exp_amt * (10000 - contract_.advance_pct) / 10000;\n    }\n\n    function calculateAdvanceAmount(Transaction memory transact, Contract storage contract_) internal view {\n        if (transact.transact_amt > 0) {\n            uint uint_transact_amt = uint(transact.transact_amt);\n            uint service_fee = (contract_.service_fee_pct * uint_transact_amt / 10000) + contract_.service_fee_amt;\n            uint advance_amt_calculated = (uint_transact_amt * contract_.advance_pct / 10000);\n\n            if (advance_amt_calculated >= service_fee) {\n                transact.advance_amt = advance_amt_calculated - service_fee;\n            } else {\n                transact.advance_amt = 0;\n            }\n        } else {\n            transact.advance_amt = 0;\n        }\n    }\n\n    function deleteTransactions(uint contract_idx) public onlyOwner {\n        require(contract_idx < contracts.length, \"Invalid contract index\");\n        delete transactions[contract_idx];\n        emit ContractEvent(contract_idx, \"TransactionsDeleted\", \"\");\n    }\n\n    function payAdvance(uint contract_idx, uint transact_idx, uint advance_pay_dt, uint advance_pay_amt, string memory advance_confirm) public onlyOwner {\n        require(contract_idx < contracts.length, \"Invalid contract index\");\n        transactions[contract_idx][transact_idx].advance_pay_dt = advance_pay_dt;\n        transactions[contract_idx][transact_idx].advance_pay_amt = advance_pay_amt;\n        transactions[contract_idx][transact_idx].advance_confirm = advance_confirm;\n        emit ContractEvent(contract_idx, \"PayAdvance\", \"\");\n    }\n\n    function postSettlement(uint contract_idx, uint settle_idx, uint settle_pay_dt, uint settle_pay_amt, string memory settle_confirm, string memory dispute_reason) public onlyOwner {\n        require(contract_idx < contracts.length, \"Invalid contract index\");\n        settlements[contract_idx][settle_idx].settle_pay_dt = settle_pay_dt;\n        settlements[contract_idx][settle_idx].settle_pay_amt = settle_pay_amt;\n        settlements[contract_idx][settle_idx].settle_confirm = settle_confirm;\n\n        if (settle_pay_dt > settlements[contract_idx][settle_idx].settle_due_dt) {\n            settlements[contract_idx][settle_idx].days_late = (settle_pay_dt - settlements[contract_idx][settle_idx].settle_due_dt) / 60 / 60 / 24;\n            settlements[contract_idx][settle_idx].late_fee_amt = (settlements[contract_idx][settle_idx].days_late * \n                ((contracts[contract_idx].late_fee_pct * 100000) / 365) * settlements[contract_idx][settle_idx].settle_exp_amt) / 1000000000;\n        }\n\n        if (settle_pay_amt < settlements[contract_idx][settle_idx].residual_exp_amt) {\n            settlements[contract_idx][settle_idx].dispute_amt = settlements[contract_idx][settle_idx].residual_exp_amt - settle_pay_amt;\n            settlements[contract_idx][settle_idx].dispute_reason = dispute_reason;\n        } \n\n        if ((settlements[contract_idx][settle_idx].residual_exp_amt - settlements[contract_idx][settle_idx].late_fee_amt - settlements[contract_idx][settle_idx].dispute_amt) > 0) {\n            settlements[contract_idx][settle_idx].residual_calc_amt = settlements[contract_idx][settle_idx].residual_exp_amt - settlements[contract_idx][settle_idx].late_fee_amt -\n                settlements[contract_idx][settle_idx].dispute_amt;\n        } else {\n            settlements[contract_idx][settle_idx].residual_calc_amt = 0;\n        }\n\n        emit ContractEvent(contract_idx, \"PostSettlement\", \"\");\n    }\n\n    function payResidual(uint contract_idx, uint settle_idx, uint residual_pay_dt, uint residual_pay_amt, string memory residual_confirm) public onlyOwner {\n        require(contract_idx < contracts.length, \"Invalid contract index\");\n        settlements[contract_idx][settle_idx].residual_pay_dt = residual_pay_dt;\n        settlements[contract_idx][settle_idx].residual_pay_amt = residual_pay_amt;\n        settlements[contract_idx][settle_idx].residual_confirm = residual_confirm;\n        emit ContractEvent(contract_idx, \"ResidualPaid\", \"\");\n    }\n\n    function uintToString(uint v) internal pure returns (string memory) {\n        if (v == 0) {\n            return \"0\";\n        }\n        uint j = v;\n        uint len;\n        while (j != 0) {\n            len++;\n            j /= 10;\n        }\n        bytes memory bstr = new bytes(len);\n        uint k = len;\n        while (v != 0) {\n            k = k - 1;\n            uint8 temp = (48 + uint8(v - v / 10 * 10));\n            bytes1 b1 = bytes1(temp);\n            bstr[k] = b1;\n            v /= 10;\n        }\n        return string(bstr);\n    }\n\n    function boolToString(bool v) internal pure returns (string memory) {\n        return v ? \"true\" : \"false\";\n    }\n}",
  "sourcePath": "/Users/davidnichamoff/Projects/FIZIT_DEV/truffle/contracts/Delivery.sol",
  "compiler": {
    "name": "solc",
    "version": "0.8.0+commit.c7dfd78e.Emscripten.clang"
  },
  "schemaVersion": "3.4.16",
  "updatedAt": "2024-08-16T17:48:16.193Z",
  "networkType": "ethereum",
  "devdoc": {
    "kind": "dev",
    "methods": {},
    "version": 1
  },
  "userdoc": {
    "kind": "user",
    "methods": {},
    "version": 1
  }
}