{
  "contractName": "Delivery",
  "abi": [
    {
      "inputs": [],
      "stateMutability": "nonpayable",
      "type": "constructor"
    },
    {
      "anonymous": false,
      "inputs": [
        {
          "indexed": true,
          "internalType": "uint256",
          "name": "contract_idx",
          "type": "uint256"
        },
        {
          "indexed": false,
          "internalType": "string",
          "name": "eventType",
          "type": "string"
        },
        {
          "indexed": false,
          "internalType": "string",
          "name": "details",
          "type": "string"
        }
      ],
      "name": "ContractEvent",
      "type": "event"
    },
    {
      "inputs": [],
      "name": "owner",
      "outputs": [
        {
          "internalType": "address",
          "name": "",
          "type": "address"
        }
      ],
      "stateMutability": "view",
      "type": "function",
      "constant": true
    },
    {
      "inputs": [],
      "name": "getContractCount",
      "outputs": [
        {
          "internalType": "uint256",
          "name": "",
          "type": "uint256"
        }
      ],
      "stateMutability": "view",
      "type": "function",
      "constant": true
    },
    {
      "inputs": [
        {
          "internalType": "uint256",
          "name": "contract_idx",
          "type": "uint256"
        }
      ],
      "name": "getContract",
      "outputs": [
        {
          "components": [
            {
              "internalType": "string",
              "name": "extended_data",
              "type": "string"
            },
            {
              "internalType": "string",
              "name": "contract_name",
              "type": "string"
            },
            {
              "internalType": "string",
              "name": "contract_type",
              "type": "string"
            },
            {
              "internalType": "string",
              "name": "funding_instr",
              "type": "string"
            },
            {
              "internalType": "uint256",
              "name": "service_fee_pct",
              "type": "uint256"
            },
            {
              "internalType": "uint256",
              "name": "service_fee_max",
              "type": "uint256"
            },
            {
              "internalType": "int256",
              "name": "service_fee_amt",
              "type": "int256"
            },
            {
              "internalType": "uint256",
              "name": "advance_pct",
              "type": "uint256"
            },
            {
              "internalType": "uint256",
              "name": "late_fee_pct",
              "type": "uint256"
            },
            {
              "internalType": "string",
              "name": "transact_logic",
              "type": "string"
            },
            {
              "internalType": "int256",
              "name": "min_threshold",
              "type": "int256"
            },
            {
              "internalType": "int256",
              "name": "max_threshold",
              "type": "int256"
            },
            {
              "internalType": "string",
              "name": "notes",
              "type": "string"
            },
            {
              "internalType": "bool",
              "name": "is_active",
              "type": "bool"
            },
            {
              "internalType": "bool",
              "name": "is_quote",
              "type": "bool"
            }
          ],
          "internalType": "struct Delivery.Contract",
          "name": "",
          "type": "tuple"
        }
      ],
      "stateMutability": "view",
      "type": "function",
      "constant": true
    },
    {
      "inputs": [
        {
          "components": [
            {
              "internalType": "string",
              "name": "extended_data",
              "type": "string"
            },
            {
              "internalType": "string",
              "name": "contract_name",
              "type": "string"
            },
            {
              "internalType": "string",
              "name": "contract_type",
              "type": "string"
            },
            {
              "internalType": "string",
              "name": "funding_instr",
              "type": "string"
            },
            {
              "internalType": "uint256",
              "name": "service_fee_pct",
              "type": "uint256"
            },
            {
              "internalType": "uint256",
              "name": "service_fee_max",
              "type": "uint256"
            },
            {
              "internalType": "int256",
              "name": "service_fee_amt",
              "type": "int256"
            },
            {
              "internalType": "uint256",
              "name": "advance_pct",
              "type": "uint256"
            },
            {
              "internalType": "uint256",
              "name": "late_fee_pct",
              "type": "uint256"
            },
            {
              "internalType": "string",
              "name": "transact_logic",
              "type": "string"
            },
            {
              "internalType": "int256",
              "name": "min_threshold",
              "type": "int256"
            },
            {
              "internalType": "int256",
              "name": "max_threshold",
              "type": "int256"
            },
            {
              "internalType": "string",
              "name": "notes",
              "type": "string"
            },
            {
              "internalType": "bool",
              "name": "is_active",
              "type": "bool"
            },
            {
              "internalType": "bool",
              "name": "is_quote",
              "type": "bool"
            }
          ],
          "internalType": "struct Delivery.Contract",
          "name": "contract_",
          "type": "tuple"
        }
      ],
      "name": "addContract",
      "outputs": [],
      "stateMutability": "nonpayable",
      "type": "function"
    },
    {
      "inputs": [
        {
          "internalType": "uint256",
          "name": "contract_idx",
          "type": "uint256"
        },
        {
          "components": [
            {
              "internalType": "string",
              "name": "extended_data",
              "type": "string"
            },
            {
              "internalType": "string",
              "name": "contract_name",
              "type": "string"
            },
            {
              "internalType": "string",
              "name": "contract_type",
              "type": "string"
            },
            {
              "internalType": "string",
              "name": "funding_instr",
              "type": "string"
            },
            {
              "internalType": "uint256",
              "name": "service_fee_pct",
              "type": "uint256"
            },
            {
              "internalType": "uint256",
              "name": "service_fee_max",
              "type": "uint256"
            },
            {
              "internalType": "int256",
              "name": "service_fee_amt",
              "type": "int256"
            },
            {
              "internalType": "uint256",
              "name": "advance_pct",
              "type": "uint256"
            },
            {
              "internalType": "uint256",
              "name": "late_fee_pct",
              "type": "uint256"
            },
            {
              "internalType": "string",
              "name": "transact_logic",
              "type": "string"
            },
            {
              "internalType": "int256",
              "name": "min_threshold",
              "type": "int256"
            },
            {
              "internalType": "int256",
              "name": "max_threshold",
              "type": "int256"
            },
            {
              "internalType": "string",
              "name": "notes",
              "type": "string"
            },
            {
              "internalType": "bool",
              "name": "is_active",
              "type": "bool"
            },
            {
              "internalType": "bool",
              "name": "is_quote",
              "type": "bool"
            }
          ],
          "internalType": "struct Delivery.Contract",
          "name": "contract_",
          "type": "tuple"
        }
      ],
      "name": "updateContract",
      "outputs": [],
      "stateMutability": "nonpayable",
      "type": "function"
    },
    {
      "inputs": [
        {
          "internalType": "uint256",
          "name": "contract_idx",
          "type": "uint256"
        }
      ],
      "name": "deleteContract",
      "outputs": [],
      "stateMutability": "nonpayable",
      "type": "function"
    },
    {
      "inputs": [
        {
          "internalType": "uint256",
          "name": "contract_idx",
          "type": "uint256"
        }
      ],
      "name": "getParties",
      "outputs": [
        {
          "components": [
            {
              "internalType": "string",
              "name": "party_code",
              "type": "string"
            },
            {
              "internalType": "address",
              "name": "party_address",
              "type": "address"
            },
            {
              "internalType": "string",
              "name": "party_type",
              "type": "string"
            }
          ],
          "internalType": "struct Delivery.Party[]",
          "name": "",
          "type": "tuple[]"
        }
      ],
      "stateMutability": "view",
      "type": "function",
      "constant": true
    },
    {
      "inputs": [
        {
          "internalType": "uint256",
          "name": "contract_idx",
          "type": "uint256"
        },
        {
          "components": [
            {
              "internalType": "string",
              "name": "party_code",
              "type": "string"
            },
            {
              "internalType": "address",
              "name": "party_address",
              "type": "address"
            },
            {
              "internalType": "string",
              "name": "party_type",
              "type": "string"
            }
          ],
          "internalType": "struct Delivery.Party",
          "name": "party",
          "type": "tuple"
        }
      ],
      "name": "addParty",
      "outputs": [],
      "stateMutability": "nonpayable",
      "type": "function"
    },
    {
      "inputs": [
        {
          "internalType": "uint256",
          "name": "contract_idx",
          "type": "uint256"
        },
        {
          "internalType": "uint256",
          "name": "party_idx",
          "type": "uint256"
        }
      ],
      "name": "deleteParty",
      "outputs": [],
      "stateMutability": "nonpayable",
      "type": "function"
    },
    {
      "inputs": [
        {
          "internalType": "uint256",
          "name": "contract_idx",
          "type": "uint256"
        }
      ],
      "name": "deleteParties",
      "outputs": [],
      "stateMutability": "nonpayable",
      "type": "function"
    },
    {
      "inputs": [
        {
          "internalType": "uint256",
          "name": "contract_idx",
          "type": "uint256"
        }
      ],
      "name": "getArtifacts",
      "outputs": [
        {
          "components": [
            {
              "internalType": "string",
              "name": "doc_title",
              "type": "string"
            },
            {
              "internalType": "string",
              "name": "doc_type",
              "type": "string"
            },
            {
              "internalType": "uint256",
              "name": "added_dt",
              "type": "uint256"
            },
            {
              "internalType": "string",
              "name": "s3_bucket",
              "type": "string"
            },
            {
              "internalType": "string",
              "name": "s3_object_key",
              "type": "string"
            },
            {
              "internalType": "string",
              "name": "s3_version_id",
              "type": "string"
            }
          ],
          "internalType": "struct Delivery.Artifact[]",
          "name": "",
          "type": "tuple[]"
        }
      ],
      "stateMutability": "view",
      "type": "function",
      "constant": true
    },
    {
      "inputs": [
        {
          "internalType": "uint256",
          "name": "contract_idx",
          "type": "uint256"
        },
        {
          "internalType": "string",
          "name": "doc_title",
          "type": "string"
        },
        {
          "internalType": "string",
          "name": "doc_type",
          "type": "string"
        },
        {
          "internalType": "uint256",
          "name": "added_dt",
          "type": "uint256"
        },
        {
          "internalType": "string",
          "name": "s3_bucket",
          "type": "string"
        },
        {
          "internalType": "string",
          "name": "s3_object_key",
          "type": "string"
        },
        {
          "internalType": "string",
          "name": "s3_version_id",
          "type": "string"
        }
      ],
      "name": "addArtifact",
      "outputs": [],
      "stateMutability": "nonpayable",
      "type": "function"
    },
    {
      "inputs": [
        {
          "internalType": "uint256",
          "name": "contract_idx",
          "type": "uint256"
        },
        {
          "internalType": "uint256",
          "name": "artifact_idx",
          "type": "uint256"
        }
      ],
      "name": "deleteArtifact",
      "outputs": [],
      "stateMutability": "nonpayable",
      "type": "function"
    },
    {
      "inputs": [
        {
          "internalType": "uint256",
          "name": "contract_idx",
          "type": "uint256"
        }
      ],
      "name": "deleteArtifacts",
      "outputs": [],
      "stateMutability": "nonpayable",
      "type": "function"
    },
    {
      "inputs": [
        {
          "internalType": "uint256",
          "name": "contract_idx",
          "type": "uint256"
        }
      ],
      "name": "getSettlements",
      "outputs": [
        {
          "components": [
            {
              "internalType": "string",
              "name": "extended_data",
              "type": "string"
            },
            {
              "internalType": "uint256",
              "name": "settle_due_dt",
              "type": "uint256"
            },
            {
              "internalType": "uint256",
              "name": "transact_min_dt",
              "type": "uint256"
            },
            {
              "internalType": "uint256",
              "name": "transact_max_dt",
              "type": "uint256"
            },
            {
              "internalType": "uint256",
              "name": "transact_count",
              "type": "uint256"
            },
            {
              "internalType": "int256",
              "name": "advance_amt",
              "type": "int256"
            },
            {
              "internalType": "int256",
              "name": "advance_amt_gross",
              "type": "int256"
            },
            {
              "internalType": "uint256",
              "name": "settle_pay_dt",
              "type": "uint256"
            },
            {
              "internalType": "int256",
              "name": "settle_exp_amt",
              "type": "int256"
            },
            {
              "internalType": "int256",
              "name": "settle_pay_amt",
              "type": "int256"
            },
            {
              "internalType": "string",
              "name": "settle_confirm",
              "type": "string"
            },
            {
              "internalType": "int256",
              "name": "dispute_amt",
              "type": "int256"
            },
            {
              "internalType": "string",
              "name": "dispute_reason",
              "type": "string"
            },
            {
              "internalType": "uint256",
              "name": "days_late",
              "type": "uint256"
            },
            {
              "internalType": "int256",
              "name": "late_fee_amt",
              "type": "int256"
            },
            {
              "internalType": "uint256",
              "name": "residual_pay_dt",
              "type": "uint256"
            },
            {
              "internalType": "int256",
              "name": "residual_pay_amt",
              "type": "int256"
            },
            {
              "internalType": "string",
              "name": "residual_confirm",
              "type": "string"
            },
            {
              "internalType": "int256",
              "name": "residual_exp_amt",
              "type": "int256"
            },
            {
              "internalType": "int256",
              "name": "residual_calc_amt",
              "type": "int256"
            }
          ],
          "internalType": "struct Delivery.Settlement[]",
          "name": "",
          "type": "tuple[]"
        }
      ],
      "stateMutability": "view",
      "type": "function",
      "constant": true
    },
    {
      "inputs": [
        {
          "internalType": "uint256",
          "name": "contract_idx",
          "type": "uint256"
        },
        {
          "internalType": "string",
          "name": "extended_data",
          "type": "string"
        },
        {
          "internalType": "uint256",
          "name": "settle_due_dt",
          "type": "uint256"
        },
        {
          "internalType": "uint256",
          "name": "transact_min_dt",
          "type": "uint256"
        },
        {
          "internalType": "uint256",
          "name": "transact_max_dt",
          "type": "uint256"
        }
      ],
      "name": "addSettlement",
      "outputs": [],
      "stateMutability": "nonpayable",
      "type": "function"
    },
    {
      "inputs": [
        {
          "internalType": "uint256",
          "name": "contract_idx",
          "type": "uint256"
        }
      ],
      "name": "deleteSettlements",
      "outputs": [],
      "stateMutability": "nonpayable",
      "type": "function"
    },
    {
      "inputs": [
        {
          "internalType": "uint256",
          "name": "contract_idx",
          "type": "uint256"
        }
      ],
      "name": "getTransactions",
      "outputs": [
        {
          "components": [
            {
              "internalType": "string",
              "name": "extended_data",
              "type": "string"
            },
            {
              "internalType": "uint256",
              "name": "transact_dt",
              "type": "uint256"
            },
            {
              "internalType": "int256",
              "name": "transact_amt",
              "type": "int256"
            },
            {
              "internalType": "int256",
              "name": "service_fee_amt",
              "type": "int256"
            },
            {
              "internalType": "int256",
              "name": "advance_amt",
              "type": "int256"
            },
            {
              "internalType": "string",
              "name": "transact_data",
              "type": "string"
            },
            {
              "internalType": "uint256",
              "name": "advance_pay_dt",
              "type": "uint256"
            },
            {
              "internalType": "uint256",
              "name": "advance_pay_amt",
              "type": "uint256"
            },
            {
              "internalType": "string",
              "name": "advance_confirm",
              "type": "string"
            }
          ],
          "internalType": "struct Delivery.Transaction[]",
          "name": "",
          "type": "tuple[]"
        }
      ],
      "stateMutability": "view",
      "type": "function",
      "constant": true
    },
    {
      "inputs": [
        {
          "internalType": "uint256",
          "name": "contract_idx",
          "type": "uint256"
        }
      ],
      "name": "deleteTransactions",
      "outputs": [],
      "stateMutability": "nonpayable",
      "type": "function"
    },
    {
      "inputs": [
        {
          "internalType": "uint256",
          "name": "contract_idx",
          "type": "uint256"
        },
        {
          "internalType": "string",
          "name": "extended_data",
          "type": "string"
        },
        {
          "internalType": "uint256",
          "name": "transact_dt",
          "type": "uint256"
        },
        {
          "internalType": "int256",
          "name": "transact_amt",
          "type": "int256"
        },
        {
          "internalType": "string",
          "name": "transact_data",
          "type": "string"
        }
      ],
      "name": "addTransaction",
      "outputs": [],
      "stateMutability": "nonpayable",
      "type": "function"
    },
    {
      "inputs": [
        {
          "internalType": "uint256",
          "name": "contract_idx",
          "type": "uint256"
        },
        {
          "internalType": "uint256",
          "name": "transact_idx",
          "type": "uint256"
        },
        {
          "internalType": "uint256",
          "name": "advance_pay_dt",
          "type": "uint256"
        },
        {
          "internalType": "uint256",
          "name": "advance_pay_amt",
          "type": "uint256"
        },
        {
          "internalType": "string",
          "name": "advance_confirm",
          "type": "string"
        }
      ],
      "name": "payAdvance",
      "outputs": [],
      "stateMutability": "nonpayable",
      "type": "function"
    },
    {
      "inputs": [
        {
          "internalType": "uint256",
          "name": "contract_idx",
          "type": "uint256"
        },
        {
          "internalType": "uint256",
          "name": "settle_idx",
          "type": "uint256"
        },
        {
          "internalType": "uint256",
          "name": "settle_pay_dt",
          "type": "uint256"
        },
        {
          "internalType": "int256",
          "name": "settle_pay_amt",
          "type": "int256"
        },
        {
          "internalType": "string",
          "name": "settle_confirm",
          "type": "string"
        },
        {
          "internalType": "string",
          "name": "dispute_reason",
          "type": "string"
        }
      ],
      "name": "postSettlement",
      "outputs": [],
      "stateMutability": "nonpayable",
      "type": "function"
    },
    {
      "inputs": [
        {
          "internalType": "uint256",
          "name": "contract_idx",
          "type": "uint256"
        },
        {
          "internalType": "uint256",
          "name": "settle_idx",
          "type": "uint256"
        },
        {
          "internalType": "uint256",
          "name": "residual_pay_dt",
          "type": "uint256"
        },
        {
          "internalType": "int256",
          "name": "residual_pay_amt",
          "type": "int256"
        },
        {
          "internalType": "string",
          "name": "residual_confirm",
          "type": "string"
        }
      ],
      "name": "payResidual",
      "outputs": [],
      "stateMutability": "nonpayable",
      "type": "function"
    },
    {
      "inputs": [
        {
          "components": [
            {
              "internalType": "string",
              "name": "extended_data",
              "type": "string"
            },
            {
              "internalType": "string",
              "name": "contract_name",
              "type": "string"
            },
            {
              "internalType": "string",
              "name": "contract_type",
              "type": "string"
            },
            {
              "internalType": "string",
              "name": "funding_instr",
              "type": "string"
            },
            {
              "internalType": "uint256",
              "name": "service_fee_pct",
              "type": "uint256"
            },
            {
              "internalType": "uint256",
              "name": "service_fee_max",
              "type": "uint256"
            },
            {
              "internalType": "int256",
              "name": "service_fee_amt",
              "type": "int256"
            },
            {
              "internalType": "uint256",
              "name": "advance_pct",
              "type": "uint256"
            },
            {
              "internalType": "uint256",
              "name": "late_fee_pct",
              "type": "uint256"
            },
            {
              "internalType": "string",
              "name": "transact_logic",
              "type": "string"
            },
            {
              "internalType": "int256",
              "name": "min_threshold",
              "type": "int256"
            },
            {
              "internalType": "int256",
              "name": "max_threshold",
              "type": "int256"
            },
            {
              "internalType": "string",
              "name": "notes",
              "type": "string"
            },
            {
              "internalType": "bool",
              "name": "is_active",
              "type": "bool"
            },
            {
              "internalType": "bool",
              "name": "is_quote",
              "type": "bool"
            }
          ],
          "internalType": "struct Delivery.Contract",
          "name": "contract_",
          "type": "tuple"
        }
      ],
      "name": "importContract",
      "outputs": [],
      "stateMutability": "nonpayable",
      "type": "function"
    },
    {
      "inputs": [
        {
          "internalType": "uint256",
          "name": "contract_idx",
          "type": "uint256"
        },
        {
          "components": [
            {
              "internalType": "string",
              "name": "party_code",
              "type": "string"
            },
            {
              "internalType": "address",
              "name": "party_address",
              "type": "address"
            },
            {
              "internalType": "string",
              "name": "party_type",
              "type": "string"
            }
          ],
          "internalType": "struct Delivery.Party",
          "name": "party",
          "type": "tuple"
        }
      ],
      "name": "importParty",
      "outputs": [],
      "stateMutability": "nonpayable",
      "type": "function"
    },
    {
      "inputs": [
        {
          "internalType": "uint256",
          "name": "contract_idx",
          "type": "uint256"
        },
        {
          "components": [
            {
              "internalType": "string",
              "name": "extended_data",
              "type": "string"
            },
            {
              "internalType": "uint256",
              "name": "settle_due_dt",
              "type": "uint256"
            },
            {
              "internalType": "uint256",
              "name": "transact_min_dt",
              "type": "uint256"
            },
            {
              "internalType": "uint256",
              "name": "transact_max_dt",
              "type": "uint256"
            },
            {
              "internalType": "uint256",
              "name": "transact_count",
              "type": "uint256"
            },
            {
              "internalType": "int256",
              "name": "advance_amt",
              "type": "int256"
            },
            {
              "internalType": "int256",
              "name": "advance_amt_gross",
              "type": "int256"
            },
            {
              "internalType": "uint256",
              "name": "settle_pay_dt",
              "type": "uint256"
            },
            {
              "internalType": "int256",
              "name": "settle_exp_amt",
              "type": "int256"
            },
            {
              "internalType": "int256",
              "name": "settle_pay_amt",
              "type": "int256"
            },
            {
              "internalType": "string",
              "name": "settle_confirm",
              "type": "string"
            },
            {
              "internalType": "int256",
              "name": "dispute_amt",
              "type": "int256"
            },
            {
              "internalType": "string",
              "name": "dispute_reason",
              "type": "string"
            },
            {
              "internalType": "uint256",
              "name": "days_late",
              "type": "uint256"
            },
            {
              "internalType": "int256",
              "name": "late_fee_amt",
              "type": "int256"
            },
            {
              "internalType": "uint256",
              "name": "residual_pay_dt",
              "type": "uint256"
            },
            {
              "internalType": "int256",
              "name": "residual_pay_amt",
              "type": "int256"
            },
            {
              "internalType": "string",
              "name": "residual_confirm",
              "type": "string"
            },
            {
              "internalType": "int256",
              "name": "residual_exp_amt",
              "type": "int256"
            },
            {
              "internalType": "int256",
              "name": "residual_calc_amt",
              "type": "int256"
            }
          ],
          "internalType": "struct Delivery.Settlement",
          "name": "settlement",
          "type": "tuple"
        }
      ],
      "name": "importSettlement",
      "outputs": [],
      "stateMutability": "nonpayable",
      "type": "function"
    },
    {
      "inputs": [
        {
          "internalType": "uint256",
          "name": "contract_idx",
          "type": "uint256"
        },
        {
          "components": [
            {
              "internalType": "string",
              "name": "extended_data",
              "type": "string"
            },
            {
              "internalType": "uint256",
              "name": "transact_dt",
              "type": "uint256"
            },
            {
              "internalType": "int256",
              "name": "transact_amt",
              "type": "int256"
            },
            {
              "internalType": "int256",
              "name": "service_fee_amt",
              "type": "int256"
            },
            {
              "internalType": "int256",
              "name": "advance_amt",
              "type": "int256"
            },
            {
              "internalType": "string",
              "name": "transact_data",
              "type": "string"
            },
            {
              "internalType": "uint256",
              "name": "advance_pay_dt",
              "type": "uint256"
            },
            {
              "internalType": "uint256",
              "name": "advance_pay_amt",
              "type": "uint256"
            },
            {
              "internalType": "string",
              "name": "advance_confirm",
              "type": "string"
            }
          ],
          "internalType": "struct Delivery.Transaction",
          "name": "transaction",
          "type": "tuple"
        }
      ],
      "name": "importTransaction",
      "outputs": [],
      "stateMutability": "nonpayable",
      "type": "function"
    },
    {
      "inputs": [
        {
          "internalType": "uint256",
          "name": "contract_idx",
          "type": "uint256"
        },
        {
          "components": [
            {
              "internalType": "string",
              "name": "doc_title",
              "type": "string"
            },
            {
              "internalType": "string",
              "name": "doc_type",
              "type": "string"
            },
            {
              "internalType": "uint256",
              "name": "added_dt",
              "type": "uint256"
            },
            {
              "internalType": "string",
              "name": "s3_bucket",
              "type": "string"
            },
            {
              "internalType": "string",
              "name": "s3_object_key",
              "type": "string"
            },
            {
              "internalType": "string",
              "name": "s3_version_id",
              "type": "string"
            }
          ],
          "internalType": "struct Delivery.Artifact",
          "name": "artifact",
          "type": "tuple"
        }
      ],
      "name": "importArtifact",
      "outputs": [],
      "stateMutability": "nonpayable",
      "type": "function"
    }
  ],
  "bytecode": "0x608060405234801561001057600080fd5b50600080546001600160a01b03191633179055615e7280620000336000396000f3fe608060405234801561001057600080fd5b50600436106101c45760003560e01c806388398db9116100f9578063afb1881011610097578063d404aaa711610071578063d404aaa7146103e1578063d5b327f7146103f4578063f633db9314610407578063fcf45c0f1461041a576101c4565b8063afb188101461039b578063c6bbcc90146103ae578063d3113412146103c1576101c4565b80639399869d116100d35780639399869d1461034d578063a2a7892914610362578063a399529514610375578063a50965dc14610388576101c4565b806388398db9146103125780638aea2c5e146103255780638da5cb5b14610338576101c4565b80635b4e97e7116101665780636e449c2b116101405780636e449c2b146102b95780636e72ae88146102cc5780636ebc8c86146102df57806375483e46146102ff576101c4565b80635b4e97e71461028057806364da0a33146102935780636893d336146102a6576101c4565b8063447fe289116101a2578063447fe2891461020457806346f920fd1461022d5780635742177c1461024d5780635a4e93511461026d576101c4565b806311ef56de146101c957806336d56a60146101de57806338ad4fa7146101f1575b600080fd5b6101dc6101d7366004614984565b61042d565b005b6101dc6101ec36600461500a565b6104bf565b6101dc6101ff366004614a7a565b610764565b610217610212366004614984565b610af4565b6040516102249190615289565b60405180910390f35b61024061023b366004614984565b610cba565b6040516102249190615312565b61026061025b366004614984565b611022565b6040516102249190615472565b6101dc61027b366004614f0c565b611294565b6101dc61028e366004614984565b611393565b6101dc6102a1366004614ca6565b611411565b6101dc6102b4366004614984565b6114f9565b6101dc6102c736600461500a565b6115af565b6101dc6102da366004614ca6565b6117e2565b6102f26102ed366004614984565b6118a7565b6040516102249190615a12565b6101dc61030d36600461502b565b611ce4565b6101dc61032036600461502b565b611e40565b6101dc61033336600461507f565b611f8d565b6103406126ae565b6040516102249190615196565b6103556126bd565b6040516102249190615b54565b6101dc610370366004614af7565b6126c3565b6101dc610383366004614b56565b61288b565b6101dc610396366004614c62565b612988565b6101dc6103a936600461494a565b6133f4565b6101dc6103bc36600461499c565b6135a1565b6103d46103cf366004614984565b6136ff565b60405161022491906151aa565b6101dc6103ef366004614d71565b613a62565b6101dc61040236600461494a565b613bec565b6101dc610415366004614984565b613d6d565b6101dc610428366004614984565b613deb565b6000546001600160a01b031633146104605760405162461bcd60e51b8152600401610457906156c3565b60405180910390fd5b60015481106104815760405162461bcd60e51b8152600401610457906155be565b600081815260046020526040812061049891614216565b80600080516020615e1d8339815191526040516104b490615835565b60405180910390a250565b6000546001600160a01b031633146104e95760405162461bcd60e51b8152600401610457906156c3565b600154821061050a5760405162461bcd60e51b8152600401610457906155be565b60008281526004602052604090205481106105375760405162461bcd60e51b81526004016104579061565d565b805b60008381526004602052604090205461055490600190615d27565b8110156106a0576000838152600460205260409020610574826001615bc7565b8154811061059257634e487b7160e01b600052603260045260246000fd5b90600052602060002090600602016004600085815260200190815260200160002082815481106105d257634e487b7160e01b600052603260045260246000fd5b906000526020600020906006020160008201816000019080546105f490615d6a565b6105ff92919061423a565b50600182018160010190805461061490615d6a565b61061f92919061423a565b5060028201548160020155600382018160030190805461063e90615d6a565b61064992919061423a565b50600482018160040190805461065e90615d6a565b61066992919061423a565b50600582018160050190805461067e90615d6a565b61068992919061423a565b50905050808061069890615da5565b915050610539565b5060008281526004602052604090208054806106cc57634e487b7160e01b600052603160045260246000fd5b600082815260208120600019909201916006830201906106ec82826142c5565b6106fa6001830160006142c5565b600282016000905560038201600061071291906142c5565b6107206004830160006142c5565b61072e6005830160006142c5565b5050905581600080516020615e1d83398151915261074b83613e69565b604051610758919061578e565b60405180910390a25050565b6000546001600160a01b0316331461078e5760405162461bcd60e51b8152600401610457906156c3565b60015485106107af5760405162461bcd60e51b8152600401610457906155be565b6107b7614301565b848152602081018490526040810183905260a081018290526000808080805b60008b8152600260205260409020548110156109df5760008b815260026020526040812080548390811061081a57634e487b7160e01b600052603260045260246000fd5b9060005260206000209060140201905080600201548a10158015610841575080600301548a105b156109cc57600089131561093a5760018c8154811061087057634e487b7160e01b600052603260045260246000fd5b90600052602060002090600e0201600601546127108a60018f815481106108a757634e487b7160e01b600052603260045260246000fd5b90600052602060002090600e0201600401546108c39190615cc9565b6108cd9190615c32565b6108d79190615b86565b925061271060018d815481106108fd57634e487b7160e01b600052603260045260246000fd5b90600052602060002090600e0201600701548a61091a9190615cc9565b6109249190615c32565b935082841261093a576109378385615ce8565b94505b8881600801600082825461094e9190615b86565b92505081905550848160050160008282546109699190615b86565b92505081905550838160060160008282546109849190615b86565b90915550506006810154600882015461099d9190615ce8565b60128201556004810180549060006109b483615da5565b90915550506080870185905260608701839052600195505b50806109d781615da5565b9150506107d6565b508315610ac35760008a8152600360209081526040822080546001810182559083529181902087518051899460090290920192610a219284929091019061434d565b50602082810151600183015560408301516002830155606083015160038301556080830151600483015560a08301518051610a62926005850192019061434d565b5060c0820151600682015560e082015160078201556101008201518051610a9391600884019160209091019061434d565b505085516040518c9250600080516020615e1d83398151915291610ab691615546565b60405180910390a2610ae8565b89600080516020615e1d833981519152604051610adf906159b3565b60405180910390a25b50505050505050505050565b6001546060908210610b185760405162461bcd60e51b8152600401610457906155be565b600082815260056020908152604080832080548251818502810185019093528083529193909284015b82821015610cae5783829060005260206000209060030201604051806060016040529081600082018054610b7490615d6a565b80601f0160208091040260200160405190810160405280929190818152602001828054610ba090615d6a565b8015610bed5780601f10610bc257610100808354040283529160200191610bed565b820191906000526020600020905b815481529060010190602001808311610bd057829003601f168201915b505050918352505060018201546001600160a01b03166020820152600282018054604090920191610c1d90615d6a565b80601f0160208091040260200160405190810160405280929190818152602001828054610c4990615d6a565b8015610c965780601f10610c6b57610100808354040283529160200191610c96565b820191906000526020600020905b815481529060010190602001808311610c7957829003601f168201915b50505050508152505081526020019060010190610b41565b5050505090505b919050565b6001546060908210610cde5760405162461bcd60e51b8152600401610457906155be565b600082815260026020908152604080832080548251818502810185019093528083529193909284015b82821015610cae578382906000526020600020906014020160405180610280016040529081600082018054610d3b90615d6a565b80601f0160208091040260200160405190810160405280929190818152602001828054610d6790615d6a565b8015610db45780601f10610d8957610100808354040283529160200191610db4565b820191906000526020600020905b815481529060010190602001808311610d9757829003601f168201915b50505050508152602001600182015481526020016002820154815260200160038201548152602001600482015481526020016005820154815260200160068201548152602001600782015481526020016008820154815260200160098201548152602001600a82018054610e2790615d6a565b80601f0160208091040260200160405190810160405280929190818152602001828054610e5390615d6a565b8015610ea05780601f10610e7557610100808354040283529160200191610ea0565b820191906000526020600020905b815481529060010190602001808311610e8357829003601f168201915b50505050508152602001600b8201548152602001600c82018054610ec390615d6a565b80601f0160208091040260200160405190810160405280929190818152602001828054610eef90615d6a565b8015610f3c5780601f10610f1157610100808354040283529160200191610f3c565b820191906000526020600020905b815481529060010190602001808311610f1f57829003601f168201915b50505050508152602001600d8201548152602001600e8201548152602001600f820154815260200160108201548152602001601182018054610f7d90615d6a565b80601f0160208091040260200160405190810160405280929190818152602001828054610fa990615d6a565b8015610ff65780601f10610fcb57610100808354040283529160200191610ff6565b820191906000526020600020905b815481529060010190602001808311610fd957829003601f168201915b505050505081526020016012820154815260200160138201548152505081526020019060010190610d07565b60015460609082106110465760405162461bcd60e51b8152600401610457906155be565b600082815260036020908152604080832080548251818502810185019093528083529193909284015b82821015610cae5783829060005260206000209060090201604051806101200160405290816000820180546110a390615d6a565b80601f01602080910402602001604051908101604052809291908181526020018280546110cf90615d6a565b801561111c5780601f106110f15761010080835404028352916020019161111c565b820191906000526020600020905b8154815290600101906020018083116110ff57829003601f168201915b505050505081526020016001820154815260200160028201548152602001600382015481526020016004820154815260200160058201805461115d90615d6a565b80601f016020809104026020016040519081016040528092919081815260200182805461118990615d6a565b80156111d65780601f106111ab576101008083540402835291602001916111d6565b820191906000526020600020905b8154815290600101906020018083116111b957829003601f168201915b50505050508152602001600682015481526020016007820154815260200160088201805461120390615d6a565b80601f016020809104026020016040519081016040528092919081815260200182805461122f90615d6a565b801561127c5780601f106112515761010080835404028352916020019161127c565b820191906000526020600020905b81548152906001019060200180831161125f57829003601f168201915b5050505050815250508152602001906001019061106f565b6000546001600160a01b031633146112be5760405162461bcd60e51b8152600401610457906156c3565b60015482106112df5760405162461bcd60e51b8152600401610457906155be565b600082815260036020908152604082208054600181018255908352918190208351805185946009029092019261131a9284929091019061434d565b50602082810151600183015560408301516002830155606083015160038301556080830151600483015560a0830151805161135b926005850192019061434d565b5060c0820151600682015560e08201516007820155610100820151805161138c91600884019160209091019061434d565b5050505050565b6000546001600160a01b031633146113bd5760405162461bcd60e51b8152600401610457906156c3565b60015481106113de5760405162461bcd60e51b8152600401610457906155be565b60008181526002602052604081206113f5916143c1565b80600080516020615e1d8339815191526040516104b490615908565b6000546001600160a01b0316331461143b5760405162461bcd60e51b8152600401610457906156c3565b600154821061145c5760405162461bcd60e51b8152600401610457906155be565b60008281526005602090815260408220805460018101825590835291819020835180518594600302909201926114979284929091019061434d565b506020828101516001830180546001600160a01b0319166001600160a01b03909216919091179055604083015180516114d6926002850192019061434d565b50508151604051849250600080516020615e1d83398151915291610758916158d4565b6000546001600160a01b031633146115235760405162461bcd60e51b8152600401610457906156c3565b60015481106115445760405162461bcd60e51b8152600401610457906155be565b60006001828154811061156757634e487b7160e01b600052603260045260246000fd5b60009182526020909120600e90910201600d01805460ff191691151591909117905580600080516020615e1d8339815191526115a282613e69565b6040516104b49190615943565b6000546001600160a01b031633146115d95760405162461bcd60e51b8152600401610457906156c3565b60015482106115fa5760405162461bcd60e51b8152600401610457906155be565b60008281526005602052604090205481106116275760405162461bcd60e51b81526004016104579061586e565b805b60008381526005602052604090205461164490600190615d27565b81101561174c576000838152600560205260409020611664826001615bc7565b8154811061168257634e487b7160e01b600052603260045260246000fd5b90600052602060002090600302016005600085815260200190815260200160002082815481106116c257634e487b7160e01b600052603260045260246000fd5b906000526020600020906003020160008201816000019080546116e490615d6a565b6116ef92919061423a565b5060018281015490820180546001600160a01b0319166001600160a01b03909216919091179055600280830180549183019161172a90615d6a565b61173592919061423a565b50905050808061174490615da5565b915050611629565b50600082815260056020526040902080548061177857634e487b7160e01b600052603160045260246000fd5b6000828152602081206000199092019160038302019061179882826142c5565b6001820180546001600160a01b03191690556117b86002830160006142c5565b5050905581600080516020615e1d8339815191526117d583613e69565b604051610758919061568d565b6000546001600160a01b0316331461180c5760405162461bcd60e51b8152600401610457906156c3565b600154821061182d5760405162461bcd60e51b8152600401610457906155be565b60008281526005602090815260408220805460018101825590835291819020835180518594600302909201926118689284929091019061434d565b506020828101516001830180546001600160a01b0319166001600160a01b039092169190911790556040830151805161138c926002850192019061434d565b6118af6143e2565b60015482106118d05760405162461bcd60e51b8152600401610457906155be565b600182815481106118f157634e487b7160e01b600052603260045260246000fd5b90600052602060002090600e0201604051806101e001604052908160008201805461191b90615d6a565b80601f016020809104026020016040519081016040528092919081815260200182805461194790615d6a565b80156119945780601f1061196957610100808354040283529160200191611994565b820191906000526020600020905b81548152906001019060200180831161197757829003601f168201915b505050505081526020016001820180546119ad90615d6a565b80601f01602080910402602001604051908101604052809291908181526020018280546119d990615d6a565b8015611a265780601f106119fb57610100808354040283529160200191611a26565b820191906000526020600020905b815481529060010190602001808311611a0957829003601f168201915b50505050508152602001600282018054611a3f90615d6a565b80601f0160208091040260200160405190810160405280929190818152602001828054611a6b90615d6a565b8015611ab85780601f10611a8d57610100808354040283529160200191611ab8565b820191906000526020600020905b815481529060010190602001808311611a9b57829003601f168201915b50505050508152602001600382018054611ad190615d6a565b80601f0160208091040260200160405190810160405280929190818152602001828054611afd90615d6a565b8015611b4a5780601f10611b1f57610100808354040283529160200191611b4a565b820191906000526020600020905b815481529060010190602001808311611b2d57829003601f168201915b505050505081526020016004820154815260200160058201548152602001600682015481526020016007820154815260200160088201548152602001600982018054611b9590615d6a565b80601f0160208091040260200160405190810160405280929190818152602001828054611bc190615d6a565b8015611c0e5780601f10611be357610100808354040283529160200191611c0e565b820191906000526020600020905b815481529060010190602001808311611bf157829003601f168201915b50505050508152602001600a8201548152602001600b8201548152602001600c82018054611c3b90615d6a565b80601f0160208091040260200160405190810160405280929190818152602001828054611c6790615d6a565b8015611cb45780601f10611c8957610100808354040283529160200191611cb4565b820191906000526020600020905b815481529060010190602001808311611c9757829003601f168201915b5050509183525050600d919091015460ff8082161515602084015261010090910416151560409091015292915050565b6000546001600160a01b03163314611d0e5760405162461bcd60e51b8152600401610457906156c3565b6001548510611d2f5760405162461bcd60e51b8152600401610457906155be565b6000858152600360205260409020805484919086908110611d6057634e487b7160e01b600052603260045260246000fd5b90600052602060002090600902016006018190555081600360008781526020019081526020016000208581548110611da857634e487b7160e01b600052603260045260246000fd5b90600052602060002090600902016007018190555080600360008781526020019081526020016000208581548110611df057634e487b7160e01b600052603260045260246000fd5b90600052602060002090600902016008019080519060200190611e1492919061434d565b5084600080516020615e1d833981519152604051611e319061562a565b60405180910390a25050505050565b6000546001600160a01b03163314611e6a5760405162461bcd60e51b8152600401610457906156c3565b6001548510611e8b5760405162461bcd60e51b8152600401610457906155be565b6000858152600260205260409020805484919086908110611ebc57634e487b7160e01b600052603260045260246000fd5b9060005260206000209060140201600f018190555081600260008781526020019081526020016000208581548110611f0457634e487b7160e01b600052603260045260246000fd5b90600052602060002090601402016010018190555080600260008781526020019081526020016000208581548110611f4c57634e487b7160e01b600052603260045260246000fd5b90600052602060002090601402016011019080519060200190611f7092919061434d565b5084600080516020615e1d833981519152604051611e3190615720565b6000546001600160a01b03163314611fb75760405162461bcd60e51b8152600401610457906156c3565b6001548610611fd85760405162461bcd60e51b8152600401610457906155be565b600086815260026020526040902080548591908790811061200957634e487b7160e01b600052603260045260246000fd5b9060005260206000209060140201600701819055508260026000888152602001908152602001600020868154811061205157634e487b7160e01b600052603260045260246000fd5b9060005260206000209060140201600901819055508160026000888152602001908152602001600020868154811061209957634e487b7160e01b600052603260045260246000fd5b9060005260206000209060140201600a0190805190602001906120bd92919061434d565b5060008681526002602052604090208054869081106120ec57634e487b7160e01b600052603260045260246000fd5b906000526020600020906014020160010154841115612308576018603c80600260008a8152602001908152602001600020888154811061213c57634e487b7160e01b600052603260045260246000fd5b906000526020600020906014020160010154876121599190615d27565b6121639190615c32565b61216d9190615c32565b6121779190615c32565b60008781526002602052604090208054879081106121a557634e487b7160e01b600052603260045260246000fd5b9060005260206000209060140201600d018190555060006002600088815260200190815260200160002086815481106121ee57634e487b7160e01b600052603260045260246000fd5b9060005260206000209060140201600d0154905060006001888154811061222557634e487b7160e01b600052603260045260246000fd5b90600052602060002090600e02016008015490506000600260008a8152602001908152602001600020888154811061226d57634e487b7160e01b600052603260045260246000fd5b9060005260206000209060140201600801549050633b9aca008161016d84620186a06122999190615c46565b6122a39190615c04565b6122ad9086615c46565b6122b79190615c46565b6122c19190615c04565b60008a815260026020526040902080548a9081106122ef57634e487b7160e01b600052603260045260246000fd5b9060005260206000209060140201600e01819055505050505b600086815260026020526040902080548690811061233657634e487b7160e01b600052603260045260246000fd5b90600052602060002090601402016008015483121561243857600086815260026020526040902080548491908790811061238057634e487b7160e01b600052603260045260246000fd5b90600052602060002090601402016008015461239c9190615ce8565b60008781526002602052604090208054879081106123ca57634e487b7160e01b600052603260045260246000fd5b9060005260206000209060140201600b01819055508060026000888152602001908152602001600020868154811061241257634e487b7160e01b600052603260045260246000fd5b9060005260206000209060140201600c01908051906020019061243692919061434d565b505b600086815260026020526040812080548790811061246657634e487b7160e01b600052603260045260246000fd5b9060005260206000209060140201600b01546002600089815260200190815260200160002087815481106124aa57634e487b7160e01b600052603260045260246000fd5b9060005260206000209060140201600e0154600260008a815260200190815260200160002088815481106124ee57634e487b7160e01b600052603260045260246000fd5b90600052602060002090601402016012015461250a9190615ce8565b6125149190615ce8565b131561263e57600086815260026020526040902080548690811061254857634e487b7160e01b600052603260045260246000fd5b9060005260206000209060140201600b015460026000888152602001908152602001600020868154811061258c57634e487b7160e01b600052603260045260246000fd5b9060005260206000209060140201600e01546002600089815260200190815260200160002087815481106125d057634e487b7160e01b600052603260045260246000fd5b9060005260206000209060140201601201546125ec9190615ce8565b6125f69190615ce8565b600087815260026020526040902080548790811061262457634e487b7160e01b600052603260045260246000fd5b906000526020600020906014020160130181905550612682565b600086815260026020526040812080548790811061266c57634e487b7160e01b600052603260045260246000fd5b9060005260206000209060140201601301819055505b85600080516020615e1d83398151915260405161269e906157c7565b60405180910390a2505050505050565b6000546001600160a01b031681565b60015490565b6000546001600160a01b031633146126ed5760405162461bcd60e51b8152600401610457906156c3565b600154851061270e5760405162461bcd60e51b8152600401610457906155be565b61271661445c565b60208082018590526040808301859052606083018490528683526000888152600283529081208054600181018255908252908290208351805185946014909402909201926127699284929091019061434d565b50602082810151600183015560408301516002830155606083015160038301556080830151600483015560a0830151600583015560c0830151600683015560e083015160078301556101008301516008830155610120830151600983015561014083015180516127df92600a850192019061434d565b50610160820151600b820155610180820151805161280791600c84019160209091019061434d565b506101a0820151600d8201556101c0820151600e8201556101e0820151600f8201556102008201516010820155610220820151805161285091601184019160209091019061434d565b5061024082015181601201556102608201518160130155505085600080516020615e1d833981519152826000015160405161269e919061589b565b6000546001600160a01b031633146128b55760405162461bcd60e51b8152600401610457906156c3565b60015482106128d65760405162461bcd60e51b8152600401610457906155be565b60008281526004602090815260408220805460018101825590835291819020835180518594600602909201926129119284929091019061434d565b50602082810151805161292a926001850192019061434d565b50604082015160028201556060820151805161295091600384019160209091019061434d565b506080820151805161296c91600484019160209091019061434d565b5060a0820151805161138c91600584019160209091019061434d565b6000546001600160a01b031633146129b25760405162461bcd60e51b8152600401610457906156c3565b60015482106129d35760405162461bcd60e51b8152600401610457906155be565b612ac2826040518060400160405280600d81526020016c657874656e6465645f6461746160981b81525060018581548110612a1e57634e487b7160e01b600052603260045260246000fd5b90600052602060002090600e02016000018054612a3a90615d6a565b80601f0160208091040260200160405190810160405280929190818152602001828054612a6690615d6a565b8015612ab35780601f10612a8857610100808354040283529160200191612ab3565b820191906000526020600020905b815481529060010190602001808311612a9657829003601f168201915b50505050508460000151613fae565b612bb1826040518060400160405280600d81526020016c636f6e74726163745f6e616d6560981b81525060018581548110612b0d57634e487b7160e01b600052603260045260246000fd5b90600052602060002090600e02016001018054612b2990615d6a565b80601f0160208091040260200160405190810160405280929190818152602001828054612b5590615d6a565b8015612ba25780601f10612b7757610100808354040283529160200191612ba2565b820191906000526020600020905b815481529060010190602001808311612b8557829003601f168201915b50505050508460200151613fae565b612ca0826040518060400160405280600d81526020016c636f6e74726163745f7479706560981b81525060018581548110612bfc57634e487b7160e01b600052603260045260246000fd5b90600052602060002090600e02016002018054612c1890615d6a565b80601f0160208091040260200160405190810160405280929190818152602001828054612c4490615d6a565b8015612c915780601f10612c6657610100808354040283529160200191612c91565b820191906000526020600020905b815481529060010190602001808311612c7457829003601f168201915b50505050508460400151613fae565b612d8f826040518060400160405280600d81526020016c333ab73234b733afb4b739ba3960991b81525060018581548110612ceb57634e487b7160e01b600052603260045260246000fd5b90600052602060002090600e02016003018054612d0790615d6a565b80601f0160208091040260200160405190810160405280929190818152602001828054612d3390615d6a565b8015612d805780601f10612d5557610100808354040283529160200191612d80565b820191906000526020600020905b815481529060010190602001808311612d6357829003601f168201915b50505050508460600151613fae565b612e08826040518060400160405280600f81526020016e1cd95c9d9a58d957d9995957dc18dd608a1b815250612df660018681548110612ddf57634e487b7160e01b600052603260045260246000fd5b90600052602060002090600e020160040154613e69565b612e038560800151613e69565b613fae565b612e7c826040518060400160405280600f81526020016e0e6cae4ecd2c6cabecccacabedac2f608b1b815250612e6f60018681548110612e5857634e487b7160e01b600052603260045260246000fd5b90600052602060002090600e020160050154613e69565b612e038560a00151613e69565b612ef0826040518060400160405280600f81526020016e1cd95c9d9a58d957d9995957d85b5d608a1b815250612ee360018681548110612ecc57634e487b7160e01b600052603260045260246000fd5b90600052602060002090600e020160060154614011565b612e038560c00151614011565b612f60826040518060400160405280600b81526020016a18591d985b98d957dc18dd60aa1b815250612f5360018681548110612f3c57634e487b7160e01b600052603260045260246000fd5b90600052602060002090600e020160070154613e69565b612e038560e00151613e69565b612fd2826040518060400160405280600c81526020016b1b185d1957d9995957dc18dd60a21b815250612fc460018681548110612fad57634e487b7160e01b600052603260045260246000fd5b90600052602060002090600e020160080154613e69565b612e03856101000151613e69565b6130c3826040518060400160405280600e81526020016d7472616e736163745f6c6f67696360901b8152506001858154811061301e57634e487b7160e01b600052603260045260246000fd5b90600052602060002090600e0201600901805461303a90615d6a565b80601f016020809104026020016040519081016040528092919081815260200182805461306690615d6a565b80156130b35780601f10613088576101008083540402835291602001916130b3565b820191906000526020600020905b81548152906001019060200180831161309657829003601f168201915b5050505050846101200151613fae565b6131ab82604051806040016040528060058152602001646e6f74657360d81b8152506001858154811061310657634e487b7160e01b600052603260045260246000fd5b90600052602060002090600e0201600c01805461312290615d6a565b80601f016020809104026020016040519081016040528092919081815260200182805461314e90615d6a565b801561319b5780601f106131705761010080835404028352916020019161319b565b820191906000526020600020905b81548152906001019060200180831161317e57829003601f168201915b5050505050846101800151613fae565b61321f826040518060400160405280600981526020016869735f61637469766560b81b815250613211600186815481106131f557634e487b7160e01b600052603260045260246000fd5b60009182526020909120600d600e90920201015460ff166141c8565b612e03856101a001516141c8565b61329a826040518060400160405280600881526020016769735f71756f746560c01b81525061328c6001868154811061326857634e487b7160e01b600052603260045260246000fd5b90600052602060002090600e0201600d0160019054906101000a900460ff166141c8565b612e03856101c001516141c8565b80600183815481106132bc57634e487b7160e01b600052603260045260246000fd5b90600052602060002090600e020160008201518160000190805190602001906132e692919061434d565b5060208281015180516132ff926001850192019061434d565b506040820151805161331b91600284019160209091019061434d565b506060820151805161333791600384019160209091019061434d565b506080820151600482015560a0820151600582015560c0820151600682015560e082015160078201556101008201516008820155610120820151805161338791600984019160209091019061434d565b50610140820151600a820155610160820151600b82015561018082015180516133ba91600c84019160209091019061434d565b506101a0820151600d90910180546101c09093015115156101000261ff001992151560ff1990941693909317919091169190911790555050565b6000546001600160a01b0316331461341e5760405162461bcd60e51b8152600401610457906156c3565b600180548082018255600091909152815180518392600e027fb10e2d527612073b26eecdfd717e6a320cf44b4afac2b0732d9fcbe2b7fa0cf601916134689183916020019061434d565b506020828101518051613481926001850192019061434d565b506040820151805161349d91600284019160209091019061434d565b50606082015180516134b991600384019160209091019061434d565b506080820151600482015560a0820151600582015560c0820151600682015560e082015160078201556101008201516008820155610120820151805161350991600984019160209091019061434d565b50610140820151600a820155610160820151600b820155610180820151805161353c91600c84019160209091019061434d565b506101a0820151600d90910180546101c09093015115156101000261ff001992151560ff199094169390931791909116919091179055600180546135809190615d27565b600080516020615e1d83398151915282602001516040516104b49190615587565b6000546001600160a01b031633146135cb5760405162461bcd60e51b8152600401610457906156c3565b60015487106135ec5760405162461bcd60e51b8152600401610457906155be565b6135f46144f5565b86815260208082018790526040808301879052606083018690526080830185905260a0830184905260008a8152600483529081208054600181018255908252908290208351805185946006909402909201926136559284929091019061434d565b50602082810151805161366e926001850192019061434d565b50604082015160028201556060820151805161369491600384019160209091019061434d565b50608082015180516136b091600484019160209091019061434d565b5060a082015180516136cc91600584019160209091019061434d565b50505087600080516020615e1d833981519152886040516136ed919061597c565b60405180910390a25050505050505050565b60015460609082106137235760405162461bcd60e51b8152600401610457906155be565b600082815260046020908152604080832080548251818502810185019093528083529193909284015b82821015610cae57838290600052602060002090600602016040518060c001604052908160008201805461377f90615d6a565b80601f01602080910402602001604051908101604052809291908181526020018280546137ab90615d6a565b80156137f85780601f106137cd576101008083540402835291602001916137f8565b820191906000526020600020905b8154815290600101906020018083116137db57829003601f168201915b5050505050815260200160018201805461381190615d6a565b80601f016020809104026020016040519081016040528092919081815260200182805461383d90615d6a565b801561388a5780601f1061385f5761010080835404028352916020019161388a565b820191906000526020600020905b81548152906001019060200180831161386d57829003601f168201915b50505050508152602001600282015481526020016003820180546138ad90615d6a565b80601f01602080910402602001604051908101604052809291908181526020018280546138d990615d6a565b80156139265780601f106138fb57610100808354040283529160200191613926565b820191906000526020600020905b81548152906001019060200180831161390957829003601f168201915b5050505050815260200160048201805461393f90615d6a565b80601f016020809104026020016040519081016040528092919081815260200182805461396b90615d6a565b80156139b85780601f1061398d576101008083540402835291602001916139b8565b820191906000526020600020905b81548152906001019060200180831161399b57829003601f168201915b505050505081526020016005820180546139d190615d6a565b80601f01602080910402602001604051908101604052809291908181526020018280546139fd90615d6a565b8015613a4a5780601f10613a1f57610100808354040283529160200191613a4a565b820191906000526020600020905b815481529060010190602001808311613a2d57829003601f168201915b5050505050815250508152602001906001019061374c565b6000546001600160a01b03163314613a8c5760405162461bcd60e51b8152600401610457906156c3565b6001548210613aad5760405162461bcd60e51b8152600401610457906155be565b6000828152600260209081526040822080546001810182559083529181902083518051859460140290920192613ae89284929091019061434d565b50602082810151600183015560408301516002830155606083015160038301556080830151600483015560a0830151600583015560c0830151600683015560e08301516007830155610100830151600883015561012083015160098301556101408301518051613b5e92600a850192019061434d565b50610160820151600b8201556101808201518051613b8691600c84019160209091019061434d565b506101a0820151600d8201556101c0820151600e8201556101e0820151600f82015561020082015160108201556102208201518051613bcf91601184019160209091019061434d565b506102408201518160120155610260820151816013015550505050565b6000546001600160a01b03163314613c165760405162461bcd60e51b8152600401610457906156c3565b600180548082018255600091909152815180518392600e027fb10e2d527612073b26eecdfd717e6a320cf44b4afac2b0732d9fcbe2b7fa0cf60191613c609183916020019061434d565b506020828101518051613c79926001850192019061434d565b5060408201518051613c9591600284019160209091019061434d565b5060608201518051613cb191600384019160209091019061434d565b506080820151600482015560a0820151600582015560c0820151600682015560e0820151600782015561010082015160088201556101208201518051613d0191600984019160209091019061434d565b50610140820151600a820155610160820151600b8201556101808201518051613d3491600c84019160209091019061434d565b506101a0820151600d90910180546101c09093015115156101000261ff001992151560ff19909416939093179190911691909117905550565b6000546001600160a01b03163314613d975760405162461bcd60e51b8152600401610457906156c3565b6001548110613db85760405162461bcd60e51b8152600401610457906155be565b6000818152600560205260408120613dcf9161452b565b80600080516020615e1d8339815191526040516104b4906157fe565b6000546001600160a01b03163314613e155760405162461bcd60e51b8152600401610457906156c3565b6001548110613e365760405162461bcd60e51b8152600401610457906155be565b6000818152600360205260408120613e4d9161454c565b80600080516020615e1d8339815191526040516104b4906155ee565b606081613e8e57506040805180820190915260018152600360fc1b6020820152610cb5565b8160005b8115613eb85780613ea281615da5565b9150613eb19050600a83615c32565b9150613e92565b6000816001600160401b03811115613ee057634e487b7160e01b600052604160045260246000fd5b6040519080825280601f01601f191660200182016040528015613f0a576020820181803683370190505b509050815b8515613fa557613f20600182615d27565b90506000613f2f600a88615c32565b613f3a90600a615cc9565b613f449088615d27565b613f4f906030615bdf565b905060008160f81b905080848481518110613f7a57634e487b7160e01b600052603260045260246000fd5b60200101906001600160f81b031916908160001a905350613f9c600a89615c32565b97505050613f0f565b50949350505050565b808051906020012082805190602001201461400b5783600080516020615e1d833981519152848484604051602001613fe893929190615136565b60408051601f198184030181529082905261400291615755565b60405180910390a25b50505050565b60608161403657506040805180820190915260018152600360fc1b6020820152610cb5565b6000808312908084831561405d5761404d81615dc0565b90508261405981615da5565b9350505b8091505b8115614087578261407181615da5565b93506140809050600a83615c32565b9150614061565b6000836001600160401b038111156140af57634e487b7160e01b600052604160045260246000fd5b6040519080825280601f01601f1916602001820160405280156140d9576020820181803683370190505b5091925082919050835b8315614179576140f4600182615d27565b90506000614103600a86615c32565b61410e90600a615cc9565b6141189086615d27565b614123906030615bdf565b905060008160f81b90508084848151811061414e57634e487b7160e01b600052603260045260246000fd5b60200101906001600160f81b031916908160001a905350614170600a87615c32565b955050506140e3565b85156141bd57602d60f81b826000815181106141a557634e487b7160e01b600052603260045260246000fd5b60200101906001600160f81b031916908160001a9053505b509695505050505050565b6060816141f2576040518060400160405280600581526020016466616c736560d81b815250614210565b604051806040016040528060048152602001637472756560e01b8152505b92915050565b5080546000825560060290600052602060002090810190614237919061456d565b50565b82805461424690615d6a565b90600052602060002090601f01602090048101928261426857600085556142b5565b82601f1061427957805485556142b5565b828001600101855582156142b557600052602060002091601f016020900482015b828111156142b557825482559160010191906001019061429a565b506142c19291506145cc565b5090565b5080546142d190615d6a565b6000825580601f106142e35750614237565b601f01602090049060005260206000209081019061423791906145cc565b6040518061012001604052806060815260200160008152602001600081526020016000815260200160008152602001606081526020016000815260200160008152602001606081525090565b82805461435990615d6a565b90600052602060002090601f01602090048101928261437b57600085556142b5565b82601f1061439457805160ff19168380011785556142b5565b828001600101855582156142b5579182015b828111156142b55782518255916020019190600101906143a6565b508054600082556014029060005260206000209081019061423791906145e1565b604051806101e00160405280606081526020016060815260200160608152602001606081526020016000815260200160008152602001600081526020016000815260200160008152602001606081526020016000815260200160008152602001606081526020016000151581526020016000151581525090565b60405180610280016040528060608152602001600081526020016000815260200160008152602001600081526020016000815260200160008152602001600081526020016000815260200160008152602001606081526020016000815260200160608152602001600081526020016000815260200160008152602001600081526020016060815260200160008152602001600081525090565b6040518060c001604052806060815260200160608152602001600081526020016060815260200160608152602001606081525090565b508054600082556003029060005260206000209081019061423791906146ac565b508054600082556009029060005260206000209081019061423791906146e9565b808211156142c157600061458182826142c5565b61458f6001830160006142c5565b60028201600090556003820160006145a791906142c5565b6145b56004830160006142c5565b6145c36005830160006142c5565b5060060161456d565b5b808211156142c157600081556001016145cd565b808211156142c15760006145f582826142c5565b600182016000905560028201600090556003820160009055600482016000905560058201600090556006820160009055600782016000905560088201600090556009820160009055600a8201600061464d91906142c5565b600b820160009055600c8201600061466591906142c5565b600d820160009055600e820160009055600f820160009055601082016000905560118201600061469591906142c5565b5060006012820181905560138201556014016145e1565b808211156142c15760006146c082826142c5565b6001820180546001600160a01b03191690556146e06002830160006142c5565b506003016146ac565b808211156142c15760006146fd82826142c5565b600182016000905560028201600090556003820160009055600482016000905560058201600061472d91906142c5565b6006820160009055600782016000905560088201600061474d91906142c5565b506009016146e9565b80358015158114610cb557600080fd5b600082601f830112614776578081fd5b81356001600160401b0381111561478f5761478f615e06565b6147a2601f8201601f1916602001615b5d565b8181528460208386010111156147b6578283fd5b816020850160208301379081016020019190915292915050565b60006101e08083850312156147e3578182fd5b6147ec81615b5d565b91505081356001600160401b038082111561480657600080fd5b61481285838601614766565b8352602084013591508082111561482857600080fd5b61483485838601614766565b6020840152604084013591508082111561484d57600080fd5b61485985838601614766565b6040840152606084013591508082111561487257600080fd5b61487e85838601614766565b60608401526080840135608084015260a084013560a084015260c084013560c084015260e084013560e084015261010091508184013582840152610120915081840135818111156148ce57600080fd5b6148da86828701614766565b92840192909252610140848101359084015261016080850135908401526101809150818401358181111561490d57600080fd5b61491986828701614766565b838501525050506101a061492e818401614756565b908201526101c0614940838201614756565b9082015292915050565b60006020828403121561495b578081fd5b81356001600160401b03811115614970578182fd5b61497c848285016147d0565b949350505050565b600060208284031215614995578081fd5b5035919050565b600080600080600080600060e0888a0312156149b6578283fd5b8735965060208801356001600160401b03808211156149d3578485fd5b6149df8b838c01614766565b975060408a01359150808211156149f4578485fd5b614a008b838c01614766565b965060608a0135955060808a0135915080821115614a1c578485fd5b614a288b838c01614766565b945060a08a0135915080821115614a3d578384fd5b614a498b838c01614766565b935060c08a0135915080821115614a5e578283fd5b50614a6b8a828b01614766565b91505092959891949750929550565b600080600080600060a08688031215614a91578283fd5b8535945060208601356001600160401b0380821115614aae578485fd5b614aba89838a01614766565b955060408801359450606088013593506080880135915080821115614add578283fd5b50614aea88828901614766565b9150509295509295909350565b600080600080600060a08688031215614b0e578283fd5b8535945060208601356001600160401b03811115614b2a578384fd5b614b3688828901614766565b959895975050505060408401359360608101359360809091013592509050565b60008060408385031215614b68578182fd5b8235915060208301356001600160401b0380821115614b85578283fd5b9084019060c08287031215614b98578283fd5b614ba260c0615b5d565b823582811115614bb0578485fd5b614bbc88828601614766565b825250602083013582811115614bd0578485fd5b614bdc88828601614766565b60208301525060408301356040820152606083013582811115614bfd578485fd5b614c0988828601614766565b606083015250608083013582811115614c20578485fd5b614c2c88828601614766565b60808301525060a083013582811115614c43578485fd5b614c4f88828601614766565b60a0830152508093505050509250929050565b60008060408385031215614c74578182fd5b8235915060208301356001600160401b03811115614c90578182fd5b614c9c858286016147d0565b9150509250929050565b60008060408385031215614cb8578182fd5b8235915060208301356001600160401b0380821115614cd5578283fd5b9084019060608287031215614ce8578283fd5b604051606081018181108382111715614d0357614d03615e06565b604052823582811115614d14578485fd5b614d2088828601614766565b82525060208301356001600160a01b0381168114614d3c578485fd5b6020820152604083013582811115614d52578485fd5b614d5e88828601614766565b6040830152508093505050509250929050565b60008060408385031215614d83578182fd5b8235915060208301356001600160401b0380821115614da0578283fd5b8185019150610280808388031215614db6578384fd5b614dbf81615b5d565b9050823582811115614dcf578485fd5b614ddb88828601614766565b8252506020830135602082015260408301356040820152606083013560608201526080830135608082015260a083013560a082015260c083013560c082015260e083013560e08201526101008084013581830152506101208084013581830152506101408084013583811115614e4f578586fd5b614e5b89828701614766565b8284015250506101608084013581830152506101808084013583811115614e80578586fd5b614e8c89828701614766565b91830191909152506101a083810135908201526101c080840135908201526101e0808401359082015261020080840135908201526102208084013583811115614ed3578586fd5b614edf89828701614766565b82840152505061024091508183013582820152610260915081830135828201528093505050509250929050565b60008060408385031215614f1e578182fd5b8235915060208301356001600160401b0380821115614f3b578283fd5b8185019150610120808388031215614f51578384fd5b614f5a81615b5d565b9050823582811115614f6a578485fd5b614f7688828601614766565b8252506020830135602082015260408301356040820152606083013560608201526080830135608082015260a083013582811115614fb2578485fd5b614fbe88828601614766565b60a08301525060c083013560c082015260e083013560e08201526101008084013583811115614feb578586fd5b614ff789828701614766565b8284015250508093505050509250929050565b6000806040838503121561501c578182fd5b50508035926020909101359150565b600080600080600060a08688031215615042578283fd5b8535945060208601359350604086013592506060860135915060808601356001600160401b03811115615073578182fd5b614aea88828901614766565b60008060008060008060c08789031215615097578384fd5b8635955060208701359450604087013593506060870135925060808701356001600160401b03808211156150c9578384fd5b6150d58a838b01614766565b935060a08901359150808211156150ea578283fd5b506150f789828a01614766565b9150509295509295509295565b15159052565b60008151808452615122816020860160208601615d3e565b601f01601f19169290920160200192915050565b60008451615148818460208901615d3e565b601d60f91b9083019081528451615166816001840160208901615d3e565b61169f60f11b600192909101918201528351615189816003840160208801615d3e565b0160030195945050505050565b6001600160a01b0391909116815260200190565b60208082528251828201819052600091906040908185019080840286018301878501865b8381101561527b57603f19898403018552815160c081518186526151f48287018261510a565b915050888201518582038a87015261520c828261510a565b91505087820151888601526060808301518683038288015261522e838261510a565b9250505060808083015186830382880152615249838261510a565b9250505060a08083015192508582038187015250615267818361510a565b9689019694505050908601906001016151ce565b509098975050505050505050565b60208082528251828201819052600091906040908185019080840286018301878501865b8381101561527b57603f198984030185528151606081518186526152d38287018261510a565b838b01516001600160a01b0316878c0152928901518684038a8801529291506152fe9050818361510a565b9689019694505050908601906001016152ad565b60208082528251828201819052600091906040908185019080840286018301878501865b8381101561527b57603f198984030185528151610280815181865261535d8287018261510a565b838b0151878c0152898401518a880152606080850151908801526080808501519088015260a0808501519088015260c0808501519088015260e080850151908801526101008085015190880152610120808501519088015261014080850151888303828a015291935091506153d2838261510a565b9250505061016080830151818701525061018080830151868303828801526153fa838261510a565b6101a085810151908901526101c080860151908901526101e08086015190890152610200808601519089015261022080860151898303828b015291945092509050615445838261510a565b61024085810151908901526102609485015194909701939093525050509386019390860190600101615336565b60208082528251828201819052600091906040908185019080840286018301878501865b8381101561527b57603f19898403018552815161012081518186526154bd8287018261510a565b915050888201518986015287820151888601526060808301518187015250608080830151818701525060a080830151868303828801526154fd838261510a565b9250505060c080830151818701525060e08083015181870152506101008083015192508582038187015250615532818361510a565b968901969450505090860190600101615496565b600060408252601060408301526f151c985b9cd858dd1a5bdb905919195960821b606083015260806020830152615580608083018461510a565b9392505050565b600060408252600d60408301526c10dbdb9d1c9858dd1059191959609a1b606083015260806020830152615580608083018461510a565b602080825260169082015275092dcecc2d8d2c840c6dedce8e4c2c6e840d2dcc8caf60531b604082015260600190565b604080825260139082015272151c985b9cd858dd1a5bdb9cd1195b195d1959606a1b606082015260806020820181905260009082015260a00190565b6040808252600a9082015269506179416476616e636560b01b606082015260806020820181905260009082015260a00190565b602080825260169082015275092dcecc2d8d2c840c2e4e8d2ccc2c6e840d2dcc8caf60531b604082015260600190565b600060408252600c60408301526b14185c9d1e51195b195d195960a21b606083015260806020830152615580608083018461510a565b60208082526039908201527f4163636573732064656e6965642c206f6e6c7920636f6e7472616374206f776e60408201527f65722063616e2063616c6c20746869732066756e6374696f6e00000000000000606082015260800190565b6040808252600c908201526b14995cda591d585b14185a5960a21b606082015260806020820181905260009082015260a00190565b600060408252600f60408301526e10dbdb9d1c9858dd155c19185d1959608a1b606083015260806020830152615580608083018461510a565b600060408252600f60408301526e105c9d1a599858dd11195b195d1959608a1b606083015260806020830152615580608083018461510a565b6040808252600e908201526d141bdcdd14d95d1d1b195b595b9d60921b606082015260806020820181905260009082015260a00190565b6040808252600e908201526d14185c9d1a595cd1195b195d195960921b606082015260806020820181905260009082015260a00190565b60408082526010908201526f105c9d1a599858dd1cd1195b195d195960821b606082015260806020820181905260009082015260a00190565b602080825260139082015272092dcecc2d8d2c840e0c2e4e8f240d2dcc8caf606b1b604082015260600190565b600060408252600f60408301526e14d95d1d1b195b595b9d1059191959608a1b606083015260806020830152615580608083018461510a565b600060408252600a60408301526914185c9d1e505919195960b21b606083015260806020830152615580608083018461510a565b60408082526012908201527114d95d1d1b195b595b9d1cd1195b195d195960721b606082015260806020820181905260009082015260a00190565b600060408252600f60408301526e10dbdb9d1c9858dd11195b195d1959608a1b606083015260806020830152615580608083018461510a565b600060408252600d60408301526c105c9d1a599858dd1059191959609a1b606083015260806020830152615580608083018461510a565b60408082526010908201526f2a3930b739b0b1ba34b7b722b93937b960811b6060820152608060208201819052601a908201527f4e6f2076616c696420736574746c656d656e7420706572696f6400000000000060a082015260c00190565b60006020825282516101e0806020850152615a3161020085018361510a565b91506020850151601f1980868503016040870152615a4f848361510a565b93506040870151915080868503016060870152615a6c848361510a565b93506060870151915080868503016080870152615a89848361510a565b9350608087015160a087015260a087015160c087015260c087015160e087015260e08701519150610100828188015280880151925050610120828188015280880151925050610140818786030181880152615ae4858461510a565b90880151610160888101919091528801516101808089019190915288015187820383016101a0808a01919091529195509250615b20858461510a565b945080880151925050506101c0615b3981870183615104565b8601519050615b4a85830182615104565b5090949350505050565b90815260200190565b6040518181016001600160401b0381118282101715615b7e57615b7e615e06565b604052919050565b600080821280156001600160ff1b0384900385131615615ba857615ba8615dda565b600160ff1b8390038412811615615bc157615bc1615dda565b50500190565b60008219821115615bda57615bda615dda565b500190565b600060ff821660ff84168060ff03821115615bfc57615bfc615dda565b019392505050565b600082615c1357615c13615df0565b600160ff1b821460001984141615615c2d57615c2d615dda565b500590565b600082615c4157615c41615df0565b500490565b60006001600160ff1b0381841382841380821686840486111615615c6c57615c6c615dda565b600160ff1b84871282811687830589121615615c8a57615c8a615dda565b858712925087820587128484161615615ca557615ca5615dda565b87850587128184161615615cbb57615cbb615dda565b505050929093029392505050565b6000816000190483118215151615615ce357615ce3615dda565b500290565b60008083128015600160ff1b850184121615615d0657615d06615dda565b6001600160ff1b0384018313811615615d2157615d21615dda565b50500390565b600082821015615d3957615d39615dda565b500390565b60005b83811015615d59578181015183820152602001615d41565b8381111561400b5750506000910152565b600281046001821680615d7e57607f821691505b60208210811415615d9f57634e487b7160e01b600052602260045260246000fd5b50919050565b6000600019821415615db957615db9615dda565b5060010190565b6000600160ff1b821415615dd657615dd6615dda565b0390565b634e487b7160e01b600052601160045260246000fd5b634e487b7160e01b600052601260045260246000fd5b634e487b7160e01b600052604160045260246000fdfe345796c5f37ac4d00f0bd7eebb6ba729df51ddd74dafb2db6bf0c4a4a354577aa2646970667358221220b133705de68db1cd56af69c613582b9b08dc26b62d9d85dbc2e2a3a6d64197f264736f6c63430008000033",
  "immutableReferences": {},
  "source": "// SPDX-License-Identifier: MIT\npragma solidity ^0.8.0;\n\ncontract Delivery {\n\n    address public owner;\n\n    Contract[] contracts;                                   // [contract_idx]\n    mapping (uint => Settlement[]) private settlements;     // contract_idx => settlement[]\n    mapping (uint => Transaction[]) private transactions;   // contract_idx => transaction[]\n    mapping (uint => Artifact[]) private artifacts;         // contract_idx => artifact_list[]\n    mapping (uint => Party[]) private parties;              // contract_idx => party[]\n\n    // every field ending in _dt is a unix timestamp\n    // every field ending in _amt is an integer representing a float with 2 decimals\n    // every field ending in _pct is an integer represending a float value with 4 decimals \n    // every field ending in _confirm is a string returned from the fiat payment provider\n\n    struct Contract {\n        string extended_data;           // json extended data\n        string contract_name;           // description for display purposes\n        string contract_type;           // the type of contract, e.g. ticketing, construction\n        string funding_instr;           // buyer funding instructions\n        uint service_fee_pct;           // service fee pct <= service_fee_max\n        uint service_fee_max;           // maximum fee that can be charged if the rate is variable\n        int service_fee_amt;            // flat rate amt if not percentage based\n        uint advance_pct;               // amount of money that will be advanced to seller for every transaction\n        uint late_fee_pct;              // an APR, daily rate calculated as late_fee_pct / 365\n        string transact_logic;          // jsonlogic formula for calculating transaction amount\n        int min_threshold;              // minimum expected amount for a deliverable (could be negative)\n        int max_threshold;              // maximum expected amount for a deliverable\n        string notes;                   // contract notes, can be used for additonal data requests\n        bool is_active;                 // instead of deleting, clear this flag to False\n        bool is_quote;                  // true if still in the quote stage\n    }\n\n    struct Settlement {\n        string extended_data;           // json extended data\n        uint settle_due_dt;             // date the payment is due \n        uint transact_min_dt;           // min date the transaction is made \n        uint transact_max_dt;           // max date the transaction is made \n        uint transact_count;            // number of transactions in this current settlement period \n        int advance_amt;                // the dollar amount that was advanced in this period (net amt)\n        int advance_amt_gross;          // the dollar amount that was advanced in this period less fees\n        uint settle_pay_dt;             // when the settlement was paid\n        int settle_exp_amt;             // expected amount of settlement 0\n        int settle_pay_amt;             // actual amount paid from the buyer\n        string settle_confirm;          // confirmation from payment source\n        int dispute_amt;                // if expected < actual, assume there was a dispute\n        string dispute_reason;          // if dispute_amt > 0, what was the reason (if provided)\n        uint days_late;                 // number of days late the payment was made\n        int late_fee_amt;               // amount of the late fee, will be taken out of the residual\n        uint residual_pay_dt;           // date and time the residual was paid\n        int residual_pay_amt;           // will equal residual_calc_amt after payment intitiated\n        string residual_confirm;        // residual confirmation from the payment source\n        int residual_exp_amt;           // expected amount of the residual\n        int residual_calc_amt;          // what the actual residual will be (exp - late_fee - dispute)\n    }\n\n    struct Transaction {\n        string extended_data;           // json extended data\n        uint transact_dt;               // date and time of the transaction\n        int transact_amt;               // calculated value of a transaction, negative if an adjustment\n        int service_fee_amt;            // calculated fee for a transaction\n        int advance_amt;                // advance_amt * advance_pct - service_fee_amt\n        string transact_data;           // data regarding transaction for jsonlogic    \n        uint advance_pay_dt;            // payment of advance\n        uint advance_pay_amt;           // will equal advance amt after payment initiated\n        string advance_confirm;         // payment confirmation of the advance from payment source\n    }\n\n    struct Artifact {\n        string doc_title;               // Document title\n        string doc_type;                // Document type (e.g., \"application/pdf\")\n        uint added_dt;                  // Timestamp of when the artifact was added\n        string s3_bucket;               // S3 bucket name\n        string s3_object_key;           // S3 object key (full path to the document)\n        string s3_version_id;           // S3 version ID for versioned objects\n    }\n\n    struct Party {\n        string party_code;              // code associated with a party\n        address party_address;          // wallet address\n        string party_type;              // the type of party associated with contract\n    }\n\n    event ContractEvent(uint indexed contract_idx, string eventType, string details);\n\n    constructor() {\n        owner = msg.sender;\n    }\n\n    modifier onlyOwner() {\n        require(msg.sender == owner, \"Access denied, only contract owner can call this function\");\n        _;\n    }\n\n    function getContractCount() public view returns (uint) {\n        return contracts.length;\n    }\n\n    function getContract(uint contract_idx) public view returns (Contract memory) {\n        require(contract_idx < contracts.length, \"Invalid contract index\");\n        return contracts[contract_idx];\n    }\n\n    function addContract (Contract memory contract_) public onlyOwner {\n        contracts.push(contract_);\n        emit ContractEvent(contracts.length - 1, \"ContractAdded\", contract_.contract_name);\n    }\n\n    function logContractChange(uint contract_idx, string memory field, string memory old_value, string memory new_value) private {\n        if (keccak256(bytes(old_value)) != keccak256(bytes(new_value))) {\n            emit ContractEvent(contract_idx, \"ContractUpdated\", string(abi.encodePacked(field, \":\", old_value, \"->\", new_value)));\n        }\n    }\n\n    function updateContract (uint contract_idx, Contract memory contract_) public onlyOwner {\n        require(contract_idx < contracts.length, \"Invalid contract index\");\n        logContractChange(contract_idx, \"extended_data\", contracts[contract_idx].extended_data, contract_.extended_data);\n        logContractChange(contract_idx, \"contract_name\", contracts[contract_idx].contract_name, contract_.contract_name);\n        logContractChange(contract_idx, \"contract_type\", contracts[contract_idx].contract_type, contract_.contract_type);\n        logContractChange(contract_idx, \"funding_instr\", contracts[contract_idx].funding_instr, contract_.funding_instr);\n        logContractChange(contract_idx, \"service_fee_pct\", uintToString(contracts[contract_idx].service_fee_pct), uintToString(contract_.service_fee_pct));\n        logContractChange(contract_idx, \"service_fee_max\", uintToString(contracts[contract_idx].service_fee_max), uintToString(contract_.service_fee_max));\n        logContractChange(contract_idx, \"service_fee_amt\", intToString(contracts[contract_idx].service_fee_amt), intToString(contract_.service_fee_amt));\n        logContractChange(contract_idx, \"advance_pct\", uintToString(contracts[contract_idx].advance_pct), uintToString(contract_.advance_pct));\n        logContractChange(contract_idx, \"late_fee_pct\", uintToString(contracts[contract_idx].late_fee_pct), uintToString(contract_.late_fee_pct));\n        logContractChange(contract_idx, \"transact_logic\", contracts[contract_idx].transact_logic, contract_.transact_logic);\n        logContractChange(contract_idx, \"notes\", contracts[contract_idx].notes, contract_.notes);\n        logContractChange(contract_idx, \"is_active\", boolToString(contracts[contract_idx].is_active), boolToString(contract_.is_active));\n        logContractChange(contract_idx, \"is_quote\", boolToString(contracts[contract_idx].is_quote), boolToString(contract_.is_quote));\n        contracts[contract_idx] = contract_;\n    }\n\n    // Mark a contract as inactive \n    function deleteContract(uint contract_idx) public onlyOwner {\n        require(contract_idx < contracts.length, \"Invalid contract index\");\n        contracts[contract_idx].is_active = false;\n        emit ContractEvent(contract_idx, \"ContractDeleted\", uintToString(contract_idx));\n    }\n\n    function getParties(uint contract_idx) public view returns (Party[] memory) {\n        require(contract_idx < contracts.length, \"Invalid contract index\");\n        return parties[contract_idx];\n    }\n\n    function addParty(uint contract_idx, Party memory party) public onlyOwner {\n        require(contract_idx < contracts.length, \"Invalid contract index\");\n        parties[contract_idx].push(party);\n        emit ContractEvent(contract_idx, \"PartyAdded\", party.party_code);\n    }\n\n    function deleteParty(uint contract_idx, uint party_idx) public onlyOwner {\n        require(contract_idx < contracts.length, \"Invalid contract index\");\n        require(party_idx < parties[contract_idx].length, \"Invalid party index\");\n\n        for (uint i = party_idx; i < parties[contract_idx].length - 1; i++) {\n            parties[contract_idx][i] = parties[contract_idx][i + 1];\n        }\n\n        parties[contract_idx].pop();\n\n        emit ContractEvent(contract_idx, \"PartyDeleted\", uintToString(party_idx));\n    }\n\n    function deleteParties(uint contract_idx) public onlyOwner {\n        require(contract_idx < contracts.length, \"Invalid contract index\");\n        delete parties[contract_idx];\n        emit ContractEvent(contract_idx, \"PartiesDeleted\", \"\");\n    }\n\n    function getArtifacts(uint contract_idx) public view returns (Artifact[] memory) {\n        require(contract_idx < contracts.length, \"Invalid contract index\");\n        return artifacts[contract_idx];\n    }\n\n    // Update addArtifact function:\n    function addArtifact(uint contract_idx, string memory doc_title, string memory doc_type, uint added_dt,\n        string memory s3_bucket, string memory s3_object_key, string memory s3_version_id) public onlyOwner {\n        require(contract_idx < contracts.length, \"Invalid contract index\");\n        Artifact memory artifact;\n        artifact.doc_title = doc_title;\n        artifact.doc_type = doc_type;\n        artifact.added_dt = added_dt;\n        artifact.s3_bucket = s3_bucket;\n        artifact.s3_object_key = s3_object_key;\n        artifact.s3_version_id = s3_version_id;\n        artifacts[contract_idx].push(artifact);\n        emit ContractEvent(contract_idx, \"ArtifactAdded\", doc_title);\n    }\n\n    function deleteArtifact(uint contract_idx, uint artifact_idx) public onlyOwner {\n        require(contract_idx < contracts.length, \"Invalid contract index\");\n        require(artifact_idx < artifacts[contract_idx].length, \"Invalid artifact index\");\n\n        for (uint i = artifact_idx; i < artifacts[contract_idx].length - 1; i++) {\n            artifacts[contract_idx][i] = artifacts[contract_idx][i + 1];\n        }\n\n        artifacts[contract_idx].pop();\n\n        emit ContractEvent(contract_idx, \"ArtifactDeleted\", uintToString(artifact_idx));\n    }\n\n    function deleteArtifacts(uint contract_idx) public onlyOwner {\n        require(contract_idx < contracts.length, \"Invalid contract index\");\n        delete artifacts[contract_idx];\n        emit ContractEvent(contract_idx, \"ArtifactsDeleted\", \"\");\n    }\n\n    function getSettlements(uint contract_idx) public view returns (Settlement[] memory) {\n        require(contract_idx < contracts.length, \"Invalid contract index\");\n        return settlements[contract_idx];\n    }\n\n    function addSettlement(uint contract_idx, string memory extended_data, uint settle_due_dt, uint transact_min_dt, uint transact_max_dt) public onlyOwner {\n        require(contract_idx < contracts.length, \"Invalid contract index\");\n        Settlement memory settlement;\n        settlement.settle_due_dt = settle_due_dt;\n        settlement.transact_min_dt = transact_min_dt;\n        settlement.transact_max_dt = transact_max_dt;\n        settlement.extended_data = extended_data;\n        settlements[contract_idx].push(settlement);\n        emit ContractEvent(contract_idx, \"SettlementAdded\", settlement.extended_data);\n    }\n\n    function deleteSettlements(uint contract_idx) public onlyOwner {\n        require(contract_idx < contracts.length, \"Invalid contract index\");\n        delete settlements[contract_idx];\n        emit ContractEvent(contract_idx, \"SettlementsDeleted\", \"\");\n    }\n\n    function getTransactions(uint contract_idx) public view returns (Transaction[] memory) {\n        require(contract_idx < contracts.length, \"Invalid contract index\");\n        return transactions[contract_idx];\n    }\n\n    function deleteTransactions(uint contract_idx) public onlyOwner {\n        require(contract_idx < contracts.length, \"Invalid contract index\");\n        delete transactions[contract_idx];\n        emit ContractEvent(contract_idx, \"TransactionsDeleted\", \"\");\n    }\n\n    function addTransaction(uint contract_idx, string memory extended_data, uint transact_dt, int transact_amt, string memory transact_data) public onlyOwner {\n        require(contract_idx < contracts.length, \"Invalid contract index\");\n\n        Transaction memory transact;\n        transact.extended_data = extended_data;\n        transact.transact_dt = transact_dt;\n        transact.transact_amt = transact_amt;\n        transact.transact_data = transact_data;\n\n        bool settle_found = false;\n        int transact_advance_amt = 0;\n        int transact_advance_amt_gross = 0;\n        int service_fee_amt = 0;\n\n        for (uint i = 0; i < settlements[contract_idx].length; i++) {\n            Settlement storage settlement = settlements[contract_idx][i];\n            // minimum date is inclusive, maximum date is exclusive\n            if (transact_dt >= settlement.transact_min_dt && transact_dt < settlement.transact_max_dt) {\n                if (transact_amt > 0) {\n                    service_fee_amt = int((contracts[contract_idx].service_fee_pct * uint(transact_amt)) / 10000) + int(contracts[contract_idx].service_fee_amt);\n                    transact_advance_amt_gross = int((uint(transact_amt) * contracts[contract_idx].advance_pct) / 10000);\n\n                    // Determine the final advance amount after subtracting the service fee\n                    if (transact_advance_amt_gross >= service_fee_amt) {\n                        transact_advance_amt = transact_advance_amt_gross - service_fee_amt;\n                    }\n                }\n\n                settlement.settle_exp_amt += transact_amt;\n                settlement.advance_amt += transact_advance_amt;\n                settlement.advance_amt_gross += transact_advance_amt_gross;\n                settlement.residual_exp_amt = settlement.settle_exp_amt - settlement.advance_amt_gross;\n                settlement.transact_count++;\n                transact.advance_amt = transact_advance_amt;\n                transact.service_fee_amt = service_fee_amt;\n                settle_found = true;\n            }\n        }\n\n        if (settle_found) {\n            transactions[contract_idx].push(transact);\n            emit ContractEvent(contract_idx, \"TransactionAdded\", transact.extended_data);\n        } else {\n            emit ContractEvent(contract_idx, \"TransactionError\", \"No valid settlement period\");\n        }\n    }\n\n    function payAdvance(uint contract_idx, uint transact_idx, uint advance_pay_dt, uint advance_pay_amt, string memory advance_confirm) public onlyOwner {\n        require(contract_idx < contracts.length, \"Invalid contract index\");\n        transactions[contract_idx][transact_idx].advance_pay_dt = advance_pay_dt;\n        transactions[contract_idx][transact_idx].advance_pay_amt = advance_pay_amt;\n        transactions[contract_idx][transact_idx].advance_confirm = advance_confirm;\n        emit ContractEvent(contract_idx, \"PayAdvance\", \"\");\n    }\n\n    function postSettlement(uint contract_idx, uint settle_idx, uint settle_pay_dt, int settle_pay_amt, string memory settle_confirm, string memory dispute_reason) public onlyOwner {\n        require(contract_idx < contracts.length, \"Invalid contract index\");\n        settlements[contract_idx][settle_idx].settle_pay_dt = settle_pay_dt;\n        settlements[contract_idx][settle_idx].settle_pay_amt = settle_pay_amt;\n        settlements[contract_idx][settle_idx].settle_confirm = settle_confirm;\n\n        if (settle_pay_dt > settlements[contract_idx][settle_idx].settle_due_dt) {\n            settlements[contract_idx][settle_idx].days_late = (settle_pay_dt - settlements[contract_idx][settle_idx].settle_due_dt) / 60 / 60 / 24;\n\n            // Convert necessary values to int to match types and avoid errors\n            int days_late = int(settlements[contract_idx][settle_idx].days_late);\n            int late_fee_pct = int(contracts[contract_idx].late_fee_pct);\n            int settle_exp_amt = settlements[contract_idx][settle_idx].settle_exp_amt;\n\n            settlements[contract_idx][settle_idx].late_fee_amt = (days_late * ((late_fee_pct * 100000) / 365) * settle_exp_amt) / 1000000000;\n        }\n\n        if (settle_pay_amt < settlements[contract_idx][settle_idx].settle_exp_amt) {\n            settlements[contract_idx][settle_idx].dispute_amt = settlements[contract_idx][settle_idx].settle_exp_amt - settle_pay_amt;\n            settlements[contract_idx][settle_idx].dispute_reason = dispute_reason;\n        } \n\n        if ((settlements[contract_idx][settle_idx].residual_exp_amt - settlements[contract_idx][settle_idx].late_fee_amt - settlements[contract_idx][settle_idx].dispute_amt) > 0) {\n            settlements[contract_idx][settle_idx].residual_calc_amt = settlements[contract_idx][settle_idx].residual_exp_amt - settlements[contract_idx][settle_idx].late_fee_amt -\n                settlements[contract_idx][settle_idx].dispute_amt;\n        } else {\n            settlements[contract_idx][settle_idx].residual_calc_amt = 0;\n        }\n\n        emit ContractEvent(contract_idx, \"PostSettlement\", \"\");\n    }\n\n    function payResidual(uint contract_idx, uint settle_idx, uint residual_pay_dt, int residual_pay_amt, string memory residual_confirm) public onlyOwner {\n        require(contract_idx < contracts.length, \"Invalid contract index\");\n        settlements[contract_idx][settle_idx].residual_pay_dt = residual_pay_dt;\n        settlements[contract_idx][settle_idx].residual_pay_amt = residual_pay_amt;\n        settlements[contract_idx][settle_idx].residual_confirm = residual_confirm;\n        emit ContractEvent(contract_idx, \"ResidualPaid\", \"\");\n    }\n\n    function importContract(Contract memory contract_) public onlyOwner {\n        contracts.push(contract_);\n    }\n\n    function importParty(uint contract_idx, Party memory party) public onlyOwner {\n        require(contract_idx < contracts.length, \"Invalid contract index\");\n        parties[contract_idx].push(party);\n    }\n\n    function importSettlement(uint contract_idx, Settlement memory settlement) public onlyOwner {\n        require(contract_idx < contracts.length, \"Invalid contract index\");\n        settlements[contract_idx].push(settlement);\n    }\n\n    function importTransaction(uint contract_idx, Transaction memory transaction) public onlyOwner {\n        require(contract_idx < contracts.length, \"Invalid contract index\");\n        transactions[contract_idx].push(transaction);\n    }\n\n    function importArtifact(uint contract_idx, Artifact memory artifact) public onlyOwner {\n        require(contract_idx < contracts.length, \"Invalid contract index\");\n        artifacts[contract_idx].push(artifact);\n    }\n\n    function uintToString(uint v) internal pure returns (string memory) {\n        if (v == 0) {\n            return \"0\";\n        }\n        uint j = v;\n        uint len;\n        while (j != 0) {\n            len++;\n            j /= 10;\n        }\n        bytes memory bstr = new bytes(len);\n        uint k = len;\n        while (v != 0) {\n            k = k - 1;\n            uint8 temp = (48 + uint8(v - v / 10 * 10));\n            bytes1 b1 = bytes1(temp);\n            bstr[k] = b1;\n            v /= 10;\n        }\n        return string(bstr);\n    }\n\n   function intToString(int v) internal pure returns (string memory) {\n        if (v == 0) {\n            return \"0\";\n        }\n\n        bool negative = v < 0;\n        uint len = 0;\n        uint i;\n        int temp = v;\n\n        if (negative) {\n            temp = -temp;\n            len++;\n        }\n\n        i = uint(temp);\n\n        while (i != 0) {\n            len++;\n            i /= 10;\n        }\n\n        bytes memory bstr = new bytes(len);\n        uint k = len;\n        i = uint(temp);\n\n        while (i != 0) {\n            k = k - 1;\n            uint8 tempDigit = (48 + uint8(i - i / 10 * 10));\n            bytes1 b1 = bytes1(tempDigit);\n            bstr[k] = b1;\n            i /= 10;\n        }\n\n        if (negative) {\n            bstr[0] = '-';\n        }\n\n        return string(bstr);\n    } \n\n    function boolToString(bool v) internal pure returns (string memory) {\n        return v ? \"true\" : \"false\";\n    }\n}",
  "sourcePath": "/Users/davidnichamoff/Projects/FIZIT_DEV/truffle/contracts/Delivery.sol",
  "compiler": {
    "name": "solc",
    "version": "0.8.0+commit.c7dfd78e.Emscripten.clang"
  },
  "schemaVersion": "3.4.16",
  "updatedAt": "2024-10-03T20:43:07.194Z",
  "networkType": "ethereum",
  "devdoc": {
    "kind": "dev",
    "methods": {},
    "version": 1
  },
  "userdoc": {
    "kind": "user",
    "methods": {},
    "version": 1
  }
}