{
  "contractName": "Delivery",
  "abi": [
    {
      "inputs": [],
      "stateMutability": "nonpayable",
      "type": "constructor"
    },
    {
      "anonymous": false,
      "inputs": [
        {
          "indexed": true,
          "internalType": "uint256",
          "name": "contract_idx",
          "type": "uint256"
        },
        {
          "indexed": true,
          "internalType": "uint256",
          "name": "transact_idx",
          "type": "uint256"
        }
      ],
      "name": "AdvancePaid",
      "type": "event"
    },
    {
      "anonymous": false,
      "inputs": [
        {
          "indexed": true,
          "internalType": "uint256",
          "name": "contract_idx",
          "type": "uint256"
        },
        {
          "indexed": true,
          "internalType": "uint256",
          "name": "artifact_idx",
          "type": "uint256"
        }
      ],
      "name": "ArtifactAdded",
      "type": "event"
    },
    {
      "anonymous": false,
      "inputs": [
        {
          "indexed": true,
          "internalType": "uint256",
          "name": "contract_idx",
          "type": "uint256"
        }
      ],
      "name": "ContractAdded",
      "type": "event"
    },
    {
      "anonymous": false,
      "inputs": [
        {
          "indexed": true,
          "internalType": "uint256",
          "name": "contract_idx",
          "type": "uint256"
        }
      ],
      "name": "ContractUpdated",
      "type": "event"
    },
    {
      "anonymous": false,
      "inputs": [
        {
          "indexed": true,
          "internalType": "uint256",
          "name": "contract_idx",
          "type": "uint256"
        },
        {
          "indexed": true,
          "internalType": "uint256",
          "name": "settle_idx",
          "type": "uint256"
        }
      ],
      "name": "ResidualPaid",
      "type": "event"
    },
    {
      "anonymous": false,
      "inputs": [
        {
          "indexed": true,
          "internalType": "uint256",
          "name": "contract_idx",
          "type": "uint256"
        },
        {
          "indexed": true,
          "internalType": "uint256",
          "name": "settle_idx",
          "type": "uint256"
        }
      ],
      "name": "SettlementAdded",
      "type": "event"
    },
    {
      "anonymous": false,
      "inputs": [
        {
          "indexed": true,
          "internalType": "uint256",
          "name": "contract_idx",
          "type": "uint256"
        },
        {
          "indexed": true,
          "internalType": "uint256",
          "name": "settle_idx",
          "type": "uint256"
        }
      ],
      "name": "SettlementPosted",
      "type": "event"
    },
    {
      "anonymous": false,
      "inputs": [
        {
          "indexed": true,
          "internalType": "uint256",
          "name": "contract_idx",
          "type": "uint256"
        },
        {
          "indexed": true,
          "internalType": "uint256",
          "name": "transact_idx",
          "type": "uint256"
        }
      ],
      "name": "TransactionAdded",
      "type": "event"
    },
    {
      "inputs": [],
      "name": "owner",
      "outputs": [
        {
          "internalType": "address",
          "name": "",
          "type": "address"
        }
      ],
      "stateMutability": "view",
      "type": "function",
      "constant": true
    },
    {
      "inputs": [],
      "name": "getContractCount",
      "outputs": [
        {
          "internalType": "uint256",
          "name": "",
          "type": "uint256"
        }
      ],
      "stateMutability": "view",
      "type": "function",
      "constant": true
    },
    {
      "inputs": [
        {
          "internalType": "uint256",
          "name": "contract_idx",
          "type": "uint256"
        }
      ],
      "name": "getContract",
      "outputs": [
        {
          "components": [
            {
              "internalType": "string",
              "name": "extended_data",
              "type": "string"
            },
            {
              "internalType": "string",
              "name": "contract_name",
              "type": "string"
            },
            {
              "internalType": "string",
              "name": "funding_instr",
              "type": "string"
            },
            {
              "internalType": "uint256",
              "name": "service_fee_pct",
              "type": "uint256"
            },
            {
              "internalType": "uint256",
              "name": "service_fee_amt",
              "type": "uint256"
            },
            {
              "internalType": "uint256",
              "name": "advance_pct",
              "type": "uint256"
            },
            {
              "internalType": "uint256",
              "name": "late_fee_pct",
              "type": "uint256"
            },
            {
              "internalType": "string",
              "name": "transact_logic",
              "type": "string"
            },
            {
              "internalType": "bool",
              "name": "is_active",
              "type": "bool"
            }
          ],
          "internalType": "struct Delivery.Contract",
          "name": "",
          "type": "tuple"
        }
      ],
      "stateMutability": "view",
      "type": "function",
      "constant": true
    },
    {
      "inputs": [
        {
          "components": [
            {
              "internalType": "string",
              "name": "extended_data",
              "type": "string"
            },
            {
              "internalType": "string",
              "name": "contract_name",
              "type": "string"
            },
            {
              "internalType": "string",
              "name": "funding_instr",
              "type": "string"
            },
            {
              "internalType": "uint256",
              "name": "service_fee_pct",
              "type": "uint256"
            },
            {
              "internalType": "uint256",
              "name": "service_fee_amt",
              "type": "uint256"
            },
            {
              "internalType": "uint256",
              "name": "advance_pct",
              "type": "uint256"
            },
            {
              "internalType": "uint256",
              "name": "late_fee_pct",
              "type": "uint256"
            },
            {
              "internalType": "string",
              "name": "transact_logic",
              "type": "string"
            },
            {
              "internalType": "bool",
              "name": "is_active",
              "type": "bool"
            }
          ],
          "internalType": "struct Delivery.Contract",
          "name": "contract_",
          "type": "tuple"
        }
      ],
      "name": "addContract",
      "outputs": [],
      "stateMutability": "nonpayable",
      "type": "function"
    },
    {
      "inputs": [
        {
          "internalType": "uint256",
          "name": "contract_idx",
          "type": "uint256"
        },
        {
          "components": [
            {
              "internalType": "string",
              "name": "extended_data",
              "type": "string"
            },
            {
              "internalType": "string",
              "name": "contract_name",
              "type": "string"
            },
            {
              "internalType": "string",
              "name": "funding_instr",
              "type": "string"
            },
            {
              "internalType": "uint256",
              "name": "service_fee_pct",
              "type": "uint256"
            },
            {
              "internalType": "uint256",
              "name": "service_fee_amt",
              "type": "uint256"
            },
            {
              "internalType": "uint256",
              "name": "advance_pct",
              "type": "uint256"
            },
            {
              "internalType": "uint256",
              "name": "late_fee_pct",
              "type": "uint256"
            },
            {
              "internalType": "string",
              "name": "transact_logic",
              "type": "string"
            },
            {
              "internalType": "bool",
              "name": "is_active",
              "type": "bool"
            }
          ],
          "internalType": "struct Delivery.Contract",
          "name": "contract_",
          "type": "tuple"
        }
      ],
      "name": "updateContract",
      "outputs": [],
      "stateMutability": "nonpayable",
      "type": "function"
    },
    {
      "inputs": [
        {
          "internalType": "uint256",
          "name": "contract_idx",
          "type": "uint256"
        }
      ],
      "name": "getArtifacts",
      "outputs": [
        {
          "components": [
            {
              "internalType": "string",
              "name": "artifact_id",
              "type": "string"
            },
            {
              "internalType": "string",
              "name": "extended_data",
              "type": "string"
            },
            {
              "internalType": "uint256",
              "name": "added_dt",
              "type": "uint256"
            },
            {
              "internalType": "string",
              "name": "doc_title",
              "type": "string"
            },
            {
              "internalType": "string",
              "name": "doc_type",
              "type": "string"
            }
          ],
          "internalType": "struct Delivery.Artifact[]",
          "name": "",
          "type": "tuple[]"
        }
      ],
      "stateMutability": "view",
      "type": "function",
      "constant": true
    },
    {
      "inputs": [
        {
          "internalType": "uint256",
          "name": "contract_idx",
          "type": "uint256"
        },
        {
          "internalType": "string",
          "name": "artifact_id",
          "type": "string"
        },
        {
          "internalType": "string",
          "name": "doc_title",
          "type": "string"
        },
        {
          "internalType": "string",
          "name": "doc_type",
          "type": "string"
        },
        {
          "internalType": "uint256",
          "name": "added_dt",
          "type": "uint256"
        }
      ],
      "name": "addArtifact",
      "outputs": [],
      "stateMutability": "nonpayable",
      "type": "function"
    },
    {
      "inputs": [
        {
          "internalType": "uint256",
          "name": "contract_idx",
          "type": "uint256"
        }
      ],
      "name": "deleteArtifacts",
      "outputs": [],
      "stateMutability": "nonpayable",
      "type": "function"
    },
    {
      "inputs": [
        {
          "internalType": "uint256",
          "name": "contract_idx",
          "type": "uint256"
        }
      ],
      "name": "getSettlements",
      "outputs": [
        {
          "components": [
            {
              "internalType": "string",
              "name": "extended_data",
              "type": "string"
            },
            {
              "internalType": "uint256",
              "name": "settle_due_dt",
              "type": "uint256"
            },
            {
              "internalType": "uint256",
              "name": "transact_min_dt",
              "type": "uint256"
            },
            {
              "internalType": "uint256",
              "name": "transact_max_dt",
              "type": "uint256"
            },
            {
              "internalType": "uint256",
              "name": "transact_count",
              "type": "uint256"
            },
            {
              "internalType": "uint256",
              "name": "settle_pay_dt",
              "type": "uint256"
            },
            {
              "internalType": "uint256",
              "name": "settle_exp_amt",
              "type": "uint256"
            },
            {
              "internalType": "uint256",
              "name": "settle_pay_amt",
              "type": "uint256"
            },
            {
              "internalType": "string",
              "name": "settle_confirm",
              "type": "string"
            },
            {
              "internalType": "uint256",
              "name": "dispute_amt",
              "type": "uint256"
            },
            {
              "internalType": "string",
              "name": "dispute_reason",
              "type": "string"
            },
            {
              "internalType": "uint256",
              "name": "days_late",
              "type": "uint256"
            },
            {
              "internalType": "uint256",
              "name": "late_fee_amt",
              "type": "uint256"
            },
            {
              "internalType": "uint256",
              "name": "residual_pay_dt",
              "type": "uint256"
            },
            {
              "internalType": "uint256",
              "name": "residual_pay_amt",
              "type": "uint256"
            },
            {
              "internalType": "string",
              "name": "residual_confirm",
              "type": "string"
            },
            {
              "internalType": "uint256",
              "name": "residual_exp_amt",
              "type": "uint256"
            },
            {
              "internalType": "uint256",
              "name": "residual_calc_amt",
              "type": "uint256"
            }
          ],
          "internalType": "struct Delivery.Settlement[]",
          "name": "",
          "type": "tuple[]"
        }
      ],
      "stateMutability": "view",
      "type": "function",
      "constant": true
    },
    {
      "inputs": [
        {
          "internalType": "uint256",
          "name": "contract_idx",
          "type": "uint256"
        },
        {
          "internalType": "string",
          "name": "extended_data",
          "type": "string"
        },
        {
          "internalType": "uint256",
          "name": "settle_due_dt",
          "type": "uint256"
        },
        {
          "internalType": "uint256",
          "name": "transact_min_dt",
          "type": "uint256"
        },
        {
          "internalType": "uint256",
          "name": "transact_max_dt",
          "type": "uint256"
        }
      ],
      "name": "addSettlement",
      "outputs": [],
      "stateMutability": "nonpayable",
      "type": "function"
    },
    {
      "inputs": [
        {
          "internalType": "uint256",
          "name": "contract_idx",
          "type": "uint256"
        }
      ],
      "name": "deleteSettlements",
      "outputs": [],
      "stateMutability": "nonpayable",
      "type": "function"
    },
    {
      "inputs": [
        {
          "internalType": "uint256",
          "name": "contract_idx",
          "type": "uint256"
        }
      ],
      "name": "getTransactions",
      "outputs": [
        {
          "components": [
            {
              "internalType": "string",
              "name": "extended_data",
              "type": "string"
            },
            {
              "internalType": "uint256",
              "name": "transact_dt",
              "type": "uint256"
            },
            {
              "internalType": "uint256",
              "name": "transact_amt",
              "type": "uint256"
            },
            {
              "internalType": "uint256",
              "name": "advance_amt",
              "type": "uint256"
            },
            {
              "internalType": "string",
              "name": "transact_data",
              "type": "string"
            },
            {
              "internalType": "uint256",
              "name": "advance_pay_dt",
              "type": "uint256"
            },
            {
              "internalType": "uint256",
              "name": "advance_pay_amt",
              "type": "uint256"
            },
            {
              "internalType": "string",
              "name": "advance_confirm",
              "type": "string"
            }
          ],
          "internalType": "struct Delivery.Transaction[]",
          "name": "",
          "type": "tuple[]"
        }
      ],
      "stateMutability": "view",
      "type": "function",
      "constant": true
    },
    {
      "inputs": [
        {
          "internalType": "uint256",
          "name": "contract_idx",
          "type": "uint256"
        },
        {
          "internalType": "string",
          "name": "extended_data",
          "type": "string"
        },
        {
          "internalType": "uint256",
          "name": "transact_dt",
          "type": "uint256"
        },
        {
          "internalType": "uint256",
          "name": "transact_amt",
          "type": "uint256"
        },
        {
          "internalType": "string",
          "name": "transact_data",
          "type": "string"
        }
      ],
      "name": "addTransaction",
      "outputs": [],
      "stateMutability": "nonpayable",
      "type": "function"
    },
    {
      "inputs": [
        {
          "internalType": "uint256",
          "name": "contract_idx",
          "type": "uint256"
        }
      ],
      "name": "deleteTransactions",
      "outputs": [],
      "stateMutability": "nonpayable",
      "type": "function"
    },
    {
      "inputs": [
        {
          "internalType": "uint256",
          "name": "contract_idx",
          "type": "uint256"
        },
        {
          "internalType": "uint256",
          "name": "transact_idx",
          "type": "uint256"
        },
        {
          "internalType": "uint256",
          "name": "advance_pay_dt",
          "type": "uint256"
        },
        {
          "internalType": "uint256",
          "name": "advance_pay_amt",
          "type": "uint256"
        },
        {
          "internalType": "string",
          "name": "advance_confirm",
          "type": "string"
        }
      ],
      "name": "payAdvance",
      "outputs": [],
      "stateMutability": "nonpayable",
      "type": "function"
    },
    {
      "inputs": [
        {
          "internalType": "uint256",
          "name": "contract_idx",
          "type": "uint256"
        },
        {
          "internalType": "uint256",
          "name": "settle_idx",
          "type": "uint256"
        },
        {
          "internalType": "uint256",
          "name": "settle_pay_dt",
          "type": "uint256"
        },
        {
          "internalType": "uint256",
          "name": "settle_pay_amt",
          "type": "uint256"
        },
        {
          "internalType": "string",
          "name": "settle_confirm",
          "type": "string"
        },
        {
          "internalType": "string",
          "name": "dispute_reason",
          "type": "string"
        }
      ],
      "name": "postSettlement",
      "outputs": [],
      "stateMutability": "nonpayable",
      "type": "function"
    },
    {
      "inputs": [
        {
          "internalType": "uint256",
          "name": "contract_idx",
          "type": "uint256"
        },
        {
          "internalType": "uint256",
          "name": "settle_idx",
          "type": "uint256"
        },
        {
          "internalType": "uint256",
          "name": "residual_pay_dt",
          "type": "uint256"
        },
        {
          "internalType": "uint256",
          "name": "residual_pay_amt",
          "type": "uint256"
        },
        {
          "internalType": "string",
          "name": "residual_confirm",
          "type": "string"
        }
      ],
      "name": "payResidual",
      "outputs": [],
      "stateMutability": "nonpayable",
      "type": "function"
    }
  ],
  "bytecode": "0x608060405234801561001057600080fd5b50600080546001600160a01b03191633179055612ff8806100326000396000f3fe608060405234801561001057600080fd5b506004361061010b5760003560e01c80636ebc8c86116100a2578063a21a3fef11610071578063a21a3fef1461022a578063a2a789291461023d578063d311341214610250578063f06e992d14610270578063fcf45c0f146102835761010b565b80636ebc8c86146101cd57806375483e46146101ed5780638da5cb5b146102005780639399869d146102155761010b565b80635742177c116100de5780635742177c146101745780635b1ffac3146101945780635b4e97e7146101a7578063610df22e146101ba5761010b565b806311ef56de146101105780633cbfb1b51461012557806346f920fd146101385780634ac2cda314610161575b600080fd5b61012361011e36600461276a565b610296565b005b610123610133366004612782565b6102e3565b61014b61014636600461276a565b610416565b6040516101589190612b3f565b60405180910390f35b61012361016f3660046128f6565b61075e565b61018761018236600461276a565b610899565b6040516101589190612c89565b6101236101a2366004612990565b610ae9565b6101236101b536600461276a565b611193565b6101236101c836600461293b565b6111f5565b6101e06101db36600461276a565b611339565b6040516101589190612dde565b6101236101fb36600461293b565b611603565b610208611747565b6040516101589190612a67565b61021d611756565b6040516101589190612e9f565b61012361023836600461272f565b61175c565b61012361024b366004612896565b6118a0565b61026361025e36600461276a565b611a5d565b6040516101589190612a7b565b61012361027e366004612818565b611d16565b61012361029136600461276a565b612166565b6000546001600160a01b031633146102c95760405162461bcd60e51b81526004016102c090612d81565b60405180910390fd5b60008181526004602052604081206102e0916121c8565b50565b6000546001600160a01b0316331461030d5760405162461bcd60e51b81526004016102c090612d81565b6103156121e9565b6040808201839052858252606082018590526080820184905260008781526004602090815291812080546001810182559082529082902083518051859460059094029092019261036a92849290910190612218565b5060208281015180516103839260018501920190612218565b5060408201516002820155606082015180516103a9916003840191602090910190612218565b50608082015180516103c5916004840191602090910190612218565b5050506000868152600460205260409020546103e390600190612f29565b60405187907faf68d5a9ee2703c2a87bcdde7cf74ba8104700f3783a93f0d78e8f93c0c1f1c390600090a3505050505050565b606060026000838152602001908152602001600020805480602002602001604051908101604052809291908181526020016000905b8282101561075257838290600052602060002090601202016040518061024001604052908160008201805461047f90612f40565b80601f01602080910402602001604051908101604052809291908181526020018280546104ab90612f40565b80156104f85780601f106104cd576101008083540402835291602001916104f8565b820191906000526020600020905b8154815290600101906020018083116104db57829003601f168201915b505050505081526020016001820154815260200160028201548152602001600382015481526020016004820154815260200160058201548152602001600682015481526020016007820154815260200160088201805461055790612f40565b80601f016020809104026020016040519081016040528092919081815260200182805461058390612f40565b80156105d05780601f106105a5576101008083540402835291602001916105d0565b820191906000526020600020905b8154815290600101906020018083116105b357829003601f168201915b5050505050815260200160098201548152602001600a820180546105f390612f40565b80601f016020809104026020016040519081016040528092919081815260200182805461061f90612f40565b801561066c5780601f106106415761010080835404028352916020019161066c565b820191906000526020600020905b81548152906001019060200180831161064f57829003601f168201915b50505050508152602001600b8201548152602001600c8201548152602001600d8201548152602001600e8201548152602001600f820180546106ad90612f40565b80601f01602080910402602001604051908101604052809291908181526020018280546106d990612f40565b80156107265780601f106106fb57610100808354040283529160200191610726565b820191906000526020600020905b81548152906001019060200180831161070957829003601f168201915b50505050508152602001601082015481526020016011820154815250508152602001906001019061044b565b5050505090505b919050565b6000546001600160a01b031633146107885760405162461bcd60e51b81526004016102c090612d81565b80600183815481106107aa57634e487b7160e01b600052603260045260246000fd5b906000526020600020906009020160008201518160000190805190602001906107d4929190612218565b5060208281015180516107ed9260018501920190612218565b5060408201518051610809916002840191602090910190612218565b50606082015160038201556080820151600482015560a0820151600582015560c0820151600682015560e0820151805161084d916007840191602090910190612218565b5061010091909101516008909101805460ff191691151591909117905560405182907f1d9fa56a87ca45734eb083fa91790c0e4ca990f9e3587510a93bd2a6405da10090600090a25050565b606060036000838152602001908152602001600020805480602002602001604051908101604052809291908181526020016000905b8282101561075257838290600052602060002090600802016040518061010001604052908160008201805461090290612f40565b80601f016020809104026020016040519081016040528092919081815260200182805461092e90612f40565b801561097b5780601f106109505761010080835404028352916020019161097b565b820191906000526020600020905b81548152906001019060200180831161095e57829003601f168201915b505050505081526020016001820154815260200160028201548152602001600382015481526020016004820180546109b290612f40565b80601f01602080910402602001604051908101604052809291908181526020018280546109de90612f40565b8015610a2b5780601f10610a0057610100808354040283529160200191610a2b565b820191906000526020600020905b815481529060010190602001808311610a0e57829003601f168201915b505050505081526020016005820154815260200160068201548152602001600782018054610a5890612f40565b80601f0160208091040260200160405190810160405280929190818152602001828054610a8490612f40565b8015610ad15780601f10610aa657610100808354040283529160200191610ad1565b820191906000526020600020905b815481529060010190602001808311610ab457829003601f168201915b505050505081525050815260200190600101906108ce565b6000546001600160a01b03163314610b135760405162461bcd60e51b81526004016102c090612d81565b6000868152600260205260409020805485919087908110610b4457634e487b7160e01b600052603260045260246000fd5b90600052602060002090601202016005018190555082600260008881526020019081526020016000208681548110610b8c57634e487b7160e01b600052603260045260246000fd5b90600052602060002090601202016007018190555081600260008881526020019081526020016000208681548110610bd457634e487b7160e01b600052603260045260246000fd5b90600052602060002090601202016008019080519060200190610bf8929190612218565b506000868152600260205260409020805486908110610c2757634e487b7160e01b600052603260045260246000fd5b906000526020600020906012020160010154841115610e2e576018603c80600260008a81526020019081526020016000208881548110610c7757634e487b7160e01b600052603260045260246000fd5b90600052602060002090601202016001015487610c949190612f29565b610c9e9190612eea565b610ca89190612eea565b610cb29190612eea565b6000878152600260205260409020805487908110610ce057634e487b7160e01b600052603260045260246000fd5b9060005260206000209060120201600b0181905550633b9aca00600260008881526020019081526020016000208681548110610d2c57634e487b7160e01b600052603260045260246000fd5b90600052602060002090601202016006015461016d60018981548110610d6257634e487b7160e01b600052603260045260246000fd5b906000526020600020906009020160060154620186a0610d829190612f0a565b610d8c9190612eea565b6000898152600260205260409020805489908110610dba57634e487b7160e01b600052603260045260246000fd5b9060005260206000209060120201600b0154610dd69190612f0a565b610de09190612f0a565b610dea9190612eea565b6000878152600260205260409020805487908110610e1857634e487b7160e01b600052603260045260246000fd5b9060005260206000209060120201600c01819055505b6000868152600260205260409020805486908110610e5c57634e487b7160e01b600052603260045260246000fd5b906000526020600020906012020160100154831015610f5c576000868152600260205260409020805486908110610ea357634e487b7160e01b600052603260045260246000fd5b90600052602060002090601202016010015483610ec09190612f29565b6000878152600260205260409020805487908110610eee57634e487b7160e01b600052603260045260246000fd5b90600052602060002090601202016009018190555080600260008881526020019081526020016000208681548110610f3657634e487b7160e01b600052603260045260246000fd5b9060005260206000209060120201600a019080519060200190610f5a929190612218565b505b6000868152600260205260408120805487908110610f8a57634e487b7160e01b600052603260045260246000fd5b906000526020600020906012020160090154600260008981526020019081526020016000208781548110610fce57634e487b7160e01b600052603260045260246000fd5b9060005260206000209060120201600c0154600260008a8152602001908152602001600020888154811061101257634e487b7160e01b600052603260045260246000fd5b90600052602060002090601202016010015461102e9190612f29565b6110389190612f29565b111561115e57600086815260026020526040902080548690811061106c57634e487b7160e01b600052603260045260246000fd5b9060005260206000209060120201600901546002600088815260200190815260200160002086815481106110b057634e487b7160e01b600052603260045260246000fd5b9060005260206000209060120201600c01546002600089815260200190815260200160002087815481106110f457634e487b7160e01b600052603260045260246000fd5b9060005260206000209060120201601001546111109190612f29565b61111a9190612f29565b600087815260026020526040902080548790811061114857634e487b7160e01b600052603260045260246000fd5b9060005260206000209060120201601101819055505b604051859087907fdb8dfacbe40a34c0dff0b240c96463a24f726a750217da7fc2d367a967e815b090600090a3505050505050565b6000546001600160a01b031633146111bd5760405162461bcd60e51b81526004016102c090612d81565b60015481106111de5760405162461bcd60e51b81526004016102c090612d51565b60008181526002602052604081206102e09161229c565b6000546001600160a01b0316331461121f5760405162461bcd60e51b81526004016102c090612d81565b600085815260026020526040902080548491908690811061125057634e487b7160e01b600052603260045260246000fd5b9060005260206000209060120201600d01819055508160026000878152602001908152602001600020858154811061129857634e487b7160e01b600052603260045260246000fd5b9060005260206000209060120201600e0181905550806002600087815260200190815260200160002085815481106112e057634e487b7160e01b600052603260045260246000fd5b9060005260206000209060120201600f019080519060200190611304929190612218565b50604051849086907f7929c954daef6a710aa03e6698979bdefbfec7b56dbf98ee261ba830b60f444b90600090a35050505050565b6113416122bd565b6001828154811061136257634e487b7160e01b600052603260045260246000fd5b90600052602060002090600902016040518061012001604052908160008201805461138c90612f40565b80601f01602080910402602001604051908101604052809291908181526020018280546113b890612f40565b80156114055780601f106113da57610100808354040283529160200191611405565b820191906000526020600020905b8154815290600101906020018083116113e857829003601f168201915b5050505050815260200160018201805461141e90612f40565b80601f016020809104026020016040519081016040528092919081815260200182805461144a90612f40565b80156114975780601f1061146c57610100808354040283529160200191611497565b820191906000526020600020905b81548152906001019060200180831161147a57829003601f168201915b505050505081526020016002820180546114b090612f40565b80601f01602080910402602001604051908101604052809291908181526020018280546114dc90612f40565b80156115295780601f106114fe57610100808354040283529160200191611529565b820191906000526020600020905b81548152906001019060200180831161150c57829003601f168201915b505050505081526020016003820154815260200160048201548152602001600582015481526020016006820154815260200160078201805461156a90612f40565b80601f016020809104026020016040519081016040528092919081815260200182805461159690612f40565b80156115e35780601f106115b8576101008083540402835291602001916115e3565b820191906000526020600020905b8154815290600101906020018083116115c657829003601f168201915b50505091835250506008919091015460ff16151560209091015292915050565b6000546001600160a01b0316331461162d5760405162461bcd60e51b81526004016102c090612d81565b600085815260036020526040902080548491908690811061165e57634e487b7160e01b600052603260045260246000fd5b906000526020600020906008020160050181905550816003600087815260200190815260200160002085815481106116a657634e487b7160e01b600052603260045260246000fd5b906000526020600020906008020160060181905550806003600087815260200190815260200160002085815481106116ee57634e487b7160e01b600052603260045260246000fd5b90600052602060002090600802016007019080519060200190611712929190612218565b50604051849086907f16e8ade13d35dae069c2f8331054adb6e19dc017359fb7320f0525b14610abe390600090a35050505050565b6000546001600160a01b031681565b60015490565b6000546001600160a01b031633146117865760405162461bcd60e51b81526004016102c090612d81565b6001805480820182556000919091528151805183926009027fb10e2d527612073b26eecdfd717e6a320cf44b4afac2b0732d9fcbe2b7fa0cf601916117d091839160200190612218565b5060208281015180516117e99260018501920190612218565b5060408201518051611805916002840191602090910190612218565b50606082015160038201556080820151600482015560a0820151600582015560c0820151600682015560e08201518051611849916007840191602090910190612218565b5061010091909101516008909101805460ff1916911515919091179055600180546118749190612f29565b6040517fac210b01e42cafdce02d0cd5dc41f3fe6a7245262f52a1cdf2a2eea60dada94090600090a250565b6000546001600160a01b031633146118ca5760405162461bcd60e51b81526004016102c090612d81565b6118d261230b565b602080820185905260408083018590526060830184905286835260008881526002835290812080546001810182559082529082902083518051859460129094029092019261192592849290910190612218565b50602082810151600183015560408301516002830155606083015160038301556080830151600483015560a0830151600583015560c0830151600683015560e0830151600783015561010083015180516119859260088501920190612218565b50610120820151600982015561014082015180516119ad91600a840191602090910190612218565b50610160820151600b820155610180820151600c8201556101a0820151600d8201556101c0820151600e8201556101e082015180516119f691600f840191602090910190612218565b50610200820151601082015561022090910151601190910155600086815260026020526040902054611a2a90600190612f29565b60405187907f619d28e2ba9cff33c9f9ae92d173352dcd8538835181c81cc2499e2e05b4c5e490600090a3505050505050565b606060046000838152602001908152602001600020805480602002602001604051908101604052809291908181526020016000905b8282101561075257838290600052602060002090600502016040518060a0016040529081600082018054611ac590612f40565b80601f0160208091040260200160405190810160405280929190818152602001828054611af190612f40565b8015611b3e5780601f10611b1357610100808354040283529160200191611b3e565b820191906000526020600020905b815481529060010190602001808311611b2157829003601f168201915b50505050508152602001600182018054611b5790612f40565b80601f0160208091040260200160405190810160405280929190818152602001828054611b8390612f40565b8015611bd05780601f10611ba557610100808354040283529160200191611bd0565b820191906000526020600020905b815481529060010190602001808311611bb357829003601f168201915b5050505050815260200160028201548152602001600382018054611bf390612f40565b80601f0160208091040260200160405190810160405280929190818152602001828054611c1f90612f40565b8015611c6c5780601f10611c4157610100808354040283529160200191611c6c565b820191906000526020600020905b815481529060010190602001808311611c4f57829003601f168201915b50505050508152602001600482018054611c8590612f40565b80601f0160208091040260200160405190810160405280929190818152602001828054611cb190612f40565b8015611cfe5780601f10611cd357610100808354040283529160200191611cfe565b820191906000526020600020905b815481529060010190602001808311611ce157829003601f168201915b50505050508152505081526020019060010190611a92565b6000546001600160a01b03163314611d405760405162461bcd60e51b81526004016102c090612d81565b611d48612396565b84815260208101849052604081018390526080810182905260005b600087815260026020526040902054811015611f72576000878152600260205260409020805482908110611da757634e487b7160e01b600052603260045260246000fd5b9060005260206000209060120201600201548510158015611e0657506000878152600260205260409020805482908110611df157634e487b7160e01b600052603260045260246000fd5b90600052602060002090601202016003015485105b15611f60576000878152600260205260409020805482908110611e3957634e487b7160e01b600052603260045260246000fd5b600091825260208220600460129092020101805491611e5783612f7b565b90915550506040808301516000898152600260205291909120805483908110611e9057634e487b7160e01b600052603260045260246000fd5b90600052602060002090601202016006016000828254611eb09190612ed2565b9250508190555061271060018881548110611edb57634e487b7160e01b600052603260045260246000fd5b90600052602060002090600902016005015485611ef89190612f0a565b611f029190612eea565b611f0c9085612f29565b6000888152600260205260409020805483908110611f3a57634e487b7160e01b600052603260045260246000fd5b90600052602060002090601202016010016000828254611f5a9190612ed2565b90915550505b80611f6a81612f7b565b915050611d63565b50600060018781548110611f9657634e487b7160e01b600052603260045260246000fd5b9060005260206000209060090201600401546127108560018a81548110611fcd57634e487b7160e01b600052603260045260246000fd5b906000526020600020906009020160030154611fe99190612f0a565b611ff39190612eea565b611ffd9190612ed2565b905060006127106001898154811061202557634e487b7160e01b600052603260045260246000fd5b906000526020600020906009020160050154866120429190612f0a565b61204c9190612eea565b90508181106120695761205f8282612f29565b6060840152612071565b600060608401525b60008881526003602090815260408220805460018101825590835291819020855180518794600802909201926120ac92849290910190612218565b5060208281015160018301556040830151600283015560608301516003830155608083015180516120e39260048501920190612218565b5060a0820151600582015560c0820151600682015560e08201518051612113916007840191602090910190612218565b50505060008881526003602052604090205461213190600190612f29565b60405189907f3e8e23c97d0d7bdf58a8c0b86dd5f225d5bf51de564f91e7b100bfb6c335994090600090a35050505050505050565b6000546001600160a01b031633146121905760405162461bcd60e51b81526004016102c090612d81565b60015481106121b15760405162461bcd60e51b81526004016102c090612d51565b60008181526003602052604081206102e0916123db565b50805460008255600502906000526020600020908101906102e091906123fc565b6040518060a0016040528060608152602001606081526020016000815260200160608152602001606081525090565b82805461222490612f40565b90600052602060002090601f016020900481019282612246576000855561228c565b82601f1061225f57805160ff191683800117855561228c565b8280016001018555821561228c579182015b8281111561228c578251825591602001919060010190612271565b5061229892915061244d565b5090565b50805460008255601202906000526020600020908101906102e09190612462565b60405180610120016040528060608152602001606081526020016060815260200160008152602001600081526020016000815260200160008152602001606081526020016000151581525090565b6040518061024001604052806060815260200160008152602001600081526020016000815260200160008152602001600081526020016000815260200160008152602001606081526020016000815260200160608152602001600081526020016000815260200160008152602001600081526020016060815260200160008152602001600081525090565b60405180610100016040528060608152602001600081526020016000815260200160008152602001606081526020016000815260200160008152602001606081525090565b50805460008255600802906000526020600020908101906102e0919061251d565b808211156122985760006124108282612582565b61241e600183016000612582565b60028201600090556003820160006124369190612582565b612444600483016000612582565b506005016123fc565b5b80821115612298576000815560010161244e565b808211156122985760006124768282612582565b60018201600090556002820160009055600382016000905560048201600090556005820160009055600682016000905560078201600090556008820160006124be9190612582565b6009820160009055600a820160006124d69190612582565b600b820160009055600c820160009055600d820160009055600e820160009055600f820160006125069190612582565b506000601082018190556011820155601201612462565b808211156122985760006125318282612582565b6001820160009055600282016000905560038201600090556004820160006125599190612582565b600582016000905560068201600090556007820160006125799190612582565b5060080161251d565b50805461258e90612f40565b6000825580601f106125a057506102e0565b601f0160209004906000526020600020908101906102e0919061244d565b8035801515811461075957600080fd5b600082601f8301126125de578081fd5b813567ffffffffffffffff8111156125f8576125f8612fac565b61260b601f8201601f1916602001612ea8565b81815284602083860101111561261f578283fd5b816020850160208301379081016020019190915292915050565b600061012080838503121561264c578182fd5b61265581612ea8565b915050813567ffffffffffffffff8082111561267057600080fd5b61267c858386016125ce565b8352602084013591508082111561269257600080fd5b61269e858386016125ce565b602084015260408401359150808211156126b757600080fd5b6126c3858386016125ce565b6040840152606084013560608401526080840135608084015260a084013560a084015260c084013560c084015260e084013591508082111561270457600080fd5b50612711848285016125ce565b60e0830152506101006127258184016125be565b9082015292915050565b600060208284031215612740578081fd5b813567ffffffffffffffff811115612756578182fd5b61276284828501612639565b949350505050565b60006020828403121561277b578081fd5b5035919050565b600080600080600060a08688031215612799578081fd5b85359450602086013567ffffffffffffffff808211156127b7578283fd5b6127c389838a016125ce565b955060408801359150808211156127d8578283fd5b6127e489838a016125ce565b945060608801359150808211156127f9578283fd5b50612806888289016125ce565b95989497509295608001359392505050565b600080600080600060a0868803121561282f578081fd5b85359450602086013567ffffffffffffffff8082111561284d578283fd5b61285989838a016125ce565b95506040880135945060608801359350608088013591508082111561287c578283fd5b50612889888289016125ce565b9150509295509295909350565b600080600080600060a086880312156128ad578081fd5b85359450602086013567ffffffffffffffff8111156128ca578182fd5b6128d6888289016125ce565b959895975050505060408401359360608101359360809091013592509050565b60008060408385031215612908578182fd5b82359150602083013567ffffffffffffffff811115612925578182fd5b61293185828601612639565b9150509250929050565b600080600080600060a08688031215612952578081fd5b85359450602086013593506040860135925060608601359150608086013567ffffffffffffffff811115612984578182fd5b612889888289016125ce565b60008060008060008060c087890312156129a8578081fd5b86359550602087013594506040870135935060608701359250608087013567ffffffffffffffff808211156129db578283fd5b6129e78a838b016125ce565b935060a08901359150808211156129fc578283fd5b50612a0989828a016125ce565b9150509295509295509295565b15159052565b60008151808452815b81811015612a4157602081850181015186830182015201612a25565b81811115612a525782602083870101525b50601f01601f19169290920160200192915050565b6001600160a01b0391909116815260200190565b60208082528251828201819052600091906040908185019080840286018301878501865b83811015612b3157603f19898403018552815160a08151818652612ac582870182612a1c565b915050888201518582038a870152612add8282612a1c565b915050878201518886015260608083015186830382880152612aff8382612a1c565b9250505060808083015192508582038187015250612b1d8183612a1c565b968901969450505090860190600101612a9f565b509098975050505050505050565b60208082528251828201819052600091906040908185019080840286018301878501865b83811015612b3157603f1989840301855281516102408151818652612b8a82870182612a1c565b838b0151878c0152898401518a880152606080850151908801526080808501519088015260a0808501519088015260c0808501519088015260e0808501519088015261010080850151888303828a01529193509150612be98382612a1c565b925050506101208083015181870152506101408083015186830382880152612c118382612a1c565b610160858101519089015261018080860151908901526101a080860151908901526101c080860151908901526101e080860151898303828b015291945092509050612c5c8382612a1c565b61020085810151908901526102209485015194909701939093525050509386019390860190600101612b63565b60208082528251828201819052600091906040908185019080840286018301878501865b83811015612b3157603f1989840301855281516101008151818652612cd482870182612a1c565b91505088820151898601528782015188860152606080830151818701525060808083015186830382880152612d098382612a1c565b9250505060a080830151818701525060c080830151818701525060e08083015192508582038187015250612d3d8183612a1c565b968901969450505090860190600101612cad565b602080825260169082015275092dcecc2d8d2c840c6dedce8e4c2c6e840d2dcc8caf60531b604082015260600190565b60208082526039908201527f4163636573732064656e6965642c206f6e6c7920636f6e7472616374206f776e60408201527f65722063616e2063616c6c20746869732066756e6374696f6e00000000000000606082015260800190565b6000602082528251610120806020850152612dfd610140850183612a1c565b91506020850151601f1980868503016040870152612e1b8483612a1c565b93506040870151915080868503016060870152612e388483612a1c565b935060608701516080870152608087015160a087015260a087015160c087015260c087015160e087015260e08701519150610100818786030181880152612e7f8584612a1c565b94508088015192505050612e9582860182612a16565b5090949350505050565b90815260200190565b60405181810167ffffffffffffffff81118282101715612eca57612eca612fac565b604052919050565b60008219821115612ee557612ee5612f96565b500190565b600082612f0557634e487b7160e01b81526012600452602481fd5b500490565b6000816000190483118215151615612f2457612f24612f96565b500290565b600082821015612f3b57612f3b612f96565b500390565b600281046001821680612f5457607f821691505b60208210811415612f7557634e487b7160e01b600052602260045260246000fd5b50919050565b6000600019821415612f8f57612f8f612f96565b5060010190565b634e487b7160e01b600052601160045260246000fd5b634e487b7160e01b600052604160045260246000fdfea26469706673582212207f6db81388cd965b3cfb507c00403e52db396442fa2267388d802642fc283fb764736f6c63430008000033",
  "immutableReferences": {},
  "source": "// SPDX-License-Identifier: MIT\npragma solidity ^0.8.0;\n\ncontract Delivery {\n\n    address public owner;\n    \n    Contract[] contracts;                                   // [contract_idx]\n    mapping (uint => Settlement[]) private settlements;     // contract_idx => settlement[]\n    mapping (uint => Transaction[]) private transactions;   // contract_idx => transaction[]\n    mapping (uint => Artifact[]) private artifacts;         // contract_idx => artifact_list[]\n\n    // every field ending in _dt is a unix timestamp\n    // every field ending in _amt is an integer representing a float with 2 decimals\n    // every field ending in _pct is an integer represending a float value with 4 decimals \n    // every field ending in _confirm is a string returned from the fiat payment provider\n\n    struct Contract {\n        string extended_data;           // json extended data\n        string contract_name;           // non-unique, description for display purposes\n        string funding_instr;           // buyer funding instructions\n        uint service_fee_pct;           // service fee can include a pct + flat rate amt\n        uint service_fee_amt;           \n        uint advance_pct;               // amount of money that will be advanced to seller for every transaction\n        uint late_fee_pct;              // an APR, daily rate calculated as late_fee_pct / 365\n        string transact_logic;          // jsonlogic formula for calculating transaction amount\n        bool is_active;                 // instead of deleting, clear this flag to False\n    }    \n\n    struct Settlement {\n        string extended_data;           // json extended data\n        uint settle_due_dt;             // date the payment is due \n        uint transact_min_dt;           // min date the transaction is made \n        uint transact_max_dt;           // max date the transaction is made \n        uint transact_count; \n        uint settle_pay_dt;\n        uint settle_exp_amt;            // expected amount of settlement\n        uint settle_pay_amt;            // actual amount paid from the buyer\n        string settle_confirm;\n        uint dispute_amt;               // if expected  < actual, assume there was a dispute\n        string dispute_reason;\n        uint days_late; \n        uint late_fee_amt;              // amount of the late fee, will be taken out of the residual\n        uint residual_pay_dt;\n        uint residual_pay_amt;          // will equal residual_calc_amt after payment intitiated\n        string residual_confirm;\n        uint residual_exp_amt;          // expected amount of the residual\n        uint residual_calc_amt;         // what the actual residual will be (exp - late_fee - dispute)\n    }\n\n    struct Transaction {\n        string extended_data;           // json extended data\n        uint transact_dt;               \n        uint transact_amt;              // calculated value of a transaction of transaction\n        uint advance_amt;               // advance_amt * advance_pct - service_fee_amt\n        string transact_data;           // data regarding transaction for jsonlogic    \n        uint advance_pay_dt;            // paymet of advance\n        uint advance_pay_amt;           // will equal advance amt after payment initiated\n        string advance_confirm;\n    }\n\n    struct Artifact {\n        string artifact_id;             // external identifier\n        string extended_data;           // json extended data\n        uint added_dt;                  // date artifact was added\n        string doc_title;               // name of documents\n        string doc_type;                // document type\n    }\n\n    event ContractAdded(uint indexed contract_idx);\n    event ContractUpdated(uint indexed contract_idx);\n    event TransactionAdded(uint indexed contract_idx, uint indexed transact_idx);\n    event ArtifactAdded(uint indexed contract_idx, uint indexed artifact_idx);\n    event SettlementAdded(uint indexed contract_idx, uint indexed settle_idx);\n    event AdvancePaid(uint indexed contract_idx, uint indexed transact_idx);\n    event SettlementPosted(uint indexed contract_idx, uint indexed settle_idx);\n    event ResidualPaid(uint indexed contract_idx, uint indexed settle_idx);\n\n    constructor() {\n        owner = msg.sender;\n    }\n\n    modifier onlyOwner() {\n        require(msg.sender == owner, \"Access denied, only contract owner can call this function\");\n        _;\n    }\n\n    function getContractCount() public view returns (uint) {\n        return contracts.length;\n    }\n\n    function getContract(uint contract_idx) public view returns (Contract memory) {\n        return contracts[contract_idx];\n    }\n\n    function addContract (Contract memory contract_) public onlyOwner {\n        contracts.push(contract_);\n        emit ContractAdded(contracts.length - 1);\n    }\n\n    function updateContract (uint contract_idx, Contract memory contract_) public onlyOwner {\n        contracts[contract_idx] = contract_;\n        emit ContractUpdated(contract_idx);\n    }\n\n    function getArtifacts (uint contract_idx) public view returns (Artifact[] memory) {\n        return artifacts[contract_idx];\n    }\n\n    function addArtifact (uint contract_idx, string memory artifact_id, string memory doc_title, string memory doc_type, uint added_dt) public onlyOwner {\n        Artifact memory artifact;\n        artifact.added_dt = added_dt;\n        artifact.artifact_id = artifact_id;\n        artifact.doc_title = doc_title;\n        artifact.doc_type = doc_type; \n        artifacts[contract_idx].push(artifact);\n        emit ArtifactAdded(contract_idx, artifacts[contract_idx].length - 1);\n    }\n\n    function deleteArtifacts(uint contract_idx) public onlyOwner {\n        delete artifacts[contract_idx];\n    }\n\n    function getSettlements(uint contract_idx) public view returns (Settlement[] memory) {\n        return settlements[contract_idx];\n    }\n\n    function addSettlement(uint contract_idx, string memory extended_data, uint settle_due_dt, uint transact_min_dt, uint transact_max_dt) public onlyOwner {\n        Settlement memory settlement;\n        settlement.settle_due_dt = settle_due_dt;\n        settlement.transact_min_dt = transact_min_dt;\n        settlement.transact_max_dt = transact_max_dt;\n        settlement.extended_data = extended_data;\n        settlements[contract_idx].push(settlement);\n        emit SettlementAdded(contract_idx, settlements[contract_idx].length - 1);\n    }\n\n    function deleteSettlements(uint contract_idx) public onlyOwner {\n        require (contract_idx < contracts.length, \"Invalid contract index\");\n        delete settlements[contract_idx];\n    }\n\n    function getTransactions(uint contract_idx) public view returns (Transaction[] memory) {\n        return transactions[contract_idx];\n    }\n\n    function addTransaction(uint contract_idx, string memory extended_data, uint transact_dt, uint transact_amt, string memory transact_data) public onlyOwner {\n\n        Transaction memory transact;\n        transact.extended_data = extended_data;\n        transact.transact_dt = transact_dt;\n        transact.transact_amt = transact_amt;\n        transact.transact_data = transact_data;\n\n        for (uint i = 0; i < settlements[contract_idx].length; i++) {\n            if (transact_dt >= settlements[contract_idx][i].transact_min_dt && transact_dt < settlements[contract_idx][i].transact_max_dt) {\n                settlements[contract_idx][i].transact_count++;\n                settlements[contract_idx][i].settle_exp_amt += transact.transact_amt;\n                settlements[contract_idx][i].residual_exp_amt += transact_amt - (transact_amt * contracts[contract_idx].advance_pct / 10000);\n            }\n        }\n\n        uint service_fee = (contracts[contract_idx].service_fee_pct * transact_amt / 10000) + contracts[contract_idx].service_fee_amt;\n        uint advance_amt_calculated = (transact_amt * contracts[contract_idx].advance_pct / 10000);\n    \n        // case where the service fee > advance amt\n        if (advance_amt_calculated >= service_fee) {\n            transact.advance_amt = advance_amt_calculated - service_fee;\n        }    else {\n                transact.advance_amt = 0;\n        }\n    \n        transactions[contract_idx].push(transact);\n        emit TransactionAdded(contract_idx, transactions[contract_idx].length - 1);\n    }\n\n    function deleteTransactions(uint contract_idx) public onlyOwner {\n        require (contract_idx < contracts.length, \"Invalid contract index\");\n        delete transactions[contract_idx];\n    }\n\n    function payAdvance(uint contract_idx, uint transact_idx, uint advance_pay_dt, uint advance_pay_amt, string memory advance_confirm) public onlyOwner {\n        transactions[contract_idx][transact_idx].advance_pay_dt = advance_pay_dt;\n        transactions[contract_idx][transact_idx].advance_pay_amt = advance_pay_amt;\n        transactions[contract_idx][transact_idx].advance_confirm = advance_confirm;\n        emit AdvancePaid(contract_idx, transact_idx);\n    }\n\n    function postSettlement(uint contract_idx, uint settle_idx, uint settle_pay_dt, uint settle_pay_amt, string memory settle_confirm, string memory dispute_reason) public onlyOwner {\n        settlements[contract_idx][settle_idx].settle_pay_dt = settle_pay_dt;\n        settlements[contract_idx][settle_idx].settle_pay_amt = settle_pay_amt;\n        settlements[contract_idx][settle_idx].settle_confirm = settle_confirm;\n\n        if (settle_pay_dt > settlements[contract_idx][settle_idx].settle_due_dt) {\n            settlements[contract_idx][settle_idx].days_late = (settle_pay_dt - settlements[contract_idx][settle_idx].settle_due_dt) / 60 / 60 / 24;\n            settlements[contract_idx][settle_idx].late_fee_amt = (settlements[contract_idx][settle_idx].days_late * \n                ((contracts[contract_idx].late_fee_pct * 100000) / 365) * settlements[contract_idx][settle_idx].settle_exp_amt) / 1000000000;\n        }\n\n        if (settle_pay_amt < settlements[contract_idx][settle_idx].residual_exp_amt) {\n            settlements[contract_idx][settle_idx].dispute_amt = settle_pay_amt - settlements[contract_idx][settle_idx].residual_exp_amt;\n            settlements[contract_idx][settle_idx].dispute_reason = dispute_reason;\n        } \n        \n        if ((settlements[contract_idx][settle_idx].residual_exp_amt - settlements[contract_idx][settle_idx].late_fee_amt - settlements[contract_idx][settle_idx].dispute_amt) > 0) {\n            settlements[contract_idx][settle_idx].residual_calc_amt = settlements[contract_idx][settle_idx].residual_exp_amt - settlements[contract_idx][settle_idx].late_fee_amt -\n                settlements[contract_idx][settle_idx].dispute_amt;\n        } \n        emit SettlementPosted(contract_idx, settle_idx);\n    }\n\n    function payResidual(uint contract_idx, uint settle_idx, uint residual_pay_dt, uint residual_pay_amt, string memory residual_confirm) public onlyOwner {\n        settlements[contract_idx][settle_idx].residual_pay_dt = residual_pay_dt;\n        settlements[contract_idx][settle_idx].residual_pay_amt = residual_pay_amt;\n        settlements[contract_idx][settle_idx].residual_confirm = residual_confirm;\n        emit ResidualPaid(contract_idx, settle_idx);\n    }\n}",
  "sourcePath": "/Users/davidnichamoff/Projects/FIZIT_DEV/truffle/contracts/Delivery.sol",
  "compiler": {
    "name": "solc",
    "version": "0.8.0+commit.c7dfd78e.Emscripten.clang"
  },
  "schemaVersion": "3.4.16",
  "updatedAt": "2024-06-04T16:34:37.593Z",
  "networkType": "ethereum",
  "devdoc": {
    "kind": "dev",
    "methods": {},
    "version": 1
  },
  "userdoc": {
    "kind": "user",
    "methods": {},
    "version": 1
  }
}