{
  "contractName": "Delivery",
  "abi": [
    {
      "inputs": [],
      "stateMutability": "nonpayable",
      "type": "constructor"
    },
    {
      "anonymous": false,
      "inputs": [
        {
          "indexed": true,
          "internalType": "uint256",
          "name": "contract_idx",
          "type": "uint256"
        },
        {
          "indexed": false,
          "internalType": "string",
          "name": "eventType",
          "type": "string"
        },
        {
          "indexed": false,
          "internalType": "string",
          "name": "details",
          "type": "string"
        }
      ],
      "name": "ContractEvent",
      "type": "event"
    },
    {
      "inputs": [],
      "name": "owner",
      "outputs": [
        {
          "internalType": "address",
          "name": "",
          "type": "address"
        }
      ],
      "stateMutability": "view",
      "type": "function",
      "constant": true
    },
    {
      "inputs": [],
      "name": "getContractCount",
      "outputs": [
        {
          "internalType": "uint256",
          "name": "",
          "type": "uint256"
        }
      ],
      "stateMutability": "view",
      "type": "function",
      "constant": true
    },
    {
      "inputs": [
        {
          "internalType": "uint256",
          "name": "contract_idx",
          "type": "uint256"
        }
      ],
      "name": "getContract",
      "outputs": [
        {
          "components": [
            {
              "internalType": "string",
              "name": "extended_data",
              "type": "string"
            },
            {
              "internalType": "string",
              "name": "contract_name",
              "type": "string"
            },
            {
              "internalType": "string",
              "name": "contract_type",
              "type": "string"
            },
            {
              "internalType": "string",
              "name": "funding_instr",
              "type": "string"
            },
            {
              "internalType": "uint256",
              "name": "service_fee_pct",
              "type": "uint256"
            },
            {
              "internalType": "uint256",
              "name": "service_fee_max",
              "type": "uint256"
            },
            {
              "internalType": "int256",
              "name": "service_fee_amt",
              "type": "int256"
            },
            {
              "internalType": "uint256",
              "name": "advance_pct",
              "type": "uint256"
            },
            {
              "internalType": "uint256",
              "name": "late_fee_pct",
              "type": "uint256"
            },
            {
              "internalType": "string",
              "name": "transact_logic",
              "type": "string"
            },
            {
              "internalType": "int256",
              "name": "min_threshold",
              "type": "int256"
            },
            {
              "internalType": "int256",
              "name": "max_threshold",
              "type": "int256"
            },
            {
              "internalType": "string",
              "name": "notes",
              "type": "string"
            },
            {
              "internalType": "bool",
              "name": "is_active",
              "type": "bool"
            },
            {
              "internalType": "bool",
              "name": "is_quote",
              "type": "bool"
            }
          ],
          "internalType": "struct Delivery.Contract",
          "name": "",
          "type": "tuple"
        }
      ],
      "stateMutability": "view",
      "type": "function",
      "constant": true
    },
    {
      "inputs": [
        {
          "components": [
            {
              "internalType": "string",
              "name": "extended_data",
              "type": "string"
            },
            {
              "internalType": "string",
              "name": "contract_name",
              "type": "string"
            },
            {
              "internalType": "string",
              "name": "contract_type",
              "type": "string"
            },
            {
              "internalType": "string",
              "name": "funding_instr",
              "type": "string"
            },
            {
              "internalType": "uint256",
              "name": "service_fee_pct",
              "type": "uint256"
            },
            {
              "internalType": "uint256",
              "name": "service_fee_max",
              "type": "uint256"
            },
            {
              "internalType": "int256",
              "name": "service_fee_amt",
              "type": "int256"
            },
            {
              "internalType": "uint256",
              "name": "advance_pct",
              "type": "uint256"
            },
            {
              "internalType": "uint256",
              "name": "late_fee_pct",
              "type": "uint256"
            },
            {
              "internalType": "string",
              "name": "transact_logic",
              "type": "string"
            },
            {
              "internalType": "int256",
              "name": "min_threshold",
              "type": "int256"
            },
            {
              "internalType": "int256",
              "name": "max_threshold",
              "type": "int256"
            },
            {
              "internalType": "string",
              "name": "notes",
              "type": "string"
            },
            {
              "internalType": "bool",
              "name": "is_active",
              "type": "bool"
            },
            {
              "internalType": "bool",
              "name": "is_quote",
              "type": "bool"
            }
          ],
          "internalType": "struct Delivery.Contract",
          "name": "contract_",
          "type": "tuple"
        }
      ],
      "name": "addContract",
      "outputs": [],
      "stateMutability": "nonpayable",
      "type": "function"
    },
    {
      "inputs": [
        {
          "internalType": "uint256",
          "name": "contract_idx",
          "type": "uint256"
        },
        {
          "components": [
            {
              "internalType": "string",
              "name": "extended_data",
              "type": "string"
            },
            {
              "internalType": "string",
              "name": "contract_name",
              "type": "string"
            },
            {
              "internalType": "string",
              "name": "contract_type",
              "type": "string"
            },
            {
              "internalType": "string",
              "name": "funding_instr",
              "type": "string"
            },
            {
              "internalType": "uint256",
              "name": "service_fee_pct",
              "type": "uint256"
            },
            {
              "internalType": "uint256",
              "name": "service_fee_max",
              "type": "uint256"
            },
            {
              "internalType": "int256",
              "name": "service_fee_amt",
              "type": "int256"
            },
            {
              "internalType": "uint256",
              "name": "advance_pct",
              "type": "uint256"
            },
            {
              "internalType": "uint256",
              "name": "late_fee_pct",
              "type": "uint256"
            },
            {
              "internalType": "string",
              "name": "transact_logic",
              "type": "string"
            },
            {
              "internalType": "int256",
              "name": "min_threshold",
              "type": "int256"
            },
            {
              "internalType": "int256",
              "name": "max_threshold",
              "type": "int256"
            },
            {
              "internalType": "string",
              "name": "notes",
              "type": "string"
            },
            {
              "internalType": "bool",
              "name": "is_active",
              "type": "bool"
            },
            {
              "internalType": "bool",
              "name": "is_quote",
              "type": "bool"
            }
          ],
          "internalType": "struct Delivery.Contract",
          "name": "contract_",
          "type": "tuple"
        }
      ],
      "name": "updateContract",
      "outputs": [],
      "stateMutability": "nonpayable",
      "type": "function"
    },
    {
      "inputs": [
        {
          "internalType": "uint256",
          "name": "contract_idx",
          "type": "uint256"
        }
      ],
      "name": "deleteContract",
      "outputs": [],
      "stateMutability": "nonpayable",
      "type": "function"
    },
    {
      "inputs": [
        {
          "internalType": "uint256",
          "name": "contract_idx",
          "type": "uint256"
        }
      ],
      "name": "getParties",
      "outputs": [
        {
          "components": [
            {
              "internalType": "string",
              "name": "party_code",
              "type": "string"
            },
            {
              "internalType": "address",
              "name": "party_address",
              "type": "address"
            },
            {
              "internalType": "string",
              "name": "party_type",
              "type": "string"
            }
          ],
          "internalType": "struct Delivery.Party[]",
          "name": "",
          "type": "tuple[]"
        }
      ],
      "stateMutability": "view",
      "type": "function",
      "constant": true
    },
    {
      "inputs": [
        {
          "internalType": "uint256",
          "name": "contract_idx",
          "type": "uint256"
        },
        {
          "components": [
            {
              "internalType": "string",
              "name": "party_code",
              "type": "string"
            },
            {
              "internalType": "address",
              "name": "party_address",
              "type": "address"
            },
            {
              "internalType": "string",
              "name": "party_type",
              "type": "string"
            }
          ],
          "internalType": "struct Delivery.Party",
          "name": "party",
          "type": "tuple"
        }
      ],
      "name": "addParty",
      "outputs": [],
      "stateMutability": "nonpayable",
      "type": "function"
    },
    {
      "inputs": [
        {
          "internalType": "uint256",
          "name": "contract_idx",
          "type": "uint256"
        },
        {
          "internalType": "uint256",
          "name": "party_idx",
          "type": "uint256"
        }
      ],
      "name": "deleteParty",
      "outputs": [],
      "stateMutability": "nonpayable",
      "type": "function"
    },
    {
      "inputs": [
        {
          "internalType": "uint256",
          "name": "contract_idx",
          "type": "uint256"
        }
      ],
      "name": "deleteParties",
      "outputs": [],
      "stateMutability": "nonpayable",
      "type": "function"
    },
    {
      "inputs": [
        {
          "internalType": "uint256",
          "name": "contract_idx",
          "type": "uint256"
        }
      ],
      "name": "getArtifacts",
      "outputs": [
        {
          "components": [
            {
              "internalType": "string",
              "name": "doc_title",
              "type": "string"
            },
            {
              "internalType": "string",
              "name": "doc_type",
              "type": "string"
            },
            {
              "internalType": "uint256",
              "name": "added_dt",
              "type": "uint256"
            },
            {
              "internalType": "string",
              "name": "s3_bucket",
              "type": "string"
            },
            {
              "internalType": "string",
              "name": "s3_object_key",
              "type": "string"
            },
            {
              "internalType": "string",
              "name": "s3_version_id",
              "type": "string"
            }
          ],
          "internalType": "struct Delivery.Artifact[]",
          "name": "",
          "type": "tuple[]"
        }
      ],
      "stateMutability": "view",
      "type": "function",
      "constant": true
    },
    {
      "inputs": [
        {
          "internalType": "uint256",
          "name": "contract_idx",
          "type": "uint256"
        },
        {
          "internalType": "string",
          "name": "doc_title",
          "type": "string"
        },
        {
          "internalType": "string",
          "name": "doc_type",
          "type": "string"
        },
        {
          "internalType": "uint256",
          "name": "added_dt",
          "type": "uint256"
        },
        {
          "internalType": "string",
          "name": "s3_bucket",
          "type": "string"
        },
        {
          "internalType": "string",
          "name": "s3_object_key",
          "type": "string"
        },
        {
          "internalType": "string",
          "name": "s3_version_id",
          "type": "string"
        }
      ],
      "name": "addArtifact",
      "outputs": [],
      "stateMutability": "nonpayable",
      "type": "function"
    },
    {
      "inputs": [
        {
          "internalType": "uint256",
          "name": "contract_idx",
          "type": "uint256"
        },
        {
          "internalType": "uint256",
          "name": "artifact_idx",
          "type": "uint256"
        }
      ],
      "name": "deleteArtifact",
      "outputs": [],
      "stateMutability": "nonpayable",
      "type": "function"
    },
    {
      "inputs": [
        {
          "internalType": "uint256",
          "name": "contract_idx",
          "type": "uint256"
        }
      ],
      "name": "deleteArtifacts",
      "outputs": [],
      "stateMutability": "nonpayable",
      "type": "function"
    },
    {
      "inputs": [
        {
          "internalType": "uint256",
          "name": "contract_idx",
          "type": "uint256"
        }
      ],
      "name": "getSettlements",
      "outputs": [
        {
          "components": [
            {
              "internalType": "string",
              "name": "extended_data",
              "type": "string"
            },
            {
              "internalType": "uint256",
              "name": "settle_due_dt",
              "type": "uint256"
            },
            {
              "internalType": "uint256",
              "name": "transact_min_dt",
              "type": "uint256"
            },
            {
              "internalType": "uint256",
              "name": "transact_max_dt",
              "type": "uint256"
            },
            {
              "internalType": "uint256",
              "name": "transact_count",
              "type": "uint256"
            },
            {
              "internalType": "int256",
              "name": "advance_amt",
              "type": "int256"
            },
            {
              "internalType": "int256",
              "name": "advance_amt_gross",
              "type": "int256"
            },
            {
              "internalType": "uint256",
              "name": "settle_pay_dt",
              "type": "uint256"
            },
            {
              "internalType": "int256",
              "name": "settle_exp_amt",
              "type": "int256"
            },
            {
              "internalType": "int256",
              "name": "settle_pay_amt",
              "type": "int256"
            },
            {
              "internalType": "string",
              "name": "settle_confirm",
              "type": "string"
            },
            {
              "internalType": "int256",
              "name": "dispute_amt",
              "type": "int256"
            },
            {
              "internalType": "string",
              "name": "dispute_reason",
              "type": "string"
            },
            {
              "internalType": "uint256",
              "name": "days_late",
              "type": "uint256"
            },
            {
              "internalType": "int256",
              "name": "late_fee_amt",
              "type": "int256"
            },
            {
              "internalType": "uint256",
              "name": "residual_pay_dt",
              "type": "uint256"
            },
            {
              "internalType": "int256",
              "name": "residual_pay_amt",
              "type": "int256"
            },
            {
              "internalType": "string",
              "name": "residual_confirm",
              "type": "string"
            },
            {
              "internalType": "int256",
              "name": "residual_exp_amt",
              "type": "int256"
            },
            {
              "internalType": "int256",
              "name": "residual_calc_amt",
              "type": "int256"
            }
          ],
          "internalType": "struct Delivery.Settlement[]",
          "name": "",
          "type": "tuple[]"
        }
      ],
      "stateMutability": "view",
      "type": "function",
      "constant": true
    },
    {
      "inputs": [
        {
          "internalType": "uint256",
          "name": "contract_idx",
          "type": "uint256"
        },
        {
          "internalType": "string",
          "name": "extended_data",
          "type": "string"
        },
        {
          "internalType": "uint256",
          "name": "settle_due_dt",
          "type": "uint256"
        },
        {
          "internalType": "uint256",
          "name": "transact_min_dt",
          "type": "uint256"
        },
        {
          "internalType": "uint256",
          "name": "transact_max_dt",
          "type": "uint256"
        }
      ],
      "name": "addSettlement",
      "outputs": [],
      "stateMutability": "nonpayable",
      "type": "function"
    },
    {
      "inputs": [
        {
          "internalType": "uint256",
          "name": "contract_idx",
          "type": "uint256"
        }
      ],
      "name": "deleteSettlements",
      "outputs": [],
      "stateMutability": "nonpayable",
      "type": "function"
    },
    {
      "inputs": [
        {
          "internalType": "uint256",
          "name": "contract_idx",
          "type": "uint256"
        }
      ],
      "name": "getTransactions",
      "outputs": [
        {
          "components": [
            {
              "internalType": "string",
              "name": "extended_data",
              "type": "string"
            },
            {
              "internalType": "uint256",
              "name": "transact_dt",
              "type": "uint256"
            },
            {
              "internalType": "int256",
              "name": "transact_amt",
              "type": "int256"
            },
            {
              "internalType": "int256",
              "name": "service_fee_amt",
              "type": "int256"
            },
            {
              "internalType": "int256",
              "name": "advance_amt",
              "type": "int256"
            },
            {
              "internalType": "string",
              "name": "transact_data",
              "type": "string"
            },
            {
              "internalType": "uint256",
              "name": "advance_pay_dt",
              "type": "uint256"
            },
            {
              "internalType": "uint256",
              "name": "advance_pay_amt",
              "type": "uint256"
            },
            {
              "internalType": "string",
              "name": "advance_confirm",
              "type": "string"
            }
          ],
          "internalType": "struct Delivery.Transaction[]",
          "name": "",
          "type": "tuple[]"
        }
      ],
      "stateMutability": "view",
      "type": "function",
      "constant": true
    },
    {
      "inputs": [
        {
          "internalType": "uint256",
          "name": "contract_idx",
          "type": "uint256"
        }
      ],
      "name": "deleteTransactions",
      "outputs": [],
      "stateMutability": "nonpayable",
      "type": "function"
    },
    {
      "inputs": [
        {
          "internalType": "uint256",
          "name": "contract_idx",
          "type": "uint256"
        },
        {
          "internalType": "string",
          "name": "extended_data",
          "type": "string"
        },
        {
          "internalType": "uint256",
          "name": "transact_dt",
          "type": "uint256"
        },
        {
          "internalType": "int256",
          "name": "transact_amt",
          "type": "int256"
        },
        {
          "internalType": "string",
          "name": "transact_data",
          "type": "string"
        }
      ],
      "name": "addTransaction",
      "outputs": [],
      "stateMutability": "nonpayable",
      "type": "function"
    },
    {
      "inputs": [
        {
          "internalType": "uint256",
          "name": "contract_idx",
          "type": "uint256"
        },
        {
          "internalType": "uint256",
          "name": "transact_idx",
          "type": "uint256"
        },
        {
          "internalType": "uint256",
          "name": "advance_pay_dt",
          "type": "uint256"
        },
        {
          "internalType": "uint256",
          "name": "advance_pay_amt",
          "type": "uint256"
        },
        {
          "internalType": "string",
          "name": "advance_confirm",
          "type": "string"
        }
      ],
      "name": "payAdvance",
      "outputs": [],
      "stateMutability": "nonpayable",
      "type": "function"
    },
    {
      "inputs": [
        {
          "internalType": "uint256",
          "name": "contract_idx",
          "type": "uint256"
        },
        {
          "internalType": "uint256",
          "name": "settle_idx",
          "type": "uint256"
        },
        {
          "internalType": "uint256",
          "name": "settle_pay_dt",
          "type": "uint256"
        },
        {
          "internalType": "int256",
          "name": "settle_pay_amt",
          "type": "int256"
        },
        {
          "internalType": "string",
          "name": "settle_confirm",
          "type": "string"
        },
        {
          "internalType": "string",
          "name": "dispute_reason",
          "type": "string"
        }
      ],
      "name": "postSettlement",
      "outputs": [],
      "stateMutability": "nonpayable",
      "type": "function"
    },
    {
      "inputs": [
        {
          "internalType": "uint256",
          "name": "contract_idx",
          "type": "uint256"
        },
        {
          "internalType": "uint256",
          "name": "settle_idx",
          "type": "uint256"
        },
        {
          "internalType": "uint256",
          "name": "residual_pay_dt",
          "type": "uint256"
        },
        {
          "internalType": "int256",
          "name": "residual_pay_amt",
          "type": "int256"
        },
        {
          "internalType": "string",
          "name": "residual_confirm",
          "type": "string"
        }
      ],
      "name": "payResidual",
      "outputs": [],
      "stateMutability": "nonpayable",
      "type": "function"
    }
  ],
  "bytecode": "0x608060405234801561001057600080fd5b50600080546001600160a01b0319163317905561542b806100326000396000f3fe608060405234801561001057600080fd5b506004361061014d5760003560e01c806375483e46116100c3578063a50965dc1161007c578063a50965dc146102d8578063afb18810146102eb578063c6bbcc90146102fe578063d311341214610311578063f633db9314610331578063fcf45c0f146103445761014d565b806375483e461461026257806388398db9146102755780638aea2c5e146102885780638da5cb5b1461029b5780639399869d146102b0578063a2a78929146102c55761014d565b80635742177c116101155780635742177c146101d65780635b4e97e7146101f657806364da0a33146102095780636893d3361461021c5780636e449c2b1461022f5780636ebc8c86146102425761014d565b806311ef56de1461015257806336d56a601461016757806338ad4fa71461017a578063447fe2891461018d57806346f920fd146101b6575b600080fd5b6101656101603660046142e2565b610357565b005b6101656101753660046145c3565b6103e9565b6101656101883660046143d8565b61068e565b6101a061019b3660046142e2565b610a1e565b6040516101ad9190614842565b60405180910390f35b6101c96101c43660046142e2565b610be4565b6040516101ad91906148cb565b6101e96101e43660046142e2565b610f4c565b6040516101ad9190614a2b565b6101656102043660046142e2565b6111be565b6101656102173660046144f8565b61123c565b61016561022a3660046142e2565b611324565b61016561023d3660046145c3565b6113da565b6102556102503660046142e2565b61160d565b6040516101ad9190614fcb565b6101656102703660046145e4565b611a4a565b6101656102833660046145e4565b611ba6565b610165610296366004614638565b611cf3565b6102a3612414565b6040516101ad919061474f565b6102b8612423565b6040516101ad919061510d565b6101656102d3366004614455565b612429565b6101656102e63660046144b4565b6125f1565b6101656102f93660046142a8565b61305d565b61016561030c3660046142fa565b61320a565b61032461031f3660046142e2565b613368565b6040516101ad9190614763565b61016561033f3660046142e2565b6136cb565b6101656103523660046142e2565b613749565b6000546001600160a01b0316331461038a5760405162461bcd60e51b815260040161038190614c7c565b60405180910390fd5b60015481106103ab5760405162461bcd60e51b815260040161038190614b77565b60008181526004602052604081206103c291613b74565b806000805160206153d68339815191526040516103de90614dee565b60405180910390a250565b6000546001600160a01b031633146104135760405162461bcd60e51b815260040161038190614c7c565b60015482106104345760405162461bcd60e51b815260040161038190614b77565b60008281526004602052604090205481106104615760405162461bcd60e51b815260040161038190614c16565b805b60008381526004602052604090205461047e906001906152e0565b8110156105ca57600083815260046020526040902061049e826001615180565b815481106104bc57634e487b7160e01b600052603260045260246000fd5b90600052602060002090600602016004600085815260200190815260200160002082815481106104fc57634e487b7160e01b600052603260045260246000fd5b9060005260206000209060060201600082018160000190805461051e90615323565b610529929190613b98565b50600182018160010190805461053e90615323565b610549929190613b98565b5060028201548160020155600382018160030190805461056890615323565b610573929190613b98565b50600482018160040190805461058890615323565b610593929190613b98565b5060058201816005019080546105a890615323565b6105b3929190613b98565b5090505080806105c29061535e565b915050610463565b5060008281526004602052604090208054806105f657634e487b7160e01b600052603160045260246000fd5b600082815260208120600019909201916006830201906106168282613c23565b610624600183016000613c23565b600282016000905560038201600061063c9190613c23565b61064a600483016000613c23565b610658600583016000613c23565b50509055816000805160206153d6833981519152610675836137c7565b6040516106829190614d47565b60405180910390a25050565b6000546001600160a01b031633146106b85760405162461bcd60e51b815260040161038190614c7c565b60015485106106d95760405162461bcd60e51b815260040161038190614b77565b6106e1613c5f565b848152602081018490526040810183905260a081018290526000808080805b60008b8152600260205260409020548110156109095760008b815260026020526040812080548390811061074457634e487b7160e01b600052603260045260246000fd5b9060005260206000209060140201905080600201548a1015801561076b575080600301548a105b156108f65760008913156108645760018c8154811061079a57634e487b7160e01b600052603260045260246000fd5b90600052602060002090600e0201600601546127108a60018f815481106107d157634e487b7160e01b600052603260045260246000fd5b90600052602060002090600e0201600401546107ed9190615282565b6107f791906151eb565b610801919061513f565b925061271060018d8154811061082757634e487b7160e01b600052603260045260246000fd5b90600052602060002090600e0201600701548a6108449190615282565b61084e91906151eb565b93508284126108645761086183856152a1565b94505b88816008016000828254610878919061513f565b9250508190555084816005016000828254610893919061513f565b92505081905550838160060160008282546108ae919061513f565b9091555050600681015460088201546108c791906152a1565b60128201556004810180549060006108de8361535e565b90915550506080870185905260608701839052600195505b50806109018161535e565b915050610700565b5083156109ed5760008a815260036020908152604082208054600181018255908352918190208751805189946009029092019261094b92849290910190613cab565b50602082810151600183015560408301516002830155606083015160038301556080830151600483015560a0830151805161098c9260058501920190613cab565b5060c0820151600682015560e0820151600782015561010082015180516109bd916008840191602090910190613cab565b505085516040518c92506000805160206153d6833981519152916109e091614aff565b60405180910390a2610a12565b896000805160206153d6833981519152604051610a0990614f6c565b60405180910390a25b50505050505050505050565b6001546060908210610a425760405162461bcd60e51b815260040161038190614b77565b600082815260056020908152604080832080548251818502810185019093528083529193909284015b82821015610bd85783829060005260206000209060030201604051806060016040529081600082018054610a9e90615323565b80601f0160208091040260200160405190810160405280929190818152602001828054610aca90615323565b8015610b175780601f10610aec57610100808354040283529160200191610b17565b820191906000526020600020905b815481529060010190602001808311610afa57829003601f168201915b505050918352505060018201546001600160a01b03166020820152600282018054604090920191610b4790615323565b80601f0160208091040260200160405190810160405280929190818152602001828054610b7390615323565b8015610bc05780601f10610b9557610100808354040283529160200191610bc0565b820191906000526020600020905b815481529060010190602001808311610ba357829003601f168201915b50505050508152505081526020019060010190610a6b565b5050505090505b919050565b6001546060908210610c085760405162461bcd60e51b815260040161038190614b77565b600082815260026020908152604080832080548251818502810185019093528083529193909284015b82821015610bd8578382906000526020600020906014020160405180610280016040529081600082018054610c6590615323565b80601f0160208091040260200160405190810160405280929190818152602001828054610c9190615323565b8015610cde5780601f10610cb357610100808354040283529160200191610cde565b820191906000526020600020905b815481529060010190602001808311610cc157829003601f168201915b50505050508152602001600182015481526020016002820154815260200160038201548152602001600482015481526020016005820154815260200160068201548152602001600782015481526020016008820154815260200160098201548152602001600a82018054610d5190615323565b80601f0160208091040260200160405190810160405280929190818152602001828054610d7d90615323565b8015610dca5780601f10610d9f57610100808354040283529160200191610dca565b820191906000526020600020905b815481529060010190602001808311610dad57829003601f168201915b50505050508152602001600b8201548152602001600c82018054610ded90615323565b80601f0160208091040260200160405190810160405280929190818152602001828054610e1990615323565b8015610e665780601f10610e3b57610100808354040283529160200191610e66565b820191906000526020600020905b815481529060010190602001808311610e4957829003601f168201915b50505050508152602001600d8201548152602001600e8201548152602001600f820154815260200160108201548152602001601182018054610ea790615323565b80601f0160208091040260200160405190810160405280929190818152602001828054610ed390615323565b8015610f205780601f10610ef557610100808354040283529160200191610f20565b820191906000526020600020905b815481529060010190602001808311610f0357829003601f168201915b505050505081526020016012820154815260200160138201548152505081526020019060010190610c31565b6001546060908210610f705760405162461bcd60e51b815260040161038190614b77565b600082815260036020908152604080832080548251818502810185019093528083529193909284015b82821015610bd8578382906000526020600020906009020160405180610120016040529081600082018054610fcd90615323565b80601f0160208091040260200160405190810160405280929190818152602001828054610ff990615323565b80156110465780601f1061101b57610100808354040283529160200191611046565b820191906000526020600020905b81548152906001019060200180831161102957829003601f168201915b505050505081526020016001820154815260200160028201548152602001600382015481526020016004820154815260200160058201805461108790615323565b80601f01602080910402602001604051908101604052809291908181526020018280546110b390615323565b80156111005780601f106110d557610100808354040283529160200191611100565b820191906000526020600020905b8154815290600101906020018083116110e357829003601f168201915b50505050508152602001600682015481526020016007820154815260200160088201805461112d90615323565b80601f016020809104026020016040519081016040528092919081815260200182805461115990615323565b80156111a65780601f1061117b576101008083540402835291602001916111a6565b820191906000526020600020905b81548152906001019060200180831161118957829003601f168201915b50505050508152505081526020019060010190610f99565b6000546001600160a01b031633146111e85760405162461bcd60e51b815260040161038190614c7c565b60015481106112095760405162461bcd60e51b815260040161038190614b77565b600081815260026020526040812061122091613d1f565b806000805160206153d68339815191526040516103de90614ec1565b6000546001600160a01b031633146112665760405162461bcd60e51b815260040161038190614c7c565b60015482106112875760405162461bcd60e51b815260040161038190614b77565b60008281526005602090815260408220805460018101825590835291819020835180518594600302909201926112c292849290910190613cab565b506020828101516001830180546001600160a01b0319166001600160a01b03909216919091179055604083015180516113019260028501920190613cab565b505081516040518492506000805160206153d68339815191529161068291614e8d565b6000546001600160a01b0316331461134e5760405162461bcd60e51b815260040161038190614c7c565b600154811061136f5760405162461bcd60e51b815260040161038190614b77565b60006001828154811061139257634e487b7160e01b600052603260045260246000fd5b60009182526020909120600e90910201600d01805460ff1916911515919091179055806000805160206153d68339815191526113cd826137c7565b6040516103de9190614efc565b6000546001600160a01b031633146114045760405162461bcd60e51b815260040161038190614c7c565b60015482106114255760405162461bcd60e51b815260040161038190614b77565b60008281526005602052604090205481106114525760405162461bcd60e51b815260040161038190614e27565b805b60008381526005602052604090205461146f906001906152e0565b81101561157757600083815260056020526040902061148f826001615180565b815481106114ad57634e487b7160e01b600052603260045260246000fd5b90600052602060002090600302016005600085815260200190815260200160002082815481106114ed57634e487b7160e01b600052603260045260246000fd5b9060005260206000209060030201600082018160000190805461150f90615323565b61151a929190613b98565b5060018281015490820180546001600160a01b0319166001600160a01b03909216919091179055600280830180549183019161155590615323565b611560929190613b98565b50905050808061156f9061535e565b915050611454565b5060008281526005602052604090208054806115a357634e487b7160e01b600052603160045260246000fd5b600082815260208120600019909201916003830201906115c38282613c23565b6001820180546001600160a01b03191690556115e3600283016000613c23565b50509055816000805160206153d6833981519152611600836137c7565b6040516106829190614c46565b611615613d40565b60015482106116365760405162461bcd60e51b815260040161038190614b77565b6001828154811061165757634e487b7160e01b600052603260045260246000fd5b90600052602060002090600e0201604051806101e001604052908160008201805461168190615323565b80601f01602080910402602001604051908101604052809291908181526020018280546116ad90615323565b80156116fa5780601f106116cf576101008083540402835291602001916116fa565b820191906000526020600020905b8154815290600101906020018083116116dd57829003601f168201915b5050505050815260200160018201805461171390615323565b80601f016020809104026020016040519081016040528092919081815260200182805461173f90615323565b801561178c5780601f106117615761010080835404028352916020019161178c565b820191906000526020600020905b81548152906001019060200180831161176f57829003601f168201915b505050505081526020016002820180546117a590615323565b80601f01602080910402602001604051908101604052809291908181526020018280546117d190615323565b801561181e5780601f106117f35761010080835404028352916020019161181e565b820191906000526020600020905b81548152906001019060200180831161180157829003601f168201915b5050505050815260200160038201805461183790615323565b80601f016020809104026020016040519081016040528092919081815260200182805461186390615323565b80156118b05780601f10611885576101008083540402835291602001916118b0565b820191906000526020600020905b81548152906001019060200180831161189357829003601f168201915b5050505050815260200160048201548152602001600582015481526020016006820154815260200160078201548152602001600882015481526020016009820180546118fb90615323565b80601f016020809104026020016040519081016040528092919081815260200182805461192790615323565b80156119745780601f1061194957610100808354040283529160200191611974565b820191906000526020600020905b81548152906001019060200180831161195757829003601f168201915b50505050508152602001600a8201548152602001600b8201548152602001600c820180546119a190615323565b80601f01602080910402602001604051908101604052809291908181526020018280546119cd90615323565b8015611a1a5780601f106119ef57610100808354040283529160200191611a1a565b820191906000526020600020905b8154815290600101906020018083116119fd57829003601f168201915b5050509183525050600d919091015460ff8082161515602084015261010090910416151560409091015292915050565b6000546001600160a01b03163314611a745760405162461bcd60e51b815260040161038190614c7c565b6001548510611a955760405162461bcd60e51b815260040161038190614b77565b6000858152600360205260409020805484919086908110611ac657634e487b7160e01b600052603260045260246000fd5b90600052602060002090600902016006018190555081600360008781526020019081526020016000208581548110611b0e57634e487b7160e01b600052603260045260246000fd5b90600052602060002090600902016007018190555080600360008781526020019081526020016000208581548110611b5657634e487b7160e01b600052603260045260246000fd5b90600052602060002090600902016008019080519060200190611b7a929190613cab565b50846000805160206153d6833981519152604051611b9790614be3565b60405180910390a25050505050565b6000546001600160a01b03163314611bd05760405162461bcd60e51b815260040161038190614c7c565b6001548510611bf15760405162461bcd60e51b815260040161038190614b77565b6000858152600260205260409020805484919086908110611c2257634e487b7160e01b600052603260045260246000fd5b9060005260206000209060140201600f018190555081600260008781526020019081526020016000208581548110611c6a57634e487b7160e01b600052603260045260246000fd5b90600052602060002090601402016010018190555080600260008781526020019081526020016000208581548110611cb257634e487b7160e01b600052603260045260246000fd5b90600052602060002090601402016011019080519060200190611cd6929190613cab565b50846000805160206153d6833981519152604051611b9790614cd9565b6000546001600160a01b03163314611d1d5760405162461bcd60e51b815260040161038190614c7c565b6001548610611d3e5760405162461bcd60e51b815260040161038190614b77565b6000868152600260205260409020805485919087908110611d6f57634e487b7160e01b600052603260045260246000fd5b90600052602060002090601402016007018190555082600260008881526020019081526020016000208681548110611db757634e487b7160e01b600052603260045260246000fd5b90600052602060002090601402016009018190555081600260008881526020019081526020016000208681548110611dff57634e487b7160e01b600052603260045260246000fd5b9060005260206000209060140201600a019080519060200190611e23929190613cab565b506000868152600260205260409020805486908110611e5257634e487b7160e01b600052603260045260246000fd5b90600052602060002090601402016001015484111561206e576018603c80600260008a81526020019081526020016000208881548110611ea257634e487b7160e01b600052603260045260246000fd5b90600052602060002090601402016001015487611ebf91906152e0565b611ec991906151eb565b611ed391906151eb565b611edd91906151eb565b6000878152600260205260409020805487908110611f0b57634e487b7160e01b600052603260045260246000fd5b9060005260206000209060140201600d01819055506000600260008881526020019081526020016000208681548110611f5457634e487b7160e01b600052603260045260246000fd5b9060005260206000209060140201600d01549050600060018881548110611f8b57634e487b7160e01b600052603260045260246000fd5b90600052602060002090600e02016008015490506000600260008a81526020019081526020016000208881548110611fd357634e487b7160e01b600052603260045260246000fd5b9060005260206000209060140201600801549050633b9aca008161016d84620186a0611fff91906151ff565b61200991906151bd565b61201390866151ff565b61201d91906151ff565b61202791906151bd565b60008a815260026020526040902080548a90811061205557634e487b7160e01b600052603260045260246000fd5b9060005260206000209060140201600e01819055505050505b600086815260026020526040902080548690811061209c57634e487b7160e01b600052603260045260246000fd5b90600052602060002090601402016008015483121561219e5760008681526002602052604090208054849190879081106120e657634e487b7160e01b600052603260045260246000fd5b90600052602060002090601402016008015461210291906152a1565b600087815260026020526040902080548790811061213057634e487b7160e01b600052603260045260246000fd5b9060005260206000209060140201600b01819055508060026000888152602001908152602001600020868154811061217857634e487b7160e01b600052603260045260246000fd5b9060005260206000209060140201600c01908051906020019061219c929190613cab565b505b60008681526002602052604081208054879081106121cc57634e487b7160e01b600052603260045260246000fd5b9060005260206000209060140201600b015460026000898152602001908152602001600020878154811061221057634e487b7160e01b600052603260045260246000fd5b9060005260206000209060140201600e0154600260008a8152602001908152602001600020888154811061225457634e487b7160e01b600052603260045260246000fd5b90600052602060002090601402016012015461227091906152a1565b61227a91906152a1565b13156123a45760008681526002602052604090208054869081106122ae57634e487b7160e01b600052603260045260246000fd5b9060005260206000209060140201600b01546002600088815260200190815260200160002086815481106122f257634e487b7160e01b600052603260045260246000fd5b9060005260206000209060140201600e015460026000898152602001908152602001600020878154811061233657634e487b7160e01b600052603260045260246000fd5b90600052602060002090601402016012015461235291906152a1565b61235c91906152a1565b600087815260026020526040902080548790811061238a57634e487b7160e01b600052603260045260246000fd5b9060005260206000209060140201601301819055506123e8565b60008681526002602052604081208054879081106123d257634e487b7160e01b600052603260045260246000fd5b9060005260206000209060140201601301819055505b856000805160206153d683398151915260405161240490614d80565b60405180910390a2505050505050565b6000546001600160a01b031681565b60015490565b6000546001600160a01b031633146124535760405162461bcd60e51b815260040161038190614c7c565b60015485106124745760405162461bcd60e51b815260040161038190614b77565b61247c613dba565b60208082018590526040808301859052606083018490528683526000888152600283529081208054600181018255908252908290208351805185946014909402909201926124cf92849290910190613cab565b50602082810151600183015560408301516002830155606083015160038301556080830151600483015560a0830151600583015560c0830151600683015560e0830151600783015561010083015160088301556101208301516009830155610140830151805161254592600a8501920190613cab565b50610160820151600b820155610180820151805161256d91600c840191602090910190613cab565b506101a0820151600d8201556101c0820151600e8201556101e0820151600f820155610200820151601082015561022082015180516125b6916011840191602090910190613cab565b50610240820151816012015561026082015181601301555050856000805160206153d683398151915282600001516040516124049190614e54565b6000546001600160a01b0316331461261b5760405162461bcd60e51b815260040161038190614c7c565b600154821061263c5760405162461bcd60e51b815260040161038190614b77565b61272b826040518060400160405280600d81526020016c657874656e6465645f6461746160981b8152506001858154811061268757634e487b7160e01b600052603260045260246000fd5b90600052602060002090600e020160000180546126a390615323565b80601f01602080910402602001604051908101604052809291908181526020018280546126cf90615323565b801561271c5780601f106126f15761010080835404028352916020019161271c565b820191906000526020600020905b8154815290600101906020018083116126ff57829003601f168201915b5050505050846000015161390c565b61281a826040518060400160405280600d81526020016c636f6e74726163745f6e616d6560981b8152506001858154811061277657634e487b7160e01b600052603260045260246000fd5b90600052602060002090600e0201600101805461279290615323565b80601f01602080910402602001604051908101604052809291908181526020018280546127be90615323565b801561280b5780601f106127e05761010080835404028352916020019161280b565b820191906000526020600020905b8154815290600101906020018083116127ee57829003601f168201915b5050505050846020015161390c565b612909826040518060400160405280600d81526020016c636f6e74726163745f7479706560981b8152506001858154811061286557634e487b7160e01b600052603260045260246000fd5b90600052602060002090600e0201600201805461288190615323565b80601f01602080910402602001604051908101604052809291908181526020018280546128ad90615323565b80156128fa5780601f106128cf576101008083540402835291602001916128fa565b820191906000526020600020905b8154815290600101906020018083116128dd57829003601f168201915b5050505050846040015161390c565b6129f8826040518060400160405280600d81526020016c333ab73234b733afb4b739ba3960991b8152506001858154811061295457634e487b7160e01b600052603260045260246000fd5b90600052602060002090600e0201600301805461297090615323565b80601f016020809104026020016040519081016040528092919081815260200182805461299c90615323565b80156129e95780601f106129be576101008083540402835291602001916129e9565b820191906000526020600020905b8154815290600101906020018083116129cc57829003601f168201915b5050505050846060015161390c565b612a71826040518060400160405280600f81526020016e1cd95c9d9a58d957d9995957dc18dd608a1b815250612a5f60018681548110612a4857634e487b7160e01b600052603260045260246000fd5b90600052602060002090600e0201600401546137c7565b612a6c85608001516137c7565b61390c565b612ae5826040518060400160405280600f81526020016e0e6cae4ecd2c6cabecccacabedac2f608b1b815250612ad860018681548110612ac157634e487b7160e01b600052603260045260246000fd5b90600052602060002090600e0201600501546137c7565b612a6c8560a001516137c7565b612b59826040518060400160405280600f81526020016e1cd95c9d9a58d957d9995957d85b5d608a1b815250612b4c60018681548110612b3557634e487b7160e01b600052603260045260246000fd5b90600052602060002090600e02016006015461396f565b612a6c8560c0015161396f565b612bc9826040518060400160405280600b81526020016a18591d985b98d957dc18dd60aa1b815250612bbc60018681548110612ba557634e487b7160e01b600052603260045260246000fd5b90600052602060002090600e0201600701546137c7565b612a6c8560e001516137c7565b612c3b826040518060400160405280600c81526020016b1b185d1957d9995957dc18dd60a21b815250612c2d60018681548110612c1657634e487b7160e01b600052603260045260246000fd5b90600052602060002090600e0201600801546137c7565b612a6c8561010001516137c7565b612d2c826040518060400160405280600e81526020016d7472616e736163745f6c6f67696360901b81525060018581548110612c8757634e487b7160e01b600052603260045260246000fd5b90600052602060002090600e02016009018054612ca390615323565b80601f0160208091040260200160405190810160405280929190818152602001828054612ccf90615323565b8015612d1c5780601f10612cf157610100808354040283529160200191612d1c565b820191906000526020600020905b815481529060010190602001808311612cff57829003601f168201915b505050505084610120015161390c565b612e1482604051806040016040528060058152602001646e6f74657360d81b81525060018581548110612d6f57634e487b7160e01b600052603260045260246000fd5b90600052602060002090600e0201600c018054612d8b90615323565b80601f0160208091040260200160405190810160405280929190818152602001828054612db790615323565b8015612e045780601f10612dd957610100808354040283529160200191612e04565b820191906000526020600020905b815481529060010190602001808311612de757829003601f168201915b505050505084610180015161390c565b612e88826040518060400160405280600981526020016869735f61637469766560b81b815250612e7a60018681548110612e5e57634e487b7160e01b600052603260045260246000fd5b60009182526020909120600d600e90920201015460ff16613b26565b612a6c856101a00151613b26565b612f03826040518060400160405280600881526020016769735f71756f746560c01b815250612ef560018681548110612ed157634e487b7160e01b600052603260045260246000fd5b90600052602060002090600e0201600d0160019054906101000a900460ff16613b26565b612a6c856101c00151613b26565b8060018381548110612f2557634e487b7160e01b600052603260045260246000fd5b90600052602060002090600e02016000820151816000019080519060200190612f4f929190613cab565b506020828101518051612f689260018501920190613cab565b5060408201518051612f84916002840191602090910190613cab565b5060608201518051612fa0916003840191602090910190613cab565b506080820151600482015560a0820151600582015560c0820151600682015560e0820151600782015561010082015160088201556101208201518051612ff0916009840191602090910190613cab565b50610140820151600a820155610160820151600b820155610180820151805161302391600c840191602090910190613cab565b506101a0820151600d90910180546101c09093015115156101000261ff001992151560ff1990941693909317919091169190911790555050565b6000546001600160a01b031633146130875760405162461bcd60e51b815260040161038190614c7c565b600180548082018255600091909152815180518392600e027fb10e2d527612073b26eecdfd717e6a320cf44b4afac2b0732d9fcbe2b7fa0cf601916130d191839160200190613cab565b5060208281015180516130ea9260018501920190613cab565b5060408201518051613106916002840191602090910190613cab565b5060608201518051613122916003840191602090910190613cab565b506080820151600482015560a0820151600582015560c0820151600682015560e0820151600782015561010082015160088201556101208201518051613172916009840191602090910190613cab565b50610140820151600a820155610160820151600b82015561018082015180516131a591600c840191602090910190613cab565b506101a0820151600d90910180546101c09093015115156101000261ff001992151560ff199094169390931791909116919091179055600180546131e991906152e0565b6000805160206153d683398151915282602001516040516103de9190614b40565b6000546001600160a01b031633146132345760405162461bcd60e51b815260040161038190614c7c565b60015487106132555760405162461bcd60e51b815260040161038190614b77565b61325d613e53565b86815260208082018790526040808301879052606083018690526080830185905260a0830184905260008a8152600483529081208054600181018255908252908290208351805185946006909402909201926132be92849290910190613cab565b5060208281015180516132d79260018501920190613cab565b5060408201516002820155606082015180516132fd916003840191602090910190613cab565b5060808201518051613319916004840191602090910190613cab565b5060a08201518051613335916005840191602090910190613cab565b505050876000805160206153d6833981519152886040516133569190614f35565b60405180910390a25050505050505050565b600154606090821061338c5760405162461bcd60e51b815260040161038190614b77565b600082815260046020908152604080832080548251818502810185019093528083529193909284015b82821015610bd857838290600052602060002090600602016040518060c00160405290816000820180546133e890615323565b80601f016020809104026020016040519081016040528092919081815260200182805461341490615323565b80156134615780601f1061343657610100808354040283529160200191613461565b820191906000526020600020905b81548152906001019060200180831161344457829003601f168201915b5050505050815260200160018201805461347a90615323565b80601f01602080910402602001604051908101604052809291908181526020018280546134a690615323565b80156134f35780601f106134c8576101008083540402835291602001916134f3565b820191906000526020600020905b8154815290600101906020018083116134d657829003601f168201915b505050505081526020016002820154815260200160038201805461351690615323565b80601f016020809104026020016040519081016040528092919081815260200182805461354290615323565b801561358f5780601f106135645761010080835404028352916020019161358f565b820191906000526020600020905b81548152906001019060200180831161357257829003601f168201915b505050505081526020016004820180546135a890615323565b80601f01602080910402602001604051908101604052809291908181526020018280546135d490615323565b80156136215780601f106135f657610100808354040283529160200191613621565b820191906000526020600020905b81548152906001019060200180831161360457829003601f168201915b5050505050815260200160058201805461363a90615323565b80601f016020809104026020016040519081016040528092919081815260200182805461366690615323565b80156136b35780601f10613688576101008083540402835291602001916136b3565b820191906000526020600020905b81548152906001019060200180831161369657829003601f168201915b505050505081525050815260200190600101906133b5565b6000546001600160a01b031633146136f55760405162461bcd60e51b815260040161038190614c7c565b60015481106137165760405162461bcd60e51b815260040161038190614b77565b600081815260056020526040812061372d91613e89565b806000805160206153d68339815191526040516103de90614db7565b6000546001600160a01b031633146137735760405162461bcd60e51b815260040161038190614c7c565b60015481106137945760405162461bcd60e51b815260040161038190614b77565b60008181526003602052604081206137ab91613eaa565b806000805160206153d68339815191526040516103de90614ba7565b6060816137ec57506040805180820190915260018152600360fc1b6020820152610bdf565b8160005b811561381657806138008161535e565b915061380f9050600a836151eb565b91506137f0565b6000816001600160401b0381111561383e57634e487b7160e01b600052604160045260246000fd5b6040519080825280601f01601f191660200182016040528015613868576020820181803683370190505b509050815b85156139035761387e6001826152e0565b9050600061388d600a886151eb565b61389890600a615282565b6138a290886152e0565b6138ad906030615198565b905060008160f81b9050808484815181106138d857634e487b7160e01b600052603260045260246000fd5b60200101906001600160f81b031916908160001a9053506138fa600a896151eb565b9750505061386d565b50949350505050565b808051906020012082805190602001201461396957836000805160206153d6833981519152848484604051602001613946939291906146ef565b60408051601f198184030181529082905261396091614d0e565b60405180910390a25b50505050565b60608161399457506040805180820190915260018152600360fc1b6020820152610bdf565b600080831290808483156139bb576139ab81615379565b9050826139b78161535e565b9350505b8091505b81156139e557826139cf8161535e565b93506139de9050600a836151eb565b91506139bf565b6000836001600160401b03811115613a0d57634e487b7160e01b600052604160045260246000fd5b6040519080825280601f01601f191660200182016040528015613a37576020820181803683370190505b5091925082919050835b8315613ad757613a526001826152e0565b90506000613a61600a866151eb565b613a6c90600a615282565b613a7690866152e0565b613a81906030615198565b905060008160f81b905080848481518110613aac57634e487b7160e01b600052603260045260246000fd5b60200101906001600160f81b031916908160001a905350613ace600a876151eb565b95505050613a41565b8515613b1b57602d60f81b82600081518110613b0357634e487b7160e01b600052603260045260246000fd5b60200101906001600160f81b031916908160001a9053505b509695505050505050565b606081613b50576040518060400160405280600581526020016466616c736560d81b815250613b6e565b604051806040016040528060048152602001637472756560e01b8152505b92915050565b5080546000825560060290600052602060002090810190613b959190613ecb565b50565b828054613ba490615323565b90600052602060002090601f016020900481019282613bc65760008555613c13565b82601f10613bd75780548555613c13565b82800160010185558215613c1357600052602060002091601f016020900482015b82811115613c13578254825591600101919060010190613bf8565b50613c1f929150613f2a565b5090565b508054613c2f90615323565b6000825580601f10613c415750613b95565b601f016020900490600052602060002090810190613b959190613f2a565b6040518061012001604052806060815260200160008152602001600081526020016000815260200160008152602001606081526020016000815260200160008152602001606081525090565b828054613cb790615323565b90600052602060002090601f016020900481019282613cd95760008555613c13565b82601f10613cf257805160ff1916838001178555613c13565b82800160010185558215613c13579182015b82811115613c13578251825591602001919060010190613d04565b5080546000825560140290600052602060002090810190613b959190613f3f565b604051806101e00160405280606081526020016060815260200160608152602001606081526020016000815260200160008152602001600081526020016000815260200160008152602001606081526020016000815260200160008152602001606081526020016000151581526020016000151581525090565b60405180610280016040528060608152602001600081526020016000815260200160008152602001600081526020016000815260200160008152602001600081526020016000815260200160008152602001606081526020016000815260200160608152602001600081526020016000815260200160008152602001600081526020016060815260200160008152602001600081525090565b6040518060c001604052806060815260200160608152602001600081526020016060815260200160608152602001606081525090565b5080546000825560030290600052602060002090810190613b95919061400a565b5080546000825560090290600052602060002090810190613b959190614047565b80821115613c1f576000613edf8282613c23565b613eed600183016000613c23565b6002820160009055600382016000613f059190613c23565b613f13600483016000613c23565b613f21600583016000613c23565b50600601613ecb565b5b80821115613c1f5760008155600101613f2b565b80821115613c1f576000613f538282613c23565b600182016000905560028201600090556003820160009055600482016000905560058201600090556006820160009055600782016000905560088201600090556009820160009055600a82016000613fab9190613c23565b600b820160009055600c82016000613fc39190613c23565b600d820160009055600e820160009055600f8201600090556010820160009055601182016000613ff39190613c23565b506000601282018190556013820155601401613f3f565b80821115613c1f57600061401e8282613c23565b6001820180546001600160a01b031916905561403e600283016000613c23565b5060030161400a565b80821115613c1f57600061405b8282613c23565b600182016000905560028201600090556003820160009055600482016000905560058201600061408b9190613c23565b600682016000905560078201600090556008820160006140ab9190613c23565b50600901614047565b80358015158114610bdf57600080fd5b600082601f8301126140d4578081fd5b81356001600160401b038111156140ed576140ed6153bf565b614100601f8201601f1916602001615116565b818152846020838601011115614114578283fd5b816020850160208301379081016020019190915292915050565b60006101e0808385031215614141578182fd5b61414a81615116565b91505081356001600160401b038082111561416457600080fd5b614170858386016140c4565b8352602084013591508082111561418657600080fd5b614192858386016140c4565b602084015260408401359150808211156141ab57600080fd5b6141b7858386016140c4565b604084015260608401359150808211156141d057600080fd5b6141dc858386016140c4565b60608401526080840135608084015260a084013560a084015260c084013560c084015260e084013560e0840152610100915081840135828401526101209150818401358181111561422c57600080fd5b614238868287016140c4565b92840192909252610140848101359084015261016080850135908401526101809150818401358181111561426b57600080fd5b614277868287016140c4565b838501525050506101a061428c8184016140b4565b908201526101c061429e8382016140b4565b9082015292915050565b6000602082840312156142b9578081fd5b81356001600160401b038111156142ce578182fd5b6142da8482850161412e565b949350505050565b6000602082840312156142f3578081fd5b5035919050565b600080600080600080600060e0888a031215614314578283fd5b8735965060208801356001600160401b0380821115614331578485fd5b61433d8b838c016140c4565b975060408a0135915080821115614352578485fd5b61435e8b838c016140c4565b965060608a0135955060808a013591508082111561437a578485fd5b6143868b838c016140c4565b945060a08a013591508082111561439b578384fd5b6143a78b838c016140c4565b935060c08a01359150808211156143bc578283fd5b506143c98a828b016140c4565b91505092959891949750929550565b600080600080600060a086880312156143ef578081fd5b8535945060208601356001600160401b038082111561440c578283fd5b61441889838a016140c4565b95506040880135945060608801359350608088013591508082111561443b578283fd5b50614448888289016140c4565b9150509295509295909350565b600080600080600060a0868803121561446c578081fd5b8535945060208601356001600160401b03811115614488578182fd5b614494888289016140c4565b959895975050505060408401359360608101359360809091013592509050565b600080604083850312156144c6578182fd5b8235915060208301356001600160401b038111156144e2578182fd5b6144ee8582860161412e565b9150509250929050565b6000806040838503121561450a578182fd5b8235915060208301356001600160401b0380821115614527578283fd5b908401906060828703121561453a578283fd5b604051606081018181108382111715614555576145556153bf565b604052823582811115614566578485fd5b614572888286016140c4565b82525060208301356001600160a01b038116811461458e578485fd5b60208201526040830135828111156145a4578485fd5b6145b0888286016140c4565b6040830152508093505050509250929050565b600080604083850312156145d5578182fd5b50508035926020909101359150565b600080600080600060a086880312156145fb578283fd5b8535945060208601359350604086013592506060860135915060808601356001600160401b0381111561462c578182fd5b614448888289016140c4565b60008060008060008060c08789031215614650578384fd5b8635955060208701359450604087013593506060870135925060808701356001600160401b0380821115614682578384fd5b61468e8a838b016140c4565b935060a08901359150808211156146a3578283fd5b506146b089828a016140c4565b9150509295509295509295565b15159052565b600081518084526146db8160208601602086016152f7565b601f01601f19169290920160200192915050565b600084516147018184602089016152f7565b601d60f91b908301908152845161471f8160018401602089016152f7565b61169f60f11b6001929091019182015283516147428160038401602088016152f7565b0160030195945050505050565b6001600160a01b0391909116815260200190565b60208082528251828201819052600091906040908185019080840286018301878501865b8381101561483457603f19898403018552815160c081518186526147ad828701826146c3565b915050888201518582038a8701526147c582826146c3565b9150508782015188860152606080830151868303828801526147e783826146c3565b925050506080808301518683038288015261480283826146c3565b9250505060a0808301519250858203818701525061482081836146c3565b968901969450505090860190600101614787565b509098975050505050505050565b60208082528251828201819052600091906040908185019080840286018301878501865b8381101561483457603f1989840301855281516060815181865261488c828701826146c3565b838b01516001600160a01b0316878c0152928901518684038a8801529291506148b7905081836146c3565b968901969450505090860190600101614866565b60208082528251828201819052600091906040908185019080840286018301878501865b8381101561483457603f1989840301855281516102808151818652614916828701826146c3565b838b0151878c0152898401518a880152606080850151908801526080808501519088015260a0808501519088015260c0808501519088015260e080850151908801526101008085015190880152610120808501519088015261014080850151888303828a0152919350915061498b83826146c3565b9250505061016080830151818701525061018080830151868303828801526149b383826146c3565b6101a085810151908901526101c080860151908901526101e08086015190890152610200808601519089015261022080860151898303828b0152919450925090506149fe83826146c3565b610240858101519089015261026094850151949097019390935250505093860193908601906001016148ef565b60208082528251828201819052600091906040908185019080840286018301878501865b8381101561483457603f1989840301855281516101208151818652614a76828701826146c3565b915050888201518986015287820151888601526060808301518187015250608080830151818701525060a08083015186830382880152614ab683826146c3565b9250505060c080830151818701525060e08083015181870152506101008083015192508582038187015250614aeb81836146c3565b968901969450505090860190600101614a4f565b600060408252601060408301526f151c985b9cd858dd1a5bdb905919195960821b606083015260806020830152614b3960808301846146c3565b9392505050565b600060408252600d60408301526c10dbdb9d1c9858dd1059191959609a1b606083015260806020830152614b3960808301846146c3565b602080825260169082015275092dcecc2d8d2c840c6dedce8e4c2c6e840d2dcc8caf60531b604082015260600190565b604080825260139082015272151c985b9cd858dd1a5bdb9cd1195b195d1959606a1b606082015260806020820181905260009082015260a00190565b6040808252600a9082015269506179416476616e636560b01b606082015260806020820181905260009082015260a00190565b602080825260169082015275092dcecc2d8d2c840c2e4e8d2ccc2c6e840d2dcc8caf60531b604082015260600190565b600060408252600c60408301526b14185c9d1e51195b195d195960a21b606083015260806020830152614b3960808301846146c3565b60208082526039908201527f4163636573732064656e6965642c206f6e6c7920636f6e7472616374206f776e60408201527f65722063616e2063616c6c20746869732066756e6374696f6e00000000000000606082015260800190565b6040808252600c908201526b14995cda591d585b14185a5960a21b606082015260806020820181905260009082015260a00190565b600060408252600f60408301526e10dbdb9d1c9858dd155c19185d1959608a1b606083015260806020830152614b3960808301846146c3565b600060408252600f60408301526e105c9d1a599858dd11195b195d1959608a1b606083015260806020830152614b3960808301846146c3565b6040808252600e908201526d141bdcdd14d95d1d1b195b595b9d60921b606082015260806020820181905260009082015260a00190565b6040808252600e908201526d14185c9d1a595cd1195b195d195960921b606082015260806020820181905260009082015260a00190565b60408082526010908201526f105c9d1a599858dd1cd1195b195d195960821b606082015260806020820181905260009082015260a00190565b602080825260139082015272092dcecc2d8d2c840e0c2e4e8f240d2dcc8caf606b1b604082015260600190565b600060408252600f60408301526e14d95d1d1b195b595b9d1059191959608a1b606083015260806020830152614b3960808301846146c3565b600060408252600a60408301526914185c9d1e505919195960b21b606083015260806020830152614b3960808301846146c3565b60408082526012908201527114d95d1d1b195b595b9d1cd1195b195d195960721b606082015260806020820181905260009082015260a00190565b600060408252600f60408301526e10dbdb9d1c9858dd11195b195d1959608a1b606083015260806020830152614b3960808301846146c3565b600060408252600d60408301526c105c9d1a599858dd1059191959609a1b606083015260806020830152614b3960808301846146c3565b60408082526010908201526f2a3930b739b0b1ba34b7b722b93937b960811b6060820152608060208201819052601a908201527f4e6f2076616c696420736574746c656d656e7420706572696f6400000000000060a082015260c00190565b60006020825282516101e0806020850152614fea6102008501836146c3565b91506020850151601f198086850301604087015261500884836146c3565b9350604087015191508086850301606087015261502584836146c3565b9350606087015191508086850301608087015261504284836146c3565b9350608087015160a087015260a087015160c087015260c087015160e087015260e0870151915061010082818801528088015192505061012082818801528088015192505061014081878603018188015261509d85846146c3565b90880151610160888101919091528801516101808089019190915288015187820383016101a0808a019190915291955092506150d985846146c3565b945080880151925050506101c06150f2818701836146bd565b8601519050615103858301826146bd565b5090949350505050565b90815260200190565b6040518181016001600160401b0381118282101715615137576151376153bf565b604052919050565b600080821280156001600160ff1b038490038513161561516157615161615393565b600160ff1b839003841281161561517a5761517a615393565b50500190565b6000821982111561519357615193615393565b500190565b600060ff821660ff84168060ff038211156151b5576151b5615393565b019392505050565b6000826151cc576151cc6153a9565b600160ff1b8214600019841416156151e6576151e6615393565b500590565b6000826151fa576151fa6153a9565b500490565b60006001600160ff1b038184138284138082168684048611161561522557615225615393565b600160ff1b8487128281168783058912161561524357615243615393565b85871292508782058712848416161561525e5761525e615393565b8785058712818416161561527457615274615393565b505050929093029392505050565b600081600019048311821515161561529c5761529c615393565b500290565b60008083128015600160ff1b8501841216156152bf576152bf615393565b6001600160ff1b03840183138116156152da576152da615393565b50500390565b6000828210156152f2576152f2615393565b500390565b60005b838110156153125781810151838201526020016152fa565b838111156139695750506000910152565b60028104600182168061533757607f821691505b6020821081141561535857634e487b7160e01b600052602260045260246000fd5b50919050565b600060001982141561537257615372615393565b5060010190565b6000600160ff1b82141561538f5761538f615393565b0390565b634e487b7160e01b600052601160045260246000fd5b634e487b7160e01b600052601260045260246000fd5b634e487b7160e01b600052604160045260246000fdfe345796c5f37ac4d00f0bd7eebb6ba729df51ddd74dafb2db6bf0c4a4a354577aa26469706673582212201b2a16f4a397277ecaa43ffa0462ec0acd38287d7bffccd94959783e6959449964736f6c63430008000033",
  "immutableReferences": {},
  "source": "// SPDX-License-Identifier: MIT\npragma solidity ^0.8.0;\n\ncontract Delivery {\n\n    address public owner;\n\n    Contract[] contracts;                                   // [contract_idx]\n    mapping (uint => Settlement[]) private settlements;     // contract_idx => settlement[]\n    mapping (uint => Transaction[]) private transactions;   // contract_idx => transaction[]\n    mapping (uint => Artifact[]) private artifacts;         // contract_idx => artifact_list[]\n    mapping (uint => Party[]) private parties;              // contract_idx => party[]\n\n    // every field ending in _dt is a unix timestamp\n    // every field ending in _amt is an integer representing a float with 2 decimals\n    // every field ending in _pct is an integer represending a float value with 4 decimals \n    // every field ending in _confirm is a string returned from the fiat payment provider\n\n    struct Contract {\n        string extended_data;           // json extended data\n        string contract_name;           // description for display purposes\n        string contract_type;           // the type of contract, e.g. ticketing, construction\n        string funding_instr;           // buyer funding instructions\n        uint service_fee_pct;           // service fee pct <= service_fee_max\n        uint service_fee_max;           // maximum fee that can be charged if the rate is variable\n        int service_fee_amt;            // flat rate amt if not percentage based\n        uint advance_pct;               // amount of money that will be advanced to seller for every transaction\n        uint late_fee_pct;              // an APR, daily rate calculated as late_fee_pct / 365\n        string transact_logic;          // jsonlogic formula for calculating transaction amount\n        int min_threshold;              // minimum expected amount for a deliverable (could be negative)\n        int max_threshold;              // maximum expected amount for a deliverable\n        string notes;                   // contract notes, can be used for additonal data requests\n        bool is_active;                 // instead of deleting, clear this flag to False\n        bool is_quote;                  // true if still in the quote stage\n    }\n\n    struct Settlement {\n        string extended_data;           // json extended data\n        uint settle_due_dt;             // date the payment is due \n        uint transact_min_dt;           // min date the transaction is made \n        uint transact_max_dt;           // max date the transaction is made \n        uint transact_count;            // number of transactions in this current settlement period \n        int advance_amt;                // the dollar amount that was advanced in this period (net amt)\n        int advance_amt_gross;          // the dollar amount that was advanced in this period less fees\n        uint settle_pay_dt;             // when the settlement was paid\n        int settle_exp_amt;             // expected amount of settlement 0\n        int settle_pay_amt;             // actual amount paid from the buyer\n        string settle_confirm;          // confirmation from payment source\n        int dispute_amt;                // if expected < actual, assume there was a dispute\n        string dispute_reason;          // if dispute_amt > 0, what was the reason (if provided)\n        uint days_late;                 // number of days late the payment was made\n        int late_fee_amt;               // amount of the late fee, will be taken out of the residual\n        uint residual_pay_dt;           // date and time the residual was paid\n        int residual_pay_amt;           // will equal residual_calc_amt after payment intitiated\n        string residual_confirm;        // residual confirmation from the payment source\n        int residual_exp_amt;           // expected amount of the residual\n        int residual_calc_amt;          // what the actual residual will be (exp - late_fee - dispute)\n    }\n\n    struct Transaction {\n        string extended_data;           // json extended data\n        uint transact_dt;               // date and time of the transaction\n        int transact_amt;               // calculated value of a transaction, negative if an adjustment\n        int service_fee_amt;            // calculated fee for a transaction\n        int advance_amt;                // advance_amt * advance_pct - service_fee_amt\n        string transact_data;           // data regarding transaction for jsonlogic    \n        uint advance_pay_dt;            // payment of advance\n        uint advance_pay_amt;           // will equal advance amt after payment initiated\n        string advance_confirm;         // payment confirmation of the advance from payment source\n    }\n\n    struct Artifact {\n        string doc_title;               // Document title\n        string doc_type;                // Document type (e.g., \"application/pdf\")\n        uint added_dt;                  // Timestamp of when the artifact was added\n        string s3_bucket;               // S3 bucket name\n        string s3_object_key;           // S3 object key (full path to the document)\n        string s3_version_id;           // S3 version ID for versioned objects\n    }\n\n    struct Party {\n        string party_code;              // code associated with a party\n        address party_address;          // wallet address\n        string party_type;              // the type of party associated with contract\n    }\n\n    event ContractEvent(uint indexed contract_idx, string eventType, string details);\n\n    constructor() {\n        owner = msg.sender;\n    }\n\n    modifier onlyOwner() {\n        require(msg.sender == owner, \"Access denied, only contract owner can call this function\");\n        _;\n    }\n\n    function getContractCount() public view returns (uint) {\n        return contracts.length;\n    }\n\n    function getContract(uint contract_idx) public view returns (Contract memory) {\n        require(contract_idx < contracts.length, \"Invalid contract index\");\n        return contracts[contract_idx];\n    }\n\n    function addContract (Contract memory contract_) public onlyOwner {\n        contracts.push(contract_);\n        emit ContractEvent(contracts.length - 1, \"ContractAdded\", contract_.contract_name);\n    }\n\n    function logContractChange(uint contract_idx, string memory field, string memory old_value, string memory new_value) private {\n        if (keccak256(bytes(old_value)) != keccak256(bytes(new_value))) {\n            emit ContractEvent(contract_idx, \"ContractUpdated\", string(abi.encodePacked(field, \":\", old_value, \"->\", new_value)));\n        }\n    }\n\n    function updateContract (uint contract_idx, Contract memory contract_) public onlyOwner {\n        require(contract_idx < contracts.length, \"Invalid contract index\");\n        logContractChange(contract_idx, \"extended_data\", contracts[contract_idx].extended_data, contract_.extended_data);\n        logContractChange(contract_idx, \"contract_name\", contracts[contract_idx].contract_name, contract_.contract_name);\n        logContractChange(contract_idx, \"contract_type\", contracts[contract_idx].contract_type, contract_.contract_type);\n        logContractChange(contract_idx, \"funding_instr\", contracts[contract_idx].funding_instr, contract_.funding_instr);\n        logContractChange(contract_idx, \"service_fee_pct\", uintToString(contracts[contract_idx].service_fee_pct), uintToString(contract_.service_fee_pct));\n        logContractChange(contract_idx, \"service_fee_max\", uintToString(contracts[contract_idx].service_fee_max), uintToString(contract_.service_fee_max));\n        logContractChange(contract_idx, \"service_fee_amt\", intToString(contracts[contract_idx].service_fee_amt), intToString(contract_.service_fee_amt));\n        logContractChange(contract_idx, \"advance_pct\", uintToString(contracts[contract_idx].advance_pct), uintToString(contract_.advance_pct));\n        logContractChange(contract_idx, \"late_fee_pct\", uintToString(contracts[contract_idx].late_fee_pct), uintToString(contract_.late_fee_pct));\n        logContractChange(contract_idx, \"transact_logic\", contracts[contract_idx].transact_logic, contract_.transact_logic);\n        logContractChange(contract_idx, \"notes\", contracts[contract_idx].notes, contract_.notes);\n        logContractChange(contract_idx, \"is_active\", boolToString(contracts[contract_idx].is_active), boolToString(contract_.is_active));\n        logContractChange(contract_idx, \"is_quote\", boolToString(contracts[contract_idx].is_quote), boolToString(contract_.is_quote));\n        contracts[contract_idx] = contract_;\n    }\n\n    // Mark a contract as inactive \n    function deleteContract(uint contract_idx) public onlyOwner {\n        require(contract_idx < contracts.length, \"Invalid contract index\");\n        contracts[contract_idx].is_active = false;\n        emit ContractEvent(contract_idx, \"ContractDeleted\", uintToString(contract_idx));\n    }\n\n    function getParties(uint contract_idx) public view returns (Party[] memory) {\n        require(contract_idx < contracts.length, \"Invalid contract index\");\n        return parties[contract_idx];\n    }\n\n    function addParty(uint contract_idx, Party memory party) public onlyOwner {\n        require(contract_idx < contracts.length, \"Invalid contract index\");\n        parties[contract_idx].push(party);\n        emit ContractEvent(contract_idx, \"PartyAdded\", party.party_code);\n    }\n\n    function deleteParty(uint contract_idx, uint party_idx) public onlyOwner {\n        require(contract_idx < contracts.length, \"Invalid contract index\");\n        require(party_idx < parties[contract_idx].length, \"Invalid party index\");\n\n        for (uint i = party_idx; i < parties[contract_idx].length - 1; i++) {\n            parties[contract_idx][i] = parties[contract_idx][i + 1];\n        }\n\n        parties[contract_idx].pop();\n\n        emit ContractEvent(contract_idx, \"PartyDeleted\", uintToString(party_idx));\n    }\n\n    function deleteParties(uint contract_idx) public onlyOwner {\n        require(contract_idx < contracts.length, \"Invalid contract index\");\n        delete parties[contract_idx];\n        emit ContractEvent(contract_idx, \"PartiesDeleted\", \"\");\n    }\n\n    function getArtifacts(uint contract_idx) public view returns (Artifact[] memory) {\n        require(contract_idx < contracts.length, \"Invalid contract index\");\n        return artifacts[contract_idx];\n    }\n\n    // Update addArtifact function:\n    function addArtifact(uint contract_idx, string memory doc_title, string memory doc_type, uint added_dt,\n        string memory s3_bucket, string memory s3_object_key, string memory s3_version_id) public onlyOwner {\n        require(contract_idx < contracts.length, \"Invalid contract index\");\n        Artifact memory artifact;\n        artifact.doc_title = doc_title;\n        artifact.doc_type = doc_type;\n        artifact.added_dt = added_dt;\n        artifact.s3_bucket = s3_bucket;\n        artifact.s3_object_key = s3_object_key;\n        artifact.s3_version_id = s3_version_id;\n        artifacts[contract_idx].push(artifact);\n        emit ContractEvent(contract_idx, \"ArtifactAdded\", doc_title);\n    }\n\n    function deleteArtifact(uint contract_idx, uint artifact_idx) public onlyOwner {\n        require(contract_idx < contracts.length, \"Invalid contract index\");\n        require(artifact_idx < artifacts[contract_idx].length, \"Invalid artifact index\");\n\n        for (uint i = artifact_idx; i < artifacts[contract_idx].length - 1; i++) {\n            artifacts[contract_idx][i] = artifacts[contract_idx][i + 1];\n        }\n\n        artifacts[contract_idx].pop();\n\n        emit ContractEvent(contract_idx, \"ArtifactDeleted\", uintToString(artifact_idx));\n    }\n\n    function deleteArtifacts(uint contract_idx) public onlyOwner {\n        require(contract_idx < contracts.length, \"Invalid contract index\");\n        delete artifacts[contract_idx];\n        emit ContractEvent(contract_idx, \"ArtifactsDeleted\", \"\");\n    }\n\n    function getSettlements(uint contract_idx) public view returns (Settlement[] memory) {\n        require(contract_idx < contracts.length, \"Invalid contract index\");\n        return settlements[contract_idx];\n    }\n\n    function addSettlement(uint contract_idx, string memory extended_data, uint settle_due_dt, uint transact_min_dt, uint transact_max_dt) public onlyOwner {\n        require(contract_idx < contracts.length, \"Invalid contract index\");\n        Settlement memory settlement;\n        settlement.settle_due_dt = settle_due_dt;\n        settlement.transact_min_dt = transact_min_dt;\n        settlement.transact_max_dt = transact_max_dt;\n        settlement.extended_data = extended_data;\n        settlements[contract_idx].push(settlement);\n        emit ContractEvent(contract_idx, \"SettlementAdded\", settlement.extended_data);\n    }\n\n    function deleteSettlements(uint contract_idx) public onlyOwner {\n        require(contract_idx < contracts.length, \"Invalid contract index\");\n        delete settlements[contract_idx];\n        emit ContractEvent(contract_idx, \"SettlementsDeleted\", \"\");\n    }\n\n    function getTransactions(uint contract_idx) public view returns (Transaction[] memory) {\n        require(contract_idx < contracts.length, \"Invalid contract index\");\n        return transactions[contract_idx];\n    }\n\n    function deleteTransactions(uint contract_idx) public onlyOwner {\n        require(contract_idx < contracts.length, \"Invalid contract index\");\n        delete transactions[contract_idx];\n        emit ContractEvent(contract_idx, \"TransactionsDeleted\", \"\");\n    }\n\n    function addTransaction(uint contract_idx, string memory extended_data, uint transact_dt, int transact_amt, string memory transact_data) public onlyOwner {\n        require(contract_idx < contracts.length, \"Invalid contract index\");\n\n        Transaction memory transact;\n        transact.extended_data = extended_data;\n        transact.transact_dt = transact_dt;\n        transact.transact_amt = transact_amt;\n        transact.transact_data = transact_data;\n\n        bool settle_found = false;\n        int transact_advance_amt = 0;\n        int transact_advance_amt_gross = 0;\n        int service_fee_amt = 0;\n\n        for (uint i = 0; i < settlements[contract_idx].length; i++) {\n            Settlement storage settlement = settlements[contract_idx][i];\n            // minimum date is inclusive, maximum date is exclusive\n            if (transact_dt >= settlement.transact_min_dt && transact_dt < settlement.transact_max_dt) {\n                if (transact_amt > 0) {\n                    service_fee_amt = int((contracts[contract_idx].service_fee_pct * uint(transact_amt)) / 10000) + int(contracts[contract_idx].service_fee_amt);\n                    transact_advance_amt_gross = int((uint(transact_amt) * contracts[contract_idx].advance_pct) / 10000);\n\n                    // Determine the final advance amount after subtracting the service fee\n                    if (transact_advance_amt_gross >= service_fee_amt) {\n                        transact_advance_amt = transact_advance_amt_gross - service_fee_amt;\n                    }\n                }\n\n                settlement.settle_exp_amt += transact_amt;\n                settlement.advance_amt += transact_advance_amt;\n                settlement.advance_amt_gross += transact_advance_amt_gross;\n                settlement.residual_exp_amt = settlement.settle_exp_amt - settlement.advance_amt_gross;\n                settlement.transact_count++;\n                transact.advance_amt = transact_advance_amt;\n                transact.service_fee_amt = service_fee_amt;\n                settle_found = true;\n            }\n        }\n\n        if (settle_found) {\n            transactions[contract_idx].push(transact);\n            emit ContractEvent(contract_idx, \"TransactionAdded\", transact.extended_data);\n        } else {\n            emit ContractEvent(contract_idx, \"TransactionError\", \"No valid settlement period\");\n        }\n    }\n\n    function payAdvance(uint contract_idx, uint transact_idx, uint advance_pay_dt, uint advance_pay_amt, string memory advance_confirm) public onlyOwner {\n        require(contract_idx < contracts.length, \"Invalid contract index\");\n        transactions[contract_idx][transact_idx].advance_pay_dt = advance_pay_dt;\n        transactions[contract_idx][transact_idx].advance_pay_amt = advance_pay_amt;\n        transactions[contract_idx][transact_idx].advance_confirm = advance_confirm;\n        emit ContractEvent(contract_idx, \"PayAdvance\", \"\");\n    }\n\n    function postSettlement(uint contract_idx, uint settle_idx, uint settle_pay_dt, int settle_pay_amt, string memory settle_confirm, string memory dispute_reason) public onlyOwner {\n        require(contract_idx < contracts.length, \"Invalid contract index\");\n        settlements[contract_idx][settle_idx].settle_pay_dt = settle_pay_dt;\n        settlements[contract_idx][settle_idx].settle_pay_amt = settle_pay_amt;\n        settlements[contract_idx][settle_idx].settle_confirm = settle_confirm;\n\n        if (settle_pay_dt > settlements[contract_idx][settle_idx].settle_due_dt) {\n            settlements[contract_idx][settle_idx].days_late = (settle_pay_dt - settlements[contract_idx][settle_idx].settle_due_dt) / 60 / 60 / 24;\n\n            // Convert necessary values to int to match types and avoid errors\n            int days_late = int(settlements[contract_idx][settle_idx].days_late);\n            int late_fee_pct = int(contracts[contract_idx].late_fee_pct);\n            int settle_exp_amt = settlements[contract_idx][settle_idx].settle_exp_amt;\n\n            settlements[contract_idx][settle_idx].late_fee_amt = (days_late * ((late_fee_pct * 100000) / 365) * settle_exp_amt) / 1000000000;\n        }\n\n        if (settle_pay_amt < settlements[contract_idx][settle_idx].settle_exp_amt) {\n            settlements[contract_idx][settle_idx].dispute_amt = settlements[contract_idx][settle_idx].settle_exp_amt - settle_pay_amt;\n            settlements[contract_idx][settle_idx].dispute_reason = dispute_reason;\n        } \n\n        if ((settlements[contract_idx][settle_idx].residual_exp_amt - settlements[contract_idx][settle_idx].late_fee_amt - settlements[contract_idx][settle_idx].dispute_amt) > 0) {\n            settlements[contract_idx][settle_idx].residual_calc_amt = settlements[contract_idx][settle_idx].residual_exp_amt - settlements[contract_idx][settle_idx].late_fee_amt -\n                settlements[contract_idx][settle_idx].dispute_amt;\n        } else {\n            settlements[contract_idx][settle_idx].residual_calc_amt = 0;\n        }\n\n        emit ContractEvent(contract_idx, \"PostSettlement\", \"\");\n    }\n\n    function payResidual(uint contract_idx, uint settle_idx, uint residual_pay_dt, int residual_pay_amt, string memory residual_confirm) public onlyOwner {\n        require(contract_idx < contracts.length, \"Invalid contract index\");\n        settlements[contract_idx][settle_idx].residual_pay_dt = residual_pay_dt;\n        settlements[contract_idx][settle_idx].residual_pay_amt = residual_pay_amt;\n        settlements[contract_idx][settle_idx].residual_confirm = residual_confirm;\n        emit ContractEvent(contract_idx, \"ResidualPaid\", \"\");\n    }\n\n    function uintToString(uint v) internal pure returns (string memory) {\n        if (v == 0) {\n            return \"0\";\n        }\n        uint j = v;\n        uint len;\n        while (j != 0) {\n            len++;\n            j /= 10;\n        }\n        bytes memory bstr = new bytes(len);\n        uint k = len;\n        while (v != 0) {\n            k = k - 1;\n            uint8 temp = (48 + uint8(v - v / 10 * 10));\n            bytes1 b1 = bytes1(temp);\n            bstr[k] = b1;\n            v /= 10;\n        }\n        return string(bstr);\n    }\n\n   function intToString(int v) internal pure returns (string memory) {\n        if (v == 0) {\n            return \"0\";\n        }\n\n        bool negative = v < 0;\n        uint len = 0;\n        uint i;\n        int temp = v;\n\n        if (negative) {\n            temp = -temp;\n            len++;\n        }\n\n        i = uint(temp);\n\n        while (i != 0) {\n            len++;\n            i /= 10;\n        }\n\n        bytes memory bstr = new bytes(len);\n        uint k = len;\n        i = uint(temp);\n\n        while (i != 0) {\n            k = k - 1;\n            uint8 tempDigit = (48 + uint8(i - i / 10 * 10));\n            bytes1 b1 = bytes1(tempDigit);\n            bstr[k] = b1;\n            i /= 10;\n        }\n\n        if (negative) {\n            bstr[0] = '-';\n        }\n\n        return string(bstr);\n    } \n\n    function boolToString(bool v) internal pure returns (string memory) {\n        return v ? \"true\" : \"false\";\n    }\n}",
  "sourcePath": "/Users/davidnichamoff/Projects/FIZIT_DEV/truffle/contracts/Delivery.sol",
  "compiler": {
    "name": "solc",
    "version": "0.8.0+commit.c7dfd78e.Emscripten.clang"
  },
  "schemaVersion": "3.4.16",
  "updatedAt": "2024-09-11T18:15:08.594Z",
  "networkType": "ethereum",
  "devdoc": {
    "kind": "dev",
    "methods": {},
    "version": 1
  },
  "userdoc": {
    "kind": "user",
    "methods": {},
    "version": 1
  }
}