{
  "contractName": "Delivery",
  "abi": [
    {
      "inputs": [],
      "stateMutability": "nonpayable",
      "type": "constructor"
    },
    {
      "anonymous": false,
      "inputs": [
        {
          "indexed": true,
          "internalType": "uint256",
          "name": "contract_idx",
          "type": "uint256"
        },
        {
          "indexed": true,
          "internalType": "uint256",
          "name": "transact_idx",
          "type": "uint256"
        }
      ],
      "name": "AdvancePaid",
      "type": "event"
    },
    {
      "anonymous": false,
      "inputs": [
        {
          "indexed": true,
          "internalType": "uint256",
          "name": "contract_idx",
          "type": "uint256"
        },
        {
          "indexed": true,
          "internalType": "uint256",
          "name": "artifact_idx",
          "type": "uint256"
        }
      ],
      "name": "ArtifactAdded",
      "type": "event"
    },
    {
      "anonymous": false,
      "inputs": [
        {
          "indexed": true,
          "internalType": "uint256",
          "name": "contract_idx",
          "type": "uint256"
        }
      ],
      "name": "ContractAdded",
      "type": "event"
    },
    {
      "anonymous": false,
      "inputs": [
        {
          "indexed": true,
          "internalType": "uint256",
          "name": "contract_idx",
          "type": "uint256"
        }
      ],
      "name": "ContractUpdated",
      "type": "event"
    },
    {
      "anonymous": false,
      "inputs": [
        {
          "indexed": true,
          "internalType": "uint256",
          "name": "contract_idx",
          "type": "uint256"
        },
        {
          "indexed": true,
          "internalType": "uint256",
          "name": "settle_idx",
          "type": "uint256"
        }
      ],
      "name": "ResidualPaid",
      "type": "event"
    },
    {
      "anonymous": false,
      "inputs": [
        {
          "indexed": true,
          "internalType": "uint256",
          "name": "contract_idx",
          "type": "uint256"
        },
        {
          "indexed": true,
          "internalType": "uint256",
          "name": "settle_idx",
          "type": "uint256"
        }
      ],
      "name": "SettlementAdded",
      "type": "event"
    },
    {
      "anonymous": false,
      "inputs": [
        {
          "indexed": true,
          "internalType": "uint256",
          "name": "contract_idx",
          "type": "uint256"
        },
        {
          "indexed": true,
          "internalType": "uint256",
          "name": "settle_idx",
          "type": "uint256"
        }
      ],
      "name": "SettlementPosted",
      "type": "event"
    },
    {
      "anonymous": false,
      "inputs": [
        {
          "indexed": true,
          "internalType": "uint256",
          "name": "contract_idx",
          "type": "uint256"
        },
        {
          "indexed": true,
          "internalType": "uint256",
          "name": "transact_idx",
          "type": "uint256"
        }
      ],
      "name": "TransactionAdded",
      "type": "event"
    },
    {
      "inputs": [],
      "name": "owner",
      "outputs": [
        {
          "internalType": "address",
          "name": "",
          "type": "address"
        }
      ],
      "stateMutability": "view",
      "type": "function",
      "constant": true
    },
    {
      "inputs": [],
      "name": "getContractCount",
      "outputs": [
        {
          "internalType": "uint256",
          "name": "",
          "type": "uint256"
        }
      ],
      "stateMutability": "view",
      "type": "function",
      "constant": true
    },
    {
      "inputs": [
        {
          "internalType": "uint256",
          "name": "contract_idx",
          "type": "uint256"
        }
      ],
      "name": "getContract",
      "outputs": [
        {
          "components": [
            {
              "internalType": "string",
              "name": "ext_id",
              "type": "string"
            },
            {
              "internalType": "string",
              "name": "contract_name",
              "type": "string"
            },
            {
              "internalType": "string",
              "name": "payment_instr",
              "type": "string"
            },
            {
              "internalType": "string",
              "name": "funding_instr",
              "type": "string"
            },
            {
              "internalType": "uint256",
              "name": "service_fee_pct",
              "type": "uint256"
            },
            {
              "internalType": "uint256",
              "name": "service_fee_amt",
              "type": "uint256"
            },
            {
              "internalType": "uint256",
              "name": "advance_pct",
              "type": "uint256"
            },
            {
              "internalType": "uint256",
              "name": "late_fee_pct",
              "type": "uint256"
            },
            {
              "internalType": "string",
              "name": "transact_logic",
              "type": "string"
            },
            {
              "internalType": "bool",
              "name": "is_active",
              "type": "bool"
            }
          ],
          "internalType": "struct Delivery.Contract",
          "name": "",
          "type": "tuple"
        }
      ],
      "stateMutability": "view",
      "type": "function",
      "constant": true
    },
    {
      "inputs": [
        {
          "components": [
            {
              "internalType": "string",
              "name": "ext_id",
              "type": "string"
            },
            {
              "internalType": "string",
              "name": "contract_name",
              "type": "string"
            },
            {
              "internalType": "string",
              "name": "payment_instr",
              "type": "string"
            },
            {
              "internalType": "string",
              "name": "funding_instr",
              "type": "string"
            },
            {
              "internalType": "uint256",
              "name": "service_fee_pct",
              "type": "uint256"
            },
            {
              "internalType": "uint256",
              "name": "service_fee_amt",
              "type": "uint256"
            },
            {
              "internalType": "uint256",
              "name": "advance_pct",
              "type": "uint256"
            },
            {
              "internalType": "uint256",
              "name": "late_fee_pct",
              "type": "uint256"
            },
            {
              "internalType": "string",
              "name": "transact_logic",
              "type": "string"
            },
            {
              "internalType": "bool",
              "name": "is_active",
              "type": "bool"
            }
          ],
          "internalType": "struct Delivery.Contract",
          "name": "contract_",
          "type": "tuple"
        }
      ],
      "name": "addContract",
      "outputs": [],
      "stateMutability": "nonpayable",
      "type": "function"
    },
    {
      "inputs": [
        {
          "internalType": "uint256",
          "name": "contract_idx",
          "type": "uint256"
        },
        {
          "components": [
            {
              "internalType": "string",
              "name": "ext_id",
              "type": "string"
            },
            {
              "internalType": "string",
              "name": "contract_name",
              "type": "string"
            },
            {
              "internalType": "string",
              "name": "payment_instr",
              "type": "string"
            },
            {
              "internalType": "string",
              "name": "funding_instr",
              "type": "string"
            },
            {
              "internalType": "uint256",
              "name": "service_fee_pct",
              "type": "uint256"
            },
            {
              "internalType": "uint256",
              "name": "service_fee_amt",
              "type": "uint256"
            },
            {
              "internalType": "uint256",
              "name": "advance_pct",
              "type": "uint256"
            },
            {
              "internalType": "uint256",
              "name": "late_fee_pct",
              "type": "uint256"
            },
            {
              "internalType": "string",
              "name": "transact_logic",
              "type": "string"
            },
            {
              "internalType": "bool",
              "name": "is_active",
              "type": "bool"
            }
          ],
          "internalType": "struct Delivery.Contract",
          "name": "contract_",
          "type": "tuple"
        }
      ],
      "name": "updateContract",
      "outputs": [],
      "stateMutability": "nonpayable",
      "type": "function"
    },
    {
      "inputs": [
        {
          "internalType": "uint256",
          "name": "contract_idx",
          "type": "uint256"
        }
      ],
      "name": "getArtifacts",
      "outputs": [
        {
          "components": [
            {
              "internalType": "string",
              "name": "artifact_id",
              "type": "string"
            },
            {
              "internalType": "uint256",
              "name": "added_dt",
              "type": "uint256"
            },
            {
              "internalType": "string",
              "name": "doc_title",
              "type": "string"
            },
            {
              "internalType": "string",
              "name": "doc_type",
              "type": "string"
            }
          ],
          "internalType": "struct Delivery.Artifact[]",
          "name": "",
          "type": "tuple[]"
        }
      ],
      "stateMutability": "view",
      "type": "function",
      "constant": true
    },
    {
      "inputs": [
        {
          "internalType": "uint256",
          "name": "contract_idx",
          "type": "uint256"
        },
        {
          "internalType": "string",
          "name": "artifact_id",
          "type": "string"
        },
        {
          "internalType": "string",
          "name": "doc_title",
          "type": "string"
        },
        {
          "internalType": "string",
          "name": "doc_type",
          "type": "string"
        },
        {
          "internalType": "uint256",
          "name": "added_dt",
          "type": "uint256"
        }
      ],
      "name": "addArtifact",
      "outputs": [],
      "stateMutability": "nonpayable",
      "type": "function"
    },
    {
      "inputs": [
        {
          "internalType": "uint256",
          "name": "contract_idx",
          "type": "uint256"
        }
      ],
      "name": "deleteArtifacts",
      "outputs": [],
      "stateMutability": "nonpayable",
      "type": "function"
    },
    {
      "inputs": [
        {
          "internalType": "uint256",
          "name": "contract_idx",
          "type": "uint256"
        }
      ],
      "name": "getSettlements",
      "outputs": [
        {
          "components": [
            {
              "internalType": "string",
              "name": "ext_id",
              "type": "string"
            },
            {
              "internalType": "uint256",
              "name": "settle_due_dt",
              "type": "uint256"
            },
            {
              "internalType": "uint256",
              "name": "transact_min_dt",
              "type": "uint256"
            },
            {
              "internalType": "uint256",
              "name": "transact_max_dt",
              "type": "uint256"
            },
            {
              "internalType": "uint256",
              "name": "transact_count",
              "type": "uint256"
            },
            {
              "internalType": "uint256",
              "name": "settle_pay_dt",
              "type": "uint256"
            },
            {
              "internalType": "uint256",
              "name": "settle_exp_amt",
              "type": "uint256"
            },
            {
              "internalType": "uint256",
              "name": "settle_pay_amt",
              "type": "uint256"
            },
            {
              "internalType": "string",
              "name": "settle_confirm",
              "type": "string"
            },
            {
              "internalType": "uint256",
              "name": "dispute_amt",
              "type": "uint256"
            },
            {
              "internalType": "string",
              "name": "dispute_reason",
              "type": "string"
            },
            {
              "internalType": "uint256",
              "name": "days_late",
              "type": "uint256"
            },
            {
              "internalType": "uint256",
              "name": "late_fee_amt",
              "type": "uint256"
            },
            {
              "internalType": "uint256",
              "name": "residual_pay_dt",
              "type": "uint256"
            },
            {
              "internalType": "uint256",
              "name": "residual_pay_amt",
              "type": "uint256"
            },
            {
              "internalType": "string",
              "name": "residual_confirm",
              "type": "string"
            },
            {
              "internalType": "uint256",
              "name": "residual_exp_amt",
              "type": "uint256"
            },
            {
              "internalType": "uint256",
              "name": "residual_calc_amt",
              "type": "uint256"
            }
          ],
          "internalType": "struct Delivery.Settlement[]",
          "name": "",
          "type": "tuple[]"
        }
      ],
      "stateMutability": "view",
      "type": "function",
      "constant": true
    },
    {
      "inputs": [
        {
          "internalType": "uint256",
          "name": "contract_idx",
          "type": "uint256"
        },
        {
          "internalType": "string",
          "name": "ext_id",
          "type": "string"
        },
        {
          "internalType": "uint256",
          "name": "settle_due_dt",
          "type": "uint256"
        },
        {
          "internalType": "uint256",
          "name": "transact_min_dt",
          "type": "uint256"
        },
        {
          "internalType": "uint256",
          "name": "transact_max_dt",
          "type": "uint256"
        }
      ],
      "name": "addSettlement",
      "outputs": [],
      "stateMutability": "nonpayable",
      "type": "function"
    },
    {
      "inputs": [
        {
          "internalType": "uint256",
          "name": "contract_idx",
          "type": "uint256"
        }
      ],
      "name": "deleteSettlements",
      "outputs": [],
      "stateMutability": "nonpayable",
      "type": "function"
    },
    {
      "inputs": [
        {
          "internalType": "uint256",
          "name": "contract_idx",
          "type": "uint256"
        }
      ],
      "name": "getTransactions",
      "outputs": [
        {
          "components": [
            {
              "internalType": "string",
              "name": "ext_id",
              "type": "string"
            },
            {
              "internalType": "uint256",
              "name": "transact_dt",
              "type": "uint256"
            },
            {
              "internalType": "uint256",
              "name": "transact_amt",
              "type": "uint256"
            },
            {
              "internalType": "uint256",
              "name": "advance_amt",
              "type": "uint256"
            },
            {
              "internalType": "string",
              "name": "transact_data",
              "type": "string"
            },
            {
              "internalType": "uint256",
              "name": "advance_pay_dt",
              "type": "uint256"
            },
            {
              "internalType": "uint256",
              "name": "advance_pay_amt",
              "type": "uint256"
            },
            {
              "internalType": "string",
              "name": "advance_confirm",
              "type": "string"
            }
          ],
          "internalType": "struct Delivery.Transaction[]",
          "name": "",
          "type": "tuple[]"
        }
      ],
      "stateMutability": "view",
      "type": "function",
      "constant": true
    },
    {
      "inputs": [
        {
          "internalType": "uint256",
          "name": "contract_idx",
          "type": "uint256"
        },
        {
          "internalType": "string",
          "name": "ext_id",
          "type": "string"
        },
        {
          "internalType": "uint256",
          "name": "transact_dt",
          "type": "uint256"
        },
        {
          "internalType": "uint256",
          "name": "transact_amt",
          "type": "uint256"
        },
        {
          "internalType": "string",
          "name": "transact_data",
          "type": "string"
        }
      ],
      "name": "addTransaction",
      "outputs": [],
      "stateMutability": "nonpayable",
      "type": "function"
    },
    {
      "inputs": [
        {
          "internalType": "uint256",
          "name": "contract_idx",
          "type": "uint256"
        }
      ],
      "name": "deleteTransactions",
      "outputs": [],
      "stateMutability": "nonpayable",
      "type": "function"
    },
    {
      "inputs": [
        {
          "internalType": "uint256",
          "name": "contract_idx",
          "type": "uint256"
        },
        {
          "internalType": "uint256",
          "name": "transact_idx",
          "type": "uint256"
        },
        {
          "internalType": "uint256",
          "name": "advance_pay_dt",
          "type": "uint256"
        },
        {
          "internalType": "uint256",
          "name": "advance_pay_amt",
          "type": "uint256"
        },
        {
          "internalType": "string",
          "name": "advance_confirm",
          "type": "string"
        }
      ],
      "name": "payAdvance",
      "outputs": [],
      "stateMutability": "nonpayable",
      "type": "function"
    },
    {
      "inputs": [
        {
          "internalType": "uint256",
          "name": "contract_idx",
          "type": "uint256"
        },
        {
          "internalType": "uint256",
          "name": "settle_idx",
          "type": "uint256"
        },
        {
          "internalType": "uint256",
          "name": "settle_pay_dt",
          "type": "uint256"
        },
        {
          "internalType": "uint256",
          "name": "settle_pay_amt",
          "type": "uint256"
        },
        {
          "internalType": "string",
          "name": "settle_confirm",
          "type": "string"
        },
        {
          "internalType": "string",
          "name": "dispute_reason",
          "type": "string"
        }
      ],
      "name": "postSettlement",
      "outputs": [],
      "stateMutability": "nonpayable",
      "type": "function"
    },
    {
      "inputs": [
        {
          "internalType": "uint256",
          "name": "contract_idx",
          "type": "uint256"
        },
        {
          "internalType": "uint256",
          "name": "settle_idx",
          "type": "uint256"
        },
        {
          "internalType": "uint256",
          "name": "residual_pay_dt",
          "type": "uint256"
        },
        {
          "internalType": "uint256",
          "name": "residual_pay_amt",
          "type": "uint256"
        },
        {
          "internalType": "string",
          "name": "residual_confirm",
          "type": "string"
        }
      ],
      "name": "payResidual",
      "outputs": [],
      "stateMutability": "nonpayable",
      "type": "function"
    }
  ],
  "bytecode": "0x608060405234801561001057600080fd5b50600080546001600160a01b0319163317905561301a806100326000396000f3fe608060405234801561001057600080fd5b506004361061010b5760003560e01c806375483e46116100a2578063bf28603211610071578063bf2860321461022a578063d31134121461023d578063eff235661461025d578063f06e992d14610270578063fcf45c0f146102835761010b565b806375483e46146101da5780638da5cb5b146101ed5780639399869d14610202578063a2a78929146102175761010b565b80635b1ffac3116100de5780635b1ffac3146101815780635b4e97e714610194578063610df22e146101a75780636ebc8c86146101ba5761010b565b806311ef56de146101105780633cbfb1b51461012557806346f920fd146101385780635742177c14610161575b600080fd5b61012361011e366004612785565b610296565b005b61012361013336600461279d565b6102e3565b61014b610146366004612785565b6103f6565b6040516101589190612b3f565b60405180910390f35b61017461016f366004612785565b61073e565b6040516101589190612c89565b61012361018f3660046129ab565b61098e565b6101236101a2366004612785565b611038565b6101236101b5366004612956565b61109a565b6101cd6101c8366004612785565b6111de565b6040516101589190612dde565b6101236101e8366004612956565b61153a565b6101f561167e565b6040516101589190612a82565b61020a61168d565b6040516101589190612ec1565b6101236102253660046128b1565b611693565b610123610238366004612911565b611850565b61025061024b366004612785565b6119a8565b6040516101589190612a96565b61012361026b36600461274a565b611bcf565b61012361027e366004612833565b611d30565b610123610291366004612785565b612168565b6000546001600160a01b031633146102c95760405162461bcd60e51b81526004016102c090612d81565b60405180910390fd5b60008181526004602052604081206102e0916121ca565b50565b6000546001600160a01b0316331461030d5760405162461bcd60e51b81526004016102c090612d81565b6103156121eb565b60208082018390528582526040808301869052606083018590526000888152600480845291812080546001810182559082529083902084518051869593909402909101926103669284920190612213565b506020828101516001830155604083015180516103899260028501920190612213565b50606082015180516103a5916003840191602090910190612213565b5050506000868152600460205260409020546103c390600190612f4b565b60405187907faf68d5a9ee2703c2a87bcdde7cf74ba8104700f3783a93f0d78e8f93c0c1f1c390600090a3505050505050565b606060026000838152602001908152602001600020805480602002602001604051908101604052809291908181526020016000905b8282101561073257838290600052602060002090601202016040518061024001604052908160008201805461045f90612f62565b80601f016020809104026020016040519081016040528092919081815260200182805461048b90612f62565b80156104d85780601f106104ad576101008083540402835291602001916104d8565b820191906000526020600020905b8154815290600101906020018083116104bb57829003601f168201915b505050505081526020016001820154815260200160028201548152602001600382015481526020016004820154815260200160058201548152602001600682015481526020016007820154815260200160088201805461053790612f62565b80601f016020809104026020016040519081016040528092919081815260200182805461056390612f62565b80156105b05780601f10610585576101008083540402835291602001916105b0565b820191906000526020600020905b81548152906001019060200180831161059357829003601f168201915b5050505050815260200160098201548152602001600a820180546105d390612f62565b80601f01602080910402602001604051908101604052809291908181526020018280546105ff90612f62565b801561064c5780601f106106215761010080835404028352916020019161064c565b820191906000526020600020905b81548152906001019060200180831161062f57829003601f168201915b50505050508152602001600b8201548152602001600c8201548152602001600d8201548152602001600e8201548152602001600f8201805461068d90612f62565b80601f01602080910402602001604051908101604052809291908181526020018280546106b990612f62565b80156107065780601f106106db57610100808354040283529160200191610706565b820191906000526020600020905b8154815290600101906020018083116106e957829003601f168201915b50505050508152602001601082015481526020016011820154815250508152602001906001019061042b565b5050505090505b919050565b606060036000838152602001908152602001600020805480602002602001604051908101604052809291908181526020016000905b828210156107325783829060005260206000209060080201604051806101000160405290816000820180546107a790612f62565b80601f01602080910402602001604051908101604052809291908181526020018280546107d390612f62565b80156108205780601f106107f557610100808354040283529160200191610820565b820191906000526020600020905b81548152906001019060200180831161080357829003601f168201915b5050505050815260200160018201548152602001600282015481526020016003820154815260200160048201805461085790612f62565b80601f016020809104026020016040519081016040528092919081815260200182805461088390612f62565b80156108d05780601f106108a5576101008083540402835291602001916108d0565b820191906000526020600020905b8154815290600101906020018083116108b357829003601f168201915b5050505050815260200160058201548152602001600682015481526020016007820180546108fd90612f62565b80601f016020809104026020016040519081016040528092919081815260200182805461092990612f62565b80156109765780601f1061094b57610100808354040283529160200191610976565b820191906000526020600020905b81548152906001019060200180831161095957829003601f168201915b50505050508152505081526020019060010190610773565b6000546001600160a01b031633146109b85760405162461bcd60e51b81526004016102c090612d81565b60008681526002602052604090208054859190879081106109e957634e487b7160e01b600052603260045260246000fd5b90600052602060002090601202016005018190555082600260008881526020019081526020016000208681548110610a3157634e487b7160e01b600052603260045260246000fd5b90600052602060002090601202016007018190555081600260008881526020019081526020016000208681548110610a7957634e487b7160e01b600052603260045260246000fd5b90600052602060002090601202016008019080519060200190610a9d929190612213565b506000868152600260205260409020805486908110610acc57634e487b7160e01b600052603260045260246000fd5b906000526020600020906012020160010154841115610cd3576018603c80600260008a81526020019081526020016000208881548110610b1c57634e487b7160e01b600052603260045260246000fd5b90600052602060002090601202016001015487610b399190612f4b565b610b439190612f0c565b610b4d9190612f0c565b610b579190612f0c565b6000878152600260205260409020805487908110610b8557634e487b7160e01b600052603260045260246000fd5b9060005260206000209060120201600b0181905550633b9aca00600260008881526020019081526020016000208681548110610bd157634e487b7160e01b600052603260045260246000fd5b90600052602060002090601202016006015461016d60018981548110610c0757634e487b7160e01b600052603260045260246000fd5b90600052602060002090600a020160070154620186a0610c279190612f2c565b610c319190612f0c565b6000898152600260205260409020805489908110610c5f57634e487b7160e01b600052603260045260246000fd5b9060005260206000209060120201600b0154610c7b9190612f2c565b610c859190612f2c565b610c8f9190612f0c565b6000878152600260205260409020805487908110610cbd57634e487b7160e01b600052603260045260246000fd5b9060005260206000209060120201600c01819055505b6000868152600260205260409020805486908110610d0157634e487b7160e01b600052603260045260246000fd5b906000526020600020906012020160100154831015610e01576000868152600260205260409020805486908110610d4857634e487b7160e01b600052603260045260246000fd5b90600052602060002090601202016010015483610d659190612f4b565b6000878152600260205260409020805487908110610d9357634e487b7160e01b600052603260045260246000fd5b90600052602060002090601202016009018190555080600260008881526020019081526020016000208681548110610ddb57634e487b7160e01b600052603260045260246000fd5b9060005260206000209060120201600a019080519060200190610dff929190612213565b505b6000868152600260205260408120805487908110610e2f57634e487b7160e01b600052603260045260246000fd5b906000526020600020906012020160090154600260008981526020019081526020016000208781548110610e7357634e487b7160e01b600052603260045260246000fd5b9060005260206000209060120201600c0154600260008a81526020019081526020016000208881548110610eb757634e487b7160e01b600052603260045260246000fd5b906000526020600020906012020160100154610ed39190612f4b565b610edd9190612f4b565b1115611003576000868152600260205260409020805486908110610f1157634e487b7160e01b600052603260045260246000fd5b906000526020600020906012020160090154600260008881526020019081526020016000208681548110610f5557634e487b7160e01b600052603260045260246000fd5b9060005260206000209060120201600c0154600260008981526020019081526020016000208781548110610f9957634e487b7160e01b600052603260045260246000fd5b906000526020600020906012020160100154610fb59190612f4b565b610fbf9190612f4b565b6000878152600260205260409020805487908110610fed57634e487b7160e01b600052603260045260246000fd5b9060005260206000209060120201601101819055505b604051859087907fdb8dfacbe40a34c0dff0b240c96463a24f726a750217da7fc2d367a967e815b090600090a3505050505050565b6000546001600160a01b031633146110625760405162461bcd60e51b81526004016102c090612d81565b60015481106110835760405162461bcd60e51b81526004016102c090612d51565b60008181526002602052604081206102e091612297565b6000546001600160a01b031633146110c45760405162461bcd60e51b81526004016102c090612d81565b60008581526002602052604090208054849190869081106110f557634e487b7160e01b600052603260045260246000fd5b9060005260206000209060120201600d01819055508160026000878152602001908152602001600020858154811061113d57634e487b7160e01b600052603260045260246000fd5b9060005260206000209060120201600e01819055508060026000878152602001908152602001600020858154811061118557634e487b7160e01b600052603260045260246000fd5b9060005260206000209060120201600f0190805190602001906111a9929190612213565b50604051849086907f7929c954daef6a710aa03e6698979bdefbfec7b56dbf98ee261ba830b60f444b90600090a35050505050565b6111e66122b8565b6001828154811061120757634e487b7160e01b600052603260045260246000fd5b90600052602060002090600a02016040518061014001604052908160008201805461123190612f62565b80601f016020809104026020016040519081016040528092919081815260200182805461125d90612f62565b80156112aa5780601f1061127f576101008083540402835291602001916112aa565b820191906000526020600020905b81548152906001019060200180831161128d57829003601f168201915b505050505081526020016001820180546112c390612f62565b80601f01602080910402602001604051908101604052809291908181526020018280546112ef90612f62565b801561133c5780601f106113115761010080835404028352916020019161133c565b820191906000526020600020905b81548152906001019060200180831161131f57829003601f168201915b5050505050815260200160028201805461135590612f62565b80601f016020809104026020016040519081016040528092919081815260200182805461138190612f62565b80156113ce5780601f106113a3576101008083540402835291602001916113ce565b820191906000526020600020905b8154815290600101906020018083116113b157829003601f168201915b505050505081526020016003820180546113e790612f62565b80601f016020809104026020016040519081016040528092919081815260200182805461141390612f62565b80156114605780601f1061143557610100808354040283529160200191611460565b820191906000526020600020905b81548152906001019060200180831161144357829003601f168201915b50505050508152602001600482015481526020016005820154815260200160068201548152602001600782015481526020016008820180546114a190612f62565b80601f01602080910402602001604051908101604052809291908181526020018280546114cd90612f62565b801561151a5780601f106114ef5761010080835404028352916020019161151a565b820191906000526020600020905b8154815290600101906020018083116114fd57829003601f168201915b50505091835250506009919091015460ff16151560209091015292915050565b6000546001600160a01b031633146115645760405162461bcd60e51b81526004016102c090612d81565b600085815260036020526040902080548491908690811061159557634e487b7160e01b600052603260045260246000fd5b906000526020600020906008020160050181905550816003600087815260200190815260200160002085815481106115dd57634e487b7160e01b600052603260045260246000fd5b9060005260206000209060080201600601819055508060036000878152602001908152602001600020858154811061162557634e487b7160e01b600052603260045260246000fd5b90600052602060002090600802016007019080519060200190611649929190612213565b50604051849086907f16e8ade13d35dae069c2f8331054adb6e19dc017359fb7320f0525b14610abe390600090a35050505050565b6000546001600160a01b031681565b60015490565b6000546001600160a01b031633146116bd5760405162461bcd60e51b81526004016102c090612d81565b6116c561230d565b602080820185905260408083018590526060830184905286835260008881526002835290812080546001810182559082529082902083518051859460129094029092019261171892849290910190612213565b50602082810151600183015560408301516002830155606083015160038301556080830151600483015560a0830151600583015560c0830151600683015560e0830151600783015561010083015180516117789260088501920190612213565b50610120820151600982015561014082015180516117a091600a840191602090910190612213565b50610160820151600b820155610180820151600c8201556101a0820151600d8201556101c0820151600e8201556101e082015180516117e991600f840191602090910190612213565b5061020082015160108201556102209091015160119091015560008681526002602052604090205461181d90600190612f4b565b60405187907f619d28e2ba9cff33c9f9ae92d173352dcd8538835181c81cc2499e2e05b4c5e490600090a3505050505050565b6000546001600160a01b0316331461187a5760405162461bcd60e51b81526004016102c090612d81565b806001838154811061189c57634e487b7160e01b600052603260045260246000fd5b90600052602060002090600a020160008201518160000190805190602001906118c6929190612213565b5060208281015180516118df9260018501920190612213565b50604082015180516118fb916002840191602090910190612213565b5060608201518051611917916003840191602090910190612213565b506080820151600482015560a0820151600582015560c0820151600682015560e08201516007820155610100820151805161195c916008840191602090910190612213565b5061012091909101516009909101805460ff191691151591909117905560405182907f1d9fa56a87ca45734eb083fa91790c0e4ca990f9e3587510a93bd2a6405da10090600090a25050565b606060046000838152602001908152602001600020805480602002602001604051908101604052809291908181526020016000905b828210156107325783829060005260206000209060040201604051806080016040529081600082018054611a1090612f62565b80601f0160208091040260200160405190810160405280929190818152602001828054611a3c90612f62565b8015611a895780601f10611a5e57610100808354040283529160200191611a89565b820191906000526020600020905b815481529060010190602001808311611a6c57829003601f168201915b5050505050815260200160018201548152602001600282018054611aac90612f62565b80601f0160208091040260200160405190810160405280929190818152602001828054611ad890612f62565b8015611b255780601f10611afa57610100808354040283529160200191611b25565b820191906000526020600020905b815481529060010190602001808311611b0857829003601f168201915b50505050508152602001600382018054611b3e90612f62565b80601f0160208091040260200160405190810160405280929190818152602001828054611b6a90612f62565b8015611bb75780601f10611b8c57610100808354040283529160200191611bb7565b820191906000526020600020905b815481529060010190602001808311611b9a57829003601f168201915b505050505081525050815260200190600101906119dd565b6000546001600160a01b03163314611bf95760405162461bcd60e51b81526004016102c090612d81565b600180548082018255600091909152815180518392600a027fb10e2d527612073b26eecdfd717e6a320cf44b4afac2b0732d9fcbe2b7fa0cf60191611c4391839160200190612213565b506020828101518051611c5c9260018501920190612213565b5060408201518051611c78916002840191602090910190612213565b5060608201518051611c94916003840191602090910190612213565b506080820151600482015560a0820151600582015560c0820151600682015560e082015160078201556101008201518051611cd9916008840191602090910190612213565b5061012091909101516009909101805460ff191691151591909117905560018054611d049190612f4b565b6040517fac210b01e42cafdce02d0cd5dc41f3fe6a7245262f52a1cdf2a2eea60dada94090600090a250565b6000546001600160a01b03163314611d5a5760405162461bcd60e51b81526004016102c090612d81565b611d62612398565b84815260208101849052604081018390526080810182905260005b600087815260026020526040902054811015611f8c576000878152600260205260409020805482908110611dc157634e487b7160e01b600052603260045260246000fd5b9060005260206000209060120201600201548510158015611e2057506000878152600260205260409020805482908110611e0b57634e487b7160e01b600052603260045260246000fd5b90600052602060002090601202016003015485105b15611f7a576000878152600260205260409020805482908110611e5357634e487b7160e01b600052603260045260246000fd5b600091825260208220600460129092020101805491611e7183612f9d565b90915550506040808301516000898152600260205291909120805483908110611eaa57634e487b7160e01b600052603260045260246000fd5b90600052602060002090601202016006016000828254611eca9190612ef4565b9250508190555061271060018881548110611ef557634e487b7160e01b600052603260045260246000fd5b90600052602060002090600a02016006015485611f129190612f2c565b611f1c9190612f0c565b611f269085612f4b565b6000888152600260205260409020805483908110611f5457634e487b7160e01b600052603260045260246000fd5b90600052602060002090601202016010016000828254611f749190612ef4565b90915550505b80611f8481612f9d565b915050611d7d565b50600060018781548110611fb057634e487b7160e01b600052603260045260246000fd5b90600052602060002090600a0201600501546127108560018a81548110611fe757634e487b7160e01b600052603260045260246000fd5b90600052602060002090600a0201600401546120039190612f2c565b61200d9190612f0c565b6120179190612ef4565b9050806127106001898154811061203e57634e487b7160e01b600052603260045260246000fd5b90600052602060002090600a0201600601548661205b9190612f2c565b6120659190612f0c565b61206f9190612f4b565b606083015260008781526003602090815260408220805460018101825590835291819020845180518694600802909201926120af92849290910190612213565b5060208281015160018301556040830151600283015560608301516003830155608083015180516120e69260048501920190612213565b5060a0820151600582015560c0820151600682015560e08201518051612116916007840191602090910190612213565b50505060008781526003602052604090205461213490600190612f4b565b60405188907f3e8e23c97d0d7bdf58a8c0b86dd5f225d5bf51de564f91e7b100bfb6c335994090600090a350505050505050565b6000546001600160a01b031633146121925760405162461bcd60e51b81526004016102c090612d81565b60015481106121b35760405162461bcd60e51b81526004016102c090612d51565b60008181526003602052604081206102e0916123dd565b50805460008255600402906000526020600020908101906102e091906123fe565b6040518060800160405280606081526020016000815260200160608152602001606081525090565b82805461221f90612f62565b90600052602060002090601f0160209004810192826122415760008555612287565b82601f1061225a57805160ff1916838001178555612287565b82800160010185558215612287579182015b8281111561228757825182559160200191906001019061226c565b50612293929150612441565b5090565b50805460008255601202906000526020600020908101906102e09190612456565b6040518061014001604052806060815260200160608152602001606081526020016060815260200160008152602001600081526020016000815260200160008152602001606081526020016000151581525090565b6040518061024001604052806060815260200160008152602001600081526020016000815260200160008152602001600081526020016000815260200160008152602001606081526020016000815260200160608152602001600081526020016000815260200160008152602001600081526020016060815260200160008152602001600081525090565b60405180610100016040528060608152602001600081526020016000815260200160008152602001606081526020016000815260200160008152602001606081525090565b50805460008255600802906000526020600020908101906102e09190612511565b808211156122935760006124128282612576565b600182016000905560028201600061242a9190612576565b612438600383016000612576565b506004016123fe565b5b808211156122935760008155600101612442565b8082111561229357600061246a8282612576565b60018201600090556002820160009055600382016000905560048201600090556005820160009055600682016000905560078201600090556008820160006124b29190612576565b6009820160009055600a820160006124ca9190612576565b600b820160009055600c820160009055600d820160009055600e820160009055600f820160006124fa9190612576565b506000601082018190556011820155601201612456565b808211156122935760006125258282612576565b60018201600090556002820160009055600382016000905560048201600061254d9190612576565b6005820160009055600682016000905560078201600061256d9190612576565b50600801612511565b50805461258290612f62565b6000825580601f1061259457506102e0565b601f0160209004906000526020600020908101906102e09190612441565b8035801515811461073957600080fd5b600082601f8301126125d2578081fd5b813567ffffffffffffffff8111156125ec576125ec612fce565b6125ff601f8201601f1916602001612eca565b818152846020838601011115612613578283fd5b816020850160208301379081016020019190915292915050565b6000610140808385031215612640578182fd5b61264981612eca565b915050813567ffffffffffffffff8082111561266457600080fd5b612670858386016125c2565b8352602084013591508082111561268657600080fd5b612692858386016125c2565b602084015260408401359150808211156126ab57600080fd5b6126b7858386016125c2565b604084015260608401359150808211156126d057600080fd5b6126dc858386016125c2565b60608401526080840135608084015260a084013560a084015260c084013560c084015260e084013560e08401526101009150818401358181111561271f57600080fd5b61272b868287016125c2565b838501525050506101206127408184016125b2565b9082015292915050565b60006020828403121561275b578081fd5b813567ffffffffffffffff811115612771578182fd5b61277d8482850161262d565b949350505050565b600060208284031215612796578081fd5b5035919050565b600080600080600060a086880312156127b4578081fd5b85359450602086013567ffffffffffffffff808211156127d2578283fd5b6127de89838a016125c2565b955060408801359150808211156127f3578283fd5b6127ff89838a016125c2565b94506060880135915080821115612814578283fd5b50612821888289016125c2565b95989497509295608001359392505050565b600080600080600060a0868803121561284a578081fd5b85359450602086013567ffffffffffffffff80821115612868578283fd5b61287489838a016125c2565b955060408801359450606088013593506080880135915080821115612897578283fd5b506128a4888289016125c2565b9150509295509295909350565b600080600080600060a086880312156128c8578081fd5b85359450602086013567ffffffffffffffff8111156128e5578182fd5b6128f1888289016125c2565b959895975050505060408401359360608101359360809091013592509050565b60008060408385031215612923578182fd5b82359150602083013567ffffffffffffffff811115612940578182fd5b61294c8582860161262d565b9150509250929050565b600080600080600060a0868803121561296d578081fd5b85359450602086013593506040860135925060608601359150608086013567ffffffffffffffff81111561299f578182fd5b6128a4888289016125c2565b60008060008060008060c087890312156129c3578081fd5b86359550602087013594506040870135935060608701359250608087013567ffffffffffffffff808211156129f6578283fd5b612a028a838b016125c2565b935060a0890135915080821115612a17578283fd5b50612a2489828a016125c2565b9150509295509295509295565b15159052565b60008151808452815b81811015612a5c57602081850181015186830182015201612a40565b81811115612a6d5782602083870101525b50601f01601f19169290920160200192915050565b6001600160a01b0391909116815260200190565b60208082528251828201819052600091906040908185019080840286018301878501865b83811015612b3157603f19898403018552815160808151818652612ae082870182612a37565b91505088820151898601528782015185820389870152612b008282612a37565b91505060608083015192508582038187015250612b1d8183612a37565b968901969450505090860190600101612aba565b509098975050505050505050565b60208082528251828201819052600091906040908185019080840286018301878501865b83811015612b3157603f1989840301855281516102408151818652612b8a82870182612a37565b838b0151878c0152898401518a880152606080850151908801526080808501519088015260a0808501519088015260c0808501519088015260e0808501519088015261010080850151888303828a01529193509150612be98382612a37565b925050506101208083015181870152506101408083015186830382880152612c118382612a37565b610160858101519089015261018080860151908901526101a080860151908901526101c080860151908901526101e080860151898303828b015291945092509050612c5c8382612a37565b61020085810151908901526102209485015194909701939093525050509386019390860190600101612b63565b60208082528251828201819052600091906040908185019080840286018301878501865b83811015612b3157603f1989840301855281516101008151818652612cd482870182612a37565b91505088820151898601528782015188860152606080830151818701525060808083015186830382880152612d098382612a37565b9250505060a080830151818701525060c080830151818701525060e08083015192508582038187015250612d3d8183612a37565b968901969450505090860190600101612cad565b602080825260169082015275092dcecc2d8d2c840c6dedce8e4c2c6e840d2dcc8caf60531b604082015260600190565b60208082526039908201527f4163636573732064656e6965642c206f6e6c7920636f6e7472616374206f776e60408201527f65722063616e2063616c6c20746869732066756e6374696f6e00000000000000606082015260800190565b6000602082528251610140806020850152612dfd610160850183612a37565b91506020850151601f1980868503016040870152612e1b8483612a37565b93506040870151915080868503016060870152612e388483612a37565b93506060870151915080868503016080870152612e558483612a37565b9350608087015160a087015260a087015160c087015260c087015160e087015260e08701519150610100828188015280880151925050610120818786030181880152612ea18584612a37565b94508088015192505050612eb782860182612a31565b5090949350505050565b90815260200190565b60405181810167ffffffffffffffff81118282101715612eec57612eec612fce565b604052919050565b60008219821115612f0757612f07612fb8565b500190565b600082612f2757634e487b7160e01b81526012600452602481fd5b500490565b6000816000190483118215151615612f4657612f46612fb8565b500290565b600082821015612f5d57612f5d612fb8565b500390565b600281046001821680612f7657607f821691505b60208210811415612f9757634e487b7160e01b600052602260045260246000fd5b50919050565b6000600019821415612fb157612fb1612fb8565b5060010190565b634e487b7160e01b600052601160045260246000fd5b634e487b7160e01b600052604160045260246000fdfea264697066735822122057160f06122c1d912ecdc3f43e46def45101516b840081f2b0fdb2dd14c572fe64736f6c63430008000033",
  "immutableReferences": {},
  "source": "// SPDX-License-Identifier: MIT\npragma solidity ^0.8.0;\n\ncontract Delivery {\n\n    address public owner;\n    \n    Contract[] contracts;                                   // [contract_idx]\n    mapping (uint => Settlement[]) private settlements;     // contract_idx => settlement[]\n    mapping (uint => Transaction[]) private transactions;   // contract_idx => transaction[]\n    mapping (uint => Artifact[]) private artifacts;           // contract_idx => artifact_list[]\n\n    // every field ending in _dt is a unix timestamp\n    // every field ending in _amt is an integer representing a float with 2 decimals\n    // every field ending in _pct is an integer represending a float value with 4 decimals \n    // every field ending in _confirm is a string returned from the fiat payment provider\n\n    struct Contract {\n        string ext_id;                  // json with list of external_id(s) for contract\n        string contract_name;           // non-unique, description for display purposes\n        string payment_instr;           // seller payment instructions\n        string funding_instr;           // buyer funding instructions\n        uint service_fee_pct;           // service fee can include a pct + flat rate amt\n        uint service_fee_amt;           \n        uint advance_pct;               // amount of money that will be advanced to seller for every transaction\n        uint late_fee_pct;              // an APR, daily rate calculated as late_fee_pct / 365\n        string transact_logic;          // jsonlogic formula for calculating transaction amount\n        bool is_active;                 // instead of deleting, clear this flag to False\n    }    \n\n    struct Settlement {\n        string ext_id;                  // json with list of external_id(s), e.g. invoice_id\n        uint settle_due_dt;             // date the payment is due (midnight)   \n        uint transact_min_dt;           // min date the transaction is made (midnight)\n        uint transact_max_dt;           // max date the transaction is made (midnight) \n        uint transact_count; \n        uint settle_pay_dt;\n        uint settle_exp_amt;            // expected amount of settlement\n        uint settle_pay_amt;            // actual amount paid from the buyer\n        string settle_confirm;\n        uint dispute_amt;               // if expected  < actual, assume there was a dispute\n        string dispute_reason;\n        uint days_late; \n        uint late_fee_amt;              // amount of the late fee, will be taken out of the residual\n        uint residual_pay_dt;\n        uint residual_pay_amt;          // will equal residual_calc_amt after payment intitiated\n        string residual_confirm;\n        uint residual_exp_amt;          // expected amount of the residual\n        uint residual_calc_amt;         // what the actual residual will be (exp - late_fee - dispute)\n    }\n\n    struct Transaction {\n        string ext_id;                  // json external identifier for transaction\n        uint transact_dt;               \n        uint transact_amt;              // calculated value of a transaction of transaction\n        uint advance_amt;               // advance_amt * advance_pct - service_fee_amt\n        string transact_data;           // data regarding transaction for jsonlogic    \n        uint advance_pay_dt;            // paymet of advance\n        uint advance_pay_amt;           // will equal advance amt after payment initiated\n        string advance_confirm;\n    }\n\n    struct Artifact {\n        string artifact_id;\n        uint added_dt;\n        string doc_title;\n        string doc_type;\n    }\n\n    event ContractAdded(uint indexed contract_idx);\n    event ContractUpdated(uint indexed contract_idx);\n    event TransactionAdded(uint indexed contract_idx, uint indexed transact_idx);\n    event ArtifactAdded(uint indexed contract_idx, uint indexed artifact_idx);\n    event SettlementAdded(uint indexed contract_idx, uint indexed settle_idx);\n    event AdvancePaid(uint indexed contract_idx, uint indexed transact_idx);\n    event SettlementPosted(uint indexed contract_idx, uint indexed settle_idx);\n    event ResidualPaid(uint indexed contract_idx, uint indexed settle_idx);\n\n    constructor() {\n        owner = msg.sender;\n    }\n\n    modifier onlyOwner() {\n        require(msg.sender == owner, \"Access denied, only contract owner can call this function\");\n        _;\n    }\n\n    function getContractCount() public view returns (uint) {\n        return contracts.length;\n    }\n\n    function getContract(uint contract_idx) public view returns (Contract memory) {\n        return contracts[contract_idx];\n    }\n\n    function addContract (Contract memory contract_) public onlyOwner {\n        contracts.push(contract_);\n        emit ContractAdded(contracts.length - 1);\n    }\n\n    function updateContract (uint contract_idx, Contract memory contract_) public onlyOwner {\n        contracts[contract_idx] = contract_;\n        emit ContractUpdated(contract_idx);\n    }\n\n    function getArtifacts (uint contract_idx) public view returns (Artifact[] memory) {\n        return artifacts[contract_idx];\n    }\n\n    function addArtifact (uint contract_idx, string memory artifact_id, string memory doc_title, string memory doc_type, uint added_dt) public onlyOwner {\n        Artifact memory artifact;\n        artifact.added_dt = added_dt;\n        artifact.artifact_id = artifact_id;\n        artifact.doc_title = doc_title;\n        artifact.doc_type = doc_type; \n        artifacts[contract_idx].push(artifact);\n        emit ArtifactAdded(contract_idx, artifacts[contract_idx].length - 1);\n    }\n\n    function deleteArtifacts(uint contract_idx) public onlyOwner {\n        delete artifacts[contract_idx];\n    }\n\n    function getSettlements(uint contract_idx) public view returns (Settlement[] memory) {\n        return settlements[contract_idx];\n    }\n\n    function addSettlement(uint contract_idx, string memory ext_id, uint settle_due_dt, uint transact_min_dt, uint transact_max_dt) public onlyOwner {\n        Settlement memory settlement;\n        settlement.settle_due_dt = settle_due_dt;\n        settlement.transact_min_dt = transact_min_dt;\n        settlement.transact_max_dt = transact_max_dt;\n        settlement.ext_id = ext_id;\n        settlements[contract_idx].push(settlement);\n        emit SettlementAdded(contract_idx, settlements[contract_idx].length - 1);\n    }\n\n    function deleteSettlements(uint contract_idx) public onlyOwner {\n        require (contract_idx < contracts.length, \"Invalid contract index\");\n        delete settlements[contract_idx];\n    }\n\n    function getTransactions(uint contract_idx) public view returns (Transaction[] memory) {\n        return transactions[contract_idx];\n    }\n\n    function addTransaction(uint contract_idx, string memory ext_id, uint transact_dt, uint transact_amt, string memory transact_data) public onlyOwner {\n\n        Transaction memory transact;\n        transact.ext_id = ext_id;\n        transact.transact_dt = transact_dt;\n        transact.transact_amt = transact_amt;\n        transact.transact_data = transact_data;\n\n        for (uint i = 0; i < settlements[contract_idx].length; i++) {\n            if (transact_dt >= settlements[contract_idx][i].transact_min_dt && transact_dt < settlements[contract_idx][i].transact_max_dt) {\n                settlements[contract_idx][i].transact_count ++;\n                settlements[contract_idx][i].settle_exp_amt += transact.transact_amt;\n                settlements[contract_idx][i].residual_exp_amt += transact_amt - (transact_amt * contracts[contract_idx].advance_pct / 10000);\n            }\n        }\n\n        uint service_fee = (contracts[contract_idx].service_fee_pct * transact_amt / 10000) + contracts[contract_idx].service_fee_amt;\n        transact.advance_amt = (transact_amt * contracts[contract_idx].advance_pct / 10000) - service_fee;\n        transactions[contract_idx].push(transact);\n        emit TransactionAdded(contract_idx, transactions[contract_idx].length - 1);\n    }\n\n    function deleteTransactions(uint contract_idx) public onlyOwner {\n        require (contract_idx < contracts.length, \"Invalid contract index\");\n        delete transactions[contract_idx];\n    }\n\n    function payAdvance(uint contract_idx, uint transact_idx, uint advance_pay_dt, uint advance_pay_amt, string memory advance_confirm) public onlyOwner {\n        transactions[contract_idx][transact_idx].advance_pay_dt = advance_pay_dt;\n        transactions[contract_idx][transact_idx].advance_pay_amt = advance_pay_amt;\n        transactions[contract_idx][transact_idx].advance_confirm = advance_confirm;\n        emit AdvancePaid(contract_idx, transact_idx);\n    }\n\n    function postSettlement(uint contract_idx, uint settle_idx, uint settle_pay_dt, uint settle_pay_amt, string memory settle_confirm, string memory dispute_reason) public onlyOwner {\n        settlements[contract_idx][settle_idx].settle_pay_dt = settle_pay_dt;\n        settlements[contract_idx][settle_idx].settle_pay_amt = settle_pay_amt;\n        settlements[contract_idx][settle_idx].settle_confirm = settle_confirm;\n\n        if (settle_pay_dt > settlements[contract_idx][settle_idx].settle_due_dt) {\n            settlements[contract_idx][settle_idx].days_late = (settle_pay_dt - settlements[contract_idx][settle_idx].settle_due_dt) / 60 / 60 / 24;\n            settlements[contract_idx][settle_idx].late_fee_amt = (settlements[contract_idx][settle_idx].days_late * \n                ((contracts[contract_idx].late_fee_pct * 100000) / 365) * settlements[contract_idx][settle_idx].settle_exp_amt) / 1000000000;\n        }\n\n        if (settle_pay_amt < settlements[contract_idx][settle_idx].residual_exp_amt) {\n            settlements[contract_idx][settle_idx].dispute_amt = settle_pay_amt - settlements[contract_idx][settle_idx].residual_exp_amt;\n            settlements[contract_idx][settle_idx].dispute_reason = dispute_reason;\n        } \n        \n        if ((settlements[contract_idx][settle_idx].residual_exp_amt - settlements[contract_idx][settle_idx].late_fee_amt - settlements[contract_idx][settle_idx].dispute_amt) > 0) {\n            settlements[contract_idx][settle_idx].residual_calc_amt = settlements[contract_idx][settle_idx].residual_exp_amt - settlements[contract_idx][settle_idx].late_fee_amt -\n                settlements[contract_idx][settle_idx].dispute_amt;\n        } \n        emit SettlementPosted(contract_idx, settle_idx);\n    }\n\n    function payResidual(uint contract_idx, uint settle_idx, uint residual_pay_dt, uint residual_pay_amt, string memory residual_confirm) public onlyOwner {\n        settlements[contract_idx][settle_idx].residual_pay_dt = residual_pay_dt;\n        settlements[contract_idx][settle_idx].residual_pay_amt = residual_pay_amt;\n        settlements[contract_idx][settle_idx].residual_confirm = residual_confirm;\n        emit ResidualPaid(contract_idx, settle_idx);\n    }\n}",
  "sourcePath": "/Users/davidnichamoff/Projects/FIZIT_DEV/truffle/contracts/Delivery.sol",
  "compiler": {
    "name": "solc",
    "version": "0.8.0+commit.c7dfd78e.Emscripten.clang"
  },
  "schemaVersion": "3.4.16",
  "updatedAt": "2024-05-23T20:55:18.771Z",
  "networkType": "ethereum",
  "devdoc": {
    "kind": "dev",
    "methods": {},
    "version": 1
  },
  "userdoc": {
    "kind": "user",
    "methods": {},
    "version": 1
  }
}