{
  "contractName": "Delivery",
  "abi": [
    {
      "inputs": [],
      "stateMutability": "nonpayable",
      "type": "constructor"
    },
    {
      "anonymous": false,
      "inputs": [
        {
          "indexed": true,
          "internalType": "uint256",
          "name": "contract_idx",
          "type": "uint256"
        },
        {
          "indexed": false,
          "internalType": "string",
          "name": "eventType",
          "type": "string"
        },
        {
          "indexed": false,
          "internalType": "string",
          "name": "details",
          "type": "string"
        }
      ],
      "name": "ContractEvent",
      "type": "event"
    },
    {
      "inputs": [],
      "name": "owner",
      "outputs": [
        {
          "internalType": "address",
          "name": "",
          "type": "address"
        }
      ],
      "stateMutability": "view",
      "type": "function",
      "constant": true
    },
    {
      "inputs": [],
      "name": "getContractCount",
      "outputs": [
        {
          "internalType": "uint256",
          "name": "",
          "type": "uint256"
        }
      ],
      "stateMutability": "view",
      "type": "function",
      "constant": true
    },
    {
      "inputs": [
        {
          "internalType": "uint256",
          "name": "contract_idx",
          "type": "uint256"
        }
      ],
      "name": "getContract",
      "outputs": [
        {
          "components": [
            {
              "internalType": "string",
              "name": "extended_data",
              "type": "string"
            },
            {
              "internalType": "string",
              "name": "contract_name",
              "type": "string"
            },
            {
              "internalType": "string",
              "name": "contract_type",
              "type": "string"
            },
            {
              "internalType": "string",
              "name": "funding_instr",
              "type": "string"
            },
            {
              "internalType": "uint256",
              "name": "service_fee_pct",
              "type": "uint256"
            },
            {
              "internalType": "uint256",
              "name": "service_fee_max",
              "type": "uint256"
            },
            {
              "internalType": "int256",
              "name": "service_fee_amt",
              "type": "int256"
            },
            {
              "internalType": "uint256",
              "name": "advance_pct",
              "type": "uint256"
            },
            {
              "internalType": "uint256",
              "name": "late_fee_pct",
              "type": "uint256"
            },
            {
              "internalType": "string",
              "name": "transact_logic",
              "type": "string"
            },
            {
              "internalType": "int256",
              "name": "min_threshold",
              "type": "int256"
            },
            {
              "internalType": "int256",
              "name": "max_threshold",
              "type": "int256"
            },
            {
              "internalType": "string",
              "name": "notes",
              "type": "string"
            },
            {
              "internalType": "bool",
              "name": "is_active",
              "type": "bool"
            },
            {
              "internalType": "bool",
              "name": "is_quote",
              "type": "bool"
            }
          ],
          "internalType": "struct Delivery.Contract",
          "name": "",
          "type": "tuple"
        }
      ],
      "stateMutability": "view",
      "type": "function",
      "constant": true
    },
    {
      "inputs": [
        {
          "components": [
            {
              "internalType": "string",
              "name": "extended_data",
              "type": "string"
            },
            {
              "internalType": "string",
              "name": "contract_name",
              "type": "string"
            },
            {
              "internalType": "string",
              "name": "contract_type",
              "type": "string"
            },
            {
              "internalType": "string",
              "name": "funding_instr",
              "type": "string"
            },
            {
              "internalType": "uint256",
              "name": "service_fee_pct",
              "type": "uint256"
            },
            {
              "internalType": "uint256",
              "name": "service_fee_max",
              "type": "uint256"
            },
            {
              "internalType": "int256",
              "name": "service_fee_amt",
              "type": "int256"
            },
            {
              "internalType": "uint256",
              "name": "advance_pct",
              "type": "uint256"
            },
            {
              "internalType": "uint256",
              "name": "late_fee_pct",
              "type": "uint256"
            },
            {
              "internalType": "string",
              "name": "transact_logic",
              "type": "string"
            },
            {
              "internalType": "int256",
              "name": "min_threshold",
              "type": "int256"
            },
            {
              "internalType": "int256",
              "name": "max_threshold",
              "type": "int256"
            },
            {
              "internalType": "string",
              "name": "notes",
              "type": "string"
            },
            {
              "internalType": "bool",
              "name": "is_active",
              "type": "bool"
            },
            {
              "internalType": "bool",
              "name": "is_quote",
              "type": "bool"
            }
          ],
          "internalType": "struct Delivery.Contract",
          "name": "contract_",
          "type": "tuple"
        }
      ],
      "name": "addContract",
      "outputs": [],
      "stateMutability": "nonpayable",
      "type": "function"
    },
    {
      "inputs": [
        {
          "internalType": "uint256",
          "name": "contract_idx",
          "type": "uint256"
        },
        {
          "components": [
            {
              "internalType": "string",
              "name": "extended_data",
              "type": "string"
            },
            {
              "internalType": "string",
              "name": "contract_name",
              "type": "string"
            },
            {
              "internalType": "string",
              "name": "contract_type",
              "type": "string"
            },
            {
              "internalType": "string",
              "name": "funding_instr",
              "type": "string"
            },
            {
              "internalType": "uint256",
              "name": "service_fee_pct",
              "type": "uint256"
            },
            {
              "internalType": "uint256",
              "name": "service_fee_max",
              "type": "uint256"
            },
            {
              "internalType": "int256",
              "name": "service_fee_amt",
              "type": "int256"
            },
            {
              "internalType": "uint256",
              "name": "advance_pct",
              "type": "uint256"
            },
            {
              "internalType": "uint256",
              "name": "late_fee_pct",
              "type": "uint256"
            },
            {
              "internalType": "string",
              "name": "transact_logic",
              "type": "string"
            },
            {
              "internalType": "int256",
              "name": "min_threshold",
              "type": "int256"
            },
            {
              "internalType": "int256",
              "name": "max_threshold",
              "type": "int256"
            },
            {
              "internalType": "string",
              "name": "notes",
              "type": "string"
            },
            {
              "internalType": "bool",
              "name": "is_active",
              "type": "bool"
            },
            {
              "internalType": "bool",
              "name": "is_quote",
              "type": "bool"
            }
          ],
          "internalType": "struct Delivery.Contract",
          "name": "contract_",
          "type": "tuple"
        }
      ],
      "name": "updateContract",
      "outputs": [],
      "stateMutability": "nonpayable",
      "type": "function"
    },
    {
      "inputs": [
        {
          "internalType": "uint256",
          "name": "contract_idx",
          "type": "uint256"
        }
      ],
      "name": "deleteContract",
      "outputs": [],
      "stateMutability": "nonpayable",
      "type": "function"
    },
    {
      "inputs": [
        {
          "internalType": "uint256",
          "name": "contract_idx",
          "type": "uint256"
        }
      ],
      "name": "getParties",
      "outputs": [
        {
          "components": [
            {
              "internalType": "string",
              "name": "party_code",
              "type": "string"
            },
            {
              "internalType": "address",
              "name": "party_address",
              "type": "address"
            },
            {
              "internalType": "string",
              "name": "party_type",
              "type": "string"
            }
          ],
          "internalType": "struct Delivery.Party[]",
          "name": "",
          "type": "tuple[]"
        }
      ],
      "stateMutability": "view",
      "type": "function",
      "constant": true
    },
    {
      "inputs": [
        {
          "internalType": "uint256",
          "name": "contract_idx",
          "type": "uint256"
        },
        {
          "components": [
            {
              "internalType": "string",
              "name": "party_code",
              "type": "string"
            },
            {
              "internalType": "address",
              "name": "party_address",
              "type": "address"
            },
            {
              "internalType": "string",
              "name": "party_type",
              "type": "string"
            }
          ],
          "internalType": "struct Delivery.Party",
          "name": "party",
          "type": "tuple"
        }
      ],
      "name": "addParty",
      "outputs": [],
      "stateMutability": "nonpayable",
      "type": "function"
    },
    {
      "inputs": [
        {
          "internalType": "uint256",
          "name": "contract_idx",
          "type": "uint256"
        },
        {
          "internalType": "uint256",
          "name": "party_idx",
          "type": "uint256"
        }
      ],
      "name": "deleteParty",
      "outputs": [],
      "stateMutability": "nonpayable",
      "type": "function"
    },
    {
      "inputs": [
        {
          "internalType": "uint256",
          "name": "contract_idx",
          "type": "uint256"
        }
      ],
      "name": "deleteParties",
      "outputs": [],
      "stateMutability": "nonpayable",
      "type": "function"
    },
    {
      "inputs": [
        {
          "internalType": "uint256",
          "name": "contract_idx",
          "type": "uint256"
        }
      ],
      "name": "getArtifacts",
      "outputs": [
        {
          "components": [
            {
              "internalType": "string",
              "name": "artifact_id",
              "type": "string"
            },
            {
              "internalType": "string",
              "name": "extended_data",
              "type": "string"
            },
            {
              "internalType": "uint256",
              "name": "added_dt",
              "type": "uint256"
            },
            {
              "internalType": "string",
              "name": "doc_title",
              "type": "string"
            },
            {
              "internalType": "string",
              "name": "doc_type",
              "type": "string"
            }
          ],
          "internalType": "struct Delivery.Artifact[]",
          "name": "",
          "type": "tuple[]"
        }
      ],
      "stateMutability": "view",
      "type": "function",
      "constant": true
    },
    {
      "inputs": [
        {
          "internalType": "uint256",
          "name": "contract_idx",
          "type": "uint256"
        },
        {
          "internalType": "string",
          "name": "artifact_id",
          "type": "string"
        },
        {
          "internalType": "string",
          "name": "doc_title",
          "type": "string"
        },
        {
          "internalType": "string",
          "name": "doc_type",
          "type": "string"
        },
        {
          "internalType": "uint256",
          "name": "added_dt",
          "type": "uint256"
        }
      ],
      "name": "addArtifact",
      "outputs": [],
      "stateMutability": "nonpayable",
      "type": "function"
    },
    {
      "inputs": [
        {
          "internalType": "uint256",
          "name": "contract_idx",
          "type": "uint256"
        },
        {
          "internalType": "uint256",
          "name": "artifact_idx",
          "type": "uint256"
        }
      ],
      "name": "deleteArtifact",
      "outputs": [],
      "stateMutability": "nonpayable",
      "type": "function"
    },
    {
      "inputs": [
        {
          "internalType": "uint256",
          "name": "contract_idx",
          "type": "uint256"
        }
      ],
      "name": "deleteArtifacts",
      "outputs": [],
      "stateMutability": "nonpayable",
      "type": "function"
    },
    {
      "inputs": [
        {
          "internalType": "uint256",
          "name": "contract_idx",
          "type": "uint256"
        }
      ],
      "name": "getSettlements",
      "outputs": [
        {
          "components": [
            {
              "internalType": "string",
              "name": "extended_data",
              "type": "string"
            },
            {
              "internalType": "uint256",
              "name": "settle_due_dt",
              "type": "uint256"
            },
            {
              "internalType": "uint256",
              "name": "transact_min_dt",
              "type": "uint256"
            },
            {
              "internalType": "uint256",
              "name": "transact_max_dt",
              "type": "uint256"
            },
            {
              "internalType": "uint256",
              "name": "transact_count",
              "type": "uint256"
            },
            {
              "internalType": "int256",
              "name": "advance_amt",
              "type": "int256"
            },
            {
              "internalType": "int256",
              "name": "advance_amt_gross",
              "type": "int256"
            },
            {
              "internalType": "uint256",
              "name": "settle_pay_dt",
              "type": "uint256"
            },
            {
              "internalType": "int256",
              "name": "settle_exp_amt",
              "type": "int256"
            },
            {
              "internalType": "int256",
              "name": "settle_pay_amt",
              "type": "int256"
            },
            {
              "internalType": "string",
              "name": "settle_confirm",
              "type": "string"
            },
            {
              "internalType": "int256",
              "name": "dispute_amt",
              "type": "int256"
            },
            {
              "internalType": "string",
              "name": "dispute_reason",
              "type": "string"
            },
            {
              "internalType": "uint256",
              "name": "days_late",
              "type": "uint256"
            },
            {
              "internalType": "int256",
              "name": "late_fee_amt",
              "type": "int256"
            },
            {
              "internalType": "uint256",
              "name": "residual_pay_dt",
              "type": "uint256"
            },
            {
              "internalType": "int256",
              "name": "residual_pay_amt",
              "type": "int256"
            },
            {
              "internalType": "string",
              "name": "residual_confirm",
              "type": "string"
            },
            {
              "internalType": "int256",
              "name": "residual_exp_amt",
              "type": "int256"
            },
            {
              "internalType": "int256",
              "name": "residual_calc_amt",
              "type": "int256"
            }
          ],
          "internalType": "struct Delivery.Settlement[]",
          "name": "",
          "type": "tuple[]"
        }
      ],
      "stateMutability": "view",
      "type": "function",
      "constant": true
    },
    {
      "inputs": [
        {
          "internalType": "uint256",
          "name": "contract_idx",
          "type": "uint256"
        },
        {
          "internalType": "string",
          "name": "extended_data",
          "type": "string"
        },
        {
          "internalType": "uint256",
          "name": "settle_due_dt",
          "type": "uint256"
        },
        {
          "internalType": "uint256",
          "name": "transact_min_dt",
          "type": "uint256"
        },
        {
          "internalType": "uint256",
          "name": "transact_max_dt",
          "type": "uint256"
        }
      ],
      "name": "addSettlement",
      "outputs": [],
      "stateMutability": "nonpayable",
      "type": "function"
    },
    {
      "inputs": [
        {
          "internalType": "uint256",
          "name": "contract_idx",
          "type": "uint256"
        }
      ],
      "name": "deleteSettlements",
      "outputs": [],
      "stateMutability": "nonpayable",
      "type": "function"
    },
    {
      "inputs": [
        {
          "internalType": "uint256",
          "name": "contract_idx",
          "type": "uint256"
        }
      ],
      "name": "getTransactions",
      "outputs": [
        {
          "components": [
            {
              "internalType": "string",
              "name": "extended_data",
              "type": "string"
            },
            {
              "internalType": "uint256",
              "name": "transact_dt",
              "type": "uint256"
            },
            {
              "internalType": "int256",
              "name": "transact_amt",
              "type": "int256"
            },
            {
              "internalType": "int256",
              "name": "service_fee_amt",
              "type": "int256"
            },
            {
              "internalType": "int256",
              "name": "advance_amt",
              "type": "int256"
            },
            {
              "internalType": "string",
              "name": "transact_data",
              "type": "string"
            },
            {
              "internalType": "uint256",
              "name": "advance_pay_dt",
              "type": "uint256"
            },
            {
              "internalType": "uint256",
              "name": "advance_pay_amt",
              "type": "uint256"
            },
            {
              "internalType": "string",
              "name": "advance_confirm",
              "type": "string"
            }
          ],
          "internalType": "struct Delivery.Transaction[]",
          "name": "",
          "type": "tuple[]"
        }
      ],
      "stateMutability": "view",
      "type": "function",
      "constant": true
    },
    {
      "inputs": [
        {
          "internalType": "uint256",
          "name": "contract_idx",
          "type": "uint256"
        }
      ],
      "name": "deleteTransactions",
      "outputs": [],
      "stateMutability": "nonpayable",
      "type": "function"
    },
    {
      "inputs": [
        {
          "internalType": "uint256",
          "name": "contract_idx",
          "type": "uint256"
        },
        {
          "internalType": "string",
          "name": "extended_data",
          "type": "string"
        },
        {
          "internalType": "uint256",
          "name": "transact_dt",
          "type": "uint256"
        },
        {
          "internalType": "int256",
          "name": "transact_amt",
          "type": "int256"
        },
        {
          "internalType": "string",
          "name": "transact_data",
          "type": "string"
        }
      ],
      "name": "addTransaction",
      "outputs": [],
      "stateMutability": "nonpayable",
      "type": "function"
    },
    {
      "inputs": [
        {
          "internalType": "uint256",
          "name": "contract_idx",
          "type": "uint256"
        },
        {
          "internalType": "uint256",
          "name": "transact_idx",
          "type": "uint256"
        },
        {
          "internalType": "uint256",
          "name": "advance_pay_dt",
          "type": "uint256"
        },
        {
          "internalType": "uint256",
          "name": "advance_pay_amt",
          "type": "uint256"
        },
        {
          "internalType": "string",
          "name": "advance_confirm",
          "type": "string"
        }
      ],
      "name": "payAdvance",
      "outputs": [],
      "stateMutability": "nonpayable",
      "type": "function"
    },
    {
      "inputs": [
        {
          "internalType": "uint256",
          "name": "contract_idx",
          "type": "uint256"
        },
        {
          "internalType": "uint256",
          "name": "settle_idx",
          "type": "uint256"
        },
        {
          "internalType": "uint256",
          "name": "settle_pay_dt",
          "type": "uint256"
        },
        {
          "internalType": "int256",
          "name": "settle_pay_amt",
          "type": "int256"
        },
        {
          "internalType": "string",
          "name": "settle_confirm",
          "type": "string"
        },
        {
          "internalType": "string",
          "name": "dispute_reason",
          "type": "string"
        }
      ],
      "name": "postSettlement",
      "outputs": [],
      "stateMutability": "nonpayable",
      "type": "function"
    },
    {
      "inputs": [
        {
          "internalType": "uint256",
          "name": "contract_idx",
          "type": "uint256"
        },
        {
          "internalType": "uint256",
          "name": "settle_idx",
          "type": "uint256"
        },
        {
          "internalType": "uint256",
          "name": "residual_pay_dt",
          "type": "uint256"
        },
        {
          "internalType": "int256",
          "name": "residual_pay_amt",
          "type": "int256"
        },
        {
          "internalType": "string",
          "name": "residual_confirm",
          "type": "string"
        }
      ],
      "name": "payResidual",
      "outputs": [],
      "stateMutability": "nonpayable",
      "type": "function"
    }
  ],
  "bytecode": "0x608060405234801561001057600080fd5b50600080546001600160a01b031916331790556152cf806100326000396000f3fe608060405234801561001057600080fd5b506004361061014d5760003560e01c80636ebc8c86116100c3578063a2a789291161007c578063a2a78929146102d8578063a50965dc146102eb578063afb18810146102fe578063d311341214610311578063f633db9314610331578063fcf45c0f146103445761014d565b80636ebc8c861461025557806375483e461461027557806388398db9146102885780638aea2c5e1461029b5780638da5cb5b146102ae5780639399869d146102c35761014d565b806346f920fd1161011557806346f920fd146101c95780635742177c146101e95780635b4e97e71461020957806364da0a331461021c5780636893d3361461022f5780636e449c2b146102425761014d565b806311ef56de1461015257806336d56a601461016757806338ad4fa71461017a5780633cbfb1b51461018d578063447fe289146101a0575b600080fd5b6101656101603660046141d3565b610357565b005b61016561017536600461446b565b6103e9565b610165610188366004614280565b610660565b61016561019b3660046141eb565b6109f0565b6101b36101ae3660046141d3565b610b24565b6040516101c091906146e6565b60405180910390f35b6101dc6101d73660046141d3565b610cea565b6040516101c0919061476f565b6101fc6101f73660046141d3565b611052565b6040516101c091906148cf565b6101656102173660046141d3565b6112c4565b61016561022a3660046143a0565b611342565b61016561023d3660046141d3565b61142a565b61016561025036600461446b565b6114e0565b6102686102633660046141d3565b611713565b6040516101c09190614e6f565b610165610283366004614565565b611b50565b61016561029636600461448c565b611cac565b6101656102a93660046144e0565b611df9565b6102b661250a565b6040516101c0919061460e565b6102cb612519565b6040516101c09190614fb1565b6101656102e63660046142fd565b61251f565b6101656102f936600461435c565b6126e7565b61016561030c366004614199565b613153565b61032461031f3660046141d3565b613300565b6040516101c09190614622565b61016561033f3660046141d3565b6135d1565b6101656103523660046141d3565b61364f565b6000546001600160a01b0316331461038a5760405162461bcd60e51b815260040161038190614b20565b60405180910390fd5b60015481106103ab5760405162461bcd60e51b815260040161038190614a1b565b60008181526004602052604081206103c291613a7a565b8060008051602061527a8339815191526040516103de90614c92565b60405180910390a250565b6000546001600160a01b031633146104135760405162461bcd60e51b815260040161038190614b20565b60015482106104345760405162461bcd60e51b815260040161038190614a1b565b60008281526004602052604090205481106104615760405162461bcd60e51b815260040161038190614aba565b805b60008381526004602052604090205461047e90600190615184565b8110156105aa57600083815260046020526040902061049e826001615024565b815481106104bc57634e487b7160e01b600052603260045260246000fd5b90600052602060002090600502016004600085815260200190815260200160002082815481106104fc57634e487b7160e01b600052603260045260246000fd5b9060005260206000209060050201600082018160000190805461051e906151c7565b610529929190613a9e565b50600182018160010190805461053e906151c7565b610549929190613a9e565b50600282015481600201556003820181600301908054610568906151c7565b610573929190613a9e565b506004820181600401908054610588906151c7565b610593929190613a9e565b5090505080806105a290615202565b915050610463565b5060008281526004602052604090208054806105d657634e487b7160e01b600052603160045260246000fd5b600082815260208120600019909201916005830201906105f68282613b29565b610604600183016000613b29565b600282016000905560038201600061061c9190613b29565b61062a600483016000613b29565b505090558160008051602061527a833981519152610647836136cd565b6040516106549190614beb565b60405180910390a25050565b6000546001600160a01b0316331461068a5760405162461bcd60e51b815260040161038190614b20565b60015485106106ab5760405162461bcd60e51b815260040161038190614a1b565b6106b3613b65565b848152602081018490526040810183905260a081018290526000808080805b60008b8152600260205260409020548110156108db5760008b815260026020526040812080548390811061071657634e487b7160e01b600052603260045260246000fd5b9060005260206000209060140201905080600201548a1015801561073d575080600301548a105b156108c85760008913156108365760018c8154811061076c57634e487b7160e01b600052603260045260246000fd5b90600052602060002090600e0201600601546127108a60018f815481106107a357634e487b7160e01b600052603260045260246000fd5b90600052602060002090600e0201600401546107bf9190615126565b6107c9919061508f565b6107d39190614fe3565b925061271060018d815481106107f957634e487b7160e01b600052603260045260246000fd5b90600052602060002090600e0201600701548a6108169190615126565b610820919061508f565b9350828412610836576108338385615145565b94505b8881600801600082825461084a9190614fe3565b92505081905550848160050160008282546108659190614fe3565b92505081905550838160060160008282546108809190614fe3565b9091555050600681015460088201546108999190615145565b60128201556004810180549060006108b083615202565b90915550506080870185905260608701839052600195505b50806108d381615202565b9150506106d2565b5083156109bf5760008a815260036020908152604082208054600181018255908352918190208751805189946009029092019261091d92849290910190613bb1565b50602082810151600183015560408301516002830155606083015160038301556080830151600483015560a0830151805161095e9260058501920190613bb1565b5060c0820151600682015560e08201516007820155610100820151805161098f916008840191602090910190613bb1565b505085516040518c925060008051602061527a833981519152916109b2916149a3565b60405180910390a26109e4565b8960008051602061527a8339815191526040516109db90614e10565b60405180910390a25b50505050505050505050565b6000546001600160a01b03163314610a1a5760405162461bcd60e51b815260040161038190614b20565b6001548510610a3b5760405162461bcd60e51b815260040161038190614a1b565b610a43613c25565b60408082018390528582526060820185905260808201849052600087815260046020908152918120805460018101825590825290829020835180518594600590940290920192610a9892849290910190613bb1565b506020828101518051610ab19260018501920190613bb1565b506040820151600282015560608201518051610ad7916003840191602090910190613bb1565b5060808201518051610af3916004840191602090910190613bb1565b5050508560008051602061527a83398151915285604051610b149190614dd9565b60405180910390a2505050505050565b6001546060908210610b485760405162461bcd60e51b815260040161038190614a1b565b600082815260056020908152604080832080548251818502810185019093528083529193909284015b82821015610cde5783829060005260206000209060030201604051806060016040529081600082018054610ba4906151c7565b80601f0160208091040260200160405190810160405280929190818152602001828054610bd0906151c7565b8015610c1d5780601f10610bf257610100808354040283529160200191610c1d565b820191906000526020600020905b815481529060010190602001808311610c0057829003601f168201915b505050918352505060018201546001600160a01b03166020820152600282018054604090920191610c4d906151c7565b80601f0160208091040260200160405190810160405280929190818152602001828054610c79906151c7565b8015610cc65780601f10610c9b57610100808354040283529160200191610cc6565b820191906000526020600020905b815481529060010190602001808311610ca957829003601f168201915b50505050508152505081526020019060010190610b71565b5050505090505b919050565b6001546060908210610d0e5760405162461bcd60e51b815260040161038190614a1b565b600082815260026020908152604080832080548251818502810185019093528083529193909284015b82821015610cde578382906000526020600020906014020160405180610280016040529081600082018054610d6b906151c7565b80601f0160208091040260200160405190810160405280929190818152602001828054610d97906151c7565b8015610de45780601f10610db957610100808354040283529160200191610de4565b820191906000526020600020905b815481529060010190602001808311610dc757829003601f168201915b50505050508152602001600182015481526020016002820154815260200160038201548152602001600482015481526020016005820154815260200160068201548152602001600782015481526020016008820154815260200160098201548152602001600a82018054610e57906151c7565b80601f0160208091040260200160405190810160405280929190818152602001828054610e83906151c7565b8015610ed05780601f10610ea557610100808354040283529160200191610ed0565b820191906000526020600020905b815481529060010190602001808311610eb357829003601f168201915b50505050508152602001600b8201548152602001600c82018054610ef3906151c7565b80601f0160208091040260200160405190810160405280929190818152602001828054610f1f906151c7565b8015610f6c5780601f10610f4157610100808354040283529160200191610f6c565b820191906000526020600020905b815481529060010190602001808311610f4f57829003601f168201915b50505050508152602001600d8201548152602001600e8201548152602001600f820154815260200160108201548152602001601182018054610fad906151c7565b80601f0160208091040260200160405190810160405280929190818152602001828054610fd9906151c7565b80156110265780601f10610ffb57610100808354040283529160200191611026565b820191906000526020600020905b81548152906001019060200180831161100957829003601f168201915b505050505081526020016012820154815260200160138201548152505081526020019060010190610d37565b60015460609082106110765760405162461bcd60e51b815260040161038190614a1b565b600082815260036020908152604080832080548251818502810185019093528083529193909284015b82821015610cde5783829060005260206000209060090201604051806101200160405290816000820180546110d3906151c7565b80601f01602080910402602001604051908101604052809291908181526020018280546110ff906151c7565b801561114c5780601f106111215761010080835404028352916020019161114c565b820191906000526020600020905b81548152906001019060200180831161112f57829003601f168201915b505050505081526020016001820154815260200160028201548152602001600382015481526020016004820154815260200160058201805461118d906151c7565b80601f01602080910402602001604051908101604052809291908181526020018280546111b9906151c7565b80156112065780601f106111db57610100808354040283529160200191611206565b820191906000526020600020905b8154815290600101906020018083116111e957829003601f168201915b505050505081526020016006820154815260200160078201548152602001600882018054611233906151c7565b80601f016020809104026020016040519081016040528092919081815260200182805461125f906151c7565b80156112ac5780601f10611281576101008083540402835291602001916112ac565b820191906000526020600020905b81548152906001019060200180831161128f57829003601f168201915b5050505050815250508152602001906001019061109f565b6000546001600160a01b031633146112ee5760405162461bcd60e51b815260040161038190614b20565b600154811061130f5760405162461bcd60e51b815260040161038190614a1b565b600081815260026020526040812061132691613c54565b8060008051602061527a8339815191526040516103de90614d65565b6000546001600160a01b0316331461136c5760405162461bcd60e51b815260040161038190614b20565b600154821061138d5760405162461bcd60e51b815260040161038190614a1b565b60008281526005602090815260408220805460018101825590835291819020835180518594600302909201926113c892849290910190613bb1565b506020828101516001830180546001600160a01b0319166001600160a01b03909216919091179055604083015180516114079260028501920190613bb1565b5050815160405184925060008051602061527a8339815191529161065491614d31565b6000546001600160a01b031633146114545760405162461bcd60e51b815260040161038190614b20565b60015481106114755760405162461bcd60e51b815260040161038190614a1b565b60006001828154811061149857634e487b7160e01b600052603260045260246000fd5b60009182526020909120600e90910201600d01805460ff19169115159190911790558060008051602061527a8339815191526114d3826136cd565b6040516103de9190614da0565b6000546001600160a01b0316331461150a5760405162461bcd60e51b815260040161038190614b20565b600154821061152b5760405162461bcd60e51b815260040161038190614a1b565b60008281526005602052604090205481106115585760405162461bcd60e51b815260040161038190614ccb565b805b60008381526005602052604090205461157590600190615184565b81101561167d576000838152600560205260409020611595826001615024565b815481106115b357634e487b7160e01b600052603260045260246000fd5b90600052602060002090600302016005600085815260200190815260200160002082815481106115f357634e487b7160e01b600052603260045260246000fd5b90600052602060002090600302016000820181600001908054611615906151c7565b611620929190613a9e565b5060018281015490820180546001600160a01b0319166001600160a01b03909216919091179055600280830180549183019161165b906151c7565b611666929190613a9e565b50905050808061167590615202565b91505061155a565b5060008281526005602052604090208054806116a957634e487b7160e01b600052603160045260246000fd5b600082815260208120600019909201916003830201906116c98282613b29565b6001820180546001600160a01b03191690556116e9600283016000613b29565b505090558160008051602061527a833981519152611706836136cd565b6040516106549190614aea565b61171b613c75565b600154821061173c5760405162461bcd60e51b815260040161038190614a1b565b6001828154811061175d57634e487b7160e01b600052603260045260246000fd5b90600052602060002090600e0201604051806101e0016040529081600082018054611787906151c7565b80601f01602080910402602001604051908101604052809291908181526020018280546117b3906151c7565b80156118005780601f106117d557610100808354040283529160200191611800565b820191906000526020600020905b8154815290600101906020018083116117e357829003601f168201915b50505050508152602001600182018054611819906151c7565b80601f0160208091040260200160405190810160405280929190818152602001828054611845906151c7565b80156118925780601f1061186757610100808354040283529160200191611892565b820191906000526020600020905b81548152906001019060200180831161187557829003601f168201915b505050505081526020016002820180546118ab906151c7565b80601f01602080910402602001604051908101604052809291908181526020018280546118d7906151c7565b80156119245780601f106118f957610100808354040283529160200191611924565b820191906000526020600020905b81548152906001019060200180831161190757829003601f168201915b5050505050815260200160038201805461193d906151c7565b80601f0160208091040260200160405190810160405280929190818152602001828054611969906151c7565b80156119b65780601f1061198b576101008083540402835291602001916119b6565b820191906000526020600020905b81548152906001019060200180831161199957829003601f168201915b505050505081526020016004820154815260200160058201548152602001600682015481526020016007820154815260200160088201548152602001600982018054611a01906151c7565b80601f0160208091040260200160405190810160405280929190818152602001828054611a2d906151c7565b8015611a7a5780601f10611a4f57610100808354040283529160200191611a7a565b820191906000526020600020905b815481529060010190602001808311611a5d57829003601f168201915b50505050508152602001600a8201548152602001600b8201548152602001600c82018054611aa7906151c7565b80601f0160208091040260200160405190810160405280929190818152602001828054611ad3906151c7565b8015611b205780601f10611af557610100808354040283529160200191611b20565b820191906000526020600020905b815481529060010190602001808311611b0357829003601f168201915b5050509183525050600d919091015460ff8082161515602084015261010090910416151560409091015292915050565b6000546001600160a01b03163314611b7a5760405162461bcd60e51b815260040161038190614b20565b6001548510611b9b5760405162461bcd60e51b815260040161038190614a1b565b6000858152600360205260409020805484919086908110611bcc57634e487b7160e01b600052603260045260246000fd5b90600052602060002090600902016006018190555081600360008781526020019081526020016000208581548110611c1457634e487b7160e01b600052603260045260246000fd5b90600052602060002090600902016007018190555080600360008781526020019081526020016000208581548110611c5c57634e487b7160e01b600052603260045260246000fd5b90600052602060002090600902016008019080519060200190611c80929190613bb1565b508460008051602061527a833981519152604051611c9d90614a87565b60405180910390a25050505050565b6000546001600160a01b03163314611cd65760405162461bcd60e51b815260040161038190614b20565b6001548510611cf75760405162461bcd60e51b815260040161038190614a1b565b6000858152600260205260409020805484919086908110611d2857634e487b7160e01b600052603260045260246000fd5b9060005260206000209060140201600f018190555081600260008781526020019081526020016000208581548110611d7057634e487b7160e01b600052603260045260246000fd5b90600052602060002090601402016010018190555080600260008781526020019081526020016000208581548110611db857634e487b7160e01b600052603260045260246000fd5b90600052602060002090601402016011019080519060200190611ddc929190613bb1565b508460008051602061527a833981519152604051611c9d90614b7d565b6000546001600160a01b03163314611e235760405162461bcd60e51b815260040161038190614b20565b6001548610611e445760405162461bcd60e51b815260040161038190614a1b565b6000868152600260205260409020805485919087908110611e7557634e487b7160e01b600052603260045260246000fd5b90600052602060002090601402016007018190555082600260008881526020019081526020016000208681548110611ebd57634e487b7160e01b600052603260045260246000fd5b90600052602060002090601402016009018190555081600260008881526020019081526020016000208681548110611f0557634e487b7160e01b600052603260045260246000fd5b9060005260206000209060140201600a019080519060200190611f29929190613bb1565b506000868152600260205260409020805486908110611f5857634e487b7160e01b600052603260045260246000fd5b906000526020600020906014020160010154841115612174576018603c80600260008a81526020019081526020016000208881548110611fa857634e487b7160e01b600052603260045260246000fd5b90600052602060002090601402016001015487611fc59190615184565b611fcf919061508f565b611fd9919061508f565b611fe3919061508f565b600087815260026020526040902080548790811061201157634e487b7160e01b600052603260045260246000fd5b9060005260206000209060140201600d0181905550600060026000888152602001908152602001600020868154811061205a57634e487b7160e01b600052603260045260246000fd5b9060005260206000209060140201600d0154905060006001888154811061209157634e487b7160e01b600052603260045260246000fd5b90600052602060002090600e02016008015490506000600260008a815260200190815260200160002088815481106120d957634e487b7160e01b600052603260045260246000fd5b9060005260206000209060140201600801549050633b9aca008161016d84620186a061210591906150a3565b61210f9190615061565b61211990866150a3565b61212391906150a3565b61212d9190615061565b60008a815260026020526040902080548a90811061215b57634e487b7160e01b600052603260045260246000fd5b9060005260206000209060140201600e01819055505050505b60008681526002602052604090208054869081106121a257634e487b7160e01b600052603260045260246000fd5b9060005260206000209060140201600801548312156122a45760008681526002602052604090208054849190879081106121ec57634e487b7160e01b600052603260045260246000fd5b9060005260206000209060140201600801546122089190615145565b600087815260026020526040902080548790811061223657634e487b7160e01b600052603260045260246000fd5b9060005260206000209060140201600b01819055508060026000888152602001908152602001600020868154811061227e57634e487b7160e01b600052603260045260246000fd5b9060005260206000209060140201600c0190805190602001906122a2929190613bb1565b505b60008681526002602052604081208054879081106122d257634e487b7160e01b600052603260045260246000fd5b9060005260206000209060140201600b015460026000898152602001908152602001600020878154811061231657634e487b7160e01b600052603260045260246000fd5b9060005260206000209060140201600e0154600260008a8152602001908152602001600020888154811061235a57634e487b7160e01b600052603260045260246000fd5b9060005260206000209060140201601201546123769190615145565b6123809190615145565b13156124aa5760008681526002602052604090208054869081106123b457634e487b7160e01b600052603260045260246000fd5b9060005260206000209060140201600b01546002600088815260200190815260200160002086815481106123f857634e487b7160e01b600052603260045260246000fd5b9060005260206000209060140201600e015460026000898152602001908152602001600020878154811061243c57634e487b7160e01b600052603260045260246000fd5b9060005260206000209060140201601201546124589190615145565b6124629190615145565b600087815260026020526040902080548790811061249057634e487b7160e01b600052603260045260246000fd5b9060005260206000209060140201601301819055506124ee565b60008681526002602052604081208054879081106124d857634e487b7160e01b600052603260045260246000fd5b9060005260206000209060140201601301819055505b8560008051602061527a833981519152604051610b1490614c24565b6000546001600160a01b031681565b60015490565b6000546001600160a01b031633146125495760405162461bcd60e51b815260040161038190614b20565b600154851061256a5760405162461bcd60e51b815260040161038190614a1b565b612572613cef565b60208082018590526040808301859052606083018490528683526000888152600283529081208054600181018255908252908290208351805185946014909402909201926125c592849290910190613bb1565b50602082810151600183015560408301516002830155606083015160038301556080830151600483015560a0830151600583015560c0830151600683015560e0830151600783015561010083015160088301556101208301516009830155610140830151805161263b92600a8501920190613bb1565b50610160820151600b820155610180820151805161266391600c840191602090910190613bb1565b506101a0820151600d8201556101c0820151600e8201556101e0820151600f820155610200820151601082015561022082015180516126ac916011840191602090910190613bb1565b506102408201518160120155610260820151816013015550508560008051602061527a8339815191528260000151604051610b149190614cf8565b6000546001600160a01b031633146127115760405162461bcd60e51b815260040161038190614b20565b60015482106127325760405162461bcd60e51b815260040161038190614a1b565b612821826040518060400160405280600d81526020016c657874656e6465645f6461746160981b8152506001858154811061277d57634e487b7160e01b600052603260045260246000fd5b90600052602060002090600e02016000018054612799906151c7565b80601f01602080910402602001604051908101604052809291908181526020018280546127c5906151c7565b80156128125780601f106127e757610100808354040283529160200191612812565b820191906000526020600020905b8154815290600101906020018083116127f557829003601f168201915b50505050508460000151613812565b612910826040518060400160405280600d81526020016c636f6e74726163745f6e616d6560981b8152506001858154811061286c57634e487b7160e01b600052603260045260246000fd5b90600052602060002090600e02016001018054612888906151c7565b80601f01602080910402602001604051908101604052809291908181526020018280546128b4906151c7565b80156129015780601f106128d657610100808354040283529160200191612901565b820191906000526020600020905b8154815290600101906020018083116128e457829003601f168201915b50505050508460200151613812565b6129ff826040518060400160405280600d81526020016c636f6e74726163745f7479706560981b8152506001858154811061295b57634e487b7160e01b600052603260045260246000fd5b90600052602060002090600e02016002018054612977906151c7565b80601f01602080910402602001604051908101604052809291908181526020018280546129a3906151c7565b80156129f05780601f106129c5576101008083540402835291602001916129f0565b820191906000526020600020905b8154815290600101906020018083116129d357829003601f168201915b50505050508460400151613812565b612aee826040518060400160405280600d81526020016c333ab73234b733afb4b739ba3960991b81525060018581548110612a4a57634e487b7160e01b600052603260045260246000fd5b90600052602060002090600e02016003018054612a66906151c7565b80601f0160208091040260200160405190810160405280929190818152602001828054612a92906151c7565b8015612adf5780601f10612ab457610100808354040283529160200191612adf565b820191906000526020600020905b815481529060010190602001808311612ac257829003601f168201915b50505050508460600151613812565b612b67826040518060400160405280600f81526020016e1cd95c9d9a58d957d9995957dc18dd608a1b815250612b5560018681548110612b3e57634e487b7160e01b600052603260045260246000fd5b90600052602060002090600e0201600401546136cd565b612b6285608001516136cd565b613812565b612bdb826040518060400160405280600f81526020016e0e6cae4ecd2c6cabecccacabedac2f608b1b815250612bce60018681548110612bb757634e487b7160e01b600052603260045260246000fd5b90600052602060002090600e0201600501546136cd565b612b628560a001516136cd565b612c4f826040518060400160405280600f81526020016e1cd95c9d9a58d957d9995957d85b5d608a1b815250612c4260018681548110612c2b57634e487b7160e01b600052603260045260246000fd5b90600052602060002090600e020160060154613875565b612b628560c00151613875565b612cbf826040518060400160405280600b81526020016a18591d985b98d957dc18dd60aa1b815250612cb260018681548110612c9b57634e487b7160e01b600052603260045260246000fd5b90600052602060002090600e0201600701546136cd565b612b628560e001516136cd565b612d31826040518060400160405280600c81526020016b1b185d1957d9995957dc18dd60a21b815250612d2360018681548110612d0c57634e487b7160e01b600052603260045260246000fd5b90600052602060002090600e0201600801546136cd565b612b628561010001516136cd565b612e22826040518060400160405280600e81526020016d7472616e736163745f6c6f67696360901b81525060018581548110612d7d57634e487b7160e01b600052603260045260246000fd5b90600052602060002090600e02016009018054612d99906151c7565b80601f0160208091040260200160405190810160405280929190818152602001828054612dc5906151c7565b8015612e125780601f10612de757610100808354040283529160200191612e12565b820191906000526020600020905b815481529060010190602001808311612df557829003601f168201915b5050505050846101200151613812565b612f0a82604051806040016040528060058152602001646e6f74657360d81b81525060018581548110612e6557634e487b7160e01b600052603260045260246000fd5b90600052602060002090600e0201600c018054612e81906151c7565b80601f0160208091040260200160405190810160405280929190818152602001828054612ead906151c7565b8015612efa5780601f10612ecf57610100808354040283529160200191612efa565b820191906000526020600020905b815481529060010190602001808311612edd57829003601f168201915b5050505050846101800151613812565b612f7e826040518060400160405280600981526020016869735f61637469766560b81b815250612f7060018681548110612f5457634e487b7160e01b600052603260045260246000fd5b60009182526020909120600d600e90920201015460ff16613a2c565b612b62856101a00151613a2c565b612ff9826040518060400160405280600881526020016769735f71756f746560c01b815250612feb60018681548110612fc757634e487b7160e01b600052603260045260246000fd5b90600052602060002090600e0201600d0160019054906101000a900460ff16613a2c565b612b62856101c00151613a2c565b806001838154811061301b57634e487b7160e01b600052603260045260246000fd5b90600052602060002090600e02016000820151816000019080519060200190613045929190613bb1565b50602082810151805161305e9260018501920190613bb1565b506040820151805161307a916002840191602090910190613bb1565b5060608201518051613096916003840191602090910190613bb1565b506080820151600482015560a0820151600582015560c0820151600682015560e08201516007820155610100820151600882015561012082015180516130e6916009840191602090910190613bb1565b50610140820151600a820155610160820151600b820155610180820151805161311991600c840191602090910190613bb1565b506101a0820151600d90910180546101c09093015115156101000261ff001992151560ff1990941693909317919091169190911790555050565b6000546001600160a01b0316331461317d5760405162461bcd60e51b815260040161038190614b20565b600180548082018255600091909152815180518392600e027fb10e2d527612073b26eecdfd717e6a320cf44b4afac2b0732d9fcbe2b7fa0cf601916131c791839160200190613bb1565b5060208281015180516131e09260018501920190613bb1565b50604082015180516131fc916002840191602090910190613bb1565b5060608201518051613218916003840191602090910190613bb1565b506080820151600482015560a0820151600582015560c0820151600682015560e0820151600782015561010082015160088201556101208201518051613268916009840191602090910190613bb1565b50610140820151600a820155610160820151600b820155610180820151805161329b91600c840191602090910190613bb1565b506101a0820151600d90910180546101c09093015115156101000261ff001992151560ff199094169390931791909116919091179055600180546132df9190615184565b60008051602061527a83398151915282602001516040516103de91906149e4565b60015460609082106133245760405162461bcd60e51b815260040161038190614a1b565b600082815260046020908152604080832080548251818502810185019093528083529193909284015b82821015610cde57838290600052602060002090600502016040518060a0016040529081600082018054613380906151c7565b80601f01602080910402602001604051908101604052809291908181526020018280546133ac906151c7565b80156133f95780601f106133ce576101008083540402835291602001916133f9565b820191906000526020600020905b8154815290600101906020018083116133dc57829003601f168201915b50505050508152602001600182018054613412906151c7565b80601f016020809104026020016040519081016040528092919081815260200182805461343e906151c7565b801561348b5780601f106134605761010080835404028352916020019161348b565b820191906000526020600020905b81548152906001019060200180831161346e57829003601f168201915b50505050508152602001600282015481526020016003820180546134ae906151c7565b80601f01602080910402602001604051908101604052809291908181526020018280546134da906151c7565b80156135275780601f106134fc57610100808354040283529160200191613527565b820191906000526020600020905b81548152906001019060200180831161350a57829003601f168201915b50505050508152602001600482018054613540906151c7565b80601f016020809104026020016040519081016040528092919081815260200182805461356c906151c7565b80156135b95780601f1061358e576101008083540402835291602001916135b9565b820191906000526020600020905b81548152906001019060200180831161359c57829003601f168201915b5050505050815250508152602001906001019061334d565b6000546001600160a01b031633146135fb5760405162461bcd60e51b815260040161038190614b20565b600154811061361c5760405162461bcd60e51b815260040161038190614a1b565b600081815260056020526040812061363391613d88565b8060008051602061527a8339815191526040516103de90614c5b565b6000546001600160a01b031633146136795760405162461bcd60e51b815260040161038190614b20565b600154811061369a5760405162461bcd60e51b815260040161038190614a1b565b60008181526003602052604081206136b191613da9565b8060008051602061527a8339815191526040516103de90614a4b565b6060816136f257506040805180820190915260018152600360fc1b6020820152610ce5565b8160005b811561371c578061370681615202565b91506137159050600a8361508f565b91506136f6565b6000816001600160401b0381111561374457634e487b7160e01b600052604160045260246000fd5b6040519080825280601f01601f19166020018201604052801561376e576020820181803683370190505b509050815b851561380957613784600182615184565b90506000613793600a8861508f565b61379e90600a615126565b6137a89088615184565b6137b390603061503c565b905060008160f81b9050808484815181106137de57634e487b7160e01b600052603260045260246000fd5b60200101906001600160f81b031916908160001a905350613800600a8961508f565b97505050613773565b50949350505050565b808051906020012082805190602001201461386f578360008051602061527a83398151915284848460405160200161384c939291906145ae565b60408051601f198184030181529082905261386691614bb2565b60405180910390a25b50505050565b60608161389a57506040805180820190915260018152600360fc1b6020820152610ce5565b600080831290808483156138c1576138b18161521d565b9050826138bd81615202565b9350505b8091505b81156138eb57826138d581615202565b93506138e49050600a8361508f565b91506138c5565b6000836001600160401b0381111561391357634e487b7160e01b600052604160045260246000fd5b6040519080825280601f01601f19166020018201604052801561393d576020820181803683370190505b5091925082919050835b83156139dd57613958600182615184565b90506000613967600a8661508f565b61397290600a615126565b61397c9086615184565b61398790603061503c565b905060008160f81b9050808484815181106139b257634e487b7160e01b600052603260045260246000fd5b60200101906001600160f81b031916908160001a9053506139d4600a8761508f565b95505050613947565b8515613a2157602d60f81b82600081518110613a0957634e487b7160e01b600052603260045260246000fd5b60200101906001600160f81b031916908160001a9053505b509695505050505050565b606081613a56576040518060400160405280600581526020016466616c736560d81b815250613a74565b604051806040016040528060048152602001637472756560e01b8152505b92915050565b5080546000825560050290600052602060002090810190613a9b9190613dca565b50565b828054613aaa906151c7565b90600052602060002090601f016020900481019282613acc5760008555613b19565b82601f10613add5780548555613b19565b82800160010185558215613b1957600052602060002091601f016020900482015b82811115613b19578254825591600101919060010190613afe565b50613b25929150613e1b565b5090565b508054613b35906151c7565b6000825580601f10613b475750613a9b565b601f016020900490600052602060002090810190613a9b9190613e1b565b6040518061012001604052806060815260200160008152602001600081526020016000815260200160008152602001606081526020016000815260200160008152602001606081525090565b828054613bbd906151c7565b90600052602060002090601f016020900481019282613bdf5760008555613b19565b82601f10613bf857805160ff1916838001178555613b19565b82800160010185558215613b19579182015b82811115613b19578251825591602001919060010190613c0a565b6040518060a0016040528060608152602001606081526020016000815260200160608152602001606081525090565b5080546000825560140290600052602060002090810190613a9b9190613e30565b604051806101e00160405280606081526020016060815260200160608152602001606081526020016000815260200160008152602001600081526020016000815260200160008152602001606081526020016000815260200160008152602001606081526020016000151581526020016000151581525090565b60405180610280016040528060608152602001600081526020016000815260200160008152602001600081526020016000815260200160008152602001600081526020016000815260200160008152602001606081526020016000815260200160608152602001600081526020016000815260200160008152602001600081526020016060815260200160008152602001600081525090565b5080546000825560030290600052602060002090810190613a9b9190613efb565b5080546000825560090290600052602060002090810190613a9b9190613f38565b80821115613b25576000613dde8282613b29565b613dec600183016000613b29565b6002820160009055600382016000613e049190613b29565b613e12600483016000613b29565b50600501613dca565b5b80821115613b255760008155600101613e1c565b80821115613b25576000613e448282613b29565b600182016000905560028201600090556003820160009055600482016000905560058201600090556006820160009055600782016000905560088201600090556009820160009055600a82016000613e9c9190613b29565b600b820160009055600c82016000613eb49190613b29565b600d820160009055600e820160009055600f8201600090556010820160009055601182016000613ee49190613b29565b506000601282018190556013820155601401613e30565b80821115613b25576000613f0f8282613b29565b6001820180546001600160a01b0319169055613f2f600283016000613b29565b50600301613efb565b80821115613b25576000613f4c8282613b29565b6001820160009055600282016000905560038201600090556004820160009055600582016000613f7c9190613b29565b60068201600090556007820160009055600882016000613f9c9190613b29565b50600901613f38565b80358015158114610ce557600080fd5b600082601f830112613fc5578081fd5b81356001600160401b03811115613fde57613fde615263565b613ff1601f8201601f1916602001614fba565b818152846020838601011115614005578283fd5b816020850160208301379081016020019190915292915050565b60006101e0808385031215614032578182fd5b61403b81614fba565b91505081356001600160401b038082111561405557600080fd5b61406185838601613fb5565b8352602084013591508082111561407757600080fd5b61408385838601613fb5565b6020840152604084013591508082111561409c57600080fd5b6140a885838601613fb5565b604084015260608401359150808211156140c157600080fd5b6140cd85838601613fb5565b60608401526080840135608084015260a084013560a084015260c084013560c084015260e084013560e0840152610100915081840135828401526101209150818401358181111561411d57600080fd5b61412986828701613fb5565b92840192909252610140848101359084015261016080850135908401526101809150818401358181111561415c57600080fd5b61416886828701613fb5565b838501525050506101a061417d818401613fa5565b908201526101c061418f838201613fa5565b9082015292915050565b6000602082840312156141aa578081fd5b81356001600160401b038111156141bf578182fd5b6141cb8482850161401f565b949350505050565b6000602082840312156141e4578081fd5b5035919050565b600080600080600060a08688031215614202578081fd5b8535945060208601356001600160401b038082111561421f578283fd5b61422b89838a01613fb5565b95506040880135915080821115614240578283fd5b61424c89838a01613fb5565b94506060880135915080821115614261578283fd5b5061426e88828901613fb5565b95989497509295608001359392505050565b600080600080600060a08688031215614297578081fd5b8535945060208601356001600160401b03808211156142b4578283fd5b6142c089838a01613fb5565b9550604088013594506060880135935060808801359150808211156142e3578283fd5b506142f088828901613fb5565b9150509295509295909350565b600080600080600060a08688031215614314578081fd5b8535945060208601356001600160401b03811115614330578182fd5b61433c88828901613fb5565b959895975050505060408401359360608101359360809091013592509050565b6000806040838503121561436e578182fd5b8235915060208301356001600160401b0381111561438a578182fd5b6143968582860161401f565b9150509250929050565b600080604083850312156143b2578182fd5b8235915060208301356001600160401b03808211156143cf578283fd5b90840190606082870312156143e2578283fd5b6040516060810181811083821117156143fd576143fd615263565b60405282358281111561440e578485fd5b61441a88828601613fb5565b82525060208301356001600160a01b0381168114614436578485fd5b602082015260408301358281111561444c578485fd5b61445888828601613fb5565b6040830152508093505050509250929050565b6000806040838503121561447d578182fd5b50508035926020909101359150565b600080600080600060a086880312156144a3578081fd5b8535945060208601359350604086013592506060860135915060808601356001600160401b038111156144d4578182fd5b6142f088828901613fb5565b60008060008060008060c087890312156144f8578384fd5b8635955060208701359450604087013593506060870135925060808701356001600160401b038082111561452a578283fd5b6145368a838b01613fb5565b935060a089013591508082111561454b578283fd5b5061455889828a01613fb5565b9150509295509295509295565b600080600080600060a086880312156144a3578283fd5b15159052565b6000815180845261459a81602086016020860161519b565b601f01601f19169290920160200192915050565b600084516145c081846020890161519b565b601d60f91b90830190815284516145de81600184016020890161519b565b61169f60f11b60019290910191820152835161460181600384016020880161519b565b0160030195945050505050565b6001600160a01b0391909116815260200190565b60208082528251828201819052600091906040908185019080840286018301878501865b838110156146d857603f19898403018552815160a0815181865261466c82870182614582565b915050888201518582038a8701526146848282614582565b9150508782015188860152606080830151868303828801526146a68382614582565b92505050608080830151925085820381870152506146c48183614582565b968901969450505090860190600101614646565b509098975050505050505050565b60208082528251828201819052600091906040908185019080840286018301878501865b838110156146d857603f1989840301855281516060815181865261473082870182614582565b838b01516001600160a01b0316878c0152928901518684038a88015292915061475b90508183614582565b96890196945050509086019060010161470a565b60208082528251828201819052600091906040908185019080840286018301878501865b838110156146d857603f19898403018552815161028081518186526147ba82870182614582565b838b0151878c0152898401518a880152606080850151908801526080808501519088015260a0808501519088015260c0808501519088015260e080850151908801526101008085015190880152610120808501519088015261014080850151888303828a0152919350915061482f8382614582565b9250505061016080830151818701525061018080830151868303828801526148578382614582565b6101a085810151908901526101c080860151908901526101e08086015190890152610200808601519089015261022080860151898303828b0152919450925090506148a28382614582565b61024085810151908901526102609485015194909701939093525050509386019390860190600101614793565b60208082528251828201819052600091906040908185019080840286018301878501865b838110156146d857603f198984030185528151610120815181865261491a82870182614582565b915050888201518986015287820151888601526060808301518187015250608080830151818701525060a0808301518683038288015261495a8382614582565b9250505060c080830151818701525060e0808301518187015250610100808301519250858203818701525061498f8183614582565b9689019694505050908601906001016148f3565b600060408252601060408301526f151c985b9cd858dd1a5bdb905919195960821b6060830152608060208301526149dd6080830184614582565b9392505050565b600060408252600d60408301526c10dbdb9d1c9858dd1059191959609a1b6060830152608060208301526149dd6080830184614582565b602080825260169082015275092dcecc2d8d2c840c6dedce8e4c2c6e840d2dcc8caf60531b604082015260600190565b604080825260139082015272151c985b9cd858dd1a5bdb9cd1195b195d1959606a1b606082015260806020820181905260009082015260a00190565b6040808252600a9082015269506179416476616e636560b01b606082015260806020820181905260009082015260a00190565b602080825260169082015275092dcecc2d8d2c840c2e4e8d2ccc2c6e840d2dcc8caf60531b604082015260600190565b600060408252600c60408301526b14185c9d1e51195b195d195960a21b6060830152608060208301526149dd6080830184614582565b60208082526039908201527f4163636573732064656e6965642c206f6e6c7920636f6e7472616374206f776e60408201527f65722063616e2063616c6c20746869732066756e6374696f6e00000000000000606082015260800190565b6040808252600c908201526b14995cda591d585b14185a5960a21b606082015260806020820181905260009082015260a00190565b600060408252600f60408301526e10dbdb9d1c9858dd155c19185d1959608a1b6060830152608060208301526149dd6080830184614582565b600060408252600f60408301526e105c9d1a599858dd11195b195d1959608a1b6060830152608060208301526149dd6080830184614582565b6040808252600e908201526d141bdcdd14d95d1d1b195b595b9d60921b606082015260806020820181905260009082015260a00190565b6040808252600e908201526d14185c9d1a595cd1195b195d195960921b606082015260806020820181905260009082015260a00190565b60408082526010908201526f105c9d1a599858dd1cd1195b195d195960821b606082015260806020820181905260009082015260a00190565b602080825260139082015272092dcecc2d8d2c840e0c2e4e8f240d2dcc8caf606b1b604082015260600190565b600060408252600f60408301526e14d95d1d1b195b595b9d1059191959608a1b6060830152608060208301526149dd6080830184614582565b600060408252600a60408301526914185c9d1e505919195960b21b6060830152608060208301526149dd6080830184614582565b60408082526012908201527114d95d1d1b195b595b9d1cd1195b195d195960721b606082015260806020820181905260009082015260a00190565b600060408252600f60408301526e10dbdb9d1c9858dd11195b195d1959608a1b6060830152608060208301526149dd6080830184614582565b600060408252600d60408301526c105c9d1a599858dd1059191959609a1b6060830152608060208301526149dd6080830184614582565b60408082526010908201526f2a3930b739b0b1ba34b7b722b93937b960811b6060820152608060208201819052601a908201527f4e6f2076616c696420736574746c656d656e7420706572696f6400000000000060a082015260c00190565b60006020825282516101e0806020850152614e8e610200850183614582565b91506020850151601f1980868503016040870152614eac8483614582565b93506040870151915080868503016060870152614ec98483614582565b93506060870151915080868503016080870152614ee68483614582565b9350608087015160a087015260a087015160c087015260c087015160e087015260e08701519150610100828188015280880151925050610120828188015280880151925050610140818786030181880152614f418584614582565b90880151610160888101919091528801516101808089019190915288015187820383016101a0808a01919091529195509250614f7d8584614582565b945080880151925050506101c0614f968187018361457c565b8601519050614fa78583018261457c565b5090949350505050565b90815260200190565b6040518181016001600160401b0381118282101715614fdb57614fdb615263565b604052919050565b600080821280156001600160ff1b038490038513161561500557615005615237565b600160ff1b839003841281161561501e5761501e615237565b50500190565b6000821982111561503757615037615237565b500190565b600060ff821660ff84168060ff0382111561505957615059615237565b019392505050565b6000826150705761507061524d565b600160ff1b82146000198414161561508a5761508a615237565b500590565b60008261509e5761509e61524d565b500490565b60006001600160ff1b03818413828413808216868404861116156150c9576150c9615237565b600160ff1b848712828116878305891216156150e7576150e7615237565b85871292508782058712848416161561510257615102615237565b8785058712818416161561511857615118615237565b505050929093029392505050565b600081600019048311821515161561514057615140615237565b500290565b60008083128015600160ff1b85018412161561516357615163615237565b6001600160ff1b038401831381161561517e5761517e615237565b50500390565b60008282101561519657615196615237565b500390565b60005b838110156151b657818101518382015260200161519e565b8381111561386f5750506000910152565b6002810460018216806151db57607f821691505b602082108114156151fc57634e487b7160e01b600052602260045260246000fd5b50919050565b600060001982141561521657615216615237565b5060010190565b6000600160ff1b82141561523357615233615237565b0390565b634e487b7160e01b600052601160045260246000fd5b634e487b7160e01b600052601260045260246000fd5b634e487b7160e01b600052604160045260246000fdfe345796c5f37ac4d00f0bd7eebb6ba729df51ddd74dafb2db6bf0c4a4a354577aa26469706673582212203e2d0e4be495f02f55224f3a5c1ee5343ac849966ac9d884f6ad0b53ab5128ad64736f6c63430008000033",
  "immutableReferences": {},
  "source": "// SPDX-License-Identifier: MIT\npragma solidity ^0.8.0;\n\ncontract Delivery {\n\n    address public owner;\n\n    Contract[] contracts;                                   // [contract_idx]\n    mapping (uint => Settlement[]) private settlements;     // contract_idx => settlement[]\n    mapping (uint => Transaction[]) private transactions;   // contract_idx => transaction[]\n    mapping (uint => Artifact[]) private artifacts;         // contract_idx => artifact_list[]\n    mapping (uint => Party[]) private parties;              // contract_idx => party[]\n\n    // every field ending in _dt is a unix timestamp\n    // every field ending in _amt is an integer representing a float with 2 decimals\n    // every field ending in _pct is an integer represending a float value with 4 decimals \n    // every field ending in _confirm is a string returned from the fiat payment provider\n\n    struct Contract {\n        string extended_data;           // json extended data\n        string contract_name;           // description for display purposes\n        string contract_type;           // the type of contract, e.g. ticketing, construction\n        string funding_instr;           // buyer funding instructions\n        uint service_fee_pct;           // service fee pct <= service_fee_max\n        uint service_fee_max;           // maximum fee that can be charged if the rate is variable\n        int service_fee_amt;            // flat rate amt if not percentage based\n        uint advance_pct;               // amount of money that will be advanced to seller for every transaction\n        uint late_fee_pct;              // an APR, daily rate calculated as late_fee_pct / 365\n        string transact_logic;          // jsonlogic formula for calculating transaction amount\n        int min_threshold;              // minimum expected amount for a deliverable (could be negative)\n        int max_threshold;              // maximum expected amount for a deliverable\n        string notes;                   // contract notes, can be used for additonal data requests\n        bool is_active;                 // instead of deleting, clear this flag to False\n        bool is_quote;                  // true if still in the quote stage\n    }\n\n    struct Settlement {\n        string extended_data;           // json extended data\n        uint settle_due_dt;             // date the payment is due \n        uint transact_min_dt;           // min date the transaction is made \n        uint transact_max_dt;           // max date the transaction is made \n        uint transact_count;            // number of transactions in this current settlement period \n        int advance_amt;                // the dollar amount that was advanced in this period (net amt)\n        int advance_amt_gross;          // the dollar amount that was advanced in this period less fees\n        uint settle_pay_dt;             // when the settlement was paid\n        int settle_exp_amt;             // expected amount of settlement 0\n        int settle_pay_amt;             // actual amount paid from the buyer\n        string settle_confirm;          // confirmation from payment source\n        int dispute_amt;                // if expected < actual, assume there was a dispute\n        string dispute_reason;          // if dispute_amt > 0, what was the reason (if provided)\n        uint days_late;                 // number of days late the payment was made\n        int late_fee_amt;               // amount of the late fee, will be taken out of the residual\n        uint residual_pay_dt;           // date and time the residual was paid\n        int residual_pay_amt;           // will equal residual_calc_amt after payment intitiated\n        string residual_confirm;        // residual confirmation from the payment source\n        int residual_exp_amt;           // expected amount of the residual\n        int residual_calc_amt;          // what the actual residual will be (exp - late_fee - dispute)\n    }\n\n    struct Transaction {\n        string extended_data;           // json extended data\n        uint transact_dt;               // date and time of the transaction\n        int transact_amt;               // calculated value of a transaction, negative if an adjustment\n        int service_fee_amt;            // calculated fee for a transaction\n        int advance_amt;                // advance_amt * advance_pct - service_fee_amt\n        string transact_data;           // data regarding transaction for jsonlogic    \n        uint advance_pay_dt;            // payment of advance\n        uint advance_pay_amt;           // will equal advance amt after payment initiated\n        string advance_confirm;         // payment confirmation of the advance from payment source\n    }\n\n    struct Artifact {\n        string artifact_id;             // external identifier\n        string extended_data;           // json extended data\n        uint added_dt;                  // date artifact was added\n        string doc_title;               // name of documents\n        string doc_type;                // document type\n    }\n\n    struct Party {\n        string party_code;              // code associated with a party\n        address party_address;          // wallet address\n        string party_type;              // the type of party associated with contract\n    }\n\n    event ContractEvent(uint indexed contract_idx, string eventType, string details);\n\n    constructor() {\n        owner = msg.sender;\n    }\n\n    modifier onlyOwner() {\n        require(msg.sender == owner, \"Access denied, only contract owner can call this function\");\n        _;\n    }\n\n    function getContractCount() public view returns (uint) {\n        return contracts.length;\n    }\n\n    function getContract(uint contract_idx) public view returns (Contract memory) {\n        require(contract_idx < contracts.length, \"Invalid contract index\");\n        return contracts[contract_idx];\n    }\n\n    function addContract (Contract memory contract_) public onlyOwner {\n        contracts.push(contract_);\n        emit ContractEvent(contracts.length - 1, \"ContractAdded\", contract_.contract_name);\n    }\n\n    function logContractChange(uint contract_idx, string memory field, string memory old_value, string memory new_value) private {\n        if (keccak256(bytes(old_value)) != keccak256(bytes(new_value))) {\n            emit ContractEvent(contract_idx, \"ContractUpdated\", string(abi.encodePacked(field, \":\", old_value, \"->\", new_value)));\n        }\n    }\n\n    function updateContract (uint contract_idx, Contract memory contract_) public onlyOwner {\n        require(contract_idx < contracts.length, \"Invalid contract index\");\n        logContractChange(contract_idx, \"extended_data\", contracts[contract_idx].extended_data, contract_.extended_data);\n        logContractChange(contract_idx, \"contract_name\", contracts[contract_idx].contract_name, contract_.contract_name);\n        logContractChange(contract_idx, \"contract_type\", contracts[contract_idx].contract_type, contract_.contract_type);\n        logContractChange(contract_idx, \"funding_instr\", contracts[contract_idx].funding_instr, contract_.funding_instr);\n        logContractChange(contract_idx, \"service_fee_pct\", uintToString(contracts[contract_idx].service_fee_pct), uintToString(contract_.service_fee_pct));\n        logContractChange(contract_idx, \"service_fee_max\", uintToString(contracts[contract_idx].service_fee_max), uintToString(contract_.service_fee_max));\n        logContractChange(contract_idx, \"service_fee_amt\", intToString(contracts[contract_idx].service_fee_amt), intToString(contract_.service_fee_amt));\n        logContractChange(contract_idx, \"advance_pct\", uintToString(contracts[contract_idx].advance_pct), uintToString(contract_.advance_pct));\n        logContractChange(contract_idx, \"late_fee_pct\", uintToString(contracts[contract_idx].late_fee_pct), uintToString(contract_.late_fee_pct));\n        logContractChange(contract_idx, \"transact_logic\", contracts[contract_idx].transact_logic, contract_.transact_logic);\n        logContractChange(contract_idx, \"notes\", contracts[contract_idx].notes, contract_.notes);\n        logContractChange(contract_idx, \"is_active\", boolToString(contracts[contract_idx].is_active), boolToString(contract_.is_active));\n        logContractChange(contract_idx, \"is_quote\", boolToString(contracts[contract_idx].is_quote), boolToString(contract_.is_quote));\n        contracts[contract_idx] = contract_;\n    }\n\n    // Mark a contract as inactive \n    function deleteContract(uint contract_idx) public onlyOwner {\n        require(contract_idx < contracts.length, \"Invalid contract index\");\n        contracts[contract_idx].is_active = false;\n        emit ContractEvent(contract_idx, \"ContractDeleted\", uintToString(contract_idx));\n    }\n\n    function getParties(uint contract_idx) public view returns (Party[] memory) {\n        require(contract_idx < contracts.length, \"Invalid contract index\");\n        return parties[contract_idx];\n    }\n\n    function addParty(uint contract_idx, Party memory party) public onlyOwner {\n        require(contract_idx < contracts.length, \"Invalid contract index\");\n        parties[contract_idx].push(party);\n        emit ContractEvent(contract_idx, \"PartyAdded\", party.party_code);\n    }\n\n    function deleteParty(uint contract_idx, uint party_idx) public onlyOwner {\n        require(contract_idx < contracts.length, \"Invalid contract index\");\n        require(party_idx < parties[contract_idx].length, \"Invalid party index\");\n\n        for (uint i = party_idx; i < parties[contract_idx].length - 1; i++) {\n            parties[contract_idx][i] = parties[contract_idx][i + 1];\n        }\n\n        parties[contract_idx].pop();\n\n        emit ContractEvent(contract_idx, \"PartyDeleted\", uintToString(party_idx));\n    }\n\n    function deleteParties(uint contract_idx) public onlyOwner {\n        require(contract_idx < contracts.length, \"Invalid contract index\");\n        delete parties[contract_idx];\n        emit ContractEvent(contract_idx, \"PartiesDeleted\", \"\");\n    }\n\n    function getArtifacts(uint contract_idx) public view returns (Artifact[] memory) {\n        require(contract_idx < contracts.length, \"Invalid contract index\");\n        return artifacts[contract_idx];\n    }\n\n    function addArtifact(uint contract_idx, string memory artifact_id, string memory doc_title, string memory doc_type, uint added_dt) public onlyOwner {\n        require(contract_idx < contracts.length, \"Invalid contract index\");\n        Artifact memory artifact;\n        artifact.added_dt = added_dt;\n        artifact.artifact_id = artifact_id;\n        artifact.doc_title = doc_title;\n        artifact.doc_type = doc_type; \n        artifacts[contract_idx].push(artifact);\n        emit ContractEvent(contract_idx, \"ArtifactAdded\", doc_title);\n    }\n\n    function deleteArtifact(uint contract_idx, uint artifact_idx) public onlyOwner {\n        require(contract_idx < contracts.length, \"Invalid contract index\");\n        require(artifact_idx < artifacts[contract_idx].length, \"Invalid artifact index\");\n\n        for (uint i = artifact_idx; i < artifacts[contract_idx].length - 1; i++) {\n            artifacts[contract_idx][i] = artifacts[contract_idx][i + 1];\n        }\n\n        artifacts[contract_idx].pop();\n\n        emit ContractEvent(contract_idx, \"ArtifactDeleted\", uintToString(artifact_idx));\n    }\n\n    function deleteArtifacts(uint contract_idx) public onlyOwner {\n        require(contract_idx < contracts.length, \"Invalid contract index\");\n        delete artifacts[contract_idx];\n        emit ContractEvent(contract_idx, \"ArtifactsDeleted\", \"\");\n    }\n\n    function getSettlements(uint contract_idx) public view returns (Settlement[] memory) {\n        require(contract_idx < contracts.length, \"Invalid contract index\");\n        return settlements[contract_idx];\n    }\n\n    function addSettlement(uint contract_idx, string memory extended_data, uint settle_due_dt, uint transact_min_dt, uint transact_max_dt) public onlyOwner {\n        require(contract_idx < contracts.length, \"Invalid contract index\");\n        Settlement memory settlement;\n        settlement.settle_due_dt = settle_due_dt;\n        settlement.transact_min_dt = transact_min_dt;\n        settlement.transact_max_dt = transact_max_dt;\n        settlement.extended_data = extended_data;\n        settlements[contract_idx].push(settlement);\n        emit ContractEvent(contract_idx, \"SettlementAdded\", settlement.extended_data);\n    }\n\n    function deleteSettlements(uint contract_idx) public onlyOwner {\n        require(contract_idx < contracts.length, \"Invalid contract index\");\n        delete settlements[contract_idx];\n        emit ContractEvent(contract_idx, \"SettlementsDeleted\", \"\");\n    }\n\n    function getTransactions(uint contract_idx) public view returns (Transaction[] memory) {\n        require(contract_idx < contracts.length, \"Invalid contract index\");\n        return transactions[contract_idx];\n    }\n\n    function deleteTransactions(uint contract_idx) public onlyOwner {\n        require(contract_idx < contracts.length, \"Invalid contract index\");\n        delete transactions[contract_idx];\n        emit ContractEvent(contract_idx, \"TransactionsDeleted\", \"\");\n    }\n\n    function addTransaction(uint contract_idx, string memory extended_data, uint transact_dt, int transact_amt, string memory transact_data) public onlyOwner {\n        require(contract_idx < contracts.length, \"Invalid contract index\");\n\n        Transaction memory transact;\n        transact.extended_data = extended_data;\n        transact.transact_dt = transact_dt;\n        transact.transact_amt = transact_amt;\n        transact.transact_data = transact_data;\n\n        bool settle_found = false;\n        int transact_advance_amt = 0;\n        int transact_advance_amt_gross = 0;\n        int service_fee_amt = 0;\n\n        for (uint i = 0; i < settlements[contract_idx].length; i++) {\n            Settlement storage settlement = settlements[contract_idx][i];\n            // minimum date is inclusive, maximum date is exclusive\n            if (transact_dt >= settlement.transact_min_dt && transact_dt < settlement.transact_max_dt) {\n                if (transact_amt > 0) {\n                    service_fee_amt = int((contracts[contract_idx].service_fee_pct * uint(transact_amt)) / 10000) + int(contracts[contract_idx].service_fee_amt);\n                    transact_advance_amt_gross = int((uint(transact_amt) * contracts[contract_idx].advance_pct) / 10000);\n\n                    // Determine the final advance amount after subtracting the service fee\n                    if (transact_advance_amt_gross >= service_fee_amt) {\n                        transact_advance_amt = transact_advance_amt_gross - service_fee_amt;\n                    }\n                }\n\n                settlement.settle_exp_amt += transact_amt;\n                settlement.advance_amt += transact_advance_amt;\n                settlement.advance_amt_gross += transact_advance_amt_gross;\n                settlement.residual_exp_amt = settlement.settle_exp_amt - settlement.advance_amt_gross;\n                settlement.transact_count++;\n                transact.advance_amt = transact_advance_amt;\n                transact.service_fee_amt = service_fee_amt;\n                settle_found = true;\n            }\n        }\n\n        if (settle_found) {\n            transactions[contract_idx].push(transact);\n            emit ContractEvent(contract_idx, \"TransactionAdded\", transact.extended_data);\n        } else {\n            emit ContractEvent(contract_idx, \"TransactionError\", \"No valid settlement period\");\n        }\n    }\n\n    function payAdvance(uint contract_idx, uint transact_idx, uint advance_pay_dt, uint advance_pay_amt, string memory advance_confirm) public onlyOwner {\n        require(contract_idx < contracts.length, \"Invalid contract index\");\n        transactions[contract_idx][transact_idx].advance_pay_dt = advance_pay_dt;\n        transactions[contract_idx][transact_idx].advance_pay_amt = advance_pay_amt;\n        transactions[contract_idx][transact_idx].advance_confirm = advance_confirm;\n        emit ContractEvent(contract_idx, \"PayAdvance\", \"\");\n    }\n\n    function postSettlement(uint contract_idx, uint settle_idx, uint settle_pay_dt, int settle_pay_amt, string memory settle_confirm, string memory dispute_reason) public onlyOwner {\n        require(contract_idx < contracts.length, \"Invalid contract index\");\n        settlements[contract_idx][settle_idx].settle_pay_dt = settle_pay_dt;\n        settlements[contract_idx][settle_idx].settle_pay_amt = settle_pay_amt;\n        settlements[contract_idx][settle_idx].settle_confirm = settle_confirm;\n\n        if (settle_pay_dt > settlements[contract_idx][settle_idx].settle_due_dt) {\n            settlements[contract_idx][settle_idx].days_late = (settle_pay_dt - settlements[contract_idx][settle_idx].settle_due_dt) / 60 / 60 / 24;\n\n            // Convert necessary values to int to match types and avoid errors\n            int days_late = int(settlements[contract_idx][settle_idx].days_late);\n            int late_fee_pct = int(contracts[contract_idx].late_fee_pct);\n            int settle_exp_amt = settlements[contract_idx][settle_idx].settle_exp_amt;\n\n            settlements[contract_idx][settle_idx].late_fee_amt = (days_late * ((late_fee_pct * 100000) / 365) * settle_exp_amt) / 1000000000;\n        }\n\n        if (settle_pay_amt < settlements[contract_idx][settle_idx].settle_exp_amt) {\n            settlements[contract_idx][settle_idx].dispute_amt = settlements[contract_idx][settle_idx].settle_exp_amt - settle_pay_amt;\n            settlements[contract_idx][settle_idx].dispute_reason = dispute_reason;\n        } \n\n        if ((settlements[contract_idx][settle_idx].residual_exp_amt - settlements[contract_idx][settle_idx].late_fee_amt - settlements[contract_idx][settle_idx].dispute_amt) > 0) {\n            settlements[contract_idx][settle_idx].residual_calc_amt = settlements[contract_idx][settle_idx].residual_exp_amt - settlements[contract_idx][settle_idx].late_fee_amt -\n                settlements[contract_idx][settle_idx].dispute_amt;\n        } else {\n            settlements[contract_idx][settle_idx].residual_calc_amt = 0;\n        }\n\n        emit ContractEvent(contract_idx, \"PostSettlement\", \"\");\n    }\n\n    function payResidual(uint contract_idx, uint settle_idx, uint residual_pay_dt, int residual_pay_amt, string memory residual_confirm) public onlyOwner {\n        require(contract_idx < contracts.length, \"Invalid contract index\");\n        settlements[contract_idx][settle_idx].residual_pay_dt = residual_pay_dt;\n        settlements[contract_idx][settle_idx].residual_pay_amt = residual_pay_amt;\n        settlements[contract_idx][settle_idx].residual_confirm = residual_confirm;\n        emit ContractEvent(contract_idx, \"ResidualPaid\", \"\");\n    }\n\n    function uintToString(uint v) internal pure returns (string memory) {\n        if (v == 0) {\n            return \"0\";\n        }\n        uint j = v;\n        uint len;\n        while (j != 0) {\n            len++;\n            j /= 10;\n        }\n        bytes memory bstr = new bytes(len);\n        uint k = len;\n        while (v != 0) {\n            k = k - 1;\n            uint8 temp = (48 + uint8(v - v / 10 * 10));\n            bytes1 b1 = bytes1(temp);\n            bstr[k] = b1;\n            v /= 10;\n        }\n        return string(bstr);\n    }\n\n   function intToString(int v) internal pure returns (string memory) {\n        if (v == 0) {\n            return \"0\";\n        }\n\n        bool negative = v < 0;\n        uint len = 0;\n        uint i;\n        int temp = v;\n\n        if (negative) {\n            temp = -temp;\n            len++;\n        }\n\n        i = uint(temp);\n\n        while (i != 0) {\n            len++;\n            i /= 10;\n        }\n\n        bytes memory bstr = new bytes(len);\n        uint k = len;\n        i = uint(temp);\n\n        while (i != 0) {\n            k = k - 1;\n            uint8 tempDigit = (48 + uint8(i - i / 10 * 10));\n            bytes1 b1 = bytes1(tempDigit);\n            bstr[k] = b1;\n            i /= 10;\n        }\n\n        if (negative) {\n            bstr[0] = '-';\n        }\n\n        return string(bstr);\n    } \n\n    function boolToString(bool v) internal pure returns (string memory) {\n        return v ? \"true\" : \"false\";\n    }\n}",
  "sourcePath": "/Users/davidnichamoff/Projects/FIZIT_DEV/truffle/contracts/Delivery.sol",
  "compiler": {
    "name": "solc",
    "version": "0.8.0+commit.c7dfd78e.Emscripten.clang"
  },
  "schemaVersion": "3.4.16",
  "updatedAt": "2024-09-03T15:32:30.582Z",
  "networkType": "ethereum",
  "devdoc": {
    "kind": "dev",
    "methods": {},
    "version": 1
  },
  "userdoc": {
    "kind": "user",
    "methods": {},
    "version": 1
  }
}